:100000000C9404030C944A190C9423190C94FC18B6
:100010000C94D5180C942C030C942C030C94AE184F
:100020000C942C030C946A1C0C9471190C94E01918
:100030000C942C030C942C030C942C030C942C0384
:100040000C942C030C942C030C942C030C942C0374
:100050000C942C030C942C030C942C030C94641817
:100060000C942C030C94381C0C94121C0C942C0330
:100070000C942C030C942C030C942C030C942C0344
:100080000C942C030C942C030C942C030C942C0334
:100090000C942C030C942C030C942C030C942C0324
:1000A0000C942C030C942C030C942C034D696E6956
:1000B00043683A2020202025640D0A0043656E74B1
:1000C000657243683A202025640D0A004D61786905
:1000D00043683A2020202025640D0A00506C617985
:1000E0002053616D653A2025640D0A00506C6179DA
:1000F0002053746F703A2025640D0A004E657874A1
:100100003A20202020202025640D0A0050726576B8
:100110003A20202020202025640D0A00566F6C43D1
:10012000683A202020202025640D0A00566F6C3A82
:100130002020202020202025640D0A004551204D3C
:100140006F64653A202025730D0A0058616E79208E
:100150006973204F464620210D0A0058616E7920B0
:10016000757365204368616E6E656C202564207C24
:100170002025730044656661756C74732056616C4C
:1001800075652053617665640D0A00E4031C041C48
:1001900004540454048C048C04C404C404FC04FCFF
:1001A00004340534056C056C05A405A405DC05DCE8
:1001B00005140614064C064C0684068406BC06BCD0
:1001C00006F406F4062C072C07640764079C079CBA
:1001D00007D407582D416E79204661696C736166BA
:1001E0006521202D3E204F757470757473203D205D
:1001F00030002058616E79207175616C69747920C6
:100200003D20256400202852784E6962626C654C5E
:10021000656E203D256400204578704E6962626CF1
:10022000654C656E3D25640009566F6C756D653AC9
:1002300025642020427573793A25642020536F7518
:100240006E643A25640D0A005377697463685B2510
:10025000642E2E315D3D0050726F703D202564206C
:1002600000C2B0292000202800416E676C653D0067
:1002700020543D005D3D00582D416E79204D73673F
:100280005B546F744E626C3D002E002E005D3A2070
:1002900030780052785B006D70335F726563765F13
:1002A000636D64206F7574004572726F72207265A1
:1002B00073706F6E7365207769746820636F64650F
:1002C00020006D70335F726563765F636D642069D3
:1002D0006E20776974682065787065637465642042
:1002E000636D6420307800080B00020202000009F0
:1002F0000400000102020000052400100105240191
:1003000001010424020605240600010705810310EB
:10031000004009040100020A000000070502024033
:1003200000000705830240000004030904120100D5
:1003300002EF0201404F1B0692000101020301532C
:100340007061726B46756E00537061726B46756EAC
:100350002050726F204D6963726F0000C20100006F
:10036000000E000E000C0000E1000005002200223B
:10037000002000009600000F003600360034001206
:100380007A00001700430043004100807000001A0B
:10039000004A004A004800004B00002C0071007128
:1003A000007000403800004A009C009900990080CD
:1003B0002500007200EA00EA00E900C0120000E92E
:1003C00000DA01DA01D70160090000D701AC03AC03
:1003D00003B103B0040000B3036E076E0767072C78
:1003E000010000DC0EC11DC11DBE1D2A2A2A2A2AB9
:1003F0002056005573652025732020257325732012
:1004000028505245562D4E4558542D504C41592F89
:100410005041555345290D0A005573652025732019
:100420002025732028505245562D4E4558542D50A6
:100430004C41592F5041555345290D0A00557365BC
:1004400020257320202573202025730D0A00437575
:100450007272656E7420736F756E643A2025640D38
:100460000A0046696C657320666F756E643A2025D4
:10047000640D0A00457175616C697A65723A2020D5
:1004800025730D0A00566F6C756D652020202020A5
:10049000203A2025640D0A005374617465202020E1
:1004A000202020203A2025730D0A00455252005882
:1004B000414E5920757365204368616E6E656C20EE
:1004C00025640D0A004551204D6F64653A2025735F
:1004D0000D0A00506C617953616D6543683A2025BF
:1004E000640D0A00506C6179506175736543683A18
:1004F0002025640D0A005072657643683A20256411
:100500000D0A004E65787443683A2025640D0A0090
:10051000566F6C43683A2025640D0A00496E707569
:1005200074204D6F64652069732025730D0A005691
:100530006F6C3A25640D0A00416C61726D3A20259A
:100540006420666972656420210D0A00536F756E20
:10055000644E756D6265723A2025640D0A00536918
:10056000676E616C20257320566F6C756D65206E0B
:100570006F7420666F756E6420210D0A0000000004
:1005800000240027002A002D003000000000020097
:10059000090F0000030401000C000000000000002F
:1005A00000000000000000000000000000250028FE
:1005B000002B002E0031000000000023002600293F
:1005C000002C002F000404040404030405020202AA
:1005D00002040302020202060606060606040402DC
:1005E00002020404040802011040804010204080F0
:1005F0004080080204018040201002011080102079
:1006000040402000B01CE42E11241FBECFEFDAE0E2
:10061000DEBFCDBF16E0A0E0B1E0E0E4FAE602C044
:1006200005900D92AC3AB107D9F729E0ACEAB6E0F3
:1006300001C01D92A13FB207E1F713E0C3E0D3E090
:1006400004C02197FE010E94F934C230D107C9F7D6
:100650000E94FB1D0C9413350C9400008F929F9206
:10066000AF92BF92FF920F931F93CF93DF934B01F3
:100670005C01F42EC0E3D8E0E889F98982E0808348
:10068000EC85FD8510820E851F8560E079E08DE3A5
:1006900090E0A50194010E9478322150310941096E
:1006A00051095695479537952795F8012083188E5F
:1006B000EC89FD89F082EA89FB89808180618083F1
:1006C000EA89FB89808188608083EA89FB8980814F
:1006D00080688083EA89FB8980818F7D8083DF91B8
:1006E000CF911F910F91FF90BF90AF909F908F90EF
:1006F0000895FC0180911608882311F13FB7F89402
:1007000082E08093E9002091F200822F90E0181699
:10071000190614F481E090E0882339F0289844E623
:10072000409315084091F1004083222339F0209135
:10073000F200211103C02BE62093E8003FBF08958B
:100740008FEF9FEF08952FB7F89483E08093E9002F
:100750009091E800892F807295FF04C09091F2007B
:1007600080E4891B2FBF089580910D0881110DC071
:1007700082E08093090884E080930A0810920C08B4
:1007800010920B0881E080930D0889E098E00895AD
:1007900081508F3008F047C0E82FF0E0EE52FC4F58
:1007A0000C94F934EF03F303E103E703EB031304C1
:1007B00013041304F603FC03000404040A041304E2
:1007C0000E04809180008F7780938000089580913F
:1007D00080008F7DF9CF80918000877FF5CF84B531
:1007E0008F7784BD089584B58F7DFBCF8091900075
:1007F0008F77809390000895809190008F7DF9CF3E
:1008000080919000877FF5CF8091C0008F77809393
:10081000C00008958091C0008F7DF9CF8091C20003
:10082000877F8093C2000895CF93DF93282F30E015
:10083000F901E557FA4F8491F901EC51FA4FD4913F
:10084000F901EB53FA4FC491CC23A1F081110E941E
:10085000C803EC2FF0E0EE0FFF1FE954FA4FA5910B
:10086000B491EC91ED2381E090E009F480E0DF9118
:10087000CF91089580E090E0FACF1F93CF93DF935C
:10088000282F30E0F901E557FA4F8491F901EC5136
:10089000FA4FD491F901EB53FA4FC491CC23A9F04C
:1008A000162F81110E94C803EC2FF0E0EE0FFF1FFE
:1008B000E755FA4FA591B4918FB7F894EC911111C7
:1008C00008C0D095DE23DC938FBFDF91CF911F91BD
:1008D0000895DE2BF8CFCF93DF9390E0FC01EC512D
:1008E000FA4F24918B539A4FFC0184918823C9F0CD
:1008F00090E0880F991FFC01E358FA4FA591B4913D
:10090000FC01E755FA4FC591D49161110DC09FB715
:10091000F8948C91209582238C93888128232883B6
:100920009FBFDF91CF910895623051F49FB7F89443
:100930003C91822F809583238C93E8812E2BEFCFDF
:100940008FB7F894EC912E2B2C938FBFEACF3FB743
:10095000F8948091050890910608A0910708B0913D
:10096000080826B5A89B05C02F3F19F00196A11DC8
:10097000B11D3FBFBA2FA92F982F8827BC01CD01E9
:10098000620F711D811D911D42E0660F771F881F48
:10099000991F4A95D1F708958F929F92AF92BF9277
:1009A000CF92DF92EF92FF924B015C010E94A7046D
:1009B0006B017C010E94A7046C197D098E099F09B7
:1009C000683E734081059105A8F321E0821A9108E1
:1009D000A108B10888EEC80E83E0D81EE11CF11C06
:1009E00081149104A104B10429F7FF90EF90DF90E6
:1009F000CF90BF90AF909F908F900895CF93C0916C
:100A000023016AE070E080E090E00E94CC0481E085
:100A1000C11101C080E0CF9108952FB7F894609183
:100A200001087091020880910308909104082FBF7B
:100A30000895CF93DF93809315011092170160936F
:100A400018012091130190911401290F3327331FAE
:100A5000820F932F911D20911601820F911D680F17
:100A6000791F7195619571097093190160931A014D
:100A700080911D0890911E08DC01ED91FC9100848D
:100A8000F185E02D0995892B61F080911D089091E9
:100A90001E08DC01ED91FC910284F385E02D09959F
:100AA000E7CFC2E1D1E080911D0890911E086991C5
:100AB000DC01ED91FC910190F081E02D0995B1E010
:100AC000CC31DB0781F7DF91CF910C940D05CF92EC
:100AD000DF92EF92FF921F93CF93DF93D82FC0E066
:100AE00011E0C0901908D0901A08E0901B08F0900F
:100AF0001C0880911101882311F10E940D056C19C9
:100B00007D098E099F09683E73408105910560F05B
:100B1000109211010E940D056093190870931A0834
:100B200080931B0890931C08CF5FDC13DACFDF9112
:100B3000CF911F91FF90EF90DF90CF9008950E948A
:100B40000D056C197D098E099F09643F714081056F
:100B5000910550F310931101DDCF862720E1829F8C
:100B6000B00111248627482F50E0292F382FCA01C1
:100B700064E0959587956A95E1F728273927CA019A
:100B800073E0880F991F7A95E1F7822793270895DC
:100B90000895409121075091220720911F0730911D
:100BA000200742175307B4F49091E8009570E1F3E1
:100BB0009091E80092FD19C08093F1008091210787
:100BC0009091220701968F739927892B19F48EEF44
:100BD0008093E800809121079091220701969093DD
:100BE00022078093210781E0089580E00895EF9225
:100BF000FF920F931F93CF93DF93F82E192FE62EBA
:100C0000042F81E0860F880F0E94C90583E00E94AF
:100C1000C905CF2DD12FEC0EFD2EF11CCE15DF0511
:100C2000B9F007FF13C0FE0184910E94C905182F77
:100C300080E00E94C905812321968111EFCFDF91C9
:100C4000CF911F910F91FF90EF9008958881EDCF84
:100C500081E0F5CFDF92EF92FF920F931F93CF9336
:100C6000DF93D82E8A01EB017B01E40EF51ECE1531
:100C7000DF0559F0D7FE12C0FE0184910E94C9051C
:100C800021968111F4CF0FEF1FEFC801DF91CF91B3
:100C90001F910F91FF90EF90DF9008958881EECF24
:100CA0000F931F93CF93DF931F92CDB7DEB782E0F0
:100CB000898342E450E067EE72E080E80E942A06F1
:100CC0000E94B403DC0112960D911C9101151105CF
:100CD00089F0D801ED91FC910280F381E02DBE01F5
:100CE0006F5F7F4FC801099597FD04C0F80100852B
:100CF0001185ECCF89810F90DF91CF911F910F91DA
:100D00000895615030F02091F100FC01208301969C
:100D1000F8CF289884E6809315080895EF92FF9203
:100D20000F931F93CF93DF938C017B01D0E0C0E042
:100D3000F701EC0FFD1F6491662361F0D801ED917E
:100D4000FC910190F081E02DC8010995892B11F0EB
:100D50002196EECFCE01DF91CF911F910F91FF90A1
:100D6000EF900895AF92BF92CF92DF92EF92FF92F1
:100D70000F931F93CF93DF936C017B018B01040FC3
:100D8000151FEB015E01AE18BF08C017D10759F05F
:100D90006991D601ED91FC910190F081E02DC601A1
:100DA0000995892B79F7C501DF91CF911F910F919B
:100DB000FF90EF90DF90CF90BF90AF900895FC012F
:100DC000538D448D252F30E0842F90E0821B930BB0
:100DD000541710F0CF96089501970895FC01918D56
:100DE000828D981761F0A28DAE0FBF2FB11D5D9659
:100DF0008C91928D9F5F9F73928F90E008958FEFFB
:100E00009FEF0895FC01918D828D981731F0828DAE
:100E1000E80FF11D858D90E008958FEF9FEF089505
:100E2000FC01918D228D892F90E0805C9F4F821B69
:100E300091098F739927089580E398E00E94100725
:100E400021E0892B09F420E0822F089580E090E0D2
:100E5000892B29F00E941C0781110C940000089531
:100E6000FC01A48DA80FB92FB11DA35ABF4F2C911F
:100E7000848D90E001968F739927848FA689B78916
:100E80002C93A089B1898C9182748C93938D848DDD
:100E9000981306C00288F389E02D80818F7D8083BE
:100EA0000895EF92FF920F931F93CF93DF93EC017E
:100EB00081E0888F9B8D8C8D981319C0E889F98902
:100EC000808185FF14C09FB7F894EE89FF89608305
:100ED000E889F9898081827480839FBF81E090E0F6
:100EE000DF91CF911F910F91FF90EF900895F62E13
:100EF0000B8D10E00F5F1F4F0F731127E02E8C8DAD
:100F00008E110CC00FB607FCFACFE889F9898081F1
:100F100085FFF5CFCE010E943007F1CFEB8DEC0FAE
:100F2000FD2FF11DE35AFF4FF0829FB7F8940B8F0E
:100F3000EA89FB8980818062CFCFCF93DF93EC0178
:100F4000888D8823B9F0AA89BB89E889F9898C91B1
:100F500085FD03C0808186FD0DC00FB607FCF7CF6D
:100F60008C9185FFF2CF808185FFEDCFCE010E946D
:100F70003007E9CFDF91CF9108958F929F92AF9282
:100F8000BF92CF92DF92EF92FF920F931F93CF9376
:100F9000DF936C017B018A0180912301882309F48E
:100FA0005CC080911608882309F457C080912507FA
:100FB00080FF05C08091E00082608093E000E8013E
:100FC000B12C8AEFA82E93E0892E2AE3922E209747
:100FD00011F4BB20D9F10E94A30381110AC0AA9485
:100FE000AA20D9F161E070E080E090E00E94CC049A
:100FF000EECF8C171D0611F00CF08C2F9FB7F894D4
:101000008092E9002091E80025FD02C09FBFDFCF5C
:10101000282F30E0C21BD30BF701815020F0419103
:101020004093F100FACFE20EF31EBB2021F0909224
:10103000E800B12CEBCF8091E80085FDE7CF9092DE
:10104000E800BB24B394209709F3F3CF5D9884E6BE
:1010500080932407101611063CF081E090E0F60121
:101060009383828310E000E0C801DF91CF911F914C
:101070000F91FF90EF90DF90CF90BF90AF909F9037
:101080008F900895CF93DF931F92CDB7DEB769831A
:10109000DC01ED91FC910280F381E02D41E050E014
:1010A000BE016F5F7F4F09950F90DF91CF9108953B
:1010B00083E08093E9008091F200882319F08AE3AD
:1010C0008093E80008950E94A30390E00895CF93D1
:1010D000DF931F92CDB7DEB7FC018485958597FD20
:1010E00008C02FEF3FEF358724870F90DF91CF9116
:1010F0000895CE0101960E947903019719F4898120
:1011000090E0F3CF8FEF9FEFF0CF0F931F93CF932C
:10111000DF931F92CDB7DEB78C01FC0184859585E6
:1011200097FF0BC0CE0101960E947903019771F4DD
:10113000898190E0F80195878487F80184859585F9
:101140000F90DF91CF911F910F9108958FEF9FEF37
:10115000F1CFFC018485958597FD0BC09FB7F8946E
:1011600082E08093E9008091F2009FBF90E00196B9
:1011700008959FB7F89482E08093E9008091F2008F
:101180009FBF90E00895DC015196ED91FC9152973C
:10119000908150968C918095892380830895209129
:1011A000290730912A072817390781F490912707DA
:1011B00080912807981751F0E0912707F0E0E1525D
:1011C000F94F8081082E000C990B08958FEF9FEF47
:1011D00008952091290730912A072817390739F4F3
:1011E0008FB7F89410922807109227078FBF0895A1
:1011F0002091290730912A072817390771F4809127
:1012000028072091270790E0805C9F4F821B91095F
:1012100060E470E00E94E534089590E080E0089575
:101220002091290730912A0728173907B9F490919E
:10123000270780912807981789F0E0912707F0E0A9
:10124000E152F94F80812091270730E02F5F3F4F17
:101250002F7333272093270790E008958FEF9FEF98
:10126000089520E001972FEF8F3F9207D9F7089557
:10127000EF92FF920F931F93CF93DF93C0912907B3
:10128000D0912A07209749F0EE85FF859D858B8DAB
:1012900081FF0AC08081892351F4DF91CF911F9192
:1012A0000F91FF90EF90089580818923B1F78B898A
:1012B0009C890E94310988E0E82EF12C10E001E0C1
:1012C0008D899E890E943109EE85FF8580819D85EB
:1012D000892339F1102B000F81E0E81AF10881F71A
:1012E0008F89988D0E9431098B8D81FD1095809199
:1012F00028072091270790E001968F7399272817D8
:10130000190699F0E0912807F0E0E152F94F1083B7
:101310008091280790E001968F7399278093280782
:10132000BCCF802F80951823D6CF8B8D81608B8F7B
:10133000B4CF90E080E00895BC0186E00C941905DC
:10134000BC0183E00C94190570E060E00C94190571
:101350008F929F92AF92BF92CF92DF92EF92FF92C5
:101360006C010E940D054B015C01F12CE12C0E94E7
:101370000D05681979098A099B096C157D058E058B
:101380009F0540F4E0912D07F0912E07309779F3F7
:101390000995EDCFFF90EF90DF90CF90BF90AF9089
:1013A0009F908F900895962728E0AC01880F991F91
:1013B00057FF04C031E2832730E193272150A9F77A
:1013C00008950895FC01E55BFF4F9081492F50E09F
:1013D000062E02C0559547950A94E2F7DA01A170EE
:1013E000BB2740FF09C021E030E001C0220F6A9511
:1013F000EAF72095292320838A2F089561506031D0
:1014000040F5FC0124812F7059F0253010F570E073
:10141000660F771F680F791FFB0181A592A50895BC
:1014200070E0660F771F680F791FFB0121A532A5B9
:10143000A0E0B5E00E949A322FEF37E040E050E0A4
:101440000E941732DA01C90180599C4FAF4FBF4F3C
:1014500008958CED95E008950C94FE09BF92CF920B
:10146000DF92EF92FF920F931F93CF93DF930E942F
:10147000A7046B017C01C0911708D091180801E006
:1014800010E0BB24BA94209709F459C08D81837071
:101490008130D1F520915B07422F50E08C81843060
:1014A00048F48823C1F1813099F18230B9F522E006
:1014B00030E01AC098EF980F682F6450770B943083
:1014C00058F08E3029F18F3091F3803121F1813144
:1014D00029F1682F6651770B9B01B80102C0660F96
:1014E000771F2A95E2F79B0124233523232B61F0F4
:1014F0000E9414049D8192FB992790F9981789F016
:10150000CA86DB86EC86FD860A80DB81C02DBBCFD8
:1015100028E030E0E9CF24E030E0E6CF21E030E021
:10152000E3CF8A859B85AC85BD859601281B390B49
:101530003F872E87B88A0E940D05698BE5CFDF9122
:10154000CF911F910F91FF90EF90DF90CF90BF90C0
:101550000895BF92CF92DF92EF92FF920F931F9365
:10156000CF93DF930E94A7046B017C01C091170801
:10157000D0911808BB24BA9401E010E0209709F438
:1015800058C08D818370D1F520914F07422F50E0D4
:101590008C81843048F48823C1F1813099F1823004
:1015A000B9F522E030E01AC098EF980F682F645028
:1015B000770B943058F08E3029F18F3091F38031D1
:1015C00021F1813129F1682F6651770B9B01B80118
:1015D00002C0660F771F2A95E2F79B01242335236B
:1015E000232B61F00E9414049D8192FB992790F9AE
:1015F000981789F0CA86DB86EC86FD860A80DB8137
:10160000C02DBCCF28E030E0E9CF24E030E0E6CFC9
:1016100021E030E0E3CF8A859B85AC85BD859601CE
:10162000281B390B3F872E87B88A0E940D05698BCE
:10163000E5CFDF91CF911F910F91FF90EF90DF9059
:10164000CF90BF900895FC018685978526853785C4
:1016500082179307C9F70895FC01808990E0062E50
:1016600002C0959587950A94E2F780FF1CC02089F7
:1016700081E090E001C0880F6A95EAF780958223A7
:10168000808B268537858685978528173907C9F782
:10169000868197812817390730F081E04085518590
:1016A0004217530708F480E008950C942C0BE09146
:1016B0005E073CE0E39FF0011124EA5BF84F2185CF
:1016C00080913207843008F059C080913207882316
:1016D00009F486C080913207813009F47BC0809183
:1016E0003207823009F479C080913207833009F4DF
:1016F0007AC080913207873009F469C090E080E0B9
:10170000E0915E074CE0E49FF0011124EA5BF84FA2
:101710003385232330E082239323892B09F483C06C
:101720000E94A7042091D1063091D206AB01421B42
:10173000530B9A017093D2066093D106283B5BE06D
:10174000350708F45EC02091330720936B07109291
:1017500033072FEF20936C073091D0062091D006ED
:101760002E7F30FF21602093D0062091D00620FFED
:101770003DC07093CF066093CE06089580913207E6
:10178000883080F0809132078C3060F440913207CD
:101790004450550B81E090E002C0880F991F4A9594
:1017A000E2F7AECF809132078E30A1F08091320700
:1017B0008F3099F080913207803191F0809132071B
:1017C000813189F0409132074651550BE3CF80E1DA
:1017D00090E096CF88E090E093CF82E090E090CFC9
:1017E00084E090E08DCF81E090E08ACF2091CE061A
:1017F0003091CF06621B730B7093CD066093CC06BD
:10180000089580913307893070F4E0913307F0E058
:10181000EE0FFF1FEC5CF84F31832083809133077C
:101820008F5F80933307089520916C0730E0062E78
:1018300002C0359527950A94E2F7C901817099276E
:1018400020FF0CC040916C0721E030E001C0220F66
:101850006A95EAF72095242320936C07089588233E
:1018600099F090916B07981778F08150E82FF0E08D
:10187000EE0FFF1FEC5CF84F808191812081318158
:1018800082179307C9F708958CED95E00895862F88
:101890000C942F0C89B18F70E6E4F7E0878B868972
:1018A00097898927858B8789868B0288F389E02D24
:1018B000099489B18F70E6E4F7E0878B8689978970
:1018C0008927858B8789868B0088F189E02D09948B
:1018D00089B18F70E6E4F7E0878B8689978989273D
:1018E000858B8789868B0684F785E02D099489B1DD
:1018F0008F70E6E4F7E0878B868997898927858B47
:101900008789868B0484F585E02D0994843088F4DA
:101910009DB3882341F0813041F0823041F08EEF59
:1019200089238DBB08958BEFFBCF87EFF9CF8DEF28
:10193000F7CF48EF480F443040F092EF980F9430C3
:1019400020F096EE980F933068F590916B00282F59
:101950002450330B443078F027EF8E30A1F02DEF78
:101960008F3089F02BEF803171F02EEF813159F0FB
:10197000282F2651330BB90121E030E001C0220F9E
:101980006A95EAF720952923443048F092EF980FA2
:10199000943028F08A51F0E0E0E0833010F4EBE678
:1019A000F0E020830895843088F49DB3882341F0CB
:1019B000813041F0823041F081E0892B8DBB089568
:1019C00084E0FBCF88E0F9CF82E0F7CF28EF280F43
:1019D000243040F092EF980F943020F096EE980F5C
:1019E0009330D0F590916800243050F032EF380FEA
:1019F000343030F036EE380FF0E0E0E0333010F401
:101A0000E8E6F0E091609083243050F092EF980F78
:101A1000943030F096EE980FF0E0E0E0933010F460
:101A2000EBE6F0E030812430C0F491E0682F6450A0
:101A3000770B01C0990F6A95EAF7932B243048F091
:101A400022EF280F243028F08A51F0E0E0E08330C4
:101A500010F4EBE6F0E09083089598E08E3069F39F
:101A600092E08F3051F394E0803139F391E081318D
:101A700021F3682F6651770BDCCFCF93DF93982F3C
:101A800028EF280F81E0243008F480E0282F30E090
:101A90009430A0F59230D1F49CE0929FF001939F96
:101AA000F00D1124EA5BF84F7383628328E63CE073
:101AB000309307012093060190916900937F946011
:101AC00090936900E99ADF91CF9108959CE0929FED
:101AD000F001939FF00D1124EA5BF84F718360834E
:101AE00027E73CE0309305012093040190916900C1
:101AF0009C7F916090936900E89AE5CF50E040E0C8
:101B000096E0929FE001939FD00D1124DE01A40F77
:101B1000B51FAA0FBB1FAA5BB84FED91FC91E6174A
:101B2000F70789F24F5F5F4F4430510579F79CE02A
:101B3000929FD001939FB00D1124AA5BB84F1896C5
:101B40009C911897943010F08FEFBDCF1896EC91C0
:101B50001897EC0FFD2FF11DEE0FFF1FEA5BF84FFA
:101B60007183608318969C9118979F5F18969C9339
:101B7000AACF1F93CF93DF93EC01162F98EF960F08
:101B80008D818C7F943088F181608D836EE27AE064
:101B9000812F0E943D0D982F93708D818C7F892B12
:101BA0008D831C8388E592E09F838E8380E699E095
:101BB0009987888780911708909118089B838A835A
:101BC000D0931808C093170860E0812F0E946B041F
:101BD00061E08C810E943D048C810E94D30C8D8138
:101BE0008370DF91CF911F9108958D8369EA7AE028
:101BF000CFCFDF92EF92FF920F931F93CF93DF939C
:101C0000EC01898D9A8D892B71F481E090E09B83A2
:101C10008A8390E080E0DF91CF911F910F91FF9038
:101C2000EF90DF900895162FDFB6F8948B8D81FD2D
:101C300028C0CE010E94C308898D9A8D0E94310967
:101C40008B8D98E0E92EF12C01E081FF28C0812FD7
:101C50008023F1F0CE010E94C308898D9A8D0E94E5
:101C60003109000F81E0E81AF10889F7CE010E94DE
:101C7000C308DFBE898D9A8D0E94310981E090E012
:101C8000CACFE989FA8980819889892B8083D4CF4A
:101C9000E989FA8980819889892B8083DECF812F19
:101CA0008023B1F0E989FA8980819889892B808322
:101CB000898D9A8D0E943109000F81E0E81AF108A0
:101CC00071F7E989FA8980819889892B8083D1CF3E
:101CD000CE010E94C308ECCF0F931F93CF93DF93E5
:101CE0000FE118E0D0E0C0E0CE010E940132F8011F
:101CF00081938F012196C131D105B1F78FE198E031
:101D0000DF91CF911F910F910895FF920F931F9331
:101D1000CF93DF930FE118E0D0E0C0E0F801F1903D
:101D20008F01CE010E940132F81621F06F2DCE01F5
:101D30000E9409322196C131D10581F78FE198E0E7
:101D4000DF91CF911F910F91FF900895FB010190BA
:101D50000020E9F73197AF01461B570BDC01ED91ED
:101D6000FC910280F381E02D09948F929F92AF92B3
:101D7000BF92EF92FF920F931F93CF93DF93CDB754
:101D8000DEB7A1970FB6F894DEBF0FBECDBF7C01C2
:101D9000FA01CB0119A2223008F42AE08E010F5D6E
:101DA0001F4F822E912CB12CA12CBF01A5019401B3
:101DB0000E947832F901CA016A300CF5605DD801E1
:101DC0006E938D01232B242B252B79F790E080E057
:101DD000109721F0BD01C7010E94A60EA1960FB673
:101DE000F894DEBF0FBECDBFDF91CF911F910F9151
:101DF000FF90EF90BF90AF909F908F900895695C97
:101E0000DECFAC0170E060E02AE08DEC98E00C944D
:101E1000B50ECF92DF92EF92FF920F931F93CF9365
:101E2000DF93EC016A017B01E881F9810190F08187
:101E3000E02D6DE209958C0144275527BA014C1914
:101E40005D096E097F092AE0CE010E94B50E800F60
:101E5000911FDF91CF911F910F91FF90EF90DF9035
:101E6000CF900895CF92DF92EF92FF920F931F933E
:101E7000CF93DF93C82FD62F10E000E0E82EF12C8F
:101E800087E0C82ED12C809160078823A1F0C6017D
:101E9000801B910BA70102C0559547958A95E2F7E3
:101EA00041705527052E000C660B770B2AE08DEC50
:101EB00098E00E94B50E033011F4D11105C00F5FF8
:101EC0001F4F08301105F9F6C83081F148F4C230CF
:101ED00039F1C43041F1C13051F481E090E016C0D5
:101EE000C03239F168F485E090E0C03179F0DF91DB
:101EF000CF911F910F91FF90EF90DF90CF900895B9
:101F0000C034D1F088E090E0C03889F7DF91CF91FC
:101F10001F910F91FF90EF90DF90CF900C94A0094C
:101F200082E090E0F3CF83E090E0F0CF84E090E0B7
:101F3000EDCF86E090E0EACF87E090E0E7CFDF9258
:101F4000EF92FF920F931F93CF93DF938C01D62EC6
:101F5000D42F7C01C0E0CD1581F0CC2331F06BE8AB
:101F600072E08DEC98E00E948E0660E0F7018191AE
:101F70007F010E94320FCF5FEECFDD23B1F0CC2383
:101F800031F069E872E08DEC98E00E948E06C00F97
:101F9000D12FD11D61E08881DF91CF911F910F91E9
:101FA000FF90EF90DF900C94320FDF91CF911F9153
:101FB0000F91FF90EF90DF900895009729F0BC01FA
:101FC0008DEC98E00C94A60E90E080E0089589E9ED
:101FD00080931F0885E08093200886E08093220884
:101FE00087E08093210888E08093230889E080932C
:101FF00024088AE0809325088CED95E090932708CB
:102000008093260888EE93E090932B0880932A080B
:1020100080ED97E0909329088093280881E08093D1
:102020002C0810922D0880932E0810922F0883E020
:102030000E9467050E94FE048823B9F084E791E0BE
:102040009F938F931F9284E68F9381E897E09F93ED
:102050008F930E94532F81E897E00E94DD0F0F902D
:102060000F900F900F900F900F900C94850E0E9480
:102070006C0E80911F08893949F00E94E70F64EFC8
:1020800071E080E090E00E94CC04F1CF0E94FE0459
:10209000882321F08DE592E00E94DD0F0E94FE046E
:1020A000882321F08DEA91E00E94DD0F0E94FE045A
:1020B000882361F0E0912C08E150FF0BEE0FFF1F29
:1020C000E55BFE4F808191810E94DD0F0E94FE043E
:1020D000882321F08DE592E00E94DD0F80912D088C
:1020E000882309F47EC10E94FE04882349F1E0910F
:1020F0002E08E150FF0BEE0FFF1FEF5CFE4F8181BA
:102100008F9380818F9380912D081F928F938BE501
:1021100091E09F938F931F9284E68F9381E897E0DD
:102120009F938F930E94532F81E897E00E94DD0FC9
:102130008DB79EB70A960FB6F8949EBF0FBE8DBF9F
:102140000E94FE04882321F1E0912F08F0E0EE0FB9
:10215000FF1FE75CFE4F81818F9380818F938CE31B
:1021600091E09F938F931F9284E68F9381E897E08D
:102170009F938F930E94532F81E897E00E94DD0F79
:102180008DB79EB708960FB6F8949EBF0FBE8DBF51
:102190000E94FE048823E9F0809125081F928F9306
:1021A0008CE291E09F938F931F9284E68F9381E856
:1021B00097E09F938F930E94532F81E897E00E94AE
:1021C000DD0F8DB79EB708960FB6F8949EBF0FBE71
:1021D0008DBF80912D08882309F420C180912E089D
:1021E000833009F01BC10E94FE04882321F089EC92
:1021F00091E00E94DD0F0E94FE048823E9F08091A7
:1022000022081F928F938CE091E09F938F931F92EF
:1022100084E68F9381E897E09F938F930E94532FDA
:1022200081E897E00E94DD0F8DB79EB708960FB644
:10223000F8949EBF0FBE8DBF0E94FE048823E9F074
:10224000809121081F928F938CEF90E09F938F9342
:102250001F9284E68F9381E897E09F938F930E946B
:10226000532F81E897E00E94DD0F8DB79EB7089647
:102270000FB6F8949EBF0FBE8DBF0E94FE04882348
:10228000E9F0809123081F928F938CEE90E09F934A
:102290008F931F9284E68F9381E897E09F938F93AB
:1022A0000E94532F81E897E00E94DD0F8DB79EB703
:1022B00008960FB6F8949EBF0FBE8DBF0E94FE0415
:1022C0008823E9F0809124081F928F938CED90E091
:1022D0009F938F931F9284E68F9381E897E09F935B
:1022E0008F930E94532F81E897E00E94DD0F8DB7F6
:1022F0009EB708960FB6F8949EBF0FBE8DBF0E9482
:10230000FE048823F9F0809129088F938091280892
:102310008F938CEC90E09F938F931F9284E68F9322
:1023200081E897E09F938F930E94532F81E897E075
:102330000E94DD0F8DB79EB708960FB6F8949EBF2A
:102340000FBE8DBF0E94FE048823F9F080912708FC
:102350008F93809126088F938CEB90E09F938F93BF
:102360001F9284E68F9381E897E09F938F930E945A
:10237000532F81E897E00E94DD0F8DB79EB7089636
:102380000FB6F8949EBF0FBE8DBF0E94FE04882337
:10239000F9F080912B088F9380912A088F938CEA13
:1023A00090E09F938F931F9284E68F9381E897E04C
:1023B0009F938F930E94532F81E897E00E94DD0F37
:1023C0008DB79EB708960FB6F8949EBF0FBE8DBF0F
:1023D0000E94FE04882309F444C08DE592E00C9429
:1023E000DD0F0E94FE04882309F4AACE8BE491E05D
:1023F0009F938F931F9284E68F9381E897E09F933A
:102400008F930E94532F81E897E00E94DD0F0F9079
:102410000F900F900F900F900F9092CE0E94FE049D
:10242000882309F4E8CE809120081F928F938CE1D5
:1024300091E09F938F931F9284E68F9381E897E0BA
:102440009F938F930E94532F81E897E00E94DD0FA6
:102450008DB79EB708960FB6F8949EBF0FBE8DBF7E
:10246000CACE08956DE572E00C94A60ECF93DF936B
:10247000BC018DEC98E00E94A60EEC018DEC98E07A
:102480000E9432128C0F9D1FDF91CF9108950F9300
:102490001F93CF93DF93EC01242F462F50E070E081
:1024A00060E00E94B50E8C01CE010E943212800FB6
:1024B000911FDF91CF911F910F9108952F923F921D
:1024C0004F925F926F927F928F929F92AF92BF9244
:1024D000CF92DF92EF92FF920F931F93CF93DF93F0
:1024E000D82F0E940D052B013C0180912B07909164
:1024F0002C07009769F062EC72E00E948E0640E1C2
:1025000050E06D2F80912B0790912C070E9447126D
:10251000C0E09DED292E96E0392E0E940D0564192C
:10252000750986099709683E73408105910578F120
:102530001092DD061092DE06C0912B07D0912C0779
:10254000209741F067E972E0CE010E948E06CE012D
:102550000E9432122091DD068091DE0690E03FEF6E
:10256000239F800D911D1124DF91CF911F910F9119
:10257000FF90EF90DF90CF90BF90AF909F908F90A3
:102580007F906F905F904F903F902F90089585E0DF
:1025900090E00E94A80983EDA82E86E0B82EF501F0
:1025A00011922E163F06E1F780911D0890911E08AA
:1025B000DC01ED91FC910084F185E02D09950A97ED
:1025C0000CF470C0C12CD12C760180911D08909123
:1025D0001E08DC01ED91FC910284F385E02D099544
:1025E0008C01019609F45EC080912B0790912C0715
:1025F000009721F163E972E00E948E062AE0B7019C
:10260000A60180912B0790912C070E94B50E6DE8D2
:1026100072E080912B0790912C070E948E0680908B
:102620002B0790902C0720E1A801110F660B770B68
:10263000C4010E94B50EC4010E943212F50101933B
:102640005F01FFEFCF1ADF0AEF0AFF0A2AE0C21686
:10265000D104E104F10409F0B8CFC091D606C0342A
:10266000B1F480912B0790912C07009709F455CF76
:1026700068EA72E00E948E064AE050E06091D90656
:1026800080912B0790912C070E94471246CFDC13B4
:1026900044CF8091D8068093DD068091D90680933F
:1026A000DE064ACF82E390E00E94A809DC1335CF12
:1026B00043CF8F929F92AF92BF92CF92DF92EF92D1
:1026C000FF920F931F93CF93DF9300D0CDB7DEB768
:1026D0008091C40681110DC00E940D056093C00653
:1026E0007093C1068093C2069093C30681E08093E5
:1026F000C4068091B80681110DC00E940D0560933B
:10270000B4067093B5068093B6069093B70681E041
:102710008093B80680916A0990916B09009709F43B
:10272000ECC060916909629566956770DC01ED9176
:10273000FC910190F081E02D0995882309F4DDC01A
:1027400080916A0990916B09609169096F71DC0150
:10275000ED91FC910280F381E02D0995AC019093FD
:10276000700980936F09809172098061809372096A
:102770002BE831E090E0F901659174914617570715
:1027800008F4B5C0F9013296659174916417750724
:1027900008F4ADC030917309432F441F4427441FF0
:1027A00080917409282F2F70220F242B2913E5C044
:1027B00080917409282F22952F702F5F2770322F58
:1027C0003295307F8F78832B809374093091720912
:1027D000432F437050E04F5F5F4F2417150609F0F9
:1027E0008CC080917309903109F0D3C03295369531
:1027F0003770982F9370990F990F990F932B990F0A
:10280000990F8378892B8093730990917309292FED
:10281000269526952F71322F3295330F307E809179
:1028200072098F71832B322F3695369536959C7FA2
:10283000932B909373099C77943409F0B2C0877FEF
:102840008093720980916E099091720992FFE1C0A4
:10285000863008F0DCC0E82FF0E0E255F94F9091A7
:102860006D099083806810926E09909172099B7F28
:1028700090937209882309F440C091E09093F30784
:102880009091AC069F5F9093AC06982F9F77192F7D
:10289000110F87FD1F5F892F90E0FC01E355F94F71
:1028A0002081012F017010FF12C0FC01E255F94F89
:1028B0004081042E000C550BB4E055954795BA9510
:1028C000E1F74F70E0E12E0290011124242B30E05B
:1028D00060E00197462F50E0481759070CF0A2C05E
:1028E0004255594FDA014C9134276F5FF3CF9F5F08
:1028F0002C5F3F4F923109F03ECF0E940D050091B1
:10290000C0061091C1062091C2063091C306601B1B
:10291000710B820B930B693B7B4081059105F0F0B5
:102920000E940D056093C0067093C1068093C20695
:102930009093C3061092F30780916007882351F0AB
:1029400063ED71E08DEC98E00E948E068DEC98E0CE
:102950000E9432121092AF061092AE060F900F90A6
:10296000DF91CF911F910F91FF90EF90DF90CF906B
:10297000BF90AF909F908F90089590FB37F9309360
:102980007309292F26952F708078822B80937409E4
:102990000FCF9F71990F990F8378982B909373099C
:1029A00034CF83FD27C0B0E12B9F900111242093E9
:1029B0006D0984608093720980E020917209922FE2
:1029C000977F23FF986090937209813009F43ACF82
:1029D000823009F092CFE0916E09E63000F581E097
:1029E0008E0F80936E09F0E0E255F94F80916D09EA
:1029F000808383CF90916D09292B20936D098B7F64
:102A00008093720981E08093710982E0D6CF80E0E3
:102A10002ACF882309F471CF10926E092ECF10921D
:102A20006E096BCF002331F04255594FFA01808176
:102A3000807F38278091600795E53927321335C3A9
:102A4000882341F00E94FE04882321F08DE592E066
:102A50000E94DD0FE12EF12C4091600720912F079D
:102A60008091300790E0880F991FBC01A3E02A9F56
:102A7000600D711D11248091310786958695860F12
:102A8000972F911D0296E816F90609F09FC244237C
:102A900009F446C00E940D056093C0067093C106FC
:102AA0008093C2069093C30667E772E08DEC98E0CE
:102AB0000E948E06412F50E070E060E02AE08DEC2D
:102AC00098E00E94B50E64E772E08DEC98E00E94F9
:102AD0008E06612F66956150402F8EEA96E00E9427
:102AE0009F0F60E772E08DEC98E00E948E060E94D6
:102AF0000D050091B4061091B5062091B6063091EF
:102B0000B706AB01BC01401B510B620B730B2AE0F3
:102B10008DEC98E00E94B50E8DEC98E00E94321288
:102B200080912F07813009F07DC080916007882354
:102B300009F478C06091AE06B0E16B9FB00111243A
:102B40008091AF0690E0E4E095958795EA95E1F7EE
:102B5000680F791F90E080E00E94BC3320E030E0F5
:102B600044EB53E40E94733420E030EF4FE755E428
:102B70000E941B336B017C0169E672E08DEC98E0EA
:102B80000E948E062091AE06E0E12E9F9001112456
:102B90009091AF06892F90E0F4E095958795FA958E
:102BA000E1F7820F931F0E94010F66E672E08DEC41
:102BB00098E00E948E06A7019601C701B6010E9407
:102BC000E0346BED71E0811123C02FEF3FEF4FE751
:102BD0005FE7C701B6010E94E03481110CC02FEFFE
:102BE0003FEF4FE75FE7C701B6010E9416336FED75
:102BF00071E018166CF02FEF3FEF4FE75FE4C7016D
:102C0000B6010E946E3418160CF028C163EE71E014
:102C10008DEC98E00E94A60E61E672E08DEC98E0E3
:102C20000E948E0680913007813061F50E94FE047B
:102C3000882341F180912F07813009F04BC18091A9
:102C4000AF06F0E18F9F900111248091B00682952C
:102C50008F70822B1F928F9387E592E09F938F93C3
:102C60001F9284E68F9381E897E09F938F930E9451
:102C7000532F81E897E00E94DD0F0FB6F894DEBF76
:102C80000FBECDBF10913107112309F452C08091BE
:102C90002F0720913007103108F04CC1813009F026
:102CA0003AC1143009F019C182E090E0211102C04C
:102CB00081E090E08255994FDC018C918F7090E01B
:102CC0009A838983809160078823E1F00E94FE0443
:102CD0008823C1F01F921F9388E492E09F938F9303
:102CE0001F9284E68F9381E897E09F938F930E94D1
:102CF000532F81E897E00E94DD0F0FB6F894DEBFF6
:102D00000FBECDBF60913107603109F054C1898198
:102D10009A819827892798279A83898341E064308C
:102D200009F040E0669566956695CE0101960E9491
:102D30009F0F80916007882381F10E94FE04882301
:102D400011F1809173071F928F93809170071F92EA
:102D50008F93809172071F928F9388E292E09F93E6
:102D60008F931F9284E68F9381E897E09F938F93D0
:102D70000E94532F81E897E00E94DD0F0FB6F89470
:102D8000DEBF0FBECDBF0E940D056093B4067093E9
:102D9000B5068093B6069093B7068091AC0684364C
:102DA00008F4ABCD80916007882309F4A6CD0E947A
:102DB000FE04882321F08DE592E00E94DD0F0E9441
:102DC000FE04882321F084E492E00E94DD0F0E943B
:102DD000FE04882321F08DE592E00E94DD0F0E9421
:102DE000FE048823F1F08091AC069091AD06891B1A
:102DF000990B9F938F9382EF91E09F938F931F92F4
:102E000084E68F9381E897E09F938F930E94532FDE
:102E100081E897E00E94DD0F0FB6F894DEBF0FBE89
:102E2000CDBF0E94FE04882321F08BE592E00E9432
:102E3000DD0F0E94FE04882321F084E492E00E94CA
:102E4000DD0F0E94FE04882321F08DE592E00E94B0
:102E5000DD0F1092AC061092AD064FCD2FEF3FEF75
:102E60004FE75FECC701B6010E94163387FDCECE57
:102E70002DEC3CEC4CE45DE3C701B6010E94AA32A4
:102E80006B017C010E948D334B015C010E94BC33BD
:102E90009B01AC01C701B6010E94A9326B017C0104
:102EA0002AE0B501A4018DEC98E00E94B50E6EE217
:102EB0008DEC98E00E94420820E030E040E251E4CE
:102EC000C701B6010E9473340E948D33CB010E946A
:102ED000010FA2CE8091AE06BDCE82E090E021111E
:102EE00002C081E090E08255994FFC018081F0E1C1
:102EF0008F9FC00111249927222319F023E030E08D
:102F000002C022E030E02255394FD9012C912295A0
:102F10002F70822BD5CE81E090E0211102C090E08D
:102F200080E08255994FFC018081143009F0C7CEB2
:102F30008295C4CE813031F582E090E0211102C04B
:102F400081E090E08255994FDC018C91482F50E050
:102F5000542F44275295507F83E090E0211102C006
:102F600082E090E08255994FFC019081F0E19F9FB3
:102F7000C0011124842B952B222309F4BFCF24E018
:102F800030E0C1CF81E090E0211102C090E080E00C
:102F90008255994FFC01808190E0982F8827222349
:102FA00039F022E030E02255394FD9012C91B1CFD0
:102FB00021E030E0F8CF643009F0B0CE89819A8109
:102FC00044E0880F991F4A95E1F7A6CE442309F4FF
:102FD000E4CE8091AD068F5F8093AD060E94FE0423
:102FE000882321F087EE91E00E94DD0F0E94FE040D
:102FF000882369F120912F078091300790E0880F96
:10300000991FAC0163E0269F400D511D1124809152
:10301000310786958695840F952F911D02969F9373
:103020008F9387E192E09F938F931F9284E68F9313
:1030300081E897E09F938F930E94532F81E897E058
:103040000E94DD0F0FB6F894DEBF0FBECDBF0E9409
:10305000FE048823C1F0FF92EF9285E092E09F93F7
:103060008F931F9284E68F9381E897E09F938F93CD
:103070000E94532F81E897E00E94DD0F0FB6F8946D
:10308000DEBF0FBECDBF0E94FE04882321F08BEF70
:1030900091E00E94DD0F0E94FE04882309F47DCE9A
:1030A0008DE592E00E94DD0F78CE882309F475CE7D
:1030B0008091AD068F5F8093AD060E94FE04882349
:1030C00051F384E292E0E5CF1F920F920FB60F9278
:1030D00011242F933F938F939F93AF93BF9380912E
:1030E000010890910208A0910308B0910408309162
:1030F000000823E0230F2D3758F50196A11DB11DBF
:10310000209300088093010890930208A09303087D
:10311000B09304088091050890910608A0910708D3
:10312000B09108080196A11DB11D809305089093E8
:103130000608A0930708B0930808BF91AF919F912C
:103140008F913F912F910F900FBE0F901F90189568
:1031500026E8230F0296A11DB11DD2CF1F920F9218
:103160000FB60F9211242F933F934F935F936F935A
:103170007F938F939F93AF93BF93EF93FF93E091D0
:103180000C01F0910D010995FF91EF91BF91AF9165
:103190009F918F917F916F915F914F913F912F916F
:1031A0000F900FBE0F901F9018951F920F920FB6A1
:1031B0000F9211242F933F934F935F936F937F93BD
:1031C0008F939F93AF93BF93EF93FF93E0910A0187
:1031D000F0910B010995FF91EF91BF91AF919F91F4
:1031E0008F917F916F915F914F913F912F910F90B0
:1031F0000FBE0F901F9018951F920F920FB60F924F
:1032000011242F933F934F935F936F937F938F93EB
:103210009F93AF93BF93EF93FF93E0910801F091D9
:1032200009010995FF91EF91BF91AF919F918F9106
:103230007F916F915F914F913F912F910F900FBEB2
:103240000F901F9018951F920F920FB60F92112496
:103250002F933F934F935F936F937F938F939F939E
:10326000AF93BF93EF93FF93E0910601F0910701B5
:103270000995FF91EF91BF91AF919F918F917F91B0
:103280006F915F914F913F912F910F900FBE0F90D3
:103290001F9018951F920F920FB60F9211242F9323
:1032A0003F934F935F936F937F938F939F93AF93CE
:1032B000BF93EF93FF93E0910401F091050109950D
:1032C000FF91EF91BF91AF919F918F917F916F91FE
:1032D0005F914F913F912F910F900FBE0F901F90D4
:1032E00018951F920F920FB60F9211248F939F93F0
:1032F0008091E1009091E100937F9093E10083FF42
:103300000FC01092E90091E09093EB001092EC0056
:1033100092E39093ED001092160898E09093F000DD
:1033200082FF22C093E09093E9009091F2009923EC
:1033300019F09AE39093E80090912407992341F0C3
:1033400090912407915090932407911101C05D9AA8
:1033500090911508992341F0909115089150909300
:103360001508911101C0289A84FF18C08091E200CD
:103370008E7E81608093E2008091E1008F7E809359
:10338000E100809125078E7E8061809325079F91C3
:103390008F910F900FBE0F901F90189580FFF7CF61
:1033A0008091E2008E7E80618093E2008091E10056
:1033B0008E7E8093E100809125078E7E8160E5CF2F
:1033C0001F920F920FB60F921124CF92DF92EF92BD
:1033D000FF920F931F932F933F934F935F936F939E
:1033E0007F938F939F93AF93BF93EF93FF93CF936D
:1033F000DF93CDB7DEB76C97DEBFCDBF1092E9008B
:103400008091E80083FF25C068E0CE0145960E94C8
:10341000810682EF8093E8008D8987FF39C0909103
:10342000E80090FFFCCF982F907609F034C19E8978
:103430004F89588D2F89F88C911131C0803861F5F2
:10344000809126078093F1001092F1008EEF809317
:10345000E8006C960FB6F894DEBF0FBECDBFDF91CB
:10346000CF91FF91EF91BF91AF919F918F917F91FC
:103470006F915F914F913F912F911F910F91FF900D
:10348000EF90DF90CF900F900FBE0F901F90189588
:103490009EEF9093E800C7CF1092F100D5CF913006
:1034A00059F48111D3CF4130510581F6809126071F
:1034B0008D7F80932607CACF933049F48111C6CF00
:1034C0004130510519F6809126078260F2CF953080
:1034D00041F48091E80080FFFCCF20682093E30056
:1034E000B5CF963009F0A9C00B8D1C8D22E010924B
:1034F000E9001092220710922107F2122EC01092BA
:10350000200710921F070E9450061F8299E099839E
:10351000FA8291E09E8390EA98879AEF99872091AA
:10352000210730912207275F3F4F3C832B838D83F8
:103530001092E900109222071092210710932007A1
:1035400000931F0749E050E0BE016F5F7F4F80E0AE
:103550000E942A060E94500679CF109320070093FC
:103560001F070E94B403DC0112960D911C910115F6
:10357000110509F451C1D801ED91FC910480F58148
:10358000E02DBE016B5E7F4FC8010995009709F0E1
:103590003EC1F80100851185EACFF3E0FF120EC0AD
:1035A0008F89882309F440C0823061F440E862E1E9
:1035B00088E493E00E94F705811148CF81E280936F
:1035C000EB0047CF813029F440E868E08FE393E0D7
:1035D000F1CF833099F70E94B403DC011296ED908D
:1035E000FC908E010F5F1F4F6801E114F10479F028
:1035F000D701ED91FC910680F781E02DB801C7015C
:103600000995080F111DF701E084F184EECFD80170
:103610001C92F60101900020E9F73197BF016C1967
:103620007D0940E0C601C6CF69E273E0FB01449129
:1036300050E080E80E942A0609CF973009F4BECFF7
:10364000983021F481E08093F10000CF993009F0A7
:10365000FDCE837009F0B2CFE5E2F1E081E031E028
:1036600096E32191222371F08093E9003093EB00DF
:10367000DF0111972C912093EC009093ED008F5F68
:10368000873079F78EE78093EA001092EA008F89FD
:1036900080931608DBCE8B8D9C8D1092E9001092E2
:1036A0002207109221079093200780931F07898D8E
:1036B000811192C08E899D89913A49F4813209F035
:1036C0007DCF47E050E06CE171E080E0B3CF913214
:1036D00009F074CF833269F48F89988DB0E0A0E04F
:1036E0008093000190930101A0930201B093030124
:1036F000ADCE803269F48091E80082FFFCCF67E0B4
:103700008CE191E00E9481068BEF8093E8009ECED1
:10371000823209F09BCE8F8980932301EEEFFFE781
:10372000859194918B3F9C4D51F1E0E0F8E08091C0
:103730001C0190911D01A0911E01B0911F01803BC1
:103740009440A105B105F1F48091230180FD1AC0D8
:10375000EE3F8AE0F80789F587E797E79183808352
:10376000809160008093230788E19BE00FB6F89476
:10377000A895809360000FBE9093600067CEEEEF37
:10378000FAE0D5CF808191818737974709F05ECEE7
:10379000A8958091600088618093600080912307E4
:1037A00080936000EE3F2AE0F20789F08091FE0AE4
:1037B0009091FF0A9183808349CE808191818737E0
:1037C000980751F29093FF0A8093FE0AC5CF10929A
:1037D000FF0A1092FE0A3ACE0E94B403DC01129650
:1037E0000D911C910115110509F4E8CED801ED9158
:1037F000FC910190F081E02DBE016B5E7F4FC8010E
:103800000995811123CEF80100851185EBCF18169B
:1038100019060CF41BCED2CEF1E0FF12BECE6DE243
:1038200073E004CF1F920F920FB60F9211242F93C3
:103830003F934F935F936F937F938F939F93AF9338
:10384000BF93EF93FF9380E398E00E943007FF91CE
:10385000EF91BF91AF919F918F917F916F915F9108
:103860004F913F912F910F900FBE0F901F90189581
:103870001F920F920FB60F9211242F938F939F9345
:10388000EF93FF93E0914008F09141088081E0912F
:103890004608F091470882FD1BC09081809149083D
:1038A0008F5F8F7320914A08821741F0E091490899
:1038B000F0E0E05DF74F958F80934908FF91EF911D
:1038C0009F918F912F910F900FBE0F901F90189581
:1038D0008081F4CF1F920F920FB60F9211242F9375
:1038E0003F934F935F936F937F938F939F93AF9388
:1038F000BF93CF93EF93FF9383B190916B00892394
:1039000080935107809150079091510789278093A8
:103910004F078091510780935007C0E080914E0778
:10392000C81760F4EC2FF0E0EE0FFF1FEA5BF84FD2
:103930000190F081E02D0995CF5FF0CFFF91EF91DD
:10394000CF91BF91AF919F918F917F916F915F9137
:103950004F913F912F910F900FBE0F901F90189590
:10396000CF92DF92EF92FF921092330810923208BA
:1039700028EEC22E23E0D22EE12CF12CC092340886
:10398000D0923508E0923608F09237088DE591E044
:1039900090933108809330088DEC90E090933D082F
:1039A00080933C088CEC90E090933F0880933E0815
:1039B00088EC90E0909341088093400889EC90E077
:1039C00090934308809342088AEC90E090934508D6
:1039D000809344088EEC90E09093470880934608CB
:1039E0001092490810924A0810924B0810924C0805
:1039F0001092D0081092CF08C092D108D092D2086D
:103A0000E092D308F092D4088FE691E09093CE082C
:103A10008093CD088FEF9FEF9093DA088093D908B9
:103A200081E891E090931E0980931D09109220096E
:103A300010921F091092230910922509109268090B
:103A4000E6E4F9E080E2DF011D928A95E9F787EA72
:103A500091E09093E0098093DF092091E4092B7FA6
:103A60002093E4099093CE098093CD092091D20947
:103A70002B7F2093D2099093BC098093BB0920919E
:103A8000C0092B7F2093C0099093AA098093A909AC
:103A90002091AE092B7F2093AE09909398098093D3
:103AA000970980919C098B7F80939C098DE991E017
:103AB00090939609809395090E940D056093910952
:103AC00070939209809393099093940910927809C6
:103AD00010927709C0927909D0927A09E0927B0915
:103AE000F0927C098BE891E09093760980937509B8
:103AF000109289091092880910928B0910928A09F4
:103B000010928D0910928C0910928F0910928E09D3
:103B1000809190098E7F8D7F8093900960E08AE08C
:103B20000E946B048091900981FD04C061E08AE0ED
:103B30000E943D048AE080938109EEEEF5E08491D5
:103B400080938209EFECF5E0E491F0E0EE0FFF1FC7
:103B5000E954FA4F259134913093840920938309D5
:103B6000E4EFF5E0E491E0938509E81741F061E0C6
:103B700080E10E946B0461E080E10E943D04E5ED7C
:103B8000F5E0E491F0E0EE0FFF1FE755FA4F859165
:103B90009491909387098093860968E379E08AE09D
:103BA0000E943D0D0E940D05809172092DE139E0C2
:103BB00030936B0920936A0990E2909369091092FF
:103BC00071099091730920917409207F29602093D5
:103BD000740980719C7792609093730980628F7EE4
:103BE0008093720910926D0910926E09FF90EF9008
:103BF000DF90CF900895CF93DF93CDB7DEB72897AE
:103C00000FB6F894DEBF0FBECDBF789484B5826046
:103C100084BD84B5816084BD85B5826085BD85B570
:103C2000816085BD80916E00816080936E001092EE
:103C30008100809181008260809381008091810069
:103C400081608093810080918000816080938000FA
:103C500080919100826080939100809191008160B9
:103C6000809391008091900081608093900080917A
:103C7000C10084608093C1008091C1008260809304
:103C8000C1008091C10081608093C1008091C30018
:103C900081608093C3008091C00082608093C000E7
:103CA0008091C20081608093C20080917A0084601C
:103CB00080937A0080917A00826080937A0080916C
:103CC0007A00816080937A0080917A008068809386
:103CD0007A001092160810922607109225078091FC
:103CE000D70081608093D70080EA8093D80089B59F
:103CF000806189BD89B5826089BD09B400FEFDCFB0
:103D000061E070E080E090E00E94CC048091D800F7
:103D10008F7C80618093D8008091E000807F8093C9
:103D2000E0008091E1008E7E8093E1008DE0809341
:103D3000E200559A209A60E084E00E946B0461E002
:103D400085E00E946B0461E085E00E943D040E94D2
:103D50006C0E0BE411E025E431E03C832B8362E040
:103D6000AB81BC818D91BC83AB830E946B04EB81E2
:103D7000FC810E171F0799F710928F0910928E0978
:103D800010928D0910928C0910928B0910928A0959
:103D9000109289091092880990E080E0FC01E55AB0
:103DA000FC4F45915591659174914038554261059C
:103DB000710509F05EC3FC01E15AFC4F2591349175
:103DC0003093890920938809FC01EF59FC4F259114
:103DD000349130938B0920938A09FC01ED59FC4FF3
:103DE0002591349130938D0920938C09FC01EB5976
:103DF000FC4F8591949190938F0980938E098091C7
:103E00008C0990918D09892B09F454C08091810906
:103E100028EF280F243048F092EF980F943028F0C4
:103E200096EE980F933008F03FC0909168002430D0
:103E300048F022EF280F243028F08A51F0E0E0E02B
:103E4000833010F4E8E6F0E091609083909181096E
:103E500038EF390F343050F082EF890F843030F072
:103E600086EE890FF0E0E0E0833010F4EBE6F0E05E
:103E70002081343008F003C381E0092F0450110B76
:103E8000A80101C0880F4A95EAF7822B343048F028
:103E900022EF290F243028F09A51F0E0E0E093302F
:103EA00010F4EBE6F0E0808380918E0990918F0909
:103EB0000E9431098091290790912A0785579940DE
:103EC00091F0809190098E7F809390098FB7F8943C
:103ED000109228071092270725E739E030932A0728
:103EE000209329078FBF8FEF9FEF9093DA0880937D
:103EF000D90868EE73E080E090E00E94CC048091E5
:103F00007407882331F08DEC98E090932C07809310
:103F10002B070E94FE04882321F080E692E00E9495
:103F2000DD0F85E799E090931E0880931D0810929D
:103F30002E0710922D0762E070E089E00E941905BB
:103F400070E060E087E00E9419058091250890E00C
:103F50000E949C0964EF71E080E090E00E94CC0434
:103F60008091250890E00E949C0964EF71E080E058
:103F700090E00E94CC0483E40E94A40983E490E0D2
:103F80000E945E128093710788E40E94A40988E46D
:103F900090E00E945E1280936D0762E070E08EE414
:103FA0000E9419058EE490E00E945E128B838EE7DA
:103FB00092E00E94DD0F4AE050E06B818DEC98E0CA
:103FC0000E94471268EB7BE080E090E00E94CC0406
:103FD00081E08093610760E085E00E943D048DEC04
:103FE00098E00E9432128AE492E00E9436128FE832
:103FF00092E00E9436126BEE73E08DEC98E00E9426
:104000008E062AE041E050E060E070E08DEC98E040
:104010000E94B50E80EA92E00E94DD0F2AE044E0A3
:1040200050E060E070E08DEC98E00E94B50E82EA0E
:1040300092E00E9436128DEC98E00E94321280913C
:104040007107882309F430C20E94FE04882321F0FE
:1040500089EA92E00E94DD0F0E94FE04882321F08D
:1040600080EE92E00E94DD0F0E94FE04882321F082
:1040700080E093E00E94DD0F0E94371080912D08B0
:104080008823A9F090912E08923009F42AC208F0F2
:1040900013C2913009F41DC290912C08913009F49B
:1040A00029C2923009F475C2933009F4F9C28091A3
:1040B0002C088130E9F462E08FED99E00E94B90D9F
:1040C00063E08DEC99E00E94B90D80912D0881117B
:1040D0000FC069E08BEB99E00E94B90D67E089EAB7
:1040E00099E00E94B90D68E087E999E00E94B90D56
:1040F00080912C088230D1F583B190916B00892397
:1041000080935107809151078093500789B18F7038
:1041100080935D0780915D0780935C0767E57BE096
:1041200082E00E943D0D80935E0780915E0787FDCF
:104130001DC090E080E02CED35E0FC01EE0FFF1F8C
:10414000EC5CF84F31832083019689309105A9F703
:104150008AE08093330710926B0710926C0782E01D
:1041600080933207809132070E94D30C80912C08F3
:10417000833091F44EE260EA76E881E090E00E94BC
:104180002E0380E398E09093200980931F0980918B
:104190002109807F8093210980912C08843099F433
:1041A00046E060E072EC81E090E00E942E0380E344
:1041B00098E09093200980931F0980912109807FC6
:1041C00083608093210980912C08853099F446E022
:1041D00060E072EC81E090E00E942E0380E398E0C2
:1041E0009093200980931F0980912109807F82602C
:1041F0008093210980912C08863099F446E068E488
:1042000078EE81E090E00E942E0380E398E09093A6
:10421000200980931F0980912109807F8460809309
:10422000210980912C08873099F446E060E072EC17
:1042300081E090E00E942E0380E398E090932009B3
:1042400080931F0980912109807F816080932109DB
:1042500081E08093730744244A948FE0582E612CA8
:10426000712C812C912C540183948DEC98E00E9448
:10427000A90818161906ACF48DEC98E00E9467089E
:1042800090915F07883009F40EC28D3009F012C298
:10429000E92FF0E0EE59F84F108210925F0797FF78
:1042A00015C210912C08113081F580912D088823BA
:1042B00009F478C60E94591367E08FED99E00E94D7
:1042C0002C0B882311F180912E088330F0F480911B
:1042D000FE079091FF079C01220F331F820F931F4F
:1042E0002091ED093091EE094091ED095091EE09D0
:1042F00024173507A9F7820F931F969587959695F2
:1043000087959093FF078093FE0780912C08823059
:1043100009F03FC080916B07882309F404C780919E
:104320006C0790E0880F892F881F990B892B09F45F
:10433000FAC680916C078F7780936C0781E0809339
:10434000FD07809120080E942F0C9093FF07809317
:10435000FE07809121080E942F0C9093FC07809308
:10436000FB07809122080E942F0C9093FA078093FC
:10437000F907809123080E942F0C9093F8078093EF
:10438000F707809124080E942F0C9093F6078093E2
:10439000F50780912C088350853008F057C780912D
:1043A0001F0990912009892B09F43BC70E940D0534
:1043B00080912209681B770B6430710594F00E948C
:1043C0000D0560932209809121098F70823009F4D4
:1043D000BDC608F0ABC6882309F4AFC6813009F426
:1043E000B3C606E1BEE0CB2E1DE0E12E8BE0D82E59
:1043F00080911F0990912009DC01ED91FC910084CE
:10440000F185E02D0995181619060CF00AC70E94CF
:104410000D056093220980911F0990912009DC010C
:10442000ED91FC910284F385E02D0995F82E182F6B
:10443000E0912309E150E731D8F6F0E0EE5DFD4D63
:104440000C94F934AD28B828C72860297829982910
:10445000DA29E829032A192A3C2A842A922AA52A39
:10446000C82A012B0C2B1F2B2F2B3F2B522B6C2BD5
:10447000902B0C968039910509F090CCC0CC88E047
:104480009E3009F402CD82E09F3009F4FECC84E036
:10449000903109F4FACC81E0913109F4F6CC692F1E
:1044A0006651770BAB01EDCC0E94FE04882309F422
:1044B000D3CD84EC92E0CECD9330A9F0943009F0C6
:1044C000EBCD1092310791E09093300790932F0736
:1044D000E3CD98E0909331071092300710922F07A8
:1044E000DBCD90E1F7CF98E09093310791E0909386
:1044F0003007F4CF0FB70B838091D1090E94860C4F
:10450000F894E0911708F091180819E0ED3CF107D4
:1045100089F58091CF099091D009909318088093E4
:1045200017080B810FBF80912D082DEC39E03093D7
:104530006B0920936A098F718062809369091092D8
:104540007109809172099091730920917409207FFB
:1045500029602093740983719C779260909373090A
:1045600080628F7E8093720910926D0910926E099D
:104570009ECDFC013097A9F28281938129E08D3C88
:104580009207B9F78091CF099091D00993838283E4
:10459000C8CF809132070E94860C8AE0809333074F
:1045A0009091320788EF890F843068F081E022EF24
:1045B000290F243008F480E0943030F480912D08E5
:1045C00025E939E0B4CF80E020E090E03CE0389F7E
:1045D000D001399FB00D1124A25BB84F36E0389F4F
:1045E000A001399F500D1124622F022E000C770B71
:1045F0003C913617170611F30CF3FA01E60FF71F7B
:10460000EE0FFF1FEA5BF84F0081118107551B4039
:1046100011F02F5FE9CF27FDD1CF118210824C918D
:104620004150550B6417750779F1622F2CE0289FD4
:10463000A001299F500D1124425B584F5C834B838E
:1046400046E0489F9001499F300D1124E62FF0E08D
:10465000AB81BC814C914150550BE417F507A4F494
:10466000DF011196A20FB31FAA0FBB1FAA5BB84FA1
:104670004D915C91E20FF31FEE0FFF1FEA5BF84FC5
:10468000518340836F5FE2CF2CE0289FF001299F88
:10469000F00D1124EA5BF84F8085815080878ECF22
:1046A0002DE139E044CF992309F4FBCD915090934B
:1046B0005F07F7CD983038F4E92FF0E0EE59F84F66
:1046C00080839F5FF4CF10925F07EBCD80916207EC
:1046D000883479F00CF03AC1813409F4BEC30CF08F
:1046E00093C08B3209F47FC38D3209F498C38111D2
:1046F00052C40E94FE04882321F082E293E00E94CB
:10470000DD0F0E94FE04882321F08DE095E00E94D9
:10471000DD0F0E94FE04882321F08DE293E00E94C9
:10472000DD0F0E94FE04882321F08AE493E00E94BA
:10473000DD0F0E94FE04882321F08DE593E00E94A6
:10474000DD0F80912C08823040F00E94FE04882307
:1047500021F08DE993E00E94DD0F0E94FE04882382
:1047600021F085EF93E00E94DD0F0E94FE04882374
:1047700021F084E194E00E94DD0F0E94FE04882372
:1047800021F087E394E00E94DD0F0E94FE0488235D
:1047900021F081E594E00E94DD0F0E94FE04882351
:1047A00021F08AE694E00E94DD0F0E94FE04882337
:1047B00021F08EE794E00E94DD0F0E94FE04882322
:1047C00021F08DE894E00E94DD0F0E94FE04882312
:1047D00021F083EA94E00E94DD0F0E94FE0488230A
:1047E00021F08FEE94E00E94DD0F0E94FE048823EA
:1047F00021F08DE592E00E94DD0F1092630782E6C2
:1048000097E00E9436124DCD843409F44CC38534B0
:1048100009F4F0C1833409F0BEC30E94FE0488236A
:1048200021F08BE095E00E94DD0F80912C08813013
:1048300031F50E94FE04882311F183E295E09F93F5
:104840008F938AE295E09F938F9381E395E09F9306
:104850008F938DE394E09F938F931F9284E68F93C1
:10486000E1E8F7E0FF93EF930E94532F81E897E090
:104870000E94DD0F0FB6F894DEBF0FBECDBF809152
:104880002C08823071F50E94FE04882351F1E091DA
:104890002C08E150FF0BEE0FFF1FE55BFE4F8181FF
:1048A0008F9380818F938AE395E09F938F9381E329
:1048B00095E09F938F9389E194E09F938F931F924C
:1048C00084E68F9341E857E05F934F930E94532F04
:1048D00081E897E00E94DD0F0FB6F894DEBF0FBEAF
:1048E000CDBF80912C08833008F487CF0E94FE044E
:1048F000882309F482CFE0912C08E150FF0BEE0FE2
:10490000FF1FE55BFE4F81818F9380818F9381E450
:1049100095E09F938F9381E395E09F938F9383EF2F
:1049200093E09F938F931F9284E68F93A1E8B7E063
:10493000BF93AF930E94532F81E897E00E94DD0F51
:104940000FB6F894DEBF0FBECDBF57CF833509F445
:1049500062C0D4F4803509F472C1823509F4FCC216
:104960008D3409F018C38091F20791E08927809374
:10497000F207882309F446C00E94FE04882309F444
:104980003CCF84E495E037CF883509F46DC2893592
:1049900009F49BC2863509F0FEC2809163078D330E
:1049A00009F0F9C284E697E00E94262F7C018FEF80
:1049B0008E0D8E3108F023CF0E94FE04870111274F
:1049C0008823C1F01F930F938FE295E09F938F93FD
:1049D0001F9284E68F9321E837E03F932F930E9444
:1049E000532F81E897E00E94DD0F0FB6F894DEBFE9
:1049F0000FBECDBFE0922508C8010E949C090E940D
:104A0000850EFBCE0E94FE048823C9F38EE595E057
:104A10000E94DD0FF4CF809163078D3309F0E4C06D
:104A200080916407873519F40E94E70FE8CF893435
:104A300031F586E697E00E94262F80932C080E948D
:104A4000FE048823E1F2E0912C08E150FF0BEE0F09
:104A5000FF1FE55BFE4F81818F9380818F938CE1F7
:104A600095E09F938F931F9284E68F9381E897E060
:104A70009F938F930E94532F81E897E024C0813346
:104A800051F580916507803209F0B9CF86E697E04D
:104A90000E94262F809320080E94FE04882309F498
:104AA000AECF809120081F928F9380E195E09F9375
:104AB0008F931F9284E68F9301E817E01F930F9363
:104AC0000E94532FC8010E94DD0F0FB6F894DEBF7D
:104AD0000FBECDBF94CF823301F580916507803240
:104AE00009F08DCF86E697E00E94262F809322085A
:104AF0000E94FE04882309F482CF809122081F922D
:104B00008F9383E095E09F938F931F9284E68F931A
:104B100061E877E07F936F93ADCF833301F58091A8
:104B20006507803209F06BCF86E697E00E94262F5A
:104B3000809321080E94FE04882309F460CF8091AD
:104B400021081F928F9386EF94E09F938F931F927B
:104B500084E68F93E1E8F7E0FF93EF938BCF843304
:104B600001F580916507803209F049CF86E697E02C
:104B70000E94262F809323080E94FE04882309F4B4
:104B80003ECF809123081F928F9384EE94E09F93F1
:104B90008F931F9284E68F9341E857E05F934F9382
:104BA00069CF853309F02BCF80916507803209F0FA
:104BB00026CF86E697E00E94262F809324080E9445
:104BC000FE04882309F41BCF809124081F928F9341
:104BD00083ED94E09F938F931F9284E68F93A1E8D7
:104BE000B7E0BF93AF9346CF8F3309F0D4C10E9493
:104BF000371003CE84E697E00E94262F863008F017
:104C0000CAC180932F080E94FE04882309F4F7CEBE
:104C1000E0912F08F0E0EE0FFF1FE75CFE4F81816F
:104C20008F9380818F9385EC94E09F938F931F9255
:104C300084E68F9321E837E03F932F931BCF809139
:104C400063078F3309F0A7C180916107882309F4B6
:104C5000C7C00E94FE04882321F08DE592E00E94E7
:104C6000DD0F0E94FE04882321F087E795E00E9473
:104C7000DD0F82E40E94A4090E94FE04882319F13A
:104C800082E490E00E945E12880F991FFC01E55DAE
:104C9000FE4F81818F9380818F9388E994E09F9369
:104CA0008F931F9284E68F9381E897E09F938F9371
:104CB0000E94532F81E897E00E94DD0F0FB6F89411
:104CC000DEBF0FBECDBF83E40E94A4090E94FE0494
:104CD0008823D9F083E490E00E945E129F938F9323
:104CE00085E894E09F938F931F9284E68F9301E869
:104CF00017E01F930F930E94532FC8010E94DD0FEE
:104D00000FB6F894DEBF0FBECDBF84E40E94A409A5
:104D100084E490E00E945E120E94FE04882309F160
:104D2000E0912F08F0E0EE0FFF1FE75CFE4F81815E
:104D30008F9380818F9384E794E09F938F931F924A
:104D400084E68F9361E877E07F936F930E94532FFF
:104D500081E897E00E94DD0F0FB6F894DEBF0FBE2A
:104D6000CDBF88E40E94A4090E94FE048823E1F0DC
:104D700088E490E00E945E129F938F9382E694E015
:104D80009F938F931F9284E68F93E1E8F7E0FF9360
:104D9000EF930E94532F81E897E00E94DD0F0FB63A
:104DA000F894DEBF0FBECDBF8CE40E94A4090E9420
:104DB000FE04882309F421CD8CE490E00E945E1269
:104DC0009F938F938EE494E09F938F931F9284E63A
:104DD0008F9341E857E05F934F930E94532FACCDE0
:104DE00085E995E008CD0E94FE04882321F088EA39
:104DF00095E00E94DD0F809173078F5F80937307AA
:104E000090916D079817C8F4909373070E94FE0461
:104E1000882399F08FEA95E00E94DD0F0EC00E9472
:104E2000FE04882321F085EC95E00E94DD0F80913F
:104E30007307815041F0809373078091730790E06E
:104E40000E94A009DACC81E0809373070E94FE04DF
:104E5000882399F38CEC95E0DFCF0E94FE04882331
:104E600061F382EE95E0D8CF8091700781110BC07D
:104E70008EE00E94A4090E94FE04882321F089EE9E
:104E800095E00E94DD0F80917007813009F0B5CC6C
:104E90008DE00E94A4090E94FE04882309F4ADCC91
:104EA00081EF95E0A8CC80912D08882339F080917E
:104EB000600791E08927809360079FCC80917407F9
:104EC00091E089278093740798CC809163078D3394
:104ED00009F061C084E697E00E94262F8C01909132
:104EE00065079032E1F000932D0881110DC00E94FA
:104EF000FE04882321F088EF95E00E94DD0F809169
:104F00002D08882309F47BCD0E94FE04882309F430
:104F100076CD11271F930F938FEA94E05BCE882301
:104F2000C1F000932D0886E697E00E94262F80931B
:104F30002E080E94FE04882309F461CDE0912E081A
:104F4000E150FF0BEE0FFF1FEF5CFE4F8081918160
:104F50005FCD10922E0853CD0E94FE04882321F0CD
:104F600086E096E00E94DD0F10E000E060E0C801FE
:104F70000E9409320F5F1F4F011524E01207B1F79D
:104F800082E00E9467050E94FE04882309F435CC64
:104F900082E196E030CC6BEA74E082E697E00E9412
:104FA000442F2DCC67E08FED99E00E942C0B8823D5
:104FB00009F4B6C01093FD078091FE079091FF079A
:104FC0009C01220F331F820F931F2091ED09309116
:104FD000EE094091ED095091EE0924173507A9F724
:104FE000820F931F96958795969587959093FF07C7
:104FF0008093FE0767E08DEC99E00E942C0B8823DC
:10500000F1F08091FB079091FC079C01220F331F68
:10501000820F931F2091DB093091DC094091DB095D
:105020005091DC0924173507A9F7820F931F969535
:105030008795969587959093FC078093FB0767E08B
:105040008BEB99E00E942C0B8823F1F08091F907FB
:105050009091FA079C01220F331F820F931F20911A
:10506000C9093091CA094091C9095091CA09241748
:105070003507A9F7820F931F969587959695879583
:105080009093FA078093F90767E089EA99E00E9414
:105090002C0B8823F1F08091F7079091F8079C0181
:1050A000220F331F820F931F2091B7093091B80947
:1050B0004091B7095091B80924173507A9F7820F15
:1050C000931F96958795969587959093F80780936B
:1050D000F70767E087E999E00E942C0B882309F421
:1050E00014C98091F5079091F6079C01220F331F98
:1050F000820F931F2091A5093091A6094091A5091F
:105100005091A60924173507A9F7820F931F96958A
:105110008795969587959093F6078093F507F5C840
:105120001092FD0767CF1092FD0733C9833081F0DD
:10513000843009F056C980E104C080E180932509DC
:1051400081E0809323094DC984E0FBCF87E0F9CF4C
:105150008EE0809325098CE0F4CF8F3031F40093FA
:10516000240982E08093230943C91092230940C98E
:1051700080912409E82FF0E0E35EF64FF18681503C
:10518000809324098F3F09F033C983E0EBCF81116D
:1051900095C0809124098F3F09F090C020E0F12C48
:1051A00030E060EB76E1EF2DF0E0D501C401022E96
:1051B00004C0880F991FAA1FBB1F0A94D2F78D83C2
:1051C0009E83AF83B887EE0FFF1FE35EF64F01A506
:1051D00012A5472F50E0435E564FDA0119964C91C5
:1051E00050E0032E02C0559547950A94E2F78D8151
:1051F0009E8140FF5CC0802B912B92A781A73F5FCF
:105200002F5F383011F4715030E02B3011F4F394EB
:1052100020E0615041F68FEF8093680981E0809330
:10522000230980912D08882309F4B4C20E945913E0
:1052300080912E08833050F4609120088DE199E030
:105240000E94FE099093FF078093FE0780912D082E
:1052500081110FC58091FD078111EAC20E940D05E1
:10526000009191091091920920919309309194092C
:10527000601B710B820B930B6A3F710581059105D1
:1052800008F4DAC210911101612F85E00E943D04FB
:1052900081E01827109311010E940D056093910978
:1052A000709392098093930990939409C5C2809555
:1052B00090950823192312A701A7A1CF81E052CF0F
:1052C0008FE58F0D823008F050CF8CE0113A09F055
:1052D00080E180932509109224096F2D90E080E0F1
:1052E0000E94D309909367098093660985E03ACFBD
:1052F000E091240911E01E0F10932409F0E0E35E11
:10530000F64F8187682F80916609909167090E9406
:10531000D30990936709809366098091250990E0ED
:10532000880F991F181719060CF462C886E01ACF67
:10533000109124091F5F10932409682F809166093A
:10534000909167090E94D309909367098093660939
:10535000F09025092F2D30E02F5F3F4F220F331F94
:10536000121713060CF444C8892B09F0FECE06E28E
:1053700019E0E12CFE14D1F0F801219131918F0157
:10538000322723273227A8E7B5E00E949A32A301EB
:1053900092010E941732205E3C4F4F4F5F4FD80161
:1053A0005F963C932E935E97E394E4CF8FEF8093C8
:1053B000680937CF883A09F0D8CE68EA90E080E0F3
:1053C0000E94D309909367098093660988E0CACE4A
:1053D0008F77813009F0C9CE6F2D80916609909149
:1053E00067090E94D309909367098093660991E049
:1053F000113809F090E08091210990FB84F98093A5
:10540000210989E0AFCE8EEF8F0D8F3008F0ADCE41
:105410006F2D80916609909167090E94D30990933E
:10542000670980936609F0922509109224098AE0A1
:1054300099CEE091240911E01E0F10932409F0E0A9
:10544000E35EF64F8187682F809166099091670926
:105450000E94D3099093670980936609809125097A
:1054600090E0880F991F1817190614F40C94F8216E
:10547000D09223090C94F821109124091F5F1093F6
:105480002409682F80916609909167090E94D309C9
:105490009093670980936609F09025092F2D30E0DD
:1054A0002F5F3F4F220F331F1217130614F40C9473
:1054B000F821892B09F059CE06E219E0E12CFE14FF
:1054C00009F474CFF801219131918F0132272327FC
:1054D000322750E040E020523C4141095109A0EB05
:1054E000B4E00E94363220E835E240E050E00E940D
:1054F00017322C573C4F4F4F5F4FD8015F963C936C
:105500002E935E97E394DBCF803211F00C94F82158
:10551000EFEDFFEFF0936709E0936609E09223094E
:105520000C94F821803409F020CE80916609909186
:1055300067098054910990936709809366091092D6
:105540002409C09223090C94F821E091240921E058
:105550002E0F20932409F0E0E35EF64F81878091BF
:105560006609909167098F19910990936709809353
:1055700066098091250990E0880F991FFFE02817A0
:10558000190614F40C94F821F09323090C94F821D3
:1055900020912409E22FF0E0E35EF64F81872F5F30
:1055A0002093240940912509842F90E00196880FCB
:1055B000991F2817190614F40C94F821835E964F4E
:1055C000DC0117968C913F2C212C820D932D911D7F
:1055D00020916609309167092817390709F0C5CD70
:1055E000E6E2F9E020E0421731F081919191978F46
:1055F000868F2F5FF8CF8FEF809368091092230971
:1056000010CE8E3309F0B1CDEDEFF8EDF0936709D0
:10561000E0936609F1E1B8CF833009F0A6CD63E0ED
:1056200080916609909167090E94AD059093670982
:105630008093660912E1109323090C94F821682FD6
:1056400080916609909167090E94AD059093670962
:105650008093660923E1209323090C94F821682F95
:1056600080916609909167090E94AD059093670942
:105670008093660934E1309323090C94F821813337
:1056800009F073CD61E380916609909167090E94EA
:10569000AD05909367098093660945E1409323091E
:1056A0000C94F82188EF8F0D893108F05ECD8F2D95
:1056B000869580932509109224096F2D80916609A3
:1056C000909167090E94AD059093670980936609E0
:1056D000009323090C94F821E091240911E01E0F96
:1056E00010932409F0E0E35EF64F8187682F8091E4
:1056F0006609909167090E94AD05909367098093B0
:1057000066098091250990E0880F991F18171906DE
:1057100014F40C94F82157E1509323090C94F821C8
:1057200020912409E22FF0E0E35EF64F81872F5F9E
:105730002093240940912509842F90E00196880F39
:10574000991F2817190614F40C94F821835E964FBC
:10575000DC0117968C91FA821982E981FA81E80FAF
:10576000F11D20916609309167092E173F0709F056
:10577000FCCCE6E2F9E020E0421709F43CCF81914D
:10578000919163E0969587956A95E1F7978F868F5B
:105790002F5FF2CF20916809822F90E0880F892F28
:1057A000881F990B892B09F40CC32F772093680964
:1057B00081E08093FD078091F4078F5F8436A8F520
:1057C0008093F407609120088DE199E00E94FE0922
:1057D0009093FF078093FE07609122088DE199E086
:1057E0000E94FE099093FA078093F90760912108BF
:1057F0008DE199E00E94FE099093FC078093FB07DE
:10580000609123088DE199E00E94FE099093F807CA
:105810008093F707609124088DE199E00E94FE09CA
:105820009093F6078093F50711CD1092F407CACF35
:1058300061E085E00E943D048091F207882309F42D
:105840007AC08091EA0781110DC00E940D05609316
:10585000E6077093E7078093E8079093E90781E0F4
:105860008093EA070E940D050091E6071091E70773
:105870002091E8073091E907601B710B820B930BB5
:105880006A3F71058105910508F455C00E940D0518
:105890006093E6077093E7078093E8079093E90722
:1058A0008091FE079091FF07009709F4F7C18C3DA6
:1058B000F5E09F0708F0E0C120912A0830912B08FD
:1058C0008217930720F490932B0880932A08209145
:1058D00028083091290840912A0850912B08240F5C
:1058E000351F3695279530932708209326080E9468
:1058F000010F88E296E00E94DD0F80912A089091C6
:105900002B080E94010F88E296E00E94DD0F809133
:105910002608909127080E94010F88E296E00E94D5
:10592000DD0F80912808909129080E94010F8DECCD
:1059300098E00E9432128091790781110DC00E9477
:105940000D056093750770937607809377079093A2
:10595000780781E0809379070E940D050091750713
:10596000109176072091770730917807601B710BB3
:10597000820B930B653F71408105910508F469C165
:105980000E940D05609375077093760780937707E3
:105990009093780780917407882309F478C00E9457
:1059A000FE04882331F08091FE079091FF070E944A
:1059B000010F0E94FE04882321F088E296E00E94F5
:1059C000DD0F0E94FE04882331F08091FB07909147
:1059D000FC070E94010F0E94FE04882321F088E248
:1059E00096E00E94DD0F0E94FE04882331F0809132
:1059F000F9079091FA070E94010F0E94FE04882384
:105A000021F088E296E00E94DD0F0E94FE048823C8
:105A100031F08091F7079091F8070E94010F0E94E2
:105A2000FE04882321F088E296E00E94DD0F0E94A8
:105A3000FE04882331F08091F5079091F6070E94CB
:105A4000010F0E94FE04882321F088E296E00E9464
:105A5000DD0F0E94FE048823D1F0809173071F920E
:105A60008F938CE495E09F938F931F9284E68F939E
:105A7000E1E8F7E0FF93EF930E94532F81E897E06E
:105A80000E94DD0F0FB6F894DEBF0FBECDBF209190
:105A9000FE073091FF07109171072115310509F4B8
:105AA0002FC1C0902A08D0902B08F12CE12C50E097
:105AB00040E02C193D094E095F09ADE1B0E00E94BC
:105AC0003632209128083091290850E040E02C1906
:105AD0003D094E095F090E9417322F5F3F4F4F4F1C
