:100000000C94B3020C9479130C9452130C942B138C
:100010000C9404130C94DB020C94DB020C94DD12A0
:100020000C94DB020C9499160C94A0130C940F14EE
:100030000C94DB020C94DB020C94DB020C94DB02CC
:100040000C94DB020C94DB020C94DB020C94DB02BC
:100050000C94DB020C94DB020C94DB020C949312E4
:100060000C94DB020C9467160C9441160C94DB0282
:100070000C94DB020C94DB020C94DB020C94DB028C
:100080000C94DB020C94DB020C94DB020C94DB027C
:100090000C94DB020C94DB020C94DB020C94DB026C
:1000A0000C94DB020C94DB020C94DB024D696E694C
:1000B00043683A2020202025640D0A0043656E74B1
:1000C000657243683A202025640D0A004D61786905
:1000D00043683A2020202025640D0A00506C617985
:1000E0002053616D653A2025640D0A00506C6179DA
:1000F0002053746F703A2025640D0A004E657874A1
:100100003A20202020202025640D0A0050726576B8
:100110003A20202020202025640D0A00566F6C43D1
:10012000683A202020202025640D0A00566F6C3A82
:100130002020202020202025640D0A004551204D3C
:100140006F64653A202025730D0A0058616E79208E
:100150006973204F464620210D0A0058616E7920B0
:10016000757365204368616E6E656C202564207C24
:100170002025730044656661756C74732056616C4C
:1001800075652053617665640D0A002E002E005DB2
:100190003A2030780052785B006D70335F7265638F
:1001A000765F636D64206F7574004572726F7220A4
:1001B000726573706F6E7365207769746820636F02
:1001C000646520006D70335F726563765F636D6494
:1001D00020696E207769746820657870656374653E
:1001E0006420636D6420307800080B000202020076
:1001F00000090400000102020000052400100105AE
:1002000024010101042402060524060001070581DA
:100210000310004009040100020A00000007050263
:100220000240000007058302400000040309041295
:10023000010002EF0201404F1B0692000101020380
:1002400001537061726B46756E00537061726B463C
:10025000756E2050726F204D6963726F0000C2018D
:100260000000000E000E000C0000E100000500225E
:100270000022002000009600000F003600360034F7
:1002800000127A0000170043004300410080700014
:10029000001A004A004A004800004B00002C007180
:1002A0000071007000403800004A009C00990099DD
:1002B00000802500007200EA00EA00E900C0120098
:1002C00000E900DA01DA01D70160090000D701ACCA
:1002D00003AC03B103B0040000B3036E076E0767FD
:1002E000072C010000DC0EC11DC11DBE1D202A2AE5
:1002F0002A2A2A002E002A2A2A2A2A2056002A20C0
:10030000536F756E64204D6F64756C65202A002AEA
:100310002A2A2A2A2A2A2A2A2A2A2A2A2A2A2A0067
:1003200043757272656E7420736F756E643A202522
:10033000640D0A0046696C657320666F756E643AD9
:100340002025640D0A00457175616C697A65723A01
:10035000202025730D0A00566F6C756D65202020D6
:100360002020203A2025640D0A0053746174652012
:100370002020202020203A2025640D0A00455252DA
:100380000058414E5920757365204368616E6E6553
:100390006C2025640D0A004446506C61796572201A
:1003A0006E6F7420666F756E64004551204D6F64EA
:1003B000653A2025730D0A00506C617950617573A0
:1003C0006543683A2025640D0A00507265764368DB
:1003D0003A2025640D0A004E65787443683A20255A
:1003E000640D0A00566F6C43683A2025640D0A00BC
:1003F000496E707574204D6F646520697320257394
:100400000D0A00566F6C3A25640D0A00E4031C04C3
:100410001C04540454048C048C04C404C404FC045C
:10042000FC04340534056C056C05A405A405DC0545
:10043000DC05140614064C064C0684068406BC062D
:10044000BC06F406F4062C072C07640764079C0717
:100450009C07D407582D416E79204661696C736101
:10046000666521202D3E204F757470757473203D94
:100470002030002058616E79207175616C69747943
:10048000203D20256400202852784E6962626C6508
:100490004C656E203D256400204578704E6962628F
:1004A0006C654C656E3D25640050726F703D202573
:1004B000642000416C61726D3A2025642073746180
:1004C0007274656420210D0A00536F756E644E7559
:1004D0006D6265723A2025640D0A00000000002458
:1004E0000027002A002D0030000000000200090F44
:1004F0000000030401000C000000000000000000E8
:100500000000000000000000000000250028002B73
:10051000002E003100000000002300260029002CDE
:10052000002F000404040404030405020202020470
:10053000030202020206060606060604040202027E
:1005400004040408020110408040102040804080D4
:100550000802040180402010020110801020404059
:100560002000DF16782A11241FBECFEFDAE0DEBFAD
:10057000CDBF16E0A0E0B1E0E0EFFCE502C00590E1
:100580000D92A433B107D9F729E0A4E3B6E001C086
:100590001D92A437B207E1F712E0C2EBD2E004C02B
:1005A0002197FE010E94512EC13BD107C9F70E943D
:1005B0002D180C946B2E0C9400008F929F92AF928A
:1005C000BF92FF920F931F93CF93DF934B015C0178
:1005D000F42EC2EAD7E0E889F98982E08083EC85CD
:1005E000FD8510820E851F8560E079E08DE390E047
:1005F000A50194010E940C2E215031094109510995
:100600005695479537952795F8012083188EEC89E4
:10061000FD89F082EA89FB89808180618083EA8993
:10062000FB89808188608083EA89FB89808180687A
:100630008083EA89FB8980818F7D8083DF91CF91E0
:100640001F910F91FF90BF90AF909F908F90089552
:10065000FC0180919807882311F13FB7F89482E05C
:100660008093E9002091F200822F90E0181619067D
:1006700014F481E090E0882339F0289844E6409310
:1006800097074091F1004083222339F02091F20036
:10069000211103C02BE62093E8003FBF08958FEFA0
:1006A0009FEF08952FB7F89483E08093E90090912D
:1006B000E800892F807295FF04C09091F20080E4D9
:1006C000891B2FBF089580918F0781110DC082E093
:1006D00080938B0784E080938C0710928E07109292
:1006E0008D0781E080938F078BE897E00895815014
:1006F0008F3008F047C0E82FF0E0EF57FC4F0C9424
:10070000512E9E03A203900396039A03C203C203D1
:10071000C203A503AB03AF03B303B903C203BD0315
:10072000809180008F778093800008958091800071
:100730008F7DF9CF80918000877FF5CF84B58F774B
:1007400084BD089584B58F7DFBCF809190008F7715
:10075000809390000895809190008F7DF9CF8091D3
:100760009000877FF5CF8091C0008F778093C00085
:1007700008958091C0008F7DF9CF8091C200877F5E
:100780008093C2000895CF93DF93282F30E0F901C2
:10079000E751FB4F8491F901EE5BFA4FD491F901D7
:1007A000ED5DFA4FC491CC23A1F081110E94770333
:1007B000EC2FF0E0EE0FFF1FEB5EFA4FA591B49126
:1007C000EC91ED2381E090E009F480E0DF91CF919E
:1007D000089580E090E0FACF1F93CF93DF93282F06
:1007E00030E0F901E751FB4F8491F901EE5BFA4FDC
:1007F000D491F901ED5DFA4FC491CC23A9F0162FE5
:1008000081110E947703EC2FF0E0EE0FFF1FE95FEC
:10081000FA4FA591B4918FB7F894EC91111108C0DB
:10082000D095DE23DC938FBFDF91CF911F91089588
:10083000DE2BF8CFCF93DF9390E0FC01EE5BFA4F15
:1008400024918D5D9A4FFC0184918823C9F090E03A
:10085000880F991FFC01E552FB4FA591B491FC0153
:10086000E95FFA4FC591D49161110DC09FB7F8941B
:100870008C91209582238C938881282328839FBF85
:10088000DF91CF910895623051F49FB7F8943C9175
:10089000822F809583238C93E8812E2BEFCF8FB707
:1008A000F894EC912E2B2C938FBFEACF3FB7F8949E
:1008B0008091870790918807A0918907B0918A0756
:1008C00026B5A89B05C02F3F19F00196A11DB11DAB
:1008D0003FBFBA2FA92F982F8827BC01CD01620FE7
:1008E000711D811D911D42E0660F771F881F991FA2
:1008F0004A95D1F708958F929F92AF92BF92CF926F
:10090000DF92EF92FF924B015C010E9456046B0153
:100910007C010E9456046C197D098E099F09683E6E
:10092000734081059105A8F321E0821A9108A1087E
:10093000B10888EEC80E83E0D81EE11CF11C8114BA
:100940009104A104B10429F7FF90EF90DF90CF90BC
:10095000BF90AF909F908F900895CF93C091230147
:100960006AE070E080E090E00E947B0481E0C111C9
:1009700001C080E0CF9108952FB7F894609183076C
:100980007091840780918507909186072FBF089505
:10099000CF93DF9380931501109217016093180194
:1009A0002091130190911401290F3327331F820FD7
:1009B000932F911D20911601820F911D680F791FB1
:1009C0007195619571097093190160931A01809175
:1009D000A0079091A107DC01ED91FC910084F185C5
:1009E000E02D0995892B61F08091A0079091A107D6
:1009F000DC01ED91FC910284F385E02D0995E7CFB0
:100A0000C2E1D1E08091A0079091A1076991DC013A
:100A1000ED91FC910190F081E02D0995B1E0CC3190
:100A2000DB0781F7DF91CF910C94BC04CF92DF926A
:100A3000EF92FF921F93CF93DF93D82FC0E011E086
:100A4000C0909C07D0909D07E0909E07F0909F0774
:100A500080911101882311F10E94BC046C197D0959
:100A60008E099F09683E73408105910560F01092E0
:100A700011010E94BC0460939C0770939D078093B2
:100A80009E0790939F07CF5FDC13DACFDF91CF9162
:100A90001F91FF90EF90DF90CF9008950E94BC04CB
:100AA0006C197D098E099F09643F7140810591058C
:100AB00050F310931101DDCF862720E1829FB00112
:100AC00011248627482F50E0292F382FCA0164E0CF
:100AD000959587956A95E1F728273927CA0173E02C
:100AE000880F991F7A95E1F7822793270895089533
:100AF0004091890650918A06209187063091880698
:100B000042175307B4F49091E8009570E1F3909187
:100B1000E80092FD19C08093F100809189069091C0
:100B20008A0601968F739927892B19F48EEF80938B
:100B3000E8008091890690918A06019690938A0632
:100B40008093890681E0089580E00895EF92FF92F6
:100B50000F931F93CF93DF93F82E192FE62E042FB8
:100B600081E0860F880F0E94780583E00E94780557
:100B7000CF2DD12FEC0EFD2EF11CCE15DF05B9F0D7
:100B800007FF13C0FE0184910E947805182F80E0B2
:100B90000E947805812321968111EFCFDF91CF91BB
:100BA0001F910F91FF90EF9008958881EDCF81E024
:100BB000F5CFDF92EF92FF920F931F93CF93DF93C6
:100BC000D82E8A01EB017B01E40EF51ECE15DF0560
:100BD00059F0D7FE12C0FE0184910E94780521963B
:100BE0008111F4CF0FEF1FEFC801DF91CF911F915B
:100BF0000F91FF90EF90DF9008958881EECF0F93D3
:100C00001F93CF93DF931F92CDB7DEB782E0898326
:100C100042E450E069EE71E080E80E94D9050E944C
:100C20006303DC0112960D911C910115110589F0E9
:100C3000D801ED91FC910280F381E02DBE016F5F40
:100C40007F4FC801099597FD04C0F8010085118503
:100C5000ECCF89810F90DF91CF911F910F91089573
:100C6000615030F02091F100FC0120830196F8CF13
:100C7000289884E6809397070895EF92FF920F9348
:100C80001F93CF93DF938C017B01D0E0C0E0F7018D
:100C9000EC0FFD1F6491662361F0D801ED91FC918A
:100CA0000190F081E02DC8010995892B11F0219662
:100CB000EECFCE01DF91CF911F910F91FF90EF907A
:100CC0000895AF92BF92CF92DF92EF92FF920F936F
:100CD0001F93CF93DF936C017B018B01040F151FD2
:100CE000EB015E01AE18BF08C017D10759F069913A
:100CF000D601ED91FC910190F081E02DC60109959E
:100D0000892B79F7C501DF91CF911F910F91FF904A
:100D1000EF90DF90CF90BF90AF900895FC01538D7E
:100D2000448D252F30E0842F90E0821B930B5417C5
:100D300010F0CF96089501970895FC01918D828D52
:100D4000981761F0A28DAE0FBF2FB11D5D968C91EB
:100D5000928D9F5F9F73928F90E008958FEF9FEF2A
:100D60000895FC01918D828D981731F0828DE80FE6
:100D7000F11D858D90E008958FEF9FEF0895FC01A0
:100D8000918D228D892F90E0805C9F4F821B91096D
:100D90008F739927089582EA97E00E94BF0621E0A9
:100DA000892B09F420E0822F089580E090E0892BC0
:100DB00029F00E94CB0681110C9400000895FC01DB
:100DC000A48DA80FB92FB11DA35ABF4F2C91848DAC
:100DD00090E001968F739927848FA689B7892C9309
:100DE000A089B1898C9182748C93938D848D981392
:100DF00006C00288F389E02D80818F7D808308956D
:100E0000EF92FF920F931F93CF93DF93EC0181E05A
:100E1000888F9B8D8C8D981319C0E889F989808102
:100E200085FF14C09FB7F894EE89FF896083E88935
:100E3000F9898081827480839FBF81E090E0DF9197
:100E4000CF911F910F91FF90EF900895F62E0B8D8B
:100E500010E00F5F1F4F0F731127E02E8C8D8E1146
:100E60000CC00FB607FCFACFE889F989808185FFAD
:100E7000F5CFCE010E94DF06F1CFEB8DEC0FFD2FF9
:100E8000F11DE35AFF4FF0829FB7F8940B8FEA8968
:100E9000FB8980818062CFCFCF93DF93EC01888D77
:100EA0008823B9F0AA89BB89E889F9898C9185FDE5
:100EB00003C0808186FD0DC00FB607FCF7CF8C9173
:100EC00085FFF2CF808185FFEDCFCE010E94DF0646
:100ED000E9CFDF91CF9108958F929F92AF92BF9209
:100EE000CF92DF92EF92FF920F931F93CF93DF93F6
:100EF0006C017B018A0180912301882309F45CC085
:100F000080919807882309F457C080918D0680FF4F
:100F100005C08091E00082608093E000E801B12C80
:100F20008AEFA82E93E0892E2AE3922E209711F4BF
:100F3000BB20D9F10E94520381110AC0AA94AA20B1
:100F4000D9F161E070E080E090E00E947B04EECF98
:100F50008C171D0611F00CF08C2F9FB7F89480921F
:100F6000E9002091E80025FD02C09FBFDFCF282FB8
:100F700030E0C21BD30BF701815020F04191409328
:100F8000F100FACFE20EF31EBB2021F09092E800B0
:100F9000B12CEBCF8091E80085FDE7CF9092E8007F
:100FA000BB24B394209709F3F3CF5D9884E6809334
:100FB0008C06101611063CF081E090E0F601938358
:100FC000828310E000E0C801DF91CF911F910F9163
:100FD000FF90EF90DF90CF90BF90AF909F908F9059
:100FE0000895CF93DF931F92CDB7DEB76983DC01FD
:100FF000ED91FC910280F381E02D41E050E0BE01D3
:101000006F5F7F4F09950F90DF91CF91089583E037
:101010008093E9008091F200882319F08AE380939D
:10102000E80008950E94520390E00895CF93DF9363
:101030001F92CDB7DEB7FC018485958597FD08C06A
:101040002FEF3FEF358724870F90DF91CF910895E1
:10105000CE0101960E942803019719F4898190E03E
:10106000F3CF8FEF9FEFF0CF0F931F93CF93DF93CB
:101070001F92CDB7DEB78C01FC018485958597FF63
:101080000BC0CE0101960E942803019771F489815B
:1010900090E0F80195878487F801848595850F9005
:1010A000DF91CF911F910F9108958FEF9FEFF1CFB7
:1010B000FC018485958597FD0BC09FB7F89482E06D
:1010C0008093E9008091F2009FBF90E0019608951F
:1010D0009FB7F89482E08093E9008091F2009FBF6F
:1010E00090E00895DC015196ED91FC91529790812A
:1010F00050968C9180958923808308952091910644
:10110000309192062817390781F490918F068091CB
:101110009006981751F0E0918F06F0E0E95BF94FE7
:101120008081082E000C990B08958FEF9FEF089592
:1011300020919106309192062817390739F48FB71C
:10114000F8941092900610928F068FBF0895209108
:101150009106309192062817390771F48091900614
:1011600020918F0690E0805C9F4F821B910960E484
:1011700070E00E943D2E089590E080E00895209157
:1011800091063091920628173907B9F490918F068D
:1011900080919006981789F0E0918F06F0E0E95B66
:1011A000F94F808120918F0630E02F5F3F4F2F73E2
:1011B000332720938F0690E008958FEF9FEF0895D7
:1011C00020E001972FEF8F3F9207D9F70895EF9214
:1011D000FF920F931F93CF93DF93C0919106D0910D
:1011E0009206209749F0EE85FF859D858B8D81FFC6
:1011F0000AC08081892351F4DF91CF911F910F9113
:10120000FF90EF90089580818923B1F78B899C89A5
:101210000E94E00888E0E82EF12C10E001E08D89C2
:101220009E890E94E008EE85FF8580819D85892347
:1012300039F1102B000F81E0E81AF10881F78F894E
:10124000988D0E94E0088B8D81FD1095809190060D
:1012500020918F0690E001968F7399272817190621
:1012600099F0E0919006F0E0E95BF94F10838091EE
:10127000900690E001968F73992780939006BCCFDB
:10128000802F80951823D6CF8B8D81608B8FB4CF24
:1012900090E080E00895BC0186E00C94C804BC0195
:1012A00083E00C94C80470E060E00C94C8048F9252
:1012B0009F92AF92BF92CF92DF92EF92FF926C011A
:1012C0000E94BC044B015C01F12CE12C0E94BC0487
:1012D000681979098A099B096C157D058E059F059A
:1012E00040F4E0919506F0919606309779F30995D0
:1012F000EDCFFF90EF90DF90CF90BF90AF909F9099
:101300008F900895962728E0AC01880F991F57FF0A
:1013100004C031E2832730E193272150A9F70895D3
:101320000895FC01E55BFF4F9081492F50E0062EA8
:1013300002C0559547950A94E2F7DA01A170BB27E0
:1013400040FF09C021E030E001C0220F6A95EAF7B2
:101350002095292320838A2F08956150603140F51C
:10136000FC0124812F7059F0253010F570E0660FD4
:10137000771F680F791FFB0181A592A5089570E082
:10138000660F771F680F791FFB0121A532A5A0E02A
:10139000B5E00E942E2E2FEF37E040E050E00E9493
:1013A000AB2DDA01C90180599C4FAF4FBF4F089553
:1013B0008CED95E008950C94AD09BF92CF92DF9229
:1013C000EF92FF920F931F93CF93DF930E945604E7
:1013D0006B017C01C0919A07D0919B07BB24BA9402
:1013E00001E010E0209709F458C08D818370D1F599
:1013F0002091B406422F50E08C81843048F4882339
:10140000C1F1813099F18230B9F522E030E01AC0A3
:1014100098EF980F682F6450770B943058F08E3007
:1014200029F18F3091F3803121F1813129F1682F39
:101430006651770B9B01B80102C0660F771F2A9592
:10144000E2F79B0124233523232B61F00E94C30381
:101450009D8192FB992790F9981789F0CA86DB86BF
:10146000EC86FD860A80DB81C02DBCCF28E030E011
:10147000E9CF24E030E0E6CF21E030E0E3CF8A8519
:101480009B85AC85BD859601281B390B3F872E8730
:10149000B88A0E94BC04698BE5CFDF91CF911F9180
:1014A0000F91FF90EF90DF90CF90BF900895BF9283
:1014B000CF92DF92EF92FF920F931F93CF93DF9320
:1014C0000E9456046B017C01C0919A07D0919B0742
:1014D00001E010E0BB24BA94209709F459C08D8133
:1014E00083708130D1F52091C006422F50E08C816D
:1014F000843048F48823C1F1813099F18230B9F504
:1015000022E030E01AC098EF980F682F6450770BF4
:10151000943058F08E3029F18F3091F3803121F1E1
:10152000813129F1682F6651770B9B01B80102C008
:10153000660F771F2A95E2F79B0124233523232B7F
:1015400061F00E94C3039D8192FB992790F998173F
:1015500089F0CA86DB86EC86FD860A80DB81C02D99
:10156000BBCF28E030E0E9CF24E030E0E6CF21E057
:1015700030E0E3CF8A859B85AC85BD859601281B2D
:10158000390B3F872E87B88A0E94BC04698BE5CF50
:10159000DF91CF911F910F91FF90EF90DF90CF904F
:1015A000BF900895FC01868597852685378582172B
:1015B0009307C9F70895FC01808990E0062E02C0C8
:1015C000959587950A94E2F780FF1CC0208981E0F9
:1015D00090E001C0880F6A95EAF780958223808B9E
:1015E000268537858685978528173907C9F7868127
:1015F00097812817390730F081E0408551854217DF
:10160000530708F480E008950C94DB0AE091C306C8
:101610003CE0E39FF0011124E555F94F21858091CD
:101620009706843008F059C080919706882309F402
:1016300086C080919706813009F47BC0809197061F
:10164000823009F479C080919706833009F47AC01A
:1016500080919706873009F469C090E080E0E091BE
:10166000C3064CE0E49FF0011124E555F94F3385A2
:10167000232330E082239323892B09F483C00E9423
:1016800056042091390630913A06AB01421B530BA8
:101690009A0170933A0660933906283B5BE0350760
:1016A00008F45EC0209198062093DD0610929806FB
:1016B0002FEF2093DE0630913806209138062E7FDA
:1016C00030FF2160209338062091380620FF3DC06E
:1016D0007093370660933606089580919706883098
:1016E00080F0809197068C3060F4409197064450CA
:1016F000550B81E090E002C0880F991F4A95E2F7F0
:10170000AECF809197068E30A1F0809197068F30F2
:1017100099F080919706803191F080919706813100
:1017200089F0409197064651550BE3CF80E190E058
:1017300096CF88E090E093CF82E090E090CF84E075
:1017400090E08DCF81E090E08ACF209136063091F5
:101750003706621B730B7093350660933406089549
:1017600080919806893070F4E0919806F0E0EE0FD1
:10177000FF1FE756F94F31832083809198068F5FD2
:101780008093980608952091DE0630E0062E02C070
:10179000359527950A94E2F7C9018170992720FFB2
:1017A0000CC04091DE0621E030E001C0220F6A95B6
:1017B000EAF7209524232093DE060895882399F0E4
:1017C0009091DD06981778F08150E82FF0E0EE0F49
:1017D000FF1FE756F94F8081918120813181821767
:1017E0009307C9F708958CED95E00895862F0C9422
:1017F000DE0B89B18F70EBEAF6E0878B86899789DB
:101800008927858B8789868B0288F389E02D099447
:1018100089B18F70EBEAF6E0878B868997898927F3
:10182000858B8789868B0088F189E02D099489B1A1
:101830008F70EBEAF6E0878B868997898927858BFD
:101840008789868B0684F785E02D099489B18F708E
:10185000EBEAF6E0878B868997898927858B8789CC
:10186000868B0484F585E02D0994843088F49DB33B
:10187000882341F0813041F0823041F081E0892BB2
:101880008DBB089584E0FBCF88E0F9CF82E0F7CFED
:1018900028EF280F243040F092EF980F943020F07A
:1018A00096EE980F9330D0F590916800243050F068
:1018B00032EF380F343030F036EE380FF0E0E0E041
:1018C000333010F4E8E6F0E091609083243050F07B
:1018D00092EF980F943030F096EE980FF0E0E0E041
:1018E000933010F4EBE6F0E030812430C0F491E066
:1018F000682F6450770B01C0990F6A95EAF7932B14
:10190000243048F022EF280F243028F08A51F0E0EC
:10191000E0E0833010F4EBE6F0E09083089598E087
:101920008E3069F392E08F3051F394E0803139F3D7
:1019300091E0813121F3682F6651770BDCCFCF9393
:10194000DF93982F28EF280F81E0243008F480E0FF
:10195000282F30E09430A0F59230D1F49CE0929F93
:10196000F001939FF00D1124E555F94F73836283C5
:1019700027E13CE030930701209306019091690034
:10198000937F946090936900E99ADF91CF910895D5
:101990009CE0929FF001939FF00D1124E555F94FC3
:1019A0007183608326E23CE03093050120930401BB
:1019B000909169009C7F916090936900E89AE5CFCF
:1019C00050E040E096E0929FE001939FD00D1124FB
:1019D000DE01A40FB51FAA0FBB1FA555B94FED918E
:1019E000FC91E617F70789F24F5F5F4F44305105CE
:1019F00079F79CE0929FD001939FB00D1124A555DB
:101A0000B94F18969C911897943010F08FEFBDCF76
:101A10001896EC911897EC0FFD2FF11DEE0FFF1F9C
:101A2000E555F94F7183608318969C9118979F5FD5
:101A300018969C93AACF1F93CF93DF93EC01162F98
:101A400098EF960F8D818C7F943088F181608D8323
:101A500067E57AE0812F0E949F0C982F93708D810B
:101A60008C7F892B8D831C8388E592E09F838E83F6
:101A700080E699E09987888780919A0790919B07E3
:101A80009B838A83D0939B07C0939A0760E0812F42
:101A90000E941A0461E08C810E94EC038C810E94F8
:101AA000350C8D818370DF91CF911F9108958D83C7
:101AB0006DED79E0CFCFDF92EF92FF920F931F93FE
:101AC000CF93DF93EC01898D9A8D892B71F481E09E
:101AD00090E09B838A8390E080E0DF91CF911F911B
:101AE0000F91FF90EF90DF900895162FDFB6F894D6
:101AF0008B8D81FD28C0CE010E947208898D9A8D40
:101B00000E94E0088B8D98E0E92EF12C01E081FF26
:101B100028C0812F8023F1F0CE010E947208898DA8
:101B20009A8D0E94E008000F81E0E81AF10889F719
:101B3000CE010E947208DFBE898D9A8D0E94E00856
:101B400081E090E0CACFE989FA8980819889892B60
:101B50008083D4CFE989FA8980819889892B808311
:101B6000DECF812F8023B1F0E989FA8980819889BD
:101B7000892B8083898D9A8D0E94E008000F81E077
:101B8000E81AF10871F7E989FA8980819889892B27
:101B90008083D1CFCE010E947208ECCF0F931F93A8
:101BA000CF93DF9307EE18E0D0E0C0E0CE010E94B3
:101BB000952DF80181938F012196C131D105B1F79F
:101BC00087EE98E0DF91CF911F910F910895FF92DA
:101BD0000F931F93CF93DF9307EE18E0D0E0C0E0A0
:101BE000F801F1908F01CE010E94952DF81621F099
:101BF0006F2DCE010E949D2D2196C131D10581F717
:101C000087EE98E0DF91CF911F910F91FF9008959B
:101C1000FB0101900020E9F73197AF01461B570BFC
:101C2000DC01ED91FC910280F381E02D09948F920B
:101C30009F92AF92BF92EF92FF920F931F93CF9319
:101C4000DF93CDB7DEB7A1970FB6F894DEBF0FBE16
:101C5000CDBF7C01FA01CB0119A2223008F42AE0A1
:101C60008E010F5D1F4F822E912CB12CA12CBF0134
:101C7000A50194010E940C2EF901CA016A300CF5ED
:101C8000605DD8016E938D01232B242B252B79F7D2
:101C900090E080E0109721F0BD01C7010E94080E7E
:101CA000A1960FB6F894DEBF0FBECDBFDF91CF91E6
:101CB0001F910F91FF90EF90BF90AF909F908F90EA
:101CC0000895695CDECFAC0170E060E02AE08FE34C
:101CD00098E00C94170ECF92DF92EF92FF920F9341
:101CE0001F93CF93DF936B01770FEE08FF084A3005
:101CF000510511F52AE0F7FE20C0EC01E881F981D9
:101D00000190F081E02D6DE209958C014427552763
:101D1000BA014C195D096E097F092AE0CE010E94C3
:101D2000170E800F911FDF91CF911F910F91FF90A0
:101D3000EF90DF90CF900895242FB701A601DF9197
:101D4000CF911F910F91FF90EF90DF90CF900C9467
:101D5000170E009729F0BC018FE398E00C94080E51
:101D600090E080E008959FEF980F923078F08430F3
:101D7000B1F08830B9F08031C1F08032C9F08034E0
:101D8000D1F08038D9F488E090E004C0823021F0AE
:101D900081E090E00C944F0982E090E0FBCF83E07B
:101DA00090E0F8CF84E090E0F5CF85E090E0F2CFCE
:101DB00086E090E0EFCF87E090E0ECCF811103C0A8
:101DC0008EE00C94530980919907882341F00E947A
:101DD000AD04882321F085EA91E00C94A90E0895C2
:101DE000DF92EF92FF920F931F93CF93DF938C01BB
:101DF000D62ED42F7C01C0E0CD1579F0CC2331F064
:101E00006DE871E08FE398E00E943D06F701819153
:101E10007F010E94B30ECF5FEFCFDD23A9F0CC236B
:101E200031F06BE871E08FE398E00E943D06C00F4F
:101E3000D12FD11D8881DF91CF911F910F91FF90FC
:101E4000EF90DF900C94B30EDF91CF911F910F9123
:101E5000FF90EF90DF90089589E98093E70885E08F
:101E60008093E80886E08093EA0887E08093E90899
:101E700088E08093EB0889E08093EC088AE0809307
:101E8000ED088CED95E09093EF088093EE0888EED6
:101E900093E09093F3088093F20880ED97E090939D
:101EA000F1088093F00881E08093F4081092F5081F
:101EB0008093F6081092F70883E00E9416050E94AE
:101EC000AD048823B9F084E791E09F938F931F922C
:101ED00084E68F9382E097E09F938F930E94E72A96
:101EE00082E097E00E94A90E0F900F900F900F9044
:101EF0000F900F900C94E70D0E94CE0D8091E70893
:101F0000893949F00E942C0F64EF71E080E090E085
:101F10000E947B04F1CF0E94AD04882321F083EC62
:101F200091E00E94A90E0E94AD04882321F087EC65
:101F300094E00E94A90E0E94AD04882321F086EC53
:101F400091E00E94A90E0E94AD04882321F087EC45
:101F500094E00E94A90E0E94AD04882361F0E091F4
:101F6000F408E150FF0BEE0FFF1FE35CFE4F808192
:101F700091810E94A90E0E94AD04882321F083EC78
:101F800091E00E94A90E8091F508882309F47EC192
:101F90000E94AD04882349F1E091F608E150FF0B5F
:101FA000EE0FFF1FE55DFE4F81818F9380818F9340
:101FB0008091F5081F928F938BE591E09F938F930B
:101FC0001F9284E68F9382E097E09F938F930E9405
:101FD000E72A82E097E00E94A90E8DB79EB70A9685
:101FE0000FB6F8949EBF0FBE8DBF0E94AD0488232C
:101FF00021F1E091F708F0E0EE0FFF1FEF5CFE4FDC
:1020000081818F9380818F938CE391E09F938F9355
:102010001F9284E68F9382E097E09F938F930E94B4
:10202000E72A82E097E00E94A90E8DB79EB7089636
:102030000FB6F8949EBF0FBE8DBF0E94AD048823DB
:10204000E9F08091ED081F928F938CE291E09F93CD
:102050008F931F9284E68F9382E097E09F938F93F4
:102060000E94E72A82E097E00E94A90E8DB79EB7F2
:1020700008960FB6F8949EBF0FBE8DBF8091F508ED
:10208000882309F420C18091F608833009F01BC130
:102090000E94AD04882321F082EE91E00E94A90EF7
:1020A0000E94AD048823E9F08091EA081F928F9383
:1020B0008CE091E09F938F931F9284E68F9382E050
:1020C00097E09F938F930E94E72A82E097E00E9417
:1020D000A90E8DB79EB708960FB6F8949EBF0FBE97
:1020E0008DBF0E94AD048823E9F08091E9081F921A
:1020F0008F938CEF90E09F938F931F9284E68F9342
:1021000082E097E09F938F930E94E72A82E097E016
:102110000E94A90E8DB79EB708960FB6F8949EBF81
:102120000FBE8DBF0E94AD048823E9F08091EB08BB
:102130001F928F938CEE90E09F938F931F9284E673
:102140008F9382E097E09F938F930E94E72A82E02B
:1021500097E00E94A90E8DB79EB708960FB6F89427
:102160009EBF0FBE8DBF0E94AD048823E9F0809111
:10217000EC081F928F938CED90E09F938F931F92AA
:1021800084E68F9382E097E09F938F930E94E72AE3
:1021900082E097E00E94A90E8DB79EB708960FB611
:1021A000F8949EBF0FBE8DBF0E94AD048823F9F046
:1021B0008091F1088F938091F0088F938CEC90E0E0
:1021C0009F938F931F9284E68F9382E097E09F9373
:1021D0008F930E94E72A82E097E00E94A90E8DB7B4
:1021E0009EB708960FB6F8949EBF0FBE8DBF0E9493
:1021F000AD048823F9F08091EF088F938091EE0869
:102200008F938CEB90E09F938F931F9284E68F9334
:1022100082E097E09F938F930E94E72A82E097E005
:102220000E94A90E8DB79EB708960FB6F8949EBF70
:102230000FBE8DBF0E94AD048823F9F08091F30892
:102240008F938091F2088F938CEA90E09F938F9305
:102250001F9284E68F9382E097E09F938F930E9472
:10226000E72A82E097E00E94A90E8DB79EB70896F4
:102270000FB6F8949EBF0FBE8DBF0E94AD04882399
:1022800009F444C083EC91E00C94A90E0E94AD04C3
:10229000882309F4AACE8BE491E09F938F931F9239
:1022A00084E68F9382E097E09F938F930E94E72AC2
:1022B00082E097E00E94A90E0F900F900F900F9070
:1022C0000F900F9092CE0E94AD04882309F4E8CEBF
:1022D0008091E8081F928F938CE191E09F938F93F8
:1022E0001F9284E68F9382E097E09F938F930E94E2
:1022F000E72A82E097E00E94A90E8DB79EB7089664
:102300000FB6F8949EBF0FBE8DBFCACE089563EC82
:1023100071E00C94080E0F931F93CF93DF93EC01A1
:102320000E943D068C01CE010E948711800F911FF3
:10233000DF91CF911F910F9108954F925F926F920D
:102340007F928F929F92AF92BF92CF92DF92EF9245
:10235000FF920F931F93CF93DF937C01D82F0E949E
:10236000BC042B013C018091930690919406009748
:1023700099F064EC71E00E943D0600919306109183
:102380009406A701FF0C660B770B20E1C8010E94A1
:10239000170EC8010E948711C0E095E4892E96E0CF
:1023A000992E0E94BC046419750986099709683E34
:1023B00073408105910548F110924506109246063A
:1023C0008091930690919406009721F069E971E05D
:1023D0000E948B11209145068091460690E0FFEF08
:1023E0002F9F800D911D1124DF91CF911F910F918F
:1023F000FF90EF90DF90CF90BF90AF909F908F9025
:102400007F906F905F904F90089585E090E00E94DC
:1024100057098BE3C82E86E0D82EF60111928E164E
:102420009F06E1F78091A0079091A107DC01ED9153
:10243000FC910084F185E02D09950A970CF46CC09D
:1024400010E000E08091A0079091A107DC01ED91E0
:10245000FC910284F385E02D09957C01019609F435
:102460005BC08091930690919406009711F165E905
:1024700071E00E943D064AE050E0B8018091930669
:10248000909194060E946B0E6FE871E08091930624
:10249000909194060E943D06A0909306B0909406F9
:1024A00040E150E0B701C5010E946B0EC5010E94DA
:1024B0008711F601E1926F010F5F1F4F0A3011057E
:1024C00009F6C0913E06C034E1F4809193069091E4
:1024D0009406009709F465CF6AEA71E00E943D0610
:1024E00000919306109194064091410650E070E0EF
:1024F00060E02AE0C8010E94170EC8010E948711FF
:1025000050CFDC134ECF80914006809345068091DA
:1025100041068093460654CF82E390E00E9457091B
:10252000DC133FCF4DCF1F920F920FB60F921124A5
:102530002F933F938F939F93AF93BF938091830784
:1025400090918407A0918507B0918607309182070A
:1025500023E0230F2D3758F50196A11DB11D2093BF
:1025600082078093830790938407A0938507B09395
:1025700086078091870790918807A0918907B0917D
:102580008A070196A11DB11D809387079093880744
:10259000A0938907B0938A07BF91AF919F918F91C4
:1025A0003F912F910F900FBE0F901F90189526E826
:1025B000230F0296A11DB11DD2CF1F920F920FB60D
:1025C0000F9211242F933F934F935F936F937F93B9
:1025D0008F939F93AF93BF93EF93FF93E0910C0181
:1025E000F0910D010995FF91EF91BF91AF919F91EE
:1025F0008F917F916F915F914F913F912F910F90AC
:102600000FBE0F901F9018951F920F920FB60F924A
:1026100011242F933F934F935F936F937F938F93E7
:102620009F93AF93BF93EF93FF93E0910A01F091D3
:102630000B010995FF91EF91BF91AF919F918F9100
:102640007F916F915F914F913F912F910F900FBEAE
:102650000F901F9018951F920F920FB60F92112492
:102660002F933F934F935F936F937F938F939F939A
:10267000AF93BF93EF93FF93E0910801F0910901AD
:102680000995FF91EF91BF91AF919F918F917F91AC
:102690006F915F914F913F912F910F900FBE0F90CF
:1026A0001F9018951F920F920FB60F9211242F931F
:1026B0003F934F935F936F937F938F939F93AF93CA
:1026C000BF93EF93FF93E0910601F0910701099505
:1026D000FF91EF91BF91AF919F918F917F916F91FA
:1026E0005F914F913F912F910F900FBE0F901F90D0
:1026F00018951F920F920FB60F9211242F933F93AC
:102700004F935F936F937F938F939F93AF93BF93F9
:10271000EF93FF93E0910401F09105010995FF917A
:10272000EF91BF91AF919F918F917F916F915F9149
:102730004F913F912F910F900FBE0F901F901895C2
:102740001F920F920FB60F9211248F939F93809137
:10275000E1009091E100937F9093E10083FF0FC02F
:102760001092E90091E09093EB001092EC0092E35C
:102770009093ED001092980798E09093F00082FFFC
:1027800022C093E09093E9009091F200992319F010
:102790009AE39093E80090918C06992341F09091F0
:1027A0008C06915090938C06911101C05D9A909186
:1027B0009707992341F0909197079150909397072D
:1027C000911101C0289A84FF18C08091E2008E7E8A
:1027D00081608093E2008091E1008F7E8093E10030
:1027E00080918D068E7E806180938D069F918F9162
:1027F0000F900FBE0F901F90189580FFF7CF80911C
:10280000E2008E7E80618093E2008091E1008E7E06
:102810008093E10080918D068E7E8160E5CF1F92CE
:102820000F920FB60F921124CF92DF92EF92FF9288
:102830000F931F932F933F934F935F936F937F93C8
:102840008F939F93AF93BF93EF93FF93CF93DF93B8
:10285000CDB7DEB76C97DEBFCDBF1092E900809197
:10286000E80083FF25C068E0CE0145960E9430064F
:1028700082EF8093E8008D8987FF39C09091E8004E
:1028800090FFFCCF982F907609F034C19E894F8934
:10289000588D2F89F88C911131C0803861F5809165
:1028A0008E068093F1001092F1008EEF8093E80085
:1028B0006C960FB6F894DEBF0FBECDBFDF91CF91FF
:1028C000FF91EF91BF91AF919F918F917F916F9108
:1028D0005F914F913F912F911F910F91FF90EF903A
:1028E000DF90CF900F900FBE0F901F9018959EEF26
:1028F0009093E800C7CF1092F100D5CF913059F4F2
:102900008111D3CF4130510581F680918E068D7FA4
:1029100080938E06CACF933049F48111C6CF4130DF
:10292000510519F680918E068260F2CF953041F400
:102930008091E80080FFFCCF20682093E300B5CFB2
:10294000963009F0A9C00B8D1C8D22E01092E90091
:1029500010928A0610928906F2122EC010928806F2
:10296000109287060E94FF051F8299E09983FA82E0
:1029700091E09E8390EA98879AEF99872091890643
:1029800030918A06275F3F4F3C832B838D831092C3
:10299000E90010928A061092890610938806009327
:1029A000870649E050E0BE016F5F7F4F80E00E94E4
:1029B000D9050E94FF0579CF1093880600938706FA
:1029C0000E946303DC0112960D911C910115110503
:1029D00009F451C1D801ED91FC910480F581E02DFD
:1029E000BE016B5E7F4FC8010995009709F03EC19B
:1029F000F80100851185EACFF3E0FF120EC08F8940
:102A0000882309F440C0823061F440E862E18AE43E
:102A100092E00E94A605811148CF81E28093EB00ED
:102A200047CF813029F440E868E081E492E0F1CFBB
:102A3000833099F70E946303DC011296ED90FC90BD
:102A40008E010F5F1F4F6801E114F10479F0D70187
:102A5000ED91FC910680F781E02DB801C701099541
:102A6000080F111DF701E084F184EECFD8011C920C
:102A7000F60101900020E9F73197BF016C197D093B
:102A800040E0C601C6CF6BE272E0FB01449150E02A
:102A900080E80E94D90509CF973009F4BECF98305D
:102AA00021F481E08093F10000CF993009F0FDCE50
:102AB000837009F0B2CFE5E2F1E081E031E096E326
:102AC0002191222371F08093E9003093EB00DF0124
:102AD00011972C912093EC009093ED008F5F87303D
:102AE00079F78EE78093EA001092EA008F8980934D
:102AF0009807DBCE8B8D9C8D1092E90010928A0690
:102B0000109289069093880680938706898D81119B
:102B100092C08E899D89913A49F4813209F07DCF26
:102B200047E050E06CE171E080E0B3CF913209F012
:102B300074CF833269F48F89988DB0E0A0E08093E0
:102B4000000190930101A0930201B0930301ADCE67
:102B5000803269F48091E80082FFFCCF67E08CE16D
:102B600091E00E9430068BEF8093E8009ECE823287
:102B700009F09BCE8F8980932301EEEFFFE78591CB
:102B800094918B3F9C4D51F1E0E0F8E080911C0165
:102B900090911D01A0911E01B0911F01803B9440B6
:102BA000A105B105F1F48091230180FD1AC0EE3F2B
:102BB0008AE0F80789F587E797E79183808380911A
:102BC000600080938B0688E19BE00FB6F894A8958F
:102BD000809360000FBE9093600067CEEEEFFAE046
:102BE000D5CF808191818737974709F05ECEA89530
:102BF0008091600088618093600080918B06809353
:102C00006000EE3F2AE0F20789F08091FE0A909181
:102C1000FF0A9183808349CE80819181873798070D
:102C200051F29093FF0A8093FE0AC5CF1092FF0ADB
:102C30001092FE0A3ACE0E946303DC0112960D91B7
:102C40001C910115110509F4E8CED801ED91FC9114
:102C50000190F081E02DBE016B5E7F4FC8010995A8
:102C6000811123CEF80100851185EBCF18161906C6
:102C70000CF41BCED2CEF1E0FF12BECE6FE272E0BA
:102C800004CF1F920F920FB60F9211242F933F93F0
:102C90004F935F936F937F938F939F93AF93BF9364
:102CA000EF93FF9382EA97E00E94DF06FF91EF9196
:102CB000BF91AF919F918F917F916F915F914F9154
:102CC0003F912F910F900FBE0F901F9018951F925C
:102CD0000F920FB60F9211242F938F939F93EF9320
:102CE000FF93E091B207F091B3078081E091B807BC
:102CF000F091B90782FD1BC090818091BB078F5F67
:102D00008F732091BC07821741F0E091BB07F0E080
:102D1000EE55F84F958F8093BB07FF91EF919F91F0
:102D20008F912F910F900FBE0F901F90189580815B
:102D3000F4CF1F920F920FB60F9211242F933F934F
:102D40004F935F936F937F938F939F93AF93BF93B3
:102D5000CF93EF93FF9383B190916B00892380937E
:102D6000B6068091B5069091B60689278093B40681
:102D70008091B6068093B506C0E08091B306C8176F
:102D800060F4EC2FF0E0EE0FFF1FE555F94F0190D6
:102D9000F081E02D0995CF5FF0CFFF91EF91CF91BA
:102DA000BF91AF919F918F917F916F915F914F9163
:102DB0003F912F910F900FBE0F901F901895CF92BB
:102DC000DF92EF92FF921092A5071092A40728EECF
:102DD000C22E23E0D22EE12CF12CC092A607D09275
:102DE000A707E092A807F092A90785E591E09093E4
:102DF000A3078093A2078DEC90E09093AF07809398
:102E0000AE078CEC90E09093B1078093B00788EC0C
:102E100090E09093B3078093B20789EC90E0909391
:102E2000B5078093B4078AEC90E09093B70780933E
:102E3000B6078EEC90E09093B9078093B807109294
:102E4000BB071092BC071092BD071092BE071092EC
:102E5000420810924108C0924308D0924408E09280
:102E60004508F092460887E691E0909340088093E9
:102E70003F088FEF9FEF90934C0880934B0889E7B2
:102E800091E09093900880938F081092920810928E
:102E9000910810929508109297081092DA08E8EBC2
:102EA000F8E080E2DF011D928A95E9F78FE991E071
:102EB0009093630980936209209167092B7F209387
:102EC00067099093510980935009209155092B7FF0
:102ED0002093550990933F0980933E09209143091F
:102EE0002B7F2093430990932D0980932C092091E7
:102EF00031092B7F2093310990931B0980931A0984
:102F000080911F098B7F80931F0985E991E0909341
:102F10001909809318090E94BC04609314097093E6
:102F2000150980931609909317091092FB081092C7
:102F3000FA08C092FC08D092FD08E092FE08F092D8
:102F4000FF0883E891E09093F9088093F8081092C5
:102F50000C0910920B0910920E0910920D09109293
:102F6000100910920F091092120910921109809104
:102F700013098E7F8D7F8093130960E08AE00E94A1
:102F80001A048091130981FD04C061E08AE00E9467
:102F9000EC038AE080930409ECE4F5E084918093EB
:102FA0000509EDE2F5E0E491F0E0EE0FFF1FEB5EC6
:102FB000FA4F259134913093070920930609E2E5F1
:102FC000F5E0E491E0930809E81741F061E080E161
:102FD0000E941A0461E080E10E94EC03E3E3F5E063
:102FE000E491F0E0EE0FFF1FE95FFA4F85919491B5
:102FF00090930A098093090967EE78E08AE00E94BD
:103000009F0C0E94BC049091F5088091E4082FE881
:1030100038E03093DD082093DC089F719062909334
:10302000DB081092E3089091E5082091E608207FE4
:1030300029602093E60880719C7792609093E50860
:1030400080628F7E8093E4081092DF081092E0087F
:10305000FF90EF90DF90CF900895CF93DF9300D053
:1030600000D000D0CDB7DEB7789484B5826084BD3F
:1030700084B5816084BD85B5826085BD85B581607C
:1030800085BD80916E00816080936E0010928100FA
:1030900080918100826080938100809181008160B5
:1030A0008093810080918000816080938000809176
:1030B0009100826080939100809191008160809363
:1030C0009100809190008160809390008091C10078
:1030D00084608093C1008091C10082608093C100B0
:1030E0008091C10081608093C1008091C3008160A4
:1030F0008093C3008091C00082608093C000809163
:10310000C20081608093C20080917A0084608093C5
:103110007A0080917A00826080937A0080917A00B0
:10312000816080937A0080917A00806880937A0031
:103130001092980710928E0610928D068091D700FB
:1031400081608093D70080EA8093D80089B5806140
:1031500089BD89B5826089BD09B400FEFDCF61E0FB
:1031600070E080E090E00E947B048091D8008F7C2A
:1031700080618093D8008091E000807F8093E000A0
:103180008091E1008E7E8093E1008DE08093E200EB
:10319000559A209A6DB67EB660E084E00E941A04CB
:1031A00061E085E00E941A0461E085E00E94EC0382
:1031B0000E94CE0D63E5E62E61E0F62E0BE411E0F1
:1031C00062E0D8018D918D010E941A04E016F1068B
:1031D000B9F7109212091092110910921009109269
:1031E0000F0910920E0910920D0910920C091092FD
:1031F0000B0990E080E0FC01E35AFD4F45915591A9
:1032000065917491403855426105710509F05EC1C0
:10321000FC01EF59FD4F2591349130930C09209317
:103220000B09FC01ED59FD4F2591349130930E09A6
:1032300020930D09FC01EB59FD4F259134913093FA
:10324000100920930F09FC01E959FD4F85919491D4
:10325000909312098093110980910F0990911009A0
:10326000892B09F454C08091040928EF280F2430D9
:1032700048F092EF980F943028F096EE980F933024
:1032800008F03FC090916800243048F022EF280FEA
:10329000243028F08A51F0E0E0E0833010F4E8E6D2
:1032A000F0E0916090839091040938EF390F343049
:1032B00050F082EF890F843030F086EE890FF0E015
:1032C000E0E0833010F4EBE6F0E02081343008F0E9
:1032D00003C181E0E92FE450FF0BAF0101C0880F6B
:1032E0004A95EAF7822B343048F022EF290F243038
:1032F00028F09A51F0E0E0E0933010F4EBE6F0E0D3
:10330000808380911109909112090E94E0088091B8
:10331000910690919206885F984091F080911309F0
:103320008E7F809313098FB7F894109290061092B5
:103330008F0628EF38E030939206209391068FBFD6
:103340008FEF9FEF90934C0880934B0868EE73E0EB
:1033500080E090E00E947B0480916807882331F030
:103360008FE398E090939406809393060E94AD04B7
:10337000882321F084EF91E00E94A90E88EF98E065
:103380009093A1078093A00710929606109295063D
:1033900062E070E089E00E94C80470E060E087E0CD
:1033A0000E94C8048091ED0890E00E944B0964EFF0
:1033B00071E080E090E00E947B048091ED0890E055
:1033C0000E944B0964EF71E080E090E00E947B0472
:1033D00083E40E94530983E490E00E949D1180934E
:1033E000000788E40E94530988E490E00E949D1140
:1033F0008FE40E9453098FE490E00E949D118C019C
:1034000082E192E00E94A90E402F50E070E060E05F
:103410002AE08FE398E00E94170E8FE398E00E9465
:1034200087111127C801880F991FADB7BEB7A81B18
:10343000B90B0FB6F894BEBF0FBEADBF1196EDB776
:10344000FEB71282118213961C921E921297359625
:10345000C801039797FF55C07D01D12CC12C0C15D5
:103460001D0509F452C05601FFEFAF1ABF0AB5019E
:103470008EE40E94C8048EE490E00E949D114C01ED
:10348000D7018D939D937D018CE192E00E94A90E5E
:103490004AE050E0B4018FE398E00E946B0E82E2B4
:1034A00092E00E94A90E4AE050E0B6018FE398E056
:1034B0000E946B0E66E372E08FE398E00E94080EB4
:1034C0008FE398E00E9487116501C9CF0C9680397F
:1034D000910509F090CEC0CE88E09E3009F402CF6D
:1034E00082E09F3009F4FECE84E0903109F4FACEF8
:1034F00081E0913109F4F6CE692F6651770BAB016B
:10350000EDCE119211920197A5CF81E08093C5066F
:1035100060E085E00E94EC038FE398E00E94871151
:103520006FE073E08FE398E00E948B116EEF72E022
:103530008FE398E00E948B1166EF72E08FE398E0D2
:103540000E943D064AE050E061E070E08FE398E0C1
:103550000E946B0E64EF72E08FE398E00E943D06DC
:103560004AE050E061E070E08FE398E00E946B0E6B
:103570006DEE72E08FE398E00E948B118FE398E08C
:103580000E94871180910007882309F49CC20E9441
:10359000AD04882321F088E392E00E94A90E0E94E6
:1035A000AD04882321F08FE692E00E94A90E0E94CC
:1035B000AD04882321F08FE892E00E94A90E0E94BA
:1035C0007C0F8091F508882379F08091F60882308D
:1035D00009F481C2833009F480C2813029F488E083
:1035E0008093DF061092E0068091F4088130C9F4E0
:1035F00062E082E699E00E941B0D63E080E599E0BD
:103600000E941B0D69E08EE399E00E941B0D67E0AC
:103610008CE299E00E941B0D68E08AE199E00E942B
:103620001B0D8091F4088230D1F583B190916B002D
:1036300089238093B6068091B6068093B50689B13A
:103640008F708093C2068091C2068093C10666E0A7
:103650007BE082E00E949F0C8093C3068091C306AA
:1036600087FD1DC090E080E02CED35E0FC01EE0F01
:10367000FF1FE756F94F318320830196893091056A
:10368000A9F78AE0809398061092DD061092DE0674
:1036900082E080939706809197060E94350C809176
:1036A000F408833091F44EE260EA76E881E090E03D
:1036B0000E94DD0282EA97E090939208809391083D
:1036C00080919308807F809393088091F4088430E0
:1036D00099F446E060E072EC81E090E00E94DD0247
:1036E00082EA97E0909392088093910880919308E2
:1036F000807F8360809393088091F408853099F4EB
:1037000046E060E072EC81E090E00E94DD0282EA37
:1037100097E0909392088093910880919308807F1E
:103720008260809393088091F408863099F446E093
:1037300068E478EE81E090E00E94DD0282EA97E0A2
:10374000909392088093910880919308807F846081
:10375000809393088091F408873099F446E060E004
:1037600072EC81E090E00E94DD0282EA97E09093A3
:1037700092088093910880919308807F8160809364
:10378000930881E0809367070FB6F8947EBE0FBE62
:103790006DBE90E8692E95E2792E812C912C02E085
:1037A00017E08FE398E00E94580818161906ACF449
:1037B0008FE398E00E9416089091C406883009F4BF
:1037C00093C18D3009F097C1E92FF0E0EA53F94F2A
:1037D00010821092C40697FF9AC1F090F40891E00D
:1037E000F912BCC067E082E699E00E94DB0A8823F8
:1037F00009F45FC5F092810720917F07309180071F
:10380000C901880F991F820F931F20917009309171
:103810007109409170095091710924173507A9F772
:10382000820F931F9695879596958795909380071D
:1038300080937F0767E080E599E00E94DB0A882398
:10384000F1F020917D0730917E07C901880F991F03
:10385000820F931F20915E0930915F0940915E09AC
:1038600050915F0924173507A9F7820F931F96958A
:1038700087959695879590937E0780937D0767E05F
:103880008EE399E00E94DB0A8823F1F020917B0708
:1038900030917C07C901880F991F820F931F2091D7
:1038A0004C0930914D0940914C0950914D09241714
:1038B0003507A9F7820F931F96958795969587955B
:1038C00090937C0780937B0767E08CE299E00E94ED
:1038D000DB0A8823F1F02091790730917A07C9013A
:1038E000880F991F820F931F20913A0930913B094D
:1038F00040913A0950913B0924173507A9F7820FE7
:10390000931F969587959695879590937A078093C0
:10391000790767E08AE199E00E94DB0A8823F1F0E9
:103920002091770730917807C901880F991F820F7E
:10393000931F20912809309129094091280950911D
:10394000290924173507A9F7820F931F96958795A4
:103950009695879590937807809377078091F408E0
:10396000823009F03FC08091DD06882309F4A4C4A9
:103970008091DE0690E0880F892F881F990B892B94
:1039800009F49AC48091DE068F778093DE0681E089
:10399000809381078091E8080E94DE0B9093800756
:1039A00080937F078091E9080E94DE0B90937E0749
:1039B00080937D078091EA080E94DE0B90937C073C
:1039C00080937B078091EB080E94DE0B90937A072F
:1039D000809379078091EC080E94DE0B9093780722
:1039E000809377078091F4088350853010F00C9411
:1039F00090258091910890919208892B09F4E4C454
:103A00000E94BC0480919408681B770B6430710598
:103A100094F00E94BC0460939408809193088F7086
:103A2000823009F45CC408F04AC4882309F44EC407
:103A3000813009F452C497E1C92E26E1D22E35E136
:103A4000B32E44E1A42E8091910890919208DC015C
:103A5000ED91FC910084F185E02D09951816190669
:103A60000CF0B2C40E94BC04609394088091910849
:103A700090919208DC01ED91FC910284F385E02D98
:103A80000995F82EE0919508E150E731E0F6F0E075
:103A9000E45BF24E0C94512E762182219121F42286
:103AA0000C232D23732381239C23B223D5231A2493
:103AB00027243A245B2493249E24AE24BD24CB24C3
:103AC000DB24F42418250E94AD04882309F467CD73
:103AD00083E592E062CD80E183CD88E08093DF06CC
:103AE00081E08093E00680CD992309F476CE915051
:103AF0009093C40672CE963138F4E92FF0E0EA5381
:103B0000F94F80839F5FF4CF1092C40666CE8091F8
:103B1000C6068D3409F4DBC13CF58D3209F422C3AD
:103B20006CF4882309F456C18B3209F40AC36DE79B
:103B300073E086EC96E00E94D82ABEC1853409F471
:103B4000DDC2883409F446C1813489F70E94AD048E
:103B5000882321F08FE095E00E94A90E80916707ED
:103B600090E00E944F09A6C1853509F429C30CF0E5
:103B7000F2C0823509F47DC3833509F4C1C18035B3
:103B8000B1F68091C7068F3391F68091C5068823E0
:103B900009F4D0C20E94AD04882321F083EC91E0A7
:103BA0000E94A90E0E94AD04882321F085EC94E0C8
:103BB0000E94A90E0E94AD04882321F083EE94E0B8
:103BC0000E94A90E0E94AD04882321F085EC94E0A8
:103BD0000E94A90E82E40E9453090E94AD0488232A
:103BE000F1F082E490E00E949D119F938F938AE60A
:103BF00093E09F938F931F9284E68F931F930F936D
:103C00000E94E72A82E097E00E94A90E6DB77EB776
:103C1000685F7F4F0FB6F8947EBF0FBE6DBF83E421
:103C20000E9453090E94AD048823E9F083E490E0E8
:103C30000E949D119F938F9387E593E09F938F93AD
:103C40001F9284E68F931F930F930E94E72A82E0CE
:103C500097E00E94A90E8DB79EB708960FB6F8940C
:103C60009EBF0FBE8DBF84E40E94530984E490E0A0
:103C70000E949D110E94AD04882311F1E091F70884
:103C8000F0E0EE0FFF1FEF5CFE4F81818F9380818C
:103C90008F9386E493E09F938F931F9284E68F9394
:103CA0001F930F930E94E72A82E097E00E94A90EDB
:103CB000ADB7BEB718960FB6F894BEBF0FBEADBF76
:103CC00088E40E9453090E94AD048823E9F088E447
:103CD00090E00E949D119F938F9384E393E09F93C4
:103CE0008F931F9284E68F931F930F930E94E72A6E
:103CF00082E097E00E94A90EEDB7FEB738960FB6A6
:103D0000F894FEBF0FBEEDBF8CE40E9453090E94E1
:103D1000AD04882309F4CEC08CE490E00E949D118C
:103D20009F938F9380E293E09F938F931F9284E6FB
:103D30008F931F930F930E94E72A82E097E00E94DF
:103D4000A90E2DB73EB7285F3F4F0FB6F8943EBF80
:103D50000FBE2DBFAFC0883509F413C2893509F4F1
:103D600041C2863509F0E3CE8091C7068D3309F054
:103D7000DECE88EC96E00E94BA2A7C018FEF8E0D91
:103D80008E3108F099C00E94AD046701DD248823BC
:103D9000C9F0DF92CF9283E094E09F938F931F92BC
:103DA00084E68F931F930F930E94E72A82E097E0A7
:103DB0000E94A90EEDB7FEB738960FB6F894FEBF75
:103DC0000FBEEDBFE092ED08C6010E944B090E94B4
:103DD000E70D70C00E94AD04882321F081EB92E0D2
:103DE0000E94A90E0E94AD04882321F08CEB92E082
:103DF0000E94A90E0E94AD04882321F089ED92E073
:103E00000E94A90E0E94AD04882321F08CEE92E05E
:103E10000E94A90E0E94AD04882321F08CE293E059
:103E20000E94A90E0E94AD04882321F084E893E04B
:103E30000E94A90E0E94AD04882321F083EA93E03A
:103E40000E94A90E0E94AD04882321F086EC93E025
:103E50000E94A90E0E94AD04882321F080EE93E019
:103E60000E94A90E0E94AD04882321F089EF93E0FF
:103E70000E94A90E0E94AD04882321F089E094E0FD
:103E80000E94A90E0E94AD04882321F08FE194E0E6
:103E90000E94A90E0E94AD04882321F08BE694E0D5
:103EA0000E94A90E0E94AD04882321F083EC91E0CA
:103EB0000E94A90E1092C70666EC76E08FE398E0A8
:103EC0000E94080E8FE398E00E94871186CC8091B3
:103ED000750791E0892780937507882339F00E9440
:103EE000AD04882339F382E994E0E2CF0E94AD0467
:103EF000882309F46CCF8CEA94E00E94A90E67CF66
:103F00008091C7068D3309F0F3C08091C8068735CC
:103F100019F40E942C0F5BCF893481F58AEC96E06E
:103F20000E94BA2A8093F4080E94AD04882309F401
:103F30004ECFE091F408E150FF0BEE0FFF1FE35C62
:103F4000FE4F81818F9380818F9380EF93E09F93C9
:103F50008F931F9284E68F931F930F930E94E72AFB
:103F600082E097E00E94A90E2DB73EB7285F3F4F31
:103F70000FB6F8943EBF0FBE2DBF29CF813369F530
:103F80008091C906803209F022CF8AEC96E00E9427
:103F9000BA2A8093E8080E94AD04882309F417CF59
:103FA0008091E8081F928F9384EE93E09F938F9304
:103FB0001F9284E68F931F930F930E94E72A82E05B
:103FC00097E00E94A90E6DB77EB7685F7F4F0FB66E
:103FD000F8947EBF0FBE6DBFFACE823361F580913B
:103FE000C906803209F0F3CE8AEC96E00E94BA2A24
:103FF0008093EA080E94AD04882309F4E8CE8091FA
:10400000EA081F928F9387ED93E09F938F931F92FF
:1040100084E68F931F930F930E94E72A82E097E034
:104020000E94A90E8DB79EB708960FB6F8949EBF52
:104030000FBE8DBFCCCE833361F58091C90680322F
:1040400009F0C5CE8AEC96E00E94BA2A8093E9086E
:104050000E94AD04882309F4BACE8091E9081F922A
:104060008F938AEC93E09F938F931F9284E68F93B4
:104070001F930F930E94E72A82E097E00E94A90E07
:10408000ADB7BEB718960FB6F894BEBF0FBEADBFA2
:104090009ECE843309F09BCE8091C906803209F010
:1040A00096CE8AEC96E00E94BA2A8093EB080E9492
:1040B000AD04882309F48BCE8091EB081F928F9377
:1040C00088EB93E09F938F931F9284E68F931F93C7
:1040D0000F930E94E72A82E097E00E94A90EEDB7B5
:1040E000FEB738960FB6F894FEBF0FBEEDBF6FCE89
:1040F0008F3309F01CCD0E947C0FDCCE88EC96E05B
:104100000E94BA2A863008F012CD8093F7080E94E8
:10411000AD04882309F45BCEE091F708F0E0EE0FE0
:10412000FF1FEF5CFE4F81818F9380818F938AEA1E
:1041300093E00DCF67E973E08FE398E00E943D06BE
:10414000B9CE0E94AD04882321F081E095E00E9461
:10415000A90E809167078F5F8093670781E00E94B7
:104160005309A8CE0E94AD04882321F088E095E091
:104170000E94A90E8091670781508093670782E0B3
:10418000EECF8091FF0681110BC08EE00E94530993
:104190000E94AD04882321F086E195E00E94A90EDB
:1041A0008091FF06813009F085CE8DE00E94530991
:1041B0000E94AD04882309F47DCE8EE195E078CE8F
:1041C0008091F508882339F08091990791E089273B
:1041D000809399076FCE8091680791E0892780933B
:1041E000680768CE8091C7068D3309F0A0CC88ECB3
:1041F00096E00E94BA2A7C019091C9069032E1F0C3
:10420000E092F50881110DC00E94AD04882321F0D1
:1042100085E295E00E94A90E8091F508882309F4B3
:10422000D6CD0E94AD04882309F4D1CDFF24FF929E
:10423000EF9281E893E0BACE8823C1F0E092F508CE
:104240008AEC96E00E94BA2A8093F6080E94AD0498
:10425000882309F4BCCDE091F608E150FF0BEE0F86
:10426000FF1FE55DFE4F8081918147CE1092F608D9
:10427000AECD0E94AD04882321F083E395E00E9437
:10428000A90EF12CE12C60E0C7010E949D2D7FEF6B
:10429000E71AF70AE11484E0F806A9F782E00E9421
:1042A00016050E94AD04882309F404CE8FE395E03F
:1042B000FFCD10928107BECA1092810793CB833045
:1042C00081F0843009F0B7CB80E104C080E18093B5
:1042D000970881E080939508AECB84E0FBCF87E020
:1042E000F9CF8EE0809397088CE0F4CFBFE08B137A
:1042F00006C0D092960882E080939508A4CB1092D5
:104300009508A1CB80919608E82FF0E0E157F74F90
:10431000F1868150809396088F3F09F094CB83E01B
:10432000EBCF81115FC1809196088F3F09F05AC190
:1043300020E0D12C30E040EB56E1ED2DF0E061E0E3
:1043400070E080E090E0022E04C0660F771F881FA7
:10435000991F0A94D2F76B837C838D839E83EE0F23
:10436000FF1FE157F74FA1A4B2A4E52EF12CC7011E
:104370008157974FDC011996EC90F12C032E02C067
:10438000F594E7940A94E2F7CB018A299B29E0FC93
:1043900006C08B819C81809590958A219B2192A754
:1043A00081A73F5F2F5F383011F4515030E02B3040
:1043B00011F4D39420E0415009F0BFCF8FEF8093E8
:1043C000DA0881E0809395088091F508882309F444
:1043D000E0C78091F50681110DC00E94BC04609376
:1043E000F1067093F2068093F3069093F40681E051
:1043F0008093F5068091E906811105C00E94BC04F6
:1044000081E08093E9068091DC089091DD080097B7
:1044100009F44DC36091DB08629566956770DC0115
:10442000ED91FC910190F081E02D0995882309F42C
:104430003EC38091DC089091DD086091DB086F71CC
:10444000DC01ED91FC910280F381E02D0995AC0136
:104450009093E2088093E1088091E4088061809362
:10446000E4082CE034E090E0F9016591749146177E
:10447000570708F416C3F9013296659174916417D1
:10448000750708F40EC33091E508432F441F4427F5
:10449000441F8091E608282F2F70220F242B291308
:1044A00091C58091E608282F22952F702F5F2770E5
:1044B000322F3295307F8F78832B8093E6083091AE
:1044C000E408432F437050E04F5F5F4F24171506F9
:1044D00009F0EDC28091E508903109F07FC5329571
:1044E00036953770982F9370990F990F990F932BDA
:1044F000990F990F8378892B8093E5089091E508AF
:10450000292F269526952F71322F3295330F307E25
:104510008091E4088F71832B322F3695369536952E
:104520009C7F932B9093E5089C77943409F05EC5AB
:10453000877F8093E4088091E0089091E40892FFDF
:104540008DC5863008F088C5E82FF0E0ED51F94FB1
:104550009091DF08908380681092E0089091E408C1
:104560009B7F9093E408882309F4A1C26091990786
:10457000662329F09091E1069F5F9093E106982FC2
:104580009F77D92EDD0C87FDD394892F90E0FC0115
:10459000EE51F94F2081ED2DE170CE2ED0FE12C0EC
:1045A000FC01ED51F94F4081042E000C550BF4E055
:1045B00055954795FA95E1F74F70F0E12F0290017C
:1045C0001124242B30E070E00197472F50E048176A
:1045D00059070CF04CC54D51594FDA014C91342715
:1045E0007F5FF3CF81E088CE8FE58F0D823008F0BA
:1045F00086CEB1EA8CE0FB1280E18093970810929E
:1046000096086F2D90E080E00E9482099093D9086F
:104610008093D80885E070CEE0919608EE24E3946C
:10462000EE0EE0929608F0E0E157F74F8187682F91
:104630008091D8089091D9080E9482099093D90856
:104640008093D8088091970890E0880F991FE8160A
:1046500019060CF4F8C986E04FCEE0909608E39472
:10466000E0929608682F8091D8089091D9080E940E
:1046700082099093D9088093D808F09097082F2D3D
:1046800030E02F5F3F4F220F331FE21613060CF46A
:10469000DAC9892B09F033CEF8E9CF2EF8E0DF2E06
:1046A000E12CFE14E1F0F601219131916F013227E6
:1046B00023273227A8E7B5E00E942E2E2FEF3FE0F8
:1046C00040E050E00E94AB2D205E3C4F4F4F5F4FCB
:1046D000D6015F963C932E935E97E394E2CF8FEFE3
:1046E0008093DA0871CEB8EA8B1309CE68EA90E0BD
:1046F00080E00E9482099093D9088093D80888E0CE
:10470000FBCD8F77813009F0FACD6F2D8091D808DD
:104710009091D9080E9482099093D9088093D80873
:1047200091E0E1E8FE1290E08091930890FB84F91B
:104730008093930889E0E0CD8EEF8F0D8F3008F0E5
:10474000DECD6F2D8091D8089091D9080E94820902
:104750009093D9088093D808F09297081092960801
:104760008AE0CACDE0919608EE24E394EE0EE09242
:104770009608F0E0E157F74F8187682F8091D808BD
:104780009091D9080E9482099093D9088093D80803
:104790008091970890E0880F991FFBE0E8161906B2
:1047A0000CF451C9F09395084EC9E0909608E39433
:1047B000E0929608682F8091D8089091D9080E94BD
:1047C00082099093D9088093D808F09097082F2DEC
:1047D00030E02F5F3F4F220F331FE21613060CF419
:1047E00032C9892B09F08BCD68E9C62E68E0D62E38
:1047F000E12CFE1409F473CFD6012D913D916D018A
:1048000032272327322750E040E020523C41410923
:104810005109A0EBB4E00E94CA2DA40193010E94AB
:10482000AB2D2C573C4F4F4F5F4FF601378F268FE4
:10483000E394DFCFF0E28F1306C92FED3FEF309303
:10484000D9082093D8083DE030939508FCC850E47F
:10485000851355CD8091D8089091D908805491093D
:104860009093D9088093D808109296086EE06093D0
:104870009508E9C8E091960821E02E0F209396084C
:10488000F0E0E157F74F81878091D8089091D908DF
:104890008F1991099093D9088093D808809197082F
:1048A00090E0880F991F281719060CF4CCC87FE0F8
:1048B00070939508C8C820919608E22FF0E0E15760
:1048C000F74F81872F5F2093960830919708832FA9
:1048D00090E00196880F991F281719060CF4B3C8A9
:1048E0008157974FDC0117968C913F2C212C820D1C
:1048F000932D911D4091D8085091D9084817590718
:1049000009F0FDCCE8E9F8E080E0381731F041919A
:104910005191578F468F8F5FF8CF8FEF8093DA08D2
:104920001092950851CDBEE38B13E9CCEDEFF8ED75
:10493000F093D908E093D808F1E134CF23E0821353
:10494000DECC63E08091D8089091D9080E945C0584
:104950009093D9088093D80832E176CF682F809160
:10496000D8089091D9080E945C059093D90880934B
:10497000D80853E15093950866C8682F8091D808ED
:104980009091D9080E945C059093D9088093D8082B
:10499000A092950858C861E38613B1CC8091D808DD
:1049A0009091D9080E945C059093D9088093D8080B
:1049B000B092950848C888EF8F0D893108F09FCCD8
:1049C0008F2D869580939708109296086F2D809171
:1049D000D8089091D9080E945C059093D9088093DB
:1049E000D808D09295082FC8E0919608EE24E39459
:1049F000EE0EE0929608F0E0E157F74F8187682FBE
:104A00008091D8089091D9080E945C059093D908AC
:104A10008093D8088091970890E0880F991FE81636
:104A2000190614F40C94231DC09295080C94231DB0
:104A300020919608E22FF0E0E157F74F81872F5F32
:104A40002093960830919708832F90E00196880F65
:104A5000991F2817190614F40C94231D8157974F9A
:104A6000DC0117968C915F2C412C840D952D911DA6
:104A70004091D8085091D9084817590709F03FCC00
:104A8000E8E9F8E080E0381709F447CF4191519107
:104A9000A3E056954795AA95E1F7578F468F8F5F0C
:104AA000F2CF9F5F2C5F3F4F923109F0DDCC8091B8
:104AB0009907882339F10E94BC04C090F106D09078
:104AC000F206E090F306F090F4066C197D098E0969
:104AD0009F09613D774081059105A0F00E94BC04CB
:104AE0006093F1067093F2068093F3069093F406B8
:104AF00064E574E08FE398E00E948B111092E40665
:104B00001092E3068091F608833050F46091E80833
:104B10008FE898E00E94AD099093800780937F070B
:104B20008091F50881112FC08091810781117FC488
:104B30000E94BC04C0901409D0901509E090160999
:104B4000F09017096C197D098E099F096A3F71055C
:104B500081059105A0F0F09011016F2D85E00E9474
:104B6000EC0381E0F826F09211010E94BC046093EE
:104B70001409709315098093160990931709809171
:104B8000F508882339F10E94BC04C0901409D09024
:104B90001509E0901609F09017096C197D098E0926
:104BA0009F096A3F710581059105A0F0F090110100
:104BB0006F2D85E00E94EC0381E0F826F092110150
:104BC0000E94BC0460931409709315098093160920
:104BD0009093170980917507882309F44BC0809141
:104BE0007F0790918007009709F438C48C3DB5E0A9
:104BF0009B0708F021C42091F2083091F308821736
:104C0000930720F49093F3088093F2082091F00822
:104C10003091F1084091F2085091F308240F351FAC
:104C2000369527953093EF082093EE080E94630E87
:104C30008EEC95E00E94A90E8091F2089091F30805
:104C40000E94630E8EEC95E00E94A90E8091EE0802
:104C50009091EF080E94630E8EEC95E00E94A90EE1
:104C60008091F0089091F1080E94630E8FE398E024
:104C70000E94871180916D0781110DC00E94BC04B4
:104C80006093690770936A0780936B0790936C0732
:104C900081E080936D070E94BC04C0906907D090AA
:104CA0006A07E0906B07F0906C076C197D098E091C
:104CB0009F09653F71408105910508F473C10E9409
:104CC000BC046093690770936A0780936B079093A5
:104CD0006C0780916807882309F47AC00E94AD04AC
:104CE000882331F080917F07909180070E94630EA6
:104CF0000E94AD04882321F08EEC95E00E94A90E5D
:104D00000E94AD04882331F080917D0790917E0749
:104D10000E94630E0E94AD04882321F08EEC95E082
:104D20000E94A90E0E94AD04882331F080917B0778
:104D300090917C070E94630E0E94AD04882321F0AD
:104D40008EEC95E00E94A90E0E94AD04882331F0FC
:104D50008091790790917A070E94630E0E94AD04BA
:104D6000882321F08EEC95E00E94A90E0E94AD04EC
:104D7000882331F080917707909178070E94630E25
:104D80000E94AD04882321F08EEC95E00E94A90ECC
:104D90000E94AD048823E1F0809167071F928F93F2
:104DA00089EC94E09F938F931F9284E68F931F93D7
:104DB0000F930E94E72A82E097E00E94A90E2DB788
:104DC0003EB7285F3F4F0FB6F8943EBF0FBE2DBFD2
:104DD00020917F0730918007B090000721153105A1
:104DE00009F441C3C090F208D090F308F12CE12CF3
:104DF00050E040E02C193D094E095F09ADE1B0E0FB
:104E00000E94CA2D2091F0083091F10850E040E056
:104E10002C193D094E095F090E94AB2D2F5F3F4FB2
:104E20004F4F5F4F2093010780910107B81619F08B
:104E300090E00E944B09809101078093000784E075
:104E40000E94C3038093FF0620917B0730917C076B
:104E50002115310581F18091EE089091EF08885C71
:104E600091092817390708F001C3109210018091A9
:104E70001001813009F0FEC28093FE0680917B070D
:104E800090917C07892BB9F08091EE089091EF0802
:104E900088539F4F20917D0730917E07821793079B
:104EA00008F0FAC210920F0180910F01813009F0D1
:104EB000F7C28093FD06209177073091780721157E
:104EC000310599F08091EE089091EF0888539F4F3B
:104ED0008217930708F0F6C210920E0180910E011E
:104EE000813009F0F3C28093FD062091790730915B
:104EF0007A0721153105F1F08091EE089091EF08C5
:104F0000885C91092817390718F48EE00E9453092C
:104F10008091EE089091EF0888539F4F2091790778
:104F200030917A078217930728F48091670790E001
:104F30000E944F098BE4C82E81E0D82EEE24E39422
:104F4000F12C24E6B22ED6018D916D010E94C3038F
:104F5000892B09F5B70182E10E94C8040E94AD04C3
:104F60008823C9F0FF92EF92E3EBF4E0FF93EF9315
:104F70001F92BF921F930F930E94E72A82E097E04F
:104F80000E94A90E6DB77EB7685F7F4F0FB6F89489
:104F90007EBF0FBE6DBF7FEFE71AF70A87E0E81606
:104FA000F10489F680E090E0892B11F40C94D11B78
:104FB0000E94CB06882311F40C94CF1B0E940000A2
:104FC0000C94CF1B90FB37F93093E508292F2695D9
:104FD0002F708078822B8093E60863CA9F71990FA7
:104FE000990F8378982B9093E50888CA83FD27C092
:104FF000B0E12B9F900111242093DF0884608093FF
:10500000E40880E02091E408922F977F23FF9860C6
:105010009093E408813009F48ECA823009F047CDBC
:10502000E091E008E63000F581E08E0F8093E00823
:10503000F0E0ED51F94F8091DF08808338CD9091F9
:10504000DF08292B2093DF088B7F8093E40881E021
:105050008093E30882E0D6CF80E07ECA882309F4FB
:1050600026CD1092E00882CA1092E00820CDCC2014
:1050700031F04D51594FFA018081807F382785E505
:105080003827321377C1662341F00E94AD0488238C
:1050900021F083EC91E00E94A90EED2CF12C4091BF
:1050A00099078091E006282F30E0220F331F80916E
:1050B000DF0686958695820F932F911D0296E8163E
:1050C000F90609F0EBC0442351F00E94BC04609340
:1050D000F1067093F2068093F3069093F4066D2D1B
:1050E000669561504C2D83EE96E00E94F00E809103
:1050F000E006813021F50E94AD048823E1F0809123
:10510000E3061F928F9389EA94E09F938F931F92F7
:1051100084E68F931F930F930E94E72A82E097E023
:105120000E94A90E2DB73EB7285F3F4F0FB6F894E7
:105130003EBF0FBE2DBF8091E3068093ED086091C6
:10514000DF06662329F12091E00681E090E021113D
:1051500002C090E080E08D51994FDC018C9160316C
:1051600008F086C090E0643031F482958F70B0E131
:105170008B9FC00111249A83898341E0643009F038
:1051800040E0669566956695CE0101960E94F00E08
:1051900080919907882351F00E94AD04882321F063
:1051A00083EC91E00E94A90E0E94BC048091E1066C
:1051B000843608F47CCC80919907882309F4A2CC2A
:1051C0000E94AD04882321F083EC91E00E94A90E97
:1051D0000E94AD04882321F082EB95E00E94A90E85
:1051E0000E94AD04882321F083EC91E00E94A90E77
:1051F0000E94AD048823F9F08091E1069091E206C7
:10520000891B990B9F938F9383E794E09F938F93D0
:105210001F9284E68F931F930F930E94E72A82E0E8
:1052200097E00E94A90E8DB79EB708960FB6F89426
:105230009EBF0FBE8DBF0E94AD04882321F089EC74
:1052400095E00E94A90E0E94AD04882321F082EB14
:1052500095E00E94A90E0E94AD04882321F083EC02
:1052600091E00E94A90E1092E1061092E2061FCC76
:1052700090E0982F8827222371F022E030E02D5112
:10528000394FF9012081822B603109F074CF9827C2
:105290008927982770CF21E030E0F1CF442309F42B
:1052A00085CF8091E2068F5F8093E2060E94AD0475
:1052B000882321F085E595E00E94A90E0E94AD04A7
:1052C000882341F18091E006282F30E0220F331F20
:1052D0008091DF0686958695820F932F911D029609
:1052E0009F938F9388E994E09F938F931F9284E616
:1052F0008F931F930F930E94E72A82E097E00E940A
:10530000A90E2DB73EB7285F3F4F0FB6F8943EBFAA
:105310000FBE2DBF0E94AD048823D1F0FF92EF9203
:1053200086E894E09F938F931F9284E68F931F9358
:105330000F930E94E72A82E097E00E94A90E6DB7C2
:105340007EB7685F7F4F0FB6F8947EBF0FBE6DBF0C
:105350000E94AD04882321F089E695E00E94A90E01
:105360000E94AD04882309F421CF83EC91E00E94D0
:10537000A90E1CCF662309F419CF8091E2068F5F36
:105380008093E2060E94AD04882351F382E995E000
:10539000E5CF8091DA08282F30E0220F232F221F3B
:1053A000330B232B09F4A1C08F778093DA0881E0B7
:1053B00080938107809176078F5F8436A8F580936C
:1053C00076076091E8088FE898E00E94AD09909315
:1053D000800780937F076091EA088FE898E00E9439
:1053E000AD0990937C0780937B076091E9088FE873
:1053F00098E00E94AD0990937E0780937D076091AD
:10540000EB088FE898E00E94AD0990937A078093AB
:1054100079076091EC088FE898E00E94AD099093BD
:105420007807809377077CCB10927607CACF61E02C
:1054300085E00E94EC03A3CB8C3DE5E09E0709F4D8
:10544000E5CB2091F0083091F1082817390708F0D2
:10545000DDCB9093F1088093F008D8CB80ED95E0F8
:105460000E94A90E07CCB0920107DECC81E08093A8
:105470001001FDCC811108CD8091FE06882309F42E
:1054800003CD8091670781508093670790E00E9469
:105490004F091092FE06F2CC81E080930F0104CDFB
:1054A000811109CD8091FD06882309F404CD8091F6
:1054B00067078F5F8093670790E00E944F09109203
:1054C000FD06F9CC81E080930E0108CD81110DCD50
:1054D0008091FD06882309F408CD8091670790E04C
:1054E0000E944F091092FD0600CD1092810718CB43
:1054F00083E891E09093F9088093F80820910409DB
:1055000048EF420F443040F082EF820F843020F0A9
:1055100086EE820F833068F530916B00822F8450C5
:10552000990B443078F087EF2E30A1F08DEF2F30BB
:1055300089F08BEF203171F08EEF213159F0822FFD
:105540008651990BBC0181E090E001C0880F6A95FB
:10555000EAF780958323443048F092EF920F94301D
:1055600028F02A51F0E0E0E0233010F4EBE6F0E020
:1055700080830895FC0188279927E894219120329F
:10558000E9F3293010F02E30C8F32B3241F02D32E0
:1055900039F4689404C00E94DF2A820F911D219182
:1055A00020532A30C0F31EF4909581959F4F0895A3
:1055B000FB01DC0105900D920020E1F708957AE0EF
:1055C000979F902D879F802D910D11240895AEE017
:1055D000B0E0EDEEFAE20C94E32D0D891E898F897F
:1055E000988D2EE02C831A83098397FF02C080E0F8
:1055F00090E801979E838D83AE01455E5F4F698D74
:105600007A8DCE0101960E94172B4D815E8157FD48
:105610000AC02F813885421753070CF49A01020FF4
:10562000131FF80110822E96E4E00C94FF2DABE0DE
:10563000B0E0EDE1FBE20C94D52D7C013B018A0149
:10564000FC0117821682838181FFC8C1CE010196B9
:105650005C01F7019381F30193FD859193FF8191A3
:105660003F01882309F453C1853239F493FD8591B4
:1056700093FF81913F01853229F4B70190E00E94A8
:10568000072DE7CF912C212C312CFFE1F31538F0B9
:105690008B3211F190F4803209F1833229F137FC19
:1056A0003CC020ED280F2A3050F536FE20C08AE09D
:1056B000989E200D1124922E06C08D3291F08033D9
:1056C00071F7689430F8F30193FD859193FF819110
:1056D0003F018111DACF21C0689431F8689432F823
:1056E000F2CF689433F8EFCF689434F8ECCFEAE067
:1056F0002E9E200D1124222E689435F8E4CF8E3290
:1057000029F436FC04C1689436F8DDCF8C3619F4E0
:10571000689437F8D8CF8836B1F2982F9F7D95548A
:105720009330E0F08336A1F18337C1F1833509F07E
:1057300063C02801F2E04F0E511CF801C080D180F7
:10574000692D70E036FC02C06FEF7FEFC6010E944A
:10575000F12C4C01689437F882010AC00C5F1F4F8E
:10576000FFE3F98388248394912C6501E89437F84A
:1057700033FE2DC0522C8114910471F5552009F48B
:1057800068CFB70180E290E00E94072D5A94F6CFCF
:10579000F801808189830E5F1F4FE4CF2801F2E07A
:1057A0004F0E511CF801C080D180692D70E036FC8D
:1057B00002C06FEF7FEFC6010E94FC2C4C018201FA
:1057C000D5CFB70180E290E00E94072D2A942814DB
:1057D000190409F0B0F7CECFF60137FC859137FEFA
:1057E00081916F01B70190E00E94072D51105A94EA
:1057F000F1E08F1A9108BFCF843619F0893609F08D
:1058000077C0F80137FE6BC060817181828193811E
:105810000C5F1F4FF32DFF763F2E97FF09C0909529
:105820008095709561957F4F8F4F9F4F689437F8A3
:105830002AE030E0A5010E94372DC82ECA188C2C12
:10584000432C36FE0CC0E89440F8C91440F434FEF2
:1058500005C032FC03C0F32DFE7E4F2E892C44FE82
:1058600095C0FE01EC0DF11D8081803309F087C0E9
:10587000242D297E422E842D8870582E43FC95C0FD
:1058800040FE8FC09C2C821418F42C0C922C98187B
:1058900044FE91C0B70180E390E00E94072D42FED4
:1058A00009C088E790E041FE02C088E590E0B701BA
:1058B0000E94072DC91408F48AC0CA94D12C9FEF06
:1058C000C91AD90ACA0CDB1CF60182916F01B70113
:1058D00090E00E94072DAC14BD04B1F74FCF60815A
:1058E0007181072E000C880B990B0E5F1F4F92CF12
:1058F000D32CE894D4F82AE030E0853739F1232D11
:10590000297FD22E8F3601F148F48835A9F0F701AE
:10591000868197812B96E2E10C94F12D803749F036
:105920008837A9F7D4FE02C06894D2F820E130E0AD
:105930000DC06894D4F8F6CF34FE03C0822F866081
:10594000D82E20E132E002C028E030E0F801D7FE96
:105950000FC060817181828193810C5F1F4FA5010F
:105960000E94372DC82ECA183D2CE89437F867CF0F
:105970006081718190E080E00E5F1F4FF0CF42FCAC
:1059800002C0839478CF8394839475CF842D8678D6
:1059900009F471CFF6CFB70180E290E00E94072DA5
:1059A00083948214C0F3512C73CF522C5818821454
:1059B00008F46ECFF8CF842D867809F47BCF8BE284
:1059C00041FE80E247FC8DE2B70190E071CFB70164
:1059D00080E390E00E94072D9A946CCF8FEF9FEFA9
:1059E00099CFFC010590615070400110D8F7809567
:1059F00090958E0F9F1F0895FC016150704001909B
:105A00000110D8F7809590958E0F9F1F08950F93E2
:105A10001F93CF93DF93182F092FEB018B8181FD0B
:105A200009C01FEF0FEF812F902FDF91CF911F91B2
:105A30000F91089582FF14C02E813F818C819D813A
:105A4000281739073CF4E881F981CF010196998341
:105A5000888310838E819F8101969F838E83E3CFFD
:105A6000E885F985812F0995892BA1F3DACFFA0111
:105A7000AA27283051F1203181F1E8946F936E7F8D
:105A80006E5F7F4F8F4F9F4FAF4FB1E03ED0B4E07E
:105A90003CD0670F781F891F9A1FA11D680F791FBF
:105AA0008A1F911DA11D6A0F711D811D911DA11DD0
:105AB00020D009F468943F912AE0269F11243019E0
:105AC000305D3193DEF6CF010895462F4770405D7B
:105AD0004193B3E00FD0C9F7F6CF462F4F70405D2A
