:100000000C9405030C9448190C9421190C94FA18BB
:100010000C94D3180C942D030C942D030C94AC1851
:100020000C942D030C94681C0C946F190C94DE191D
:100030000C942D030C942D030C942D030C942D0380
:100040000C942D030C942D030C942D030C942D0370
:100050000C942D030C942D030C942D030C94621816
:100060000C942D030C94361C0C94101C0C942D0332
:100070000C942D030C942D030C942D030C942D0340
:100080000C942D030C942D030C942D030C942D0330
:100090000C942D030C942D030C942D030C942D0320
:1000A0000C942D030C942D030C942D034D696E6953
:1000B00043683A2020202025640D0A0043656E74B1
:1000C000657243683A202025640D0A004D61786905
:1000D00043683A2020202025640D0A00506C617985
:1000E0002053616D653A2025640D0A00506C6179DA
:1000F0002053746F703A2025640D0A004E657874A1
:100100003A20202020202025640D0A0050726576B8
:100110003A20202020202025640D0A00566F6C43D1
:10012000683A202020202025640D0A00566F6C3A82
:100130002020202020202025640D0A004551204D3C
:100140006F64653A202025730D0A0058616E79208E
:100150006973204F464620210D0A0058616E7920B0
:10016000757365204368616E6E656C202564207C24
:100170002025730044656661756C74732056616C4C
:1001800075652053617665640D0A00E4031C041C48
:1001900004540454048C048C04C404C404FC04FCFF
:1001A00004340534056C056C05A405A405DC05DCE8
:1001B00005140614064C064C0684068406BC06BCD0
:1001C00006F406F4062C072C07640764079C079CBA
:1001D00007D407582D416E79204661696C736166BA
:1001E0006521202D3E204F757470757473203D205D
:1001F00030002058616E79207175616C69747920C6
:100200003D20256400202852784E6962626C654C5E
:10021000656E203D256400204578704E6962626CF1
:10022000654C656E3D25640009566F6C756D653AC9
:1002300025642020427573793A25642020536F7518
:100240006E643A25640D0A005377697463685B2510
:10025000642E2E315D3D0050726F703D202564206C
:1002600000C2B0292000202800416E676C653D0067
:1002700020543D005D3D00582D416E79204D73673F
:100280005B546F744E626C3D002E002E005D3A2070
:1002900030780052785B006D70335F726563765F13
:1002A000636D64206F7574004572726F72207265A1
:1002B00073706F6E7365207769746820636F64650F
:1002C00020006D70335F726563765F636D642069D3
:1002D0006E20776974682065787065637465642042
:1002E000636D6420307800080B00020202000009F0
:1002F0000400000102020000052400100105240191
:1003000001010424020605240600010705810310EB
:10031000004009040100020A000000070502024033
:1003200000000705830240000004030904120100D5
:1003300002EF0201404F1B0692000101020301532C
:100340007061726B46756E00537061726B46756EAC
:100350002050726F204D6963726F0000C20100006F
:10036000000E000E000C0000E1000005002200223B
:10037000002000009600000F003600360034001206
:100380007A00001700430043004100807000001A0B
:10039000004A004A004800004B00002C0071007128
:1003A000007000403800004A009C009900990080CD
:1003B0002500007200EA00EA00E900C0120000E92E
:1003C00000DA01DA01D70160090000D701AC03AC03
:1003D00003B103B0040000B3036E076E0767072C78
:1003E000010000DC0EC11DC11DBE1D2A2A2A2A2AB9
:1003F0002056005573652025732020257325732012
:1004000028505245562D4E4558542D504C41592F89
:100410005041555345290D0A005573652025732019
:100420002025732028505245562D4E4558542D50A6
:100430004C41592F5041555345290D0A00557365BC
:1004400020257320202573202025730D0A00437575
:100450007272656E7420736F756E643A2025640D38
:100460000A0046696C657320666F756E643A2025D4
:10047000640D0A00457175616C697A65723A2020D5
:1004800025730D0A00566F6C756D652020202020A5
:10049000203A2025640D0A005374617465202020E1
:1004A000202020203A2025640D0A00455252005891
:1004B000414E5920757365204368616E6E656C20EE
:1004C00025640D0A004551204D6F64653A2025735F
:1004D0000D0A00506C617953616D6543683A2025BF
:1004E000640D0A00506C6179506175736543683A18
:1004F0002025640D0A005072657643683A20256411
:100500000D0A004E65787443683A2025640D0A0090
:10051000566F6C43683A2025640D0A00496E707569
:1005200074204D6F64652069732025730D0A005691
:100530006F6C3A25640D0A00416C61726D3A20259A
:1005400064207374617274656420210D0A00536F16
:10055000756E644E756D6265723A2025640D0A00F1
:100560005369676E616C20257320566F6C756D65DD
:10057000206E6F7420666F756E6420210D0A000076
:10058000000000240027002A002D00300000000099
:100590000200090F0000030401000C00000000002D
:1005A0000000000000000000000000000000002526
:1005B0000028002B002E0031000000000023002640
:1005C0000029002C002F0004040404040304050285
:1005D00002020204030202020206060606060604DE
:1005E00004020202040404080201104080401020AA
:1005F00040804080080204018040201002011080E9
:10060000102040402000AE1C1A2E11241FBECFEF38
:10061000DAE0DEBFCDBF16E0A0E0B1E0ECEAF8E63C
:1006200002C005900D92AC39B107D9F729E0ACE9C9
:10063000B6E001C01D92A13EB207E1F713E0C4E0AD
:10064000D3E004C02197FE010E942F34C330D107AC
:10065000C9F70E94F91D0C9449340C9400008F9244
:100660009F92AF92BF92FF920F931F93CF93DF930E
:100670004B015C01F42EC0E2D8E0E889F98982E000
:100680008083EC85FD8510820E851F8560E079E012
:100690008DE390E0A50194010E94AE312150310913
:1006A000410951095695479537952795F8012083BB
:1006B000188EEC89FD89F082EA89FB89808180614E
:1006C0008083EA89FB89808188608083EA89FB894D
:1006D000808180688083EA89FB8980818F7D808327
:1006E000DF91CF911F910F91FF90BF90AF909F909E
:1006F0008F900895FC0180910608882311F13FB77F
:10070000F89482E08093E9002091F200822F90E03B
:100710001816190614F481E090E0882339F028981F
:1007200044E6409305084091F1004083222339F0CC
:100730002091F200211103C02BE62093E8003FBF77
:1007400008958FEF9FEF08952FB7F89483E080937B
:10075000E9009091E800892F807295FF04C0909184
:10076000F20080E4891B2FBF08958091FD0781115D
:100770000DC082E08093F90784E08093FA0710921D
:10078000FC071092FB0781E08093FD0789EF97E05B
:10079000089581508F3008F047C0E82FF0E0ED5207
:1007A000FC4F0C942F34F003F403E203E803EC0352
:1007B000140414041404F703FD03010405040B04DA
:1007C00014040F04809180008F7780938000089537
:1007D000809180008F7DF9CF80918000877FF5CF59
:1007E00084B58F7784BD089584B58F7DFBCF8091CC
:1007F00090008F77809390000895809190008F7D76
:10080000F9CF80919000877FF5CF8091C0008F77DE
:100810008093C00008958091C0008F7DF9CF8091B2
:10082000C200877F8093C2000895CF93DF93282F63
:1008300030E0F901E357FA4F8491F901EA51FA4F98
:10084000D491F901E953FA4FC491CC23A1F081115D
:100850000E94C903EC2FF0E0EE0FFF1FE754FA4FA0
:10086000A591B491EC91ED2381E090E009F480E052
:10087000DF91CF91089580E090E0FACF1F93CF935E
:10088000DF93282F30E0F901E357FA4F8491F90103
:10089000EA51FA4FD491F901E953FA4FC491CC23AC
:1008A000A9F0162F81110E94C903EC2FF0E0EE0F82
:1008B000FF1FE555FA4FA591B4918FB7F894EC91CD
:1008C000111108C0D095DE23DC938FBFDF91CF914B
:1008D0001F910895DE2BF8CFCF93DF9390E0FC01BA
:1008E000EA51FA4F249189539A4FFC01849188234D
:1008F000C9F090E0880F991FFC01E158FA4FA591CB
:10090000B491FC01E555FA4FC591D49161110DC028
:100910009FB7F8948C91209582238C93888128230B
:1009200028839FBFDF91CF910895623051F49FB724
:10093000F8943C91822F809583238C93E8812E2B11
:10094000EFCF8FB7F894EC912E2B2C938FBFEACF7B
:100950003FB7F8948091F5079091F607A091F707BB
:10096000B091F80726B5A89B05C02F3F19F0019656
:10097000A11DB11D3FBFBA2FA92F982F8827BC01F9
:10098000CD01620F711D811D911D42E0660F771F21
:10099000881F991F4A95D1F708958F929F92AF9221
:1009A000BF92CF92DF92EF92FF924B015C010E94C7
:1009B000A8046B017C010E94A8046C197D098E09B2
:1009C0009F09683E734081059105A8F321E0821AD2
:1009D0009108A108B10888EEC80E83E0D81EE11C7A
:1009E000F11C81149104A104B10429F7FF90EF9048
:1009F000DF90CF90BF90AF909F908F900895CF934E
:100A0000C09123016AE070E080E090E00E94CD0494
:100A100081E0C11101C080E0CF9108952FB7F89413
:100A20006091F1077091F2078091F3079091F407BC
:100A30002FBF0895CF93DF93809315011092170174
:100A4000609318012091130190911401290F33270D
:100A5000331F820F932F911D20911601820F911D3C
:100A6000680F791F719561957109709319016093F1
:100A70001A0180910D0890910E08DC01ED91FC9116
:100A80000084F185E02D0995892B61F080910D0896
:100A900090910E08DC01ED91FC910284F385E02D2C
:100AA0000995E7CFC2E1D1E080910D0890910E0841
:100AB0006991DC01ED91FC910190F081E02D0995A7
:100AC000B1E0CC31DB0781F7DF91CF910C940E05BB
:100AD000CF92DF92EF92FF921F93CF93DF93D82FA5
:100AE000C0E011E0C0900908D0900A08E0900B081F
:100AF000F0900C0880911101882311F10E940E05DD
:100B00006C197D098E099F09683E73408105910526
:100B100060F0109211010E940E0560930908709315
:100B20000A0880930B0890930C08CF5FDC13DACF90
:100B3000DF91CF911F91FF90EF90DF90CF900895BC
:100B40000E940E056C197D098E099F09643F714052
:100B50008105910550F310931101DDCF862720E127
:100B6000829FB00111248627482F50E0292F382F6B
:100B7000CA0164E0959587956A95E1F7282739279A
:100B8000CA0173E0880F991F7A95E1F782279327AE
:100B900008950895409111075091120720910F0771
:100BA0003091100742175307B4F49091E800957004
:100BB000E1F39091E80092FD19C08093F1008091DB
:100BC00011079091120701968F739927892B19F4B9
:100BD0008EEF8093E80080911107909112070196A3
:100BE000909312078093110781E0089580E00895A3
:100BF000EF92FF920F931F93CF93DF93F82E192F4D
:100C0000E62E042F81E0860F880F0E94CA0583E03C
:100C10000E94CA05CF2DD12FEC0EFD2EF11CCE1552
:100C2000DF05B9F007FF13C0FE0184910E94CA05D9
:100C3000182F80E00E94CA05812321968111EFCFF1
:100C4000DF91CF911F910F91FF90EF9008958881D0
:100C5000EDCF81E0F5CFDF92EF92FF920F931F93DC
:100C6000CF93DF93D82E8A01EB017B01E40EF51EB2
:100C7000CE15DF0559F0D7FE12C0FE0184910E9407
:100C8000CA0521968111F4CF0FEF1FEFC801DF9144
:100C9000CF911F910F91FF90EF90DF900895888181
:100CA000EECF0F931F93CF93DF931F92CDB7DEB795
:100CB00082E0898342E450E067EE72E080E80E94BF
:100CC0002B060E94B503DC0112960D911C910115B3
:100CD000110589F0D801ED91FC910280F381E02D9E
:100CE000BE016F5F7F4FC801099597FD04C0F801F1
:100CF00000851185ECCF89810F90DF91CF911F91F5
:100D00000F910895615030F02091F100FC01208393
:100D10000196F8CF289884E6809305080895EF920D
:100D2000FF920F931F93CF93DF938C017B01D0E051
:100D3000C0E0F701EC0FFD1F6491662361F0D8015C
:100D4000ED91FC910190F081E02DC8010995892B6E
:100D500011F02196EECFCE01DF91CF911F910F912F
:100D6000FF90EF900895AF92BF92CF92DF92EF92F3
:100D7000FF920F931F93CF93DF936C017B018B0145
:100D8000040F151FEB015E01AE18BF08C017D10795
:100D900059F06991D601ED91FC910190F081E02D1F
:100DA000C6010995892B79F7C501DF91CF911F9174
:100DB0000F91FF90EF90DF90CF90BF90AF9008958C
:100DC000FC01538D448D252F30E0842F90E0821B51
:100DD000930B541710F0CF96089501970895FC01D6
:100DE000918D828D981761F0A28DAE0FBF2FB11D2E
:100DF0005D968C91928D9F5F9F73928F90E0089586
:100E00008FEF9FEF0895FC01918D828D981731F03F
:100E1000828DE80FF11D858D90E008958FEF9FEF93
:100E20000895FC01918D228D892F90E0805C9F4F69
:100E3000821B91098F739927089580E298E00E94A0
:100E4000110721E0892B09F420E0822F089580E02A
:100E500090E0892B29F00E941D0781110C9400005D
:100E60000895FC01A48DA80FB92FB11DA35ABF4F3F
:100E70002C91848D90E001968F739927848FA68999
:100E8000B7892C93A089B1898C9182748C93938DAE
:100E9000848D981306C00288F389E02D80818F7DB0
:100EA00080830895EF92FF920F931F93CF93DF9368
:100EB000EC0181E0888F9B8D8C8D981319C0E88997
:100EC000F989808185FF14C09FB7F894EE89FF8966
:100ED0006083E889F9898081827480839FBF81E083
:100EE00090E0DF91CF911F910F91FF90EF900895C7
:100EF000F62E0B8D10E00F5F1F4F0F731127E02EA2
:100F00008C8D8E110CC00FB607FCFACFE889F989D9
:100F1000808185FFF5CFCE010E943107F1CFEB8DA7
:100F2000EC0FFD2FF11DE35AFF4FF0829FB7F894AD
:100F30000B8FEA89FB8980818062CFCFCF93DF93CB
:100F4000EC01888D8823B9F0AA89BB89E889F989E1
:100F50008C9185FD03C0808186FD0DC00FB607FC16
:100F6000F7CF8C9185FFF2CF808185FFEDCFCE0149
:100F70000E943107E9CFDF91CF9108958F929F9220
:100F8000AF92BF92CF92DF92EF92FF920F931F9397
:100F9000CF93DF936C017B018A0180912301882329
:100FA00009F45CC080910608882309F457C0809139
:100FB000150780FF05C08091E00082608093E0000B
:100FC000E801B12C8AEFA82E93E0892E2AE3922E15
:100FD000209711F4BB20D9F10E94A40381110AC00B
:100FE000AA94AA20D9F161E070E080E090E00E942C
:100FF000CD04EECF8C171D0611F00CF08C2F9FB78F
:10100000F8948092E9002091E80025FD02C09FBF7E
:10101000DFCF282F30E0C21BD30BF701815020F027
:1010200041914093F100FACFE20EF31EBB2021F074
:101030009092E800B12CEBCF8091E80085FDE7CFDE
:101040009092E800BB24B394209709F3F3CF5D9806
:1010500084E680931407101611063CF081E090E0BE
:10106000F6019383828310E000E0C801DF91CF9105
:101070001F910F91FF90EF90DF90CF90BF90AF90B6
:101080009F908F900895CF93DF931F92CDB7DEB7D7
:101090006983DC01ED91FC910280F381E02D41E058
:1010A00050E0BE016F5F7F4F09950F90DF91CF91A8
:1010B000089583E08093E9008091F200882319F07D
:1010C0008AE38093E80008950E94A40390E00895C5
:1010D000CF93DF931F92CDB7DEB7FC018485958552
:1010E00097FD08C02FEF3FEF358724870F90DF91E2
:1010F000CF910895CE0101960E947A03019719F4C9
:10110000898190E0F3CF8FEF9FEFF0CF0F931F9384
:10111000CF93DF931F92CDB7DEB78C01FC0184859E
:10112000958597FF0BC0CE0101960E947A03019727
:1011300071F4898190E0F80195878487F8018485AE
:1011400095850F90DF91CF911F910F9108958FEFAB
:101150009FEFF1CFFC018485958597FD0BC09FB76C
:10116000F89482E08093E9008091F2009FBF90E0C4
:10117000019608959FB7F89482E08093E9008091EA
:10118000F2009FBF90E00895DC015196ED91FC9133
:101190005297908150968C918095892380830895F1
:1011A0002091190730911A072817390781F4909177
:1011B000170780911807981751F0E0911707F0E092
:1011C000E153F94F8081082E000C990B08958FEFA1
:1011D0009FEF08952091190730911A0728173907B2
:1011E00039F48FB7F89410921807109217078FBF31
:1011F00008952091190730911A072817390771F4BB
:10120000809118072091170790E0805C9F4F821B08
:10121000910960E470E00E941B34089590E080E042
:1012200008952091190730911A0728173907B9F442
:101230009091170780911807981789F0E091170788
:10124000F0E0E153F94F80812091170730E02F5FE4
:101250003F4F2F7333272093170790E008958FEFA8
:101260009FEF089520E001972FEF8F3F9207D9F766
:101270000895EF92FF920F931F93CF93DF93C09146
:101280001907D0911A07209749F0EE85FF859D85B3
:101290008B8D81FF0AC08081892351F4DF91CF912A
:1012A0001F910F91FF90EF90089580818923B1F7EE
:1012B0008B899C890E94320988E0E82EF12C10E08D
:1012C00001E08D899E890E943209EE85FF8580812B
:1012D0009D85892339F1102B000F81E0E81AF10870
:1012E00081F78F89988D0E9432098B8D81FD109531
:1012F000809118072091170790E001968F73992726
:101300002817190699F0E0911807F0E0E153F94F1A
:1013100010838091180790E001968F73992780932E
:101320001807BCCF802F80951823D6CF8B8D816076
:101330008B8FB4CF90E080E00895BC0186E00C94E0
:101340001A05BC0183E00C941A0570E060E00C946F
:101350001A058F929F92AF92BF92CF92DF92EF9237
:10136000FF926C010E940E054B015C01F12CE12CF7
:101370000E940E05681979098A099B096C157D057B
:101380008E059F0540F4E0911D07F0911E073097F0
:1013900079F30995EDCFFF90EF90DF90CF90BF905C
:1013A000AF909F908F900895962728E0AC01880F0A
:1013B000991F57FF04C031E2832730E19327215062
:1013C000A9F708950895FC01E55BFF4F9081492F2F
:1013D00050E0062E02C0559547950A94E2F7DA01CF
:1013E000A170BB2740FF09C021E030E001C0220FFF
:1013F0006A95EAF72095292320838A2F0895615062
:10140000603140F5FC0124812F7059F0253010F532
:1014100070E0660F771F680F791FFB0181A592A509
:10142000089570E0660F771F680F791FFB0121A5F3
:1014300032A5A0E0B5E00E94D0312FEF37E040E0C8
:1014400050E00E944D31DA01C90180599C4FAF4FE5
:10145000BF4F08958CED95E008950C94FF09BF925D
:10146000CF92DF92EF92FF920F931F93CF93DF9370
:101470000E94A8046B017C01C0910708D091080864
:1014800001E010E0BB24BA94209709F459C08D8183
:1014900083708130D1F520914B07422F50E08C8131
:1014A000843048F48823C1F1813099F18230B9F554
:1014B00022E030E01AC098EF980F682F6450770B45
:1014C000943058F08E3029F18F3091F3803121F132
:1014D000813129F1682F6651770B9B01B80102C059
:1014E000660F771F2A95E2F79B0124233523232BD0
:1014F00061F00E9415049D8192FB992790F998173D
:1015000089F0CA86DB86EC86FD860A80DB81C02DE9
:10151000BBCF28E030E0E9CF24E030E0E6CF21E0A7
:1015200030E0E3CF8A859B85AC85BD859601281B7D
:10153000390B3F872E87B88A0E940E05698BE5CF4D
:10154000DF91CF911F910F91FF90EF90DF90CF909F
:10155000BF900895BF92CF92DF92EF92FF920F93C8
:101560001F93CF93DF930E94A8046B017C01C0916D
:101570000708D0910808BB24BA9401E010E0209736
:1015800009F458C08D818370D1F520913F07422F17
:1015900050E08C81843048F48823C1F1813099F186
:1015A0008230B9F522E030E01AC098EF980F682F2A
:1015B0006450770B943058F08E3029F18F3091F3CE
:1015C000803121F1813129F1682F6651770B9B0120
:1015D000B80102C0660F771F2A95E2F79B0124230A
:1015E0003523232B61F00E9415049D8192FB9927DE
:1015F00090F9981789F0CA86DB86EC86FD860A800A
:10160000DB81C02DBCCF28E030E0E9CF24E030E022
:10161000E6CF21E030E0E3CF8A859B85AC85BD85B0
:101620009601281B390B3F872E87B88A0E940E052A
:10163000698BE5CFDF91CF911F910F91FF90EF90D4
:10164000DF90CF90BF900895FC0186859785268511
:10165000378582179307C9F70895FC01808990E0C8
:10166000062E02C0959587950A94E2F780FF1CC06C
:10167000208981E090E001C0880F6A95EAF78095A3
:101680008223808B2685378586859785281739079D
:10169000C9F7868197812817390730F081E04085A6
:1016A00051854217530708F480E00895E0914E07F2
:1016B0003CE0E39FF0011124EA5CF84F2185809122
:1016C0002207843008F059C080912207882309F44A
:1016D00086C080912207813009F47BC08091220767
:1016E000823009F479C080912207833009F47AC0EE
:1016F00080912207873009F469C090E080E0E09192
:101700004E074CE0E49FF0011124EA5CF84F33856A
:10171000232330E082239323892B09F483C00E9482
:10172000A8042091C1063091C206AB01421B530BA5
:101730009A017093C2066093C106283B5BE03507AF
:1017400008F45EC02091230720935B0710922307C3
:101750002FEF20935C073091C0062091C0062E7FAA
:1017600030FF21602093C0062091C00620FF3DC0BD
:101770007093BF066093BE0608958091220788305B
:1017800080F0809122078C3060F440912207445011
:10179000550B81E090E002C0880F991F4A95E2F74F
:1017A000AECF809122078E30A1F0809122078F303A
:1017B00099F080912207803191F080912207813148
:1017C00089F0409122074651550BE3CF80E190E02C
:1017D00096CF88E090E093CF82E090E090CF84E0D5
:1017E00090E08DCF81E090E08ACF2091BE063091CD
:1017F000BF06621B730B7093BD066093BC06089511
:1018000080912307893070F4E0912307F0E0EE0F18
:10181000FF1FEC5DF84F31832083809123078F5F9A
:1018200080932307089520915C0730E0062E02C0C4
:10183000359527950A94E2F7C9018170992720FF11
:101840000CC040915C0721E030E001C0220F6A9596
:10185000EAF72095242320935C070895882399F0C4
:1018600090915B07981778F08150E82FF0E0EE0F29
:10187000FF1FEC5DF84F80819181208131818217BB
:101880009307C9F708958CED95E00895862F0C9481
:101890002E0C89B18F70E6E3F7E0878B86899789F4
:1018A0008927858B8789868B0288F389E02D0994A7
:1018B00089B18F70E6E3F7E0878B8689978989275E
:1018C000858B8789868B0088F189E02D099489B101
:1018D0008F70E6E3F7E0878B868997898927858B68
:1018E0008789868B0684F785E02D099489B18F70EE
:1018F000E6E3F7E0878B868997898927858B878937
:10190000868B0484F585E02D0994843088F49DB39A
:10191000882341F0813041F0823041F08EEF8923FD
:101920008DBB08958BEFFBCF87EFF9CF8DEFF7CF0E
:1019300048EF480F443040F092EF980F943020F079
:1019400096EE980F933068F590916B00282F2450F5
:10195000330B443078F027EF8E30A1F02DEF8F302D
:1019600089F02BEF803171F02EEF813159F0282F63
:101970002651330BB90121E030E001C0220F6A95F6
:10198000EAF720952923443048F092EF980F9430DD
:1019900028F08A51F0E0E0E0833010F4EBE6F0E06C
:1019A00020830895843088F49DB3882341F08130EA
:1019B00041F0823041F081E0892B8DBB089584E0B5
:1019C000FBCF88E0F9CF82E0F7CF28EF280F243053
:1019D00040F092EF980F943020F096EE980F9330ED
:1019E000D0F590916800243050F032EF380F343049
:1019F00030F036EE380FF0E0E0E0333010F4E8E697
:101A0000F0E091609083243050F092EF980F943082
:101A100030F096EE980FF0E0E0E0933010F4EBE653
:101A2000F0E030812430C0F491E0682F6450770BEF
:101A300001C0990F6A95EAF7932B243048F022EF02
:101A4000280F243028F08A51F0E0E0E0833010F4D1
:101A5000EBE6F0E09083089598E08E3069F392E031
:101A60008F3051F394E0803139F391E0813121F3EB
:101A7000682F6651770BDCCFCF93DF93982F28EF39
:101A8000280F81E0243008F480E0282F30E09430E3
:101A9000A0F59230D1F49CE0929FF001939FF00D5D
:101AA0001124EA5CF84F7383628327E63CE03093AD
:101AB00007012093060190916900937F94609093B1
:101AC0006900E99ADF91CF9108959CE0929FF0011F
:101AD000939FF00D1124EA5CF84F7183608326E731
:101AE0003CE03093050120930401909169009C7FB4
:101AF000916090936900E89AE5CF50E040E096E06D
:101B0000929FE001939FD00D1124DE01A40FB51F19
:101B1000AA0FBB1FAA5CB84FED91FC91E617F7071F
:101B200089F24F5F5F4F4430510579F79CE0929FF7
:101B3000D001939FB00D1124AA5CB84F18969C91C8
:101B40001897943010F08FEFBDCF1896EC9118973E
:101B5000EC0FFD2FF11DEE0FFF1FEA5CF84F7183B4
:101B6000608318969C9118979F5F18969C93AACFB4
:101B70001F93CF93DF93EC01162F98EF960F8D8173
:101B80008C7F943088F181608D836FE27AE0812FC1
:101B90000E943C0D982F93708D818C7F892B8D83B3
:101BA0001C8388E592E09F838E8380E699E0998785
:101BB000888780910708909108089B838A83D09337
:101BC0000808C093070860E0812F0E946C0461E060
:101BD0008C810E943E048C810E94D20C8D81837086
:101BE000DF91CF911F9108958D836AEA7AE0CFCF7C
:101BF000DF92EF92FF920F931F93CF93DF93EC014D
:101C0000898D9A8D892B71F481E090E09B838A8382
:101C100090E080E0DF91CF911F910F91FF90EF90C6
:101C2000DF900895162FDFB6F8948B8D81FD28C0C4
:101C3000CE010E94C408898D9A8D0E9432098B8D35
:101C400098E0E92EF12C01E081FF28C0812F80234C
:101C5000F1F0CE010E94C408898D9A8D0E9432094C
:101C6000000F81E0E81AF10889F7CE010E94C4084C
:101C7000DFBE898D9A8D0E94320981E090E0CACF43
:101C8000E989FA8980819889892B8083D4CFE98971
:101C9000FA8980819889892B8083DECF812F8023E8
:101CA000B1F0E989FA8980819889892B8083898DAF
:101CB0009A8D0E943209000F81E0E81AF10871F74D
:101CC000E989FA8980819889892B8083D1CFCE01D7
:101CD0000E94C408ECCF0F931F93CF93DF930FE0C4
:101CE00018E0D0E0C0E0CE010E943731F8018193C6
:101CF0008F012196C131D105B1F78FE098E0DF91D6
:101D0000CF911F910F910895FF920F931F93CF933F
:101D1000DF930FE018E0D0E0C0E0F801F1908F0110
:101D2000CE010E943731F81621F06F2DCE010E94AE
:101D30003F312196C131D10581F78FE098E0DF91E5
:101D4000CF911F910F91FF900895FB01019000200A
:101D5000E9F73197AF01461B570BDC01ED91FC9180
:101D60000280F381E02D09948F929F92AF92BF92EF
:101D7000EF92FF920F931F93CF93DF93CDB7DEB710
:101D8000A1970FB6F894DEBF0FBECDBF7C01FA015C
:101D9000CB0119A2223008F42AE08E010F5D1F4FFB
:101DA000822E912CB12CA12CBF01A50194010E947F
:101DB000AE31F901CA016A300CF5605DD8016E934D
:101DC0008D01232B242B252B79F790E080E01097B1
:101DD00021F0BD01C7010E94A50EA1960FB6F8948F
:101DE000DEBF0FBECDBFDF91CF911F910F91FF904E
:101DF000EF90BF90AF909F908F900895695CDECF79
:101E0000AC0170E060E02AE08DEB98E00C94B40E39
:101E1000CF92DF92EF92FF920F931F93CF93DF93B6
:101E2000EC016A017B01E881F9810190F081E02DEC
:101E30006DE209958C0144275527BA014C195D09BB
:101E40006E097F092AE0CE010E94B40E800F911F17
:101E5000DF91CF911F910F91FF90EF90DF90CF9086
:101E60000895CF92DF92EF92FF920F931F93CF933B
:101E7000DF93C82FD62F10E000E0E82EF12C87E08A
:101E8000C82ED12C809150078823A1F0C601801B59
:101E9000910BA70102C0559547958A95E2F74170CD
:101EA0005527052E000C660B770B2AE08DEB98E08A
:101EB0000E94B40E033011F4D11105C00F5F1F4F03
:101EC00008301105F9F6C83081F148F4C23039F113
:101ED000C43041F1C13051F481E090E016C0C0320D
:101EE00039F168F485E090E0C03179F0DF91CF916D
:101EF0001F910F91FF90EF90DF90CF900895C03425
:101F0000D1F088E090E0C03889F7DF91CF911F9140
:101F10000F91FF90EF90DF90CF900C94A10982E099
:101F200090E0F3CF83E090E0F0CF84E090E0EDCF5D
:101F300086E090E0EACF87E090E0E7CFDF92EF9293
:101F4000FF920F931F93CF93DF938C01D62ED42F44
:101F50007C01C0E0CD1581F0CC2331F06BE872E05C
:101F60008DEB98E00E948F0660E0F70181917F0180
:101F70000E94310FCF5FEECFDD23B1F0CC2331F0E3
:101F800069E872E08DEB98E00E948F06C00FD12FB8
:101F9000D11D61E08881DF91CF911F910F91FF905A
:101FA000EF90DF900C94310FDF91CF911F910F9143
:101FB000FF90EF90DF900895009729F0BC018DEB22
:101FC00098E00C94A50E90E080E0089589E9809354
:101FD0000F0885E08093100886E08093120887E060
:101FE0008093110888E08093130889E08093140897
:101FF0008AE0809315088CED95E090931708809304
:10200000160888EE93E090931B0880931A0880EDE1
:1020100097E0909319088093180881E080931C083A
:1020200010921D0880931E0810921F0883E00E94E2
:1020300068050E94FF048823B9F084E791E09F932C
:102040008F931F9284E68F9381E797E09F938F93FE
:102050000E94892E81E797E00E94DC0F0F900F907D
:102060000F900F900F900F900C94840E0E946B0EA7
:1020700080910F08893949F00E94E60F64EF71E002
:1020800080E090E00E94CD04F1CF0E94FF048823FD
:1020900021F087E592E00E94DC0F0E94FF04882374
:1020A00021F082E695E00E94DC0F0E94FF04882365
:1020B00021F087EA91E00E94DC0F0E94FF04882350
:1020C00021F082E695E00E94DC0F0E94FF04882345
:1020D00061F0E0911C08E150FF0BEE0FFF1FEB5B7E
:1020E000FE4F808191810E94DC0F0E94FF048823B3
:1020F00021F087E592E00E94DC0F80911D08882383
:1021000009F47EC10E94FF04882349F1E0911E0872
:10211000E150FF0BEE0FFF1FE55DFE4F81818F93B6
:1021200080818F9380911D081F928F938BE591E0A2
:102130009F938F931F9284E68F9381E797E09F93FD
:102140008F930E94892E81E797E00E94DC0F8DB764
:102150009EB70A960FB6F8949EBF0FBE8DBF0E9421
:10216000FF04882321F1E0911F08F0E0EE0FFF1F2C
:10217000ED5CFE4F81818F9380818F938CE391E0A2
:102180009F938F931F9284E68F9381E797E09F93AD
:102190008F930E94892E81E797E00E94DC0F8DB714
:1021A0009EB708960FB6F8949EBF0FBE8DBF0E94D3
:1021B000FF048823E9F0809115081F928F938CE229
:1021C00091E09F938F931F9284E68F9381E797E02E
:1021D0009F938F930E94892E81E797E00E94DC0FE6
:1021E0008DB79EB708960FB6F8949EBF0FBE8DBFF1
:1021F00080911D08882309F420C180911E08833036
:1022000009F01BC10E94FF04882321F083EC91E0B8
:102210000E94DC0F0E94FF048823E9F080911208DD
:102220001F928F938CE091E09F938F931F9284E68F
:102230008F9381E797E09F938F930E94892E81E788
:1022400097E00E94DC0F8DB79EB708960FB6F89402
:102250009EBF0FBE8DBF0E94FF048823E9F08091CE
:1022600011081F928F938CEF90E09F938F931F9292
:1022700084E68F9381E797E09F938F930E94892E46
:1022800081E797E00E94DC0F8DB79EB708960FB6E6
:10229000F8949EBF0FBE8DBF0E94FF048823E9F013
:1022A000809113081F928F938CEE90E09F938F93F1
:1022B0001F9284E68F9381E797E09F938F930E940C
:1022C000892E81E797E00E94DC0F8DB79EB70896B4
:1022D0000FB6F8949EBF0FBE8DBF0E94FF048823E7
:1022E000E9F0809114081F928F938CED90E09F93FA
:1022F0008F931F9284E68F9381E797E09F938F934C
:102300000E94892E81E797E00E94DC0F8DB79EB76F
:1023100008960FB6F8949EBF0FBE8DBF0E94FF04B3
:102320008823F9F0809119088F93809118088F9372
:102330008CEC90E09F938F931F9284E68F9381E7BC
:1023400097E09F938F930E94892E81E797E00E94E8
:10235000DC0F8DB79EB708960FB6F8949EBF0FBEE0
:102360008DBF0E94FF048823F9F0809117088F9396
:10237000809116088F938CEB90E09F938F931F9220
:1023800084E68F9381E797E09F938F930E94892E35
:1023900081E797E00E94DC0F8DB79EB708960FB6D5
:1023A000F8949EBF0FBE8DBF0E94FF048823F9F0F2
:1023B00080911B088F9380911A088F938CEA90E08C
:1023C0009F938F931F9284E68F9381E797E09F936B
:1023D0008F930E94892E81E797E00E94DC0F8DB7D2
:1023E0009EB708960FB6F8949EBF0FBE8DBF0E9491
:1023F000FF04882309F444C087E592E00C94DC0FC5
:102400000E94FF04882309F4AACE8BE491E09F93F5
:102410008F931F9284E68F9381E797E09F938F932A
:102420000E94892E81E797E00E94DC0F0F900F90A9
:102430000F900F900F900F9092CE0E94FF04882370
:1024400009F4E8CE809110081F928F938CE191E0FF
:102450009F938F931F9284E68F9381E797E09F93DA
:102460008F930E94892E81E797E00E94DC0F8DB741
:102470009EB708960FB6F8949EBF0FBE8DBFCACE0A
:10248000089567E572E00C94A50ECF93DF93BC012D
:102490008DEB98E00E94A50EEC018DEB98E00E9478
:1024A00041128C0F9D1FDF91CF9108954F925F9243
:1024B0006F927F928F929F92AF92BF92CF92DF9254
:1024C000EF92FF920F931F93CF93DF937C01D82F4E
:1024D0000E940E052B013C0180911B0790911C0767
:1024E000009799F062EC72E00E948F0600911B0742
:1024F00010911C07A701FF0C660B770B20E1C801A8
:102500000E94B40EC8010E944112C0E00E940E0554
:102510006419750986099709683E7340810591051C
:1025200068F11092CD061092CE06C0911B07D09193
:102530001C07209741F067E972E0CE010E948F06E8
:10254000CE010E9441122091CD068091CE0690E0EE
:102550003FEF239F800D911D1124DF91CF911F919B
:102560000F91FF90EF90DF90CF90BF90AF909F9032
:102570008F907F906F905F904F90089585E090E0EE
:102580000E94A90983ECA82E86E0B82EF5011192CD
:1025900036E0ED3CF307D9F780910D0890910E08D5
:1025A000DC01ED91FC910084F185E02D09950A97FD
:1025B0000CF476C0C12CD12C760180910D0890913D
:1025C0000E08DC01ED91FC910284F385E02D099564
:1025D0008C01019609F464C080911B0790911C073F
:1025E000009721F163E972E00E948F062AE0B701AB
:1025F000A60180911B0790911C070E94B40E6DE804
:1026000072E080911B0790911C070E948F068090BA
:102610001B0790901C0720E1A801110F660B770B98
:10262000C4010E94B40EC4010E944112F50101933D
:102630005F01FFEFCF1ADF0AEF0AFF0A2AE0C21696
:10264000D104E104F10409F0B8CFC091C606C0344A
:10265000E1F480911B0790911C07009709F456CF75
:1026600068EA72E00E948F0600911B0710911C0718
:102670004091C90650E070E060E02AE0C8010E9485
:10268000B40EC8010E94411241CFDC133FCF8091AC
:10269000C8068093CD068091C9068093CE0645CFAB
:1026A00082E390E00E94A909DC1330CF3ECF8F92E5
:1026B0009F92AF92BF92CF92DF92EF92FF920F93D1
:1026C0001F93CF93DF9300D0CDB7DEB78091B406D0
:1026D00081110DC00E940E056093B0067093B10683
:1026E0008093B2069093B30681E08093B406809104
:1026F000A80681110DC00E940E056093A406709378
:10270000A5068093A6069093A70681E08093A8066D
:1027100080915A0990915B09009709F4ECC060918F
:102720005909629566956770DC01ED91FC91019005
:10273000F081E02D0995882309F4DDC080915A09C4
:1027400090915B09609159096F71DC01ED91FC91E9
:102750000280F381E02D0995AC019093600980938C
:102760005F09809162098061809362092BE831E002
:1027700090E0F901659174914617570708F4B5C0C8
:10278000F9013296659174916417750708F4ADC02C
:1027900030916309432F441F4427441F80916409EB
:1027A000282F2F70220F242B2913E5C08091640954
:1027B000282F22952F702F5F2770322F3295307F70
:1027C0008F78832B8093640930916209432F437083
:1027D00050E04F5F5F4F2417150609F08CC08091C1
:1027E0006309903109F0D3C0329536953770982F30
:1027F0009370990F990F990F932B990F990F8378D5
:10280000892B8093630990916309292F269526953A
:102810002F71322F3295330F307E809162098F7184
:10282000832B322F3695369536959C7F932B90933C
:1028300063099C77943409F0B2C0877F8093620962
:1028400080915E099091620992FFE1C0863008F0A4
:10285000DCC0E82FF0E0E256F94F90915D099083DB
:10286000806810925E09909162099B7F9093620943
:10287000882309F440C091E09093E30790919C066F
:102880009F5F90939C06982F9F77192F110F87FDBC
:102890001F5F892F90E0FC01E356F94F2081012F43
:1028A000017010FF12C0FC01E256F94F4081042E66
:1028B000000C550BB4E055954795BA95E1F74F706C
:1028C000E0E12E0290011124242B30E060E001971A
:1028D000462F50E0481759070CF0A2C04256594FF6
:1028E000DA014C9134276F5FF3CF9F5F2C5F3F4F2E
:1028F000923109F03ECF0E940E050091B006109172
:10290000B1062091B2063091B306601B710B820BA9
:10291000930B693B7B4081059105F0F00E940E0509
:102920006093B0067093B1068093B2069093B3069D
:102930001092E30780915007882351F063ED71E016
:102940008DEB98E00E948F068DEB98E00E9441127B
:1029500010929F0610929E060F900F90DF91CF91DC
:102960001F910F91FF90EF90DF90CF90BF90AF90AD
:102970009F908F90089590FB37F930936309292F2A
:1029800026952F708078822B809364090FCF9F71DA
:10299000990F990F8378982B9093630934CF83FD17
:1029A00027C0B0E12B9F9001112420935D09846022
:1029B0008093620980E020916209922F977F23FF24
:1029C000986090936209813009F43ACF823009F01F
:1029D00092CFE0915E09E63000F581E08E0F8093A2
:1029E0005E09F0E0E256F94F80915D09808383CF64
:1029F00090915D09292B20935D098B7F809362095B
:102A000081E08093610982E0D6CF80E02ACF8823DD
:102A100009F471CF10925E092ECF10925E096BCF30
:102A2000002331F04256594FFA018081807F3827C8
:102A30008091500795E53927321335C3882341F03B
:102A40000E94FF04882321F087E592E00E94DC0FBA
:102A5000E12EF12C4091500720911F078091200713
:102A600090E0880F991FBC01A3E02A9F600D711DA3
:102A700011248091210786958695860F972F911DA9
:102A80000296E816F90609F09FC2442309F446C0ED
:102A90000E940E056093B0067093B1068093B20653
:102AA0009093B30667E772E08DEB98E00E948F0683
:102AB000412F50E070E060E02AE08DEB98E00E944A
:102AC000B40E64E772E08DEB98E00E948F06612FF0
:102AD00066956150402F8EE996E00E949E0F60E758
:102AE00072E08DEB98E00E948F060E940E05009127
:102AF000A4061091A5062091A6063091A706AB0169
:102B0000BC01401B510B620B730B2AE08DEB98E06C
:102B10000E94B40E8DEB98E00E94411280911F0735
:102B2000813009F07DC080915007882309F478C076
:102B300060919E06B0E16B9FB001112480919F06C9
:102B400090E0E4E095958795EA95E1F7680F791FA5
:102B500090E080E00E94F23220E030E044EB53E469
:102B60000E94A93320E030EF4FE755E40E94513234
:102B70006B017C0169E672E08DEB98E00E948F06A4
:102B800020919E06E0E12E9F9001112490919F06D6
:102B9000892F90E0F4E095958795FA95E1F7820FFB
:102BA000931F0E94000F66E672E08DEB98E00E9492
:102BB0008F06A7019601C701B6010E94163465ED84
:102BC00071E0811123C02FEF3FEF4FE75FE7C701AF
:102BD000B6010E94163481110CC02FEF3FEF4FE772
:102BE0005FE7C701B6010E944C3269ED71E018162B
:102BF0006CF02FEF3FEF4FE75FE4C701B6010E9493
:102C0000A43318160CF028C16DED71E08DEB98E03F
:102C10000E94A50E61E672E08DEB98E00E948F069F
:102C200080912007813061F50E94FF04882341F1E3
:102C300080911F07813009F04BC180919F06F0E120
:102C40008F9F900111248091A00682958F70822B16
:102C50001F928F9387E592E09F938F931F9284E654
:102C60008F9381E797E09F938F930E94892E81E74E
:102C700097E00E94DC0F0FB6F894DEBF0FBECDBF09
:102C800010912107112309F452C080911F07209150
:102C90002007103108F04CC1813009F03AC11430DE
:102CA00009F019C182E090E0211102C081E090E0BA
:102CB0008256994FDC018C918F7090E09A838983C2
:102CC000809150078823E1F00E94FF048823C1F01F
:102CD0001F921F9388E492E09F938F931F9284E644
:102CE0008F9381E797E09F938F930E94892E81E7CE
:102CF00097E00E94DC0F0FB6F894DEBF0FBECDBF89
:102D000060912107603109F054C189819A81982727
:102D1000892798279A83898341E0643009F040E04D
:102D2000669566956695CE0101960E949E0F8091EC
:102D30005007882381F10E94FF04882311F18091BC
:102D400063071F928F93809160071F928F938091EA
:102D500062071F928F9388E292E09F938F931F9256
:102D600084E68F9381E797E09F938F930E94892E4B
:102D700081E797E00E94DC0F0FB6F894DEBF0FBE2C
:102D8000CDBF0E940E056093A4067093A5068093A4
:102D9000A6069093A70680919C06843608F4ABCDD6
:102DA00080915007882309F4A6CD0E94FF04882350
:102DB00021F087E592E00E94DC0F0E94FF04882347
:102DC00021F08EE392E00E94DC0F0E94FF04882332
:102DD00021F087E592E00E94DC0F0E94FF04882327
:102DE000F1F080919C0690919D06891B990B9F9311
:102DF0008F9382EF91E09F938F931F9284E68F933E
:102E000081E797E09F938F930E94892E81E797E057
:102E10000E94DC0F0FB6F894DEBF0FBECDBF0E943C
:102E2000FF04882321F085E592E00E94DC0F0E94D8
:102E3000FF04882321F08EE392E00E94DC0F0E94C1
:102E4000FF04882321F087E592E00E94DC0F1092B6
:102E50009C0610929D064FCD2FEF3FEF4FE75FECA2
:102E6000C701B6010E944C3287FDCECE2DEC3CEC62
:102E70004CE45DE3C701B6010E94E0316B017C01C7
:102E80000E94C3324B015C010E94F2329B01AC01F3
:102E9000C701B6010E94DF316B017C012AE0B50158
:102EA000A4018DEB98E00E94B40E6EE28DEB98E0E9
:102EB0000E94430820E030E040E251E4C701B6013F
:102EC0000E94A9330E94C332CB010E94000FA2CE00
:102ED00080919E06BDCE82E090E0211102C081E08B
:102EE00090E08256994FFC018081F0E18F9FC001F4
:102EF00011249927222319F023E030E002C022E0B8
:102F000030E02256394FD9012C9122952F70822B17
:102F1000D5CE81E090E0211102C090E080E08256A1
:102F2000994FFC018081143009F0C7CE8295C4CE40
:102F3000813031F582E090E0211102C081E090E023
:102F40008256994FDC018C91482F50E0542F442732
:102F50005295507F83E090E0211102C082E090E022
:102F60008256994FFC019081F0E19F9FC00111248E
:102F7000842B952B222309F4BFCF24E030E0C1CF6E
:102F800081E090E0211102C090E080E08256994FEC
:102F9000FC01808190E0982F8827222339F022E0DD
:102FA00030E02256394FD9012C91B1CF21E030E0E9
:102FB000F8CF643009F0B0CE89819A8144E0880F5F
:102FC000991F4A95E1F7A6CE442309F4E4CE8091F7
:102FD0009D068F5F80939D060E94FF04882321F049
:102FE00081EE91E00E94DC0F0E94FF04882369F1CA
:102FF00020911F078091200790E0880F991FAC0156
:1030000063E0269F400D511D112480912107869574
:103010008695840F952F911D02969F938F9387E13C
:1030200092E09F938F931F9284E68F9381E797E0BE
:103030009F938F930E94892E81E797E00E94DC0F77
:103040000FB6F894DEBF0FBECDBF0E94FF048823E9
:10305000C1F0FF92EF9285E092E09F938F931F92D1
:1030600084E68F9381E797E09F938F930E94892E48
:1030700081E797E00E94DC0F0FB6F894DEBF0FBE29
:10308000CDBF0E94FF04882321F085EF91E00E94CC
:10309000DC0F0E94FF04882309F47DCE87E592E0CF
:1030A0000E94DC0F78CE882309F475CE80919D06AE
:1030B0008F5F80939D060E94FF04882351F38EE169
:1030C00092E0E5CF1F920F920FB60F9211242F932B
:1030D0003F938F939F93AF93BF938091F10790910C
:1030E000F207A091F307B091F4073091F00723E0C5
:1030F000230F2D3758F50196A11DB11D2093F00720
:103100008093F1079093F207A093F307B093F4072D
:103110008091F5079091F607A091F707B091F80715
:103120000196A11DB11D8093F5079093F607A0931A
:10313000F707B093F807BF91AF919F918F913F919F
:103140002F910F900FBE0F901F90189526E8230F18
:103150000296A11DB11DD2CF1F920F920FB60F92F2
:1031600011242F933F934F935F936F937F938F938C
:103170009F93AF93BF93EF93FF93E0910C01F09176
:103180000D010995FF91EF91BF91AF919F918F91A3
:103190007F916F915F914F913F912F910F900FBE53
:1031A0000F901F9018951F920F920FB60F92112437
:1031B0002F933F934F935F936F937F938F939F933F
:1031C000AF93BF93EF93FF93E0910A01F0910B014E
:1031D0000995FF91EF91BF91AF919F918F917F9151
:1031E0006F915F914F913F912F910F900FBE0F9074
:1031F0001F9018951F920F920FB60F9211242F93C4
:103200003F934F935F936F937F938F939F93AF936E
:10321000BF93EF93FF93E0910801F09109010995A5
:10322000FF91EF91BF91AF919F918F917F916F919E
:103230005F914F913F912F910F900FBE0F901F9074
:1032400018951F920F920FB60F9211242F933F9350
:103250004F935F936F937F938F939F93AF93BF939E
:10326000EF93FF93E0910601F09107010995FF911B
:10327000EF91BF91AF919F918F917F916F915F91EE
:103280004F913F912F910F900FBE0F901F90189567
:103290001F920F920FB60F9211242F933F934F93CB
:1032A0005F936F937F938F939F93AF93BF93EF93AE
:1032B000FF93E0910401F09105010995FF91EF91D1
:1032C000BF91AF919F918F917F916F915F914F913E
:1032D0003F912F910F900FBE0F901F9018951F9246
:1032E0000F920FB60F9211248F939F938091E1005C
:1032F0009091E100937F9093E10083FF0FC01092C3
:10330000E90091E09093EB001092EC0092E390932F
:10331000ED001092060898E09093F00082FF22C022
:1033200093E09093E9009091F200992319F09AE3C9
:103330009093E80090911407992341F0909114071D
:10334000915090931407911101C05D9A90910508D6
:10335000992341F09091050891509093050891119F
:1033600001C0289A84FF18C08091E2008E7E81609F
:103370008093E2008091E1008F7E8093E100809154
:1033800015078E7E8061809315079F918F910F9016
:103390000FBE0F901F90189580FFF7CF8091E2002D
:1033A0008E7E80618093E2008091E1008E7E80932A
:1033B000E100809115078E7E8160E5CF1F920F920C
:1033C0000FB60F921124CF92DF92EF92FF920F93DC
:1033D0001F932F933F934F935F936F937F938F939D
:1033E0009F93AF93BF93EF93FF93CF93DF93CDB7AB
:1033F000DEB76C97DEBFCDBF1092E9008091E80088
:1034000083FF25C068E0CE0145960E94820682EFC8
:103410008093E8008D8987FF39C09091E80090FF84
:10342000FCCF982F907609F034C19E894F89588D32
:103430002F89F88C911131C0803861F58091160781
:103440008093F1001092F1008EEF8093E8006C966B
:103450000FB6F894DEBF0FBECDBFDF91CF91FF91C5
:10346000EF91BF91AF919F918F917F916F915F91FC
:103470004F913F912F911F910F91FF90EF90DF900F
:10348000CF900F900FBE0F901F9018959EEF9093C6
:10349000E800C7CF1092F100D5CF913059F48111D7
:1034A000D3CF4130510581F6809116078D7F8093EF
:1034B0001607CACF933049F48111C6CF4130510568
:1034C00019F6809116078260F2CF953041F4809111
:1034D000E80080FFFCCF20682093E300B5CF963052
:1034E00009F0A9C00B8D1C8D22E01092E90010920A
:1034F000120710921107F2122EC0109210071092AC
:103500000F070E9451061F8299E09983FA8291E089
:103510009E8390EA98879AEF9987209111073091BE
:103520001207275F3F4F3C832B838D831092E90066
:1035300010921207109211071093100700930F07B3
:1035400049E050E0BE016F5F7F4F80E00E942B0694
:103550000E94510679CF1093100700930F070E9425
:10356000B503DC0112960D911C910115110509F4AA
:1035700051C1D801ED91FC910480F581E02DBE018F
:103580006B5E7F4FC8010995009709F03EC1F801B5
:1035900000851185EACFF3E0FF120EC08F898823E2
:1035A00009F440C0823061F440E862E188E493E0CD
:1035B0000E94F805811148CF81E28093EB0047CF4C
:1035C000813029F440E868E08FE393E0F1CF833065
:1035D00099F70E94B503DC011296ED90FC908E01E4
:1035E0000F5F1F4F6801E114F10479F0D701ED91ED
:1035F000FC910680F781E02DB801C7010995080FFD
:10360000111DF701E084F184EECFD8011C92F60180
:1036100001900020E9F73197BF016C197D0940E066
:10362000C601C6CF69E273E0FB01449150E080E837
:103630000E942B0609CF973009F4BECF983021F4B1
:1036400081E08093F10000CF993009F0FDCE8370C6
:1036500009F0B2CFE5E2F1E081E031E096E32191BB
:10366000222371F08093E9003093EB00DF01119782
:103670002C912093EC009093ED008F5F873079F7C9
:103680008EE78093EA001092EA008F898093060803
:10369000DBCE8B8D9C8D1092E90010921207109258
:1036A00011079093100780930F07898D811192C0A5
:1036B0008E899D89913A49F4813209F07DCF47E0A6
:1036C00050E06CE171E080E0B3CF913209F074CF4B
:1036D000833269F48F89988DB0E0A0E08093000177
:1036E00090930101A0930201B0930301ADCE80320B
:1036F00069F48091E80082FFFCCF67E08CE191E003
:103700000E9482068BEF8093E8009ECE823209F001
:103710009BCE8F8980932301EEEFFFE785919491F3
:103720008B3F9C4D51F1E0E0F8E080911C019091BD
:103730001D01A0911E01B0911F01803B9440A10585
:10374000B105F1F48091230180FD1AC0EE3F8AE0BB
:10375000F80789F587E797E7918380838091600078
:103760008093130788E19BE00FB6F894A8958093A7
:1037700060000FBE9093600067CEEEEFFAE0D5CF09
:10378000808191818737974709F05ECEA895809117
:1037900060008861809360008091130780936000CF
:1037A000EE3F2AE0F20789F08091FE0A9091FF0A2D
:1037B0009183808349CE808191818737980751F228
:1037C0009093FF0A8093FE0AC5CF1092FF0A1092D1
:1037D000FE0A3ACE0E94B503DC0112960D911C91AF
:1037E0000115110509F4E8CED801ED91FC91019085
:1037F000F081E02DBE016B5E7F4FC80109958111FC
:1038000023CEF80100851185EBCF181619060CF4AC
:103810001BCED2CEF1E0FF12BECE6DE273E004CF3C
:103820001F920F920FB60F9211242F933F934F9335
:103830005F936F937F938F939F93AF93BF93EF9318
:10384000FF9380E298E00E943107FF91EF91BF91D2
:10385000AF919F918F917F916F915F914F913F9128
:103860002F910F900FBE0F901F9018951F920F92DF
:103870000FB60F9211242F938F939F93EF93FF9383
:10388000E0913008F09131088081E0913608F091A4
:10389000370882FD1BC09081809139088F5F8F733C
:1038A00020913A08821741F0E0913908F0E0E05E9B
:1038B000F74F958F80933908FF91EF919F918F91EA
:1038C0002F910F900FBE0F901F9018958081F4CF0D
:1038D0001F920F920FB60F9211242F933F934F9385
:1038E0005F936F937F938F939F93AF93BF93CF9388
:1038F000EF93FF9383B190916B00892380934107ED
:103900008091400790914107892780933F078091DC
:10391000410780934007C0E080913E07C81760F4DC
:10392000EC2FF0E0EE0FFF1FEA5CF84F0190F08102
:10393000E02D0995CF5FF0CFFF91EF91CF91BF912F
:10394000AF919F918F917F916F915F914F913F9137
:103950002F910F900FBE0F901F901895CF92DF926E
:10396000EF92FF92109223081092220828EEC22EA6
:1039700023E0D22EE12CF12CC0922408D09225080D
:10398000E0922608F092270887E591E090932108BD
:10399000809320088DEC90E090932D0880932C0864
:1039A0008CEC90E090932F0880932E0888EC90E0A8
:1039B000909331088093300889EC90E0909333081D
:1039C000809332088AEC90E0909335088093340815
:1039D0008EEC90E090933708809336081092390867
:1039E00010923A0810923B0810923C081092C008BE
:1039F0001092BF08C092C108D092C208E092C308DA
:103A0000F092C40889E691E09093BE088093BD08C7
:103A10008FEF9FEF9093CA088093C9088BE791E0DE
:103A200090930E0980930D091092100910920F09BE
:103A3000109213091092150910925809E6E3F9E063
:103A400080E2DF011D928A95E9F781EA91E0909387
:103A5000D0098093CF092091D4092B7F2093D409DA
:103A60009093BE098093BD092091C2092B7F2093BA
:103A7000C2099093AC098093AB092091B0092B7FC8
:103A80002093B00990939A098093990920919E09F7
:103A90002B7F20939E0990938809809387098091BA
:103AA0008C098B7F80938C0987E991E0909386093C
:103AB000809385090E940E056093810970938209A5
:103AC0008093830990938409109268091092670982
:103AD000C0926909D0926A09E0926B09F0926C0970
:103AE00085E891E0909366098093650910927909C1
:103AF0001092780910927B0910927A0910927D0930
:103B000010927C0910927F0910927E0980918009A1
:103B10008E7F8D7F8093800960E08AE00E946C0434
:103B20008091800981FD04C061E08AE00E943E042A
:103B30008AE080937109E0EFF5E084918093720947
:103B4000E1EDF5E0E491F0E0EE0FFF1FE754FA4FEE
:103B5000259134913093740920937309E6EFF5E0D1
:103B6000E491E0937509E81741F061E080E10E947B
:103B70006C0461E080E10E943E04E7EDF5E0E49131
:103B8000F0E0EE0FFF1FE555FA4F85919491909369
:103B900077098093760969E379E08AE00E943C0D19
:103BA0000E940E05809162092DE039E030935B0997
:103BB00020935A0990E290935909109261099091CB
:103BC000630920916409207F296020936409807132
:103BD0009C7792609093630980628F7E80936209E4
:103BE00010925D0910925E09FF90EF90DF90CF90E8
:103BF0000895CF93DF93CDB7DEB728970FB6F8942B
:103C0000DEBF0FBECDBF789484B5826084BD84B51D
:103C1000816084BD85B5826085BD85B5816085BDC7
:103C200080916E00816080936E001092810080917F
:103C30008100826080938100809181008160809307
:103C4000810080918000816080938000809191004C
:103C500082608093910080919100816080939100B7
:103C6000809190008160809390008091C100846079
:103C70008093C1008091C10082608093C1008091D7
:103C8000C10081608093C1008091C30081608093F6
:103C9000C3008091C00082608093C0008091C20008
:103CA00081608093C20080917A00846080937A0062
:103CB00080917A00826080937A0080917A0081609E
:103CC00080937A0080917A00806880937A001092C5
:103CD000060810921607109215078091D700816090
:103CE0008093D70080EA8093D80089B5806189BD30
:103CF00089B5826089BD09B400FEFDCF61E070E046
:103D000080E090E00E94CD048091D8008F7C80619B
:103D10008093D8008091E000807F8093E0008091C4
:103D2000E1008E7E8093E1008DE08093E200559A61
:103D3000209A60E084E00E946C0461E085E00E94CB
:103D40006C0461E085E00E943E040E946B0E05E475
:103D500011E02FE331E03C832B8362E0AB81BC8137
:103D60008D91BC83AB830E946C04EB81FC810E17A8
:103D70001F0799F710927F0910927E0910927D0912
:103D800010927C0910927B0910927A09109279099D
:103D90001092780990E080E0FC01E55AFC4F4591D3
:103DA000559165917491403855426105710509F04E
:103DB0005BC3FC01E15AFC4F2591349130937909A2
:103DC00020937809FC01EF59FC4F259134913093F1
:103DD0007B0920937A09FC01ED59FC4F2591349120
:103DE00030937D0920937C09FC01EB59FC4F8591B0
:103DF000949190937F0980937E0980917C099091A2
:103E00007D09892B09F454C08091710928EF280F8E
:103E1000243048F092EF980F943028F096EE980FE7
:103E2000933008F03FC090916800243048F022EFB2
:103E3000280F243028F08A51F0E0E0E0833010F4BD
:103E4000E8E6F0E0916090839091710938EF390FC6
:103E5000343050F082EF890F843030F086EE890FD5
:103E6000F0E0E0E0833010F4EBE6F0E02081343065
:103E700008F000C381E0092F0450110BA80101C014
:103E8000880F4A95EAF7822B343048F022EF290F49
:103E9000243028F09A51F0E0E0E0933010F4EBE6A3
:103EA000F0E0808380917E0990917F090E94320921
:103EB0008091190790911A078556994091F0809149
:103EC00080098E7F809380098FB7F894109218072D
:103ED0001092170725E639E030931A072093190747
:103EE0008FBF8FEF9FEF9093CA088093C90868EE49
:103EF00073E080E090E00E94CD0480916407882305
:103F000031F08DEB98E090931C0780931B070E9483
:103F1000FF04882321F08AE592E00E94DC0F85E609
:103F200099E090930E0880930D0810921E0710924E
:103F30001D0762E070E089E00E941A0570E060E011
:103F400087E00E941A058091150890E00E949D0963
:103F500064EF71E080E090E00E94CD04809115084C
:103F600090E00E949D0964EF71E080E090E00E9483
:103F7000CD0483E40E94A50983E490E00E945612D8
:103F80008093610788E40E94A50988E490E00E947C
:103F9000561280935D0781E08093510760E085E0D1
:103FA0000E943E048DEB98E00E94411284E492E06E
:103FB0000E94451288E792E00E9445126BEE73E082
:103FC0008DEB98E00E948F062AE041E050E060E02F
:103FD00070E08DEB98E00E94B40E89E892E00E94B8
:103FE000DC0F2AE042E050E060E070E08DEB98E00A
:103FF0000E94B40E8BE892E00E9445128DEB98E08F
:104000000E94411280916107882309F448C20E94EE
:10401000FF04882321F082E992E00E94DC0F0E94D5
:10402000FF04882321F089EC92E00E94DC0F0E94BB
:10403000FF04882321F089EE92E00E94DC0F0E94A9
:10404000361080911D088823A9F090911E089230A7
:1040500009F442C208F02BC2913009F435C29091A4
:104060001C08913009F441C2923009F48DC293309A
:1040700009F411C380911C088130E9F462E08FECEF
:1040800099E00E94B80D63E08DEB99E00E94B80DB5
:1040900080911D0881110FC069E08BEA99E00E94B0
:1040A000B80D67E089E999E00E94B80D68E087E8FB
:1040B00099E00E94B80D80911C088230D1F583B13F
:1040C00090916B00892380934107809141078093F1
:1040D000400789B18F7080934D0780914D07809381
:1040E0004C0766E57BE082E00E943C0D80934E0722
:1040F00080914E0787FD1DC090E080E02CED35E0FB
:10410000FC01EE0FFF1FEC5DF84F31832083019619
:1041100089309105A9F78AE08093230710925B0705
:1041200010925C0782E080932207809122070E9410
:10413000D20C80911C08833091F44EE260EA76E85C
:1041400081E090E00E942F0380E298E090931009B4
:1041500080930F0980911109807F809311098091CC
:104160001C08843099F446E060E072EC81E090E055
:104170000E942F0380E298E09093100980930F092A
:1041800080911109807F83608093110980911C08C0
:10419000853099F446E060E072EC81E090E00E94A6
:1041A0002F0380E298E09093100980930F0980918B
:1041B0001109807F82608093110980911C088630EC
:1041C00099F446E068E478EE81E090E00E942F03E5
:1041D00080E298E09093100980930F098091110973
:1041E000807F84608093110980911C08873099F446
:1041F00046E060E072EC81E090E00E942F0380E2F4
:1042000098E09093100980930F0980911109807FA5
:1042100081608093110981E08093630744244A946C
:104220008FE0582E612C712C812C912C5401839499
:104230008DEB98E00E94AA0818161906ACF48DEBD5
:1042400098E00E94680890914F07883009F426C2D0
:104250008D3009F02AC2E92FF0E0EE5AF84F1082B3
:1042600010924F0797FF2DC280911D08882309F4F3
:1042700047C00E9457138091DF0990E0880F892F73
:10428000881F990B892BE1F18091DF098F7780934B
:10429000DF098091DD099091DE092091DD093091DF
:1042A000DE0982179307A9F72091D5093091D60925
:1042B0008217930728F12091D7093091D809281740
:1042C0003907F0F08091EE079091EF079C01220FE3
:1042D000331F820F931F2091DD093091DE09409139
:1042E000DD095091DE0924173507A9F7820F931FC6
:1042F00096958795969587959093EF078093EE070F
:1043000080911C08823009F03FC080915B078823B0
:1043100009F44CC680915C0790E0880F892F881FB4
:10432000990B892B09F442C680915C078F778093A3
:104330005C0781E08093ED07809110080E942E0CAD
:104340009093EF078093EE07809111080E942E0C46
:104350009093EC078093EB07809112080E942E0C3B
:104360009093EA078093E907809113080E942E0C2E
:104370009093E8078093E707809114080E942E0C21
:104380009093E6078093E50780911C088350853061
:1043900008F09FC680910F0990911009892B09F4AC
:1043A00083C60E940E0580911209681B770B64304A
:1043B000710594F00E940E05609312098091110915
:1043C0008F70823009F405C608F0F3C5882309F41C
:1043D000F7C5813009F4FBC506E1BEE0CB2E1DE038
:1043E000E12E8BE0D82E80910F0990911009DC010D
:1043F000ED91FC910084F185E02D099518161906C0
:104400000CF052C60E940E056093120980910F09AC
:1044100090911009DC01ED91FC910284F385E02D6F
:104420000995F82E182FE0911309E150E731D8F6DD
:10443000F0E0E35EFD4D0C942F34F027FB270A28B3
:10444000A328BB28DB281D292B2946295C297D2987
:10445000C429D029E329062A3F2A4A2A5D2A6D2A3F
:104460007D2A902AAA2ACE2A0C968039910509F035
:1044700093CCC3CC88E09E3009F405CD82E09F3018
:1044800009F401CD84E0903109F4FDCC81E0913153
:1044900009F4F9CC692F6651770BAB01F0CC0E947F
:1044A000FF04882309F4BBCD8DEA92E0B6CD9330AA
:1044B000A9F0943009F0D3CD1092210791E09093A8
:1044C000200790931F07CBCD98E09093210710927F
:1044D000200710921F07C3CD90E1F7CF98E090938B
:1044E000210791E090932007F4CF0FB70B838091C1
:1044F000D3090E94850CF894E0910708F091080810
:1045000019E0EF3CF10789F58091D1099091D2092A
:1045100090930808809307080B810FBF80911D08B6
:104520002FEC39E030935B0920935A098F71806238
:1045300080935909109261098091620990916309F1
:1045400020916409207F29602093640983719C77FE
:1045500092609093630980628F7E809362091092CB
:104560005D0910925E0986CDFC013097A9F2828127
:10457000938129E08F3C9207B9F78091D1099091FE
:10458000D20993838283C8CF809122070E94850C31
:104590008AE0809323079091220788EF890F843067
:1045A00068F081E022EF290F243008F480E0943095
:1045B00030F480911D0825E839E0B4CF80E020E098
:1045C00090E03CE0389FD001399FB00D1124A25CEF
:1045D000B84F36E0389FA001399F500D1124622F4B
:1045E000022E000C770B3C913617170611F30CF3D3
:1045F000FA01E60FF71FEE0FFF1FEA5CF84F00818C
:10460000118106551B4011F02F5FE9CF27FDD1CF57
:10461000118210824C914150550B6417750779F146
:10462000622F2CE0289FA001299F500D1124425C8D
:10463000584F5C834B8346E0489F9001499F300D63
:104640001124E62FF0E0AB81BC814C914150550B19
:10465000E417F507A4F4DF011196A20FB31FAA0F08
:10466000BB1FAA5CB84F4D915C91E20FF31FEE0F98
:10467000FF1FEA5CF84F518340836F5FE2CF2CE06D
:10468000289FF001299FF00D1124EA5CF84F8085E6
:10469000815080878ECF2DE039E044CF992309F4F3
:1046A000E3CD915090934F07DFCD983038F4E92F48
:1046B000F0E0EE5AF84F80839F5FF4CF10924F07DF
:1046C000D3CD80915207883479F00CF03AC181340F
:1046D00009F4C7C30CF093C08B3209F488C38D3240
:1046E00009F4A1C381115BC40E94FF04882321F057
:1046F0008BE093E00E94DC0F0E94FF04882321F0EE
:1047000086EF94E00E94DC0F0E94FF04882321F0D2
:1047100086E193E00E94DC0F0E94FF04882321F0D1
:1047200083E393E00E94DC0F0E94FF04882321F0C2
:1047300086E493E00E94DC0F80911C08823040F0F8
:104740000E94FF04882321F086E893E00E94DC0F9A
:104750000E94FF04882321F08EED93E00E94DC0F7D
:104760000E94FF04882321F08DEF93E00E94DC0F6C
:104770000E94FF04882321F080E294E00E94DC0F75
:104780000E94FF04882321F08AE394E00E94DC0F5A
:104790000E94FF04882321F083E594E00E94DC0F4F
:1047A0000E94FF04882321F087E694E00E94DC0F3A
:1047B0000E94FF04882321F086E794E00E94DC0F2A
:1047C0000E94FF04882321F08CE894E00E94DC0F13
:1047D0000E94FF04882321F088ED94E00E94DC0F02
:1047E0000E94FF04882321F087E592E00E94DC0FFD
:1047F0001092530782E597E00E94451235CD84342C
:1048000009F455C3853409F4F0C1833409F0C7C3F2
:104810000E94FF04882321F084EF94E00E94DC0FC3
:1048200080911C08813031F50E94FF04882311F12A
:104830008CE095E09F938F9383E195E09F938F9316
:104840008AE195E09F938F938DE394E09F938F93FC
:104850001F9284E68F93E1E7F7E0FF93EF930E94C6
:10486000892E81E797E00E94DC0F0FB6F894DEBF37
:104870000FBECDBF80911C08823071F50E94FF04ED
:10488000882351F1E0911C08E150FF0BEE0FFF1F50
:10489000EB5BFE4F81818F9380818F9383E295E064
:1048A0009F938F938AE195E09F938F9389E194E0A2
:1048B0009F938F931F9284E68F9341E757E05F9316
:1048C0004F930E94892E81E797E00E94DC0F0FB67C
:1048D000F894DEBF0FBECDBF80911C08833008F472
:1048E00087CF0E94FF04882309F482CFE0911C083F
:1048F000E150FF0BEE0FFF1FEB5BFE4F81818F93AB
:1049000080818F938AE295E09F938F938AE195E06F
:104910009F938F9383EF93E09F938F931F9284E6EF
:104920008F93A1E7B7E0BF93AF930E94892E81E7F1
:1049300097E00E94DC0F0FB6F894DEBF0FBECDBF2C
:1049400057CF833509F462C0D4F4803509F472C1BD
:10495000823509F405C38D3409F021C38091E20743
:1049600091E089278093E207882309F446C00E94DA
:10497000FF04882309F43CCF8DE295E037CF8835DA
:1049800009F476C2893509F4A4C2863509F007C353
:10499000809153078D3309F002C384E597E00E94AC
:1049A0005C2E7C018FEF8E0D8E3108F023CF0E949C
:1049B000FF04870111278823C1F01F930F938FE213
:1049C00095E09F938F931F9284E68F9321E737E0C2
:1049D0003F932F930E94892E81E797E00E94DC0F7E
:1049E0000FB6F894DEBF0FBECDBFE0921508C80128
:1049F0000E949D090E94840EFBCE0E94FF04882322
:104A0000C9F387E495E00E94DC0FF4CF809153074F
:104A10008D3309F0E4C080915407873519F40E9462
:104A2000E60FE8CF893431F586E597E00E945C2EE9
:104A300080931C080E94FF048823E1F2E0911C0887
:104A4000E150FF0BEE0FFF1FEB5BFE4F81818F9359
:104A500080818F938CE195E09F938F931F9284E6E2
:104A60008F9381E797E09F938F930E94892E81E730
:104A700097E024C0813351F580915507803209F0C9
:104A8000B9CF86E597E00E945C2E809310080E94C3
:104A9000FF04882309F4AECF809110081F928F93F2
:104AA00080E195E09F938F931F9284E68F9301E7B7
:104AB00017E01F930F930E94892EC8010E94DC0FFC
:104AC0000FB6F894DEBF0FBECDBF94CF823301F591
:104AD00080915507803209F08DCF86E597E00E94DE
:104AE0005C2E809312080E94FF04882309F482CF71
:104AF000809112081F928F9383E095E09F938F938C
:104B00001F9284E68F9361E777E07F936F93ADCF39
:104B1000833301F580915507803209F06BCF86E52C
:104B200097E00E945C2E809311080E94FF04882366
:104B300009F460CF809111081F928F9386EF94E063
:104B40009F938F931F9284E68F93E1E7F7E0FF93A3
:104B5000EF938BCF843301F580915507803209F0B4
:104B600049CF86E597E00E945C2E809313080E944F
:104B7000FF04882309F43ECF809113081F928F937E
:104B800084EE94E09F938F931F9284E68F9341E786
:104B900057E05F934F9369CF853309F02BCF809116
:104BA0005507803209F026CF86E597E00E945C2EFB
:104BB000809314080E94FF04882309F41BCF80917E
:104BC00014081F928F9383ED94E09F938F931F920D
:104BD00084E68F93A1E7B7E0BF93AF9346CF8F33BF
:104BE00009F0DDC10E94361003CE84E597E00E94F3
:104BF0005C2E863008F0D3C180931F080E94FF040A
:104C0000882309F4F7CEE0911F08F0E0EE0FFF1FB4
:104C1000ED5CFE4F81818F9380818F9385EC94E0D2
:104C20009F938F931F9284E68F9321E737E03F9302
:104C30002F931BCF809153078F3309F0B0C1809120
:104C40005107882309F4D0C00E94FF04882321F073
:104C500087E592E00E94DC0F0E94FF04882321F088
:104C600080E695E00E94DC0F0E94FF04882321F07B
:104C70008EE795E00E94DC0F0E94FF04882321F05C
:104C800080E695E00E94DC0F82E40E94A5090E9464
:104C9000FF048823E1F082E490E00E9456129F9383
:104CA0008F9388E994E09F938F931F9284E68F936C
:104CB00081E797E09F938F930E94892E81E797E089
:104CC0000E94DC0F0FB6F894DEBF0FBECDBF83E4A9
:104CD0000E94A5090E94FF048823D9F083E490E094
:104CE0000E9456129F938F9385E894E09F938F9331
:104CF0001F9284E68F9301E717E01F930F930E94A2
:104D0000892EC8010E94DC0F0FB6F894DEBF0FBEDB
:104D1000CDBF84E40E94A50984E490E00E9456126D
:104D20000E94FF04882309F1E0911F08F0E0EE0FD4
:104D3000FF1FED5CFE4F81818F9380818F9384E70D
:104D400094E09F938F931F9284E68F9361E777E0BF
:104D50007F936F930E94892E81E797E00E94DC0F7A
:104D60000FB6F894DEBF0FBECDBF88E40E94A50940
:104D70000E94FF048823E1F088E490E00E9456122C
:104D80009F938F9382E694E09F938F931F9284E684
:104D90008F93E1E7F7E0FF93EF930E94892E81E77D
:104DA00097E00E94DC0F0FB6F894DEBF0FBECDBFB8
:104DB0008CE40E94A5090E94FF04882309F418CD01
:104DC0008CE490E00E9456129F938F938EE494E0BF
:104DD0009F938F931F9284E68F9341E757E05F93F1
:104DE0004F930E94892EA3CD8CE995E0FFCC0E94C1
:104DF000FF04882321F08FEA95E00E94DC0F809168
:104E000063078F5F8093630790915D079817C8F4DD
:104E1000909363070E94FF04882399F086EB95E046
:104E20000E94DC0F0EC00E94FF04882321F08CEC4E
:104E300095E00E94DC0F80916307815041F08093E0
:104E400063078091630790E00E94A109D1CC81E0C3
:104E5000809363070E94FF04882399F383ED95E014
:104E6000DFCF0E94FF04882361F389EE95E0D8CF5D
:104E70008091600781110BC08EE00E94A5090E94FD
:104E8000FF04882321F080EF95E00E94DC0F8091E1
:104E90006007813009F0ACCC8DE00E94A5090E942A
:104EA000FF04882309F4A4CC88EF95E09FCC80917F
:104EB0001D08882339F08091500791E0892780935D
:104EC000500796CC8091640791E08927809364070E
:104ED0008FCC809153078D3309F061C084E597E052
:104EE0000E945C2E8C01909155079032E1F0009366
:104EF0001D0881110DC00E94FF04882321F08FEF4F
:104F000095E00E94DC0F80911D08882309F472CD82
:104F10000E94FF04882309F46DCD11271F930F937E
:104F20008FEA94E052CE8823C1F000931D0886E5F5
:104F300097E00E945C2E80931E080E94FF04882345
:104F400009F458CDE0911E08E150FF0BEE0FFF1F52
:104F5000E55DFE4F8081918156CD10921E084ACDAD
:104F60000E94FF04882321F08DE096E00E94DC0F70
:104F700010E000E060E0C8010E943F310F5F1F4F6A
:104F8000011524E01207B1F782E00E9468050E9433
:104F9000FF04882309F42CCC89E196E027CC6BEA46
:104FA00074E082E597E00E947A2E24CC1092ED07FF
:104FB000EBC9833081F0843009F00ECA80E104C06F
:104FC00080E18093150981E08093130905CA84E08C
:104FD000FBCF87E0F9CF8EE0809315098CE0F4CF0A
:104FE0008F3031F40093140982E080931309FBC9D8
:104FF00010921309F8C980911409E82FF0E0E35FDB
:10500000F64FF1868150809314098F3F09F0EBC968
:1050100083E0EBCF811195C0809114098F3F09F097
:1050200090C020E0F12C30E060EB76E1EF2DF0E075
:10503000D501C401022E04C0880F991FAA1FBB1FEF
:105040000A94D2F78D839E83AF83B887EE0FFF1F3C
:10505000E35FF64F01A512A5472F50E0435F564F7F
:10506000DA0119964C9150E0032E02C055954795F0
:105070000A94E2F78D819E8140FF5CC0802B912BCA
:1050800092A781A73F5F2F5F383011F4715030E055
:105090002B3011F4F39420E0615041F68FEF8093B0
:1050A000580981E08093130980911D08882309F431
:1050B000AFC20E94571380911E08833050F4609154
:1050C00010088DE099E00E94FF099093EF0780930C
:1050D000EE0780911D0881110CC58091ED078111AB
:1050E000E5C20E940E05009181091091820920916C
:1050F000830930918409601B710B820B930B6A3F0B
:1051000071058105910508F4D5C210911101612F37
:1051100085E00E943E0481E01827109311010E944F
:105120000E0560938109709382098093830990939F
:105130008409C0C2809590950823192312A701A75E
:10514000A1CF81E052CF8FE58F0D823008F050CF94
:105150008CE0113A09F080E180931509109214094E
:105160006F2D90E080E00E94D409909357098093BE
:10517000560985E03ACFE091140911E01E0F109313
:105180001409F0E0E35FF64F8187682F809156099C
:10519000909157090E94D40990935709809356091A
:1051A0008091150990E0880F991F181719060CF4C3
:1051B0001AC986E01ACF109114091F5F10931409C1
:1051C000682F80915609909157090E94D4099093B5
:1051D000570980935609F09015092F2D30E02F5F65
:1051E0003F4F220F331F121713060CF4FCC8892BF4
:1051F00009F0FECE06E119E0E12CFE14D1F0F80131
:10520000219131918F01322723273227A8E7B5E07A
:105210000E94D031A30192010E944D31205E3C4F8B
:105220004F4F5F4FD8015F963C932E935E97E39468
:10523000E4CF8FEF8093580937CF883A09F0D8CE62
:1052400068EA90E080E00E94D40990935709809327
:10525000560988E0CACE8F77813009F0C9CE6F2D0C
:1052600080915609909157090E94D409909357094B
:105270008093560991E0113809F090E0809111096E
:1052800090FB84F98093110989E0AFCE8EEF8F0DEA
:105290008F3008F0ADCE6F2D80915609909157094F
:1052A0000E94D4099093570980935609F0921509EA
:1052B000109214098AE099CEE091140911E01E0FB2
:1052C00010931409F0E0E35FF64F8187682F809117
:1052D0005609909157090E94D409909357098093D9
:1052E00056098091150990E0880F991F1817190623
:1052F0000CF479C8D092130976C8109114091F5F75
:1053000010931409682F80915609909157090E94B3
:10531000D4099093570980935609F09015092F2DC1
:1053200030E02F5F3F4F220F331F121713060CF48C
:105330005AC8892B09F05CCE06E119E0E12CFE1475
:1053400009F477CFF801219131918F01322723277A
:10535000322750E040E020523C4141095109A0EB86
:10536000B4E00E946C3120E835E240E050E00E9459
:105370004D312C573C4F4F4F5F4FD8015F963C93B8
:105380002E935E97E394DBCF803209F02CC8EFEDCB
:10539000FFEFF0935709E0935609E092130923C8F1
:1053A000803409F025CE8091560990915709805498
:1053B0009109909357098093560910921409C0924D
:1053C00013090C94F321E091140921E02E0F20938E
:1053D0001409F0E0E35FF64F8187809156099091C0
:1053E00057098F1991099093570980935609809115
:1053F000150990E0880F991FFFE02817190614F48B
:105400000C94F321F09313090C94F32120911409C7
:10541000E22FF0E0E35FF64F81872F5F20931409BE
:1054200040911509842F90E00196880F991F281745
:10543000190614F40C94F321835F964FDC01179640
:105440008C913F2C212C820D932D911D209156097A
:10545000309157092817390709F0CACDE6E1F9E07C
:1054600020E0421731F081919191978F868F2F5FC5
:10547000F8CF8FEF809358091092130915CE8E3311
:1054800009F0B6CDEDEFF8EDF0935709E09356092A
:10549000F1E1B8CF833009F0ABCD63E080915609DC
:1054A000909157090E94AE05909357098093560931
:1054B00012E1109313090C94F321682F809156097F
:1054C000909157090E94AE05909357098093560911
:1054D00023E1209313090C94F321682F809156093E
:1054E000909157090E94AE059093570980935609F1
:1054F00034E1309313090C94F321813309F078CD12
:1055000061E380915609909157090E94AE059093EE
:1055100057098093560945E1409313090C94F321F0
:1055200088EF8F0D893108F063CD8F2D869580939C
:105530001509109214096F2D809156099091570901
:105540000E94AE0590935709809356090093130962
:105550000C94F321E091140911E01E0F109314092B
:10556000F0E0E35FF64F8187682F809156099091B4
:1055700057090E94AE059093570980935609809170
:10558000150990E0880F991F1817190614F40C9448
:10559000F32157E1509313090C94F321209114093E
:1055A000E22FF0E0E35FF64F81872F5F209314092D
:1055B00040911509842F90E00196880F991F2817B4
:1055C000190614F40C94F321835F964FDC011796AF
:1055D0008C91FA821982E981FA81E80FF11D2091FC
:1055E0005609309157092E173F0709F001CDE6E122
:1055F000F9E020E0421709F43CCF8191919153E00A
:10560000969587955A95E1F7978F868F2F5FF2CF02
:1056100020915809822F90E0880F892F881F990BBD
:10562000892B09F404C32F772093580981E08093D4
:10563000ED078091E4078F5F8436A8F58093E40737
:10564000609110088DE099E00E94FF099093EF07A8
:105650008093EE07609112088DE099E00E94FF09A7
:105660009093EA078093E907609111088DE099E033
:105670000E94FF099093EC078093EB076091130859
:105680008DE099E00E94FF099093E8078093E70777
:10569000609114088DE099E00E94FF099093E6075D
:1056A0008093E50716CD1092E407CACF61E085E04C
:1056B0000E943E048091E207882309F47CC0009197
:1056C000EE071091EF070115110509F427C280912B
:1056D000DA0781110DC00E940E056093D607709302
:1056E000D7078093D8079093D90781E08093DA0792
:1056F0000E940E05C090D607D090D707E090D8073B
:10570000F090D9076C197D098E099F096A3F7105D0
:105710008105910508F44FC00E940E056093D607DD
:105720007093D7078093D8079093D9070C3DF5E085
:105730001F0708F0E1C180911A0890911B08081713
:10574000190720F410931B0800931A088091180879
:105750009091190820911A0830911B08820F931F0D
:10576000969587959093170880931608C8010E9414
:10577000000F8FE296E00E94DC0F80911A08909152
:105780001B080E94000F8FE296E00E94DC0F8091C0
:105790001608909117080E94000F8FE296E00E9471
:1057A000DC0F80911808909119080E94000F8DEB72
:1057B00098E00E9441128091690781110DC00E94FA
:1057C0000E05609365077093660780936707909353
:1057D000680781E0809369070E940E0500916507C4
:1057E000109166072091670730916807601B710B65
:1057F000820B930B653F71408105910508F469C1E7
:105800000E940E0560936507709366078093670793
:105810009093680780916407882309F478C00E94F8
:10582000FF04882331F08091EE079091EF070E94EA
:10583000000F0E94FF04882321F08FE296E00E946F
:10584000DC0F0E94FF04882331F08091EB079091D8
:10585000EC070E94000F0E94FF04882321F08FE2D2
:1058600096E00E94DC0F0E94FF04882331F08091B3
:10587000E9079091EA070E94000F0E94FF04882325
:1058800021F08FE296E00E94DC0F0E94FF04882343
:1058900031F08091E7079091E8070E94000F0E9485
:1058A000FF04882321F08FE296E00E94DC0F0E9423
:1058B000FF04882331F08091E5079091E6070E946C
:1058C000000F0E94FF04882321F08FE296E00E94DF
:1058D000DC0F0E94FF048823D1F0809163071F92A0
:1058E0008F938EE495E09F938F931F9284E68F931E
:1058F000E1E7F7E0FF93EF930E94892E81E797E0BD
:105900000E94DC0F0FB6F894DEBF0FBECDBF209112
:10591000EE073091EF07109161072115310509F469
:1059200025C1C0901A08D0901B08F12CE12C50E042
:1059300040E02C193D094E095F09ADE1B0E00E943D
:105940006C31209118083091190850E040E02C1972
:105950003D094E095F090E944D312F5F3F4F4F4F68
:105960005F4F2093620780916207811719F090E0E2
:105970000E949D09809162078093610784E00E94E4
:105980001504809360072091E9073091EA072115FB
:10599000310599F08091160890911708885C91095B
:1059A0002817390708F0E5C0109210018091100106
:1059B000813009F0E2C080935F072091EB073091BE
:1059C000EC072115310599F0809116089091170880
:1059D00088539F4F8217930708F0F0C010920F0171
:1059E00080910F01813009F0EDC080935E07209116
:1059F000E5073091E6072115310599F080911608E9
:105A00009091170888539F4F8217930708F0FCC0A6
:105A100010920E0180910E01813009F0F9C080933F
:105A20005E072091E7073091E80721153105F1F075
:105A30008091160890911708885C910928173907FA
:105A400018F48EE00E94A50980911608909117081D
:105A500088539F4F2091E7073091E80782179307FB
:105A600028F48091630790E00E94A1098FE3E82E5B
:105A700081E0F82E01E010E094E6D92ED7018D9157
:105A80007D010E941504892BF9F4B80182E10E947E
:105A90001A050E94FF048823B9F01F930F93E8E3CF
:105AA000F5E0FF93EF931F92DF9241E757E05F939A
:105AB0004F930E94892E81E797E00E94DC0F0FB67A
:105AC000F894DEBF0FBECDBF0F5F1F4F073011052B
:105AD000A9F680E090E0892B11F40C9418210E9423
