:100000000C94A3020C9411180C94EA170C94C317C7
:100010000C949C170C94CB020C94CB020C94751787
:100020000C94CB020C94311B0C9438180C94A71828
:100030000C94CB020C94CB020C94CB020C94CB020C
:100040000C94CB020C94CB020C94CB020C94CB02FC
:100050000C94CB020C94CB020C94CB020C942B1777
:100060000C94CB020C94FF1A0C94D91A0C94CB026A
:100070000C94CB020C94CB020C94CB020C94CB02CC
:100080000C94CB020C94CB020C94CB020C94CB02BC
:100090000C94CB020C94CB020C94CB020C94CB02AC
:1000A0000C94CB020C94CB020C94CB024D696E697C
:1000B00043683A20202025640D0A0043656E74656C
:1000C0007243683A2025640D0A004D6178694368DF
:1000D0003A20202025640D0A0053616D653A2020E6
:1000E00020202025640D0A0053746F703A202020D0
:1000F000202025640D0A004E6578743A20202020C7
:100100002025640D0A00507265763A2020202020B8
:1001100025640D0A00566F6C43683A202020202584
:10012000640D0A00566F6C3A2020202020202564A0
:100130000D0A004551204D6F64653A2025730D0A64
:100140000058616E793A204368616E6E656C2025B7
:1001500064207C2046696C7465723A2564207C209A
:10016000257300E4031C041C04540454048C048C04
:1001700004C404C404FC04FC04340534056C056C9C
:1001800005A405A405DC05DC05140614064C064C84
:100190000684068406BC06BC06F406F4062C072C6E
:1001A00007640764079C079C07D4072058616E7991
:1001B000207175616C697479203D202564002028C8
:1001C00052784E6962626C654C656E203D25640014
:1001D000204578704E6962626C654C656E3D2564A1
:1001E0000009566F6C756D653A2564202042757361
:1001F000793A25642020536F756E643A25640D0AA0
:10020000005377697463685B25642E2E315D3D0071
:10021000080B0002020200000904000001020200B3
:100220000005240010010524010101042402060533
:1002300024060001070581031000400904010002A3
:100240000A00000007050202400000070583024083
:1002500000000403090412010002EF0201404F1BD9
:100260000692000101020301537061726B46756EC4
:1002700000537061726B46756E2050726F204D692D
:1002800063726F0000C2010000000E000E000C003F
:1002900000E100000500220022002000009600007E
:1002A0000F00360036003400127A000017004300B9
:1002B00043004100807000001A004A004A004800D4
:1002C000004B00002C0071007100700040380000ED
:1002D0004A009C0099009900802500007200EA0005
:1002E000EA00E900C0120000E900DA01DA01D701F2
:1002F00060090000D701AC03AC03B103B0040000F7
:10030000B3036E076E0767072C010000DC0EC11DEA
:10031000C11DBE1D557365202573202025735841CE
:100320004E5920202853425553204E65656420695C
:100330006E766572746572290D0A00557365202505
:100340007320202573534255532028505245562D73
:100350004E4558542D504C41592F50415553452925
:10036000202853425553204E65656420696E76659A
:1003700072746572290D0A0055736520257320205B
:10038000257358414E590D0A005573652025732079
:100390002025734350504D2028505245562D4E4530
:1003A00058542D504C41592F5041555345290D0A51
:1003B000005573652025732020257358414E590D33
:1003C0000A0055736520257320202573202025738E
:1003D0000D0A00536F756E643A2025640D0A0046BD
:1003E000696C65733A2025640D0A00457175616C6E
:1003F0003A2025730D0A00566F6C20203A202564A0
:100400000D0A0053746174653A2025730D0A004586
:1004100052520058414E59204368616E6E656C20FF
:1004200025640D0A004551204D6F64653A202573FF
:100430000D0A00506C617953616D6543683A20255F
:10044000640D0A00506C6179506175736543683AB8
:100450002025640D0A005072657643683A202564B1
:100460000D0A004E65787443683A2025640D0A0031
:10047000566F6C43683A2025640D0A004D6F646521
:100480003A2025730D0A00566F6C3A25640D0A0058
:10049000536F756E643A2025640D0A005369676EC8
:1004A000616C20257320566F6C756D65206E6F74BE
:1004B00020666F756E6420210D0A00000000002484
:1004C0000027002A002D0030000000000200090F64
:1004D0000000030401000C00000000000000000008
:1004E0000000000000000000000000250028002B94
:1004F000002E003100000000002300260029002CFF
:10050000002F000404040404030405020202020490
:10051000030202020206060606060604040202029E
:1005200004040408020110408040102040804080F4
:100530000802040180402010020110801020404079
:100540002000AA1B0D2D11241FBECFEFDAE0DEBF65
:10055000CDBF16E0A0E0B1E0ECE7FAE602C00590FE
:100560000D92AA37B107D9F729E0AAE7B6E001C092
:100570001D92A93DB207E1F712E0C2EAD2E004C041
:100580002197FE010E942533C13AD107C9F70E9485
:10059000FB1C0C9431350C9400008F929F92AF920B
:1005A000BF92FF920F931F93CF93DF934B015C0198
:1005B000F42ECEE0D8E0E889F98982E08083EC85EA
:1005C000FD8510820E851F8560E079E08DE390E067
:1005D000A50194010E94C8312150310941095109F6
:1005E0005695479537952795F8012083188EEC8905
:1005F000FD89F082EA89FB89808180618083EA89B4
:10060000FB89808188608083EA89FB89808180689A
:100610008083EA89FB8980818F7D8083DF91CF9100
:100620001F910F91FF90BF90AF909F908F90089572
:100630003091F7078091F6072091F5073031E8F502
:10064000813069F5343069F482E090E0211102C014
:1006500081E090E08151984FFC0180818F7090E0A3
:10066000089582E090E0211102C081E090E0815184
:10067000984FFC018081F0E18F9FC00111249927E0
:10068000222319F023E030E002C022E030E02151C3
:10069000384FF901208122952F70822B089581E037
:1006A00090E0211102C090E080E08151984FFC0160
:1006B00080813430A1F68295D1CF813029F582E056
:1006C00090E0211102C081E090E08151984FFC013F
:1006D0008081482F50E0542F44275295507F83E06B
:1006E00090E0211102C082E090E08151984FFC011E
:1006F0009081F0E19F9FC0011124842B952B222330
:1007000009F224E030E0C3CF81E090E0211102C083
:1007100090E080E08151984FFC01808190E0982F1B
:100720008827222339F022E030E02151384FF901A7
:100730002081B3CF21E030E0F8CFFC018091EE07BB
:10074000882311F13FB7F89482E08093E90020916B
:10075000F200822F90E01816190614F481E090E060
:10076000882339F0289844E64093ED074091F10042
:100770004083222339F02091F200211103C02BE69F
:100780002093E8003FBF08958FEF9FEF08952FB7A4
:10079000F89483E08093E9009091E800892F8072BB
:1007A00095FF04C09091F20080E4891B2FBF08954B
:1007B0008091E50781110DC082E08093E10784E01C
:1007C0008093E2071092E4071092E30781E08093A0
:1007D000E50781EE97E0089581508F3008F047C01B
:1007E000E82FF0E0EA50FC4F0C9425331304170473
:1007F00005040B040F043704370437041A042004DB
:10080000240428042E0437043204809180008F775A
:10081000809380000895809180008F7DF9CF809132
:100820008000877FF5CF84B58F7784BD089584B528
:100830008F7DFBCF809190008F77809390000895FB
:10084000809190008F7DF9CF80919000877FF5CFC8
:100850008091C0008F778093C00008958091C00080
:100860008F7DF9CF8091C200877F8093C200089569
:10087000CF93DF93282F30E0F901E753FB4F8491AA
:10088000F901EE5DFA4FD491F901ED5FFA4FC49191
:10089000CC23A1F081110E94EC03EC2FF0E0EE0FCD
:1008A000FF1FEB50FB4FA591B491EC91ED2381E03C
:1008B00090E009F480E0DF91CF91089580E090E02E
:1008C000FACF1F93CF93DF93282F30E0F901E7533E
:1008D000FB4F8491F901EE5DFA4FD491F901ED5F80
:1008E000FA4FC491CC23A9F0162F81110E94EC037A
:1008F000EC2FF0E0EE0FFF1FE951FB4FA591B491F3
:100900008FB7F894EC91111108C0D095DE23DC93D9
:100910008FBFDF91CF911F910895DE2BF8CFCF933A
:10092000DF9390E0FC01EE5DFA4F24918D5F9A4FCA
:10093000FC0184918823C9F090E0880F991FFC0185
:10094000E554FB4FA591B491FC01E951FB4FC591D2
:10095000D49161110DC09FB7F8948C91209582239A
:100960008C938881282328839FBFDF91CF9108959E
:10097000623051F49FB7F8943C91822F8095832385
:100980008C93E8812E2BEFCF8FB7F894EC912E2B20
:100990002C938FBFEACF3FB7F8948091DD079091F9
:1009A000DE07A091DF07B091E00726B5A89B05C040
:1009B0002F3F19F00196A11DB11D3FBFBA2FA92FDE
:1009C000982F8827BC01CD01620F711D811D911DDB
:1009D00042E0660F771F881F991F4A95D1F7089547
:1009E0008F929F92AF92BF92CF92DF92EF92FF923F
:1009F0004B015C010E94CB046B017C010E94CB0483
:100A00006C197D098E099F09683E73408105910527
:100A1000A8F321E0821A9108A108B10888EEC80E57
:100A200083E0D81EE11CF11C81149104A104B104DF
:100A300029F7FF90EF90DF90CF90BF90AF909F90FD
:100A40008F900895CF93C09119016AE070E080E023
:100A500090E00E94F00481E0C11101C080E0CF91DC
:100A600008952FB7F8946091D9077091DA078091B3
:100A7000DB079091DC072FBF0895CF93DF9380931E
:100A80001D0110921F016093200120911B01909184
:100A90001C01290F3327331F820F932F911D2091A3
:100AA0001E01820F911D680F791F71956195710963
:100AB000709321016093220180910C0890910D08A0
:100AC000DC01ED91FC910084F185E02D0995892BE5
:100AD00061F080910C0890910D08DC01ED91FC9182
:100AE0000284F385E02D0995E7CFCAE1D1E080913A
:100AF0000C0890910D086991DC01ED91FC91019039
:100B0000F081E02D0995B1E0C432DB0781F7DF9178
:100B1000CF910C943105862720E1829FB0011124EA
:100B20008627482F50E0292F382FCA0164E0959579
:100B300087956A95E1F728273927CA0173E0880F5E
:100B4000991F7A95E1F782279327089508950895CC
:100B50004091EB065091EC062091E9063091EA06AF
:100B600042175307B4F49091E8009570E1F3909127
:100B7000E80092FD19C08093F1008091EB069091FE
:100B8000EC0601968F739927892B19F48EEF8093C9
:100B9000E8008091EB069091EC0601969093EC06AC
:100BA0008093EB0681E0089580E00895DF92EF9254
:100BB000FF920F931F93CF93DF93D82E8A01EB01FF
:100BC0007B01E40EF51ECE15DF0559F0D7FE12C0ED
:100BD000FE0184910E94A80521968111F4CF0FEFA8
:100BE0001FEFC801DF91CF911F910F91FF90EF9000
:100BF000DF9008958881EECF0F931F93CF93DF93FB
:100C00001F92CDB7DEB782E0898342E450E060E115
:100C100072E080E80E94D6050E94D803DC0112969B
:100C20000D911C910115110589F0D801ED91FC91F0
:100C30000280F381E02DBE016F5F7F4FC8010995EF
:100C400097FD04C0F80100851185ECCF89810F90D4
:100C5000DF91CF911F910F910895615030F0209155
:100C6000F100FC0120830196F8CF289884E6809358
:100C7000ED070895EF92FF920F931F93CF93DF93A9
:100C80008C017B01D0E0C0E0F701EC0FFD1F649107
:100C9000662361F0D801ED91FC910190F081E02D87
:100CA000C8010995892B11F02196EECFCE01DF9175
:100CB000CF911F910F91FF90EF900895AF92BF9247
:100CC000CF92DF92EF92FF920F931F93CF93DF9318
:100CD0006C017B018B01040F151FEB015E01AE1847
:100CE000BF08C017D10759F06991D601ED91FC9169
:100CF0000190F081E02DC6010995892B79F7C50196
:100D0000DF91CF911F910F91FF90EF90DF90CF90E7
:100D1000BF90AF900895FC01538D448D252F30E096
:100D2000842F90E0821B930B541710F0CF960895F8
:100D300001970895FC01918D828D981761F0A28D25
:100D4000AE0FBF2FB11D5D968C91928D9F5F9F73EB
:100D5000928F90E008958FEF9FEF0895FC01918DA1
:100D6000828D981731F0828DE80FF11D858D90E00E
:100D700008958FEF9FEF0895FC01918D228D892FAB
:100D800090E0805C9F4F821B91098F739927089593
:100D90008EE098E00E94BC0621E0892B09F420E057
:100DA000822F089580E090E0892B29F00E94C806E8
:100DB00081110C9400000895FC01A48DA80FB92F97
:100DC000B11DA35ABF4F2C91848D90E001968F7373
:100DD0009927848FA689B7892C93A089B1898C9192
:100DE00082748C93938D848D981306C00288F38946
:100DF000E02D80818F7D80830895EF92FF920F9385
:100E00001F93CF93DF93EC0181E0888F9B8D8C8DB6
:100E1000981319C0E889F989808185FF14C09FB7AC
:100E2000F894EE89FF896083E889F989808182746A
:100E300080839FBF81E090E0DF91CF911F910F9160
:100E4000FF90EF900895F62E0B8D10E00F5F1F4F6F
:100E50000F731127E02E8C8D8E110CC00FB607FC7E
:100E6000FACFE889F989808185FFF5CFCE010E940C
:100E7000DC06F1CFEB8DEC0FFD2FF11DE35AFF4F98
:100E8000F0829FB7F8940B8FEA89FB89808180629A
:100E9000CFCFCF93DF93EC01888D8823B9F0AA8957
:100EA000BB89E889F9898C9185FD03C0808186FD25
:100EB0000DC00FB607FCF7CF8C9185FFF2CF808174
:100EC00085FFEDCFCE010E94DC06E9CFDF91CF9107
:100ED00008958F929F92AF92BF92CF92DF92EF923E
:100EE000FF920F931F93CF93DF936C017B018A01D5
:100EF00080911901882309F45CC08091EE07882352
:100F000009F457C08091EF0680FF05C08091E00092
:100F100082608093E000E801B12C8AEFA82E93E074
:100F2000892E2AE3922E209711F4BB20D9F10E943A
:100F3000C70381110AC0AA94AA20D9F161E070E028
:100F400080E090E00E94F004EECF8C171D0611F0B7
:100F50000CF08C2F9FB7F8948092E9002091E80064
:100F600025FD02C09FBFDFCF282F30E0C21BD30B6F
:100F7000F701815020F041914093F100FACFE20E49
:100F8000F31EBB2021F09092E800B12CEBCF8091B2
:100F9000E80085FDE7CF9092E800BB24B39420974A
:100FA00009F3F3CF5D9884E68093EE0610161106E0
:100FB0003CF081E090E0F6019383828310E000E052
:100FC000C801DF91CF911F910F91FF90EF90DF90BB
:100FD000CF90BF90AF909F908F900895CF93DF9365
:100FE0001F92CDB7DEB76983DC01ED91FC910280E1
:100FF000F381E02D41E050E0BE016F5F7F4F099526
:101000000F90DF91CF91089583E08093E900809164
:10101000F200882319F08AE38093E80008950E9483
:10102000C70390E00895CF93DF931F92CDB7DEB74B
:10103000FC018485958597FD08C02FEF3FEF35872C
:1010400024870F90DF91CF910895CE0101960E94E1
:101050009D03019719F4898190E0F3CF8FEF9FEF03
:10106000F0CF0F931F93CF93DF931F92CDB7DEB7CF
:101070008C01FC018485958597FF0BC0CE010196FC
:101080000E949D03019771F4898190E0F801958792
:101090008487F801848595850F90DF91CF911F910A
:1010A0000F9108958FEF9FEFF1CFFC018485958517
:1010B00097FD0BC09FB7F89482E08093E900809180
:1010C000F2009FBF90E0019608959FB7F89482E0E8
:1010D0008093E9008091F2009FBF90E00895DC01C9
:1010E0005196ED91FC915297908150968C918095FC
:1010F0008923808308952091F3063091F406281700
:10110000390781F49091F1068091F206981751F019
:10111000E091F106F0E0E755F94F8081082E000CD0
:10112000990B08958FEF9FEF08952091F30630916A
:10113000F4062817390739F48FB7F8941092F2069D
:101140001092F1068FBF08952091F3063091F406B6
:101150002817390771F48091F2062091F10690E08A
:10116000805C9F4F821B910960E470E00E94113304
:10117000089590E080E008952091F3063091F40600
:1011800028173907B9F49091F1068091F206981763
:1011900089F0E091F106F0E0E755F94F8081209168
:1011A000F10630E02F5F3F4F2F7333272093F10676
:1011B00090E008958FEF9FEF089520E001972FEFC3
:1011C0008F3F9207D9F70895EF92FF920F931F93E5
:1011D000CF93DF93C091F306D091F406209749F0A6
:1011E000EE85FF859D858B8D81FF0AC080818923D7
:1011F00051F4DF91CF911F910F91FF90EF900895DF
:1012000080818923B1F78B899C890E94DD0888E061
:10121000E82EF12C10E001E08D899E890E94DD0806
:10122000EE85FF8580819D85892339F1102B000F84
:1012300081E0E81AF10881F78F89988D0E94DD0816
:101240008B8D81FD10958091F2062091F10690E042
:1012500001968F7399272817190699F0E091F206E5
:10126000F0E0E755F94F10838091F20690E0019687
:101270008F7399278093F206BCCF802F8095182317
:10128000D6CF8B8D81608B8FB4CF90E080E00895B6
:10129000BC0186E00C943D05BC0183E00C943D0547
:1012A00070E060E00C943D058F929F92AF92BF92E8
:1012B000CF92DF92EF92FF926C010E9431054B01B9
:1012C0005C01F12CE12C0E943105681979098A0929
:1012D0009B096C157D058E059F0540F4E091F50690
:1012E000F091F606309779F30995EDCFFF90EF90E6
:1012F000DF90CF90BF90AF909F908F9008959627EA
:1013000028E0AC01880F991F57FF04C031E2832702
:1013100030E193272150A9F708950895FC01E55B7A
:10132000FF4F9081492F50E0062E02C055954795FA
:101330000A94E2F7DA01A170BB2740FF09C021E05F
:1013400030E001C0220F6A95EAF720952923208317
:101350008A2F08956150603140F5FC0124812F707F
:1013600059F0253010F570E0660F771F680F791F70
:10137000FB0181A592A5089570E0660F771F680FA5
:10138000791FFB0121A532A5A0E0B5E00E94EA315A
:101390002FEF37E040E050E00E946731DA01C901E9
:1013A00080599C4FAF4FBF4F08958CED95E0089545
:1013B0000C94AA09BF92CF92DF92EF92FF920F9303
:1013C0001F93CF93DF930E94CB046B017C01C091EC
:1013D000F807D091F90701E010E0BB24BA942097F8
:1013E00009F459C08D8183708130D1F52091200797
:1013F000422F50E08C81843048F48823C1F1813041
:1014000099F18230B9F522E030E01AC098EF980FD8
:10141000682F6450770B943058F08E3029F18F305C
:1014200091F3803121F1813129F1682F6651770BD9
:101430009B01B80102C0660F771F2A95E2F79B0156
:1014400024233523232B61F00E9438049D8192FBD5
:10145000992790F9981789F0CA86DB86EC86FD8675
:101460000A80DB81C02DBBCF28E030E0E9CF24E04B
:1014700030E0E6CF21E030E0E3CF8A859B85AC8584
:10148000BD859601281B390B3F872E87B88A0E949D
:101490003105698BE5CFDF91CF911F910F91FF90BF
:1014A000EF90DF90CF90BF900895BF92CF92DF92E0
:1014B000EF92FF920F931F93CF93DF930E94CB0481
:1014C0006B017C01C091F807D091F907BB24BA9455
:1014D00001E010E0209709F458C08D818370D1F5A8
:1014E00020911407422F50E08C81843048F48823E7
:1014F000C1F1813099F18230B9F522E030E01AC0B3
:1015000098EF980F682F6450770B943058F08E3016
:1015100029F18F3091F3803121F1813129F1682F48
:101520006651770B9B01B80102C0660F771F2A95A1
:10153000E2F79B0124233523232B61F00E9438041A
:101540009D8192FB992790F9981789F0CA86DB86CE
:10155000EC86FD860A80DB81C02DBCCF28E030E020
:10156000E9CF24E030E0E6CF21E030E0E3CF8A8528
:101570009B85AC85BD859601281B390B3F872E873F
:10158000B88A0E943105698BE5CFDF91CF911F9119
:101590000F91FF90EF90DF90CF90BF900895FC01E6
:1015A000868597852685378582179307C9F708951D
:1015B000FC01808990E0062E02C0959587950A94DB
:1015C000E2F780FF1CC0208981E090E001C0880F15
:1015D0006A95EAF780958223808B268537858685F4
:1015E000978528173907C9F7868197812817390702
:1015F00030F081E0408551854217530708F480E0C0
:1016000008950C94D80AE09123073CE0E39FF00191
:101610001124E55FF84F21858091F706843008F0AA
:1016200059C08091F706882309F486C08091F70697
:10163000813009F47BC08091F706823009F479C0CB
:101640008091F706833009F47AC08091F7068730DD
:1016500009F469C090E080E0E09123074CE0E49F4A
:10166000F0011124E55FF84F3385232330E0822316
:101670009323892B09F483C00E94CB0420919B06FD
:1016800030919C06AB01421B530B9A0170939C0650
:1016900060939B06283B5BE0350708F45EC0209111
:1016A000F806209330071092F8062FEF20933107A9
:1016B00030919A0620919A062E7F30FF2160209368
:1016C0009A0620919A0620FF3DC070939906609378
:1016D000980608958091F706883080F08091F7068B
:1016E0008C3060F44091F7064450550B81E090E057
:1016F00002C0880F991F4A95E2F7AECF8091F70696
:101700008E30A1F08091F7068F3099F08091F70626
:10171000803191F08091F706813189F04091F70690
:101720004651550BE3CF80E190E096CF88E090E002
:1017300093CF82E090E090CF84E090E08DCF81E085
:1017400090E08ACF2091980630919906621B730B26
:10175000709397066093960608958091F8068930F5
:1017600070F4E091F806F0E0EE0FFF1FE750F94F3C
:10177000318320838091F8068F5F8093F806089567
:101780002091310730E0062E02C0359527950A9446
:10179000E2F7C9018170992720FF0CC04091310701
:1017A00021E030E001C0220F6A95EAF7209524235A
:1017B000209331070895882399F090913007981766
:1017C00078F08150E82FF0E0EE0FFF1FE750F94F5F
:1017D000808191812081318182179307C9F7089513
:1017E0008CED95E00895862F0C94DB0B89B18F70FA
:1017F000EBE0F7E0878B868997898927858B878936
:10180000868B0288F389E02D099489B18F70EBE013
:10181000F7E0878B868997898927858B8789868BCF
:101820000088F189E02D099489B18F70EBE0F7E031
:10183000878B868997898927858B8789868B0684FC
:10184000F785E02D099489B18F70EBE0F7E0878B85
:10185000868997898927858B8789868B0484F58576
:10186000E02D0994843088F49DB3882341F08130C1
:1018700041F0823041F081E0892B8DBB089584E0F6
:10188000FBCF88E0F9CF82E0F7CF28EF280F243094
:1018900040F092EF980F943020F096EE980F93302E
:1018A000D0F590916800243050F032EF380F34308A
:1018B00030F036EE380FF0E0E0E0333010F4E8E6D8
:1018C000F0E091609083243050F092EF980F9430C4
:1018D00030F096EE980FF0E0E0E0933010F4EBE695
:1018E000F0E030812430C0F491E0682F6450770B31
:1018F00001C0990F6A95EAF7932B243048F022EF44
:10190000280F243028F08A51F0E0E0E0833010F412
:10191000EBE6F0E09083089598E08E3069F392E072
:101920008F3051F394E0803139F391E0813121F32C
:10193000682F6651770BDCCFCF93DF93982F88EF1A
:10194000890F843028F081E022EF290F243008F439
:1019500080E0282F30E09430A0F59230D1F49CE064
:10196000929FF001939FF00D1124E55FF84F738370
:10197000628324E13CE030930701209306019091BB
:101980006900937F946090936900E99ADF91CF9109
:1019900008959CE0929FF001939FF00D1124E55F64
:1019A000F84F7183608323E23CE03093050120937C
:1019B0000401909169009C7F916090936900E89A7E
:1019C000E5CF50E040E096E0929FE001939FD00D7C
:1019D0001124DE01A40FB51FAA0FBB1FA55FB84FCE
:1019E000ED91FC91E617F70789F24F5F5F4F4430A6
:1019F000510579F79CE0929FD001939FB00D11247F
:101A0000A55FB84F18969C911897943010F08FEFFF
:101A1000BDCF1896EC911897EC0FFD2FF11DEE0F2E
:101A2000FF1FE55FF84F7183608318969C911897AC
:101A30009F5F18969C93AACF1F93CF93DF93EC01DF
:101A4000162F98EF960F8D818C7F943088F18160EE
:101A50008D836AED79E0812F0E949C0C982F937002
:101A60008D818C7F892B8D831C8388E592E09F83F9
:101A70008E8380E699E0998788878091F807909116
:101A8000F9079B838A83D093F907C093F80760E036
:101A9000812F0E948F0461E08C810E9461048C81FF
:101AA0000E94320C8D818370DF91CF911F91089538
:101AB0008D8365E57AE0CFCFDF92EF92FF920F93AF
:101AC0001F93CF93DF93EC01898D9A8D892B71F44D
:101AD00081E090E09B838A8390E080E0DF91CF916A
:101AE0001F910F91FF90EF90DF900895162FDFB6B2
:101AF000F8948B8D81FD28C0CE010E946F08898DDE
:101B00009A8D0E94DD088B8D98E0E92EF12C01E082
:101B100081FF28C0812F8023F1F0CE010E946F0841
:101B2000898D9A8D0E94DD08000F81E0E81AF10886
:101B300089F7CE010E946F08DFBE898D9A8D0E94C1
:101B4000DD0881E090E0CACFE989FA89808198892F
:101B5000892B8083D4CFE989FA8980819889892B60
:101B60008083DECF812F8023B1F0E989FA898081DB
:101B70009889892B8083898D9A8D0E94DD08000FBA
:101B800081E0E81AF10871F7E989FA89808198897A
:101B9000892B8083D1CFCE010E946F08ECCF0F93A9
:101BA0001F93CF93DF930AEF17E0D0E0C0E0CE01A0
:101BB0000E945131F80181938F012196C231D105E4
:101BC000B1F78AEF97E0DF91CF911F910F910895C0
:101BD000FF920F931F93CF93DF930AEF17E0D0E0AC
:101BE000C0E0F801F1908F01CE010E945131F8164A
:101BF00021F06F2DCE010E9459312196C231D105BD
:101C000081F78AEF97E0DF91CF911F910F91FF90BD
:101C100008950F931F93CF93DF9300917309109151
:101C20007409602F84E690E00E945931D0E0C0E052
:101C30001127C017D107D4F48091730990917409CA
:101C4000C817D90788F480916F099091700900979F
:101C500059F08C0F9D1FFC016081CE018B599F4F65
:101C60000E9459312196E5CF60E0F7CFDF91CF9107
:101C70001F910F910895FC0180819181009711F0CF
:101C80000C94DB330895EF92FF920F931F93CF9341
:101C9000DF93EC017B018A0188819981009729F00B
:101CA0002A813B812417350788F4B8016F5F7F4F85
:101CB0000E946434009791F0998388831B830A8380
:101CC0002C813D81232B11F4FC0110821D830C8398
:101CD000B701888199810E942A350CC08881998139
:101CE000009711F00E94DB33198218821D821C823A
:101CF0001B821A82CE01DF91CF911F910F91FF902D
:101D0000EF900895FC0111821082138212821582D5
:101D10001482FB0101900020E9F73197AF01461BC7
:101D2000570B0C94430EFB0101900020E9F731970B
:101D3000AF01461B570BDC01ED91FC910280F38152
:101D4000E02D09948F929F92AF92BF92EF92FF92F3
:101D50000F931F93CF93DF93CDB7DEB7A1970FB645
:101D6000F894DEBF0FBECDBF7C01FA01CB0119A2F2
:101D7000223008F42AE08E010F5D1F4F822E912C35
:101D8000B12CA12CBF01A50194010E94C831F90119
:101D9000CA016A300CF5605DD8016E938D01232B6A
:101DA000242B252B79F790E080E0109721F0BD01DE
:101DB000C7010E94930EA1960FB6F894DEBF0FBE26
:101DC000CDBFDF91CF911F910F91FF90EF90BF900A
:101DD000AF909F908F900895695CDECFAC0170E06A
:101DE00060E02AE08BEA98E00C94A20ECF92DF929A
:101DF000EF92FF920F931F93CF93DF93EC016A0151
:101E00007B01E881F9810190F081E02D6DE2099577
:101E10008C0144275527BA014C195D096E097F09C9
:101E20002AE0CE010E94A20E800F911FDF91CF9178
:101E30001F910F91FF90EF90DF90CF900895DF9268
:101E4000EF92FF920F931F93CF93DF93D62ED0E0A4
:101E5000C0E0082F10E087E0E82EF12C80912507E4
:101E60008823A1F0C7018C1B9D0BA80102C05595CA
:101E700047958A95E2F741705527052E000C660BB1
:101E8000770B2AE08BEA98E00E94A20EC33011F48F
:101E9000D11004C02196C830D10501F7DF91CF9150
:101EA0001F910F91FF90EF90DF900895009729F018
:101EB000BC018BEA98E00C94930E90E080E00895CA
:101EC000DF92EF92FF920F931F93CF93DF938C01DA
:101ED000D62ED42F7C01C0E0CD1571F0CC2321F09B
:101EE00083EB91E00E94560F60E0F70181917F0142
:101EF0000E941F0FCF5FF0CFDD23A1F0CC2321F094
:101F000085EB91E00E94560FC00FD12FD11D61E0EB
:101F10008881DF91CF911F910F91FF90EF90DF901B
:101F20000C941F0FDF91CF911F910F91FF90EF90B5
:101F3000DF900895EAEFF7E089E9808385E0818307
:101F400086E0838387E0828389E084838AE08583D7
:101F50008BE086838CED95E09087878388EE93E015
:101F60009487838780ED97E09287818781E08587DA
:101F70001686118A8787108A46E050E067EB71E089
:101F80008FE699E00E94430E0E94090E8EEB91E0CD
:101F90000E94560F0C94E80D67E572E00C94930EC6
:101FA000CF93DF93D0E0C0E0009731F0BC018BEA23
:101FB00098E00E94930EEC018BEA98E00E94CC0F0F
:101FC0008C0F9D1FDF91CF910895CF93DF93EFE6A4
:101FD000F9E044815581608171818BEA98E00E942B
:101FE0006907EC018BEA98E00E94CC0F8C0F9D1FD3
:101FF000DF91CF9108958F929F92AF92BF92EF920F
:10200000FF920F931F93CF93DF93D82F0E94310538
:102010004B015C01C0E00E943105681979098A0909
:102020009B09683E734081059105C8F01092A70690
:102030001092A8062091A7068091A80690E0FFEFD5
:102040002F9F800D911D1124DF91CF911F910F9132
:10205000FF90EF90BF90AF909F908F90089585E094
:1020600090E00E9454098DE9E82E86E0F82E870161
:10207000D8011D928D01B6E0073A1B07C9F7809180
:102080000C0890910D08DC01ED91FC910084F18524
:10209000E02D09950A9724F180910C0890910D0884
:1020A000DC01ED91FC910284F385E02D09958F3FD1
:1020B0009807B1F0F70181937F010E171F0761F7B1
:1020C000C091A006C03409F4A6CFDC13A4CF809140
:1020D000A2068093A7068091A3068093A806AACFA4
:1020E00082E390E00E945409DC1395CFA3CF8F9236
:1020F0009F92AF92BF92CF92DF92EF92FF920F9397
:102100001F93CF93DF9300D0CDB7DEB780918E06BB
:1021100081110DC00E94310560938A0670938B0671
:1021200080938C0690938D0681E080938E0680913B
:10213000820681110DC00E94310560937E06709366
:102140007F06809380069093810681E080938206CB
:102150008091480990914909009709F4EDC0609178
:102160004709629566956770DC01ED91FC910190DD
:10217000F081E02D0995882309F4DEC0809148099B
:1021800090914909609147096F71DC01ED91FC91D3
:102190000280F381E02D0995AC0190934E09809364
:1021A0004D098091500980618093500923E631E008
:1021B00090E0F901659174914617570708F4B6C08D
:1021C000F9013296659174916417750708F4AEC0F1
:1021D00030915109432F441F4427441F80915209D5
:1021E000282F2F70220F242B2913FDC08091520914
:1021F000282F22952F702F5F2770322F3295307F36
:102200008F78832B8093520930915009432F43706C
:1022100050E04F5F5F4F2417150609F08DC0809185
:102220005109903109F0EBC0329536953770982FEF
:102230009370990F990F990F932B990F990F83789A
:10224000892B8093510990915109292F2695269524
:102250002F71322F3295330F307E809150098F715C
:10226000832B322F3695369536959C7F932B909302
:1022700051099C77943409F0CAC0877F8093500934
:1022800080914C099091500992FFF9C0863008F076
:10229000F4C0E82FF0E0E151F84F90914B099083A2
:1022A000806810924C09909150099B7F909350093F
:1022B000882309F441C091E09093CB0790917C066C
:1022C0009F5F90937C06982F9F77192F110F87FDA2
:1022D0001F5F892F90E0FC01E251F84F2081E12F30
:1022E000E170DE2E10FF12C0FC01E151F84F408179
:1022F000042E000C550BE4E055954795EA95E1F75F
:102300004F70F0E12F0290011124242B30E060E0A7
:102310000197462F50E0481759070CF0B9C04151BA
:10232000584FDA014C9134276F5FF3CF9F5F2C5FDA
:102330003F4F923109F03DCF0E94180320917A0659
:1023400030917B0682179307A1F090937B068093D0
:102350007A0630E020E0AC01022E02C05695479587
:102360000A94E2F72F5F3F4F40FFFDC2C9010E9470
:102370004C090E94310500918A0610918B0620912C
:102380008C0630918D06601B710B820B930B693BA1
:102390007B4081059105C0F00E94310560938A065B
:1023A00070938B0680938C0690938D061092CB07CA
:1023B00080912507882321F08AE592E00E94D00FC2
:1023C0001092F0071092EF070F900F90DF91CF91CE
:1023D0001F910F91FF90EF90DF90CF90BF90AF9043
:1023E0009F908F90089590FB37F930935109292FD2
:1023F00026952F708078822B80935209F7CE9F719B
:10240000990F990F8378982B909351091CCF83FDD6
:1024100027C0B0E12B9F9001112420934B098460C9
:102420008093500980E020915009922F977F23FFDD
:10243000986090935009813009F422CF823009F0DE
:102440007BCFE0914C09E63000F581E08E0F809360
:102450004C09F0E0E151F84F80914B0980836CCF3B
:1024600090914B09292B20934B098B7F8093500926
:1024700081E080934F0982E0D6CF80E012CF88239D
:1024800009F45ACF10924C0916CF10924C0954CF30
:10249000DD2031F04151584FFA018081807F38278B
:1024A0008091250795E53927321352C2882321F000
:1024B0008BEA98E00E94CC0FE12EF12C4091250789
:1024C0002091F60703E08091F50790E0880F991FAF
:1024D000BC01209F600D711D11248091F707869526
:1024E0008695860F972F911D0296E816F90609F03A
:1024F000D2C1442309F440C00E94310560938A068A
:1025000070938B0680938C0690938D068FEC91E0F0
:102510000E94560F412F50E070E060E02AE08BEA05
:1025200098E00E94A20E81EE91E00E94560F612F6A
:10253000669561504D2D8FEE97E00E94600F84EEFE
:1025400091E00E94560F0E94310500917E06109185
:102550007F062091800630918106AB01BC01401BB3
:10256000510B620B730B2AE08BEA98E00E94A20EDB
:102570008BEA98E00E94CC0F8091F607813009F039
:1025800077C080912507882309F472C06091EF0716
:1025900080E1689FB00111248091F00790E054E041
:1025A000959587955A95E1F7680F791F90E080E03F
:1025B0000E94323020E030E044EB53E40E9493303C
:1025C00020E030EF4FE755E40E9466326B017C015A
:1025D00088EE91E00E94560F2091EF0790E1299F2D
:1025E000900111249091F007892F90E064E0959577
:1025F00087956A95E1F7820F931F0E94EE0E8FEE8A
:1026000091E00E94560FA7019601C701B6010E94F2
:102610000C3362EF71E0811123C02FEF3FEF4FE7E2
:102620005FE7C701B6010E940C3381110CC02FEF88
:102630003FEF4FE75FE7C701B6010E942D3066EF1D
:1026400071E018166CF02FEF3FEF4FE75FE4C70122
:10265000B6010E94073318160CF0D3C06AEF71E080
:102660008BEA98E00E94930E8EEF91E00E94560F45
:102670008091F5078130C9F4809109088330A9F46D
:102680008091F607813009F0F8C08091F007A0E151
:102690008A9F900111248091F10782958F70822B7F
:1026A00090E09093D7078093D6071091F7071123F6
:1026B000D9F1009125070E9418039A83898300238A
:1026C000E1F00E9422058823C1F01F921F9381E050
:1026D00092E09F938F931F9284E68F9389E597E012
:1026E0009F938F930E947F2D89E597E00E94560F5C
:1026F0000FB6F894DEBF0FBECDBF6091F707603113
:1027000009F0BEC089819A819827892798279A83E2
:10271000898341E0643009F040E0669566956695EE
:10272000CE0101960E94600F80912507882381F1D8
:102730000E942205882311F180913F071F928F93F9
:1027400080913C071F928F9380913E071F928F9339
:1027500081EE91E09F938F931F9284E68F9389E59A
:1027600097E09F938F930E947F2D89E597E00E94C9
:10277000560F0FB6F894DEBF0FBECDBF0E943105D5
:1027800060937E0670937F06809380069093810607
:1027900080917C06843608F4CFCD8091250788236C
:1027A00009F4CACD8BEA98E00E94CC0F0E94220562
:1027B0008823F1F080917C0690917D06891B990B0E
:1027C0009F938F938BEA91E09F938F931F9284E660
:1027D0008F9389E597E09F938F930E947F2D89E5E2
:1027E00097E00E94560F0FB6F894DEBF0FBECDBF24
:1027F00085E592E00E94560F10927C0610927D06AD
:102800009BCD2FEF3FEF4FE75FECC701B6010E9472
:102810002D3087FD23CF2DEC3CEC4CE45DE3C7016C
:10282000B6010E94FA316B017C010E94D8324B0143
:102830005C010E9432309B01AC01C701B6010E94CD
:10284000F9316B017C012AE0B501A4018BEA98E023
:102850000E94A20E6EE28BEA98E00E94EE0720E052
:1028600030E040E251E4C701B6010E9493300E947B
:10287000D832CB010E94EE0EF7CE8091EF0710CF39
:10288000643009F046CF89819A8144E0880F991F0E
:102890004A95E1F73CCF442309F47ACF80917D0635
:1028A0008F5F80937D0683E092E00E94560F0E9426
:1028B0002205882361F12091F6078091F50790E0C9
:1028C000880F991FAC01209F400D511D112480914C
:1028D000F70786958695840F952F911D02969F93F5
:1028E0008F9380ED91E09F938F931F9284E68F9357
:1028F00089E597E09F938F930E947F2D89E597E06C
:102900000E94560F0FB6F894DEBF0FBECDBF0E94D7
:1029100022058823C1F0FF92EF928EEB91E09F9306
:102920008F931F9284E68F9389E597E09F938F930F
:102930000E947F2D89E597E00E94560F0FB6F8940C
:10294000DEBF0FBECDBF87E192E00E94D00F20CF47
:10295000882309F41DCF80917D068F5F80937D06CB
:1029600085E392E0F2CF2031310509F0F4CC01CDBE
:102970006F927F928F929F92AF92BF92CF92DF928F
:10298000EF92FF920F931F93CF93DF9300D000D06D
:1029900000D0CDB7DEB76DB67EB60E94CF0D809168
:1029A000FA07893921F10E949A0F64EF71E080E003
:1029B00090E00E94F0040E94B8140FB6F8947EBE16
:1029C0000FBE6DBE26960FB6F894DEBF0FBECDBF0C
:1029D000DF91CF911F910F91FF90EF90DF90CF90FB
:1029E000BF90AF909F908F907F906F90089589E7F0
:1029F00092E00E94560FE0910708E150FF0BEE0FA6
:102A0000FF1FEF5AFE4F808191810E94D00F80916D
:102A10000808882309F4A2C10E942205882371F1C5
:102A2000E0910908E150FF0BEE0FFF1FE95CFE4F3C
:102A300081818F9380818F9380910B081F928F9358
:102A4000809108081F928F9381E491E09F938F9368
:102A50001F9284E68F9389E597E09F938F930E945E
:102A60007F2D89E597E00E94560F2DB73EB7245F72
:102A70003F4F0FB6F8943EBF0FBE2DBF0E942205F8
:102A8000882321F1E0910A08F0E0EE0FFF1FE15CDE
:102A9000FE4F81818F9380818F9383E391E09F9399
:102AA0008F931F9284E68F9389E597E09F938F938E
:102AB0000E947F2D89E597E00E94560F8DB79EB743
:102AC00008960FB6F8949EBF0FBE8DBF0E942205D8
:102AD0008823E9F0809100081F928F9384E291E0AF
:102AE0009F938F931F9284E68F9389E597E09F933E
:102AF0008F930E947F2D89E597E00E94560FEDB7D6
:102B0000FEB738960FB6F894FEBF0FBEEDBF8091AA
:102B10000808882309F427C180910908833009F047
:102B200022C187E992E00E94560F0E942205882365
:102B3000E9F08091FD071F928F9386E091E09F93CB
:102B40008F931F9284E68F9389E597E09F938F93ED
:102B50000E947F2D89E597E00E94560F8DB79EB7A2
:102B600008960FB6F8949EBF0FBE8DBF0E94220537
:102B70008823E9F08091FC071F928F9387EF90E004
:102B80009F938F931F9284E68F9389E597E09F939D
:102B90008F930E947F2D89E597E00E94560FEDB735
:102BA000FEB738960FB6F894FEBF0FBEEDBF0E9479
:102BB00022058823F1F08091FE071F928F9388EE03
:102BC00090E09F938F931F9284E68F9389E597E01F
:102BD0009F938F930E947F2D89E597E00E94560F67
:102BE0002DB73EB7285F3F4F0FB6F8943EBF0FBEDC
:102BF0002DBF0E9422058823E9F08091FF071F92D4
:102C00008F9389ED90E09F938F931F9284E68F932B
:102C100089E597E09F938F930E947F2D89E597E048
:102C20000E94560F8DB79EB708960FB6F8949EBFB8
:102C30000FBE8DBF0E9422058823F9F08091040801
:102C40008F93809103088F938AEC90E09F938F93EA
:102C50001F9284E68F9389E597E09F938F930E945C
:102C60007F2D89E597E00E94560FEDB7FEB73896A5
:102C70000FB6F894FEBF0FBEEDBF0E942205882359
:102C800001F1809102088F93809101088F938BEB63
:102C900090E09F938F931F9284E68F9389E597E04E
:102CA0009F938F930E947F2D89E597E00E94560F96
:102CB0002DB73EB7285F3F4F0FB6F8943EBF0FBE0B
:102CC0002DBF0E9422058823F9F0809106088F937A
:102CD000809105088F938CEA90E09F938F931F92C9
:102CE00084E68F9389E597E09F938F930E947F2DD1
:102CF00089E597E00E94560F8DB79EB708960FB6EC
:102D0000F8949EBF0FBE8DBF8DB69EB684E690E050
:102D10000E945131082F10E0C8010196EDB7FEB7AF
:102D2000E81BF90B0FB6F894FEBF0FBEEDBF2DB731
:102D30003EB72F5F3F4F69015901F12CE12CE0169E
:102D4000F106ACF5C7018B599F4F0E945131F50137
:102D500081935F01FFEFEF1AFF0AF1CF8CE892E059
:102D60000E94560F8BCE0E942205882309F4DDCEE7
:102D70008091FB071F928F9385E191E09F938F9342
:102D80001F9284E68F9389E597E09F938F930E942B
:102D90007F2D89E597E00E94560F2DB73EB7285F3B
:102DA0003F4F0FB6F8943EBF0FBE2DBFBECEF6010B
:102DB000E00FF11F1082B601CE0101960E94820E33
:102DC0000FB6F8949EBE0FBE8DBE80916F09909194
:102DD0007009009749F169817A816115710511F1D6
:102DE00040917109509172092D813E81421753071C
:102DF000C8F00E942A358D819E819093740980933A
:102E000073091E821D82CE0101960E943B0E88EA44
:102E100092E00E94560F0E94E50F8BEA98E00E9414
:102E2000CC0FCBCD0E94DB3389819A8190937009BE
:102E300080936F098B819C819093720980937109B3
:102E40008D819E8190937409809373091A821982EF
:102E50001C821B82D6CF1F920F920FB60F921124A5
:102E60002F933F938F939F93AF93BF938091D907F5
:102E70009091DA07A091DB07B091DC073091D80779
:102E800023E0230F2D3758F50196A11DB11D209386
:102E9000D8078093D9079093DA07A093DB07B09304
:102EA000DC078091DD079091DE07A091DF07B091EC
:102EB000E0070196A11DB11D8093DD079093DE0709
:102EC000A093DF07B093E007BF91AF919F918F91DF
:102ED0003F912F910F900FBE0F901F90189526E8ED
:102EE000230F0296A11DB11DD2CF1F920F920FB6D4
:102EF0000F9211242F933F934F935F936F937F9380
:102F00008F939F93AF93BF93EF93FF93E0910C0147
:102F1000F0910D010995FF91EF91BF91AF919F91B4
:102F20008F917F916F915F914F913F912F910F9072
:102F30000FBE0F901F9018951F920F920FB60F9211
:102F400011242F933F934F935F936F937F938F93AE
:102F50009F93AF93BF93EF93FF93E0910A01F0919A
:102F60000B010995FF91EF91BF91AF919F918F91C7
:102F70007F916F915F914F913F912F910F900FBE75
:102F80000F901F9018951F920F920FB60F92112459
:102F90002F933F934F935F936F937F938F939F9361
:102FA000AF93BF93EF93FF93E0910801F091090174
:102FB0000995FF91EF91BF91AF919F918F917F9173
:102FC0006F915F914F913F912F910F900FBE0F9096
:102FD0001F9018951F920F920FB60F9211242F93E6
:102FE0003F934F935F936F937F938F939F93AF9391
:102FF000BF93EF93FF93E0910601F09107010995CC
:10300000FF91EF91BF91AF919F918F917F916F91C0
:103010005F914F913F912F910F900FBE0F901F9096
:1030200018951F920F920FB60F9211242F933F9372
:103030004F935F936F937F938F939F93AF93BF93C0
:10304000EF93FF93E0910401F09105010995FF9141
:10305000EF91BF91AF919F918F917F916F915F9110
:103060004F913F912F910F900FBE0F901F90189589
:103070001F920F920FB60F9211248F939F938091FE
:10308000E1009091E100937F9093E10083FF0FC0F6
:103090001092E90091E09093EB001092EC0092E323
:1030A0009093ED001092EE0798E09093F00082FF6D
:1030B00022C093E09093E9009091F200992319F0D7
:1030C0009AE39093E8009091EE06992341F0909155
:1030D000EE0691509093EE06911101C05D9A909189
:1030E000ED07992341F09091ED0791509093ED07F2
:1030F000911101C0289A84FF18C08091E2008E7E51
:1031000081608093E2008091E1008F7E8093E100F6
:103110008091EF068E7E80618093EF069F918F9164
:103120000F900FBE0F901F90189580FFF7CF8091E2
:10313000E2008E7E80618093E2008091E1008E7ECD
:103140008093E1008091EF068E7E8160E5CF1F9233
:103150000F920FB60F921124CF92DF92EF92FF924F
:103160000F931F932F933F934F935F936F937F938F
:103170008F939F93AF93BF93EF93FF93CF93DF937F
:10318000CDB7DEB76C97DEBFCDBF1092E90080915E
:10319000E80083FF25C068E0CE0145960E942D0619
:1031A00082EF8093E8008D8987FF39C09091E80015
:1031B00090FFFCCF982F907609F034C19E894F89FB
:1031C000588D2F89F88C911131C0803861F580912C
:1031D000F0068093F1001092F1008EEF8093E800EA
:1031E0006C960FB6F894DEBF0FBECDBFDF91CF91C6
:1031F000FF91EF91BF91AF919F918F917F916F91CF
:103200005F914F913F912F911F910F91FF90EF9000
:10321000DF90CF900F900FBE0F901F9018959EEFEC
:103220009093E800C7CF1092F100D5CF913059F4B8
:103230008111D3CF4130510581F68091F0068D7F09
:103240008093F006CACF933049F48111C6CF413044
:10325000510519F68091F0068260F2CF953041F465
:103260008091E80080FFFCCF20682093E300B5CF79
:10327000963009F0A9C00B8D1C8D22E01092E90058
:103280001092EC061092EB06F2122EC01092EA0693
:103290001092E9060E94FC051F8299E09983FA8248
:1032A00091E09E8390EA98879AEF99872091EB06A8
:1032B0003091EC06275F3F4F3C832B838D83109228
:1032C000E9001092EC061092EB061093EA060093C8
:1032D000E90649E050E0BE016F5F7F4F80E00E9449
:1032E000D6050E94FC0579CF1093EA060093E90603
:1032F0000E94D803DC0112960D911C910115110555
:1033000009F451C1D801ED91FC910480F581E02DC3
:10331000BE016B5E7F4FC8010995009709F03EC161
:10332000F80100851185EACFF3E0FF120EC08F8906
:10333000882309F440C0823061F440E862E181E70B
:1033400092E00E94771B811148CF81E28093EB00CD
:1033500047CF813029F440E868E088E692E0F1CF79
:10336000833099F70E94D803DC011296ED90FC900F
:103370008E010F5F1F4F6801E114F10479F0D7014E
:10338000ED91FC910680F781E02DB801C701099508
:10339000080F111DF701E084F184EECFD8011C92D3
:1033A000F60101900020E9F73197BF016C197D0902
:1033B00040E0C601C6CF62E572E0FB01449150E0F7
:1033C00080E80E94D60509CF973009F4BECF983027
:1033D00021F481E08093F10000CF993009F0FDCE17
:1033E000837009F0B2CFEBE2F1E081E031E096E3E7
:1033F0002191222371F08093E9003093EB00DF01EB
:1034000011972C912093EC009093ED008F5F873003
:1034100079F78EE78093EA001092EA008F89809313
:10342000EE07DBCE8B8D9C8D1092E9001092EC069E
:103430001092EB069093EA068093E906898D81113C
:1034400092C08E899D89913A49F4813209F07DCFED
:1034500047E050E062E171E080E0B3CF913209F0E3
:1034600074CF833269F48F89988DB0E0A0E08093A7
:10347000000190930101A0930201B0930301ADCE2E
:10348000803269F48091E80082FFFCCF67E082E13E
:1034900091E00E942D068BEF8093E8009ECE823251
:1034A00009F09BCE8F8980931901EEEFFFE785919C
:1034B00094918B3F9C4D51F1E0E0F8E08091120136
:1034C00090911301A0911401B0911501803B94409B
:1034D000A105B105F1F48091190180FD1AC0EE3FFC
:1034E0008AE0F80789F587E797E7918380838091E1
:1034F00060008093ED0688E19BE00FB6F894A895F4
:10350000809360000FBE9093600067CEEEEFFAE00C
:10351000D5CF808191818737974709F05ECEA895F6
:10352000809160008861809360008091ED068093B7
:103530006000EE3F2AE0F20789F08091FE0A909148
:10354000FF0A9183808349CE8081918187379807D4
:1035500051F29093FF0A8093FE0AC5CF1092FF0AA2
:103560001092FE0A3ACE0E94D803DC0112960D9109
:103570001C910115110509F4E8CED801ED91FC91DB
:103580000190F081E02DBE016B5E7F4FC80109956F
:10359000811123CEF80100851185EBCF181619068D
:1035A0000CF41BCED2CEF1E0FF12BECE66E572E087
:1035B00004CF1F920F920FB60F9211242F933F93B7
:1035C0004F935F936F937F938F939F93AF93BF932B
:1035D000EF93FF938EE098E00E94DC06FF91EF915D
:1035E000BF91AF919F918F917F916F915F914F911B
:1035F0003F912F910F900FBE0F901F9018951F9223
:103600000F920FB60F9211242F938F939F93EF93E6
:10361000FF93E0911E08F0911F088081E09124083B
:10362000F091250882FD1BC09081809127088F5F53
:103630008F7320912808821741F0E0912708F0E06D
:10364000E25FF74F958F80932708FF91EF919F914D
:103650008F912F910F900FBE0F901F901895808122
:10366000F4CF1F920F920FB60F9211242F933F9316
:103670004F935F936F937F938F939F93AF93BF937A
:10368000CF93EF93FF9383B190916B008923809345
:1036900016078091150790911607892780931407C4
:1036A0008091160780931507C0E080911307C81713
:1036B00060F4EC2FF0E0EE0FFF1FE55FF84F019094
:1036C000F081E02D0995CF5FF0CFFF91EF91CF9181
:1036D000BF91AF919F918F917F916F915F914F912A
:1036E0003F912F910F900FBE0F901F901895EF9262
:1036F000FF920F931F93CF93DF93F82E192FE62E8F
:10370000042F81E0860F880F0E94A80583E00E94A5
:10371000A805CF2DD12FEC0EFD2EF11CCE15DF0507
:10372000B9F007FF13C0FE0184910E94A805182F6D
:1037300080E00E94A805812321968111EFCFDF91BF
:10374000CF911F910F91FF90EF9008958881EDCF59
:1037500081E0F5CFCF92DF92EF92FF9210921108A5
:103760001092100828EEC22E23E0D22EE12CF12C6C
:10377000C0921208D0921308E0921408F092150833
:1037800083E691E090930F0880930E088DEC90E013
:1037900090931B0880931A088CEC90E090931D087E
:1037A00080931C0888EC90E090931F0880931E087B
:1037B00089EC90E090932108809320088AEC90E0B7
:1037C00090932308809322088EEC90E09093250834
:1037D0008093240810922708109228081092290834
:1037E00010922A081092AE081092AD08C092AF084D
:1037F000D092B008E092B108F092B20885E791E06B
:103800009093AC088093AB088FEF9FEF9093B8082C
:103810008093B70887E891E09093FC088093FB08B9
:103820001092FE081092FD081092010910920309EF
:1038300010924609E4E2F9E080E2DF011D928A95E8
:10384000E9F78DEA91E09093C4098093C309209130
:10385000C8092B7F2093C8099093B2098093B109BE
:103860002091B6092B7F2093B6099093A0098093ED
:103870009F092091A4092B7F2093A40990938E097E
:1038800080938D09209192092B7F20939209909328
:103890007C0980937B09809180098B7F80938009CC
:1038A00083EA91E090937A09809379090E94310527
:1038B00060937509709376098093770990937809DE
:1038C00062EF75E08FE699E00E94820E1092560931
:1038D00010925509C0925709D0925809E09259099F
:1038E000F0925A0981E991E0909354098093530929
:1038F000109267091092660910926909109268097E
:1039000010926B0910926A0910926D0910926C095D
:1039100080916E098E7F8D7F80936E0960E080E1DB
:103920000E948F0480916E0981FD04C061E080E1F6
:103930000E94610480E180935F09E2E3F5E08491F5
:1039400080936009E3E1F5E0E491F0E0EE0FFF1F02
:10395000EB50FB4F2591349130936209209361091C
:10396000ECE2F5E0E491E0936309E81741F061E0EF
:103970008AE00E948F0461E08AE00E946104EDE029
:10398000F5E0E491F0E0EE0FFF1FE951FB4F859168
:103990009491909365098093640964EE78E080E1E6
:1039A0000E949C0C0E943105809150092BEF38E059
:1039B000309349092093480998E29093470910925F
:1039C0004F0980719091510920915209207F2960FF
:1039D000209352099C7792609093510982628F7E66
:1039E0008093500910924B0910924C09FF90EF9070
:1039F000DF90CF900895CF93DF9300D000D000D018
:103A0000CDB7DEB7789484B5826084BD84B581601B
:103A100084BD85B5826085BD85B5816085BD809199
:103A20006E00816080936E00109281008091810011
:103A30008260809381008091810081608093810009
:103A400080918000816080938000809191008260ED
:103A5000809391008091910081608093910080918A
:103A600090008160809390008091C1008460809379
:103A7000C1008091C10082608093C1008091C1002B
:103A800081608093C1008091C30081608093C300F6
:103A90008091C00082608093C0008091C2008160EC
:103AA0008093C20080917A00846080937A00809134
:103AB0007A00826080937A0080917A00816080939E
:103AC0007A0080917A00806880937A001092EE07E5
:103AD0001092F0061092EF068091D70081608093DB
:103AE000D70080EA8093D80089B5806189BD89B507
:103AF000826089BD09B400FEFDCF61E070E080E026
:103B000090E00E94F0048091D8008F7C80618093C7
:103B1000D8008091E000807F8093E0008091E100F8
:103B20008E7E8093E1008DE08093E200559A209A8A
:103B300060E084E00E948F0461E085E00E948F04D1
:103B400061E085E00E9461040E94CF0D01E5E02E56
:103B500001E0F02E0BE411E062E0D8018D918D01BF
:103B60000E948F04E016F106B9F710926D091092C9
:103B70006C0910926B0910926A09109269091092EF
:103B80006809109267091092660990E080E0FC01D4
:103B9000EC57FD4F459155916591749140385542D0
:103BA0006105710509F087C1FC01E857FD4F2591BA
:103BB00034913093670920936609FC01E657FD4F65
:103BC000259134913093690920936809FC01E457E9
:103BD000FD4F2591349130936B0920936A09FC01C4
:103BE000E257FD4F8591949190936D0980936C09F4
:103BF00080916A0990916B09892B09F454C08091D6
:103C00005F0928EF280F243048F092EF980F943086
:103C100028F096EE980F933008F03FC0909168001E
:103C2000243048F022EF280F243028F08A51F0E0A9
:103C3000E0E0833010F4E8E6F0E09160908390914A
:103C40005F0938EF390F343050F082EF890F84303C
:103C500030F086EE890FF0E0E0E0833010F4EBE620
:103C6000F0E02081343008F02CC181E0E92FE450ED
:103C7000FF0BAF0101C0880F4A95EAF7822B343061
:103C800048F022EF290F243028F09A51F0E0E0E0CC
:103C9000933010F4EBE6F0E0808380916C09909112
:103CA0006D090E94DD088091F3069091F40683551A
:103CB000994091F080916E098E7F80936E098FB745
:103CC000F8941092F2061092F10623E539E0309351
:103CD000F4062093F3068FBF8FEF9FEF9093B80801
:103CE0008093B70868EE73E080E090E00E94F004F3
:103CF0008FEA92E00E94560F83E599E090930D08B9
:103D000080930C081092F6061092F50662E070E0BF
:103D100089E00E943D0570E060E087E00E943D057B
:103D20008091000890E00E94480964EF71E080E013
:103D300090E00E94F0048091000890E00E94480901
:103D400064EF71E080E090E00E94F00483E40E9460
:103D5000500983E490E00E94FB0F80933D0788E4C4
:103D60000E94500988E490E00E94FB0F809339077D
:103D700068EB7BE080E090E00E94F00460E085E08A
:103D80000E9461048BEA98E00E94CC0F8DEC92E0D7
:103D90000E94560F2AE041E050E060E070E08BEABC
:103DA00098E00E94A20E85EB91E00E94560F2AE057
:103DB00047E050E060E070E08BEA98E00E94A20EDD
:103DC0008BEA98E00E94CC0F80913D07882309F48C
:103DD0008DC08CED92E00E94560F81E08093260703
:103DE00088EF92E00E94560F88E193E00E94560F00
:103DF0000E94B8149091080820910708992309F4AB
:103E000098C180910908823009F48CC008F075C00F
:103E1000813009F47FC030910B08337080915009D4
:103E20008C7F832B80935009223009F484C0233087
:103E300009F47CC1213009F07CC121EB39E03093D9
:103E40004909209348099FE39093470910924F092D
:103E50009091510920915209207F296020935209A5
:103E600083719C7792609093510980628F7E8093DA
:103E7000500910924B0910924C0962E083EC99E0D2
:103E80000E941C0D63E081EB99E00E941C0D809163
:103E90000808811171C069E08FE999E00E941C0D4A
:103EA00067E08DE899E00E941C0D68E08BE799E0DF
:103EB0000E941C0D61C00C968039910509F067CEF7
:103EC00097CE88E09E3009F4D9CE82E09F3009F485
:103ED000D5CE84E0903109F4D1CE81E0913109F45E
:103EE000CDCE692F6651770BAB01C4CE8AEE92E03E
:103EF0000E94560F1092260773CF8330A9F08430AA
:103F000009F089CF1092F70781E08093F50780933D
:103F1000F60781CF88E08093F7071092F50710929B
:103F2000F60779CF80E1F7CF88E08093F70781E04B
:103F30008093F507F4CF29E739E0309349092093BE
:103F400048099F7190629093470910924F09909190
:103F5000510920915209207F2960209352098371D1
:103F60009C7792609093510980628F7E8093500974
:103F700010924B0910924C09809107088230D1F5BC
:103F800083B190916B008923809316078091160767
:103F90008093150789B18F70809322078091220743
:103FA0008093210763E07BE082E00E949C0C809379
:103FB00023078091230787FD1DC090E080E02CED52
:103FC00035E0FC01EE0FFF1FE750F94F31832083EE
:103FD000019689309105A9F78AE08093F80610923E
:103FE00030071092310782E08093F7068091F70640
:103FF0000E94320C80910708833091F44EE260EA0F
:1040000076E881E090E00E94CD028EE098E0909307
:10401000FE088093FD088091FF08807F8093FF0851
:1040200080910708843099F446E060E072EC81E00A
:1040300090E00E94CD028EE098E09093FE0880937D
:10404000FD088091FF08807F83608093FF08809146
:104050000708853099F446E060E072EC81E090E07A
:104060000E94CD028EE098E09093FE088093FD08B8
:104070008091FF08807F82608093FF08809107080D
:10408000863099F446E068E478EE81E090E00E94A2
:10409000CD028EE098E09093FE088093FD08809119
:1040A000FF08807F84608093FF0880910708873035
:1040B00099F446E060E072EC81E090E00E94CD026D
:1040C0008EE098E09093FE088093FD088091FF08B1
:1040D000807F81608093FF0881E080933F0700919B
:1040E000730910917409C801019611F481E090E000
:1040F0000E943F337C0160916F09709170090E94AA
:104100002A3520E031E0822F90E08017910710F0EF
:104110000C94F72BF701E80FF91F4081403521F48B
:104120008E5C984FDC013C932F5FEDCF2BEF38E096
:1041300004CF213009F020CFA0CE992311F40C94A4
:10414000192C9150909324070C94192C983038F422
:10415000E92FF0E0E95DF84F80839F5FF3CF109285
:1041600024070C94192C80912707883479F00CF0DF
:1041700079C0813409F4C3C30CF055C08B3209F403
:10418000B3C38D3209F4C1C3811154C08AE393E0F3
:104190000E94560F80E395E00E94560F85E493E05D
:1041A0000E94560F82E693E00E94560F80E793E04C
:1041B0000E94560F80EB93E00E94560F80910708F3
:1041C000823020F080ED93E00E94560F88E294E068
:1041D0000E94560F87E494E00E94560F8AE694E00E
:1041E0000E94560F88E794E00E94560F8BE894E0F7
:1041F0000E94560F89E994E00E94560F88EA94E0E5
:104200000E94560F89EB94E00E94560F80E095E0E3
:104210000E94560F8BE195E00E94560F87E592E0D1
:104220000E94560F90C1843409F4BCC354F4833403
:1042300009F48EC06FE074E087E297E00E94702D71
:104240003EC0853409F475C28634A1F780912807F1
:104250008D3309F0A7C389E297E00E94522D809325
:104260000B08B4C1823509F4C7C37CF58D3409F459
:104270006DC1803509F479C28934E1F6809128074F
:104280008D3309F089C380912907803519F08E3468
:1042900009F07DC369E277E0CE0101960E94820EAB
:1042A0008D819E81069709F449C385EA95E00E94B5
:1042B000D00F10922807CE0101960E943B0E87E294
:1042C00097E00E94D00F0C94192C863509F44EC14A
:1042D00084F4833509F0AECF809128078D3309F03F
:1042E00022C280912907873509F073C10E949A0F75
:1042F0006DC1883509F412C3893509F09BCF8091CF
:1043000028078D3309F096CF89E297E00E94522D5D
:104310007C0190912A07903209F456C3E092080874
:10432000811104C084EC95E00E94560F809108082A
:10433000882309F44BC10E942205882309F446C151
:10434000FF24FF92EF9223E134E03F932F935DC16E
:104350008EE295E00E94560F80910708813009F0A7
:1043600050C080910808811128C00E94220588232E
:1043700001F186E495E09F938F938DE495E09F9300
:104380008F9384E595E09F938F9382EC93E09F93C6
:104390008F931F9284E68F931F930F930E947F2D1C
:1043A00089E597E00E94560F0FB6F894DEBF0FBE66
:1043B000CDBF80910708813021F5809108088823BE
:1043C00001F10E9422058823E1F08DE595E09F939D
:1043D0008F9384E595E09F938F9381EB93E09F9378
:1043E0008F931F9284E68F931F930F930E947F2DCC
:1043F00089E597E00E94560F0FB6F894DEBF0FBE16
:10440000CDBF80910708823009F04CC08091080828
:10441000811124C00E9422058823E1F08DE595E0FA
:104420009F938F9384E595E09F938F9389E893E022
:104430009F938F931F9284E68F931F930F930E94F5
:104440007F2D89E597E00E94560F0FB6F894DEBFE6
:104450000FBECDBF80910708823021F580910808FA
:10446000882301F10E9422058823E1F08DE595E083
:104470009F938F9384E595E09F938F9388E793E0D4
:104480009F938F931F9284E68F931F930F930E94A5
:104490007F2D89E597E00E94560F0FB6F894DEBF96
:1044A0000FBECDBF80910708833008F44CC08091C7
:1044B0000808811124C00E9422058823E1F080E6CB
:1044C00095E09F938F9384E595E09F938F938BE383
:1044D00093E09F938F931F9284E68F931F930F9384
:1044E0000E947F2D89E597E00E94560F0FB6F89441
:1044F000DEBF0FBECDBF80910708833020F18091D1
:104500000808882301F10E9422058823E1F080E653
:1045100095E09F938F9384E595E09F938F9384E13B
:1045200093E09F938F931F9284E68F931F930F9333
:104530000E947F2D89E597E00E94560F0FB6F894F0
:10454000DEBF0FBECDBF10922807B9CE8091CA073B
:1045500091E089278093CA07882319F083E695E0C4
:104560005FCE84E795E00E94560F30C08091280707
:104570008D3309F05FCE89E297E00E94522D7C01D5
:104580008FEF8E0D8E3108F09ACE0E9422056701C2
:10459000DD248823B1F0DF92CF9227E834E03F9307
:1045A0002F931F9284E68F931F930F930E947F2D6A
:1045B00089E597E00E94560F0FB6F894DEBF0FBE54
:1045C000CDBFE0920008C6010E9448090E94E80D94
:1045D000BACF893459F58BE297E00E94522D80932F
:1045E00007080E942205882389F3E0910708E1501B
:1045F000FF0BEE0FFF1FEF5AFE4F81818F938081DB
:104600008F938CE794E09F938F931F9284E68F9310
:104610001F930F930E947F2D89E597E00E94560F0C
:104620000FB6F894DEBF0FBECDBFD0CF8133B1F44B
:1046300080912A07803251F68BE297E00E94522D3A
:104640008093FB070E942205882309F4BFCF809145
:10465000FB071F928F9380E794E0D5CF8233B9F4A4
:1046600080912A07803209F0B1CF8BE297E00E9457
:10467000522D8093FD070E942205882309F4A6CFBE
:104680008091FD071F928F9383E694E0BCCF833324
:10469000B9F480912A07803209F098CF8BE297E035
:1046A0000E94522D8093FC070E942205882309F462
:1046B0008DCF8091FC071F928F9386E594E0A3CF66
:1046C0008433B9F480912A07803209F07FCF8BE2DE
:1046D00097E00E94522D8093FE070E9422058823B6
:1046E00009F474CF8091FE071F928F9384E494E0C5
:1046F0008ACF853309F06ACF80912A07803209F08A
:1047000065CF8BE297E00E94522D8093FF070E94B5
:104710002205882309F45ACF8091FF071F928F93B7
:1047200083E394E070CF8F3309F084CD0E94B814F6
:104730000ACF89E297E00E94522D863008F07ACDA8
:1047400080930A080E942205882309F43FCFE09154
:104750000A08F0E0EE0FFF1FE15CFE4F81818F93AE
:1047600080818F9385E294E04ECF809128078F332C
:1047700009F060CD80912607882309F4B2C084E84F
:1047800095E00E94560F82E40E9450090E94220583
:10479000882309F182E490E00E94FB0F880F991FA3
:1047A000FC01EF5CFE4F81818F9380818F9383E0CA
:1047B00094E09F938F931F9284E68F931F930F93A0
:1047C0000E947F2D89E597E00E94560F0FB6F8945E
:1047D000DEBF0FBECDBF83E40E9450090E942205B8
:1047E0008823D1F083E490E00E94FB0F9F938F9386
:1047F00087EF93E09F938F931F9284E68F931F938D
:104800000F930E947F2D89E597E00E94560F0FB607
:10481000F894DEBF0FBECDBF84E40E94500984E44B
:1048200090E00E94FB0F0E9422058823F9F0E0919E
:104830000A08F0E0EE0FFF1FE15CFE4F81818F93CD
:1048400080818F938BEE93E09F938F931F9284E6EA
:104850008F931F930F930E947F2D89E597E00E940D
:10486000560F0FB6F894DEBF0FBECDBF88E40E948E
:1048700050090E9422058823D1F088E490E00E942C
:10488000FB0F9F938F938FED93E09F938F931F92D6
:1048900084E68F931F930F930E947F2D89E597E005
:1048A0000E94560F0FB6F894DEBF0FBECDBF8CE44A
:1048B0000E9450090E942205882309F444CE8CE40A
:1048C00090E00E94FB0F9F938F9383ED93E09F9363
:1048D0008F931F9284E68F931F930F930E947F2DD7
:1048E00029CE87E995E09CCC80913F078F5F80932C
:1048F0003F0790913907981710F490933F078091E4
:104900003F0790E00E944C091ECE80913F078150E6
:1049100019F080933F07F3CF81E0FBCF80913C07F4
:10492000811103C08EE00E94500980913C078130C4
:1049300009F009CE8DE00E94500905CE69817A8187
:104940006115710579F046E050E08FE699E00E942C
:10495000430E0E94090E88EA92E00E94560F0E94C0
:10496000E50FA7CC80916F0990917009009711F025
:104970000E94DB331092700910926F091092740933
:10498000109273091092720910927109E2CF84EBB0
:1049900095E00E94D00FD7CD8F3309F04BCC0E9409
:1049A000E50FD1CD80910808882339F08091250743
:1049B00091E0892780932507C6CD8091400791E03B
:1049C000892780934007BFCD882399F0E09208089B
:1049D0008BE297E00E94522D80930908A82FA150E6
:1049E000BB0BFD01EE0FFF1FE95CFE4F8081918143
:1049F000BACD10920908EACD8FEC95E00E94560FCF
:104A0000F12CE12C60E0C7010E945931BFEFEB1A95
:104A1000FB0AE114E4E0FE06A9F78BED95E000CC7B
:104A200067E083EC99E00E94D80A882309F4B6C0B5
:104A3000F092D5072091D6073091D707C901880F8A
:104A4000991F820F931F2091D1093091D209409173
:104A5000D1095091D20924173507A9F7820F931F66
:104A600096958795969587959093D7078093D607C7
:104A700067E081EB99E00E94D80A8823F1F0209149
:104A8000D3073091D407C901880F991F820F931F54
:104A90002091BF093091C0094091BF095091C009D0
:104AA00024173507A9F7820F931F9695879596953A
:104AB00087959093D4078093D30767E08FE999E0B7
:104AC0000E94D80A8823F1F02091D1073091D207B3
:104AD000C901880F991F820F931F2091AD09309152
:104AE000AE094091AD095091AE0924173507A9F7D9
:104AF000820F931F96958795969587959093D207E9
:104B00008093D10767E08DE899E00E94D80A882356
:104B1000F1F02091CF073091D007C901880F991F7C
:104B2000820F931F20919B0930919C0940919B0912
:104B300050919C0924173507A9F7820F931F96956A
:104B40008795969587959093D0078093CF0767E0D8
:104B50008BE799E00E94D80A882309F49FC6209128
:104B6000CD073091CE07C901880F991F820F931F7F
:104B70002091890930918A094091890950918A09C7
:104B800024173507A9F7820F931F96958795969559
:104B900087959093CE078093CD0780C61092D50756
:104BA00067CF1092D507BEC6833081F0843009F0FC
:104BB000E1C680E104C080E18093030981E0809335
:104BC0000109D8C684E0FBCF87E0F9CF8EE080935F
:104BD00003098CE0F4CFBFE08B1306C0D09202092A
:104BE00082E080930109D6C610920109D3C6809154
:104BF0000209E82FF0E0E550F74FF18681508093ED
:104C000002098F3F09F0C6C683E0EBCF811191C046
:104C1000809102098F3F09F08CC020E0D12C30E058
:104C200040EB56E1ED2DF0E0412C512C3201439444
:104C3000022E04C0440C551C661C771C0A94D2F743
:104C4000EE0FFF1FE550F74FA1A4B2A4E52EF12C03
:104C5000B7016550774FDB011996EC90F12C032ECC
:104C600002C0F594E7940A94E2F7C201E0FE5CC04A
:104C70008A299B2992A781A73F5F2F5F383011F4C3
:104C8000515030E02B3011F4D39420E0415051F6D4
:104C90008FEF8093460981E0809301098091080895
:104CA000882309F4A4C20E947710809109088330F8
:104CB00050F46091FB078BEF98E00E94AA09909353
:104CC000D7078093D607809108088111CAC48091C4
:104CD000D5078111DAC20E943105C0907509D090C4
:104CE0007609E0907709F09078096C197D098E09B2
:104CF0009F096A3F71058105910508F4CAC2F090C9
:104D000011016F2D85E00E94610481E0F826F09288
:104D100011010E94310560937509709376098093A3
:104D2000770990937809B5C2809590958A219B2147
:104D3000A1CF81E056CF8FE58F0D823008F054CFA0
:104D4000B1EA8CE0FB1280E1809303091092020922
:104D50006F2D90E080E00E947F0990934509809339
:104D6000440985E03ECFE0910209EE24E394EE0E83
:104D7000E0920209F0E0E550F74F8187682F8091BB
:104D80004409909145090E947F09909345098093B9
:104D900044098091030990E0880F991FE8161906CD
:104DA0000CF4F8C586E01DCFE0900209E394E09290
:104DB0000209682F80914409909145090E947F095A
:104DC0009093450980934409F09003092F2D30E01A
:104DD0002F5F3F4F220F331FE21613060CF4DAC584
:104DE000892B09F001CF64E0C62E69E0D62EE12CB4
:104DF000FE14E1F0F601219131916F013227232752
:104E00003227A8E7B5E00E94EA312FEF3FE040E00B
:104E100050E00E946731205E3C4F4F4F5F4FD601FC
:104E20005F963C932E935E97E394E2CF8FEF80934F
:104E3000460934CFB8EA8B13D7CE68EA90E080E019
:104E40000E947F09909345098093440988E0C9CE68
:104E50008F77813009F0C8CE6F2D809144099091F1
:104E600045090E947F09909345098093440991E088
:104E7000E1E8FE1290E08091FF0890FB84F98093B6
:104E8000FF0889E0AECE8EEF8F0D8F3008F0ACCEEC
:104E90006F2D80914409909145090E947F0990935C
:104EA000450980934409F0920309109202098AE0AF
:104EB00098CEE0910209EE24E394EE0EE09202090E
:104EC000F0E0E550F74F8187682F80914409909179
:104ED00045090E947F099093450980934409809178
:104EE000030990E0880F991FE81619060CF452C5C3
:104EF000FBE0F09301094EC5E0900209E394E092D3
:104F00000209682F80914409909145090E947F0908
:104F10009093450980934409F09003092F2D30E0C8
:104F20002F5F3F4F220F331FE21613060CF432C5DA
:104F3000892B09F059CEB4E0CB2EB9E0DB2EE12C61
:104F4000FE1409F473CFD6012D913D916D013227E6
:104F50002327322750E040E020523C4141095109CB
:104F6000A0EBB4E00E94863120E835E240E050E05A
:104F70000E9467312C573C4F4F4F5F4FF601378FE0
:104F8000268FE394DDCFF0E28F1304C52FED3FEFC2
:104F9000309345092093440940920109FBC430E451
:104FA000831322CE80914409909145098054910940
:104FB0009093450980934409109202095092010987
:104FC000E9C4E091020921E02E0F20930209F0E0EC
:104FD000E550F74F818780914409909145098F19D9
:104FE000910990934509809344098091030990E0C9
:104FF000880F991F281719060CF4CCC46092010978
:10500000C9C420910209E22FF0E0E550F74F8187F3
:105010002F5F2093020930910309832F90E00196BE
:10502000880F991F281719060CF4B4C48550974FA0
:10503000DC0117968C913F2C212C820D932D911D14
:1050400040914409509145094817590709F0CCCDC2
:10505000E4E0F9E080E0381731F041915191578F49
:10506000468F8F5FF8CF8FEF80934609109201092A
:1050700015CEBEE38B13B8CDEDEFF8EDF0934509F7
:10508000E09344097092010985C4F3E08F13ACCD1D
:1050900063E080914409909145090E948B059093AB
:1050A00045098093440922E12093010973C4682FC4
:1050B00080914409909145090E948B059093450980
:1050C0008093440933E13093010964C4682F8091CF
:1050D0004409909145090E948B059093450980935E
:1050E0004409A092010956C461E386137DCD8091E5
:1050F0004409909145090E948B059093450980933E
:105100004409B092010946C488EF8F0D893108F037
:105110006BCD8F2D869580930309109202096F2D18
:1051200080914409909145090E948B05909345090F
:1051300080934409D09201092DC4E0910209EE2424
:10514000E394EE0EE0920209F0E0E550F74F81871C
:10515000682F80914409909145090E948B05909396
:105160004509809344098091030990E0880F991FB5
:10517000E81619060CF40EC4C09201090BC4209164
:105180000209E22FF0E0E550F74F81872F5F20936F
:10519000020930910309832F90E00196880F991F2F
:1051A000281719060CF4F6C38550974FDC011796A3
:1051B0008C919F2C812C880D992D911D4091440933
:1051C000509145094817590709F00ECDE4E0F9E080
:1051D00080E0381709F447CF4191519163E056952B
:1051E00047956A95E1F7578F468F8F5FF2CF809191
:1051F0004609282F30E0220F232F221F330B232BA9
:1052000009F408C48F778093460981E08093D5071D
:105210008091CC078F5F8436A8F58093CC0760918E
:10522000FB078BEF98E00E94AA099093D707809321
:10523000D6076091FD078BEF98E00E94AA09909332
:10524000D2078093D1076091FC078BEF98E00E9412
:10525000AA099093D4078093D3076091FE078BEF40
:1052600098E00E94AA099093D0078093CF0760919D
:10527000FF078BEF98E00E94AA099093CE078093D6
:10528000CD0721CD1092CC07CACF61E085E00E9406
:1052900061048091CA07882309F47AC08091C2070B
:1052A00081110DC00E9431056093BE077093BF0746
:1052B0008093C0079093C10781E08093C2070E944A
:1052C0003105C090BE07D090BF07E090C007F090B6
:1052D000C1076C197D098E099F096A3F7105810517
:1052E000910508F455C00E9431056093BE07709384
:1052F000BF078093C0079093C1078091D607909114
:10530000D707009709F4C2C18C3DB5E09B0708F0B0
:10531000ABC120910508309106088217930720F44D
:1053200090930608809305082091030830910408A3
:105330004091050850910608240F351F3695279592
:1053400030930208209301080E94EE0E81EF95E051
:105350000E94560F80910508909106080E94EE0E5B
:1053600081EF95E00E94560F80910108909102080C
:105370000E94EE0E81EF95E00E94560F8091030887
:10538000909104080E94EE0E8BEA98E00E94CC0FE8
:105390008091510781110DC00E94310560934D0726
:1053A00070934E0780934F079093500781E080934E
:1053B00051078091450781110DC00E94310560930E
:1053C000410770934207809343079093440781E01D
:1053D000809345070E943105C0904D07D0904E073D
:1053E000E0904F07F09050076C197D098E099F09D6
:1053F000653F71408105910508F4F0C10E943105B7
:1054000060934D0770934E0780934F07909350071A
:1054100080914007882309F44EC08091D60790916F
:10542000D7070E94EE0E81EF95E00E94560F809103
:10543000D1079091D2070E94EE0E81EF95E00E9475
:10544000560F8091D3079091D4070E94EE0E81EF02
:1054500095E00E94560F8091CF079091D0070E944F
:10546000EE0E81EF95E00E94560F8091CD0790914E
:10547000CE070E94EE0E81EF95E00E94560F0E942B
:1054800022058823C1F080913F071F928F9380E906
:1054900094E09F938F931F9284E68F931F930F93B3
:1054A0000E947F2D89E597E00E94560F0FB6F89471
:1054B000DEBF0FBECDBF2091D6073091D707B09089
:1054C0003D072115310509F411C1C0900508D090A0
:1054D0000608F12CE12C50E040E02C193D094E0962
:1054E0005F09ADE1B0E00E94863120910308309160
:1054F000040850E040E02C193D094E095F090E9464
:1055000067312F5F3F4F4F4F5F4F20933E07809192
:105510003E078B1519F090E00E94480980913E07E4
:1055200080933D0784E00E94380480933C0780917B
:105530003B0781114EC02091D1073091D207211530
:10554000310599F08091010890910208885C9109D9
:105550002817390708F0CDC0109210018091100172
:10556000813009F0CAC080933A072091D307309167
:10557000D4072115310599F0809101089091020816
:1055800088539F4F8217930708F0D1C010920F01E4
:1055900080910F01813009F0CEC0809338072091AF
:1055A000CD073091CE072115310599F08091010882
:1055B0009091020888539F4F8217930708F0D6C036
:1055C00010920E0180910E01813009F0D3C08093BA
:1055D00038072091CF073091D00721153105F1F020
:1055E0008091010890910208885C91092817390779
:1055F00018F48EE00E9450098091010890910208F1
:1056000088539F4F2091CF073091D007821793077F
:1056100028F480913F0790E00E944C098BE4A82E6B
:1056200081E0B82EF12CE12CD5018D915D010E9415
:105630003804F70131966F01892B69F4F1E0F0939A
:105640003B0780913C078111A4C0F701EE5CF84F45
:1056500080818111A1C0760136E0C316D10421F703
:10566000BDC08091CB0735CB8C3DE5E09E0709F4AA
:105670005BCE20910308309104082817390708F001
:1056800053CE90930408809303084ECE0E943105B8
:105690006093BE077093BF078093C0079093C107C4
:1056A0000E942205882309F473CEE0910708E15097
:1056B000FF0BEE0FFF1FEF5AFE4F81818F9380810A
:1056C0008F938CE994E09F938F931F9284E68F933E
:1056D0001F930F930E947F2D89E597E00E94560F3C
:1056E0000FB6F894DEBF0FBECDBF52CEB0923E07CC
:1056F0000ECF81E08093100131CF811136CF8091A0
:105700003A07882309F431CF80913F078150809375
:105710003F07811104C08091390780933F07809132
:105720003F0790E00E944C0910923A071ECF81E09B
:1057300080930F012DCF811132CF809138078823BC
:1057400009F42DCF80913F078F5F80933F079091A1
:105750003907981718F481E080933F0780913F073D
:1057600090E00E944C091092380719CF81E0809395
:105770000E0128CF81112DCF80913807882309F49D
:1057800028CF80913F0790E00E944C091092380783
:1057900020CF813009F05FCF0E9431054090410752
:1057A0005090420760904307709044076419750950
:1057B00086099709693873418105910508F44BCF33
:1057C0000E9431056093410770934207809343071D
:1057D00090934407B60182E10E943D0580E090E08D
:1057E000892B39F00E94C80681110E94000009E54A
:1057F00017E08BEA98E00E94550818161906CCF4B9
:105800008BEA98E00E94130890912407883011F4E5
:105810000C949D208D3011F00C94A620E92FF0E01F
:10582000E95DF84F10821092240797FD02C00C9496
:10583000B320F0900708F1E0FF1230C08091080813
:10584000882309F4EDC80E94771067E083EC99E0A3
:105850000E94D80A882311F1809109088330F0F45E
:105860002091D6073091D707C901880F991F820F61
:10587000931F2091D1093091D2094091D1095091C3
:10588000D20924173507A9F7820F931F969587959C
:10589000969587959093D7078093D60780910708B0
:1058A000823009F03FC080913007882309F479C91C
:1058B0008091310790E0880F892F881F990B892BE1
:1058C00009F46FC9809131078F778093310781E0A8
:1058D0008093D5078091FB070E94DB0B9093D7073D
:1058E0008093D6078091FC070E94DB0B9093D4072E
:1058F0008093D3078091FD070E94DB0B9093D20722
:105900008093D1078091FE070E94DB0B9093D00714
:105910008093CF078091FF070E94DB0B9093CE0707
:105920008093CD07809107088350853008F0CBC95C
:105930008091FD089091FE08892B09F4AFC90E945F
:10594000310580910009681B770B6430710594F074
:105950000E943105609300098091FF088F708230AA
:1059600009F432C908F020C9882309F424C9813018
:1059700009F428C987E1C82E96E1D92E25E1B22E77
:1059800034E1A32E41E1742E5FE0652E6EE0562EC9
:105990007DE0472E8091FD089091FE08DC01ED919D
:1059A000FC910084F185E02D0995181619060CF07C
:1059B00075C90E943105609300098091FD0890919E
:1059C000FE08DC01ED91FC910284F385E02D099540
:1059D000F82EE0910109E150E731E0F6F0E0ED50FA
:1059E000F34D0C942533EB25F72506269B26B3268D
:1059F000D4261A272827432759277C27C327CF27B0
:105A0000E127012839284528572866287428842842
:105A10009D28BF281092D50756C981E991E090933F
:105A200054098093530920915F0948EF420F443095
:105A300040F082EF820F843020F086EE820F8330B8
:105A400068F530916B00822F8450990B443078F0C8
:105A500087EF2E30A1F08DEF2F3089F08BEF2031C2
:105A600071F08EEF213159F0822F8651990BBC01D4
:105A700081E090E001C0880F6A95EAF78095832362
:105A8000443048F092EF920F943028F02A51F0E021
:105A9000E0E0233010F4EBE6F0E080838FE699E05D
:105AA0000C943B0EFC0188279927E8942191203221
:105AB000E9F3293010F02E30C8F32B3241F02D32AB
:105AC00039F4689404C00E94772D820F911D2191B2
:105AD00020532A30C0F31EF4909581959F4F08956E
