:100000000C94F5010C94E60F0C94BF0F0C94980F10
:100010000C94710F0C941D020C941D020C944A0F49
:100020000C941D020C9406130C940D100C947C106F
:100030000C941D020C941D020C941D020C941D02C4
:100040000C941D020C941D020C941D020C941D02B4
:100050000C941D020C941D020C941D020C94000FB4
:100060000C941D020C94D4120C94AE120C941D022C
:100070000C941D020C941D020C941D020C941D0284
:100080000C941D020C941D020C941D020C941D0274
:100090000C941D020C941D020C941D020C941D0264
:1000A0000C941D020C941D020C941D024D696E6986
:1000B00043683A2020202025640D0A0043656E74B1
:1000C000657243683A202025640D0A004D61786905
:1000D00043683A2020202025640D0A00506C617985
:1000E0002053616D653A2025640D0A00506C6179DA
:1000F0002053746F703A2025640D0A004E657874A1
:100100003A20202020202025640D0A0050726576B8
:100110003A20202020202025640D0A00566F6C43D1
:10012000683A202020202025640D0A00566F6C3A82
:100130002020202020202025640D0A004551204D3C
:100140006F64653A202025730D0A00446566617569
:100150006C74732056616C75652053617665640D0F
:100160000A005D3A2030780052785B006D70335F92
:10017000726563765F636D64206F7574004572729B
:100180006F7220726573706F6E7365207769746823
:1001900020636F646520006D70335F726563765F06
:1001A000636D6420696E2077697468206578706576
:1001B0006374656420636D6420307800080B00026E
:1001C00002020000090400000102020000052400F0
:1001D0001001052401010104240206052406000182
:1001E0000705810310004009040100020A00000015
:1001F00007050202400000070583024000000403D7
:10020000090412010002EF0201404F1B0692000197
:1002100001020301537061726B46756E0053706189
:10022000726B46756E2050726F204D6963726F005D
:10023000202A2A2A2A2A002E002A2A2A2A2A205656
:10024000002A20536F756E64204D6F64756C6520B5
:100250002A002A2A2A2A2A2A2A2A2A2A2A2A2A2A28
:100260002A2A0043757272656E7420736F756E640E
:100270003A2025640D0A0046696C657320666F7527
:100280006E643A2025640D0A00457175616C697AC7
:1002900065723A202025730D0A00566F6C756D65E6
:1002A0002020202020203A2025640D0A005374616C
:1002B0007465202020202020203A2025640D0A008B
:1002C000455252004446506C61796572206E6F74DD
:1002D00020666F756E64004551204D6F64653A204D
:1002E00025730D0A00506C61795061757365436820
:1002F0003A2025640D0A005072657643683A20253D
:10030000640D0A004E65787443683A2025640D0A2E
:1003100000566F6C43683A2025640D0A00496E70E0
:100320007574204D6F64652069732025730D0A0074
:10033000566F6C3A25640D0A00416C61726D3A206B
:100340002564207374617274656420210D0A005362
:100350006F756E644E756D6265723A2025640D0A84
:100360000000000000240027002A002D00300000BB
:10037000000000250028002B002E003100000000A6
:10038000002300260029002C002F0004040404048C
:100390000304050202020204030202020206060628
:1003A00006060604040202020404040802011040C6
:1003B00080401020408040800802040180402010CE
:1003C0000201108010204040200000000200090FB0
:1003D0000000030401000C00000000000000000009
:1003E00000000000000000004C1311241FBECFEFDE
:1003F000DAE0DEBFCDBF15E0A0E0B1E0EAE2F2E472
:1004000002C005900D92A230B107D9F727E0A2E013
:10041000B5E001C01D92AB36B207E1F711E0C5EFC0
:10042000D1E004C02197FE010E940D21C43FD107F5
:10043000C9F70E94C9130C9413210C940000FC010D
:1004400080910406882311F13FB7F89482E08093ED
:10045000E9002091F200822F90E01816190614F49A
:1004600081E090E0882339F0289844E64093030621
:100470004091F1004083222339F02091F2002111B4
:1004800003C02BE62093E8003FBF08958FEF9FEF56
:1004900008952FB7F89483E08093E9009091E800E5
:1004A000892F807295FF04C09091F20080E4891B2F
:1004B0002FBF08958091FB0581110DC082E08093CC
:1004C000F70584E08093F8051092FA051092F9057B
:1004D00081E08093FB0587EF95E0089581508F3090
:1004E00008F047C0E82FF0E0E858FD4F0C940D21CC
:1004F0009502990287028D029102B902B902B902EE
:100500009C02A202A602AA02B002B902B402809121
:1005100080008F77809380000895809180008F7D88
:10052000F9CF80918000877FF5CF84B58F7784BD28
:10053000089584B58F7DFBCF809190008F77809355
:1005400090000895809190008F7DF9CF8091900068
:10055000877FF5CF8091C0008F778093C00008958A
:100560008091C0008F7DF9CF8091C200877F8093FA
:10057000C2000895CF93DF93282F30E0F901E753AD
:10058000FC4F8491F901E655FC4FD491F901E557F0
:10059000FC4FC491CC23A1F081110E946E02EC2F7C
:1005A000F0E0EE0FFF1FE358FC4FA591B491EC91E2
:1005B000ED2381E090E009F480E0DF91CF91089590
:1005C00080E090E0FACF1F93CF93DF93282F30E0A5
:1005D000F901E753FC4F8491F901E655FC4FD491A2
:1005E000F901E557FC4FC491CC23A9F0162F8111D6
:1005F0000E946E02EC2FF0E0EE0FFF1FE159FC4F5E
:10060000A591B4918FB7F894EC91111108C0D095D1
:10061000DE23DC938FBFDF91CF911F910895DE2BF6
:10062000F8CFCF93DF9390E0FC01E655FC4F249187
:1006300085579C4FFC0184918823C9F090E0880F76
:10064000991FFC01EF59FC4FA591B491FC01E159B0
:10065000FC4FC591D49161110DC09FB7F8948C9156
:10066000209582238C938881282328839FBFDF9144
:10067000CF910895623051F49FB7F8943C91822F46
:10068000809583238C93E8812E2BEFCF8FB7F8943E
:10069000EC912E2B2C938FBFEACF3FB7F89480912B
:1006A000F3059091F405A091F505B091F60526B5F6
:1006B000A89B05C02F3F19F00196A11DB11D3FBF9A
:1006C000BA2FA92F982F8827BC01CD01620F711D69
:1006D000811D911D42E0660F771F881F991F4A9563
:1006E000D1F708958F929F92AF92BF92CF92DF92EF
:1006F000EF92FF924B015C010E944D036B017C0164
:100700000E944D036C197D098E099F09683E734054
:1007100081059105A8F321E0821A9108A108B1088A
:1007200088EEC80E83E0D81EE11CF11C81149104F0
:10073000A104B10429F7FF90EF90DF90CF90BF9014
:10074000AF909F908F900895CF93C09123016AE05E
:1007500070E080E090E00E94720381E0C11101C06E
:1007600080E0CF9108952FB7F8946091EF057091D4
:10077000F0058091F1059091F2052FBF0895CF9378
:10078000DF93809315011092170160931801209157
:10079000130190911401290F3327331F820F932FD8
:1007A000911D20911601820F911D680F791F71957F
:1007B000619571097093190160931A0180910B067C
:1007C00090910C06DC01ED91FC910084F185E02D07
:1007D0000995892B61F080910B0690910C06DC0144
:1007E000ED91FC910284F385E02D0995E7CFC2E1FC
:1007F000D1E080910B0690910C066991DC01ED919E
:10080000FC910190F081E02D0995B1E0CC31DB073E
:1008100081F7DF91CF910C94B303CF92DF92EF92E7
:10082000FF921F93CF93DF93D82FC0E011E0C090C9
:100830000706D0900806E0900906F0900A0680911D
:100840001101882311F10E94B3036C197D098E09EF
:100850009F09683E73408105910560F01092110177
:100860000E94B303609307067093080680930906FD
:1008700090930A06CF5FDC13DACFDF91CF911F91FF
:10088000FF90EF90DF90CF9008950E94B3036C1912
:100890007D098E099F09643F71408105910550F3E0
:1008A00010931101DDCF089540911705509118055F
:1008B000209115053091160542175307B4F4909115
:1008C000E8009570E1F39091E80092FD19C08093E3
:1008D000F100809117059091180501968F73992763
:1008E000892B19F48EEF8093E80080911705909181
:1008F00018050196909318058093170581E00895D7
:1009000080E00895EF92FF920F931F93CF93DF93B0
:10091000F82E192FE62E042F81E0860F880F0E94F3
:10092000540483E00E945404CF2DD12FEC0EFD2EF1
:10093000F11CCE15DF05B9F007FF13C0FE0184914D
:100940000E945404182F80E00E94540481232196B1
:100950008111EFCFDF91CF911F910F91FF90EF9019
:1009600008958881EDCF81E0F5CFDF92EF92FF927D
:100970000F931F93CF93DF93D82E8A01EB017B0156
:10098000E40EF51ECE15DF0559F0D7FE12C0FE01AC
:1009900084910E94540421968111F4CF0FEF1FEF30
:1009A000C801DF91CF911F910F91FF90EF90DF90E1
:1009B00008958881EECF0F931F93CF93DF931F92FB
:1009C000CDB7DEB782E0898342E450E06CEB71E0A2
:1009D00080E80E94B5040E945A02DC0112960D9133
:1009E0001C910115110589F0D801ED91FC9102804F
:1009F000F381E02DBE016F5F7F4FC801099597FD20
:100A000004C0F80100851185ECCF89810F90DF913A
:100A1000CF911F910F910895615030F02091F10016
:100A2000FC0120830196F8CF289884E68093030682
:100A30000895EF92FF920F931F93CF93DF938C0152
:100A40007B01D0E0C0E0F701EC0FFD1F649166234D
:100A500061F0D801ED91FC910190F081E02DC80189
:100A60000995892B11F02196EECFCE01DF91CF9120
:100A70001F910F91FF90EF900895AF92BF92CF9288
:100A8000DF92EF92FF920F931F93CF93DF936C014E
:100A90007B018B01040F151FEB015E01AE18BF082F
:100AA000C017D10759F06991D601ED91FC910190E1
:100AB000F081E02DC6010995892B79F7C501DF91F9
:100AC000CF911F910F91FF90EF90DF90CF90BF904B
:100AD000AF900895FC01538D448D252F30E0842F75
:100AE00090E0821B930B541710F0CF960895019756
:100AF0000895FC01918D828D981761F0A28DAE0F43
:100B0000BF2FB11D5D968C91928D9F5F9F73928FC9
:100B100090E008958FEF9FEF0895FC01918D828DF5
:100B2000981731F0828DE80FF11D858D90E00895C2
:100B30008FEF9FEF0895FC01918D228D892F90E01A
:100B4000805C9F4F821B91098F73992708958EE1D6
:100B500096E00E949B0521E0892B09F420E0822F7A
:100B6000089580E090E0892B29F00E94A70581116B
:100B70000C9400000895FC01A48DA80FB92FB11D9D
:100B8000A35ABF4F2C91848D90E001968F739927C3
:100B9000848FA689B7892C93A089B1898C9182749E
:100BA0008C93938D848D981306C00288F389E02D71
:100BB00080818F7D80830895EF92FF920F931F9322
:100BC000CF93DF93EC0181E0888F9B8D8C8D981300
:100BD00019C0E889F989808185FF14C09FB7F8940E
:100BE000EE89FF896083E889F98980818274808336
:100BF0009FBF81E090E0DF91CF911F910F91FF9017
:100C0000EF900895F62E0B8D10E00F5F1F4F0F73BE
:100C10001127E02E8C8D8E110CC00FB607FCFACF79
:100C2000E889F989808185FFF5CFCE010E94BB0557
:100C3000F1CFEB8DEC0FFD2FF11DE35AFF4FF0824A
:100C40009FB7F8940B8FEA89FB8980818062CFCFB0
:100C5000CF93DF93EC01888D8823B9F0AA89BB89F3
:100C6000E889F9898C9185FD03C0808186FD0DC0DE
:100C70000FB607FCF7CF8C9185FFF2CF808185FFFF
:100C8000EDCFCE010E94BB05E9CFDF91CF91089552
:100C90008F929F92AF92BF92CF92DF92EF92FF928C
:100CA0000F931F93CF93DF936C017B018A01809197
:100CB0002301882309F45CC080910406882309F489
:100CC00057C080911B0580FF05C08091E0008260C5
:100CD0008093E000E801B12C8AEFA82E93E0892EE2
:100CE0002AE3922E209711F4BB20D9F10E944902E9
:100CF00081110AC0AA94AA20D9F161E070E080E0D5
:100D000090E00E947203EECF8C171D0611F00CF0DC
:100D10008C2F9FB7F8948092E9002091E80025FD80
:100D200002C09FBFDFCF282F30E0C21BD30BF701DB
:100D3000815020F041914093F100FACFE20EF31E72
:100D4000BB2021F09092E800B12CEBCF8091E8001D
:100D500085FDE7CF9092E800BB24B394209709F378
:100D6000F3CF5D9884E680931A05101611063CF0C7
:100D700081E090E0F6019383828310E000E0C801F7
:100D8000DF91CF911F910F91FF90EF90DF90CF9067
:100D9000BF90AF909F908F900895CF93DF931F9255
:100DA000CDB7DEB76983DC01ED91FC910280F38160
:100DB000E02D41E050E0BE016F5F7F4F09950F903D
:100DC000DF91CF91089583E08093E9008091F20054
:100DD000882319F08AE38093E80008950E9449026D
:100DE00090E00895CF93DF931F92CDB7DEB7FC015B
:100DF0008485958597FD08C02FEF3FEF35872487C1
:100E00000F90DF91CF910895CE0101960E941F02AD
:100E1000019719F4898190E0F3CF8FEF9FEFF0CF26
:100E20000F931F93CF93DF931F92CDB7DEB78C0143
:100E3000FC018485958597FF0BC0CE0101960E9429
:100E40001F02019771F4898190E0F80195878487EA
:100E5000F801848595850F90DF91CF911F910F91B7
:100E600008958FEF9FEFF1CFFC018485958597FD65
:100E70000BC09FB7F89482E08093E9008091F20064
:100E80009FBF90E0019608959FB7F89482E0809309
:100E9000E9008091F2009FBF90E00895BC0186E0D8
:100EA0000C94BF03BC0183E00C94BF0370E060E0CE
:100EB0000C94BF038F929F92AF92BF92CF92DF921A
:100EC000EF92FF926C010E94B3034B015C01F12C85
:100ED000E12C0E94B303681979098A099B096C15F2
:100EE0007D058E059F0540F4E0911F05F0912005DA
:100EF000309779F30995EDCFFF90EF90DF90CF9089
:100F0000BF90AF909F908F900895BF92CF92DF9245
:100F1000EF92FF920F931F93CF93DF930E944D03A5
:100F20006B017C01C0910506D0910606BB24BA94E2
:100F300001E010E0209709F458C08D818370D1F54D
:100F400020913E05422F50E08C81843048F4882364
:100F5000C1F1813099F18230B9F522E030E01AC058
:100F600098EF980F682F6450770B943058F08E30BC
:100F700029F18F3091F3803121F1813129F1682FEE
:100F80006651770B9B01B80102C0660F771F2A9547
:100F9000E2F79B0124233523232B61F00E94BA0240
:100FA0009D8192FB992790F9981789F0CA86DB8674
:100FB000EC86FD860A80DB81C02DBCCF28E030E0C6
:100FC000E9CF24E030E0E6CF21E030E0E3CF8A85CE
:100FD0009B85AC85BD859601281B390B3F872E87E5
:100FE000B88A0E94B303698BE5CFDF91CF911F913F
:100FF0000F91FF90EF90DF90CF90BF900895BF9238
:10100000CF92DF92EF92FF920F931F93CF93DF93D4
:101010000E944D036B017C01C0910506D09106062C
:1010200001E010E0BB24BA94209709F459C08D81E7
:1010300083708130D1F520914A05422F50E08C8198
:10104000843048F48823C1F1813099F18230B9F5B8
:1010500022E030E01AC098EF980F682F6450770BA9
:10106000943058F08E3029F18F3091F3803121F196
:10107000813129F1682F6651770B9B01B80102C0BD
:10108000660F771F2A95E2F79B0124233523232B34
:1010900061F00E94BA029D8192FB992790F99817FE
:1010A00089F0CA86DB86EC86FD860A80DB81C02D4E
:1010B000BBCF28E030E0E9CF24E030E0E6CF21E00C
:1010C00030E0E3CF8A859B85AC85BD859601281BE2
:1010D000390B3F872E87B88A0E94B303698BE5CF0F
:1010E000DF91CF911F910F91FF90EF90DF90CF9004
:1010F000BF9008950895FC018685978526853785DC
:1011000082179307C9F70895FC01808990E0062EA5
:1011100002C0959587950A94E2F780FF1CC020894C
:1011200081E090E001C0880F6A95EAF780958223FC
:10113000808B268537858685978528173907C9F7D7
:10114000868197812817390730F081E040855185E5
:101150004217530708F480E008950C948408E09146
:101160004D053CE0E39FF0011124EB5CFA4F218533
:1011700080912105843008F059C080912105882391
:1011800009F486C080912105813009F47BC08091EB
:101190002105823009F479C080912105833009F45A
:1011A0007AC080912105873009F469C090E080E021
:1011B000E0914D054CE0E49FF0011124EB5CFA4F07
:1011C0003385232330E082239323892B09F483C0C2
:1011D0000E944D032091070530910805AB01421B89
:1011E000530B9A017093080560930705283B5BE059
:1011F000350708F45EC020912205209368051092FF
:1012000022052FEF209369053091060520910605F0
:101210002E7F30FF2160209306052091060520FFD8
:101220003DC07093050560930405089580912105E4
:10123000883080F0809121058C3060F44091210548
:101240004450550B81E090E002C0880F991F4A95E9
:10125000E2F7AECF809121058E30A1F0809121057B
:101260008F3099F080912105803191F08091210596
:10127000813189F0409121054651550BE3CF80E142
:1012800090E096CF88E090E093CF82E090E090CF1E
:1012900084E090E08DCF81E090E08ACF209104053A
:1012A00030910505621B730B709303056093020573
:1012B000089580912205893070F4E0912205F0E0D4
:1012C000EE0FFF1FED5DFA4F3183208380912205E1
:1012D0008F5F8093220508952091690530E0062EE6
:1012E00002C0359527950A94E2F7C90181709927C4
:1012F00020FF0CC04091690521E030E001C0220FC1
:101300006A95EAF720952423209369050895882398
:1013100099F090916805981778F08150E82FF0E0E7
:10132000EE0FFF1FED5DFA4F8081918120813181A9
:1013300082179307C9F708958CED95E00895862FDD
:101340000C94870989B18F70E5E3F5E0878B868976
:1013500097898927858B8789868B0288F389E02D79
:10136000099489B18F70E5E3F5E0878B86899789C9
:101370008927858B8789868B0088F189E02D0994E0
:1013800089B18F70E5E3F5E0878B86899789892796
:10139000858B8789868B0684F785E02D099489B132
:1013A0008F70E5E3F5E0878B868997898927858BA0
:1013B0008789868B0484F585E02D0994843088F430
:1013C0009DB3882341F0813041F0823041F081E0CB
:1013D000892B8DBB089584E0FBCF88E0F9CF82E0B4
:1013E000F7CF28EF280F243040F092EF980F943079
:1013F00020F096EE980F9330D0F59091680024304D
:1014000050F032EF380F343030F036EE380FF0E075
:10141000E0E0333010F4E8E6F0E0916090832430AF
:1014200050F092EF980F943030F096EE980FF0E075
:10143000E0E0933010F4EBE6F0E030812430C0F4CB
:1014400091E0682F6450770B01C0990F6A95EAF715
:10145000932B243048F022EF280F243028F08A51B3
:10146000F0E0E0E0833010F4EBE6F0E090830895E4
:1014700098E08E3069F392E08F3051F394E0803140
:1014800039F391E0813121F3682F6651770BDCCF7E
:10149000CF93DF93982F28EF280F81E0243008F4B2
:1014A00080E0282F30E09430A0F59230D1F49CE019
:1014B000929FF001939FF00D1124EB5CFA4F738320
:1014C000628320EC39E0309307012093060190916C
:1014D0006900937F946090936900E99ADF91CF91BE
:1014E00008959CE0929FF001939FF00D1124EB5C16
:1014F000FA4F718360832FEC39E03093050120931C
:101500000401909169009C7F916090936900E89A32
:10151000E5CF50E040E096E0929FE001939FD00D30
:101520001124DE01A40FB51FAA0FBB1FAB5CBA4F7D
:10153000ED91FC91E617F70789F24F5F5F4F44305A
:10154000510579F79CE0929FD001939FB00D112433
:10155000AB5CBA4F18969C911897943010F08FEFAF
:10156000BDCF1896EC911897EC0FFD2FF11DEE0FE3
:10157000FF1FEB5CFA4F7183608318969C9118975C
:101580009F5F18969C93AACF1F93CF93DF93EC0194
:10159000162F98EF960F8D818C7F943088F18160A3
:1015A0008D836FEF77E0812F0E94480A982F937008
:1015B0008D818C7F892B8D831C8388E592E09F83AE
:1015C0008E8380E699E099878887809105069091BF
:1015D00006069B838A83D0930606C093050660E0C7
:1015E000812F0E94110361E08C810E94E3028C81B3
:1015F0000E94DE098D818370DF91CF911F91089544
:101600008D8365E877E0CFCF0F931F93CF93DF9360
:101610000DE016E0D0E0C0E0CE010E946520F801A8
:1016200081938F012196C131D105B1F78DE096E00C
:10163000DF91CF911F910F910895FF920F931F9308
:10164000CF93DF930DE016E0D0E0C0E0F801F19019
:101650008F01CE010E946520F81621F06F2DCE017A
:101660000E946D202196C131D10581F78DE096E071
:10167000DF91CF911F910F91FF900895FB01019091
:101680000020E9F73197AF01461B570BDC01ED91C4
:10169000FC910280F381E02D09948F929F92AF928A
:1016A000BF92EF92FF920F931F93CF93DF93CDB72B
:1016B000DEB7A1970FB6F894DEBF0FBECDBF7C0199
:1016C000FA01CB0119A2223008F42AE08E010F5D45
:1016D0001F4F822E912CB12CA12CBF01A50194018A
:1016E0000E94DC20F901CA016A300CF5605DD80166
:1016F0006E938D01232B242B252B79F790E080E02E
:10170000109721F0BD01C7010E943E0BA1960FB6B4
:10171000F894DEBF0FBECDBFDF91CF911F910F9127
:10172000FF90EF90BF90AF909F908F900895695C6D
:10173000DECFAC0170E060E02AE08BEB96E00C9429
:101740004D0BCF92DF92EF92FF920F931F93CF93A7
:10175000DF936B01770FEE08FF084A30510511F552
:101760002AE0F7FE20C0EC01E881F9810190F081C8
:10177000E02D6DE209958C0144275527BA014C19DB
:101780005D096E097F092AE0CE010E944D0B800F92
:10179000911FDF91CF911F910F91FF90EF90DF90FC
:1017A000CF900895242FB701A601DF91CF911F910B
:1017B0000F91FF90EF90DF90CF900C944D0B00971E
:1017C00029F0BC018BEB96E00C943E0B90E080E09E
:1017D000089589E980930D0685E080930E0686E0E2
:1017E0008093100687E080930F0688E080931106AF
:1017F00089E0809312068AE0809313068CED95E0D1
:10180000909315068093140688EE93E09093190642
:101810008093180680ED97E0909317068093160644
:1018200081E080931A0610921B0680931C0610928A
:101830001D0683E00E940D040E94A4038823B9F0D2
:101840008BE491E09F938F931F9284E68F938FE6B2
:1018500095E09F938F930E94B71D8FE695E00E94BD
:10186000DF0B0F900F900F900F900F900F900C9434
:101870001D0B0E94040B80910D06893949F00E94CE
:10188000E90B64EF71E080E090E00E947203F1CF19
:101890000E94A403882321F08EE393E00E94DF0BD3
:1018A0000E94A403882321F088E394E00E94DF0BC8
:1018B0000E94A403882321F083E891E00E94DF0BBB
:1018C0000E94A403882321F088E394E00E94DF0BA8
:1018D0000E94A403882361F0E0911A06E150FF0BF7
:1018E000EE0FFF1FE95CFE4F808191810E94DF0BAC
:1018F0000E94A403882321F08EE393E00E94DF0B73
:101900000E94A403882321F1E0911D06F0E0EE0F70
:10191000FF1FE55DFE4F81818F9380818F938CE364
:1019200091E09F938F931F9284E68F938FE695E0CB
:101930009F938F930E94B71D8FE695E00E94DF0B67
:101940008DB79EB708960FB6F8949EBF0FBE8DBF99
:101950000E94A4038823E9F0809113061F928F93BD
:101960008CE291E09F938F931F9284E68F938FE692
:1019700095E09F938F930E94B71D8FE695E00E949C
:10198000DF0B8DB79EB708960FB6F8949EBF0FBEBB
:101990008DBF80911B06882309F402C180911C062B
:1019A000833009F0FDC00E94A403882321F08FE951
:1019B00091E00E94DF0B0E94A4038823E9F080914C
:1019C00010061F928F938CE091E09F938F931F924C
:1019D00084E68F938FE695E09F938F930E94B71DC7
:1019E0008FE695E00E94DF0B8DB79EB708960FB685
:1019F000F8949EBF0FBE8DBF0E94A4038823E9F018
:101A000080910F061F928F938CEF90E09F938F939E
:101A10001F9284E68F938FE695E09F938F930E94A9
:101A2000B71D8FE695E00E94DF0B8DB79EB7089635
:101A30000FB6F8949EBF0FBE8DBF0E94A4038823EB
:101A4000E9F0809111061F928F938CEE90E09F93A6
:101A50008F931F9284E68F938FE695E09F938F93E9
:101A60000E94B71D8FE695E00E94DF0B8DB79EB7F1
:101A700008960FB6F8949EBF0FBE8DBF0E94A403B8
:101A80008823E9F0809112061F928F938CED90E0ED
:101A90009F938F931F9284E68F938FE695E09F9399
:101AA0008F930E94B71D8FE695E00E94DF0B8DB7E4
:101AB0009EB708960FB6F8949EBF0FBE8DBF0E94CA
:101AC000A4038823F9F0809117068F93809116065E
:101AD0008F938CEC90E09F938F931F9284E68F936B
:101AE0008FE695E09F938F930E94B71D8FE695E058
:101AF0000E94DF0B8DB79EB708960FB6F8949EBF75
:101B00000FBE8DBF0E94A4038823F9F080911506B3
:101B10008F93809114068F938CEB90E09F938F931B
:101B20001F9284E68F938FE695E09F938F930E9498
:101B3000B71D8FE695E00E94DF0B8DB79EB7089624
:101B40000FB6F8949EBF0FBE8DBF0E94A4038823DA
:101B5000F9F0809119068F93809118068F938CEA83
:101B600090E09F938F931F9284E68F938FE695E08A
:101B70009F938F930E94B71D8FE695E00E94DF0B25
:101B80008DB79EB708960FB6F8949EBF0FBE8DBF57
:101B90000E94A403882339F18EE393E00C94DF0BB9
:101BA0000E94A403882309F406CF80910E061F9299
:101BB0008F938CE191E09F938F931F9284E68F9394
:101BC0008FE695E09F938F930E94B71D8FE695E077
:101BD0000E94DF0B8DB79EB708960FB6F8949EBF94
:101BE0000FBE8DBFE8CE08956EE373E00C943E0BFC
:101BF0000F931F93CF93DF93EC010E9419058C0183
:101C0000CE010E94F40D800F911FDF91CF911F91A3
:101C10000F9108954F925F926F927F928F929F9251
:101C2000AF92BF92CF92DF92EF92FF920F931F93EA
:101C3000CF93DF937C01D82F0E94B3032B013C018B
:101C400080911D0590911E05009799F067E971E05C
:101C50000E94190500911D0510911E05A701FF0C9A
:101C6000660B770B20E1C8010E944D0BC8010E9452
:101C7000F40DC0E093E1892E95E0992E0E94B30304
:101C80006419750986099709683E734081059105B5
:101C900048F1109213051092140580911D05909142
:101CA0001E05009721F06CE671E00E94F80D20916E
:101CB00013058091140590E0FFEF2F9F800D911D7B
:101CC0001124DF91CF911F910F91FF90EF90DF9042
:101CD000CF90BF90AF909F908F907F906F905F90CC
:101CE0004F90089585E090E00E945A0789E0C82E41
:101CF00085E0D82EF60111928E169F06E1F78091AD
:101D00000B0690910C06DC01ED91FC910084F185AD
:101D1000E02D09950A970CF46CC010E000E080916A
:101D20000B0690910C06DC01ED91FC910284F38589
:101D3000E02D09957C01019609F45BC080911D0599
:101D400090911E05009711F168E671E00E94190557
:101D50004AE050E0B80180911D0590911E050E9457
:101D6000A10B62E671E080911D0590911E050E9415
:101D70001905A0901D05B0901E0540E150E0B70187
:101D8000C5010E94A10BC5010E94F40DF601E1926C
:101D90006F010F5F1F4F0A30110509F6C0910C0546
:101DA000C034E1F480911D0590911E05009709F45F
:101DB00065CF6DE771E00E94190500911D05109136
:101DC0001E0540910F0550E070E060E02AE0C80178
:101DD0000E944D0BC8010E94F40D50CFDC134ECF72
:101DE00080910E058093130580910F058093140553
:101DF00054CF82E390E00E945A07DC133FCF4DCFCF
:101E00001F920F920FB60F9211242F933F938F932F
:101E10009F93AF93BF938091EF059091F005A091B0
:101E2000F105B091F2053091EE0523E0230F2D3737
:101E300058F50196A11DB11D2093EE058093EF0585
:101E40009093F005A093F105B093F2058091F3050E
:101E50009091F405A091F505B091F6050196A11DAC
:101E6000B11D8093F3059093F405A093F505B0930D
:101E7000F605BF91AF919F918F913F912F910F9058
:101E80000FBE0F901F90189526E8230F0296A11DF4
:101E9000B11DD2CF1F920F920FB60F9211242F9324
:101EA0003F934F935F936F937F938F939F93AF93E2
:101EB000BF93EF93FF93E0910C01F0910D01099511
:101EC000FF91EF91BF91AF919F918F917F916F9112
:101ED0005F914F913F912F910F900FBE0F901F90E8
:101EE00018951F920F920FB60F9211242F933F93C4
:101EF0004F935F936F937F938F939F93AF93BF9312
:101F0000EF93FF93E0910A01F0910B010995FF9186
:101F1000EF91BF91AF919F918F917F916F915F9161
:101F20004F913F912F910F900FBE0F901F901895DA
:101F30001F920F920FB60F9211242F933F934F933E
:101F40005F936F937F938F939F93AF93BF93EF9321
:101F5000FF93E0910801F09109010995FF91EF913C
:101F6000BF91AF919F918F917F916F915F914F91B1
:101F70003F912F910F900FBE0F901F9018951F92B9
:101F80000F920FB60F9211242F933F934F935F93AD
:101F90006F937F938F939F93AF93BF93EF93FF9331
:101FA000E0910601F09107010995FF91EF91BF9132
:101FB000AF919F918F917F916F915F914F913F91E1
:101FC0002F910F900FBE0F901F9018951F920F9298
:101FD0000FB60F9211242F933F934F935F936F93FC
:101FE0007F938F939F93AF93BF93EF93FF93E09172
:101FF0000401F09105010995FF91EF91BF91AF9117
:102000009F918F917F916F915F914F913F912F9110
:102010000F900FBE0F901F9018951F920F920FB642
:102020000F9211248F939F938091E1009091E10092
:10203000937F9093E10083FF0FC01092E90091E03D
:102040009093EB001092EC0092E39093ED001092CD
:10205000040698E09093F00082FF22C093E09093F2
:10206000E9009091F200992319F09AE39093E80027
:1020700090911A05992341F090911A0591509093EF
:102080001A05911101C05D9A90910306992341F0C0
:1020900090910306915090930306911101C0289AE4
:1020A00084FF18C08091E2008E7E81608093E20000
:1020B0008091E1008F7E8093E10080911B058E7EF0
:1020C000806180931B059F918F910F900FBE0F90A1
:1020D0001F90189580FFF7CF8091E2008E7E80617F
:1020E0008093E2008091E1008E7E8093E1008091F8
:1020F0001B058E7E8160E5CF1F920F920FB60F9267
:102100001124CF92DF92EF92FF920F931F932F93A0
:102110003F934F935F936F937F938F939F93AF936F
:10212000BF93EF93FF93CF93DF93CDB7DEB76C9759
:10213000DEBFCDBF1092E9008091E80083FF25C08B
:1021400068E0CE0145960E940C0582EF8093E8007E
:102150008D8987FF39C09091E80090FFFCCF982FC0
:10216000907609F034C19E894F89588D2F89F88C5B
:10217000911131C0803861F580911C058093F10088
:102180001092F1008EEF8093E8006C960FB6F894F1
:10219000DEBF0FBECDBFDF91CF91FF91EF91BF9119
:1021A000AF919F918F917F916F915F914F913F91EF
:1021B0002F911F910F91FF90EF90DF90CF900F9094
:1021C0000FBE0F901F9018959EEF9093E800C7CF19
:1021D0001092F100D5CF913059F48111D3CF413015
:1021E000510581F680911C058D7F80931C05CACF17
:1021F000933049F48111C6CF4130510519F68091D1
:102200001C058260F2CF953041F48091E80080FF98
:10221000FCCF20682093E300B5CF963009F0A9C029
:102220000B8D1C8D22E01092E9001092180510927F
:102230001705F2122EC010921605109215050E9475
:10224000DB041F8299E09983FA8291E09E8390EAF1
:1022500098879AEF99872091170530911805275F85
:102260003F4F3C832B838D831092E9001092180519
:1022700010921705109316050093150549E050E0DC
:10228000BE016F5F7F4F80E00E94B5040E94DB04B7
:1022900079CF10931605009315050E945A02DC01B0
:1022A00012960D911C910115110509F451C1D80127
:1022B000ED91FC910480F581E02DBE016B5E7F4FB6
:1022C000C8010995009709F03EC1F8010085118504
:1022D000EACFF3E0FF120EC08F89882309F440C0D3
:1022E000823061F440E862E18DE192E00E94820474
:1022F000811148CF81E28093EB0047CF813029F4F0
:1023000040E868E084E192E0F1CF833099F70E94E1
:102310005A02DC011296ED90FC908E010F5F1F4F68
:102320006801E114F10479F0D701ED91FC91068088
:10233000F781E02DB801C7010995080F111DF701BC
:10234000E084F184EECFD8011C92F60101900020C8
:10235000E9F73197BF016C197D0940E0C601C6CF8E
:102360006EEF71E0FB01449150E080E80E94B504FB
:1023700009CF973009F4BECF983021F481E08093E3
:10238000F10000CF993009F0FDCE837009F0B2CF93
:10239000E5E2F1E081E031E096E32191222371F062
:1023A0008093E9003093EB00DF0111972C9120938B
:1023B000EC009093ED008F5F873079F78EE7809384
:1023C000EA001092EA008F8980930406DBCE8B8DA1
:1023D0009C8D1092E90010921805109217059093A9
:1023E000160580931505898D811192C08E899D896E
:1023F000913A49F4813209F07DCF47E050E06CE139
:1024000071E080E0B3CF913209F074CF833269F488
:102410008F89988DB0E0A0E0809300019093010136
:10242000A0930201B0930301ADCE803269F4809194
:10243000E80082FFFCCF67E08CE191E00E940C0590
:102440008BEF8093E8009ECE823209F09BCE8F897D
:1024500080932301EEEFFFE7859194918B3F9C4D94
:1024600051F1E0E0F8E080911C0190911D01A091F4
:102470001E01B0911F01803B9440A105B105F1F40C
:102480008091230180FD1AC0EE3F8AE0F80789F5AC
:1024900087E797E791838083809160008093190597
:1024A00088E19BE00FB6F894A895809360000FBE7A
:1024B0009093600067CEEEEFFAE0D5CF80819181F6
:1024C0008737974709F05ECEA895809160008861B4
:1024D000809360008091190580936000EE3F2AE0B0
:1024E000F20789F08091FE0A9091FF0A9183808320
:1024F00049CE808191818737980751F29093FF0AE6
:102500008093FE0AC5CF1092FF0A1092FE0A3ACEBF
:102510000E945A02DC0112960D911C9101151105C1
:1025200009F4E8CED801ED91FC910190F081E02D05
:10253000BE016B5E7F4FC8010995811123CEF80162
:1025400000851185EBCF181619060CF41BCED2CEE0
:10255000F1E0FF12BECE62E072E004CF1F920F9254
:102560000FB60F9211242F933F934F935F936F9366
:102570007F938F939F93AF93BF93EF93FF938EE1DE
:1025800096E00E94BB05FF91EF91BF91AF919F91A3
:102590008F917F916F915F914F913F912F910F900C
:1025A0000FBE0F901F9018951F920F920FB60F92AB
:1025B00011242F938F939F93EF93FF93E0912E0617
:1025C000F0912F068081E0913406F091350682FD6E
:1025D0001BC09081809137068F5F8F7320913806E2
:1025E000821741F0E0913706F0E0E25EF94F958FF7
:1025F00080933706FF91EF919F918F912F910F90CC
:102600000FBE0F901F9018958081F4CF1F920F92EC
:102610000FB60F9211242F933F934F935F936F93B5
:102620007F938F939F93AF93BF93CF93EF93FF933A
:1026300083B190916B0089238093400580913F0581
:1026400090914005892780933E05809140058093B5
:102650003F05C0E080913D05C81760F4EC2FF0E025
:10266000EE0FFF1FEB5CFA4F0190F081E02D099512
:10267000CF5FF0CFFF91EF91CF91BF91AF919F913D
:102680008F917F916F915F914F913F912F910F901B
:102690000FBE0F901F901895EEE1F6E013821282A4
:1026A00088EE93E0A0E0B0E084839583A683B783AF
:1026B0002FE431E0318320832DEC30E0358724870F
:1026C0002CEC30E03787268728EC30E0318B208BEC
:1026D00029EC30E0338B228B2AEC30E0358B248BD5
:1026E0002EEC30E0378B268B118E128E138E148ECB
:1026F000EBEBF6E01382128284839583A683B78383
:1027000081E691E0918380838FEF9FEF95878487A7
:102710008DE791E090935A0780935907EEE5F7E033
:1027200020812B7F20839093480780934707ECE418
:10273000F7E020812B7F2083909336078093350725
:10274000EAE3F7E020812B7F208390932407809396
:102750002307E8E2F7E020812B7F20839093120784
:1027600080931107E6E1F7E080818B7F808383E728
:1027700091E09093100780930F070E94B30360933A
:102780000B0770930C0780930D0790930E070C9422
:10279000B303CF93DF93CDB7DEB7789484B582606F
:1027A00084BD84B5816084BD85B5826085BD85B5F5
:1027B000816085BD80916E00816080936E00109273
:1027C00081008091810082608093810080918100EE
:1027D000816080938100809180008160809380007F
:1027E000809191008260809391008091910081603E
:1027F00080939100809190008160809390008091FF
:10280000C10084608093C1008091C1008260809388
:10281000C1008091C10081608093C1008091C3009C
:1028200081608093C3008091C00082608093C0006B
:102830008091C20081608093C20080917A008460A0
:1028400080937A0080917A00826080937A008091F0
:102850007A00816080937A0080917A00806880930A
:102860007A001092040610921C0510921B058091AC
:10287000D70081608093D70080EA8093D80089B523
:10288000806189BD89B5826089BD09B400FEFDCF34
:1028900061E070E080E090E00E9472038091D800D7
:1028A0008F7C80618093D8008091E000807F80934E
:1028B000E0008091E1008E7E8093E1008DE08093C6
:1028C000E200559A209A6DB67EB660E084E00E94E0
:1028D000110361E085E00E94110361E085E00E9440
:1028E000E3020E94040B05E411E062E0F80181912B
:1028F0008F010E941103F1E00D341F07B1F7E09141
:102900002E06F0912F0682E08083E0912A06F09156
:102910002B061082E0912C06F0912D068FEC80831F
:1029200010923606E0913206F091330686E08083FD
:10293000E0913006F0913106808180618083E091E2
:102940003006F0913106808188608083E091300606
:10295000F0913106808180688083E0913006F091AB
:10296000310680818F7D80838FEF9FEF9093C80623
:102970008093C70668EE73E080E090E00E947203E7
:102980008091D505882331F08BEB96E090931E055E
:1029900080931D050E94A403882321F081EB91E020
:1029A0000E94DF0B8EE196E090930C0680930B065D
:1029B0001092200510921F0562E070E089E00E94ED
:1029C000BF0370E060E087E00E94BF0380911306C0
:1029D00090E00E944E0764EF71E080E090E00E947A
:1029E00072038091130690E00E944E0764EF71E03D
:1029F00080E090E00E94720383E40E94560783E423
:102A000090E00E940A0E80936D0588E40E945607AC
:102A100088E490E00E940A0E8FE40E9456078FE43B
:102A200090E00E940A0E8C018FEC91E00E94DF0B77
:102A3000402F50E070E060E02AE08BEB96E00E94CF
:102A40004D0B8BEB96E00E94F40D1127C801880F07
:102A5000991F2DB73EB7281B390B0FB6F8943EBF10
:102A60000FBE2DBFADB7BEB71196EDB7FEB7128240
:102A7000118213961C921E9212973596C8010397E5
:102A800097FF39C07D01D12CC12C0C151D05B9F162
:102A90005601FFEFAF1ABF0AB5018EE40E94BF03D3
:102AA0008EE490E00E940A0E4C01F701819391930D
:102AB0007F0189ED91E00E94DF0B4AE050E0B40114
:102AC0008BEB96E00E94A10B8FED91E00E94DF0B53
:102AD0004AE050E0B6018BEB96E00E94A10B63EF59
:102AE00071E08BEB96E00E943E0B8BEB96E00E9430
:102AF000F40D6501CACF119211920197C1CF81E007
:102B00008093500560E085E00E94E3028BEB96E045
:102B10000E94F40D62E572E08BEB96E00E94F80DE6
:102B200061E472E08BEB96E00E94F80D69E372E0DD
:102B30008BEB96E00E9419054AE050E061E070E0FE
:102B40008BEB96E00E94A10B67E372E08BEB96E0C3
:102B50000E9419054AE050E061E070E08BEB96E0DE
:102B60000E94A10B60E372E08BEB96E00E94F80DEF
:102B70008BEB96E00E94F40D80916D05882309F49B
:102B8000FDC30E94A403882321F085EF91E00E94F9
:102B9000DF0B0E94A403882321F08CE292E00E94C4
:102BA000DF0B0E94A403882321F08CE492E00E94B2
:102BB000DF0B0E94390C80911A068130C9F462E063
:102BC00089E597E00E94C40A63E087E497E00E94E9
:102BD000C40A69E085E397E00E94C40A67E083E2E3
:102BE00097E00E94C40A68E081E197E00E94C40A6D
:102BF00080911A068230D1F583B190916B008923C0
:102C0000809340058091400580933F0589B18F7086
:102C100080934C0580914C0580934B056FEA78E0DA
:102C200082E00E94480A80934D0580914D0587FD02
:102C30001DC090E080E02CED35E0FC01EE0FFF1FA1
:102C4000ED5DFA4F31832083019689309105A9F714
:102C50008AE080932205109268051092690582E04F
:102C600080932105809121050E94DE0981E08093F7
:102C7000D4050FB6F8947EBE0FBE6DBE35EE232E82
:102C800032E0332E0FE615E080E3482E83E0582E25
:102C900093E6692E92E0792E27E7C22E22E0D22E0B
:102CA0008BEB96E00E94340718161906ACF48BEBF8
:102CB00096E00E94F20690914E05883009F466C3B2
:102CC0008D3009F06AC3E92FF0E0EF5AFA4F108215
:102CD00010924E0597FF6DC3F0901A0691E0F9121D
:102CE000BCC067E089E597E00E948408882309F466
:102CF000ADC6F092ED052091EB053091EC05C901D0
:102D0000880F991F820F931F2091670730916807E2
:102D1000409167075091680724173507A9F7820F7C
:102D2000931F96958795969587959093EC0580933C
:102D3000EB0567E087E497E00E9484088823F1F0C0
:102D40002091E9053091EA05C901880F991F820F8A
:102D5000931F209155073091560740915507509188
:102D6000560724173507A9F7820F931F9695879565
:102D7000969587959093EA058093E90567E085E34A
:102D800097E00E9484088823F1F02091E7053091B4
:102D9000E805C901880F991F820F931F20914307EF
:102DA0003091440740914307509144072417350759
:102DB000A9F7820F931F969587959695879590937F
:102DC000E8058093E70567E083E297E00E948408C6
:102DD0008823F1F02091E5053091E605C901880FBF
:102DE000991F820F931F2091310730913207409134
:102DF00031075091320724173507A9F7820F931F27
:102E000096958795969587959093E6058093E50529
:102E100067E081E197E00E9484088823F1F0209127
:102E2000E3053091E405C901880F991F820F931FB4
:102E300020911F073091200740911F0750912007D4
:102E400024173507A9F7820F931F969587959695B6
:102E500087959093E4058093E30580911A0682306C
:102E600009F03FC080916805882309F4F2C580917C
:102E7000690590E0880F892F881F990B892B09F429
:102E8000E8C5809169058F778093690581E080931B
:102E9000ED0580910E060E9487099093EC058093C2
:102EA000EB0580910F060E9487099093EA058093B5
:102EB000E905809110060E9487099093E8058093A8
:102EC000E705809111060E9487099093E60580939B
:102ED000E505809112060E9487099093E40580938E
:102EE000E30580911B0681112FC08091ED058111B2
:102EF000B3C50E94B30380900B0790900C07A0907D
:102F00000D07B0900E07681979098A099B096A3F75
:102F1000710581059105A0F0F09011016F2D85E0FC
:102F20000E94E30281E0F826F09211010E94B303AF
:102F300060930B0770930C0780930D0790930E0717
:102F400080911B06882339F10E94B30380900B0700
:102F500090900C07A0900D07B0900E0768197909A2
:102F60008A099B096A3F710581059105A0F0F090DF
:102F700011016F2D85E00E94E30281E0F826F092B6
:102F800011010E94B30360930B0770930C078093A9
:102F90000D0790930E078091E205882309F44BC03A
:102FA0008091EB059091EC05009709F46CC58C3D80
:102FB000E5E09E0708F055C52091180630911906E6
:102FC0008217930720F49093190680931806209196
:102FD0001606309117064091180650911906240FD5
:102FE000351F3695279530931506209314060E94B9
:102FF000990B88EB94E00E94DF0B8091180690916A
:1030000019060E94990B88EB94E00E94DF0B8091D7
:103010001406909115060E94990B88EB94E00E948B
:10302000DF0B80911606909117060E94990B8BEB8F
:1030300096E00E94F40D8091DA0581110DC00E9486
:10304000B3036093D6057093D7058093D80590930A
:10305000D90581E08093DA050E94B3038090D605FC
:103060009090D705A090D805B090D9056819790936
:103070008A099B09653F71408105910508F471C17A
:103080000E94B3036093D6057093D7058093D8054B
:103090009093D9058091D505882309F479C00E94C1
:1030A000A403882331F08091EB059091EC050E94F8
:1030B000990B0E94A403882321F088EB94E00E94DE
:1030C000DF0B0E94A403882331F08091E9059091E1
:1030D000EA050E94990B0E94A403882321F088EB43
:1030E00094E00E94DF0B0E94A403882331F08091BA
:1030F000E7059091E8050E94990B0E94A40388239C
:1031000021F088EB94E00E94DF0B0E94A403882347
:1031100031F08091E5059091E6050E94990B0E949F
:10312000A403882321F088EB94E00E94DF0B0E9427
:10313000A403882331F08091E3059091E4050E9477
:10314000990B0E94A403882321F088EB94E00E944D
:10315000DF0B0E94A4038823D9F08091D4051F922D
:103160008F938FE493E09F938F931F9284E68F93C6
:103170001F930F930E94B71D8FE695E00E94DF0B0F
:103180008DB79EB708960FB6F8949EBF0FBE8DBF41
:103190002091EB053091EC05F0906D05211531057E
:1031A00009F476C48090180690901906B12CA12CD1
:1031B00050E040E0281939094A095B09ADE1B0E067
:1031C0000E949A20209116063091170650E040E0A8
:1031D000281939094A095B090E947B202F5F3F4F5C
:1031E0004F4F5F4F20936E0580916E058F1519F03C
:1031F00090E00E944E0780916E0580936D0584E0FB
:103200000E94BA0280936C052091E7053091E80591
:103210002115310581F18091140690911506885C85
:1032200091092817390708F036C4109210018091CF
:103230001001813009F033C480936B058091E7055C
:103240009091E805892BB9F08091140690911506AC
:1032500088539F4F2091E9053091EA058217930723
:1032600008F02FC410920F0180910F01813009F0F6
:103270002CC480936A052091E3053091E405211563
:10328000310599F0809114069091150688539F4F4F
:103290008217930708F02BC410920E0180910E0143
:1032A000813009F028C480936A052091E5053091AA
:1032B000E60521153105F1F080911406909115066F
:1032C000885C91092817390718F48EE00E94560788
:1032D000809114069091150688539F4F2091E50523
:1032E0003091E6058217930728F48091D40590E089
:1032F0000E94520785E4882E81E0982EEE24E39404
:10330000F12C24E6B22EF40181914F010E94BA0201
:10331000892B01F5B70182E10E94BF030E94A4033B
:103320008823C1F0FF92EF9229E333E03F932F937C
:103330001F92BF921F930F930E94B71D8FE695E0D7
:103340000E94DF0BEDB7FEB738960FB6F894FEBFBC
:103350000FBEEDBFFFEFEF1AFF0A27E0E216F10400
:1033600091F680E090E0892B09F49ACC0E94A705A1
:10337000882309F489CC0E94000086CC0E94A40313
:10338000882309F406CC80E192E001CC992309F46A
:10339000A3CC915090934E059FCC963138F4E92FF1
:1033A000F0E0EF5AFA4F80839F5FF4CF10924E0502
:1033B00093CC809151058D3409F4DBC03CF58D32FE
:1033C00009F40FC36CF4882309F45EC08B3209F44E
:1033D000F7C260EC72E081E595E00E94A81DBEC0D6
:1033E000853409F4CEC1883409F44EC0813489F79C
:1033F0000E94A403882321F080E894E00E94DF0B60
:103400008091D40590E00E945207A6C0833509F44C
:10341000FCC02CF5803509F4E5C18235D1F60E9457
:10342000A403882321F086E994E00E94DF0BF12CAD
:10343000E12C60E0C7010E946D203FEFE31AF30A20
:10344000E11484E0F806A9F782E00E940D040E94CE
:10345000A403882309F480C082EA94E07BC0863507
:1034600009F4A1C0883509F4CBC2853509F0B1CF84
:1034700080911B06882309F4E2C280914F0591E0F8
:10348000892780934F0568C00E94A403882321F0F8
:103490008EE692E00E94DF0B0E94A403882321F0B5
:1034A00089E792E00E94DF0B0E94A403882321F0A9
:1034B00086E992E00E94DF0B0E94A403882321F09A
:1034C00089EA92E00E94DF0B0E94A403882321F086
:1034D00089EE92E00E94DF0B0E94A403882321F072
:1034E00081E493E00E94DF0B0E94A403882321F073
:1034F00080E693E00E94DF0B0E94A403882321F062
:1035000083E893E00E94DF0B0E94A403882321F04C
:103510008DE993E00E94DF0B0E94A403882321F031
:1035200086EB93E00E94DF0B0E94A403882321F026
:1035300086EC93E00E94DF0B0E94A403882321F015
:103540008CED93E00E94DF0B0E94A403882321F0FE
:103550008EE393E00E94DF0B1092520561E575E067
:103560008BEB96E00E943E0B8BEB96E00E94F40DF5
:10357000B3CB8091E20591E089278093E20588230F
:1035800039F00E94A403882339F383E094E0E2CF6A
:103590000E94A403882321F08DE194E00E94DF0BB8
:1035A0000E941D0BD9CF809152058D3309F011CFA8
:1035B00083E595E00E948A1D4C018FEF880D8E31C6
:1035C00068F60E94A4037401FF248823C1F0FF92CF
:1035D000EF925F924F921F9284E68F931F930F9307
:1035E0000E94B71D8FE695E00E94DF0B2DB73EB716
:1035F000285F3F4F0FB6F8943EBF0FBE2DBF80929D
:103600001306C7010E944E07CBCF809152058D3320
:1036100009F0B1C080915305873519F40E94E90B78
:10362000BFCF893481F585E595E00E948A1D80939E
:103630001A060E94A403882309F4B2CFE0911A0667
:10364000E150FF0BEE0FFF1FE95CFE4F81818F936E
:1036500080818F938DE193E09F938F931F9284E6F7
:103660008F931F930F930E94B71D8FE695E00E94E2
:10367000DF0B2DB73EB7285F3F4F0FB6F8943EBF24
:103680000FBE2DBF8DCF8133B9F4809154058032A8
:1036900009F086CF85E595E00E948A1D80930E068D
:1036A0000E94A403882309F47BCF80910E061F9209
:1036B0008F9381E193E0D0CF8233B9F480915405A8
:1036C000803209F06DCF85E595E00E948A1D8093D8
:1036D00010060E94A403882309F462CF809110068B
:1036E0001F928F9384E093E0B7CF8333B9F4809136
:1036F0005405803209F054CF85E595E00E948A1D7B
:1037000080930F060E94A403882309F449CF809177
:103710000F061F928F9387EF92E09ECF843309F0BC
:103720003FCF80915405803209F03ACF85E595E08E
:103730000E948A1D809311060E94A403882309F425
:103740002FCF809111061F928F933F922F921F923D
:1037500084E68F931F930F930E94B71D8FE695E029
:103760000E94DF0B8DB79EB708960FB6F8949EBFE8
:103770000FBE8DBF15CF8F3309F02BCE0E94390CB1
:10378000EBCE83E595E00E948A1D863008F021CEBD
:1037900080931D060E94A403882309F401CFE091C1
:1037A0001D06F0E0EE0FFF1FE55DFE4F81818F9358
:1037B00080818F9387ED92E09F938F931F9284E691
:1037C0008F931F930F930E94B71D8FE695E00E9481
:1037D000DF0BEDB7FEB738960FB6F894FEBF0FBEFD
:1037E000EDBFDECE809152058F3309F0F2CD80918E
:1037F0005005882309F4DDC00E94A403882321F02A
:103800008EE393E00E94DF0B0E94A403882321F043
:1038100086E394E00E94DF0B0E94A403882321F03A
:1038200084E594E00E94DF0B0E94A403882321F02A
:1038300086E394E00E94DF0B82E40E9456070E9418
:10384000A4038823F1F082E490E00E940A0E9F9383
:103850008F938DEA92E09F938F931F9284E68F93CC
:103860001F930F930E94B71D8FE695E00E94DF0B18
:103870002DB73EB7285F3F4F0FB6F8943EBF0FBE3F
:103880002DBF83E40E9456070E94A4038823E9F019
:1038900083E490E00E940A0E9F938F938AE992E05E
:1038A0009F938F931F9284E68F931F930F930E9491
:1038B000B71D8FE695E00E94DF0B8DB79EB7089687
:1038C0000FB6F8949EBF0FBE8DBF84E40E945607CA
:1038D00084E490E00E940A0E0E94A403882311F160
:1038E000E0911D06F0E0EE0FFF1FE55DFE4F8181C8
:1038F0008F9380818F93E9E8F2E0FF93EF931F921B
:1039000084E68F931F930F930E94B71D8FE695E077
:103910000E94DF0B8DB79EB708960FB6F8949EBF36
:103920000FBE8DBF88E40E9456070E94A40388231F
:10393000D9F088E490E00E940A0E9F938F93DF9263
:10394000CF921F9284E68F931F930F930E94B71D0F
:103950008FE695E00E94DF0BEDB7FEB738960FB605
:10396000F894FEBF0FBEEDBF8CE40E9456070E9484
:10397000A403882309F4F0CD8CE490E00E940A0EA1
:103980009F938F937F926F921F9284E68F931F93E2
:103990000F930E94B71D8FE695E00E94DF0B2DB7B5
:1039A0003EB7285F3F4F0FB6F8943EBF0FBE2DBF06
:1039B000D3CD64EC72E08BEB96E00E941905CCCD80
:1039C0000E94A403882321F082E794E00E94DF0B89
:1039D0008091D4058F5F8093D40581E00E945607C3
:1039E000BBCD0E94A403882321F089E794E00E94C4
:1039F000DF0B8091D40581508093D40582E0EECF17
:103A000080916C0581110BC08EE00E9456070E94C8
:103A1000A403882321F087E894E00E94DF0B8091C3
:103A20006C05813009F098CD8DE00E9456070E9408
:103A3000A403882309F490CD8FE894E08BCD809186
:103A4000D50591E089278093D50586CD1092ED05A7
:103A500070C91092ED0545CA61E085E00E94E3025D
:103A60006FCA8C3DF5E09F0709F4B1CA2091160694
:103A7000309117062817390708F0A9CA909317063E
:103A800080931606A4CA8AEB94E00E94DF0BD3CA87
:103A9000F0926E05A9CB81E080931001C8CB811113
:103AA000D3CB80916B05882309F4CECB8091D405CC
:103AB00081508093D40590E00E94520710926B05CC
:103AC000BDCB81E080930F01CFCB8111D4CB80910E
:103AD0006A05882309F4CFCB8091D4058F5F80934A
:103AE000D40590E00E94520710926A05C4CB81E091
:103AF00080930E01D3CB8111D8CB80916A058823A6
:103B000009F4D3CB8091D40590E00E945207109223
:103B10006A05CBCBFC0188279927E89421912032B4
:103B2000E9F3293010F02E30C8F32B3241F02D325A
:103B300039F4689404C00E94AF1D820F911D219139
:103B400020532A30C0F31EF4909581959F4F08951D
:103B5000FB01DC0105900D920020E1F708957AE069
:103B6000979F902D879F802D910D11240895AEE091
:103B7000B0E0EDEBFDE10C94B3200D891E898F8937
:103B8000988D2EE02C831A83098397FF02C080E072
:103B900090E801979E838D83AE01455E5F4F698DEE
:103BA0007A8DCE0101960E94E71D4D815E8157FD01
:103BB0000AC02F813885421753070CF49A01020F6F
:103BC000131FF80110822E96E4E00C94CF20ABE096
:103BD000B0E0EDEEFDE10C94A5207C013B018A01F3
:103BE000FC0117821682838181FFC8C1CE01019634
:103BF0005C01F7019381F30193FD859193FF81911E
:103C00003F01882309F453C1853239F493FD85912E
:103C100093FF81913F01853229F4B70190E00E9422
:103C2000D71FE7CF912C212C312CFFE1F31538F071
:103C30008B3211F190F4803209F1833229F137FC93
:103C40003CC020ED280F2A3050F536FE20C08AE017
:103C5000989E200D1124922E06C08D3291F0803353
:103C600071F7689430F8F30193FD859193FF81918A
:103C70003F018111DACF21C0689431F8689432F89D
:103C8000F2CF689433F8EFCF689434F8ECCFEAE0E1
:103C90002E9E200D1124222E689435F8E4CF8E320A
:103CA00029F436FC04C1689436F8DDCF8C3619F45B
:103CB000689437F8D8CF8836B1F2982F9F7D955405
:103CC0009330E0F08336A1F18337C1F1833509F0F9
:103CD00063C02801F2E04F0E511CF801C080D18072
:103CE000692D70E036FC02C06FEF7FEFC6010E94C5
:103CF000C11F4C01689437F882010AC00C5F1F4F46
:103D0000FFE3F98388248394912C6501E89437F8C4
:103D100033FE2DC0522C8114910471F5552009F405
:103D200068CFB70180E290E00E94D71F5A94F6CF87
:103D3000F801808189830E5F1F4FE4CF2801F2E0F4
:103D40004F0E511CF801C080D180692D70E036FC07
:103D500002C06FEF7FEFC6010E94CC1F4C018201B1
:103D6000D5CFB70180E290E00E94D71F2A94281493
:103D7000190409F0B0F7CECFF60137FC859137FE74
:103D800081916F01B70190E00E94D71F51105A94A2
:103D9000F1E08F1A9108BFCF843619F0893609F007
:103DA00077C0F80137FE6BC0608171818281938199
:103DB0000C5F1F4FF32DFF763F2E97FF09C09095A4
:103DC0008095709561957F4F8F4F9F4F689437F81E
:103DD0002AE030E0A5010E940720C82ECA188C2CCA
:103DE000432C36FE0CC0E89440F8C91440F434FE6D
:103DF00005C032FC03C0F32DFE7E4F2E892C44FEFD
:103E000095C0FE01EC0DF11D8081803309F087C063
:103E1000242D297E422E842D8870582E43FC95C077
:103E200040FE8FC09C2C821418F42C0C922C9818F5
:103E300044FE91C0B70180E390E00E94D71F42FE8C
:103E400009C088E790E041FE02C088E590E0B70134
:103E50000E94D71FC91408F48AC0CA94D12C9FEFBE
:103E6000C91AD90ACA0CDB1CF60182916F01B7018D
:103E700090E00E94D71FAC14BD04B1F74FCF608112
:103E80007181072E000C880B990B0E5F1F4F92CF8C
:103E9000D32CE894D4F82AE030E0853739F1232D8B
:103EA000297FD22E8F3601F148F48835A9F0F70129
:103EB000868197812B96E2E10C94C120803749F0EE
:103EC0008837A9F7D4FE02C06894D2F820E130E028
:103ED0000DC06894D4F8F6CF34FE03C0822F8660FC
:103EE000D82E20E132E002C028E030E0F801D7FE11
:103EF0000FC060817181828193810C5F1F4FA5018A
:103F00000E940720C82ECA183D2CE89437F867CFC6
:103F10006081718190E080E00E5F1F4FF0CF42FC26
:103F200002C0839478CF8394839475CF842D867850
:103F300009F471CFF6CFB70180E290E00E94D71F5D
:103F400083948214C0F3512C73CF522C58188214CE
:103F500008F46ECFF8CF842D867809F47BCF8BE2FE
:103F600041FE80E247FC8DE2B70190E071CFB701DE
:103F700080E390E00E94D71F9A946CCF8FEF9FEF61
:103F800099CFFC010590615070400110D8F78095E1
:103F900090958E0F9F1F0895FC0161507040019015
:103FA0000110D8F7809590958E0F9F1F08950F935D
:103FB0001F93CF93DF93182F092FEB018B8181FD86
:103FC00009C01FEF0FEF812F902FDF91CF911F912D
:103FD0000F91089582FF14C02E813F818C819D81B5
:103FE000281739073CF4E881F981CF0101969983BC
:103FF000888310838E819F8101969F838E83E3CF78
:10400000E885F985812F0995892BA1F3DACFFA018B
:10401000AA27283051F1203181F1E8946F936E7F07
:104020006E5F7F4F8F4F9F4FAF4FB1E03ED0B4E0F8
:104030003CD0670F781F891F9A1FA11D680F791F39
:104040008A1F911DA11D6A0F711D811D911DA11D4A
:1040500020D009F468943F912AE0269F112430195A
:10406000305D3193DEF6CF010895462F4770405DF5
:104070004193B3E00FD0C9F7F6CF462F4F70405DA4
:104080004A3318F0495D31FD4052419302D0A9F7FF
:10409000EACFB4E0A6959795879577956795BA95F9
:1040A000C9F700976105710508959B01AC010A2EBF
:1040B00006945795479537952795BA95C9F7620F96
:1040C000731F841F951FA01D0895F999FECF92BDFF
:1040D00081BDF89A992780B50895262FF999FECFCA
:1040E0001FBA92BD81BD20BD0FB6F894FA9AF99A15
:1040F0000FBE01960895052E97FB1EF400940E94B2
:10410000922057FD07D00E94DC2007FC03D04EF41C
:104110000C94922050954095309521953F4F4F4FEC
:104120005F4F089590958095709561957F4F8F4F63
:104130009F4F08950E94FE20A59F900DB49F900D63
:10414000A49F800D911D112408952F923F924F92AC
:104150005F926F927F928F929F92AF92BF92CF9217
:10416000DF92EF92FF920F931F93CF93DF93CDB720
:10417000DEB7CA1BDB0B0FB6F894DEBF0FBECDBF98
:1041800009942A88398848885F846E847D848C8469
:104190009B84AA84B984C884DF80EE80FD800C8172
:1041A0001B81AA81B981CE0FD11D0FB6F894DEBF55
:1041B0000FBECDBFED010895A1E21A2EAA1BBB1BB5
:1041C000FD010DC0AA1FBB1FEE1FFF1FA217B307E3
:1041D000E407F50720F0A21BB30BE40BF50B661FF9
:1041E000771F881F991F1A9469F7609570958095BD
:1041F00090959B01AC01BD01CF010895A29FB00134
:10420000B39FC001A39F700D811D1124911DB29F0A
:10421000700D811D1124911D0895EE0FFF1F059053
:0A422000F491E02D0994F894FFCF0B
:10422A00FFFFFFFF530453045304530453040101D3
:10423A0001017EFF06000000000000EF00E100001F
:10424A000000000000C18081000000BD04C404C851
:10425A0004CD04D204DA04DF04E304E804ED04F232
:10426A0004F704FC04121314150F0E00000000DCFE
:10427A00053D056A0528069B0579058D05000000A0
:10428A0000CD064806EE06E3063407F206100700DC
:10429A000000006C099F097A0800000000AD087B45
:1042AA00087A082A206F4F20454550524F4D205317
:1042BA00657474696E6773204F6F202A0D0A005661
:1042CA006F6C43683A202020202058414E590D0A2D
:1042DA00000D0A496E697469616C697A696E6720B2
:1042EA004446506C61796572202E2E2E0D0A004EBE
:1042FA0062466F6C6465723A0046696E64200020FB
:10430A00747261636B7320696E20666F6C64657288
:10431A002030002E004446506C61796572204D6948
:10432A006E69206973206F6E6C696E652E0D0A00C6
:10433A004446506C61796572204D696E69206973D3
:10434A00206F66666C696E652E0D0A006F4F2055E8
:10435A005345204352204F4E20594F555220544521
:10436A00524D494E414C204F6F0D0A004869742046
:10437A00456E746572206F722048202B20456E743A
:10438A00657220666F722048656C700D0A000D0A0E
:10439A00482048656C700D0A00533D5720577269D2
:1043AA0074652044656661756C742053657474691C
:1043BA006E67730D0A00533F20526561642053658E
:1043CA007474696E67730D0A00533D49205820586A
:1043DA003D313D50574D2C20323D4350504D2C20FD
:1043EA00333D534255532C20343D494255532C20DA
:1043FA00353D53554D442C20363D4A4554492C20D1
:10440A00373D5352584C0D0A00533D59205A2059F2
:10441A003D3120746F203420313D566F6C2C203290
:10442A003D507265762C20333D4E6578742C2034CD
:10443A003D506C617950617573652C353D506C61E6
:10444A007953616D65202F205A3D3120746F2031D8
:10445A003220284368616E6E656C204E62290D0A0F
:10446A0000563D5820583D3120746F203330204487
:10447A00656661756C7420566F6C756D650D0A0002
:10448A004D204D6178692F43656E7472652F4D69B1
:10449A006E69204368616E6E656C20696E20755383
:1044AA000D0A00503F2052656164204446506C61F9
:1044BA0079657220636F6E6669670D0A002B204F5B
:1044CA0052202D204E6578742F5072657620536FD6
:1044DA00756E640D0A0058202F506C61792F506157
:1044EA007573650D0A0055204465627567206D6F06
:1044FA006465204F4E2F4F46460D0A0052204572E2
:10450A0061736520454550524F4D20616E642061AC
:10451A006C6C20636F6E66696775726174696F6E21
:10452A000D0A005374617274204D696E69204D61E1
:10453A007869207365617263683A0D0A0053746F73
:10454A0070204D696E69204D6178692073656172CA
:10455A0063683A0D0A002A2A2A2A2A2A2A2A2A2A91
:10456A002A2A2A2A2A2A2A2A2A2A2A2A2A2A2A2AA1
:10457A002A0D0A002A206F4F204446506C61796543
:10458A00722053657474696E6773204F6F202A0D09
:10459A000A004E4558540D0A00505245560D0A005D
:1045AA0053414D450D0A0050415553450D0A0050DF
:1045BA004C41590D0A000D0A576169742E2E2E0DB1
:1045CA000A000D0A526573657420454550524F4DD5
:1045DA0020446F6E650D0A0009002120004E4F52DB
:1045EA004D414C00504F5000524F434B004A415AE4
:1045FA005A00434C415353494300424153530050DC
:10460A00574D004350504D005342555300494255AF
:10461A00530053554D44004A455449005352584C8F
:02462A0000008E
:00000001FF
