:100000000C941B020C9401100C94DA0F0C94B30F97
:100010000C948C0F0C9443020C9443020C94650FC7
:100020000C9443020C9421130C9428100C949710F8
:100030000C9443020C9443020C9443020C9443022C
:100040000C9443020C9443020C9443020C9443021C
:100050000C9443020C9443020C9443020C941B0F27
:100060000C9443020C94EF120C94C9120C944302AA
:100070000C9443020C9443020C9443020C944302EC
:100080000C9443020C9443020C9443020C944302DC
:100090000C9443020C9443020C9443020C944302CC
:1000A0000C9443020C9443020C9443024D696E6914
:1000B00043683A2020202025640D0A0043656E74B1
:1000C000657243683A202025640D0A004D61786905
:1000D00043683A2020202025640D0A00506C617985
:1000E0002053616D653A2025640D0A00506C6179DA
:1000F0002053746F703A2025640D0A004E657874A1
:100100003A20202020202025640D0A0050726576B8
:100110003A20202020202025640D0A00566F6C43D1
:10012000683A202020202025640D0A00566F6C3A82
:100130002020202020202025640D0A004551204D3C
:100140006F64653A202025730D0A00446566617569
:100150006C74732056616C75652053617665640D0F
:100160000A005D3A2030780052785B006D70335F92
:10017000726563765F636D64206F7574004572729B
:100180006F7220726573706F6E7365207769746823
:1001900020636F646520006D70335F726563765F06
:1001A000636D6420696E2077697468206578706576
:1001B0006374656420636D6420307800080B00026E
:1001C00002020000090400000102020000052400F0
:1001D0001001052401010104240206052406000182
:1001E0000705810310004009040100020A00000015
:1001F00007050202400000070583024000000403D7
:10020000090412010002EF0201404F1B0692000197
:1002100001020301537061726B46756E0053706189
:10022000726B46756E2050726F204D6963726F005D
:100230002A2A2A2A2A205600557365202573202051
:10024000257325732028505245562D4E4558542D60
:10025000504C41592F5041555345290D0A005573B3
:1002600065202573202025732028505245562D4E99
:100270004558542D504C41592F5041555345290D47
:100280000A005573652025732020257320202573CF
:100290000D0A0043757272656E7420736F756E641B
:1002A0003A2025640D0A0046696C657320666F75F7
:1002B0006E643A2025640D0A00457175616C697A97
:1002C00065723A202025730D0A00566F6C756D65B6
:1002D0002020202020203A2025640D0A005374613C
:1002E0007465202020202020203A2025640D0A005B
:1002F000455252004551204D6F64653A2025730DDB
:100300000A00506C617953616D6543683A20256439
:100310000D0A00506C6179506175736543683A202D
:1003200025640D0A005072657643683A2025640DF5
:100330000A004E65787443683A2025640D0A005619
:100340006F6C43683A2025640D0A00496E7075741D
:10035000204D6F64652069732025730D0A00566F68
:100360006C3A25640D0A00416C61726D3A20256477
:10037000207374617274656420210D0A00536F75D7
:100380006E644E756D6265723A2025640D0A0053E5
:1003900069676E616C20257320566F6C756D6520E2
:1003A0006E6F7420666F756E6420210D0A00000068
:1003B0000000240027002A002D003000000000006B
:1003C000250028002B002E00310000000000230033
:1003D000260029002C002F00040404040403040553
:1003E00002020202040302020202060606060606D2
:1003F00004040202020404040802011040804010B8
:10040000204080408008020401804020100201103A
:100410008010204040200000000200090F0000036F
:100420000401000C000000000000000000000000BB
:1004300000000000671311241FBECFEFDAE0DEBF1B
:10044000CDBF15E0A0E0B1E0E0E4F4E402C0059027
:100450000D92A635B107D9F727E0A6E5B5E001C0B2
:100460001D92AE3BB207E1F712E0CBE1D2E004C04F
:100470002197FE010E941822CA31D107C9F70E94B4
:10048000E4130C941E220C940000FC01809157068A
:10049000882311F13FB7F89482E08093E90020911E
:1004A000F200822F90E01816190614F481E090E013
:1004B000882339F0289844E6409356064091F1008D
:1004C0004083222339F02091F200211103C02BE652
:1004D0002093E8003FBF08958FEF9FEF08952FB757
:1004E000F89483E08093E9009091E800892F80726E
:1004F00095FF04C09091F20080E4891B2FBF0895FE
:1005000080914E0681110DC082E080934A0684E0FE
:1005100080934B0610924D0610924C0681E080931A
:100520004E068AE496E0089581508F3008F047C067
:10053000E82FF0E0E256FD4F0C941822BB02BF02F8
:10054000AD02B302B702DF02DF02DF02C202C8025D
:10055000CC02D002D602DF02DA02809180008F77CF
:10056000809380000895809180008F7DF9CF8091E5
:100570008000877FF5CF84B58F7784BD089584B5DB
:100580008F7DFBCF809190008F77809390000895AE
:10059000809190008F7DF9CF80919000877FF5CF7B
:1005A0008091C0008F778093C00008958091C00033
:1005B0008F7DF9CF8091C200877F8093C20008951C
:1005C000CF93DF93282F30E0F901EA5EFB4F84914F
:1005D000F901E950FC4FD491F901E852FC4FC49164
:1005E000CC23A1F081110E949402EC2FF0E0EE0FD9
:1005F000FF1FE653FC4FA591B491EC91ED2381E0F0
:1006000090E009F480E0DF91CF91089580E090E0E0
:10061000FACF1F93CF93DF93282F30E0F901EA5EE2
:10062000FB4F8491F901E950FC4FD491F901E85254
:10063000FC4FC491CC23A9F0162F81110E94940283
:10064000EC2FF0E0EE0FFF1FE454FC4FA591B491A6
:100650008FB7F894EC91111108C0D095DE23DC938C
:100660008FBFDF91CF911F910895DE2BF8CFCF93ED
:10067000DF9390E0FC01E950FC4F249188529C4F9D
:10068000FC0184918823C9F090E0880F991FFC0138
:10069000E255FC4FA591B491FC01E454FC4FC59187
:1006A000D49161110DC09FB7F8948C91209582234D
:1006B0008C938881282328839FBFDF91CF91089551
:1006C000623051F49FB7F8943C91822F8095832338
:1006D0008C93E8812E2BEFCF8FB7F894EC912E2BD3
:1006E0002C938FBFEACF3FB7F89480914606909144
:1006F0004706A0914806B091490626B5A89B05C0BB
:100700002F3F19F00196A11DB11D3FBFBA2FA92F90
:10071000982F8827BC01CD01620F711D811D911D8D
:1007200042E0660F771F881F991F4A95D1F70895F9
:100730008F929F92AF92BF92CF92DF92EF92FF92F1
:100740004B015C010E9473036B017C010E947303E7
:100750006C197D098E099F09683E734081059105DA
:10076000A8F321E0821A9108A108B10888EEC80E0A
:1007700083E0D81EE11CF11C81149104A104B10492
:1007800029F7FF90EF90DF90CF90BF90AF909F90B0
:100790008F900895CF93C09123016AE070E080E0CC
:1007A00090E00E94980381E0C11101C080E0CF91E8
:1007B00008952FB7F8946091420670914306809196
:1007C0004406909145062FBF0895CF93DF93809301
:1007D0001501109217016093180120911301909157
:1007E0001401290F3327331F820F932F911D20915E
:1007F0001601820F911D680F791F7195619571091E
:100800007093190160931A0180915E0690915F06C2
:10081000DC01ED91FC910084F185E02D0995892B97
:1008200061F080915E0690915F06DC01ED91FC9194
:100830000284F385E02D0995E7CFC2E1D1E08091F4
:100840005E0690915F066991DC01ED91FC9101904B
:10085000F081E02D0995B1E0CC31DB0781F7DF9124
:10086000CF910C94D903CF92DF92EF92FF921F9316
:10087000CF93DF93D82FC0E011E0C0905A06D090FC
:100880005B06E0905C06F0905D0680911101882384
:1008900011F10E94D9036C197D098E099F09683EE8
:1008A00073408105910560F0109211010E94D903F7
:1008B00060935A0670935B0680935C0690935D0686
:1008C000CF5FDC13DACFDF91CF911F91FF90EF90D4
:1008D000DF90CF9008950E94D9036C197D098E098D
:1008E0009F09643F71408105910550F310931101F8
:1008F000DDCF089540916B0550916C0520916905FD
:1009000030916A0542175307B4F49091E80095704E
:10091000E1F39091E80092FD19C08093F10080917D
:100920006B0590916C0501968F739927892B19F4AB
:100930008EEF8093E80080916B0590916C05019695
:1009400090936C0580936B0581E0089580E0089595
:10095000EF92FF920F931F93CF93DF93F82E192FEF
:10096000E62E042F81E0860F880F0E947A0483E030
:100970000E947A04CF2DD12FEC0EFD2EF11CCE1546
:10098000DF05B9F007FF13C0FE0184910E947A04CD
:10099000182F80E00E947A04812321968111EFCFE5
:1009A000DF91CF911F910F91FF90EF900895888173
:1009B000EDCF81E0F5CFDF92EF92FF920F931F937F
:1009C000CF93DF93D82E8A01EB017B01E40EF51E55
:1009D000CE15DF0559F0D7FE12C0FE0184910E94AA
:1009E0007A0421968111F4CF0FEF1FEFC801DF9138
:1009F000CF911F910F91FF90EF90DF900895888124
:100A0000EECF0F931F93CF93DF931F92CDB7DEB737
:100A100082E0898342E450E06CEB71E080E80E9460
:100A2000DB040E948002DC0112960D911C910115DD
:100A3000110589F0D801ED91FC910280F381E02D40
:100A4000BE016F5F7F4FC801099597FD04C0F80193
:100A500000851185ECCF89810F90DF91CF911F9197
:100A60000F910895615030F02091F100FC01208336
:100A70000196F8CF289884E6809356060895EF9261
:100A8000FF920F931F93CF93DF938C017B01D0E0F4
:100A9000C0E0F701EC0FFD1F6491662361F0D801FF
:100AA000ED91FC910190F081E02DC8010995892B11
:100AB00011F02196EECFCE01DF91CF911F910F91D2
:100AC000FF90EF900895AF92BF92CF92DF92EF9296
:100AD000FF920F931F93CF93DF936C017B018B01E8
:100AE000040F151FEB015E01AE18BF08C017D10738
:100AF00059F06991D601ED91FC910190F081E02DC2
:100B0000C6010995892B79F7C501DF91CF911F9116
:100B10000F91FF90EF90DF90CF90BF90AF9008952E
:100B2000FC01538D448D252F30E0842F90E0821BF3
:100B3000930B541710F0CF96089501970895FC0178
:100B4000918D828D981761F0A28DAE0FBF2FB11DD0
:100B50005D968C91928D9F5F9F73928F90E0089528
:100B60008FEF9FEF0895FC01918D828D981731F0E2
:100B7000828DE80FF11D858D90E008958FEF9FEF36
:100B80000895FC01918D228D892F90E0805C9F4F0C
:100B9000821B91098F739927089581E796E00E943F
:100BA000C10521E0892B09F420E0822F089580E01F
:100BB00090E0892B29F00E94CD0581110C94000052
:100BC0000895FC01A48DA80FB92FB11DA35ABF4FE2
:100BD0002C91848D90E001968F739927848FA6893C
:100BE000B7892C93A089B1898C9182748C93938D51
:100BF000848D981306C00288F389E02D80818F7D53
:100C000080830895EF92FF920F931F93CF93DF930A
:100C1000EC0181E0888F9B8D8C8D981319C0E88939
:100C2000F989808185FF14C09FB7F894EE89FF8908
:100C30006083E889F9898081827480839FBF81E025
:100C400090E0DF91CF911F910F91FF90EF90089569
:100C5000F62E0B8D10E00F5F1F4F0F731127E02E44
:100C60008C8D8E110CC00FB607FCFACFE889F9897C
:100C7000808185FFF5CFCE010E94E105F1CFEB8D9C
:100C8000EC0FFD2FF11DE35AFF4FF0829FB7F89450
:100C90000B8FEA89FB8980818062CFCFCF93DF936E
:100CA000EC01888D8823B9F0AA89BB89E889F98984
:100CB0008C9185FD03C0808186FD0DC00FB607FCB9
:100CC000F7CF8C9185FFF2CF808185FFEDCFCE01EC
:100CD0000E94E105E9CFDF91CF9108958F929F9215
:100CE000AF92BF92CF92DF92EF92FF920F931F933A
:100CF000CF93DF936C017B018A01809123018823CC
:100D000009F45CC080915706882309F457C080918C
:100D10006F0580FF05C08091E00082608093E00055
:100D2000E801B12C8AEFA82E93E0892E2AE3922EB7
:100D3000209711F4BB20D9F10E946F0281110AC0E3
:100D4000AA94AA20D9F161E070E080E090E00E94CE
:100D50009803EECF8C171D0611F00CF08C2F9FB767
:100D6000F8948092E9002091E80025FD02C09FBF21
:100D7000DFCF282F30E0C21BD30BF701815020F0CA
:100D800041914093F100FACFE20EF31EBB2021F017
:100D90009092E800B12CEBCF8091E80085FDE7CF81
:100DA0009092E800BB24B394209709F3F3CF5D98A9
:100DB00084E680936E05101611063CF081E090E009
:100DC000F6019383828310E000E0C801DF91CF91A8
:100DD0001F910F91FF90EF90DF90CF90BF90AF9059
:100DE0009F908F900895CF93DF931F92CDB7DEB77A
:100DF0006983DC01ED91FC910280F381E02D41E0FB
:100E000050E0BE016F5F7F4F09950F90DF91CF914A
:100E1000089583E08093E9008091F200882319F01F
:100E20008AE38093E80008950E946F0290E008959D
:100E3000CF93DF931F92CDB7DEB7FC0184859585F4
:100E400097FD08C02FEF3FEF358724870F90DF9184
:100E5000CF910895CE0101960E944502019719F4A1
:100E6000898190E0F3CF8FEF9FEFF0CF0F931F9327
:100E7000CF93DF931F92CDB7DEB78C01FC01848541
:100E8000958597FF0BC0CE0101960E944502019700
:100E900071F4898190E0F80195878487F801848551
:100EA00095850F90DF91CF911F910F9108958FEF4E
:100EB0009FEFF1CFFC018485958597FD0BC09FB70F
:100EC000F89482E08093E9008091F2009FBF90E067
:100ED000019608959FB7F89482E08093E90080918D
:100EE000F2009FBF90E00895BC0186E00C94E503FA
:100EF000BC0183E00C94E50370E060E00C94E50332
:100F00008F929F92AF92BF92CF92DF92EF92FF9219
:100F10006C010E94D9034B015C01F12CE12C0E9471
:100F2000D903681979098A099B096C157D058E0515
:100F30009F0540F4E0917305F0917405309779F3C3
:100F40000995EDCFFF90EF90DF90CF90BF90AF90DD
:100F50009F908F900895BF92CF92DF92EF92FF9271
:100F60000F931F93CF93DF930E9473036B017C0158
:100F7000C0915806D0915906BB24BA9401E010E004
:100F8000209709F458C08D818370D1F52091920586
:100F9000422F50E08C81843048F48823C1F18130A5
:100FA00099F18230B9F522E030E01AC098EF980F3D
:100FB000682F6450770B943058F08E3029F18F30C1
:100FC00091F3803121F1813129F1682F6651770B3E
:100FD0009B01B80102C0660F771F2A95E2F79B01BB
:100FE00024233523232B61F00E94E0029D8192FB94
:100FF000992790F9981789F0CA86DB86EC86FD86DA
:101000000A80DB81C02DBCCF28E030E0E9CF24E0AE
:1010100030E0E6CF21E030E0E3CF8A859B85AC85E8
:10102000BD859601281B390B3F872E87B88A0E9401
:10103000D903698BE5CFDF91CF911F910F91FF907D
:10104000EF90DF90CF90BF900895BF92CF92DF9244
:10105000EF92FF920F931F93CF93DF930E9473033E
:101060006B017C01C0915806D091590601E010E057
:10107000BB24BA94209709F459C08D8183708130C4
:10108000D1F520919E05422F50E08C81843048F4A8
:101090008823C1F1813099F18230B9F522E030E046
:1010A0001AC098EF980F682F6450770B943058F05F
:1010B0008E3029F18F3091F3803121F1813129F186
:1010C000682F6651770B9B01B80102C0660F771F2E
:1010D0002A95E2F79B0124233523232B61F00E94FC
:1010E000E0029D8192FB992790F9981789F0CA86B2
:1010F000DB86EC86FD860A80DB81C02DBBCF28E035
:1011000030E0E9CF24E030E0E6CF21E030E0E3CF8B
:101110008A859B85AC85BD859601281B390B3F8749
:101120002E87B88A0E94D903698BE5CFDF91CF91D2
:101130001F910F91FF90EF90DF90CF90BF90089597
:101140000895FC0186859785268537858217930744
:10115000C9F70895FC01808990E0062E02C095959C
:1011600087950A94E2F780FF1CC0208981E090E017
:1011700001C0880F6A95EAF780958223808B2685C7
:1011800037858685978528173907C9F7868197811E
:101190002817390730F081E0408551854217530701
:1011A00008F480E008950C94AA08E091A1053CE0C1
:1011B000E39FF0011124E757FA4F218580917505CF
:1011C000843008F059C080917505882309F486C0E1
:1011D00080917505813009F47BC08091750582305E
:1011E00009F479C080917505833009F47AC0809143
:1011F0007505873009F469C090E080E0E091A105B1
:101200004CE0E49FF0011124E757FA4F3385232384
:1012100030E082239323892B09F483C00E94730357
:1012200020915B0530915C05AB01421B530B9A0189
:1012300070935C0560935B05283B5BE0350708F421
:101240005EC0209176052093AE05109276052FEFB3
:101250002093AF0530915A0520915A052E7F30FF1B
:10126000216020935A0520915A0520FF3DC07093BC
:10127000590560935805089580917505883080F070
:10128000809175058C3060F4409175054450550B84
:1012900081E090E002C0880F991F4A95E2F7AECF37
:1012A000809175058E30A1F0809175058F3099F091
:1012B00080917505803191F080917505813189F0BB
:1012C000409175054651550BE3CF80E190E096CFF4
:1012D00088E090E093CF82E090E090CF84E090E0CF
:1012E0008DCF81E090E08ACF20915805309159054B
:1012F000621B730B70935705609356050895809198
:101300007605893070F4E0917605F0E0EE0FFF1F6E
:10131000E958FA4F31832083809176058F5F80935F
:10132000760508952091AF0530E0062E02C0359570
:1013300027950A94E2F7C9018170992720FF0CC014
:101340004091AF0521E030E001C0220F6A95EAF735
:10135000209524232093AF050895882399F0909138
:10136000AE05981778F08150E82FF0E0EE0FFF1FE0
:10137000E958FA4F8081918120813181821793074A
:10138000C9F708958CED95E00895862F0C94AD096A
:1013900089B18F70E9E8F5E0878B8689978989277D
:1013A000858B8789868B0288F389E02D099489B122
:1013B0008F70E9E8F5E0878B868997898927858B87
:1013C0008789868B0088F189E02D099489B18F7017
:1013D000E9E8F5E0878B868997898927858B878956
:1013E000868B0684F785E02D099489B18F70E9E832
:1013F000F5E0878B868997898927858B8789868BF6
:101400000484F585E02D0994843088F49DB3882305
:1014100041F0813041F0823041F081E0892B8DBB79
:10142000089584E0FBCF88E0F9CF82E0F7CF28EF82
:10143000280F243040F092EF980F943020F096EE71
:10144000980F9330D0F590916800243050F032EF2F
:10145000380F343030F036EE380FF0E0E0E0333063
:1014600010F4E8E6F0E091609083243050F092EFC1
:10147000980F943030F096EE980FF0E0E0E0933063
:1014800010F4EBE6F0E030812430C0F491E0682FF6
:101490006450770B01C0990F6A95EAF7932B2430BB
:1014A00048F022EF280F243028F08A51F0E0E0E0E5
:1014B000833010F4EBE6F0E09083089598E08E30EE
:1014C00069F392E08F3051F394E0803139F391E089
:1014D000813121F3682F6651770BDCCFCF93DF93F7
:1014E000982F28EF280F81E0243008F480E0282F7F
:1014F00030E09430A0F59230D1F49CE0929FF0015E
:10150000939FF00D1124E757FA4F7383628326EE01
:1015100039E0309307012093060190916900937F91
:10152000946090936900E99ADF91CF9108959CE0CF
:10153000929FF001939FF00D1124E757FA4F7183AA
:10154000608325EF39E030930501209304019091E9
:1015500069009C7F916090936900E89AE5CF50E024
:1015600040E096E0929FE001939FD00D1124DE01B0
:10157000A40FB51FAA0FBB1FA757BA4FED91FC913F
:10158000E617F70789F24F5F5F4F4430510579F74F
:101590009CE0929FD001939FB00D1124A757BA4FA2
:1015A00018969C911897943010F08FEFBDCF189635
:1015B000EC911897EC0FFD2FF11DEE0FFF1FE75771
:1015C000FA4F7183608318969C9118979F5F1896C5
:1015D0009C93AACF1F93CF93DF93EC01162F98EF24
:1015E000960F8D818C7F943088F181608D8365E2C8
:1015F00078E0812F0E946E0A982F93708D818C7FE6
:10160000892B8D831C8388E592E09F838E8380E6FF
:1016100099E09987888780915806909159069B8315
:101620008A83D0935906C093580660E0812F0E94A8
:10163000370361E08C810E9409038C810E94040AB7
:101640008D818370DF91CF911F9108958D836BEA17
:1016500077E0CFCF0F931F93CF93DF9300E616E091
:10166000D0E0C0E0CE010E947021F80181938F018B
:101670002196C131D105B1F780E696E0DF91CF9197
:101680001F910F910895FF920F931F93CF93DF93B4
:1016900000E616E0D0E0C0E0F801F1908F01CE0145
:1016A0000E947021F81621F06F2DCE010E94782142
:1016B0002196C131D10581F780E696E0DF91CF9187
:1016C0001F910F91FF900895FB0101900020E9F711
:1016D0003197AF01461B570BDC01ED91FC91028065
:1016E000F381E02D09948F929F92AF92BF92EF9277
:1016F000FF920F931F93CF93DF93CDB7DEB7A197E0
:101700000FB6F894DEBF0FBECDBF7C01FA01CB014E
:1017100019A2223008F42AE08E010F5D1F4F822E9D
:10172000912CB12CA12CBF01A50194010E94E721AD
:10173000F901CA016A300CF5605DD8016E938D0124
:10174000232B242B252B79F790E080E0109721F0B4
:10175000BD01C7010E94640BA1960FB6F894DEBFCD
:101760000FBECDBFDF91CF911F910F91FF90EF90F2
:10177000BF90AF909F908F900895695CDECFAC01D1
:1017800070E060E02AE08EE097E00C94730BCF925B
:10179000DF92EF92FF920F931F93CF93DF93EC01B1
:1017A0006A017B01E881F9810190F081E02D6DE211
:1017B00009958C0144275527BA014C195D096E091A
:1017C0007F092AE0CE010E94730B800F911FDF91E9
:1017D000CF911F910F91FF90EF90DF90CF900895E0
:1017E000009729F0BC018EE097E00C94640B90E028
:1017F00080E0089589E98093600685E08093610622
:1018000086E08093630687E08093620688E0809399
:10181000640689E0809365068AE0809366068CED15
:1018200095E0909368068093670688EE93E0909326
:101830006C0680936B0680ED97E090936A06809328
:10184000690681E080936D0610926E0680936F06A4
:101850001092700683E00E9433040E94CA0388231A
:10186000B9F08BE491E09F938F931F9284E68F935E
:1018700084EC95E09F938F930E94C21E84EC95E0C8
:101880000E94F00B0F900F900F900F900F900F9001
:101890000C94430B0E942A0B80916006893949F011
:1018A0000E94FA0B64EF71E080E090E00E949803E0
:1018B000F1CF0E94CA03882321F08BE193E00E94BC
:1018C000F00B0E94CA03882321F086E594E00E9471
:1018D000F00B0E94CA03882321F083E891E00E9464
:1018E000F00B0E94CA03882321F086E594E00E9451
:1018F000F00B0E94CA03882361F0E0916D06E1506D
:10190000FF0BEE0FFF1FE35CFE4F808191810E9471
:10191000F00B0E94CA03882321F08BE193E00E9420
:10192000F00B0E94CA03882321F1E0917006F0E0D9
:10193000EE0FFF1FE55DFE4F81818F9380818F93B6
:101940008CE391E09F938F931F9284E68F9384ECB6
:1019500095E09F938F930E94C21E84EC95E00E94B5
:10196000F00B8DB79EB708960FB6F8949EBF0FBECA
:101970008DBF0E94CA038823E9F0809166061F92FA
:101980008F938CE291E09F938F931F9284E68F93C5
:1019900084EC95E09F938F930E94C21E84EC95E0A7
:1019A0000E94F00B8DB79EB708960FB6F8949EBFB5
:1019B0000FBE8DBF80916E06882309F402C180910D
:1019C0006F06833009F0FDC00E94CA03882321F00E
:1019D0008FE991E00E94F00B0E94CA038823E9F08E
:1019E000809163061F928F938CE091E09F938F9379
:1019F0001F9284E68F9384EC95E09F938F930E94CF
:101A0000C21E84EC95E00E94F00B8DB79EB708963D
:101A10000FB6F8949EBF0FBE8DBF0E94CA038823E5
:101A2000E9F0809162061F928F938CEF90E09F9374
:101A30008F931F9284E68F9384EC95E09F938F930E
:101A40000E94C21E84EC95E00E94F00B8DB79EB7F9
:101A500008960FB6F8949EBF0FBE8DBF0E94CA03B2
:101A60008823E9F0809164061F928F938CEE90E0BA
:101A70009F938F931F9284E68F9384EC95E09F93BE
:101A80008F930E94C21E84EC95E00E94F00B8DB7EC
:101A90009EB708960FB6F8949EBF0FBE8DBF0E94EA
:101AA000CA038823E9F0809165061F928F938CED1D
:101AB00090E09F938F931F9284E68F9384EC95E040
:101AC0009F938F930E94C21E84EC95E00E94F00BBE
:101AD0008DB79EB708960FB6F8949EBF0FBE8DBF08
:101AE0000E94CA038823F9F080916A068F9380913F
:101AF00069068F938CEC90E09F938F931F9284E6FE
:101B00008F9384EC95E09F938F930E94C21E84EC88
:101B100095E00E94F00B8DB79EB708960FB6F8942B
:101B20009EBF0FBE8DBF0E94CA038823F9F080912B
:101B300068068F93809167068F938CEB90E09F935C
:101B40008F931F9284E68F9384EC95E09F938F93FD
:101B50000E94C21E84EC95E00E94F00B8DB79EB7E8
:101B600008960FB6F8949EBF0FBE8DBF0E94CA03A1
:101B70008823F9F080916C068F9380916B068F9388
:101B80008CEA90E09F938F931F9284E68F9384EC6E
:101B900095E09F938F930E94C21E84EC95E00E9473
:101BA000F00B8DB79EB708960FB6F8949EBF0FBE88
:101BB0008DBF0E94CA03882339F18BE193E00C9416
:101BC000F00B0E94CA03882309F406CF80916106B6
:101BD0001F928F938CE191E09F938F931F9284E6E5
:101BE0008F9384EC95E09F938F930E94C21E84ECA8
:101BF00095E00E94F00B8DB79EB708960FB6F8944B
:101C00009EBF0FBE8DBFE8CE08956BE173E00C94CC
:101C1000640BCF93DF93BC018EE097E00E94640BCE
:101C2000EC018EE097E00E94050E8C0F9D1FDF9166
:101C3000CF9108954F925F926F927F928F929F9271
:101C4000AF92BF92CF92DF92EF92FF920F931F93CA
:101C5000CF93DF937C01D82F0E94D9032B013C0145
:101C60008091710590917205009799F067E971E094
:101C70000E943F050091710510917205A701FF0CAC
:101C8000660B770B20E1C8010E94730BC8010E940C
:101C9000050EC0E00E94D9036419750986099709E9
:101CA000683E73408105910568F1109267051092B6
:101CB0006805C0917105D0917205209741F06CE6DE
:101CC00071E0CE010E943F05CE010E94050E2091D9
:101CD00067058091680590E03FEF239F800D911D7F
:101CE0001124DF91CF911F910F91FF90EF90DF9022
:101CF000CF90BF90AF909F908F907F906F905F90AC
:101D00004F90089585E090E00E9480078DE5A82E11
:101D100085E0B82EF501119235E0E736F307D9F7E3
:101D200080915E0690915F06DC01ED91FC9100844C
:101D3000F185E02D09950A970CF476C0C12CD12CC1
:101D4000760180915E0690915F06DC01ED91FC9139
:101D50000284F385E02D09958C01019609F464C095
:101D60008091710590917205009721F168E671E00C
:101D70000E943F052AE0B701A6018091710590916C
:101D800072050E94730B62E671E08091710590917B
:101D900072050E943F05809071059090720520E1C8
:101DA000A801110F660B770BC4010E94730BC401CD
:101DB0000E94050EF50101935F01FFEFCF1ADF0AC4
:101DC000EF0AFF0A2AE0C216D104E104F10409F087
:101DD000B8CFC0916005C034E1F480917105909155
:101DE0007205009709F456CF6DE771E00E943F0538
:101DF00000917105109172054091630550E070E00B
:101E000060E02AE0C8010E94730BC8010E94050E21
:101E100041CFDC133FCF80916205809367058091AD
:101E200063058093680545CF82E390E00E948007B8
:101E3000DC1330CF3ECF1F920F920FB60F921124BA
:101E40002F933F938F939F93AF93BF9380914206BD
:101E500090914306A0914406B09145063091410609
:101E600023E0230F2D3758F50196A11DB11D2093B6
:101E700041068093420690934306A0934406B09394
:101E800045068091460690914706A0914806B0917C
:101E900049060196A11DB11D809346069093470601
:101EA000A0934806B0934906BF91AF919F918F913F
:101EB0003F912F910F900FBE0F901F90189526E81D
:101EC000230F0296A11DB11DD2CF1F920F920FB604
:101ED0000F9211242F933F934F935F936F937F93B0
:101EE0008F939F93AF93BF93EF93FF93E0910C0178
:101EF000F0910D010995FF91EF91BF91AF919F91E5
:101F00008F917F916F915F914F913F912F910F90A2
:101F10000FBE0F901F9018951F920F920FB60F9241
:101F200011242F933F934F935F936F937F938F93DE
:101F30009F93AF93BF93EF93FF93E0910A01F091CA
:101F40000B010995FF91EF91BF91AF919F918F91F7
:101F50007F916F915F914F913F912F910F900FBEA5
:101F60000F901F9018951F920F920FB60F92112489
:101F70002F933F934F935F936F937F938F939F9391
:101F8000AF93BF93EF93FF93E0910801F0910901A4
:101F90000995FF91EF91BF91AF919F918F917F91A3
:101FA0006F915F914F913F912F910F900FBE0F90C6
:101FB0001F9018951F920F920FB60F9211242F9316
:101FC0003F934F935F936F937F938F939F93AF93C1
:101FD000BF93EF93FF93E0910601F09107010995FC
:101FE000FF91EF91BF91AF919F918F917F916F91F1
:101FF0005F914F913F912F910F900FBE0F901F90C7
:1020000018951F920F920FB60F9211242F933F93A2
:102010004F935F936F937F938F939F93AF93BF93F0
:10202000EF93FF93E0910401F09105010995FF9171
:10203000EF91BF91AF919F918F917F916F915F9140
:102040004F913F912F910F900FBE0F901F901895B9
:102050001F920F920FB60F9211248F939F9380912E
:10206000E1009091E100937F9093E10083FF0FC026
:102070001092E90091E09093EB001092EC0092E353
:102080009093ED001092570698E09093F00082FF35
:1020900022C093E09093E9009091F200992319F007
:1020A0009AE39093E80090916E05992341F0909106
:1020B0006E05915090936E05911101C05D9A9091BB
:1020C0005606992341F090915606915090935606EA
:1020D000911101C0289A84FF18C08091E2008E7E81
:1020E00081608093E2008091E1008F7E8093E10027
:1020F00080916F058E7E806180936F059F918F9197
:102100000F900FBE0F901F90189580FFF7CF809112
:10211000E2008E7E80618093E2008091E1008E7EFD
:102120008093E10080916F058E7E8160E5CF1F92E4
:102130000F920FB60F921124CF92DF92EF92FF927F
:102140000F931F932F933F934F935F936F937F93BF
:102150008F939F93AF93BF93EF93FF93CF93DF93AF
:10216000CDB7DEB76C97DEBFCDBF1092E90080918E
:10217000E80083FF25C068E0CE0145960E94320545
:1021800082EF8093E8008D8987FF39C09091E80045
:1021900090FFFCCF982F907609F034C19E894F892B
:1021A000588D2F89F88C911131C0803861F580915C
:1021B00070058093F1001092F1008EEF8093E8009B
:1021C0006C960FB6F894DEBF0FBECDBFDF91CF91F6
:1021D000FF91EF91BF91AF919F918F917F916F91FF
:1021E0005F914F913F912F911F910F91FF90EF9031
:1021F000DF90CF900F900FBE0F901F9018959EEF1D
:102200009093E800C7CF1092F100D5CF913059F4E8
:102210008111D3CF4130510581F6809170058D7FBA
:1022200080937005CACF933049F48111C6CF4130F5
:10223000510519F6809170058260F2CF953041F416
:102240008091E80080FFFCCF20682093E300B5CFA9
:10225000963009F0A9C00B8D1C8D22E01092E90088
:1022600010926C0510926B05F2122EC010926A0546
:10227000109269050E9401051F8299E09983FA82F4
:1022800091E09E8390EA98879AEF998720916B0559
:1022900030916C05275F3F4F3C832B838D831092D9
:1022A000E90010926C0510926B0510936A0500937B
:1022B000690549E050E0BE016F5F7F4F80E00E94FA
:1022C000DB040E94010579CF10936A05009369052C
:1022D0000E948002DC0112960D911C9101151105DE
:1022E00009F451C1D801ED91FC910480F581E02DF4
:1022F000BE016B5E7F4FC8010995009709F03EC192
:10230000F80100851185EACFF3E0FF120EC08F8936
:10231000882309F440C0823061F440E862E18DE135
:1023200092E00E94A804811148CF81E28093EB00E3
:1023300047CF813029F440E868E084E192E0F1CFB2
:10234000833099F70E948002DC011296ED90FC9098
:102350008E010F5F1F4F6801E114F10479F0D7017E
:10236000ED91FC910680F781E02DB801C701099538
:10237000080F111DF701E084F184EECFD8011C9203
:10238000F60101900020E9F73197BF016C197D0932
:1023900040E0C601C6CF6EEF71E0FB01449150E012
:1023A00080E80E94DB0409CF973009F4BECF983053
:1023B00021F481E08093F10000CF993009F0FDCE47
:1023C000837009F0B2CFE5E2F1E081E031E096E31D
:1023D0002191222371F08093E9003093EB00DF011B
:1023E00011972C912093EC009093ED008F5F873034
:1023F00079F78EE78093EA001092EA008F89809344
:102400005706DBCE8B8D9C8D1092E90010926C05E7
:1024100010926B0590936A0580936905898D8111EF
:1024200092C08E899D89913A49F4813209F07DCF1D
:1024300047E050E06CE171E080E0B3CF913209F009
:1024400074CF833269F48F89988DB0E0A0E08093D7
:10245000000190930101A0930201B0930301ADCE5E
:10246000803269F48091E80082FFFCCF67E08CE164
:1024700091E00E9432058BEF8093E8009ECE82327D
:1024800009F09BCE8F8980932301EEEFFFE78591C2
:1024900094918B3F9C4D51F1E0E0F8E080911C015C
:1024A00090911D01A0911E01B0911F01803B9440AD
:1024B000A105B105F1F48091230180FD1AC0EE3F22
:1024C0008AE0F80789F587E797E791838083809111
:1024D000600080936D0588E19BE00FB6F894A895A5
:1024E000809360000FBE9093600067CEEEEFFAE03D
:1024F000D5CF808191818737974709F05ECEA89527
:102500008091600088618093600080916D05809368
:102510006000EE3F2AE0F20789F08091FE0A909178
:10252000FF0A9183808349CE808191818737980704
:1025300051F29093FF0A8093FE0AC5CF1092FF0AD2
:102540001092FE0A3ACE0E948002DC0112960D9192
:102550001C910115110509F4E8CED801ED91FC910B
:102560000190F081E02DBE016B5E7F4FC80109959F
:10257000811123CEF80100851185EBCF18161906BD
:102580000CF41BCED2CEF1E0FF12BECE62E072E0C0
:1025900004CF1F920F920FB60F9211242F933F93E7
:1025A0004F935F936F937F938F939F93AF93BF935B
:1025B000EF93FF9381E796E00E94E105FF91EF9191
:1025C000BF91AF919F918F917F916F915F914F914B
:1025D0003F912F910F900FBE0F901F9018951F9253
:1025E0000F920FB60F9211242F938F939F93EF9317
:1025F000FF93E0918106F09182068081E091870649
:10260000F091880682FD1BC0908180918A068F5FC1
:102610008F7320918B06821741F0E0918A06F0E0DB
:10262000EF58F94F958F80938A06FF91EF919F9114
:102630008F912F910F900FBE0F901F901895808152
:10264000F4CF1F920F920FB60F9211242F933F9346
:102650004F935F936F937F938F939F93AF93BF93AA
:10266000CF93EF93FF9383B190916B008923809375
:102670009405809193059091940589278093920504
:102680008091940580939305C0E080919105C817CF
:1026900060F4EC2FF0E0EE0FFF1FE757FA4F0190C8
:1026A000F081E02D0995CF5FF0CFFF91EF91CF91B1
:1026B000BF91AF919F918F917F916F915F914F915A
:1026C0003F912F910F900FBE0F901F901895E1E74B
:1026D000F6E01382128288EE93E0A0E0B0E08483FB
:1026E0009583A683B7832FE431E0318320832DECDB
:1026F00030E0358724872CEC30E03787268728ECBC
:1027000030E0318B208B29EC30E0338B228B2AECAC
:1027100030E0358B248B2EEC30E0378B268B118EFE
:10272000128E138E148EEEE0F7E0138212828483F1
:102730009583A683B78381E691E0918380838FEFB1
:102740009FEF958784878DE791E09093AD07809305
:10275000AC07E1EBF7E020812B7F208390939B0770
:1027600080939A07EFE9F7E020812B7F20839093F5
:10277000890780938807EDE8F7E020812B7F20838D
:102780009093770780937607EBE7F7E020812B7F24
:1027900020839093650780936407E9E6F7E08081E2
:1027A0008B7F808383E791E0909363078093620738
:1027B0000E94D90360935E0770935F078093600760
:1027C000909361070C94D903789484B5826084BD9A
:1027D00084B5816084BD85B5826085BD85B5816025
:1027E00085BD80916E00816080936E0010928100A3
:1027F000809181008260809381008091810081605E
:10280000809381008091800081608093800080911E
:10281000910082608093910080919100816080930B
:102820009100809190008160809390008091C10020
:1028300084608093C1008091C10082608093C10058
:102840008091C10081608093C1008091C30081604C
:102850008093C3008091C00082608093C00080910B
:10286000C20081608093C20080917A00846080936E
:102870007A0080917A00826080937A0080917A0059
:10288000816080937A0080917A00806880937A00DA
:10289000109257061092700510926F058091D70024
:1028A00081608093D70080EA8093D80089B58061E9
:1028B00089BD89B5826089BD09B400FEFDCF61E0A4
:1028C00070E080E090E00E9498038091D8008F7CB7
:1028D00080618093D8008091E000807F8093E00049
:1028E0008091E1008E7E8093E1008DE08093E20094
:1028F000559A209A60E084E00E94370361E085E009
:102900000E94370361E085E00E9409030E942A0BC0
:102910000DE311E0C7E3D1E062E089910E94370343
:102920000C171D07C9F7E0918106F091820682E03D
:102930008083E0917D06F0917E061082E0917F0613
:10294000F09180068FEC808310928906E0918506D5
:10295000F091860686E08083E0918306F0918406FC
:10296000808180618083E0918306F091840680817C
:1029700088608083E0918306F0918406808180687E
:102980008083E0918306F091840680818F7D80832F
:102990008FEF9FEF90931B0780931A0768EE73E009
:1029A00080E090E00E9498038091B705882331F081
:1029B0008EE097E090937205809371050E94CA03A0
:1029C000882321F081EB91E00E94F00B81E796E0F3
:1029D00090935F0680935E061092740510927305C3
:1029E00062E070E089E00E94E50370E060E087E06B
:1029F0000E94E5038091660690E00E94740764EFF0
:102A000071E080E090E00E9498038091660690E07B
:102A10000E94740764EF71E080E090E00E949803E8
:102A200083E40E947C0783E490E00E941A0E809366
:102A3000B40588E40E947C0788E490E00E941A0EA6
:102A40008093B00581E08093A40560E085E00E945A
:102A500009038EE097E00E94050E8FEC91E00E9442
:102A6000090E80EE91E00E94090E60E372E08EE0B4
:102A700097E00E943F052AE041E050E060E070E00E
:102A80008EE097E00E94730B81EF91E00E94F00BC3
:102A90002AE042E050E060E070E08EE097E00E94C3
:102AA000730B83EF91E00E94090E8EE097E00E9485
:102AB000050E8091B405882309F4E4C10E94CA037D
:102AC000882321F08AEF91E00E94F00B0E94CA0354
:102AD000882321F081E392E00E94F00B0E94CA0358
:102AE000882321F081E592E00E94F00B0E944A0CBD
:102AF00080916D068130E9F462E08CEA97E00E94F3
:102B0000EA0A63E08AE997E00E94EA0A80916E0689
:102B100081110FC069E088E897E00E94EA0A67E047
:102B200086E797E00E94EA0A68E084E697E00E9460
:102B3000EA0A80916D068230D1F583B190916B00E5
:102B4000892380939405809194058093930589B19E
:102B50008F708093A0058091A00580939F0565EDFF
:102B600078E082E00E946E0A8093A1058091A10521
:102B700087FD1DC090E080E02CED35E0FC01EE0FFC
:102B8000FF1FE958FA4F3183208301968930910560
:102B9000A9F78AE0809376051092AE051092AF05F2
:102BA00082E080937505809175050E94040A81E09A
:102BB0008093B60524EF222E22E0322EC4ECD5E01D
:102BC00015E2412E13E0512E02E3602E03E0702E39
:102BD0008FE3E82E83E0F82E9BE4C92E93E0D92EF4
:102BE0008EE097E00E945A0718161906ACF48EE0A2
:102BF00097E00E9418079091A205883009F44AC115
:102C00008D3009F04EC1E92FF0E0EB55FA4F1082FC
:102C10001092A20597FF51C110916D06113009F075
:102C2000BCC067E08CEA97E00E94AA08882309F4F8
:102C3000B5C51093400680913E0690913F069C01D9
:102C4000220F331F820F931F2091BA073091BB07C9
:102C50004091BA075091BB0724173507A9F7820F97
:102C6000931F969587959695879590933F068093A9
:102C70003E0667E08AE997E00E94AA088823F1F0FF
:102C800080913C0690913D069C01220F331F820FDC
:102C9000931F2091A8073091A9074091A807509150
:102CA000A90724173507A9F7820F931F96958795D3
:102CB0009695879590933D0680933C0667E088E85B
:102CC00097E00E94AA088823F1F080913A0690913B
:102CD0003B069C01220F331F820F931F2091960702
:102CE0003091970740919607509197072417350721
:102CF000A9F7820F931F9695879596958795909340
:102D00003B0680933A0667E086E797E00E94AA08B0
:102D10008823F1F080913806909139069C01220FAA
:102D2000331F820F931F20918407309185074091B4
:102D300084075091850724173507A9F7820F931F41
:102D40009695879596958795909339068093380642
:102D500067E084E697E00E94AA088823F1F080915A
:102D60003606909137069C01220F331F820F931F66
:102D70002091720730917307409172075091730749
:102D800024173507A9F7820F931F96958795969577
:102D90008795909337068093360680916D06823032
:102DA00009F03FC08091AE05882309F4FAC48091F0
:102DB000AF0590E0880F892F881F990B892B09F4A4
:102DC000F0C48091AF058F778093AF0581E0809349
:102DD0004006809161060E94AD0990933F06809362
:102DE0003E06809162060E94AD0990933D06809355
:102DF0003C06809163060E94AD0990933B06809348
:102E00003A06809164060E94AD099093390680933A
:102E10003806809165060E94AD099093370680932D
:102E2000360680916E06811104C0809140068111A2
:102E3000BBC40E94D90300915E0710915F072091E7
:102E4000600730916107601B710B820B930B6A3F27
:102E500071058105910508F4ABC410911101612F32
:102E600085E00E94090381E01827109311010E9458
:102E7000D90360935E0770935F0780936007909318
:102E8000610796C40E94CA03882309F41FCE85E116
:102E900092E01ACE992309F4BFCE91509093A205E7
:102EA000BBCE983038F4E92FF0E0EB55FA4F808331
:102EB0009F5FF4CF1092A205AFCE8091A505853417
:102EC00009F4C7C2FCF48D3209F4FAC364F4882310
:102ED00031F18B3209F4D8C360EF72E085EA95E0F6
:102EE0000E94B31E9AC0833409F4B2C00CF025C40A
:102EF000813491F70E94CA03882309F4EFC38DED52
:102F000094E0DBC3823509F42AC40CF08BC08D3405
:102F100009F43AC1803509F4CBC28834E9F60E943D
:102F2000CA03882321F083E792E00E94F00B0E94FD
:102F3000CA03882321F08AEE93E00E94F00B0E94DE
:102F4000CA03882321F08EE792E00E94F00B0E94D2
:102F5000CA03882321F08BE992E00E94F00B0E94C3
:102F6000CA03882321F08EEA92E00E94F00B809140
:102F70006D06823040F00E94CA03882321F086EC5F
:102F800092E00E94F00B0E94CA03882321F08EE198
:102F900093E00E94F00B0E94CA03882321F08DE386
:102FA00093E00E94F00B0E94CA03882321F080E680
:102FB00093E00E94F00B0E94CA03882321F08AE765
:102FC00093E00E94F00B0E94CA03882321F083E95A
:102FD00093E00E94F00B0E94CA03882321F087EA45
:102FE00093E00E94F00B0E94CA03882321F086EB35
:102FF00093E00E94F00B0E94CA03882321F08CEC1E
:1030000093E00E94F00B0E94CA03882321F08BE119
:1030100093E00E94F00B1092A60585EA95E00E94CD
:10302000090EFACD863509F4CAC0883509F466C39D
:10303000833509F051CF8091A6058D3309F003C285
:103040008091A705873509F0EEC00E94FA0BB4C045
:103050000E94CA03882321F088EE93E00E94F00BBF
:1030600080916D06813039F50E94CA03882319F1D9
:1030700080E094E09F938F9387E094E09F938F93F9
:103080008EE094E09F938F9382E892E09F938F93DA
:103090001F9284E68F93DF93CF930E94C21E84EC2D
:1030A00095E00E94F00BEDB7FEB73C960FB6F89492
:1030B000FEBF0FBEEDBF80916D06823079F50E9494
:1030C000CA03882359F1E0916D06E150FF0BEE0F22
:1030D000FF1FE35CFE4F81818F9380818F9387E197
:1030E00094E09F938F938EE094E09F938F938EE56F
:1030F00092E09F938F931F9284E68F93DF93CF93F9
:103100000E94C21E84EC95E00E94F00B8DB79EB722
:103110000C960FB6F8949EBF0FBE8DBF80916D06C2
:10312000833008F478CF0E94CA03882309F473CF50
:10313000E0916D06E150FF0BEE0FFF1FE35CFE4FC9
:1031400081818F9380818F938EE194E09F938F9301
:103150008EE094E09F938F9388E392E09F938F9308
:103160001F9284E68F93DF93CF930E94C21E84EC5C
:1031700095E00E94F00B8DB79EB70C960FB6F894B1
:103180009EBF0FBE8DBF47CF8091350691E0892746
:1031900080933506882341F00E94CA03882309F4EE
:1031A0003ACF81E294E035CF0E94CA03882321F010
:1031B0008BE394E00E94F00B0E94430B2CCF809194
:1031C000A6058D3309F088CE87EA95E00E94951E0A
:1031D0008C018FEF800F8E3108F01FCF0E94CA0341
:1031E0005801BB248823C9F0BF92AF92EEE5F3E00B
:1031F000FF93EF931F9284E68F93DF93CF930E9408
:10320000C21E84EC95E00E94F00BEDB7FEB7389635
:103210000FB6F894FEBF0FBEEDBF00936606C50162
:103220000E947407C9CF893469F589EA95E00E9444
:10323000951E80936D060E94CA03882309F4BCCFB3
:10324000E0916D06E150FF0BEE0FFF1FE35CFE4FB8
:1032500081818F9380818F93DF92CF921F9284E63A
:103260008F93DF93CF930E94C21E84EC95E00E945F
:10327000F00B8DB79EB708960FB6F8949EBF0FBEA1
:103280008DBF9ACF813351F58091A805803209F026
:1032900093CF89EA95E00E94951E809361060E9473
:1032A000CA03882309F488CF809161061F928F9307
:1032B000FF92EF921F9284E68F93DF93CF930E9449
:1032C000C21E84EC95E00E94F00B8DB79EB7089665
:1032D0000FB6F8949EBF0FBE8DBF6ECF823351F5EF
:1032E0008091A805803209F067CF89EA95E00E94B5
:1032F000951E809363060E94CA03882309F45CCF5D
:10330000809163061F928F937F926F921F9284E643
:103310008F93DF93CF930E94C21E84EC95E00E94AE
:10332000F00B8DB79EB708960FB6F8949EBF0FBEF0
:103330008DBF42CF833351F58091A805803209F0CB
:103340003BCF89EA95E00E94951E809362060E9419
:10335000CA03882309F430CF809162061F928F93AD
:103360005F924F921F9284E68F93DF93CF930E94D8
:10337000C21E84EC95E00E94F00B8DB79EB70896B4
:103380000FB6F8949EBF0FBE8DBF16CF843361F584
:103390008091A805803209F00FCF89EA95E00E945C
:1033A000951E809364060E94CA03882309F404CF03
:1033B000809164061F928F93E3E1F3E0FF93EF9314
:1033C0001F9284E68F93DF93CF930E94C21E84ECFA
:1033D00095E00E94F00BEDB7FEB738960FB6F89463
:1033E000FEBF0FBEEDBFE8CE853309F0E5CE80917C
:1033F000A805803209F0E0CE89EA95E00E94951E8A
:10340000809365060E94CA03882309F4D5CE809173
:1034100065061F928F9382E093E09F938F931F9294
:1034200084E68F93DF93CF930E94C21E84EC95E0D5
:103430000E94F00B8DB79EB708960FB6F8949EBF0A
:103440000FBE8DBFB9CE8F3309F046CD0E944A0C16
:10345000E2CD87EA95E00E94951E863008F03CCDCB
:10346000809370060E94CA03882309F4A5CEE091D8
:103470007006F0E0EE0FFF1FE55DFE4F81818F9338
:1034800080818F933F922F921F9284E68F93DF93D8
:10349000CF930E94C21E84EC95E00E94F00B8DB782
:1034A0009EB708960FB6F8949EBF0FBE8DBF84CE10
:1034B0008091A6058F3309F00FCD8091A405882354
:1034C00009F4DFC00E94CA03882321F08BE193E056
:1034D0000E94F00B0E94CA03882321F084E594E047
:1034E0000E94F00B0E94CA03882321F082E794E037
:1034F0000E94F00B0E94CA03882321F084E594E027
:103500000E94F00B82E40E947C070E94CA03882379
:10351000E9F082E490E00E941A0E9F938F938DED64
:1035200092E09F938F931F9284E68F93DF93CF93C4
:103530000E94C21E84EC95E00E94F00B8DB79EB7EE
:1035400008960FB6F8949EBF0FBE8DBF83E40E940D
:103550007C070E94CA038823E9F083E490E00E947C
:103560001A0E9F938F938AEC92E09F938F931F92F2
:1035700084E68F93DF93CF930E94C21E84EC95E084
:103580000E94F00B8DB79EB708960FB6F8949EBFB9
:103590000FBE8DBF84E40E947C0784E490E00E940B
:1035A0001A0E0E94CA03882311F1E0917006F0E020
:1035B000EE0FFF1FE55DFE4F81818F9380818F931A
:1035C00089EB92E09F938F931F9284E68F93DF9312
:1035D000CF930E94C21E84EC95E00E94F00B8DB741
:1035E0009EB708960FB6F8949EBF0FBE8DBF88E4B5
:1035F0000E947C070E94CA038823E9F088E490E0D7
:103600000E941A0E9F938F9387EA92E09F938F9365
:103610001F9284E68F93DF93CF930E94C21E84ECA7
:1036200095E00E94F00B8DB79EB708960FB6F89400
:103630009EBF0FBE8DBF8CE40E947C070E94CA0310
:10364000882309F4E8CC8CE490E00E941A0E9F9342
:103650008F93E3E9F2E0FF93EF931F9284E68F9359
:10366000DF93CF930E94C21E84EC95E00E94F00B82
:10367000EDB7FEB738960FB6F894FEBF0FBEEDBF9C
:10368000CACC80E994E0C5CC0E94CA03882321F00B
:1036900083EA94E00E94F00B8091B6058F5F8093DF
:1036A000B6059091B0059817C8F49093B6050E949E
:1036B000CA03882399F08AEA94E00E94F00B0EC0B6
:1036C0000E94CA03882321F080EC94E00E94F00B52
:1036D0008091B605815041F08093B6058091B60582
:1036E00090E00E94780797CC81E08093B6050E9415
:1036F000CA03882399F387EC94E0DFCF8091B30568
:1037000081110BC08EE00E947C070E94CA038823AF
:1037100021F084EE94E00E94F00B8091B30581309B
:1037200009F079CC8DE00E947C070E94CA038823AF
:1037300009F471CC8CEE94E06CCC80916E068823F9
:1037400039F08091A30591E089278093A30563CC8C
:103750008091B70591E089278093B7055CCC0E94E2
:10376000CA03882321F083EF94E00E94F00B10E05D
:1037700000E060E0C8010E9478210F5F1F4F011533
:10378000F4E01F07B1F782E00E9433040E94CA03ED
:10379000882309F440CC8FEF94E03BCC1092400694
:1037A00068CA109240063DCB61E085E00E940903A3
:1037B00080913506882309F47CC000913E06109163
:1037C0003F060115110509F426C280912D068111CD
:1037D0000DC00E94D9036093290670932A06809336
:1037E0002B0690932C0681E080932D060E94D9032E
:1037F0008090290690902A06A0902B06B0902C0667
:10380000681979098A099B096A3F71058105910543
:1038100008F44FC00E94D9036093290670932A06CA
:1038200080932B0690932C060C3D25E0120708F0A0
:10383000E0C180916B0690916C060817190720F47F
:1038400010936C0600936B068091690690916A064E
:1038500020916B0630916C06820F931F9695879589
:103860009093680680936706C8010E94BF0B85E1AC
:1038700095E00E94F00B80916B0690916C060E947F
:10388000BF0B85E195E00E94F00B80916706909157
:1038900068060E94BF0B85E195E00E94F00B8091C5
:1038A000690690916A060E94BF0B8EE097E00E9425
:1038B000050E8091BC0581110DC00E94D903609353
:1038C000B8057093B9058093BA059093BB0581E064
:1038D0008093BC050E94D9030091B8051091B905E9
:1038E0002091BA053091BB05601B710B820B930BC5
:1038F000653F71408105910508F46BC10E94D903B1
:103900006093B8057093B9058093BA059093BB0591
:103910008091B705882309F479C00E94CA038823DF
:1039200031F080913E0690913F060E94BF0B0E94AD
:10393000CA03882321F085E195E00E94F00B0E94E4
:10394000CA03882331F080913C0690913D060E9485
:10395000BF0B0E94CA03882321F085E195E00E94F5
:10396000F00B0E94CA03882331F080913A069091AF
:103970003B060E94BF0B0E94CA03882321F085E109
:1039800095E00E94F00B0E94CA03882331F08091D9
:103990003806909139060E94BF0B0E94CA03882303
:1039A00021F085E195E00E94F00B0E94CA03882374
:1039B00031F080913606909137060E94BF0B0E942D
:1039C000CA03882321F085E195E00E94F00B0E9454
:1039D000CA038823D9F08091B6051F928F938DE793
:1039E00093E09F938F931F9284E68F93DF93CF93FF
:1039F0000E94C21E84EC95E00E94F00B8DB79EB72A
:103A000008960FB6F8949EBF0FBE8DBF20913E065C
:103A100030913F061091B4052115310509F424C1F8
:103A200080906B0690906C06B12CA12C50E040E089
:103A3000281939094A095B09ADE1B0E00E94A521C6
:103A40002091690630916A0650E040E02819390952
:103A50004A095B090E9486212F5F3F4F4F4F5F4FFE
:103A60002093B5058091B505181719F090E00E94D4
:103A700074078091B5058093B40584E00E94E0024C
:103A80008093B30520913A0630913B06211531050C
:103A900099F08091670690916806885C91092817D3
:103AA000390708F0E4C010921001809110018130B4
:103AB00009F0E1C08093B20520913C0630913D06AB
:103AC0002115310599F08091670690916806885319
:103AD0009F4F8217930708F0EFC010920F0180915B
:103AE0000F01813009F0ECC08093B10520913606BA
:103AF000309137062115310599F080916706909134
:103B0000680688539F4F8217930708F0FBC01092F6
:103B10000E0180910E01813009F0F8C08093B1054B
:103B2000209138063091390621153105F1F0809148
:103B3000670690916806885C91092817390718F480
:103B40008EE00E947C0780916706909168068853FA
:103B50009F4F20913806309139068217930728F439
:103B60008091B60590E00E94780787E3A82E81E057
:103B7000B82E01E010E094E6992EF50181915F01E5
:103B80000E94E002892B01F5B80182E10E94E50361
:103B90000E94CA038823C1F01F930F9387E693E026
:103BA0009F938F931F929F92DF93CF930E94C21E89
:103BB00084EC95E00E94F00B8DB79EB708960FB687
:103BC000F8949EBF0FBE8DBF0F5F1F4F07301105CA
:103BD000A1F680E090E0892B11F40C94F0150E947E
:103BE000CD05882311F40C94E0150E9400000C947C
:103BF000E0158091690690916A060C3DE5E01E078C
:103C000009F422CE8017910708F01ECE10936A06A1
:103C10000093690619CE0E94CA03882309F449CE8D
:103C2000E0916D06E150FF0BEE0FFF1FE35CFE4FCE
:103C300081818F9380818F938FE893E09F938F93FF
:103C40001F9284E68F93DF93CF930E94C21E84EC71
:103C500095E00E94F00B8DB79EB708960FB6F894CA
:103C60009EBF0FBE8DBF25CE1093B505FBCE81E064
:103C7000809310011ACF81111FCF8091B205882344
:103C800009F41ACF8091B605815051F08093B605A2
:103C90008091B60590E00E9478071092B2050CCF93
:103CA00081E08093B6050E94CA03882389F387ECDC
:103CB00094E00E94F00BECCF81E080930F010FCFD6
:103CC000811114CF8091B105882309F40FCF809121
:103CD000B6058F5F8093B6059091B005981750F4A4
:103CE0009093B6050E94CA03882321F08AEA94E0E3
:103CF0000E94F00B8091B60590E00E947807109228
:103D0000B105F4CE81E080930E0103CF811108CF7D
:103D10008091B105882309F403CF8091B60590E026
:103D20000E9478071092B105FBCEFC0188279927E5
:103D3000E89421912032E9F3293010F02E30C8F3B5
:103D40002B3241F02D3239F4689404C00E94BA1E1F
:103D5000820F911D219120532A30C0F31EF49095BB
:103D600081959F4F0895FB01DC0105900D92002085
:103D7000E1F708957AE0979F902D879F802D910D10
:103D800011240895AEE0B0E0E8ECFEE10C94BE2111
:103D90000D891E898F89988D2EE02C831A830983C3
:103DA00097FF02C080E090E801979E838D83AE016B
:103DB000455E5F4F698D7A8DCE0101960E94F21E9D
:103DC0004D815E8157FD0AC02F8138854217530708
:103DD0000CF49A01020F131FF80110822E96E4E0F2
:103DE0000C94DA21ABE0B0E0E8EFFEE10C94B021F6
:103DF0007C013B018A01FC0117821682838181FFCD
:103E0000C8C1CE0101965C01F7019381F30193FDD6
:103E1000859193FF81913F01882309F453C1853235
:103E200039F493FD859193FF81913F01853229F407
:103E3000B70190E00E94E220E7CF912C212C312C99
:103E4000FFE1F31538F08B3211F190F4803209F173
:103E5000833229F137FC3CC020ED280F2A3050F581
:103E600036FE20C08AE0989E200D1124922E06C0B6
:103E70008D3291F0803371F7689430F8F30193FD3F
:103E8000859193FF81913F018111DACF21C0689420
:103E900031F8689432F8F2CF689433F8EFCF689431
:103EA00034F8ECCFEAE02E9E200D1124222E6894E7
:103EB00035F8E4CF8E3229F436FC04C1689436F824
:103EC000DDCF8C3619F4689437F8D8CF8836B1F244
:103ED000982F9F7D95549330E0F08336A1F183377E
:103EE000C1F1833509F063C02801F2E04F0E511C87
:103EF000F801C080D180692D70E036FC02C06FEF00
:103F00007FEFC6010E94CC204C01689437F88201F3
:103F10000AC00C5F1F4FFFE3F98388248394912C20
:103F20006501E89437F833FE2DC0522C81149104BA
:103F300071F5552009F468CFB70180E290E00E9446
:103F4000E2205A94F6CFF801808189830E5F1F4FDB
:103F5000E4CF2801F2E04F0E511CF801C080D1805F
:103F6000692D70E036FC02C06FEF7FEFC6010E9442
:103F7000D7204C018201D5CFB70180E290E00E94AA
:103F8000E2202A942814190409F0B0F7CECFF601E4
:103F900037FC859137FE81916F01B70190E00E9457
:103FA000E22051105A94F1E08F1A9108BFCF843665
:103FB00019F0893609F077C0F80137FE6BC06081CF
:103FC0007181828193810C5F1F4FF32DFF763F2E0D
:103FD00097FF09C090958095709561957F4F8F4FA1
:103FE0009F4F689437F82AE030E0A5010E94122123
:103FF000C82ECA188C2C432C36FE0CC0E89440F80E
:10400000C91440F434FE05C032FC03C0F32DFE7E1B
:104010004F2E892C44FE95C0FE01EC0DF11D8081D0
:10402000803309F087C0242D297E422E842D88708C
:10403000582E43FC95C040FE8FC09C2C821418F46F
:104040002C0C922C981844FE91C0B70180E390E0AC
:104050000E94E22042FE09C088E790E041FE02C0D3
:1040600088E590E0B7010E94E220C91408F48AC0F4
:10407000CA94D12C9FEFC91AD90ACA0CDB1CF601CD
:1040800082916F01B70190E00E94E220AC14BD0460
:10409000B1F74FCF60817181072E000C880B990B0F
:1040A0000E5F1F4F92CFD32CE894D4F82AE030E073
:1040B000853739F1232D297FD22E8F3601F148F42F
:1040C0008835A9F0F701868197812B96E2E10C945F
:1040D000CC21803749F08837A9F7D4FE02C0689414
:1040E000D2F820E130E00DC06894D4F8F6CF34FE69
:1040F00003C0822F8660D82E20E132E002C028E083
:1041000030E0F801D7FE0FC0608171818281938118
:104110000C5F1F4FA5010E941221C82ECA183D2C0A
:10412000E89437F867CF6081718190E080E00E5F9E
:104130001F4FF0CF42FC02C0839478CF83948394C6
:1041400075CF842D867809F471CFF6CFB70180E260
:1041500090E00E94E22083948214C0F3512C73CF2C
:10416000522C5818821408F46ECFF8CF842D86781C
:1041700009F47BCF8BE241FE80E247FC8DE2B70180
:1041800090E071CFB70180E390E00E94E2209A9422
:104190006CCF8FEF9FEF99CFFC010590615070407D
:1041A0000110D8F7809590958E0F9F1F0895FC0100
:1041B0006150704001900110D8F7809590958E0F56
:1041C0009F1F08950F931F93CF93DF93182F092FED
:1041D000EB018B8181FD09C01FEF0FEF812F902F25
:1041E000DF91CF911F910F91089582FF14C02E810E
:1041F0003F818C819D81281739073CF4E881F98142
:10420000CF0101969983888310838E819F810196C7
:104210009F838E83E3CFE885F985812F0995892BCC
:10422000A1F3DACFFA01AA27283051F1203181F128
:10423000E8946F936E7F6E5F7F4F8F4F9F4FAF4FAE
:10424000B1E03ED0B4E03CD0670F781F891F9A1FC1
:10425000A11D680F791F8A1F911DA11D6A0F711D75
:10426000811D911DA11D20D009F468943F912AE081
:10427000269F11243019305D3193DEF6CF01089569
:10428000462F4770405D4193B3E00FD0C9F7F6CF9A
:10429000462F4F70405D4A3318F0495D31FD405262
:1042A000419302D0A9F7EACFB4E0A69597958795F8
:1042B00077956795BA95C9F70097610571050895D7
:1042C0009B01AC010A2E0694579547953795279583
:1042D000BA95C9F7620F731F841F951FA01D08951B
:1042E000F999FECF92BD81BDF89A992780B50895BE
:1042F000262FF999FECF1FBA92BD81BD20BD0FB602
:10430000F894FA9AF99A0FBE01960895052E97FB34
:104310001EF400940E949D2157FD07D00E94E721C2
:1043200007FC03D04EF40C949D2150954095309598
:1043300021953F4F4F4F5F4F089590958095709511
:1043400061957F4F8F4F9F4F08950E940922A59F2F
:10435000900DB49F900DA49F800D911D1124089580
:104360002F923F924F925F926F927F928F929F9285
:10437000AF92BF92CF92DF92EF92FF920F931F9373
:10438000CF93DF93CDB7DEB7CA1BDB0B0FB6F89424
:10439000DEBF0FBECDBF09942A88398848885F8464
:1043A0006E847D848C849B84AA84B984C884DF80D5
:1043B000EE80FD800C811B81AA81B981CE0FD11DB9
:1043C0000FB6F894DEBF0FBECDBFED010895A1E298
:1043D0001A2EAA1BBB1BFD010DC0AA1FBB1FEE1F7F
:1043E000FF1FA217B307E407F50720F0A21BB30BCA
:1043F000E40BF50B661F771F881F991F1A9469F746
:1044000060957095809590959B01AC01BD01CF01A1
:104410000895A29FB001B39FC001A39F700D811D9D
:104420001124911DB29F700D811D1124911D0895BD
:10443000EE0FFF1F0590F491E02D0994F894FFCF43
:10444000FFFFFFFF790479047904790479040101FD
:1044500001017EFF06000000000000EF00E1000007
:104460000000000000C1808100000017051E052229
:104470000527052C053405121314150F0E390519DF
:10448000043D05420547054C0551050000000002AA
:1044900006630590054E06C1059F05B305000000A3
:1044A00000F3066E06140709075A071807360700B7
:1044B0000000009209C509A00800000000D308A16F
:1044C00008A0082A206F4F20454550524F4D2053D9
:1044D000657474696E6773204F6F202A0D0A005649
:1044E0006F6C43683A202020202058414E590D0A15
:1044F000000D0A496E697469616C697A696E67209A
:104500004446506C61796572202E2E2E0D0A002AC9
:104510002A2A2A2A2A2A2A2A2A2A2A2A2A2A2A0025
:104520002A20536F756E64204D6F64756C65202A68
:10453000002E00202A2A2A2A2A004446506C61793B
:104540006572204D696E69206973206F6E6C696EAB
:10455000652E0D0A004446506C61796572204D69E4
:104560006E69206973206F66666C696E652E0D0A30
:10457000006F4F20555345204352204F4E20594F36
:104580005552205445524D494E414C204F6F0D0A13
:104590000048697420456E746572206F722048204F
:1045A0002B20456E74657220666F722048656C70B2
:1045B0000D0A000D0A482048656C700D0A00533D35
:1045C000572057726974652044656661756C742064
:1045D00053657474696E67730D0A00533F2052650A
:1045E00061642053657474696E67730D0A00533DEE
:1045F00049205820583D313D50574D2C20323D43E5
:1046000050504D0D0A00533D59205A20593D31203C
:10461000746F203420313D566F6C2C20323D507227
:1046200065762C20333D4E6578742C20343D506CDB
:10463000617950617573652C353D506C61795361BA
:104640006D65202F205A3D3120746F203132202893
:104650004368616E6E656C204E62290D0A00563DFE
:104660005820583D3120746F2033302044656661F6
:10467000756C7420566F6C756D650D0A004D204D7C
:104680006178692F43656E7472652F4D696E69207C
:104690004368616E6E656C20696E2075530D0A006B
:1046A000503F2052656164204446506C61796572C8
:1046B00020636F6E6669670D0A002B204F52202D14
:1046C000204E6578742F5072657620536F756E6436
:1046D0000D0A004120506C61792053616D652053B3
:1046E0006F756E640D0A005820506C61792F50610F
:1046F0007573650D0A0044204465627567206D6F0F
:104700006465204F4E2F4F46460D0A0052204572D9
:1047100061736520616C6C20636F6E66696775728A
:104720006174696F6E0D0A000D0A4320426F617259
:104730006420436F6E6E656374696F6E730D0A005B
:10474000433A4E45585400423A5052455600413A79
:10475000564F4C554D4500423A4350504D00443A57
:10476000005374617274204D696E69204D617869DF
:10477000207365617263683A0D0A0053746F70208C
:104780004D696E69204D6178692073656172636857
:104790003A0D0A002A2A2A2A2A2A2A2A2A2A2A2AD0
:1047A0002A2A2A2A2A2A2A2A2A2A2A2A2A2A2A0D86
:1047B0000A002A206F4F204446506C6179657220B0
:1047C00053657474696E6773204F6F202A0D0A0059
:1047D0004446506C61796572206E6F7420666F7507
:1047E0006E64004E4558540D0A00536F6E206D6183
:1047F00078696D756D2061747465696E742021002F
:10480000505245560D0A00536F6E206D696E696DEA
:10481000756D2061747465696E7420210053414D7B
:10482000450D0A0050415553450D0A00504C415961
:104830000D0A000D0A576169742E2E2E0D0A000D07
:104840000A526573657420454550524F4D20446FA0
:104850006E650D0A0009004E4F524D414C00504FFD
:104860005000524F434B004A415A5A00434C415367
:1048700053494300424153530050574D0053425552
:104880005300494255530053554D44004A4554493D
:06489000005352584C00D9
:00000001FF
