:100000000C94CE020C943C180C9415180C94EE171A
:100010000C94C7170C94F6020C94F6020C94A017DB
:100020000C94F6020C945C1B0C9463180C94D2187C
:100030000C94F6020C94F6020C94F6020C94F60260
:100040000C94F6020C94F6020C94F6020C94F60250
:100050000C94F6020C94F6020C94F6020C945617CB
:100060000C94F6020C942A1B0C94041B0C94F602BC
:100070000C94F6020C94F6020C94F6020C94F60220
:100080000C94F6020C94F6020C94F6020C94F60210
:100090000C94F6020C94F6020C94F6020C94F60200
:1000A0000C94F6020C94F6020C94F6024D696E69FB
:1000B00043683A2020202025640D0A0043656E74B1
:1000C000657243683A202025640D0A004D61786905
:1000D00043683A2020202025640D0A00506C617985
:1000E0002053616D653A2025640D0A00506C6179DA
:1000F0002053746F703A2025640D0A004E657874A1
:100100003A20202020202025640D0A0050726576B8
:100110003A20202020202025640D0A00566F6C43D1
:10012000683A202020202025640D0A00566F6C3A82
:100130002020202020202025640D0A004551204D3C
:100140006F64653A202025730D0A0058616E79208E
:100150006973204F464620210D0A0058616E7920B0
:10016000757365204368616E6E656C202564207C24
:100170002025730044656661756C74732056616C4C
:1001800075652053617665640D0A0043757272656A
:100190006E7420736F756E643A2025640D0A0046F4
:1001A000696C657320666F756E643A2025640D0A6C
:1001B00000457175616C697A65723A202025730D6E
:1001C0000A00566F6C756D652020202020203A2093
:1001D00025640D0A005374617465202020202020BE
:1001E000203A2025640D0A004552520058414E59CC
:1001F00020757365204368616E6E656C2025640D03
:100200000A004446506C61796572206E6F742066F6
:100210006F756E64004551204D6F64653A202573FB
:100220000D0A00506C6179506175736543683A201E
:1002300025640D0A005072657643683A2025640DE6
:100240000A004E65787443683A2025640D0A00560A
:100250006F6C43683A2025640D0A00496E7075740E
:10026000204D6F64652069732025730D0A00566F59
:100270006C3A25640D0A002E002E005D3A2030787D
:100280000052785B006D70335F726563765F636DFB
:1002900064206F7574004572726F7220726573709E
:1002A0006F6E7365207769746820636F64652000E2
:1002B0006D70335F726563765F636D6420696E2075
:1002C0007769746820657870656374656420636D10
:1002D0006420307800080B000202020000090400CC
:1002E00000010202000005240010010524010101A3
:1002F00004240206052406000107058103100040BE
:1003000009040100020A0000000705020240000083
:10031000070583024000000403090412010002EFF4
:100320000201404F1B06920001010203015370615C
:10033000726B46756E00537061726B46756E20501D
:10034000726F204D6963726F0000C2010000000EE1
:10035000000E000C0000E100000500220022002039
:1003600000009600000F00360036003400127A00BC
:10037000001700430043004100807000001A004A4B
:10038000004A004800004B00002C00710071007012
:1003900000403800004A009C009900990080250028
:1003A000007200EA00EA00E900C0120000E900DA89
:1003B00001DA01D70160090000D701AC03AC03B139
:1003C00003B0040000B3036E076E0767072C01003B
:1003D00000DC0EC11DC11DBE1D202A2A2A2A2A00AA
:1003E0002E002A2A2A2A2A2056002A20536F756EA8
:1003F00064204D6F64756C65202A002A2A2A2A2AF7
:100400002A2A2A2A2A2A2A2A2A2A2A00E4031C0417
:100410001C04540454048C048C04C404C404FC045C
:10042000FC04340534056C056C05A405A405DC0545
:10043000DC05140614064C064C0684068406BC062D
:10044000BC06F406F4062C072C07640764079C0717
:100450009C07D407582D416E79204661696C736101
:10046000666521202D3E204F757470757473203D94
:100470002030002058616E79207175616C69747943
:10048000203D20256400202852784E6962626C6508
:100490004C656E203D256400204578704E6962628F
:1004A0006C654C656E3D2564005377697463685BC9
:1004B00025642E2E315D3D0050726F703D20256405
:1004C0002000C2B0292000202800416E676C653DE5
:1004D0000020543D005D3D00582D416E79204D7344
:1004E000675B546F744E626C3D00416C61726D3A93
:1004F000202564207374617274656420210D0A00E4
:10050000536F756E644E756D6265723A2025640D89
:100510000A0000000000240027002A002D003000FF
:100520000000000200090F0000030401000C00009D
:1005300000000000000000000000000000000000BB
:100540000000250028002B002E00310000000000D4
:100550002300260029002C002F00040404040403B7
:100560000405020202020403020202020606060653
:10057000060604040202020404040802011040807A
:10058000401020408040800802040180402010027A
:100590000110801020404020A21BD62D11241FBE28
:1005A000CFEFDAE0DEBFCDBF16E0A0E0B1E0E4E2DD
:1005B000F8E602C005900D92A033B107D9F729E003
:1005C000A0E3B6E001C01D92A637B207E1F712E042
:1005D000CDECD2E004C02197FE010E94EB33CC3C6D
:1005E000D107C9F70E94ED1C0C9405340C9400004F
:1005F0008F929F92AF92BF92FF920F931F93CF93D0
:10060000DF934B015C01F42EC5EBD7E0E889F98953
:1006100082E08083EC85FD8510820E851F8560E079
:1006200079E08DE390E0A50194010E946A312150A8
:100630003109410951095695479537952795F80194
:100640002083188EEC89FD89F082EA89FB898081FC
:1006500080618083EA89FB89808188608083EA8960
:10066000FB89808180688083EA89FB8980818F7D16
:100670008083DF91CF911F910F91FF90BF90AF903A
:100680009F908F900895FC0180919B07882311F122
:100690003FB7F89482E08093E9002091F200822F26
:1006A00090E01816190614F481E090E0882339F0E0
:1006B000289844E640939A074091F1004083222312
:1006C00039F02091F200211103C02BE62093E800BD
:1006D0003FBF08958FEF9FEF08952FB7F89483E001
:1006E0008093E9009091E800892F807295FF04C003
:1006F0009091F20080E4891B2FBF089580919207AA
:1007000081110DC082E080938E0784E080938F0773
:10071000109291071092900781E0809392078EE8E3
:1007200097E0089581508F3008F047C0E82FF0E03F
:10073000E456FC4F0C94EB33B903BD03AB03B10398
:10074000B503DD03DD03DD03C003C603CA03CE0327
:10075000D403DD03D803809180008F7780938000DD
:100760000895809180008F7DF9CF80918000877FF0
:10077000F5CF84B58F7784BD089584B58F7DFBCF89
:10078000809190008F7780939000089580919000E1
:100790008F7DF9CF80919000877FF5CF8091C00049
:1007A0008F778093C00008958091C0008F7DF9CF2E
:1007B0008091C200877F8093C2000895CF93DF931A
:1007C000282F30E0F901E05EFA4F8491F901E758F3
:1007D000FA4FD491F901E65AFA4FC491CC23A1F013
:1007E00081110E949203EC2FF0E0EE0FFF1FE45BFB
:1007F000FA4FA591B491EC91ED2381E090E009F4DA
:1008000080E0DF91CF91089580E090E0FACF1F93D0
:10081000CF93DF93282F30E0F901E05EFA4F849107
:10082000F901E758FA4FD491F901E65AFA4FC49109
:10083000CC23A9F0162F81110E949203EC2FF0E037
:10084000EE0FFF1FE25CFA4FA591B4918FB7F894B9
:10085000EC91111108C0D095DE23DC938FBFDF919E
:10086000CF911F910895DE2BF8CFCF93DF9390E0C7
:10087000FC01E758FA4F2491865A9A4FFC01849163
:100880008823C9F090E0880F991FFC01EE5EFA4FB3
:10089000A591B491FC01E25CFA4FC591D49161112C
:1008A0000DC09FB7F8948C91209582238C938881FA
:1008B000282328839FBFDF91CF910895623051F4A0
:1008C0009FB7F8943C91822F809583238C93E88185
:1008D0002E2BEFCF8FB7F894EC912E2B2C938FBF4C
:1008E000EACF3FB7F89480918A0790918B07A09147
:1008F0008C07B0918D0726B5A89B05C02F3F19F036
:100900000196A11DB11D3FBFBA2FA92F982F88278F
:10091000BC01CD01620F711D811D911D42E0660F6A
:10092000771F881F991F4A95D1F708958F929F923C
:10093000AF92BF92CF92DF92EF92FF924B015C0198
:100940000E9471046B017C010E9471046C197D0985
:100950008E099F09683E734081059105A8F321E047
:10096000821A9108A108B10888EEC80E83E0D81E4B
:10097000E11CF11C81149104A104B10429F7FF903A
:10098000EF90DF90CF90BF90AF909F908F900895A1
:10099000CF93C09123016AE070E080E090E00E9474
:1009A000960481E0C11101C080E0CF9108952FB776
:1009B000F8946091860770918707809188079091DD
:1009C00089072FBF0895CF93DF938093150110926D
:1009D0001701609318012091130190911401290FC0
:1009E0003327331F820F932F911D20911601820F01
:1009F000911D680F791F71956195710970931901A7
:100A000060931A018091A2079091A307DC01ED91F8
:100A1000FC910084F185E02D0995892B61F080918E
:100A2000A2079091A307DC01ED91FC910284F3856C
:100A3000E02D0995E7CFC2E1D1E08091A207909126
:100A4000A3076991DC01ED91FC910190F081E02D0B
:100A50000995B1E0CC31DB0781F7DF91CF910C94A0
:100A6000D704CF92DF92EF92FF921F93CF93DF9341
:100A7000D82FC0E011E0C0909E07D0909F07E09073
:100A8000A007F090A10780911101882311F10E9425
:100A9000D7046C197D098E099F09683E7340810552
:100AA000910560F0109211010E94D70460939E0797
:100AB00070939F078093A0079093A107CF5FDC13EB
:100AC000DACFDF91CF911F91FF90EF90DF90CF9021
:100AD00008950E94D7046C197D098E099F09643F0F
:100AE00071408105910550F310931101DDCF8627E8
:100AF00020E1829FB00111248627482F50E0292F42
:100B0000382FCA0164E0959587956A95E1F7282703
:100B10003927CA0173E0880F991F7A95E1F7822778
:100B20009327089508954091850650918606209157
:100B300083063091840642175307B4F49091E8007D
:100B40009570E1F39091E80092FD19C08093F10057
:100B5000809185069091860601968F739927892B3F
:100B600019F48EEF8093E8008091850690918606B7
:100B70000196909386068093850681E0089580E033
:100B80000895EF92FF920F931F93CF93DF93F82E68
:100B9000192FE62E042F81E0860F880F0E949305FF
:100BA00083E00E949305CF2DD12FEC0EFD2EF11C7A
:100BB000CE15DF05B9F007FF13C0FE0184910E9436
:100BC0009305182F80E00E949305812321968111BF
:100BD000EFCFDF91CF911F910F91FF90EF9008958C
:100BE0008881EDCF81E0F5CFDF92EF92FF920F93F6
:100BF0001F93CF93DF93D82E8A01EB017B01E40E84
:100C0000F51ECE15DF0559F0D7FE12C0FE01849106
:100C10000E94930521968111F4CF0FEF1FEFC801B9
:100C2000DF91CF911F910F91FF90EF90DF9008958A
:100C30008881EECF0F931F93CF93DF931F92CDB791
:100C4000DEB782E0898342E450E065ED72E080E83F
:100C50000E94F4050E947E03DC0112960D911C9106
:100C60000115110589F0D801ED91FC910280F38105
:100C7000E02DBE016F5F7F4FC801099597FD04C04D
:100C8000F80100851185ECCF89810F90DF91CF911C
:100C90001F910F910895615030F02091F100FC01F7
:100CA00020830196F8CF289884E680939A070895C8
:100CB000EF92FF920F931F93CF93DF938C017B01F1
:100CC000D0E0C0E0F701EC0FFD1F6491662361F0F6
:100CD000D801ED91FC910190F081E02DC8010995BA
:100CE000892B11F02196EECFCE01DF91CF911F918C
:100CF0000F91FF90EF900895AF92BF92CF92DF9245
:100D0000EF92FF920F931F93CF93DF936C017B01C0
:100D10008B01040F151FEB015E01AE18BF08C01751
:100D2000D10759F06991D601ED91FC910190F081C4
:100D3000E02DC6010995892B79F7C501DF91CF9187
:100D40001F910F91FF90EF90DF90CF90BF90AF90E9
:100D50000895FC01538D448D252F30E0842F90E0C1
:100D6000821B930B541710F0CF96089501970895A6
:100D7000FC01918D828D981761F0A28DAE0FBF2F6F
:100D8000B11D5D968C91928D9F5F9F73928F90E0C5
:100D900008958FEF9FEF0895FC01918D828D981734
:100DA00031F0828DE80FF11D858D90E008958FEF71
:100DB0009FEF0895FC01918D228D892F90E0805C3A
:100DC0009F4F821B91098F739927089585EB97E0B8
:100DD0000E94DA0621E0892B09F420E0822F089591
:100DE00080E090E0892B29F00E94E60681110C94A6
:100DF00000000895FC01A48DA80FB92FB11DA35ABE
:100E0000BF4F2C91848D90E001968F739927848F2A
:100E1000A689B7892C93A089B1898C9182748C930F
:100E2000938D848D981306C00288F389E02D80810C
:100E30008F7D80830895EF92FF920F931F93CF933E
:100E4000DF93EC0181E0888F9B8D8C8D981319C006
:100E5000E889F989808185FF14C09FB7F894EE89ED
:100E6000FF896083E889F9898081827480839FBFCC
:100E700081E090E0DF91CF911F910F91FF90EF9073
:100E80000895F62E0B8D10E00F5F1F4F0F73112783
:100E9000E02E8C8D8E110CC00FB607FCFACFE889BE
:100EA000F989808185FFF5CFCE010E94FA06F1CF46
:100EB000EB8DEC0FFD2FF11DE35AFF4FF0829FB732
:100EC000F8940B8FEA89FB8980818062CFCFCF9322
:100ED000DF93EC01888D8823B9F0AA89BB89E88962
:100EE000F9898C9185FD03C0808186FD0DC00FB608
:100EF00007FCF7CF8C9185FFF2CF808185FFEDCF86
:100F0000CE010E94FA06E9CFDF91CF9108958F922A
:100F10009F92AF92BF92CF92DF92EF92FF920F9388
:100F20001F93CF93DF936C017B018A018091230192
:100F3000882309F45CC080919B07882309F457C07B
:100F40008091890680FF05C08091E00082608093D7
:100F5000E000E801B12C8AEFA82E93E0892E2AE365
:100F6000922E209711F4BB20D9F10E946D038111BC
:100F70000AC0AA94AA20D9F161E070E080E090E074
:100F80000E949604EECF8C171D0611F00CF08C2FEA
:100F90009FB7F8948092E9002091E80025FD02C0F7
:100FA0009FBFDFCF282F30E0C21BD30BF70181504A
:100FB00020F041914093F100FACFE20EF31EBB20E6
:100FC00021F09092E800B12CEBCF8091E80085FDF4
:100FD000E7CF9092E800BB24B394209709F3F3CFB6
:100FE0005D9884E680938806101611063CF081E037
:100FF00090E0F6019383828310E000E0C801DF9166
:10100000CF911F910F91FF90EF90DF90CF90BF9005
:10101000AF909F908F900895CF93DF931F92CDB79D
:10102000DEB76983DC01ED91FC910280F381E02D54
:1010300041E050E0BE016F5F7F4F09950F90DF9157
:10104000CF91089583E08093E9008091F200882396
:1010500019F08AE38093E80008950E946D0390E000
:101060000895CF93DF931F92CDB7DEB7FC0184853F
:10107000958597FD08C02FEF3FEF358724870F90A8
:10108000DF91CF910895CE0101960E94430301970D
:1010900019F4898190E0F3CF8FEF9FEFF0CF0F939A
:1010A0001F93CF93DF931F92CDB7DEB78C01FC0166
:1010B0008485958597FF0BC0CE0101960E9443035E
:1010C000019771F4898190E0F80195878487F80190
:1010D000848595850F90DF91CF911F910F91089591
:1010E0008FEF9FEFF1CFFC018485958597FD0BC0B5
:1010F0009FB7F89482E08093E9008091F2009FBF4F
:1011000090E0019608959FB7F89482E08093E900FB
:101110008091F2009FBF90E00895DC015196ED911F
:10112000FC915297908150968C9180958923808371
:10113000089520918D0630918E062817390781F485
:1011400090918B0680918C06981751F0E0918B0658
:10115000F0E0ED5BF94F8081082E000C990B0895AB
:101160008FEF9FEF089520918D0630918E062817FE
:10117000390739F48FB7F89410928C0610928B06C9
:101180008FBF089520918D0630918E06281739075C
:1011900071F480918C0620918B0690E0805C9F4FCB
:1011A000821B910960E470E00E94D733089590E0BB
:1011B00080E0089520918D0630918E06281739071A
:1011C000B9F490918B0680918C06981789F0E09184
:1011D0008B06F0E0ED5BF94F808120918B0630E0CB
:1011E0002F5F3F4F2F73332720938B0690E0089596
:1011F0008FEF9FEF089520E001972FEF8F3F920729
:10120000D9F70895EF92FF920F931F93CF93DF9337
:10121000C0918D06D0918E06209749F0EE85FF850E
:101220009D858B8D81FF0AC08081892351F4DF91D8
:10123000CF911F910F91FF90EF90089580818923A6
:10124000B1F78B899C890E94FB0888E0E82EF12C7D
:1012500010E001E08D899E890E94FB08EE85FF85E4
:1012600080819D85892339F1102B000F81E0E81AD8
:10127000F10881F78F89988D0E94FB088B8D81FD85
:10128000109580918C0620918B0690E001968F73CB
:1012900099272817190699F0E0918C06F0E0ED5B8C
:1012A000F94F108380918C0690E001968F739927F7
:1012B00080938C06BCCF802F80951823D6CF8B8D42
:1012C00081608B8FB4CF90E080E00895BC0186E010
:1012D0000C94E304BC0183E00C94E30470E060E050
:1012E0000C94E3048F929F92AF92BF92CF92DF92C1
:1012F000EF92FF926C010E94D7044B015C01F12C2C
:10130000E12C0E94D704681979098A099B096C1598
:101310007D058E059F0540F4E0919106F0919206BF
:10132000309779F30995EDCFFF90EF90DF90CF9054
:10133000BF90AF909F908F900895962728E0AC01C2
:10134000880F991F57FF04C031E2832730E19327AC
:101350002150A9F708950895FC01E55BFF4F9081A6
:10136000492F50E0062E02C0559547950A94E2F7A2
:10137000DA01A170BB2740FF09C021E030E001C0C5
:10138000220F6A95EAF72095292320838A2F089552
:101390006150603140F5FC0124812F7059F02530F7
:1013A00010F570E0660F771F680F791FFB0181A5AC
:1013B00092A5089570E0660F771F680F791FFB01F3
:1013C00021A532A5A0E0B5E00E948C312FEF37E0D7
:1013D00040E050E00E940931DA01C90180599C4F78
:1013E000AF4FBF4F08958CED95E008950C94C80958
:1013F000BF92CF92DF92EF92FF920F931F93CF9302
:10140000DF930E9471046B017C01C0919C07D09115
:101410009D0701E010E0BB24BA94209709F459C05D
:101420008D8183708130D1F52091BC06422F50E030
:101430008C81843048F48823C1F1813099F1823065
:10144000B9F522E030E01AC098EF980F682F645089
:10145000770B943058F08E3029F18F3091F3803132
:1014600021F1813129F1682F6651770B9B01B80179
:1014700002C0660F771F2A95E2F79B0124233523CC
:10148000232B61F00E94DE039D8192FB992790F946
:10149000981789F0CA86DB86EC86FD860A80DB8198
:1014A000C02DBBCF28E030E0E9CF24E030E0E6CF2C
:1014B00021E030E0E3CF8A859B85AC85BD85960130
:1014C000281B390B3F872E87B88A0E94D704698B67
:1014D000E5CFDF91CF911F910F91FF90EF90DF90BB
:1014E000CF90BF900895BF92CF92DF92EF92FF927C
:1014F0000F931F93CF93DF930E9471046B017C01C4
:10150000C0919C07D0919D07BB24BA9401E010E0E4
:10151000209709F458C08D818370D1F52091B006D1
:10152000422F50E08C81843048F48823C1F181300F
:1015300099F18230B9F522E030E01AC098EF980FA7
:10154000682F6450770B943058F08E3029F18F302B
:1015500091F3803121F1813129F1682F6651770BA8
:101560009B01B80102C0660F771F2A95E2F79B0125
:1015700024233523232B61F00E94DE039D8192FBFF
:10158000992790F9981789F0CA86DB86EC86FD8644
:101590000A80DB81C02DBCCF28E030E0E9CF24E019
:1015A00030E0E6CF21E030E0E3CF8A859B85AC8553
:1015B000BD859601281B390B3F872E87B88A0E946C
:1015C000D704698BE5CFDF91CF911F910F91FF90E9
:1015D000EF90DF90CF90BF900895FC0186859785AE
:1015E0002685378582179307C9F70895FC018089FE
:1015F00090E0062E02C0959587950A94E2F780FF49
:101600001CC0208981E090E001C0880F6A95EAF74C
:1016100080958223808B2685378586859785281738
:101620003907C9F7868197812817390730F081E09B
:10163000408551854217530708F480E008950C94C3
:10164000F60AE091BF063CE0E39FF0011124E95562
:10165000F94F218580919306843008F059C080911C
:101660009306882309F486C080919306813009F49B
:101670007BC080919306823009F479C080919306F3
:10168000833009F47AC080919306873009F469C0E9
:1016900090E080E0E091BF064CE0E49FF00111246F
:1016A000E955F94F3385232330E082239323892B97
:1016B00009F483C00E9471042091350630913606EA
:1016C000AB01421B530B9A017093360660933506AB
:1016D000283B5BE0350708F45EC020919406209318
:1016E000D906109294062FEF2093DA063091340633
:1016F000209134062E7F30FF216020933406209104
:10170000340620FF3DC0709333066093320608957F
:1017100080919306883080F0809193068C3060F43D
:10172000409193064450550B81E090E002C0880F31
:10173000991F4A95E2F7AECF809193068E30A1F0C3
:10174000809193068F3099F080919306803191F0CB
:1017500080919306813189F0409193064651550B53
:10176000E3CF80E190E096CF88E090E093CF82E0F5
:1017700090E090CF84E090E08DCF81E090E08ACF40
:101780002091320630913306621B730B7093310641
:1017900060933006089580919406893070F4E0914A
:1017A0009406F0E0EE0FFF1FEB56F94F31832083D4
:1017B000809194068F5F8093940608952091DA06B5
:1017C00030E0062E02C0359527950A94E2F7C9014C
:1017D0008170992720FF0CC04091DA0621E030E0AB
:1017E00001C0220F6A95EAF7209524232093DA0698
:1017F0000895882399F09091D906981778F0815030
:10180000E82FF0E0EE0FFF1FEB56F94F808191813A
:101810002081318182179307C9F708958CED95E0F7
:101820000895862F0C94F90B89B18F70E7EAF6E0E2
:10183000878B868997898927858B8789868B0288FC
:10184000F389E02D099489B18F70E7EAF6E0878B80
:10185000868997898927858B8789868B0088F18976
:10186000E02D099489B18F70E7EAF6E0878B8689CD
:1018700097898927858B8789868B0684F785E02D54
:10188000099489B18F70E7EAF6E0878B868997899A
:101890008927858B8789868B0484F585E02D0994BB
:1018A000843088F49DB3882341F0813041F0823048
:1018B00041F08EEF89238DBB08958BEFFBCF87EF2F
:1018C000F9CF8DEFF7CF48EF480F443040F092EF5B
:1018D000980F943020F096EE980F933068F5909121
:1018E0006B00282F2450330B443078F027EF8E30D4
:1018F000A1F02DEF8F3089F02BEF803171F02EEFBA
:10190000813159F0282F2651330BB90121E030E005
:1019100001C0220F6A95EAF720952923443048F048
:1019200092EF980F943028F08A51F0E0E0E0833095
:1019300010F4EBE6F0E020830895843088F49DB342
:10194000882341F0813041F0823041F081E0892BE1
:101950008DBB089584E0FBCF88E0F9CF82E0F7CF1C
:1019600028EF280F243040F092EF980F943020F0A9
:1019700096EE980F9330D0F590916800243050F097
:1019800032EF380F343030F036EE380FF0E0E0E070
:10199000333010F4E8E6F0E091609083243050F0AA
:1019A00092EF980F943030F096EE980FF0E0E0E070
:1019B000933010F4EBE6F0E030812430C0F491E095
:1019C000682F6450770B01C0990F6A95EAF7932B43
:1019D000243048F022EF280F243028F08A51F0E01C
:1019E000E0E0833010F4EBE6F0E09083089598E0B7
:1019F0008E3069F392E08F3051F394E0803139F307
:101A000091E0813121F3682F6651770BDCCFCF93C2
:101A1000DF93982F28EF280F81E0243008F480E02E
:101A2000282F30E09430A0F59230D1F49CE0929FC2
:101A3000F001939FF00D1124E955F94F73836283F0
:101A400022E33CE030930701209306019091690066
:101A5000937F946090936900E99ADF91CF91089504
:101A60009CE0929FF001939FF00D1124E955F94FEE
:101A70007183608321E43CE03093050120930401ED
:101A8000909169009C7F916090936900E89AE5CFFE
:101A900050E040E096E0929FE001939FD00D11242A
:101AA000DE01A40FB51FAA0FBB1FA955B94FED91B9
:101AB000FC91E617F70789F24F5F5F4F44305105FD
:101AC00079F79CE0929FD001939FB00D1124A95506
:101AD000B94F18969C911897943010F08FEFBDCFA6
:101AE0001896EC911897EC0FFD2FF11DEE0FFF1FCC
:101AF000E955F94F7183608318969C9118979F5F01
:101B000018969C93AACF1F93CF93DF93EC01162FC7
:101B100098EF960F8D818C7F943088F181608D8352
:101B200068EF79E0812F0E94070D982F93708D81C7
:101B30008C7F892B8D831C8388E592E09F838E8325
:101B400080E699E09987888780919C0790919D070E
:101B50009B838A83D0939D07C0939C0760E0812F6D
:101B60000E94350461E08C810E9407048C810E94F0
:101B70009D0C8D818370DF91CF911F9108958D838E
:101B800063E77AE0CFCFDF92EF92FF920F931F933C
:101B9000CF93DF93EC01898D9A8D892B71F481E0CD
:101BA00090E09B838A8390E080E0DF91CF911F914A
:101BB0000F91FF90EF90DF900895162FDFB6F89405
:101BC0008B8D81FD28C0CE010E948D08898D9A8D54
:101BD0000E94FB088B8D98E0E92EF12C01E081FF3B
:101BE00028C0812F8023F1F0CE010E948D08898DBD
:101BF0009A8D0E94FB08000F81E0E81AF10889F72E
:101C0000CE010E948D08DFBE898D9A8D0E94FB084F
:101C100081E090E0CACFE989FA8980819889892B8F
:101C20008083D4CFE989FA8980819889892B808340
:101C3000DECF812F8023B1F0E989FA8980819889EC
:101C4000892B8083898D9A8D0E94FB08000F81E08B
:101C5000E81AF10871F7E989FA8980819889892B56
:101C60008083D1CFCE010E948D08ECCF0F931F93BC
:101C7000CF93DF9304EA17E0D0E0C0E0CE010E94EA
:101C8000F330F80181938F012196C131D105B1F76D
:101C900084EA97E0DF91CF911F910F910895FF9211
:101CA0000F931F93CF93DF9304EA17E0D0E0C0E0D7
:101CB000F801F1908F01CE010E94F330F81621F067
:101CC0006F2DCE010E94FB302196C131D10581F7E5
:101CD00084EA97E0DF91CF911F910F91FF900895D3
:101CE000FB0101900020E9F73197AF01461B570B2C
:101CF000DC01ED91FC910280F381E02D09948F923B
:101D00009F92AF92BF92EF92FF920F931F93CF9348
:101D1000DF93CDB7DEB7A1970FB6F894DEBF0FBE45
:101D2000CDBF7C01FA01CB0119A2223008F42AE0D0
:101D30008E010F5D1F4F822E912CB12CA12CBF0163
:101D4000A50194010E946A31F901CA016A300CF5BB
:101D5000605DD8016E938D01232B242B252B79F701
:101D600090E080E0109721F0BD01C7010E94700E45
:101D7000A1960FB6F894DEBF0FBECDBFDF91CF9115
:101D80001F910F91FF90EF90BF90AF909F908F9019
:101D90000895695CDECFAC0170E060E02AE082E586
:101DA00098E00C947F0ECF92DF92EF92FF920F9308
:101DB0001F93CF93DF936B01770FEE08FF084A3034
:101DC000510511F52AE0F7FE20C0EC01E881F98108
:101DD0000190F081E02D6DE209958C014427552793
:101DE000BA014C195D096E097F092AE0CE010E94F3
:101DF0007F0E800F911FDF91CF911F910F91FF9068
:101E0000EF90DF90CF900895242FB701A601DF91C6
:101E1000CF911F910F91FF90EF90DF90CF900C9496
:101E20007F0ECF92DF92EF92FF920F931F93CF938B
:101E3000DF93C82FD62F10E000E0E82EF12C87E0CA
:101E4000C82ED12C8091DE06882389F0C601801B24
:101E5000910BB70102C0759567958A95E2F761709D
:101E600077274AE050E082E598E00E94D30E0330E5
:101E700011F4D11105C00F5F1F4F0830110511F784
:101E8000C83091F148F4C23049F1C43051F1C13049
:101E900051F481E090E01FC0C03249F1B0F485E018
:101EA00090E0C031C1F08091B207823031F5C111AC
:101EB00024C080E190E0DF91CF911F910F91FF90BE
:101EC000EF90DF90CF900C946A09C03499F088E0CD
:101ED00090E0C03841F70E946A09E5CF82E090E0C7
:101EE000FACF83E090E0F7CF84E090E0F4CF86E093
:101EF00090E0F1CF87E090E0EECFDF91CF911F919E
:101F00000F91FF90EF90DF90CF900895DF92EF92C6
:101F1000FF920F931F93CF93DF938C01D62ED42F74
:101F20007C01C0E0CD1581F0CC2331F069E772E08F
:101F300082E598E00E94580660E0F70181917F01F8
:101F40000E94110FCF5FEECFDD23B1F0CC2331F033
:101F500067E772E082E598E00E945806C00FD12F33
:101F6000D11D61E08881DF91CF911F910F91FF908A
:101F7000EF90DF900C94110FDF91CF911F910F9193
:101F8000FF90EF90DF900895009729F0BC0182E563
:101F900098E00C94700E90E080E0089589E98093B9
:101FA000A40785E08093A50786E08093A70787E0D4
:101FB0008093A60788E08093A80789E08093A9070B
:101FC0008AE08093AA078CED95E09093AC0780930C
:101FD000AB0788EE93E09093B0078093AF0780ED56
:101FE00097E09093AE078093AD0781E08093B107AF
:101FF0001092B2078093B3071092B40783E00E9457
:1020000031050E94C8048823B9F084E791E09F93CA
:102010008F931F9284E68F9384E097E09F938F9332
:102020000E94452E84E097E00E94C40F0F900F900D
:102030000F900F900F900F900C944F0E0E94360E41
:102040008091A407893949F00E94CE0F64EF71E0B6
:1020500080E090E00E949604F1CF0E94C80488239B
:1020600021F088EB95E00E94C40F0E94C8048823E9
:1020700021F08BEE93E00E94C40F0E94C8048823D5
:1020800021F087EA91E00E94C40F0E94C8048823CF
:1020900021F08BEE93E00E94C40F0E94C8048823B5
:1020A00061F0E091B107E150FF0BEE0FFF1FE85C1C
:1020B000FE4F808191810E94C40F0E94C804882332
:1020C00021F088EB95E00E94C40F8091B20788232D
:1020D00009F47EC10E94C804882349F1E091B30746
:1020E000E150FF0BEE0FFF1FEC5DFE4F81818F93E0
:1020F00080818F938091B2071F928F938BE591E03F
:102100009F938F931F9284E68F9384E097E09F9331
:102110008F930E94452E84E097E00E94C40F8DB7F4
:102120009EB70A960FB6F8949EBF0FBE8DBF0E9451
:10213000C804882321F1E091B407F0E0EE0FFF1FFF
:10214000E45DFE4F81818F9380818F938CE391E0DA
:102150009F938F931F9284E68F9384E097E09F93E1
:102160008F930E94452E84E097E00E94C40F8DB7A4
:102170009EB708960FB6F8949EBF0FBE8DBF0E9403
:10218000C8048823E9F08091AA071F928F938CE2FC
:1021900091E09F938F931F9284E68F9384E097E062
:1021A0009F938F930E94452E84E097E00E94C40F76
:1021B0008DB79EB708960FB6F8949EBF0FBE8DBF21
:1021C0008091B207882309F420C18091B30783303E
:1021D00009F01BC10E94C804882321F083EC91E020
:1021E0000E94C40F0E94C8048823E9F08091A707C9
:1021F0001F928F938CE091E09F938F931F9284E6C0
:102200008F9384E097E09F938F930E94452E84E004
:1022100097E00E94C40F8DB79EB708960FB6F8944A
:102220009EBF0FBE8DBF0E94C8048823E9F0809135
:10223000A6071F928F938CEF90E09F938F931F922E
:1022400084E68F9384E097E09F938F930E94452EBE
:1022500084E097E00E94C40F8DB79EB708960FB632
:10226000F8949EBF0FBE8DBF0E94C8048823E9F07A
:102270008091A8071F928F938CEE90E09F938F938D
:102280001F9284E68F9384E097E09F938F930E9440
:10229000452E84E097E00E94C40F8DB79EB7089644
:1022A0000FB6F8949EBF0FBE8DBF0E94C80488234E
:1022B000E9F08091A9071F928F938CED90E09F9396
:1022C0008F931F9284E68F9384E097E09F938F9380
:1022D0000E94452E84E097E00E94C40F8DB79EB700
:1022E00008960FB6F8949EBF0FBE8DBF0E94C8041B
:1022F0008823F9F08091AE078F938091AD078F937B
:102300008CEC90E09F938F931F9284E68F9384E0F0
:1023100097E09F938F930E94452E84E097E00E9460
:10232000C40F8DB79EB708960FB6F8949EBF0FBE28
:102330008DBF0E94C8048823F9F08091AC078F9369
:102340008091AB078F938CEB90E09F938F931F92BC
:1023500084E68F9384E097E09F938F930E94452EAD
:1023600084E097E00E94C40F8DB79EB708960FB621
:10237000F8949EBF0FBE8DBF0E94C8048823F9F059
:102380008091B0078F938091AF078F938CEA90E094
:102390009F938F931F9284E68F9384E097E09F939F
:1023A0008F930E94452E84E097E00E94C40F8DB762
:1023B0009EB708960FB6F8949EBF0FBE8DBF0E94C1
:1023C000C804882309F444C088EB95E00C94C40F3A
:1023D0000E94C804882309F4AACE8BE491E09F935D
:1023E0008F931F9284E68F9384E097E09F938F935F
:1023F0000E94452E84E097E00E94C40F0F900F903A
:102400000F900F900F900F9092CE0E94C8048823D7
:1024100009F4E8CE8091A5071F928F938CE191E09B
:102420009F938F931F9284E68F9384E097E09F930E
:102430008F930E94452E84E097E00E94C40F8DB7D1
:102440009EB708960FB6F8949EBF0FBE8DBFCACE3A
:10245000089568EB75E00C94700E0F931F93CF9363
:10246000DF93EC01242F462F50E070E060E00E94E3
:102470007F0E8C01CE010E942912800F911FDF91E7
:10248000CF911F910F9108950F931F93CF93DF93D7
:10249000EC010E9458068C01CE010E942912800F87
:1024A000911FDF91CF911F910F9108954F925F92ED
:1024B0006F927F928F929F92AF92BF92CF92DF9254
:1024C000EF92FF920F931F93CF93DF93882E0E947A
:1024D000D7042B013C0180918F06909190060097C4
:1024E00069F060EB72E00E94580640E150E0682D10
:1024F00080918F06909190060E942D12912C91E46C
:10250000A92E96E0B92E0E94D70464197509860990
:102510009709683E73408105910548F11092410684
:102520001092420680918F0690919006009721F0BC
:1025300065E872E00E9444122091410680914206B3
:1025400090E0FFEF2F9F800D911D1124DF91CF911F
:102550001F910F91FF90EF90DF90CF90BF90AF90C1
:102560009F908F907F906F905F904F90089585E03F
:1025700090E00E94720987E3E82E86E0F82EF701CA
:102580001192AE16BF06E1F78091A2079091A307C2
:10259000DC01ED91FC910084F185E02D09950A970D
:1025A0000CF466C0D0E0C0E08091A2079091A30730
:1025B000DC01ED91FC910284F385E02D09958C01FD
:1025C000019609F455C080918F069091900600976E
:1025D00011F161E872E00E9458064AE050E0BE0145
:1025E00080918F06909190060E94D30E6BE772E067
:1025F00080918F06909190060E945806C0908F0699
:10260000D090900640E150E0B801C6010E94D30E80
:10261000C6010E942912F70101937F012196CA3059
:10262000D10511F690903A0620E4921216C08091DE
:102630008F0690919006009709F465CF66E972E0E5
:102640000E9458064AE050E060913D0680918F0656
:10265000909190060E942D1256CF891054CF8091F0
:102660003C068093410680913D06809342065ACFF6
:1026700082E390E00E947209891045CF53CF0F93F7
:102680001F93CF93DF938091C1068D3409F4E8C185
:102690003CF58D3209F44EC36CF4882309F460C113
:1026A0008B3209F436C368EE71E081EC96E00E944B
:1026B000362EC8C1853409F4F2C2883409F450C1F9
:1026C000813489F70E94C804882321F083E394E0D1
:1026D0000E94C40F8091690790E00E946A09B0C10E
:1026E000853509F455C30CF0FAC0823509F4C0C32E
:1026F000833509F4CEC18035B1F68091C2068F339F
:1027000091F68091C006882309F4FCC20E94C80497
:10271000882321F088EB95E00E94C40F0E94C80432
:10272000882321F089EE93E00E94C40F0E94C80420
:10273000882321F087E094E00E94C40F0E94C8041F
:10274000882321F089EE93E00E94C40F82E40E9466
:102750006E090E94C8048823F9F082E490E00E9488
:1027600056129F938F9385ED91E09F938F931F92C5
:1027700084E68F9384E097E09F938F930E94452E89
:1027800084E097E00E94C40F8DB79EB708960FB6FD
:10279000F8949EBF0FBE8DBF83E40E946E090E9415
:1027A000C8048823F9F083E490E00E9456129F93B6
:1027B0008F9382EC91E09F938F931F9284E68F9387
:1027C00084E097E09F938F930E94452E84E097E0EA
:1027D0000E94C40F8DB79EB708960FB6F8949EBF9F
:1027E0000FBE8DBF84E40E946E0984E490E00E94D5
:1027F00056120E94C804882321F1E091B407F0E04A
:10280000EE0FFF1FE45DFE4F81818F9380818F93D8
:1028100081EB91E09F938F931F9284E68F9384E0E6
:1028200097E09F938F930E94452E84E097E00E944B
:10283000C40F8DB79EB708960FB6F8949EBF0FBE13
:102840008DBF88E40E946E090E94C8048823F9F0B5
:1028500088E490E00E9456129F938F938FE991E055
:102860009F938F931F9284E68F9384E097E09F93CA
:102870008F930E94452E84E097E00E94C40F8DB78D
:102880009EB708960FB6F8949EBF0FBE8DBF8CE41E
:102890000E946E090E94C804882309F4D1C08CE408
:1028A00090E00E9456129F938F938BE891E09F9344
:1028B0008F931F9284E68F9384E097E09F938F938A
:1028C0000E94452E84E097E00E94C40F8DB79EB70A
:1028D00008960FB6F8949EBF0FBE8DBFB1C0883565
:1028E00009F437C2893509F465C2863509F0DBCEB3
:1028F0008091C2068D3309F0D6CE83EC96E00E941B
:10290000182E8C018FEF800F8E3108F09BC00E9433
:10291000C804E801DD278823D9F0DF93CF938EE642
:1029200092E09F938F931F9284E68F9384E097E0C9
:102930009F938F930E94452E84E097E00E94C40FDE
:102940008DB79EB708960FB6F8949EBF0FBE8DBF89
:102950000093AA07CE010E9466090E944F0E70C024
:102960000E94C804882321F085ED91E00E94C40FE5
:102970000E94C804882321F080EE91E00E94C40FD9
:102980000E94C804882321F08DEF91E00E94C40FBB
:102990000E94C804882321F080E192E00E94C40FC5
:1029A0000E94C804882321F080E592E00E94C40FB1
:1029B0000E94C804882321F088EA92E00E94C40F94
:1029C0000E94C804882321F087EC92E00E94C40F83
:1029D0000E94C804882321F08AEE92E00E94C40F6E
:1029E0000E94C804882321F084E093E00E94C40F71
:1029F0000E94C804882321F08DE193E00E94C40F57
:102A00000E94C804882321F08DE293E00E94C40F45
:102A10000E94C804882321F083E493E00E94C40F3D
:102A20000E94C804882321F08FE893E00E94C40F1D
:102A30000E94C804882321F088EB95E00E94C40F0F
:102A40001092C20661EC76E082E598E00E94700E7A
:102A500082E598E0DF91CF911F910F910C9429129C
:102A60008091770791E0892780937707882339F051
:102A70000E94C804882321F386EB93E0DFCF0E94F5
:102A8000C804882309F469CF80ED93E00E94C40F45
:102A900064CF8091C2068D3309F0FBC08091C306DC
:102AA000873519F40E94CE0F58CF893489F585EC0B
:102AB00096E00E94182E8093B1070E94C8048823D4
:102AC00009F44BCFE091B107E150FF0BEE0FFF1F70
:102AD000E85CFE4F81818F9380818F938BE592E03C
:102AE0009F938F931F9284E68F9384E097E09F9348
:102AF0008F930E94452E84E097E00E94C40F8DB70B
:102B00009EB708960FB6F8949EBF0FBE8DBF25CF17
:102B1000813371F58091C406803209F01ECF85ECB7
:102B200096E00E94182E8093A5070E94C80488236F
:102B300009F413CF8091A5071F928F938FE492E041
:102B40009F938F931F9284E68F9384E097E09F93E7
:102B50008F930E94452E84E097E00E94C40F8DB7AA
:102B60009EB708960FB6F8949EBF0FBE8DBFF5CEE8
:102B7000823371F58091C406803209F0EECE85EC87
:102B800096E00E94182E8093A7070E94C80488230D
:102B900009F4E3CE8091A7071F928F9382E492E01D
:102BA0009F938F931F9284E68F9384E097E09F9387
:102BB0008F930E94452E84E097E00E94C40F8DB74A
:102BC0009EB708960FB6F8949EBF0FBE8DBFC5CEB8
:102BD000833371F58091C406803209F0BECE85EC56
:102BE00096E00E94182E8093A6070E94C8048823AE
:102BF00009F4B3CE8091A6071F928F9385E392E0EC
:102C00009F938F931F9284E68F9384E097E09F9326
:102C10008F930E94452E84E097E00E94C40F8DB7E9
:102C20009EB708960FB6F8949EBF0FBE8DBF95CE87
:102C3000843309F092CE8091C406803209F08DCEA3
:102C400085EC96E00E94182E8093A8070E94C80485
:102C5000882309F482CE8091A8071F928F9383E284
:102C600092E09F938F931F9284E68F9384E097E086
:102C70009F938F930E94452E84E097E00E94C40F9B
:102C80008DB79EB708960FB6F8949EBF0FBE8DBF46
:102C900064CE8F3309F007CD0E941E10D1CE83EC95
:102CA00096E00E94182E863008F0FDCC8093B40781
:102CB0000E94C804882309F450CEE091B407F0E0E4
:102CC000EE0FFF1FE45DFE4F81818F9380818F9314
:102CD00085E192E09F938F931F9284E68F9384E027
:102CE00097E09F938F930E94452E84E097E00E9487
:102CF000C40F8DB79EB708960FB6F8949EBF0FBE4F
:102D00008DBF2BCE62E072E082E598E00E9458060B
:102D100097CE0E94C804882321F085E294E00E94A7
:102D2000C40F809169078F5F8093690781E00E94DB
:102D30006E0986CE0E94C804882321F08CE294E0BC
:102D40000E94C40F8091690781508093690782E0D7
:102D5000EECF8091010781110BC08EE00E946E09B9
:102D60000E94C804882321F08AE394E00E94C40FE3
:102D700080910107813009F063CE8DE00E946E09D9
:102D80000E94C804882309F45BCE82E494E056CE06
:102D90008091B207882339F08091DE0691E089277F
:102DA0008093DE064DCE80916A0791E0892780935B
:102DB0006A0746CE8091C2068D3309F074CC83EC4D
:102DC00096E00E94182EEC019091C406903299F181
:102DD000C093B20781110DC00E94C804882321F05E
:102DE00089E494E00E94C40F8091B207882309F41B
:102DF000B4CD0E94C804882309F4AFCDDD27DF934A
:102E0000CF938CEE91E09F938F931F9284E68F93E4
:102E100084E097E09F938F930E94452E84E097E093
:102E20000E94C40F8DB79EB708960FB6F8949EBF48
:102E30000FBE8DBF92CD8823C1F0C093B20785EC41
:102E400096E00E94182E8093B3070E94C80488233E
:102E500009F483CDE091B307E150FF0BEE0FFF1FA4
:102E6000EC5DFE4F8081918111CE1092B30775CD3C
:102E70000E94C804882321F087E594E00E94C40FD3
:102E8000D0E0C0E060E0CE010E94FB302196C11589
:102E900084E0D807B9F782E00E9431050E94C80497
:102EA000882309F4CDCD83E694E0C8CD1F920F921C
:102EB0000FB60F9211242F933F938F939F93AF934D
:102EC000BF938091860790918707A0918807B09162
:102ED00089073091850723E0230F2D3758F5019698
:102EE000A11DB11D209385078093860790938707C6
:102EF000A0938807B093890780918A0790918B07E8
:102F0000A0918C07B0918D070196A11DB11D8093F2
:102F10008A0790938B07A0938C07B0938D07BF917E
:102F2000AF919F918F913F912F910F900FBE0F9076
:102F30001F90189526E8230F0296A11DB11DD2CF30
:102F40001F920F920FB60F9211242F933F934F931E
:102F50005F936F937F938F939F93AF93BF93EF9301
:102F6000FF93E0910C01F0910D010995FF91EF9114
:102F7000BF91AF919F918F917F916F915F914F9191
:102F80003F912F910F900FBE0F901F9018951F9299
:102F90000F920FB60F9211242F933F934F935F938D
:102FA0006F937F938F939F93AF93BF93EF93FF9311
:102FB000E0910A01F0910B010995FF91EF91BF910A
:102FC000AF919F918F917F916F915F914F913F91C1
:102FD0002F910F900FBE0F901F9018951F920F9278
:102FE0000FB60F9211242F933F934F935F936F93DC
:102FF0007F938F939F93AF93BF93EF93FF93E09152
:103000000801F09109010995FF91EF91BF91AF91EE
:103010009F918F917F916F915F914F913F912F91F0
:103020000F900FBE0F901F9018951F920F920FB622
:103030000F9211242F933F934F935F936F937F933E
:103040008F939F93AF93BF93EF93FF93E09106010C
:10305000F09107010995FF91EF91BF91AF919F9179
:103060008F917F916F915F914F913F912F910F9031
:103070000FBE0F901F9018951F920F920FB60F92D0
:1030800011242F933F934F935F936F937F938F936D
:103090009F93AF93BF93EF93FF93E0910401F0915F
:1030A00005010995FF91EF91BF91AF919F918F918C
:1030B0007F916F915F914F913F912F910F900FBE34
:1030C0000F901F9018951F920F920FB60F92112418
:1030D0008F939F938091E1009091E100937F909373
:1030E000E10083FF0FC01092E90091E09093EB00A4
:1030F0001092EC0092E39093ED0010929B0798E001
:103100009093F00082FF22C093E09093E9009091A9
:10311000F200992319F09AE39093E80090918806C1
:10312000992341F0909188069150909388069111CF
:1031300001C05D9A90919A07992341F090919A0766
:10314000915090939A07911101C0289A84FF18C05A
:103150008091E2008E7E81608093E2008091E100A8
:103160008F7E8093E100809189068E7E80618093BE
:1031700089069F918F910F900FBE0F901F90189509
:1031800080FFF7CF8091E2008E7E80618093E20025
:103190008091E1008E7E8093E100809189068E7E91
:1031A0008160E5CF1F920F920FB60F921124CF923C
:1031B000DF92EF92FF920F931F932F933F934F93C2
:1031C0005F936F937F938F939F93AF93BF93EF938F
:1031D000FF93CF93DF93CDB7DEB76C97DEBFCDBF44
:1031E0001092E9008091E80083FF25C068E0CE01DD
:1031F00045960E944B0682EF8093E8008D8987FFF9
:1032000039C09091E80090FFFCCF982F907609F09C
:1032100034C19E894F89588D2F89F88C911131C006
:10322000803861F580918A068093F1001092F10058
:103230008EEF8093E8006C960FB6F894DEBF0FBE59
:10324000CDBFDF91CF91FF91EF91BF91AF919F9152
:103250008F917F916F915F914F913F912F911F912E
:103260000F91FF90EF90DF90CF900F900FBE0F90D7
:103270001F9018959EEF9093E800C7CF1092F10031
:10328000D5CF913059F48111D3CF4130510581F61A
:1032900080918A068D7F80938A06CACF933049F445
:1032A0008111C6CF4130510519F680918A0682609E
:1032B000F2CF953041F48091E80080FFFCCF206888
:1032C0002093E300B5CF963009F0A9C00B8D1C8D7B
:1032D00022E01092E9001092860610928506F21202
:1032E0002EC010928406109283060E941A061F8236
:1032F00099E09983FA8291E09E8390EA98879AEF09
:1033000099872091850630918606275F3F4F3C8341
:103310002B838D831092E900109286061092850609
:10332000109384060093830649E050E0BE016F5F6E
:103330007F4F80E00E94F4050E941A0679CF109317
:103340008406009383060E947E03DC0112960D9191
:103350001C910115110509F451C1D801ED91FC91A1
:103360000480F581E02DBE016B5E7F4FC801099599
:10337000009709F03EC1F80100851185EACFF3E01E
:10338000FF120EC08F89882309F440C0823061F497
:1033900040E862E186E393E00E94C105811148CFD5
:1033A00081E28093EB0047CF813029F440E868E068
:1033B0008DE293E0F1CF833099F70E947E03DC0128
:1033C0001296ED90FC908E010F5F1F4F6801E11483
:1033D000F10479F0D701ED91FC910680F781E02DA1
:1033E000B801C7010995080F111DF701E084F184A8
:1033F000EECFD8011C92F60101900020E9F7319739
:10340000BF016C197D0940E0C601C6CF67E173E0DA
:10341000FB01449150E080E80E94F40509CF973009
:1034200009F4BECF983021F481E08093F10000CF01
:10343000993009F0FDCE837009F0B2CFE7E4F1E0F6
:1034400081E031E096E32191222371F08093E9003D
:103450003093EB00DF0111972C912093EC009093B7
:10346000ED008F5F873079F78EE78093EA00109246
:10347000EA008F8980939B07DBCE8B8D9C8D109209
:10348000E900109286061092850690938406809338
:103490008306898D811192C08E899D89913A49F464
:1034A000813209F07DCF47E050E06CE171E080E0CF
:1034B000B3CF913209F074CF833269F48F89988D3C
:1034C000B0E0A0E08093000190930101A09302017D
:1034D000B0930301ADCE803269F48091E80082FFA1
:1034E000FCCF67E08CE191E00E944B068BEF80936C
:1034F000E8009ECE823209F09BCE8F898093230113
:10350000EEEFFFE7859194918B3F9C4D51F1E0E008
:10351000F8E080911C0190911D01A0911E01B091D5
:103520001F01803B9440A105B105F1F48091230176
:1035300080FD1AC0EE3F8AE0F80789F587E797E734
:1035400091838083809160008093870688E19BE06F
:103550000FB6F894A895809360000FBE909360001A
:1035600067CEEEEFFAE0D5CF80819181873797471C
:1035700009F05ECEA895809160008861809360001C
:103580008091870680936000EE3F2AE0F20789F081
:103590008091FE0A9091FF0A9183808349CE8081B9
:1035A00091818737980751F29093FF0A8093FE0A22
:1035B000C5CF1092FF0A1092FE0A3ACE0E947E03F7
:1035C000DC0112960D911C910115110509F4E8CE4C
:1035D000D801ED91FC910190F081E02DBE016B5E70
:1035E0007F4FC8010995811123CEF801008511850F
:1035F000EBCF181619060CF41BCED2CEF1E0FF1259
:10360000BECE6BE173E004CF1F920F920FB60F9204
:1036100011242F933F934F935F936F937F938F93D7
:103620009F93AF93BF93EF93FF9385EB97E00E9437
:10363000FA06FF91EF91BF91AF919F918F917F918A
:103640006F915F914F913F912F910F900FBE0F900F
:103650001F9018951F920F920FB60F9211242F935F
:103660008F939F93EF93FF93E091C507F091C60767
:103670008081E091CB07F091CC0782FD1BC0908147
:103680008091CE078F5F8F732091CF07821741F013
:10369000E091CE07F0E0EB54F84F958F8093CE0782
:1036A000FF91EF919F918F912F910F900FBE0F90EF
:1036B0001F9018958081F4CF1F920F920FB60F9232
:1036C00011242F933F934F935F936F937F938F9327
:1036D0009F93AF93BF93CF93EF93FF9383B1909159
:1036E0006B0089238093B2068091B1069091B20657
:1036F00089278093B0068091B2068093B106C0E01E
:103700008091AF06C81760F4EC2FF0E0EE0FFF1FBA
:10371000E955F94F0190F081E02D0995CF5FF0CF89
:10372000FF91EF91CF91BF91AF919F918F917F9139
:103730006F915F914F913F912F910F900FBE0F901E
:103740001F901895CF92DF92EF92FF921092B807D8
:103750001092B70728EEC22E23E0D22EE12CF12CD6
:10376000C092B907D092BA07E092BB07F092BC07AB
:1037700087E591E09093B6078093B5078DEC90E0D4
:103780009093C2078093C1078CEC90E09093C4079C
:103790008093C30788EC90E09093C6078093C50799
:1037A00089EC90E09093C8078093C7078AEC90E07B
:1037B0009093CA078093C9078EEC90E09093CC0752
:1037C0008093CB071092CE071092CF071092D007AC
:1037D0001092D1071092550810925408C0925608C2
:1037E000D0925708E0925808F092590889E691E083
:1037F00090935308809352088FEF9FEF90935F0848
:1038000080935E088BE791E09093A3088093A208D1
:103810001092A5081092A4081092A8081092AA0865
:103820001092ED08EBECF8E080E2DF011D928A9542
:10383000E9F781EA91E0909365098093640920910A
:1038400069092B7F2093690990935309809352094A
:10385000209157092B7F209357099093410980931A
:103860004009209145092B7F2093450990932F090A
:1038700080932E09209133092B7F20933309909355
:103880001D0980931C09809121098B7F8093210958
:1038900087E991E090931B0980931A090E94D7044D
:1038A000609316097093170980931809909319096A
:1038B0001092FD081092FC08C092FE08D092FF08FA
:1038C000E0920009F092010985E891E09093FB08ED
:1038D0008093FA0810920E0910920D0910921009A7
:1038E00010920F09109212091092110910921409E6
:1038F00010921309809115098E7F8D7F8093150991
:1039000060E08AE00E9435048091150981FD04C0C1
:1039100061E08AE00E9407048AE080930609E3E8F8
:10392000F5E0849180930709E4E6F5E0E491F0E0A6
:10393000EE0FFF1FE45BFA4F259134913093090994
:1039400020930809E9E8F5E0E491E0930A09E81713
:1039500041F061E080E10E94350461E080E10E9475
:103960000704EAE6F5E0E491F0E0EE0FFF1FE25C09
:10397000FA4F8591949190930C0980930B0962E022
:1039800079E08AE00E94070D0E94D7048091F70831
:1039900022EA38E03093F0082093EF0890E2909309
:1039A000EE081092F6089091F8082091F908207F0F
:1039B00029602093F90880719C7792609093F808B1
:1039C00080628F7E8093F7081092F2081092F308BD
:1039D000FF90EF90DF90CF900895CF93DF9300D0CA
:1039E00000D0CDB7DEB7789484B5826084BD84B54D
:1039F000816084BD85B5826085BD85B5816085BDEA
:103A000080916E00816080936E00109281008091A1
:103A10008100826080938100809181008160809329
:103A2000810080918000816080938000809191006E
:103A300082608093910080919100816080939100D9
:103A4000809190008160809390008091C10084609B
:103A50008093C1008091C10082608093C1008091F9
:103A6000C10081608093C1008091C3008160809318
:103A7000C3008091C00082608093C0008091C2002A
:103A800081608093C20080917A00846080937A0084
:103A900080917A00826080937A0080917A008160C0
:103AA00080937A0080917A00806880937A001092E7
:103AB0009B0710928A06109289068091D700816038
:103AC0008093D70080EA8093D80089B5806189BD52
:103AD00089B5826089BD09B400FEFDCF61E070E068
:103AE00080E090E00E9496048091D8008F7C8061F5
:103AF0008093D8008091E000807F8093E0008091E7
:103B0000E1008E7E8093E1008DE08093E200559A83
:103B1000209A6DB67EB660E084E00E94350461E0D4
:103B200085E00E94350461E085E00E9407040E9460
:103B3000360E35E5E32E31E0F32E0DE411E062E0C0
:103B4000D8018D918D010E943504E016F106B9F778
:103B5000109214091092130910921209109211096F
:103B60001092100910920F0910920E0910920D096F
:103B700090E080E0FC01E75BFC4F45915591659139
:103B80007491403855426105710509F058C1FC0136
:103B9000E35BFC4F2591349130930E0920930D097E
:103BA000FC01E15BFC4F2591349130931009209387
:103BB0000F09FC01EF5AFC4F259134913093120903
:103BC00020931109FC01ED5AFC4F8591949190933B
:103BD0001409809313098091110990911209892B7E
:103BE00009F454C08091060928EF280F243048F0CA
:103BF00092EF980F943028F096EE980F933008F0DB
:103C00003FC090916800243048F022EF280F243004
:103C100028F08A51F0E0E0E0833010F4E8E6F0E0CC
:103C2000916090839091060938EF390F343050F04D
:103C300082EF890F843030F086EE890FF0E0E0E00B
:103C4000833010F4EBE6F0E02081343008F0FDC062
:103C500081E0E92FE450FF0BAF0101C0880F4A95C6
:103C6000EAF7822B343048F022EF290F243028F075
:103C70009A51F0E0E0E0933010F4EBE6F0E080835E
:103C800080911309909114090E94FB0880918D0680
:103C900090918E068A5F984091F0809115098E7FF1
:103CA000809315098FB7F89410928C0610928B06AA
:103CB0002AEF38E030938E0620938D068FBF8FEF6A
:103CC0009FEF90935F0880935E0868EE73E080E05A
:103CD00090E00E94960480916A07882331F082E583
:103CE00098E09093900680938F060E94C8048823E2
:103CF00021F089E794E00E94C40F8AEF98E0909346
:103D0000A3078093A207109292061092910662E098
:103D100070E089E00E94E30470E060E087E00E94C8
:103D2000E3048091AA0790E00E94660964EF71E0C5
:103D300080E090E00E9496048091AA0790E00E94A3
:103D4000660964EF71E080E090E00E94960483E4ED
:103D50000E946E0983E490E00E945612809302074D
:103D600088E40E946E0988E490E00E9456128FE475
:103D70000E946E098FE490E00E9456128C0187E940
:103D800094E00E94C40F4AE050E0602F82E598E082
:103D90000E942D121127C801880F991FADB7BEB719
:103DA000A81BB90B0FB6F894BEBF0FBEADBF1196DE
:103DB000EDB7FEB71282118213961C921E921297D3
:103DC0003596C801039797FF55C07D01D12CC12CB2
:103DD0000C151D0509F452C05601FFEFAF1ABF0ABA
:103DE000B5018EE40E94E3048EE490E00E94561236
:103DF0004C01D7018D939D937D0181EA94E00E944F
:103E0000C40F4AE050E0B40182E598E00E94D30E6E
:103E100087EA94E00E94C40F4AE050E0B60182E5D0
:103E200098E00E94D30E6BEB74E082E598E00E946C
:103E3000700E82E598E00E9429126501C9CF0C96A8
:103E40008039910509F096CEC6CE88E09E3009F4FF
:103E500008CF82E09F3009F404CF84E0903109F468
:103E600000CF81E0913109F4FCCE692F6651770BC8
:103E7000AB01F3CE119211920197A5CF81E080930F
:103E8000C00660E085E00E94070482E598E00E9499
:103E900029126BEF73E082E598E00E9444126AEE0B
:103EA00073E082E598E00E94441262EE73E082E5DE
:103EB00098E00E9458064AE050E061E070E082E538
:103EC00098E00E94D30E60EE73E082E598E00E94D5
:103ED00058064AE050E061E070E082E598E00E9418
:103EE000D30E69ED73E082E598E00E94441282E50A
:103EF00098E00E94291280910207882309F4A9C240
:103F00000E94C804882321F08DEB94E00E94C40F26
:103F10000E94C804882321F084EF94E00E94C40F1B
:103F20000E94C804882321F084E195E00E94C40F18
:103F30000E941E108091B2078823A9F09091B307C8
:103F4000923009F4A3C208F08CC2913009F496C2F1
:103F50009091B107913009F4A2C2923009F4ECC2F9
:103F6000933009F46CC38091B1078130C9F462E0E9
:103F700084E699E00E94830D63E082E599E00E9467
:103F8000830D69E080E499E00E94830D67E08EE292
:103F900099E00E94830D68E08CE199E00E94830D16
:103FA0008091B1078230D1F583B190916B00892364
:103FB0008093B2068091B2068093B10689B18F706A
:103FC0008093BE068091BE068093BD0661E27BE0D1
:103FD00082E00E94070D8093BF068091BF0687FD97
:103FE0001DC090E080E02CED35E0FC01EE0FFF1FDE
:103FF000EB56F94F31832083019689309105A9F75B
:104000008AE0809394061092D9061092DA0682E034
:1040100080939306809193060E949D0C8091B10736
:10402000833091F44EE260EA76E881E090E00E940D
:10403000F80285EB97E09093A5088093A4088091FF
:10404000A608807F8093A6088091B107843099F4F8
:1040500046E060E072EC81E090E00E94F80285EBBF
:1040600097E09093A5088093A4088091A608807F8C
:1040700083608093A6088091B107853099F446E06B
:1040800060E072EC81E090E00E94F80285EB97E03E
:104090009093A5088093A4088091A608807F8260F1
:1040A0008093A6088091B107863099F446E068E4D1
:1040B00078EE81E090E00E94F80285EB97E0909323
:1040C000A5088093A4088091A608807F84608093CF
:1040D000A6088091B107873099F446E060E072EC61
:1040E00081E090E00E94F80285EB97E09093A508AC
:1040F0008093A4088091A608807F81608093A608A1
:1041000081E0809369070FB6F8947EBE0FBE6DBE46
:10411000F4E0EF2EF7E0FF2E82E598E00E947308AE
:1041200018161906ACF482E598E00E9431089091C7
:10413000D806883009F486C28D3009F08AC2E92F8A
:10414000F0E0EF53F94F10821092D80697FF8DC21E
:104150001091B107113009F0BCC067E084E699E026
:104160000E94F60A882309F483C2109384072091E1
:10417000820730918307C901880F991F820F931F0F
:10418000209172093091730940917209509173091D
:1041900024173507A9F7820F931F96958795969553
:1041A0008795909383078093820767E082E599E083
:1041B0000E94F60A8823F1F0209180073091810750
:1041C000C901880F991F820F931F209160093091B8
:1041D0006109409160095091610924173507A9F7D9
:1041E000820F931F96958795969587959093810753
:1041F0008093800767E080E499E00E94F60A8823B4
:10420000F1F020917E0730917F07C901880F991F37
:10421000820F931F20914E0930914F0940914E0912
:1042200050914F0924173507A9F7820F931F9695D0
:1042300087959695879590937F0780937E0767E093
:104240008EE299E00E94F60A8823F1F020917C0723
:1042500030917D07C901880F991F820F931F20910C
:104260003C0930913D0940913C0950913D0924178A
:104270003507A9F7820F931F969587959695879591
:1042800090937D0780937C0767E08CE199E00E9422
:10429000F60A8823F1F020917A0730917B07C90153
:1042A000880F991F820F931F20912A0930912B09A3
:1042B00040912A0950912B0924173507A9F7820F3D
:1042C000931F969587959695879590937B078093F6
:1042D0007A078091B107823009F03FC08091D906FA
:1042E000882309F4C8C18091DA0690E0880F892FED
:1042F000881F990B892B09F4BEC18091DA068F774C
:104300008093DA0681E0809384078091A5070E945C
:10431000F90B90938307809382078091A6070E94F0
:10432000F90B90938107809380078091A7070E94E3
:10433000F90B90937F0780937E078091A8070E94D6
:10434000F90B90937D0780937C078091A9070E94C9
:10435000F90B90937B0780937A078091B107835084
:10436000853008F0BDC58091A4089091A508892BDF
:1043700009F4FCC10E94D7048091A708681B770B41
:104380006430710594F00E94D7046093A70880916F
:10439000A6088F70823009F481C108F06FC18823AC
:1043A00009F473C1813009F477C117E1C12E06E128
:1043B000D02E85E1B82E94E1A92E23E1922E32E190
:1043C000832E41E1742E5FE0652E6EE0562E7DE077
:1043D000472E8091A4089091A508DC01ED91FC91F5
:1043E0000084F185E02D0995181619060CF0BEC160
:1043F0000E94D7046093A7088091A4089091A50813
:10440000DC01ED91FC910284F385E02D0995182FD4
:10441000E091A808E150E731E0F6F0E0EE5EFD4DF6
:104420000C94EB33552360236F23D424EC240C2508
:10443000522560257B259125B325FC2508261A26C3
:104440003A2672267E268F269D26AB26BC26D526AA
:10445000F6260E94C804882309F45ACD88ED94E01A
:1044600055CD9330A9F0943009F072CD1092DB064F
:1044700091E09093DC069093DD066ACD98E09093EE
:10448000DB061092DC061092DD0662CD90E1F7CFDC
:1044900098E09093DB0691E09093DC06F4CF1FB791
:1044A000809168090E94500CF894E0919C07F0916B
:1044B0009D07B9E0E436FB0781F58091660990918C
:1044C000670990939D0780939C071FBF8091B20757
:1044D00024E639E03093F0082093EF088F71806272
:1044E0008093EE081092F6088091F7089091F808F2
:1044F0002091F908207F29602093F90883719C7727
:1045000092609093F80880628F7E8093F7081092F3
:10451000F2081092F30827CDFC013097B1F28281A6
:10452000938129E084369207B9F7809166099091CA
:10453000670993838283C9CF809193060E94500CB0
:104540008AE0809394069091930688EF890F8430D7
:1045500068F081E022EF290F243008F480E09430E5
:1045600030F48091B2072AE139E0B4CF80E020E056
:1045700090E03CE0389FD001399FB00D1124A15547
:10458000B94F36E0389FB001399F700D1124422F8A
:10459000022E000C550B3C913417150611F30CF349
:1045A000FB01E40FF51FEE0FFF1FE955F94F0081E6
:1045B000118101521B4011F02F5FE9CF27FDD1CFB0
:1045C000118210826C916150770B4617570759F191
:1045D0003CE0389FD001399FB00D1124A155B94F4F
:1045E00036E0389FB001399F700D1124422F50E002
:1045F000EC91E150FF0B4E175F07ACF4FA013196D6
:10460000E60FF71FEE0FFF1FE955F94F00811181EB
:10461000FB01E40FF51FEE0FFF1FE955F94F118362
:1046200000832F5FE3CF2CE0289FF001299FF00D3E
:104630001124E955F94F80858150808792CF22EA75
:1046400038E048CF992309F483CD91509093D80650
:104650007FCD963138F4E92FF0E0EF53F94F8083A6
:104660009F5FF4CF1092D80673CD0E943F1370CD98
:10467000109284079ACD109284076FCE833081F018
:10468000843009F092CE80E104C080E18093AA08D2
:1046900081E08093A80889CE84E0FBCF87E0F9CF42
:1046A0008EE08093AA088CE0F4CF8F3031F4D09262
:1046B000A90882E08093A8088CCE1092A80889CE21
:1046C0008091A908E82FF0E0EE55F74F118781504F
:1046D0008093A9088F3F09F07CCE83E0EBCF811156
:1046E00061C18091A9088F3F09F05CC120E0D12C05
:1046F00030E040EB56E1ED2DF0E0812C912C54019F
:104700008394022E04C0880C991CAA1CBB1C0A941A
:10471000D2F7EE0FFF1FEE55F74F61A572A5052FDB
:1047200010E00E55174FD80119960C9110E0032E8A
:1047300002C0159507950A94E2F7C40100FF2DC148
:10474000862B972B92A781A73F5F2F5F383011F4FC
:10475000515030E02B3011F4D39420E0415059F601
:104760008FEF8093ED0881E08093A8088091B207D5
:10477000882309F475C78091F70681110DC00E9446
:10478000D7046093F3067093F4068093F506909334
:10479000F60681E08093F7068091EB0681110DC04B
:1047A0000E94D7046093E7067093E8068093E906B9
:1047B0009093EA0681E08093EB068091EF08909158
:1047C000F008009709F451C36091EE086295669570
:1047D0006770DC01ED91FC910190F081E02D09956D
:1047E000882309F442C38091EF089091F00860910A
:1047F000EE086F71DC01ED91FC910280F381E02DF8
:104800000995AC019093F5088093F4088091F7081E
:1048100080618093F7082CE034E090E0F901659125
:1048200074914617570708F41AC3F9013296659137
:1048300074916417750708F412C33091F808432F78
:10484000441F4427441F8091F908282F2F70220FFE
:10485000242B291376C38091F908282F22952F70D5
:104860002F5F2770322F3295307F8F78832B809384
:10487000F9083091F708432F437050E04F5F5F4FC6
:104880002417150609F0F1C28091F808903109F05B
:1048900064C3329536953770982F9370990F990F9E
:1048A000990F932B990F990F8378892B8093F80890
:1048B0009091F808292F269526952F71322F329541
:1048C000330F307E8091F7088F71832B322F36950E
:1048D000369536959C7F932B9093F8089C7794346B
:1048E00009F043C3877F8093F7088091F308909184
:1048F000F70892FF72C3863008F06DC3E82FF0E02E
:10490000EF51F94F9091F208908380681092F3086C
:104910009091F7089B7F9093F708882309F4A5C22C
:1049200091E0909378079091DF069F5F9093DF0668
:10493000982F9F77D92EDD0C87FDD394892F90E097
:10494000FC01E052F94F4081ED2DE170CE2E342F65
:10495000D0FE13C0FC01EF51F94F2081022E000C54
:10496000330B54E0359527955A95E1F72F70F0E118
:104970004F02A0011124322F342B20E060E0019778
:10498000462F50E0481759070CF030C34F51594F8C
:10499000DA014C9124276F5FF3CF809590958623A1
:1049A0009723D0CE81E086CE8FE5810F823008F04C
:1049B00084CE8CE0113A09F080E18093AA0810922D
:1049C000A908612F90E080E00E949D099093EC0877
:1049D0008093EB0885E06ECEE091A90801E00E0F10
:1049E0000093A908F0E0EE55F74F8187682F80917A
:1049F000EB089091EC080E949D099093EC0880933D
:104A0000EB088091AA0890E0880F991F08171906F3
:104A10000CF4DFCC86E04ECE0091A9080F5F009326
:104A2000A908682F8091EB089091EC080E949D09DD
:104A30009093EC088093EB081091AA08212F30E0A6
:104A40002F5F3F4F220F331F021713060CF4C1CC08
:104A5000892B09F032CE6BEAC62E68E0D62E00E034
:104A60001017E1F0F601219131916F0132272327D0
:104A70003227A8E7B5E00E948C312FEF3FE040E0FD
:104A800050E00E940931205E3C4F4F4F5F4FD601EE
:104A90005F963C932E935E970F5FE2CF8FEF8093EC
:104AA000ED0864CE883A09F008CE68EA90E080E02C
:104AB0000E949D099093EC088093EB0888E0FACD62
:104AC0008F77813009F0F9CD612F8091EB089091BB
:104AD000EC080E949D099093EC088093EB0891E00C
:104AE000113809F090E08091A60890FB84F980933A
:104AF000A60889E0DFCD8EEF810F8F3008F0DDCD85
:104B0000612F8091EB089091EC080E949D09909391
:104B1000EC088093EB081093AA081092A9088AE089
:104B2000C9CDE091A90801E00E0F0093A908F0E0BB
:104B3000EE55F74F8187682F8091EB089091EC0834
:104B40000E949D099093EC088093EB088091AA083D
:104B500090E0880F991F081719060CF43ACCBBE0B7
:104B6000B093A80836CC0091A9080F5F0093A9085C
:104B7000682F8091EB089091EC080E949D0990931A
:104B8000EC088093EB081091AA08212F30E02F5FEA
:104B90003F4F220F331F021713060CF41ACC892B38
:104BA00009F08BCDBBEACB2EB8E0DB2E00E010176E
:104BB00009F474CFF601219131916F013227232737
:104BC000322750E040E020523C4141095109A0EB1E
:104BD000B4E00E94283120E835E240E050E00E9435
:104BE00009312C573C4F4F4F5F4FD6015F963C9396
:104BF0002E935E970F5FDBCF803209F0EACBEFEDAB
:104C0000FFEFF093EC08E093EB084092A808E1CBAB
:104C1000803409F052CD8091EB089091EC088054DB
:104C200091099093EC088093EB081092A908509298
:104C3000A808CFCBE091A90821E02E0F2093A90866
:104C4000F0E0EE55F74F81878091EB089091EC08EA
:104C5000811B91099093EC088093EB088091AA083E
:104C600090E0880F991F281719060CF4B2CB6092B8
:104C7000A808AFCB2091A908E22FF0E0EE55F74F3E
:104C800081872F5F2093A9083091AA08832F90E095
:104C90000196880F991F281719060CF49ACB8E5588
:104CA000974FDC0117968C91312E212C820D932D7C
:104CB000911D4091EB085091EC084817590709F0F5
:104CC000FCCCEBEAF8E080E0381731F041915191EB
:104CD000578F468F8F5FF8CF8FEF8093ED0810923C
:104CE000A80844CD8E3309F0E8CCEDEFF8EDF09351
:104CF000EC08E093EB087092A8086BCB833009F0C6
:104D0000DCCC63E08091EB089091EC080E94770581
:104D10009093EC088093EB088092A8085ACB682FF8
:104D20008091EB089091EC080E9477059093EC0835
:104D30008093EB089092A8084CCB682F8091EB08E9
:104D40009091EC080E9477059093EC088093EB0813
:104D5000A092A8083ECB813309F0AFCC61E38091EB
:104D6000EB089091EC080E9477059093EC088093F3
:104D7000EB08B092A8082DCB88EF810F893108F09D
:104D80009CCC812F86958093AA081092A908612F48
:104D90008091EB089091EC080E9477059093EC08C5
:104DA0008093EB08D092A80814CBE091A90801E009
:104DB0000E0F0093A908F0E0EE55F74F8187682F9A
:104DC0008091EB089091EC080E9477059093EC0895
:104DD0008093EB088091AA0890E0880F991F08172C
:104DE00019060CF4F6CAC092A808F3CA2091A908C3
:104DF000E22FF0E0EE55F74F81872F5F2093A9084F
:104E00003091AA08832F90E00196880F991F2817E8
:104E100019060CF4DECA8E55974FDC0117968C915B
:104E20001C831B82EB81FC81E80FF11D4091EB0894
:104E30005091EC084E175F0709F03FCCEBEAF8E021
:104E400080E0381709F448CF4191519163E05695BD
:104E500047956A95E1F7578F468F8F5FF2CF9F5F37
:104E60002C5F3F4F923109F0D9CC0E94D7040091BA
:104E7000F3061091F4062091F5063091F606601BBA
:104E8000710B820B930B693B7B4081059105D0F040
:104E90000E94D7046093F3067093F4068093F5069E
:104EA0009093F606109278078091DE06882331F001
:104EB00064E574E082E598E00E9444121092E206F4
:104EC0001092E1068091B307833050F46091A507FA
:104ED00082EA98E00E94C809909383078093820732
:104EE0008091B207811103C680918407811106C4A5
:104EF0000E94D704009116091091170920911809F2
:104F000030911909601B710B820B930B6A3F71057D
:104F10008105910508F4F6C310911101612F85E018
:104F20000E94070481E01827109311010E94D70402
:104F300060931609709317098093180990931909C3
:104F4000E1C390FB37F93093F808292F26952F708D
:104F50008078822B8093F9087ECC9F71990F990FEE
:104F60008378982B9093F808A3CC83FD27C0B0E1F9
:104F70002B9F900111242093F20884608093F708FE
:104F800080E02091F708922F977F23FF98609093FD
:104F9000F708813009F4A9CC823009F066CFE0919E
:104FA000F308E63000F581E08E0F8093F308F0E01F
:104FB000EF51F94F8091F208808357CF9091F2081A
:104FC000292B2093F2088B7F8093F70881E0809350
:104FD000F60882E0D6CF80E099CC882309F445CF4B
:104FE0001092F3089DCC1092F3083FCFCC2031F003
:104FF0004F51594FFA018081807F28278091DE062A
:1050000095E5292723131DC3882341F00E94C80476
:10501000882321F088EB95E00E94C40F0D2D10E04D
:105020004091DE062091DD068091DC0690E0880F3D
:10503000991FBC01A3E02A9F600D711D112480916E
:10504000DB0686958695860F972F911D0296081789
:10505000190709F085C2442309F446C00E94D70409
:105060006093F3067093F4068093F5069093F6062A
:1050700068ED74E082E598E00E9458064D2D50E0FE
:1050800070E060E02AE082E598E00E947F0E65ED26
:1050900074E082E598E00E9458066D2D6695615097
:1050A0004C2D81EE96E00E94860F61ED74E082E562
:1050B00098E00E9458060E94D7040091E7061091DC
:1050C000E8062091E9063091EA06AB01BC01401BDD
:1050D000510B620B730B2AE082E598E00E947F0E71
:1050E00082E598E00E9429128091DD06813009F066
:1050F0007DC08091DE06882309F478C06091E106C6
:10510000B0E16B9FB00111248091E20690E0A4E031
:1051100095958795AA95E1F7680F791F90E080E053
:105120000E94AE3220E030E044EB53E40E9465334D
:1051300020E030EF4FE755E40E940D324B015C0157
:105140006AEC74E082E598E00E9458062091E1063E
:10515000E0E12E9F900111249091E206892F90E0CA
:10516000B4E095958795BA95E1F7820F931F0E9459
:10517000CB0E67EC74E082E598E00E945806A5012A
:105180009401C501B4010E94D23366E375E0811138
:1051900023C02FEF3FEF4FE75FE7C501B4010E9447
:1051A000D23381110CC02FEF3FEF4FE75FE7C5010E
:1051B000B4010E9408326AE375E018166CF02FEF14
:1051C0003FEF4FE75FE4C501B4010E94603318165A
:1051D0000CF00EC16EE375E082E598E00E94700E5F
:1051E00062EC74E082E598E00E9458068091DC064B
:1051F000813071F50E94C804882351F18091DD0649
:10520000813009F031C18091E206F0E18F9F900179
:1052100011248091E30682958F70822B1F928F93C9
:1052200088EB94E09F938F931F9284E68F93FF9275
:10523000EF920E94452E84E097E00E94C40F2DB7A4
:105240003EB7285F3F4F0FB6F8943EBF0FBE2DBF4D
:105250001091DB06112309F453C08091DD062091E3
:10526000DC06103108F030C1813009F01EC1143065
:1052700009F0FDC082E090E0211102C081E090E0E1
:105280008F51994FDC018C918F7090E09A838983C4
:105290008091DE068823E9F00E94C8048823C9F0C3
:1052A0001F921F9389EA94E09F938F931F9284E645
:1052B0008F93FF92EF920E94452E84E097E00E9428
:1052C000C40FEDB7FEB738960FB6F894FEBF0FBE09
:1052D000EDBF6091DB06603109F037C189819A81A9
:1052E0009827892798279A83898341E0643009F0B9
:1052F00040E0669566956695CE0101960E94860F00
:105300008091DE06882391F00E94C804882321F052
:1053100088EB95E00E94C40F0E94D7046093E706D3
:105320007093E8068093E9069093EA068091DF0681
:10533000843608F49ACD8091DE06882309F495CD51
:105340000E94C804882321F088EB95E00E94C40FD6
:105350000E94C804882321F08FE995E00E94C40FC1
:105360000E94C804882321F088EB95E00E94C40FB6
:105370000E94C8048823F9F08091DF069091E0062E
:10538000891B990B9F938F9383E794E09F938F934F
:105390001F9284E68F93FF92EF920E94452E84E045
:1053A00097E00E94C40FEDB7FEB738960FB6F89499
:1053B000FEBF0FBEEDBF0E94C804882321F086EB1C
:1053C00095E00E94C40F0E94C804882321F08FE951
:1053D00095E00E94C40F0E94C804882321F088EB46
:1053E00095E00E94C40F1092DF061092E0063DCDBA
:1053F0002FEF3FEF4FE75FECC501B4010E94083289
:1054000087FDE8CE2DEC3CEC4CE45DE3C501B40136
:105410000E949C312B013C010E947F324B015C01B8
:105420000E94AE329B01AC01C301B2010E949B31CC
:105430002B013C012AE0B501A40182E598E00E941D
:105440007F0E6EE282E598E00E940C0820E030E0DA
:1054500040E251E4C301B2010E9465330E947F32F1
:10546000CB010E94CB0EBCCE8091E106D7CE82E06C
:1054700090E0211102C081E090E08F51994FFC0132
:105480008081F0E18F9FC00111249927222319F018
:1054900023E030E002C022E030E02F51394FD90143
:1054A0002C9122952F70822BF1CE81E090E021117A
:1054B00002C090E080E08F51994FFC018081143050
:1054C00009F0E3CE8295E0CE813031F582E090E0C4
:1054D000211102C081E090E08F51994FDC018C9145
:1054E000682F70E0762F66277295707F43E050E05A
:1054F000211102C042E050E04F51594FFA01808122
:10550000F0E18F9FC0011124862B972B222309F4F1
:10551000BFCF24E030E0C1CF81E090E0211102C094
:1055200090E080E08F51994FFC01808190E0982FAE
:105530008827222339F022E030E02F51394FD9015A
:105540002C91B1CF21E030E0F8CF643009F0CDCE1E
:1055500089819A8174E0880F991F7A95E1F7C3CE0B
:10556000442309F4E3CE8091E0068F5F8093E00648
:105570000E94C804882321F082E495E00E94C40FB1
:105580000E94C804882371F12091DD068091DC0619
:1055900090E0880F991FAC0163E0269F400D511DDC
:1055A00011248091DB0686958695840F952F911D99
:1055B00002969F938F9388E994E09F938F931F9215
:1055C00084E68F93FF92EF920E94452E84E097E04D
:1055D0000E94C40F8DB79EB708960FB6F8949EBF71
:1055E0000FBE8DBF0E94C8048823C9F01F930F937C
:1055F00086E894E09F938F931F9284E68F93FF92A7
:10560000EF920E94452E84E097E00E94C40FADB750
:10561000BEB718960FB6F894BEBF0FBEADBF0E94BE
:10562000C804882321F086E595E00E94C40F0E94FB
:10563000C804882309F47ACE88EB95E00E94C40F51
:1056400075CE882309F472CE8091E0068F5F809337
:10565000E0060E94C804882351F38FE795E0E5CF68
:105660008091ED08282F30E0220F232F221F330BCB
:10567000232B09F498C28F778093ED0881E0809303
:105680008407809179078F5F8436A8F58093790726
:105690006091A50782EA98E00E94C8099093830769
:1056A000809382076091A70782EA98E00E94C80968
:1056B00090937F0780937E076091A60782EA98E027
:1056C0000E94C80990938107809380076091A80782
:1056D00082EA98E00E94C80990937D0780937C0736
:1056E0006091A90782EA98E00E94C80990937B071D
:1056F00080937A07F5CB10927907CACF61E085E0F5
:105700000E94070480917707882309F44BC0809199
:10571000820790918307009709F4FEC18C3D25E034
:10572000920708F0E7C12091AF073091B0078217C8
:10573000930720F49093B0078093AF072091AD07B3
:105740003091AE074091AF075091B007240F351F3D
:10575000369527953093AC072093AB070E94CB0E6C
:105760008BEB95E00E94C40F8091AF079091B0073A
:105770000E94CB0E8BEB95E00E94C40F8091AB078B
:105780009091AC070E94CB0E8BEB95E00E94C40F6A
:105790008091AD079091AE070E94CB0E82E598E014
:1057A0000E94291280916F0781110DC00E94D704B9
:1057B00060936B0770936C0780936D0790936E07EF
:1057C00081E080936F070E94D70400916B071091CE
:1057D0006C0720916D0730916E07601B710B820B77
:1057E000930B653F71408105910508F470C10E94DB
:1057F000D70460936B0770936C0780936D07909349
:105800006E0780916A07882309F47AC00E94C80451
:10581000882331F080918207909183070E94CB0EFC
:105820000E94C804882321F08BEB95E00E94C40FEE
:105830000E94C804882331F08091800790918107ED
:105840000E94CB0E0E94C804882321F08BEB95E0C8
:105850000E94C40F0E94C804882331F080917E0703
:1058600090917F070E94CB0E0E94C804882321F0EC
:105870008BEB95E00E94C40F0E94C804882331F08E
:1058800080917C0790917D070E94CB0E0E94C804F6
:10589000882321F08BEB95E00E94C40F0E94C8047E
:1058A000882331F080917A0790917B070E94CB0E7C
:1058B0000E94C804882321F08BEB95E00E94C40F5E
:1058C0000E94C8048823E1F0809169071F928F939A
:1058D00080E095E09F938F931F9284E68F93FF92D1
:1058E000EF920E94452E84E097E00E94C40F6DB7AE
:1058F0007EB7685F7F4F0FB6F8947EBF0FBE6DBF57
:1059000020918207309183071091020721153105FC
:1059100009F407C18090AF079090B007B12CA12C7B
:1059200050E040E0281939094A095B09ADE1B0E0CF
:105930000E9428312091AD073091AE0750E040E041
:10594000281939094A095B090E9409312F5F3F4F25
:105950004F4F5F4F2093030780910307811719F082
:1059600090E00E946609809103078093020784E01B
:105970000E94DE038093010720917E0730917F070C
:105980002115310581F18091AB079091AC07885CBE
:1059900091092817390708F0C7C0109210018091AB
:1059A0001001813009F0C4C08093000780917E0708
:1059B00090917F07892BB9F08091AB079091AC074C
:1059C00088539F4F2091800730918107821793075A
:1059D00008F0C0C010920F0180910F01813009F0D2
:1059E000BDC08093FF0620917A0730917B07211577
:1059F000310599F08091AB079091AC0788539F4F88
:105A00008217930708F0BCC010920E0180910E011E
:105A1000813009F0B9C08093FF0620917C07309156
:105A20007D0721153105F1F08091AB079091AC070E
:105A3000885C91092817390718F48EE00E946E09D6
:105A40008091AB079091AC0788539F4F20917C07C2
:105A500030917D078217930728F48091690790E0C1
:105A60000E946A098DE4C82E81E0D82E01E010E082
:105A700094E6B92ED6018D916D010E94DE03892B2B
:105A800009F5B80182E10E94E3040E94C80488235A
:105A9000C9F01F930F93EAEEF4E0FF93EF931F9288
:105AA000BF92FF92EF920E94452E84E097E00E9401
:105AB000C40F4DB75EB7485F5F4F0FB6F8945EBF37
:105AC0000FBE4DBF0F5F1F4F0730110599F680E0E5
:105AD00090E0892B11F40C948C200E94E606882318
