:100000000C94F4010C94B3100C948C100C946510A7
:100010000C943E100C941C020C941C020C941710AF
:100020000C941C020C94D3130C94DA100C94491108
:100030000C941C020C941C020C941C020C941C02C8
:100040000C941C020C941C020C941C020C941C02B8
:100050000C941C020C941C020C941C020C94CD0FEA
:100060000C941C020C94A1130C947B130C941C0292
:100070000C941C020C941C020C941C020C941C0288
:100080000C941C020C941C020C941C020C941C0278
:100090000C941C020C941C020C941C020C941C0268
:1000A0000C941C020C941C020C941C024D696E6989
:1000B00043683A2020202025640D0A0043656E74B1
:1000C000657243683A202025640D0A004D61786905
:1000D00043683A2020202025640D0A004C6F6F7081
:1000E0003A20202020202025730D0A004E657874C8
:1000F00043683A2020202025640D0A00507265765E
:1001000043683A2020202025640D0A00566F6C4376
:10011000683A202020202025640D0A00566F6C3A92
:100120002020202020202025640D0A004551204D4C
:100130006F64653A20202025730D0A0044656661CE
:10014000756C74732056616C7565205361766564B7
:100150000D0A005D3A2030780052785B006D7033F4
:100160005F726563765F636D64206F7574004572BE
:10017000726F7220726573706F6E73652077697429
:100180006820636F646520006D70335F726563760D
:100190005F636D6420696E2077697468206578708C
:1001A000656374656420636D6420307800080B001B
:1001B00002020200000904000001020200000524FE
:1001C0000010010524010101042402060524060093
:1001D000010705810310004009040100020A000024
:1001E00000070502024000000705830240000004EA
:1001F00003090412010002EF0201404F1B069200A6
:100200000101020301537061726B46756E005370F9
:1002100061726B46756E2050726F204D6963726F0C
:10022000002A2A2A2A2A2056005573652025732081
:1002300020257325732028505245562D4E4558547D
:100240002D504C41592F5041555345290D0A005509
:100250007365202573202025732028505245562D84
:100260004E4558542D504C41592F50415553452916
:100270000D0A005573652025732020257320202545
:10028000730D0A0043757272656E7420736F756E1C
:10029000643A2025640D0A0046696C657320666F18
:1002A000756E643A2025640D0A00457175616C69AC
:1002B0007A65723A202025730D0A00566F6C756DB1
:1002C000652020202020203A2025640D0A00455278
:1002D00052004C6F6F703A2025730D0A0045512073
:1002E0004D6F64653A2025730D0A005072657643A0
:1002F000683A2025640D0A004E65787443683A20F8
:1003000025640D0A00566F6C43683A2025640D0A77
:1003100000496E707574204D6F64652069732025E7
:10032000730D0A00566F6C3A25640D0A00536F7501
:100330006E644E756D6265723A2025640D0A005335
:1003400069676E616C20257320566F6C756D652032
:100350006E6F7420666F756E6420210D0A000000B8
:100360000000240027002A002D00300000000000BB
:10037000250028002B002E00310000000000230083
:10038000260029002C002F000404040404030405A3
:100390000202020204030202020206060606060622
:1003A0000404020202040404080201104080401008
:1003B000204080408008020401804020100201108B
:1003C0008010204040200000000200090F000003C0
:1003D0000401000C0000000000000000000000000C
:1003E0000000000019143D1E11241FBECFEFDAE0FB
:1003F000DEBFCDBF15E0A0E0B1E0E2E9F7E402C066
:1004000005900D92A03CB107D9F728E0A0ECB5E02B
:1004100001C01D92A932B207E1F711E0C3EFD1E0AC
:1004200004C02197FE010E94C421C23FD107C9F731
:100430000E9493140C94BC230C940000FC01809146
:10044000D006882311F13FB7F89482E08093E90049
:100450002091F200822F90E01816190614F481E022
:1004600090E0882339F0289844E64093CF064091E5
:10047000F1004083222339F02091F200211103C0C2
:100480002BE62093E8003FBF08958FEF9FEF08957C
:100490002FB7F89483E08093E9009091E800892FCA
:1004A000807295FF04C09091F20080E4891B2FBFF9
:1004B00008958091C70681110DC082E08093C30624
:1004C00084E08093C4061092C6061092C50681E0AF
:1004D0008093C70683EC96E0089581508F3008F032
:1004E00047C0E82FF0E0E958FD4F0C94C421940276
:1004F000980286028C029002B802B802B8029B02EF
:10050000A102A502A902AF02B802B3028091800045
:100510008F77809380000895809180008F7DF9CF40
:1005200080918000877FF5CF84B58F7784BD089553
:1005300084B58F7DFBCF809190008F778093900062
:100540000895809190008F7DF9CF80919000877FF2
:10055000F5CF8091C0008F778093C000089580917F
:10056000C0008F7DF9CF8091C200877F8093C20049
:100570000895CF93DF93282F30E0F901EA53FC4F21
:100580008491F901E955FC4FD491F901E857FC4FEA
:10059000C491CC23A1F081110E946D02EC2FF0E0F8
:1005A000EE0FFF1FE658FC4FA591B491EC91ED239F
:1005B00081E090E009F480E0DF91CF91089580E040
:1005C00090E0FACF1F93CF93DF93282F30E0F9010B
:1005D000EA53FC4F8491F901E955FC4FD491F9019C
:1005E000E857FC4FC491CC23A9F0162F81110E942B
:1005F0006D02EC2FF0E0EE0FFF1FE459FC4FA591C8
:10060000B4918FB7F894EC91111108C0D095DE2306
:10061000DC938FBFDF91CF911F910895DE2BF8CF30
:10062000CF93DF9390E0FC01E955FC4F249188576C
:100630009C4FFC0184918823C9F090E0880F991F9A
:10064000FC01E25AFC4FA591B491FC01E459FC4F26
:10065000C591D49161110DC09FB7F8948C912095EC
:1006600082238C938881282328839FBFDF91CF9199
:100670000895623051F49FB7F8943C91822F809591
:1006800083238C93E8812E2BEFCF8FB7F894EC91D6
:100690002E2B2C938FBFEACF3FB7F8948091BF06E3
:1006A0009091C006A091C106B091C20626B5A89B44
:1006B00005C02F3F19F00196A11DB11D3FBFBA2FF4
:1006C000A92F982F8827BC01CD01620F711D811DB4
:1006D000911D42E0660F771F881F991F4A95D1F739
:1006E00008958F929F92AF92BF92CF92DF92EF9236
:1006F000FF924B015C010E944C036B017C010E9444
:100700004C036C197D098E099F09683E7340810571
:100710009105A8F321E0821A9108A108B10888EE9A
:10072000C80E83E0D81EE11CF11C81149104A104C1
:10073000B10429F7FF90EF90DF90CF90BF90AF907A
:100740009F908F900895CF93C09122016AE070E04E
:1007500080E090E00E94710381E0C11101C080E05F
:10076000CF9108952FB7F8946091BB067091BC06A5
:100770008091BD069091BE062FBF0895CF93DF9361
:1007800080931401109216016093170120911201B9
:1007900090911301290F3327331F820F932F911D3F
:1007A00020911501820F911D680F791F7195619538
:1007B000710970931801609319018091D30690918B
:1007C000D406DC01ED91FC910084F185E02D0995C2
:1007D000892B61F08091D3069091D406DC01ED91D4
:1007E000FC910284F385E02D0995E7CFC1E1D1E0CA
:1007F0008091D3069091D4066991DC01ED91FC9132
:100800000190F081E02D0995B1E0CB31DB0781F754
:10081000DF91CF910C94B203089508954091D505CE
:100820005091D6052091D3053091D4054217530736
:10083000B4F49091E8009570E1F39091E80092FD96
:1008400019C08093F1008091D5059091D60501964D
:100850008F739927892B19F48EEF8093E80080918C
:10086000D5059091D60501969093D6058093D50530
:1008700081E0089580E00895EF92FF920F931F9317
:10088000CF93DF93F82E192FE62E042F81E0860FE9
:10089000880F0E940E0483E00E940E04CF2DD12FFA
:1008A000EC0EFD2EF11CCE15DF05B9F007FF13C0CD
:1008B000FE0184910E940E04182F80E00E940E0415
:1008C000812321968111EFCFDF91CF911F910F915D
:1008D000FF90EF9008958881EDCF81E0F5CFDF9212
:1008E000EF92FF920F931F93CF93DF93D82E8A013D
:1008F000EB017B01E40EF51ECE15DF0559F0D7FEA6
:1009000012C0FE0184910E940E0421968111F4CF41
:100910000FEF1FEFC801DF91CF911F910F91FF9053
:10092000EF90DF9008958881EECF0F931F93CF93C0
:10093000DF931F92CDB7DEB782E0898342E450E0B7
:100940006DEA71E080E80E946F040E945902DC01A8
:1009500012960D911C910115110589F0D801ED91A8
:10096000FC910280F381E02DBE016F5F7F4FC801D3
:10097000099597FD04C0F80100851185ECCF8981A8
:100980000F90DF91CF911F910F910895615030F03A
:100990002091F100FC0120830196F8CF289884E68D
:1009A0008093CF060895EF92FF920F931F93CF93FA
:1009B000DF938C017B01D0E0C0E0F701EC0FFD1F5D
:1009C0006491662361F0D801ED91FC910190F08172
:1009D000E02DC8010995892B11F02196EECFCE01AB
:1009E000DF91CF911F910F91FF90EF900895AF92FB
:1009F000BF92CF92DF92EF92FF920F931F93CF930C
:100A0000DF936C017B018B01040F151FEB015E016D
:100A1000AE18BF08C017D10759F06991D601ED9102
:100A2000FC910190F081E02DC6010995892B79F7A1
:100A3000C501DF91CF911F910F91FF90EF90DF9053
:100A4000CF90BF90AF900895FC01538D448D252F1A
:100A500030E0842F90E0821B930B541710F0CF9658
:100A6000089501970895FC01918D828D981761F08A
:100A7000A28DAE0FBF2FB11D5D968C91928D9F5FA1
:100A80009F73928F90E008958FEF9FEF0895FC0180
:100A9000918D828D981731F0828DE80FF11D858D33
:100AA00090E008958FEF9FEF0895FC01918D228DC6
:100AB000892F90E0805C9F4F821B91098F7399274B
:100AC000089584EE96E00E94550521E0892B09F4F3
:100AD00020E0822F089580E090E0892B29F00E9489
:100AE000610581110C9400000895FC01A48DA80FEC
:100AF000B92FB11DA35ABF4F2C91848D90E0019660
:100B00008F739927848FA689B7892C93A089B1897F
:100B10008C9182748C93938D848D981306C0028877
:100B2000F389E02D80818F7D80830895EF92FF927D
:100B30000F931F93CF93DF93EC0181E0888F9B8D00
:100B40008C8D981319C0E889F989808185FF14C0BC
:100B50009FB7F894EE89FF896083E889F9898081DD
:100B6000827480839FBF81E090E0DF91CF911F91DD
:100B70000F91FF90EF900895F62E0B8D10E00F5F10
:100B80001F4F0F731127E02E8C8D8E110CC00FB6E6
:100B900007FCFACFE889F989808185FFF5CFCE017E
:100BA0000E947505F1CFEB8DEC0FFD2FF11DE35A7F
:100BB000FF4FF0829FB7F8940B8FEA89FB89808101
:100BC0008062CFCFCF93DF93EC01888D8823B9F07B
:100BD000AA89BB89E889F9898C9185FD03C0808148
:100BE00086FD0DC00FB607FCF7CF8C9185FFF2CFC5
:100BF000808185FFEDCFCE010E947505E9CFDF91A1
:100C0000CF9108958F929F92AF92BF92CF92DF9231
:100C1000EF92FF920F931F93CF93DF936C017B01B1
:100C20008A0180912201882309F45CC08091D0065A
:100C3000882309F457C08091D90580FF05C08091B1
:100C4000E00082608093E000E801B12C8AEFA82EDA
:100C500093E0892E2AE3922E209711F4BB20D9F13C
:100C60000E94480281110AC0AA94AA20D9F161E029
:100C700070E080E090E00E947103EECF8C171D06BB
:100C800011F00CF08C2F9FB7F8948092E90020911E
:100C9000E80025FD02C09FBFDFCF282F30E0C21B38
:100CA000D30BF701815020F041914093F100FACF2E
:100CB000E20EF31EBB2021F09092E800B12CEBCFA6
:100CC0008091E80085FDE7CF9092E800BB24B394C3
:100CD000209709F3F3CF5D9884E68093D80510162A
:100CE00011063CF081E090E0F6019383828310E0EE
:100CF00000E0C801DF91CF911F910F91FF90EF901D
:100D0000DF90CF90BF90AF909F908F900895CF933A
:100D1000DF931F92CDB7DEB76983DC01ED91FC91C3
:100D20000280F381E02D41E050E0BE016F5F7F4F14
:100D300009950F90DF91CF91089583E08093E900AA
:100D40008091F200882319F08AE38093E8000895E7
:100D50000E94480290E00895CF93DF931F92CDB791
:100D6000DEB7FC018485958597FD08C02FEF3FEF26
:100D7000358724870F90DF91CF910895CE0101969A
:100D80000E941E02019719F4898190E0F3CF8FEF42
:100D90009FEFF0CF0F931F93CF93DF931F92CDB7A9
:100DA000DEB78C01FC018485958597FF0BC0CE01D1
:100DB00001960E941E02019771F4898190E0F8016A
:100DC00095878487F801848595850F90DF91CF9171
:100DD0001F910F9108958FEF9FEFF1CFFC01848554
:100DE000958597FD0BC09FB7F89482E08093E9004A
:100DF0008091F2009FBF90E0019608959FB7F8940C
:100E000082E08093E9008091F2009FBF90E0089516
:100E1000BC0186E00C94BE03BC0183E00C94BE03CD
:100E200070E060E00C94BE038F929F92AF92BF92ED
:100E3000CF92DF92EF92FF926C010E94B2034B01BE
:100E40005C01F12CE12C0E94B203681979098A092E
:100E50009B096C157D058E059F0540F4E091DD052D
:100E6000F091DE05309779F30995EDCFFF90EF9083
:100E7000DF90CF90BF90AF909F908F900895E091BA
:100E80000B063CE0E39FF0011124ED50FA4F218561
:100E90008091DF05843008F059C08091DF058823F8
:100EA00009F486C08091DF05813009F47BC0809110
:100EB000DF05823009F479C08091DF05833009F4C1
:100EC0007AC08091DF05873009F469C090E080E046
:100ED000E0910B064CE0E49FF0011124ED50FA4F35
:100EE0003385232330E082239323892B09F483C0A5
:100EF0000E944C032091C5053091C605AB01421BF1
:100F0000530B9A017093C6056093C505283B5BE0BF
:100F1000350708F45EC02091E00520931906109271
:100F2000E0052FEF20931A063091C4052091C405E7
:100F30002E7F30FF21602093C4052091C40520FF3F
:100F40003DC07093C3056093C20508958091DF058D
:100F5000883080F08091DF058C3060F44091DF05AF
:100F60004450550B81E090E002C0880F991F4A95CC
:100F7000E2F7AECF8091DF058E30A1F08091DF05E2
:100F80008F3099F08091DF05803191F08091DF05FD
:100F9000813189F04091DF054651550BE3CF80E167
:100FA00090E096CF88E090E093CF82E090E090CF01
:100FB00084E090E08DCF81E090E08ACF2091C2055F
:100FC0003091C305621B730B7093C1056093C0051C
:100FD00008958091E005893070F4E091E005F0E03B
:100FE000EE0FFF1FEF51FA4F318320838091E00510
:100FF0008F5F8093E0050895089520911A0630E0F0
:10100000062E02C0359527950A94E2F7C901817032
:10101000992720FF0CC040911A0621E030E001C062
:10102000220F6A95EAF72095242320931A06089543
:10103000882399F090911906981778F08150E82F3D
:10104000F0E0EE0FFF1FEF51FA4F80819181208178
:10105000318182179307C9F708958CED95E00895C3
:10106000862F0C941808BF92CF92DF92EF92FF92D6
:101070000F931F93CF93DF930E944C036B017C016E
:10108000C091D106D091D20601E010E0BB24BA9401
:10109000209709F459C08D8183708130D1F520915A
:1010A0000806422F50E08C81843048F48823C1F137
:1010B000813099F18230B9F522E030E01AC098EF22
:1010C000980F682F6450770B943058F08E3029F1C8
:1010D0008F3091F3803121F1813129F1682F6651F0
:1010E000770B9B01B80102C0660F771F2A95E2F7C4
:1010F0009B0124233523232B61F00E94B9029D819B
:1011000092FB992790F9981789F0CA86DB86EC86BE
:10111000FD860A80DB81C02DBBCF28E030E0E9CF1F
:1011200024E030E0E6CF21E030E0E3CF8A859B8504
:10113000AC85BD859601281B390B3F872E87B88A61
:101140000E94B203698BE5CFDF91CF911F910F9180
:10115000FF90EF90DF90CF90BF900895BF92CF9215
:10116000DF92EF92FF920F931F93CF93DF930E9432
:101170004C036B017C01C091D106D091D206BB24F7
:10118000BA9401E010E0209709F458C08D81837073
:10119000D1F52091FC05422F50E08C81843048F439
:1011A0008823C1F1813099F18230B9F522E030E035
:1011B0001AC098EF980F682F6450770B943058F04E
:1011C0008E3029F18F3091F3803121F1813129F175
:1011D000682F6651770B9B01B80102C0660F771F1D
:1011E0002A95E2F79B0124233523232B61F00E94EB
:1011F000B9029D8192FB992790F9981789F0CA86C8
:10120000DB86EC86FD860A80DB81C02DBCCF28E022
:1012100030E0E9CF24E030E0E6CF21E030E0E3CF7A
:101220008A859B85AC85BD859601281B390B3F8738
:101230002E87B88A0E94B203698BE5CFDF91CF91E8
:101240001F910F91FF90EF90DF90CF90BF90089586
:10125000FC01868597852685378582179307C9F710
:101260000895FC01808990E0062E02C0959587952F
:101270000A94E2F780FF1CC0208981E090E001C061
:10128000880F6A95EAF780958223808B26853785BB
:101290008685978528173907C9F78681978128178A
:1012A000390730F081E0408551854217530708F433
:1012B00080E008950C94310989B18F70E3EFF5E077
:1012C000878B868997898927858B8789868B028872
:1012D000F389E02D099489B18F70E3EFF5E0878BF6
:1012E000868997898927858B8789868B0088F189EC
:1012F000E02D099489B18F70E3EFF5E0878B868943
:1013000097898927858B8789868B0684F785E02DC9
:10131000099489B18F70E3EFF5E0878B868997890F
:101320008927858B8789868B0484F585E02D099430
:10133000843088F49DB3882341F0813041F08230BD
:1013400041F081E0892B8DBB089584E0FBCF88E0DC
:10135000F9CF82E0F7CF28EF280F243040F092EF4A
:10136000980F943020F096EE980F9330D0F590912E
:101370006800243050F032EF380F343030F036EE61
:10138000380FF0E0E0E0333010F4E8E6F0E0916090
:101390009083243050F092EF980F943030F096EE16
:1013A000980FF0E0E0E0933010F4EBE6F0E03081ED
:1013B0002430C0F491E0682F6450770B01C0990F7E
:1013C0006A95EAF7932B243048F022EF280F243057
:1013D00028F08A51F0E0E0E0833010F4EBE6F0E032
:1013E0009083089598E08E3069F392E08F3051F346
:1013F00094E0803139F391E0813121F3682F665117
:10140000770BDCCFCF93DF93982F28EF280F81E065
:10141000243008F480E0282F30E09430A0F592309A
:10142000D1F49CE0929FF001939FF00D1124ED50B8
:10143000FA4F738362832AE739E0309307012093E0
:10144000060190916900937F946090936900E99AF6
:10145000DF91CF9108959CE0929FF001939FF00D52
:101460001124ED50FA4F7183608329E839E03093FD
:10147000050120930401909169009C7F91609093F5
:101480006900E89AE5CF50E040E096E0929FE001E5
:10149000939FD00D1124DE01A40FB51FAA0FBB1F0F
:1014A000AD50BA4FED91FC91E617F70789F24F5F07
:1014B0005F4F4430510579F79CE0929FD001939F94
:1014C000B00D1124AD50BA4F18969C9118979430D6
:1014D00010F08FEFBDCF1896EC911897EC0FFD2F01
:1014E000F11DEE0FFF1FED50FA4F718360831896C8
:1014F0009C9118979F5F18969C93AACF1F93CF93A8
:10150000DF93EC01162F98EF960F8D818C7F94302E
:1015100088F181608D8363E378E0812F0E94020A65
:10152000982F93708D818C7F892B8D831C8388E508
:1015300092E09F838E8380E699E0998788878091E7
:10154000D1069091D2069B838A83D093D206C09312
:10155000D10660E0812F0E94100361E08C810E941F
:10156000E2028C810E9498098D818370DF91CF9176
:101570001F9108958D836EEA78E0CFCF0F931F936C
:10158000CF93DF9305ED16E0D0E0C0E0CE010E94DE
:101590001C21F80181938F012196CF30D105B1F73D
:1015A00085ED96E0DF91CF911F910F910895FF9205
:1015B0000F931F93CF93DF9305ED16E0D0E0C0E0CB
:1015C000F801F1908F01CE010E941C21F81621F044
:1015D0006F2DCE010E9424212196CF30D10581F7B5
:1015E00085ED96E0DF91CF911F910F91FF900895C7
:1015F0000F931F93CF93DF930091D5071091D607D8
:10160000602F84E690E00E942421D0E0C0E0112702
:10161000C017D107D4F48091D5079091D607C81789
:10162000D90788F48091D1079091D207009759F09B
:101630008C0F9D1FFC016081CE018B599F4F0E9432
:1016400024212196E5CF60E0F7CFDF91CF911F9164
:101650000F910895FC0180819181009711F00C9405
:1016600066220895EF92FF920F931F93CF93DF931B
:10167000EC017B018A0188819981009729F02A81F8
:101680003B812417350788F4B8016F5F7F4F0E94B4
:10169000EF22009791F0998388831B830A832C8122
:1016A0003D81232B11F4FC0110821D830C83B701B3
:1016B000888199810E94B5230CC088819981009707
:1016C00011F00E946622198218821D821C821B82E0
:1016D0001A82CE01DF91CF911F910F91FF90EF9071
:1016E0000895FC01118210821382128215821482E5
:1016F000FB0101900020E9F73197AF01461B570B22
:101700000C94320BFB0101900020E9F73197AF01F7
:10171000461B570BDC01ED91FC910280F381E02D1B
:1017200009948F929F92AF92BF92EF92FF920F9384
:101730001F93CF93DF93CDB7DEB7A1970FB6F89481
:10174000DEBF0FBECDBF7C01FA01CB0119A2223052
:1017500008F42AE08E010F5D1F4F822E912CB12CD0
:10176000A12CBF01A50194010E949321F901CA0196
:101770006A300CF5605DD8016E938D01232B242B0C
:10178000252B79F790E080E0109721F0BD01C7018B
:101790000E94820BA1960FB6F894DEBF0FBECDBF9C
:1017A000DF91CF911F910F91FF90EF90BF90AF907D
:1017B0009F908F900895695CDECFAC0170E060E08F
:1017C0002AE081E897E00C94910BCF92DF92EF92A0
:1017D000FF920F931F93CF93DF93EC016A017B017C
:1017E000E881F9810190F081E02D6DE209958C018D
:1017F00044275527BA014C195D096E097F092AE073
:10180000CE010E94910B800F911FDF91CF911F910C
:101810000F91FF90EF90DF90CF900895009729F0FF
:10182000BC0181E897E00C94820B90E080E0089581
:1018300089E98093D50685E08093DB0686E0809376
:10184000DD0687E08093DC061092D9068AE080935B
:10185000D6068CED95E09093DF068093DE0688EE49
:1018600093E09093E3068093E20680ED97E09093F7
:10187000E1068093E00681E08093D7061092D806B7
:1018800046E050E06EE771E081ED97E00E94320B98
:101890000E94F80A0E94A3038823B9F08CE391E028
:1018A0009F938F931F9284E68F9381E496E09F939A
:1018B0008F930E946E1E81E496E00E940E0C0F90A2
:1018C0000F900F900F900F900F900C94D70A68E62E
:1018D00073E00C94820BCF93DF93E1EDF7E044814A
:1018E00055816081718181E897E00E940206EC01D8
:1018F00081E897E00E94670C8C0F9D1FDF91CF91CC
:101900000895CF93DF93BC0181E897E00E94820B9A
:10191000EC0181E897E00E94670C8C0F9D1FDF911E
:10192000CF9108954F925F926F927F928F929F9284
:10193000AF92BF92CF92DF92EF92FF920F931F93DD
:10194000CF93DF937C01D82F0E94B2032B013C017F
:101950008091DB059091DC05009799F068E871E0D3
:101960000E94D3040091DB051091DC05A701FF0C58
:10197000660B770B20E1C8010E94910BC8010E9401
:10198000670CC0E00E94B2036419750986099709C3
:10199000683E73408105910568F11092D10510925F
:1019A000D205C091DB05D091DC05209741F06DE5B3
:1019B00071E0CE010E94D304CE010E94670C2091F9
:1019C000D1058091D20590E03FEF239F800D911DBE
:1019D0001124DF91CF911F910F91FF90EF90DF9035
:1019E000CF90BF90AF909F908F907F906F905F90BF
:1019F0004F90089585E090E00E94140787ECA82E90
:101A000085E0B82EF501119235E0E13DF307D9F7F5
:101A10008091D3069091D406DC01ED91FC91008475
:101A2000F185E02D09950A970CF476C0C12CD12CD4
:101A300076018091D3069091D406DC01ED91FC9162
:101A40000284F385E02D09958C01019609F464C0A8
:101A50008091DB059091DC05009721F169E571E04B
:101A60000E94D3042AE0B701A6018091DB05909182
:101A7000DC050E94910B63E571E08091DB0590919C
:101A8000DC050E94D3048090DB059090DC0520E10A
:101A9000A801110F660B770BC4010E94910BC401C2
:101AA0000E94670CF50101935F01FFEFCF1ADF0A77
:101AB000EF0AFF0A2AE0C216D104E104F10409F09A
:101AC000B8CFC091CA05C034E1F48091DB05909194
:101AD000DC05009709F456CF6EE671E00E94D3044E
:101AE0000091DB051091DC054091CD0550E070E0E0
:101AF00060E02AE0C8010E94910BC8010E94670CB7
:101B000041CFDC133FCF8091CC058093D1058091EC
:101B1000CD058093D20545CF82E390E00E94140763
:101B2000DC1330CF3ECF6F927F928F929F92AF9215
:101B3000BF92CF92DF92EF92FF920F931F93CF93BA
:101B4000DF9300D000D000D0CDB7DEB76DB67EB643
:101B50000E94BE0A8091D506893921F10E94180C95
:101B600064EF71E080E090E00E9471030E94930DA9
:101B70000FB6F8947EBE0FBE6DBE26960FB6F894D3
:101B8000DEBF0FBECDBFDF91CF911F910F91FF90B0
:101B9000EF90DF90CF90BF90AF909F908F907F900D
:101BA0006F9008950E94A303882321F088E693E0B4
:101BB0000E940E0C0E94A303882321F08FE894E07A
:101BC0000E940E0C0E94A303882321F085E891E077
:101BD0000E940E0C0E94A303882321F08FE894E05A
:101BE0000E940E0C8091D706813009F07BC10E94C3
:101BF000A303882361F0E091D706E150FF0BEE0FBD
:101C0000FF1FEE5BFE4F808191810E940E0C81E8E8
:101C100097E00E94670C0E94A303882329F1E091BA
:101C2000D806F0E0EE0FFF1FE05DFE4F81818F933D
:101C300080818F938CE291E09F938F931F9284E633
:101C40008F9381E496E09F938F930E946E1E81E4B0
:101C500096E00E940E0C2DB73EB7285F3F4F0FB69F
:101C6000F8943EBF0FBE2DBF0E94A3038823E9F066
:101C70008091D6061F928F938CE191E09F938F9372
:101C80001F9284E68F9381E496E09F938F930E9446
:101C90006E1E81E496E00E940E0C8DB79EB70896EA
:101CA0000FB6F8949EBF0FBE8DBF0E94A30388237A
:101CB000E9F08091DB061F928F938CE091E09F9377
:101CC0008F931F9284E68F9381E496E09F938F9386
:101CD0000E946E1E81E496E00E940E0CEDB7FEB7E6
:101CE00038960FB6F894FEBF0FBEEDBF0E94A30357
:101CF0008823F1F08091DD061F928F938CEF90E0A6
:101D00009F938F931F9284E68F9381E496E09F9335
:101D10008F930E946E1E81E496E00E940E0C2DB7F8
:101D20003EB7285F3F4F0FB6F8943EBF0FBE2DBFA2
:101D30000E94A3038823E9F08091DC061F928F9311
:101D40008CEE90E09F938F931F9284E68F9381E4B3
:101D500096E09F938F930E946E1E81E496E00E940E
:101D60000E0C8DB79EB708960FB6F8949EBF0FBEA7
:101D70008DBF0E94A303882311F18091D906882387
:101D800009F4B4C083EB91E09F938F938CED90E0C6
:101D90009F938F931F9284E68F9381E496E09F93A5
:101DA0008F930E946E1E81E496E00E940E0CEDB7A8
:101DB000FEB738960FB6F894FEBF0FBEEDBF0E9477
:101DC000A303882301F18091E1068F938091E006BF
:101DD0008F938CEC90E09F938F931F9284E68F9368
:101DE00081E496E09F938F930E946E1E81E496E0BB
:101DF0000E940E0C2DB73EB7285F3F4F0FB6F894E8
:101E00003EBF0FBE2DBF0E94A3038823F9F080912F
:101E1000DF068F938091DE068F938CEB90E09F938B
:101E20008F931F9284E68F9381E496E09F938F9324
:101E30000E946E1E81E496E00E940E0C8DB79EB744
:101E400008960FB6F8949EBF0FBE8DBF0E94A303E5
:101E50008823F9F08091E3068F938091E2068F93B7
:101E60008CEA90E09F938F931F9284E68F9381E496
:101E700096E09F938F930E946E1E81E496E00E94ED
:101E80000E0CEDB7FEB738960FB6F894FEBF0FBE36
:101E9000EDBF8DB69EB684E690E00E941C21082F0F
:101EA00010E0C80101962DB73EB7281B390B0FB6BD
:101EB000F8943EBF0FBE2DBF8DB79EB701966C0143
:101EC0005C01F12CE12CE016F1069CF4C7018B5962
:101ED0009F4F0E941C21F50181935F01FFEFEF1AD4
:101EE000FF0AF1CF823009F096CE81CE8EEA91E0E2
:101EF0004BCFF601E00FF11F1082B601CE01019623
:101F00000E94710B0FB6F8949EBE0FBE8DBE8091DD
:101F1000D1079091D207009749F169817A816115C3
:101F2000710511F14091D3075091D4072D813E8165
:101F300042175307C8F00E94B5238D819E8190936C
:101F4000D6078093D5071E821D82CE0101960E947E
:101F50002A0B81EA91E00E940E0C0E946B0C81E832
:101F600097E00E94670C04CE0E94662289819A81C4
:101F70009093D2078093D1078B819C819093D40753
:101F80008093D3078D819E819093D6078093D50748
:101F90001A8219821C821B82D6CF1F920F920FB613
:101FA0000F9211242F933F938F939F93AF93BF93DF
:101FB0008091BB069091BC06A091BD06B091BE0673
:101FC0003091BA0623E0230F2D3758F50196A11D55
:101FD000B11D2093BA068093BB069093BC06A093D4
:101FE000BD06B093BE068091BF069091C006A09139
:101FF000C106B091C2060196A11DB11D8093BF0616
:102000009093C006A093C106B093C206BF91AF9152
:102010009F918F913F912F910F900FBE0F901F9026
:10202000189526E8230F0296A11DB11DD2CF1F924D
:102030000F920FB60F9211242F933F934F935F93FC
:102040006F937F938F939F93AF93BF93EF93FF9380
:10205000E0910C01F0910D010995FF91EF91BF9175
:10206000AF919F918F917F916F915F914F913F9130
:102070002F910F900FBE0F901F9018951F920F92E7
:102080000FB60F9211242F933F934F935F936F934B
:102090007F938F939F93AF93BF93EF93FF93E091C1
:1020A0000A01F0910B010995FF91EF91BF91AF915A
:1020B0009F918F917F916F915F914F913F912F9160
:1020C0000F900FBE0F901F9018951F920F920FB692
:1020D0000F9211242F933F934F935F936F937F93AE
:1020E0008F939F93AF93BF93EF93FF93E09108017A
:1020F000F09109010995FF91EF91BF91AF919F91E7
:102100008F917F916F915F914F913F912F910F90A0
:102110000FBE0F901F9018951F920F920FB60F923F
:1021200011242F933F934F935F936F937F938F93DC
:102130009F93AF93BF93EF93FF93E0910601F091CC
:1021400007010995FF91EF91BF91AF919F918F91F9
:102150007F916F915F914F913F912F910F900FBEA3
:102160000F901F9018951F920F920FB60F92112487
:102170002F933F934F935F936F937F938F939F938F
:10218000AF93BF93EF93FF93E0910401F0910501AA
:102190000995FF91EF91BF91AF919F918F917F91A1
:1021A0006F915F914F913F912F910F900FBE0F90C4
:1021B0001F9018951F920F920FB60F9211248F93B4
:1021C0009F938091E1009091E100937F9093E100D3
:1021D00083FF0FC01092E90091E09093EB00109202
:1021E000EC0092E39093ED001092D00698E090936B
:1021F000F00082FF22C093E09093E9009091F200FA
:10220000992319F09AE39093E8009091D8059923C7
:1022100041F09091D80591509093D805911101C04B
:102220005D9A9091CF06992341F09091CF069150FD
:102230009093CF06911101C0289A84FF18C0809115
:10224000E2008E7E81608093E2008091E1008F7ECB
:102250008093E1008091D9058E7E80618093D905BD
:102260009F918F910F900FBE0F901F90189580FF38
:10227000F7CF8091E2008E7E80618093E2008091B2
:10228000E1008E7E8093E1008091D9058E7E816091
:10229000E5CF1F920F920FB60F921124CF92DF92CB
:1022A000EF92FF920F931F932F933F934F935F9360
:1022B0006F937F938F939F93AF93BF93EF93FF930E
:1022C000CF93DF93CDB7DEB76C97DEBFCDBF109253
:1022D000E9008091E80083FF25C068E0CE014596C3
:1022E0000E94C60482EF8093E8008D8987FF39C081
:1022F0009091E80090FFFCCF982F907609F034C1C0
:102300009E894F89588D2F89F88C911131C0803862
:1023100061F58091DA058093F1001092F1008EEF63
:102320008093E8006C960FB6F894DEBF0FBECDBF69
:10233000DF91CF91FF91EF91BF91AF919F918F91DD
:102340007F916F915F914F913F912F911F910F91CD
:10235000FF90EF90DF90CF900F900FBE0F901F90E7
:1023600018959EEF9093E800C7CF1092F100D5CF5B
:10237000913059F48111D3CF4130510581F68091CC
:10238000DA058D7F8093DA05CACF933049F4811145
:10239000C6CF4130510519F68091DA058260F2CF3F
:1023A000953041F48091E80080FFFCCF20682093B5
:1023B000E300B5CF963009F0A9C00B8D1C8D22E04B
:1023C0001092E9001092D6051092D505F2122EC097
:1023D0001092D4051092D3050E9495041F8299E0B3
:1023E0009983FA8291E09E8390EA98879AEF998781
:1023F0002091D5053091D605275F3F4F3C832B8335
:102400008D831092E9001092D6051092D505109395
:10241000D4050093D30549E050E0BE016F5F7F4FC4
:1024200080E00E946F040E94950479CF1093D40538
:102430000093D3050E945902DC0112960D911C9164
:102440000115110509F451C1D801ED91FC910480E9
:10245000F581E02DBE016B5E7F4FC80109950097A5
:1024600009F03EC1F80100851185EACFF3E0FF12C3
:102470000EC08F89882309F440C0823061F440E89F
:1024800062E18EE092E00E943C04811148CF81E23B
:102490008093EB0047CF813029F440E868E085E085
:1024A00092E0F1CF833099F70E945902DC01129635
:1024B000ED90FC908E010F5F1F4F6801E114F10455
:1024C00079F0D701ED91FC910680F781E02DB801FC
:1024D000C7010995080F111DF701E084F184EECFC3
:1024E000D8011C92F60101900020E9F73197BF0155
:1024F0006C197D0940E0C601C6CF6FEE71E0FB01AB
:10250000449150E080E80E946F0409CF973009F4AD
:10251000BECF983021F481E08093F10000CF993054
:1025200009F0FDCE837009F0B2CFEAE2F1E081E07C
:1025300031E096E32191222371F08093E9003093FA
:10254000EB00DF0111972C912093EC009093ED00AC
:102550008F5F873079F78EE78093EA001092EA0068
:102560008F898093D006DBCE8B8D9C8D1092E900F5
:102570001092D6051092D5059093D4058093D3057B
:10258000898D811192C08E899D89913A49F4813259
:1025900009F07DCF47E050E06BE171E080E0B3CF20
:1025A000913209F074CF833269F48F89988DB0E04D
:1025B000A0E08093000190930101A0930201B093E9
:1025C0000301ADCE803269F48091E80082FFFCCF38
:1025D00067E08BE191E00E94C6048BEF8093E800F6
:1025E0009ECE823209F09BCE8F8980932201EEEF3E
:1025F000FFE7859194918B3F9C4D51F1E0E0F8E02D
:1026000080911B0190911C01A0911D01B0911E01B0
:10261000803B9440A105B105F1F48091220180FD39
:102620001AC0EE3F8AE0F80789F587E797E79183BC
:102630008083809160008093D70588E19BE00FB68E
:10264000F894A895809360000FBE9093600067CEC9
:10265000EEEFFAE0D5CF808191818737974709F077
:102660005ECEA89580916000886180936000809123
:10267000D70580936000EE3F2AE0F20789F0809151
:10268000FE0A9091FF0A9183808349CE80819181D7
:102690008737980751F29093FF0A8093FE0AC5CFBF
:1026A0001092FF0A1092FE0A3ACE0E945902DC01F3
:1026B00012960D911C910115110509F4E8CED8016F
:1026C000ED91FC910190F081E02DBE016B5E7F4F9A
:1026D000C8010995811123CEF80100851185EBCF42
:1026E000181619060CF41BCED2CEF1E0FF12BECEA6
:1026F00063EF71E004CF1F920F920FB60F92112477
:102700002F933F934F935F936F937F938F939F93F9
:10271000AF93BF93EF93FF9384EE96E00E9475050D
:10272000FF91EF91BF91AF919F918F917F916F91A9
:102730005F914F913F912F910F900FBE0F901F907F
:1027400018951F920F920FB60F9211242F938F930B
:102750009F93EF93FF93E091F406F091F50680814B
:10276000E091FA06F091FB0682FD1BC090818091FA
:10277000FD068F5F8F732091FE06821741F0E09176
:10278000FD06F0E0EC51F94F958F8093FD06FF9127
:10279000EF919F918F912F910F900FBE0F901F90EF
:1027A00018958081F4CF1F920F920FB60F921124CB
:1027B0002F933F934F935F936F937F938F939F9349
:1027C000AF93BF93CF93EF93FF9383B190916B003F
:1027D00089238093FE058091FD059091FE05892750
:1027E0008093FC058091FE058093FD05C0E08091FB
:1027F000FB05C81760F4EC2FF0E0EE0FFF1FED5063
:10280000FA4F0190F081E02D0995CF5FF0CFFF9155
:10281000EF91CF91BF91AF919F918F917F916F91E8
:102820005F914F913F912F910F900FBE0F901F908E
:102830001895E4EEF6E01382128288EE93E0A0E0B1
:10284000B0E084839583A683B7832AE431E03183A3
:1028500020832DEC30E0358724872CEC30E037875F
:10286000268728EC30E0318B208B29EC30E0338B4D
:10287000228B2AEC30E0358B248B2EEC30E0378B2A
:10288000268B118E128E138E148EE1E8F7E01382E0
:10289000128284839583A683B7838CE591E091832C
:1028A00080838FEF9FEF9587848788E791E09093EF
:1028B000140880931308E8E1F8E020812B7F20833F
:1028C0002EE631E03093120820931108909300080F
:1028D0008093FF07E4E0F8E020812B7F2083909332
:1028E000EE078093ED07E2EFF7E020812B7F208356
:1028F0009093DC078093DB07E0EEF7E080818B7F2D
:1029000080830E94B2036093D7077093D8078093A7
:10291000D9079093DA076EE675E081ED97E00E94A3
:10292000710B0C94B203CF93DF9300D000D000D092
:10293000CDB7DEB7789484B5826084BD84B58160FC
:1029400084BD85B5826085BD85B5816085BD80917A
:102950006E00816080936E001092810080918100F2
:1029600082608093810080918100816080938100EA
:1029700080918000816080938000809191008260CE
:10298000809391008091910081608093910080916B
:1029900090008160809390008091C100846080935A
:1029A000C1008091C10082608093C1008091C1000C
:1029B00081608093C1008091C30081608093C300D7
:1029C0008091C00082608093C0008091C2008160CD
:1029D0008093C20080917A00846080937A00809115
:1029E0007A00826080937A0080917A00816080937F
:1029F0007A0080917A00806880937A001092D006E5
:102A00001092DA051092D9058091D70081608093E9
:102A1000D70080EA8093D80089B5806189BD89B5E7
:102A2000826089BD09B400FEFDCF61E070E080E006
:102A300090E00E9471038091D8008F7C8061809328
:102A4000D8008091E000807F8093E0008091E100D9
:102A50008E7E8093E1008DE08093E200559A209A6B
:102A600060E084E00E94100361E085E00E941003B2
:102A700061E085E00E94E2020E94BE0A0CE311E0E0
:102A800062E0F80181918F010E941003F1E00234AD
:102A90001F07B1F7E091F406F091F50682E080831C
:102AA000E091F006F091F1061082E091F206F091CB
:102AB000F3068FEC80831092FC06E091F806F0910B
:102AC000F90686E08083E091F606F091F7068081B2
:102AD00080618083E091F606F091F706808188603E
:102AE0008083E091F606F091F7068081806880830C
:102AF000E091F606F091F70680818F7D80838FEF5D
:102B00009FEF90938E0780938D0768EE73E080E0CF
:102B100090E00E94710380912806882331F081E8BB
:102B200097E09093DC058093DB050E94A303882344
:102B300021F086EB91E00E940E0C84EE96E09093DB
:102B4000D4068093D3061092DE051092DD0562E074
:102B500070E089E00E94BE0370E060E087E00E94C0
:102B6000BE038091D60690E00E94080764EF71E0F2
:102B700080E090E00E9471038091D60690E00E9470
:102B8000080764EF71E080E090E00E94710383E445
:102B90000E94100783E490E00E94920C8093250627
:102BA00088E40E94100788E490E00E94920C8093D1
:102BB000220668EB7BE080E090E00E94710381E0F8
:102BC00080930D0660E085E00E94E20281E897E0D4
:102BD0000E94670C84ED91E00E94810C85EE91E0EB
:102BE0000E94810C61E272E081E897E00E94D304C8
:102BF0002AE041E050E060E070E081E897E00E9468
:102C0000910B86EF91E00E940E0C2AE044E050E028
:102C100060E070E081E897E00E94910B88EF91E01E
:102C20000E94810C81E897E00E94670C8091250644
:102C3000882309F4A2C00E94A303882321F08FEF08
:102C400091E00E940E0C0E94A303882321F086E3EA
:102C500092E00E940E0C0E94A303882321F086E5D7
:102C600092E00E940E0C8091D706813079F462E0E8
:102C700083E198E00E947E0A63E08DEE97E00E9477
:102C80007E0A69E08FEF97E00E947E0A8091D70666
:102C90008230D1F583B190916B0089238093FE053A
:102CA0008091FE058093FD0589B18F7080930A069F
:102CB00080910A06809309066FE377E082E00E9424
:102CC000020A80930B0680910B0687FD1DC090E0E1
:102CD00080E02CED35E0FC01EE0FFF1FEF51FA4FC5
:102CE00031832083019689309105A9F78AE080938A
:102CF000E0051092190610921A0682E08093DF0513
:102D00008091DF050E9498090E94930D8091D90659
:102D10008130D9F58093270681E090E00E940C076E
:102D200070E060E089E10E94BE038EE00E9410071F
:102D30000091D5071091D607C801019611F481E0E2
:102D400090E00E94CA217C016091D1077091D20766
:102D50000E94B52320E031E0822F90E08017910798
:102D6000B8F4F701E80FF91F4081403521F4855E82
:102D7000994FFC0130832F5FEFCF0E94A30388237C
:102D800009F461CF8AE192E05CCF10922706D0CFA0
:102D900081E897E00E94670C01E416E057E5252ED4
:102DA00054E0352E67E4E62E64E0F62E79E2472EF5
:102DB00072E0572EE0E56E2EE4E07E2E81E897E08B
:102DC0000E94EE0618161906ACF481E897E00E94FE
:102DD000AC0690910C06883009F48FC28D3009F052
:102DE00093C2E92FF0E0E25FF94F108210920C06D7
:102DF00097FF96C2D090D70631E0D31272C067E039
:102E000083E198E00E943109882309F467C6D092D3
:102E1000B9062091B7063091B806C901880F991FED
:102E2000820F931F209121083091220840912108A0
:102E30005091220824173507A9F7820F931F969502
:102E40008795969587959093B8068093B70667E027
:102E50008FEF97E00E9431098823F1F02091B506A9
:102E60003091B606C901880F991F820F931F2091D8
:102E70000D0830910E0840910D0850910E0824174E
:102E80003507A9F7820F931F969587959695879595
:102E90009093B6068093B50667E08DEE97E00E94AA
:102EA00031098823F1F02091B3063091B406C901AD
:102EB000880F991F820F931F2091FB073091FC0709
:102EC0004091FB075091FC0724173507A9F7820FA3
:102ED000931F96958795969587959093B4068093C2
:102EE000B3068091D706823079F580911906882340
:102EF00009F4F7C580911A0690E0880F892F881F82
:102F0000990B892B09F4EDC580911A068F77809370
:102F10001A0681E08093B9068091DB060E941808AA
:102F20009093B8068093B7068091DC060E9418083B
:102F30009093B6068093B5068091DD060E9418082E
:102F40009093B4068093B3068091B9068111CCC5E5
:102F50000E94B2038090D7079090D807A090D9071D
:102F6000B090DA07681979098A099B096A3F7105E7
:102F700081059105A0F0D09010016D2D85E00E9493
:102F8000E20281E0D826D09210010E94B203609341
:102F9000D7077093D8078093D9079093DA07809169
:102FA000B206882309F47AC08091AA0681110DC067
:102FB0000E94B2036093A6067093A7068093A806AA
:102FC0009093A90681E08093AA060E94B2038090A4
:102FD000A6069090A706A090A806B090A90668192A
:102FE00079098A099B096A3F71058105910508F4F1
:102FF00055C00E94B2036093A6067093A706809303
:10300000A8069093A9068091B7069091B8060097FC
:1030100009F481C58C3DE5E09E0708F06AC5209162
:10302000E2063091E3068217930720F49093E306BB
:103030008093E2062091E0063091E1064091E2069D
:103040005091E306240F351F369527953093DF0600
:103050002093DE060E94DD0B8DE695E00E940E0CAB
:103060008091E2069091E3060E94DD0B8DE695E0EB
:103070000E940E0C8091DE069091DF060E94DD0B0F
:103080008DE695E00E940E0C8091E0069091E1069D
:103090000E94DD0B81E897E00E94670C8091390661
:1030A00081110DC00E94B2036093350670933606FD
:1030B000809337069093380681E08093390680919B
:1030C0002D0681110DC00E94B203609329067093F2
:1030D0002A0680932B0690932C0681E080932D0680
:1030E0000E94B2038090350690903606A090370675
:1030F000B0903806681979098A099B09653F7140C3
:103100008105910508F4ACC50E94B20360933506B1
:103110007093360680933706909338068091280680
:10312000882309F452C00E94A303882331F08091C0
:10313000B7069091B8060E94DD0B0E94A303882376
:1031400021F08DE695E00E940E0C0E94A3038823D7
:1031500031F08091B3069091B4060E94DD0B0E947D
:10316000A303882321F08DE695E00E940E0C0E94B7
:10317000A303882331F08091B5069091B6060E9492
:10318000DD0B0E94A303882321F08DE695E00E94C9
:103190000E0C0E94A3038823C1F0809127061F9282
:1031A0008F938DE293E09F938F931F9284E68F938A
:1031B0001F930F930E946E1E81E496E00E940E0CF6
:1031C0000FB6F894DEBF0FBECDBF2091B706309189
:1031D000B806D09025062115310509F4CCC480909D
:1031E000E2069090E306B12CA12C50E040E02819B3
:1031F00039094A095B09ADE1B0E00E9451212091F3
:10320000E0063091E10650E040E0281939094A090A
:103210005B090E9432212F5F3F4F4F4F5F4F20933A
:10322000260680912606D81619F090E00E9408071D
:10323000809126068093250684E00E94B90280933F
:1032400024062091B3063091B4062115310599F07A
:103250008091DE069091DF06885C91092817390776
:1032600008F08CC410920F0180910F01813009F099
:1032700089C4809323062091B5063091B6062115A6
:10328000310599F08091DE069091DF0688539F4FBB
:103290008217930708F098C410920E0180910E01D6
:1032A000813009F095C4809321068091D906813040
:1032B00019F48DE00E9410078CE3882E81E0982E8F
:1032C000D12CC12CF40181914F010E94B9029601C9
:1032D0002F5F3F4F5901892B51F4809124068111B2
:1032E0009AC4F601E55EF94F8081811197C46501AA
:1032F00086E0A816B10431F7B3C4992309F47ACD56
:10330000915090930C0676CD9A3038F4E92FF0E086
:10331000E25FF94F80839F5FF4CF10920C066ACD75
:1033200080910E068C3409F42CC20CF0B6C08434A3
:1033300009F4A9C30CF08BC08B3209F4F3C28D32AF
:1033400009F40CC38111C3C30E94A303882321F095
:1033500088E792E00E940E0C0E94A303882321F0CC
:1033600083E892E00E940E0C0E94A303882321F0C0
:1033700089E992E00E940E0C0E94A303882321F0A9
:1033800086EB92E00E940E0C0E94A303882321F09A
:1033900089EC92E00E940E0C0E94A303882321F086
:1033A00081EE92E00E940E0C0E94A303882321F07C
:1033B00082EF92E00E940E0C0E94A303882321F06A
:1033C00083E193E00E940E0C0E94A303882321F066
:1033D0008BE693E00E940E0C0E94A303882321F049
:1033E0008AE893E00E940E0C0E94A303882321F038
:1033F0008DEA93E00E940E0C0E94A303882321F023
:1034000087EC93E00E940E0C0E94A303882321F016
:1034100080EE93E00E940E0C0E94A303882321F00B
:103420008FEE93E00E940E0C0E94A303882321F0EC
:1034300085E094E00E940E0C0E94A303882321F0F3
:1034400088E693E00E940E0C10920F06E4C28834C6
:1034500009F47ACF893409F4BEC2853409F037C340
:1034600080E196E00E94411E863008F030C38093D0
:10347000D8060E94A303882309F4F5C0E091D8067A
:10348000F0E0EE0FFF1FE05DFE4F81818F938081A2
:103490008F938DED92E09F9310C1833509F4E6C0C0
:1034A000D4F4803509F48BC1823509F4F3C28D342C
:1034B00009F00DC38091B20691E089278093B2068E
:1034C000882309F4C8C00E94A303882309F4BCCF51
:1034D0008AE594E0B7CF8735B9F1883509F45CC245
:1034E000863509F0F4C280910F068D3309F0EFC2E2
:1034F00080E196E00E94411E5C018FEF8A0D8E31C3
:1035000008F089C20E94A3036501DD248823B1F07D
:10351000DF92CF9284E293E09F938F931F9284E691
:103520008F931F930F930E946E1E81E496E00E947A
:103530000E0C0FB6F894DEBF0FBECDBFA092D6061C
:10354000C6010E9408078FC00E94A303882321F0B0
:1035500081E294E00E940E0C8091D706813011F533
:103560000E94A3038823F1F089E394E09F938F9353
:1035700080E494E09F938F93FF92EF9283E792E031
:103580009F938F931F9284E68F931F930F930E94B4
:103590006E1E81E496E00E940E0C0FB6F894DEBF1A
:1035A0000FBECDBF8091D706823041F50E94A303A4
:1035B000882321F1E091D706E150FF0BEE0FFF1FAA
:1035C000EE5BFE4F81818F9380818F937F926F920C
:1035D000FF92EF928FE492E09F938F931F9284E685
:1035E0008F931F930F930E946E1E81E496E00E94BA
:1035F0000E0C0FB6F894DEBF0FBECDBF8091D7067C
:10360000833008F421CF0E94A303882309F41CCF40
:10361000E091D706E150FF0BEE0FFF1FEE5BFE4F70
:1036200081818F9380818F933F922F92FF92EF92AF
:103630005F924F921F9284E68F931F930F930E9485
:103640006E1E81E496E00E940E0C0FB6F894DEBF69
:103650000FBECDBFF9CE0E94A303882321F084E7DB
:1036600094E00E940E0C0E94D70AEECE80910F06C5
:103670008D3309F080C080911006873519F40E94BF
:10368000180CF1CF893459F582E196E00E94411E71
:103690008093D7060E94A303882329F3E091D706DD
:1036A000E150FF0BEE0FFF1FEE5BFE4F81818F930A
:1036B00080818F9381E193E09F938F931F9284E6A3
:1036C0008F931F930F930E946E1E81E496E00E94D9
:1036D0000E0C0FB6F894DEBF0FBECDBFC4CF813342
:1036E000B9F480911106803209F0BDCF82E196E0F5
:1036F0000E94411E8093DB060E94A303882309F4E5
:10370000B2CF8091DB061F928F9385E093E0D4CFF8
:103710008233B9F480911106803209F0A4CF82E19E
:1037200096E00E94411E8093DD060E94A303882339
:1037300009F499CF8091DD061F928F9388EF92E074
:10374000BBCF833309F08FCF80911106803209F00F
:103750008ACF82E196E00E94411E8093DC060E949F
:10376000A303882309F47FCF8091DC061F928F93F7
:103770008BEE92E0A1CF8F3309F0A9C10E94930D87
:1037800063CE80E196E00E94411E823008F09FC126
:103790008093D9060E94A303882309F464CF809103
:1037A000D906811109C08DEA91E09F938F93E2EDD4
:1037B000F2E0FF93EF9382CF82EB91E0F6CF80911E
:1037C0000F068F3309F083C180910D06882309F419
:1037D000A6C00E94A303882321F088E693E00E94FC
:1037E0000E0C0E94A303882321F08DE894E00E9430
:1037F0000E0C0E94A303882321F08BEA94E00E9420
:103800000E0C0E94A303882321F08DE894E00E940F
:103810000E0C83E40E9410070E94A3038823D1F0BA
:1038200083E490E00E94920C9F938F938BEB92E045
:103830009F938F931F9284E68F931F930F930E9401
:103840006E1E81E496E00E940E0C0FB6F894DEBF67
:103850000FBECDBF84E40E94100784E490E00E9474
:10386000920C0E94A3038823F9F0E091D806F0E0BF
:10387000EE0FFF1FE05DFE4F81818F9380818F935C
:103880008AEA92E09F938F931F9284E68F931F930F
:103890000F930E946E1E81E496E00E940E0C0FB6FC
:1038A000F894DEBF0FBECDBF88E40E9410070E94CF
:1038B000A3038823D1F088E490E00E94920C9F93A8
:1038C0008F9388E992E09F938F931F9284E68F9362
:1038D0001F930F930E946E1E81E496E00E940E0CCF
:1038E0000FB6F894DEBF0FBECDBF8CE40E94100768
:1038F0000E94A303882309F4A7CD8CE490E00E94E2
:10390000920C9F938F9384E892E09F938F931F92E2
:1039100084E68F931F930F930E946E1E92CE89ECC4
:1039200094E090CD0E94A303882321F08CED94E0D5
:103930000E940E0C809127068F5F8093270690913E
:1039400022069817C8F4909327060E94A3038823A1
:1039500099F083EE94E00E940E0C0EC00E94A30327
:10396000882321F089EF94E00E940E0C80912706B5
:10397000815041F0809327068091270690E00E94B5
:103980000C0762CD81E0809327060E94A303882361
:1039900099F380E095E0DFCF8091240681110BC080
:1039A0008EE00E9410070E94A303882321F086E185
:1039B00095E00E940E0C80912406813009F044CDE0
:1039C0008DE00E9410070E94A303882309F43CCDD8
:1039D0008EE195E037CD80910F068D3309F04EC012
:1039E00080911006803519F08E3409F042C060E1F4
:1039F00076E0CE0101960E94710B8D819E81069723
:103A000079F085E295E00E94810C10920F06CE01BC
:103A100001960E942A0B8EE096E00E94810CEAC972
:103A200069817A816115710579F046E050E081ED98
:103A300097E00E94320B0E94F80A84E395E00E940E
:103A40000E0C0E946B0CE1CF8091D1079091D207B0
:103A5000009711F00E9466221092D2071092D107AF
:103A60001092D6071092D5071092D4071092D30760
:103A7000E2CF8BE395E00E94810CE6CC8F3339F5E1
:103A80000E946B0CE1CC8091280691E089278093FD
:103A90002806DACC0E94A303882321F08BE495E06A
:103AA0000E940E0CD12CC12C60E0C6010E94242182
:103AB000FFEFCF1ADF0AC11424E0D206A9F70E9453
:103AC000A303882309F4C0CC87E595E0BBCC6EEC5A
:103AD00072E08EE096E00E945F1E9DCF1092B906C4
:103AE000B6C91092B90630CA61E085E00E94E202D0
:103AF00056CA8C3DF5E09F0709F49CCA2091E00668
:103B00003091E1062817390708F094CA9093E1062E
:103B10008093E0068FCA0E94B2036093A60670935A
:103B2000A7068093A8069093A9060E94A303882362
:103B300009F4B4CAE091D706E150FF0BEE0FFF1F66
:103B4000EE5BFE4F81818F9380818F938FE393E0B3
:103B50009F938F931F9284E68F931F930F930E94DE
:103B60006E1E81E496E00E940E0C0FB6F894DEBF44
:103B70000FBECDBF93CAD092260653CB81E080936F
:103B80000F0172CB811177CB80912306882309F432
:103B900072CB8091270681508093270681110CC03B
:103BA00080912206809327060E94A303882321F098
:103BB0008FE695E00E940E0C8091270690E00E940F
:103BC0000C071092230657CB81E080930E0166CB41
:103BD00081116BCB80912106882309F466CB8091FB
:103BE00027068F5F8093270690912206981758F436
:103BF00081E0809327060E94A303882321F087E8B1
:103C000095E00E940E0C8091270690E00E940C0720
:103C1000109221064ACB813009F069CB0E94B20391
:103C20002091290630912A0640912B0650912C06AE
:103C3000621B730B840B950B6938734181059105E9
:103C400008F455CB0E94B2036093290670932A06AC
:103C500080932B0690932C06B50182E10E94BE034F
:103C600080E090E0892B09F4A9C80E9461058823AF
:103C700009F494C80E94000091C881ED97E00C946B
:103C80002A0BFC0188279927E89421912032E9F337
:103C9000293010F02E30C8F32B3241F02D3239F498
:103CA000689404C00E94661E820F911D21912053CA
:103CB0002A30C0F31EF4909581959F4F0895FB0123
:103CC000DC0105900D920020E1F708957AE0979FBE
:103CD000902D879F802D910D11240895AEE0B0E0C6
:103CE000E4E7FEE10C946A210D891E898F89988D85
:103CF0002EE02C831A83098397FF02C080E090E8AE
:103D000001979E838D83AE01455E5F4F698D7A8DED
:103D1000CE0101960E949E1E4D815E8157FD0AC014
:103D20002F813885421753070CF49A01020F131F95
:103D3000F80110822E96E4E00C948621ABE0B0E00E
:103D4000E4EAFEE10C945C217C013B018A01FC0168
:103D500017821682838181FFC8C1CE0101965C0162
:103D6000F7019381F30193FD859193FF81913F01C9
:103D7000882309F453C1853239F493FD859193FF6B
:103D800081913F01853229F4B70190E00E948E2095
:103D9000E7CF912C212C312CFFE1F31538F08B3239
:103DA00011F190F4803209F1833229F137FC3CC0E3
:103DB00020ED280F2A3050F536FE20C08AE0989E6C
:103DC000200D1124922E06C08D3291F0803371F7B0
:103DD000689430F8F30193FD859193FF81913F0141
:103DE0008111DACF21C0689431F8689432F8F2CFAB
:103DF000689433F8EFCF689434F8ECCFEAE02E9E65
:103E0000200D1124222E689435F8E4CF8E3229F447
:103E100036FC04C1689436F8DDCF8C3619F468940A
:103E200037F8D8CF8836B1F2982F9F7D95549330CC
:103E3000E0F08336A1F18337C1F1833509F063C027
:103E40002801F2E04F0E511CF801C080D180692D8D
:103E500070E036FC02C06FEF7FEFC6010E94782051
:103E60004C01689437F882010AC00C5F1F4FFFE3D2
:103E7000F98388248394912C6501E89437F833FE04
:103E80002DC0522C8114910471F5552009F468CF8E
:103E9000B70180E290E00E948E205A94F6CFF8019C
:103EA000808189830E5F1F4FE4CF2801F2E04F0E1F
:103EB000511CF801C080D180692D70E036FC02C031
:103EC0006FEF7FEFC6010E9483204C018201D5CFA6
:103ED000B70180E290E00E948E202A9428141904F1
:103EE00009F0B0F7CECFF60137FC859137FE81910E
:103EF0006F01B70190E00E948E2051105A94F1E0BA
:103F00008F1A9108BFCF843619F0893609F077C02F
:103F1000F80137FE6BC060817181828193810C5FF3
:103F20001F4FF32DFF763F2E97FF09C09095809588
:103F3000709561957F4F8F4F9F4F689437F82AE0B7
:103F400030E0A5010E94BE20C82ECA188C2C432C3C
:103F500036FE0CC0E89440F8C91440F434FE05C0A5
:103F600032FC03C0F32DFE7E4F2E892C44FE95C0FB
:103F7000FE01EC0DF11D8081803309F087C0242DF6
:103F8000297E422E842D8870582E43FC95C040FE19
:103F90008FC09C2C821418F42C0C922C981844FE80
:103FA00091C0B70180E390E00E948E2042FE09C0DC
:103FB00088E790E041FE02C088E590E0B7010E94EA
:103FC0008E20C91408F48AC0CA94D12C9FEFC91A54
:103FD000D90ACA0CDB1CF60182916F01B70190E08F
:103FE0000E948E20AC14BD04B1F74FCF6081718167
:103FF000072E000C880B990B0E5F1F4F92CFD32C0E
:10400000E894D4F82AE030E0853739F1232D297F70
:10401000D22E8F3601F148F48835A9F0F701868158
:1040200097812B96E2E10C947821803749F088370C
:10403000A9F7D4FE02C06894D2F820E130E00DC0A8
:104040006894D4F8F6CF34FE03C0822F8660D82E51
:1040500020E132E002C028E030E0F801D7FE0FC0D6
:1040600060817181828193810C5F1F4FA5010E9445
:10407000BE20C82ECA183D2CE89437F867CF60815F
:10408000718190E080E00E5F1F4FF0CF42FC02C0D4
:10409000839478CF8394839475CF842D867809F4A4
:1040A00071CFF6CFB70180E290E00E948E2083941A
:1040B0008214C0F3512C73CF522C5818821408F478
:1040C0006ECFF8CF842D867809F47BCF8BE241FE4A
:1040D00080E247FC8DE2B70190E071CFB70180E349
:1040E00090E00E948E209A946CCF8FEF9FEF99CF33
:1040F000FC010590615070400110D8F780959095B3
:104100008E0F9F1F0895FC016150704001900110B7
:10411000D8F7809590958E0F9F1F08950F931F934A
:10412000CF93DF93182F092FEB018B8181FD09C0FD
:104130001FEF0FEF812F902FDF91CF911F910F91E4
:10414000089582FF14C02E813F818C819D812817A4
:1041500039073CF4E881F981CF010196998388837E
:1041600010838E819F8101969F838E83E3CFE885A4
:10417000F985812F0995892BA1F3DACFFA01AA27B6
:10418000283051F1203181F1E8946F936E7F6E5F9A
:104190007F4F8F4F9F4FAF4FB1E03ED0B4E03CD048
:1041A000670F781F891F9A1FA11D680F791F8A1F2B
:1041B000911DA11D6A0F711D811D911DA11D20D092
:1041C00009F468943F912AE0269F11243019305D4C
:1041D0003193DEF6CF010895462F4770405D41933D
:1041E000B3E00FD0C9F7F6CF462F4F70405D4A338A
:1041F00018F0495D31FD4052419302D0A9F7EACF52
:10420000B4E0A6959795879577956795BA95C9F780
:1042100000976105710508959B01AC010A2E069473
:104220005795479537952795BA95C9F7620F731F2C
:10423000841F951FA01D0895F999FECF92BD81BDE1
:10424000F89A992780B50895262FF999FECF1FBABD
:1042500092BD81BD20BD0FB6F894FA9AF99A0FBEAF
:1042600001960895052E97FB1EF400940E944921A3
:1042700057FD07D00E94932107FC03D04EF40C9405
:10428000492150954095309521953F4F4F4F5F4FB5
:10429000089590958095709561957F4F8F4F9F4FB2
:1042A00008950E94B521A59F900DB49F900DA49FE5
:1042B000800D911D112408952F923F924F925F928D
:1042C0006F927F928F929F92AF92BF92CF92DF9226
:1042D000EF92FF920F931F93CF93DF93CDB7DEB78B
:1042E000CA1BDB0B0FB6F894DEBF0FBECDBF09941F
:1042F0002A88398848885F846E847D848C849B8476
:10430000AA84B984C884DF80EE80FD800C811B8183
:10431000AA81B981CE0FD11D0FB6F894DEBF0FBEB2
:10432000CDBFED010895A1E21A2EAA1BBB1BFD0112
:104330000DC0AA1FBB1FEE1FFF1FA217B307E40784
:10434000F50720F0A21BB30BE40BF50B661F771FDC
:10435000881F991F1A9469F76095709580959095BC
:104360009B01AC01BD01CF010895A29FB001B39F95
:10437000C001A39F700D811D1124911DB29F700D6E
:10438000811D1124911D0895EE0FFF1F0590F491DA
:10439000E02D09940F931F93CF93DF938230910503
:1043A00010F482E090E0E0912708F091280830E0D6
:1043B00020E0B0E0A0E0309799F42115310509F430
:1043C0004AC0281B390B24303105D8F58A819B81DE
:1043D0006115710589F1FB0193838283FE0111C090
:1043E000408151810281138148175907E0F0481735
:1043F000590799F4109761F012960C93129713963F
:104400001C933296CF01DF91CF911F910F910895A8
:104410000093270810932808F4CF2115310551F097
:104420004217530738F0A901DB019A01BD01DF01F2
:10443000F801C1CFEF01F9CF9093280880932708A6
:10444000CDCFFE01E20FF31F8193919322503109EA
:1044500039832883D7CF2091250830912608232B34
:1044600041F42091250130912601309326082093B4
:10447000250820912301309124012115310541F4B3
:104480002DB73EB74091270150912801241B350BD1
:10449000E0912508F0912608E217F307A0F42E1BFF
:1044A0003F0B2817390778F0AC014E5F5F4F241798
:1044B000350748F04E0F5F1F50932608409325089C
:1044C000819391939FCFF0E0E0E09CCFCF93DF9377
:1044D0000097E9F0FC01329713821282A09127081D
:1044E000B0912808ED0130E020E01097A1F4208180
:1044F0003181820F931F20912508309126082817BB
:10450000390709F061C0F0932608E0932508DF9190
:10451000CF910895EA01CE17DF07E8F54A815B8164
:104520009E0141155105B1F7E901FB83EA834991E9
:104530005991C40FD51FEC17FD0761F4808191815B
:104540000296840F951FE901998388838281938164
:104550009B838A83F0E0E0E012968D919C91139703
:104560000097B9F52D913C911197CD010296820FDC
:10457000931F20912508309126082817390739F60E
:10458000309751F51092280810922708B09326080A
:10459000A0932508BCCFD383C28340815181840F6F
:1045A000951FC817D90761F44E5F5F4F88819981C5
:1045B000480F591F518340838A819B819383828353
:1045C0002115310509F0B0CFF0932808E0932708B2
:1045D0009ECFFD01DC01C0CF13821282D7CFB0E0A5
:1045E000A0E0E5EFF2E20C945E218C01009751F41B
:1045F000CB010E94CA218C01C801CDB7DEB7E0E132
:104600000C947A21FC01E60FF71F9C01225031091E
:10461000E217F30708F49DC0D901CD91DC91119701
:10462000C617D70798F0C530D10530F3CE010497EF
:104630008617970708F3C61BD70B2297C193D19310
:104640006D937C93CF010E946622D6CF5B01AC1A9A
:10465000BD0A4C018C0E9D1EA0912708B091280820
:10466000512C412CF12CE12C109731F5809125082B
:10467000909126088815990509F05CC046165706E2
:1046800008F058C08091230190912401009741F4D3
:104690008DB79EB74091270150912801841B950B3F
:1046A000E817F90708F055C0F0932608E0932508AD
:1046B000F90171836083A0CF8D919C91119712961F
:1046C0006C90129713967C901397A815B90559F51D
:1046D0006C0142E0C40ED11CCA14DB0420F1AC0111
:1046E0004A195B09DA011296159780F0628273828B
:1046F00051834083D9016D937C93E114F10471F0EF
:10470000D7011396FC93EE93129776CF22968C0FD7
:104710009D1FF90191838083F301EFCFF093280867
:10472000E093270869CF4816590608F42C017D014B
:10473000D3019ACFCB010E94CA217C01009749F096
:10474000AE01B8010E94AC23C8010E946622870115
:1047500053CF10E000E050CFFB01DC0102C001901C
:104760000D9241505040D8F70895FB01DC010190B3
:104770000D920020E1F7089511E0C3EFD1E004C0ED
:10478000FE010E94C4212196C43FD107C9F7F894C5
:02479000FFCF59
:10479200FFFFFFFF0D040D040D040D040D040101C4
:1047A200017EFF06000000000000EF00E1000000B3
:1047B20000000000002908800000C1808100000084
:1047C2009905A005A405A905AE05B6051213141591
:1047D2000F0EBB055204000000009605F7042405E5
:1047E200E20555053305470500000000870602066D
:1047F200A8069D06EE06AC06CA0600000000FD07EC
:104802003008FC07000000005A092809FC074E4E38
:104812004E4E4E4E002A206F4F20454550524F4D6E
:104822002053657474696E6773204F6F202A0D0AD6
:10483200005072696F723A202020202000204F66BB
:104842006600204F6E000D0A496E697469616C69D9
:104852007A696E67204446506C61796572202E2E0B
:104862002E0D0A002A2A2A2A2A2A2A2A2A2A2A2A09
:104872002A2A2A2A002A20536F756E64204D6F64FB
:10488200756C65202A002E00202A2A2A2A2A004432
:1048920046506C61796572204D696E69206973209A
:1048A2006F6E6C696E652E0D0A004446506C61791C
:1048B2006572204D696E69206973206F66666C6946
:1048C2006E652E0D0A006F4F20555345204352202E
:1048D2004F4E20594F5552205445524D494E414C4E
:1048E200204F6F0D0A0048697420456E746572206E
:1048F2006F722048202B20456E74657220666F729D
:104902002048656C700D0A000D0A482048656C70DD
:104912000D0A005720426F61726420436F6E6E650C
:104922006374696F6E730D0A00533D5720577269A5
:1049320074652044656661756C742053657474698E
:104942006E67730D0A00533F205265616420536500
:104952007474696E67730D0A00533D4920582058DC
:104962003D313D50574D2C20323D4350504D0D0AA4
:10497200004C3D5820583D30206F7220583D310D7B
:104982000A00493D58585858585820583D4E206FF3
:1049920072205020285072696F7269746965732998
:1049A2000D0A00533D59205A20593D3120746F2081
:1049B2003420313D566F6C2C20323D507265762C7E
:1049C20020333D4E6578742C20343D506C61795013
:1049D200617573652C353D506C617953616D65204D
:1049E2002F205A3D3120746F2031322028436861D4
:1049F2006E6E656C204E62290D0A00563D58205895
:104A02003D3120746F2033302044656661756C74CB
:104A120020566F6C756D650D0A004D204D617869E9
:104A22002F43656E7472652F4D696E69204368610C
:104A32006E6E656C20696E2075530D0A00503F2022
:104A420052656164204446506C6179657220636FDF
:104A52006E6669670D0A002B204F52202D204E658D
:104A620078742F5072657620536F756E640D0A004C
:104A72005820506C61792F50617573650D0A00449E
:104A8200204465627567206D6F6465204F4E2F4F1D
:104A920046460D0A005220457261736520616C6CB6
:104AA20020636F6E66696775726174696F6E0D0A55
:104AB200000D0A4320426F61726420436F6E6E657F
:104AC2006374696F6E730D0A00433A4E4558540081
:104AD200423A5052455600413A564F4C554D4500C8
:104AE200423A4350504D00443A005374617274206C
:104AF2004D696E69204D61786920736561726368E2
:104B02003A0D0A0053746F70204D696E69204D6131
:104B12007869207365617263683A0D0A002A2A2A4D
:104B22002A2A2A2A2A2A2A2A2A2A2A2A2A2A2A2AE3
:104B32002A2A2A2A2A2A2A2A0D0A002A206F4F20E4
:104B42004446506C617965722053657474696E676E
:104B520073204F6F202A0D0A004446506C6179651C
:104B620072206E6F7420666F756E64004E455854E5
:104B72000D0A00536F6E206D6178696D756D20614D
:104B8200747465696E74202100505245560D0A00F6
:104B9200536F6E206D696E696D756D2061747465F9
:104BA200696E7420210050415553450D0A00504C46
:104BB20041590D0A005573652036204E206F722030
:104BC200502021005072696F723A006F6E6C79202A
:104BD20036204E206F7220502021000D0A57616945
:104BE200742E2E2E0D0A000D0A526573657420452F
:104BF2004550524F4D20446F6E650D0A0009005218
:104C020065746F7572206175206465726E69657274
:104C120020736F6E2021005265746F75722061756A
:104C220020736F6E20312021004E4F524D414C00B7
:104C3200504F5000524F434B004A415A5A00434C86
:104C4200415353494300424153530050574D0000D2
:00000001FF
