:100000000C9409020C94AF110C9488110C9461119A
:100010000C943A110C9431020C9431020C9413118B
:100020000C9431020C94CF140C94D6110C944512FC
:100030000C9431020C9431020C9431020C94310274
:100040000C9431020C9431020C9431020C94310264
:100050000C9431020C9431020C9431020C94C910AE
:100060000C9431020C949D140C9477140C9431026E
:100070000C9431020C9431020C9431020C94310234
:100080000C9431020C9431020C9431020C94310224
:100090000C9431020C9431020C9431020C94310214
:1000A0000C9431020C9431020C9431020D000A00C0
:1000B0003B00427574746F6E733A202020004D69C6
:1000C0006E6943683A2020202025640D0A004365AC
:1000D0006E74657243683A202025640D0A004D61F4
:1000E000786943683A2020202025640D0A003234C4
:1000F00042757443683A20202025640D0A00293D8A
:1001000025640D0A00566F6C43683A202020202099
:1001100025640D0A00566F6C3A20202020202020F4
:1001200025640D0A004551204D6F64653A2020205A
:1001300025730D0A00202D2D3E20427574746F6EBC
:1001400073204D6F646520757365206368616E6E02
:10015000656C2025640D0A0044656661756C7473D6
:100160002056616C75652053617665640D0A005DEB
:100170003A2030780052785B006D70335F726563AF
:10018000765F636D64206F7574004572726F7220C4
:10019000726573706F6E7365207769746820636F22
:1001A000646520006D70335F726563765F636D64B4
:1001B00020696E207769746820657870656374655E
:1001C0006420636D6420307800080B000202020096
:1001D00000090400000102020000052400100105CE
:1001E00024010101042402060524060001070581FB
:1001F0000310004009040100020A00000007050284
:1002000002400000070583024000000403090412B5
:10021000010002EF0201404F1B06920001010203A0
:1002200001537061726B46756E00537061726B465C
:10023000756E2050726F204D6963726F002A2A2AF2
:100240002A2A2056004250313A2000557365202555
:10025000732020257325732028505245562D4E4576
:1002600058542D504C41592F5041555345290D0A92
:100270000055736520257320202573202850524592
:10028000562D4E4558542D504C41592F50415553E1
:1002900045290D0A005573652025732020257320FC
:1002A0002025730D0A0043757272656E7420736F9A
:1002B000756E643A2025640D0A0046696C657320EA
:1002C000666F756E643A2025640D0A00457175618C
:1002D0006C697A65723A202025730D0A00566F6C9E
:1002E000756D652020202020203A2025640D0A000D
:1002F000455252004551204D6F64653A2025730DDB
:100300000A00323420427574746F6E733A2025648B
:100310000D0A00323420427574746F6E733A2025D2
:10032000640D0A00566F6C43683A2025640D0A007C
:10033000496E707574204D6F646520697320257354
:100340000D0A00566F6C3A25640D0A00AE00AC0031
:100350003A2000425000536F756E644E756D6265B1
:10036000723A2025640D0A005369676E616C20257E
:100370007320566F6C756D65206E6F7420666F7597
:100380006E6420210D0A0000000000240027002ACE
:10039000002D00300000000000250028002B002E5A
:1003A000003100000000002300260029002C002F4F
:1003B000000404040404030405020202020403020C
:1003C00002020206060606060604040202020404ED
:1003D0000408020110408040102040804080080244
:1003E00004018040201002011080102040402000B5
:1003F00000000200090F0000030401000C000000CF
:1004000000000000000000000000000000001515C2
:10041000552111241FBECFEFDAE0DEBFCDBF15E0BE
:10042000A0E0B1E0E4E3F0E502C005900D92A83E43
:10043000B107D9F728E0A8EEB5E001C01D92AA35B2
:10044000B207E1F712E0C8E0D2E004C02197FE0154
:100450000E941526C730D107C9F70E948C150C944D
:100460000D280C940000FC018091FF06882311F1F7
:100470003FB7F89482E08093E9002091F200822F48
:1004800090E01816190614F481E090E0882339F002
:10049000289844E64093FE064091F10040832223D1
:1004A00039F02091F200211103C02BE62093E800DF
:1004B0003FBF08958FEF9FEF08952FB7F89483E023
:1004C0008093E9009091E800892F807295FF04C025
:1004D0009091F20080E4891B2FBF08958091F60669
:1004E00081110DC082E08093F20684E08093F306D0
:1004F0001092F5061092F40681E08093F60682EFE2
:1005000096E0089581508F3008F047C0E82FF0E062
:10051000E457FD4F0C941526A902AD029B02A102DF
:10052000A502CD02CD02CD02B002B602BA02BE02D1
:10053000C402CD02C802809180008F778093800032
:100540000895809180008F7DF9CF80918000877F12
:10055000F5CF84B58F7784BD089584B58F7DFBCFAB
:10056000809190008F778093900008958091900003
:100570008F7DF9CF80919000877FF5CF8091C0006B
:100580008F778093C00008958091C0008F7DF9CF50
:100590008091C200877F8093C2000895CF93DF933C
:1005A000282F30E0F901E151FC4F8491F901E0532B
:1005B000FC4FD491F901EF54FC4FC491CC23A1F02E
:1005C00081110E948202EC2FF0E0EE0FFF1FED552B
:1005D000FC4FA591B491EC91ED2381E090E009F4FA
:1005E00080E0DF91CF91089580E090E0FACF1F93F3
:1005F000CF93DF93282F30E0F901E151FC4F849134
:10060000F901E053FC4FD491F901EF54FC4FC49130
:10061000CC23A9F0162F81110E948202EC2FF0E06A
:10062000EE0FFF1FEB56FC4FA591B4918FB7F894D6
:10063000EC91111108C0D095DE23DC938FBFDF91C0
:10064000CF911F910895DE2BF8CFCF93DF9390E0E9
:10065000FC01E053FC4F24918F549C4FFC0184918A
:100660008823C9F090E0880F991FFC01E957FC4FDF
:10067000A591B491FC01EB56FC4FC591D491611149
:100680000DC09FB7F8948C91209582238C9388811C
:10069000282328839FBFDF91CF910895623051F4C2
:1006A0009FB7F8943C91822F809583238C93E881A7
:1006B0002E2BEFCF8FB7F894EC912E2B2C938FBF6E
:1006C000EACF3FB7F8948091EE069091EF06A091A3
:1006D000F006B091F10626B5A89B05C02F3F19F092
:1006E0000196A11DB11D3FBFBA2FA92F982F8827B2
:1006F000BC01CD01620F711D811D911D42E0660F8D
:10070000771F881F991F4A95D1F708958F929F925E
:10071000AF92BF92CF92DF92EF92FF924B015C01BA
:100720000E9461036B017C010E9461036C197D09C9
:100730008E099F09683E734081059105A8F321E069
:10074000821A9108A108B10888EEC80E83E0D81E6D
:10075000E11CF11C81149104A104B10429F7FF905C
:10076000EF90DF90CF90BF90AF909F908F900895C3
:10077000CF93C09122016AE070E080E090E00E9497
:10078000860381E0C11101C080E0CF9108952FB7A9
:10079000F8946091EA067091EB068091EC069091D6
:1007A000ED062FBF0895CF93DF938093140110922D
:1007B0001601609317012091120190911301290FE6
:1007C0003327331F820F932F911D20911501820F24
:1007D000911D680F792F711D719561957109709345
:1007E0001801609319018091020790910307DC01C1
:1007F000ED91FC910084F185E02D0995892B61F044
:100800008091020790910307DC01ED91FC91028435
:10081000F385E02D0995E7CFC1E1D1E08091020792
:10082000909103076991DC01ED91FC910190F081B9
:10083000E02D0995B1E0CB31DB0781F7DF91CF9156
:100840000C94C703089508954091FD055091FE054D
:100850002091FB053091FC0542175307B4F49091A9
:10086000E8009570E1F39091E80092FD19C0809343
:10087000F1008091FD059091FE0501968F739927F7
:10088000892B19F48EEF8093E8008091FD059091FB
:10089000FE0501969093FE058093FD0581E0089585
:1008A00080E00895EF92FF920F931F93CF93DF9311
:1008B000F82E192FE62E042F81E0860F880F0E9454
:1008C000240483E00E942404CF2DD12FEC0EFD2EB2
:1008D000F11CCE15DF05B9F007FF13C0FE018491AE
:1008E0000E942404182F80E00E9424048123219672
:1008F0008111EFCFDF91CF911F910F91FF90EF907A
:1009000008958881EDCF81E0F5CFDF92EF92FF92DD
:100910000F931F93CF93DF93D82E8A01EB017B01B6
:10092000E40EF51ECE15DF0559F0D7FE12C0FE010C
:1009300084910E94240421968111F4CF0FEF1FEFC0
:10094000C801DF91CF911F910F91FF90EF90DF9041
:1009500008958881EECF0F931F93CF93DF931F925B
:10096000CDB7DEB782E0898342E450E069EC71E004
:1009700080E80E9485040E946E02DC0112960D91AF
:100980001C910115110589F0D801ED91FC910280AF
:10099000F381E02DBE016F5F7F4FC801099597FD80
:1009A00004C0F80100851185ECCF89810F90DF919B
:1009B000CF911F910F910895615030F02091F10077
:1009C000FC0120830196F8CF289884E68093FE06E8
:1009D0000895EF92FF920F931F93CF93DF938C01B3
:1009E0007B01D0E0C0E0F701EC0FFD1F64916623AE
:1009F00061F0D801ED91FC910190F081E02DC801EA
:100A00000995892B11F02196EECFCE01DF91CF9180
:100A10001F910F91FF90EF900895AF92BF92CF92E8
:100A2000DF92EF92FF920F931F93CF93DF936C01AE
:100A30007B018B01040F151FEB015E01AE18BF088F
:100A4000C017D10759F06991D601ED91FC91019041
:100A5000F081E02DC6010995892B79F7C501DF9159
:100A6000CF911F910F91FF90EF90DF90CF90BF90AB
:100A7000AF900895FC01538D448D252F30E0842FD5
:100A800090E0821B930B541710F0CF9608950197B6
:100A90000895FC01918D828D981761F0A28DAE0FA3
:100AA000BF2FB11D5D968C91928D9F5F9F73928F2A
:100AB00090E008958FEF9FEF0895FC01918D828D56
:100AC000981731F0828DE80FF11D858D90E0089523
:100AD0008FEF9FEF0895FC01918D228D892F90E07B
:100AE000805C9F4F821B91098F739927089583E142
:100AF00097E00E946B0521E0892B09F420E0822F0A
:100B0000089580E090E0892B29F00E9477058111FB
:100B10000C9400000895FC01A48DA80FB92FB11DFD
:100B2000A35ABF4F2C91848D90E001968F73992723
:100B3000848FA689B7892C93A089B1898C918274FE
:100B40008C93938D848D981306C00288F389E02DD1
:100B500080818F7D80830895EF92FF920F931F9382
:100B6000CF93DF93EC0181E0888F9B8D8C8D981360
:100B700019C0E889F989808185FF14C09FB7F8946E
:100B8000EE89FF896083E889F98980818274808396
:100B90009FBF81E090E0DF91CF911F910F91FF9077
:100BA000EF900895F62E0B8D10E00F5F1F4F0F731F
:100BB0001127E02E8C8D8E110CC00FB607FCFACFDA
:100BC000E889F989808185FFF5CFCE010E948B05E8
:100BD000F1CFEB8DEC0FFD2FF11DE35AFF4FF082AB
:100BE0009FB7F8940B8FEA89FB8980818062CFCF11
:100BF000CF93DF93EC01888D8823B9F0AA89BB8954
:100C0000E889F9898C9185FD03C0808186FD0DC03E
:100C10000FB607FCF7CF8C9185FFF2CF808185FF5F
:100C2000EDCFCE010E948B05E9CFDF91CF910895E2
:100C30008F929F92AF92BF92CF92DF92EF92FF92EC
:100C40000F931F93CF93DF936C017B018A018091F7
:100C50002201882309F45CC08091FF06882309F4EF
:100C600057C08091010680FF05C08091E00082603E
:100C70008093E000E801B12C8AEFA82E93E0892E42
:100C80002AE3922E209711F4BB20D9F10E945D0235
:100C900081110AC0AA94AA20D9F161E070E080E035
:100CA00090E00E948603EECF8C171D0611F00CF029
:100CB0008C2F9FB7F8948092E9002091E80025FDE1
:100CC00002C09FBFDFCF282F30E0C21BD30BF7013C
:100CD000815020F041914093F100FACFE20EF31ED3
:100CE000BB2021F09092E800B12CEBCF8091E8007E
:100CF00085FDE7CF9092E800BB24B394209709F3D9
:100D0000F3CF5D9884E680930006101611063CF040
:100D100081E090E0F6019383828310E000E0C80157
:100D2000DF91CF911F910F91FF90EF90DF90CF90C7
:100D3000BF90AF909F908F900895CF93DF931F92B5
:100D4000CDB7DEB76983DC01ED91FC910280F381C0
:100D5000E02D41E050E0BE016F5F7F4F09950F909D
:100D6000DF91CF91089583E08093E9008091F200B4
:100D7000882319F08AE38093E80008950E945D02B9
:100D800090E00895CF93DF931F92CDB7DEB7FC01BB
:100D90008485958597FD08C02FEF3FEF3587248721
:100DA0000F90DF91CF910895CE0101960E943302FA
:100DB000019719F4898190E0F3CF8FEF9FEFF0CF87
:100DC0000F931F93CF93DF931F92CDB7DEB78C01A4
:100DD000FC018485958597FF0BC0CE0101960E948A
:100DE0003302019771F4898190E0F8019587848737
:100DF000F801848595850F90DF91CF911F910F9118
:100E000008958FEF9FEFF1CFFC018485958597FDC5
:100E10000BC09FB7F89482E08093E9008091F200C4
:100E20009FBF90E0019608959FB7F89482E0809369
:100E3000E9008091F2009FBF90E00895BC0186E038
:100E40000C94D30370E060E00C94D3038F929F92D4
:100E5000AF92BF92CF92DF92EF92FF926C010E940D
:100E6000C7034B015C01F12CE12C0E94C7036819F8
:100E700079098A099B096C157D058E059F0540F44B
:100E8000E0910506F0910606309779F30995EDCFCC
:100E9000FF90EF90DF90CF90BF90AF909F908F909A
:100EA0000895E09133063CE0E39FF0011124E55EF4
:100EB000F94F218580910706843008F059C0809150
:100EC0000706882309F486C080910706813009F45B
:100ED0007BC080910706823009F479C080910706B3
:100EE000833009F47AC080910706873009F469C01D
:100EF00090E080E0E09133064CE0E49FF0011124A3
:100F0000E55EF94F3385232330E082239323892B39
:100F100009F483C00E9461032091ED053091EE0534
:100F2000AB01421B530B9A017093EE056093ED05E4
:100F3000283B5BE0350708F45EC02091080620934B
:100F40004206109208062FEF209343063091EC05DD
:100F50002091EC052E7F30FF21602093EC0520913D
:100F6000EC0520FF3DC07093EB056093EA05089502
:100F700080910706883080F0809107068C3060F4FD
:100F8000409107064450550B81E090E002C0880F65
:100F9000991F4A95E2F7AECF809107068E30A1F0F7
:100FA000809107068F3099F080910706803191F08B
:100FB00080910706813189F0409107064651550B13
:100FC000E3CF80E190E096CF88E090E093CF82E09D
:100FD00090E090CF84E090E08DCF81E090E08ACFE8
:100FE0002091EA053091EB05621B730B7093E905C4
:100FF0006093E805089580910806893070F4E091C7
:101000000806F0E0EE0FFF1FE75FF94F3183208302
:10101000809108068F5F80930806089508952091B7
:10102000430630E0062E02C0359527950A94E2F774
:10103000C9018170992720FF0CC04091430621E02F
:1010400030E001C0220F6A95EAF72095242320930F
:1010500043060895882399F090914206981778F0F6
:101060008150E82FF0E0EE0FFF1FE75FF94F80811E
:1010700091812081318182179307C9F708958CED02
:1010800095E00895862F0C942A08BF92CF92DF92A4
:10109000EF92FF920F931F93CF93DF930E94610310
:1010A0006B017C01C0910007D091010701E010E0C5
:1010B000BB24BA94209709F459C08D818370813084
:1010C000D1F520913006422F50E08C81843048F4D5
:1010D0008823C1F1813099F18230B9F522E030E006
:1010E0001AC098EF980F682F6450770B943058F01F
:1010F0008E3029F18F3091F3803121F1813129F146
:10110000682F6651770B9B01B80102C0660F771FED
:101110002A95E2F79B0124233523232B61F00E94BB
:10112000CE029D8192FB992790F9981789F0CA8683
:10113000DB86EC86FD860A80DB81C02DBBCF28E0F4
:1011400030E0E9CF24E030E0E6CF21E030E0E3CF4B
:101150008A859B85AC85BD859601281B390B3F8709
:101160002E87B88A0E94C703698BE5CFDF91CF91A4
:101170001F910F91FF90EF90DF90CF90BF90089557
:10118000BF92CF92DF92EF92FF920F931F93CF9374
:10119000DF930E9461036B017C01C0910007D09135
:1011A0000107BB24BA9401E010E0209709F458C06D
:1011B0008D818370D1F520912406422F50E08C81DF
:1011C000843048F48823C1F1813099F18230B9F537
:1011D00022E030E01AC098EF980F682F6450770B28
:1011E000943058F08E3029F18F3091F3803121F115
:1011F000813129F1682F6651770B9B01B80102C03C
:10120000660F771F2A95E2F79B0124233523232BB2
:1012100061F00E94CE029D8192FB992790F9981768
:1012200089F0CA86DB86EC86FD860A80DB81C02DCC
:10123000BCCF28E030E0E9CF24E030E0E6CF21E089
:1012400030E0E3CF8A859B85AC85BD859601281B60
:10125000390B3F872E87B88A0E94C703698BE5CF79
:10126000DF91CF911F910F91FF90EF90DF90CF9082
:10127000BF900895FC01868597852685378582175E
:101280009307C9F70895FC01808990E0062E02C0FB
:10129000959587950A94E2F780FF1CC0208981E02C
:1012A00090E001C0880F6A95EAF780958223808BD1
:1012B000268537858685978528173907C9F786815A
:1012C00097812817390730F081E040855185421712
:1012D000530708F480E008950C94430989B18F7096
:1012E000EBE1F6E0878B868997898927858B87894B
:1012F000868B0288F389E02D099489B18F70EBE128
:10130000F6E0878B868997898927858B8789868BE5
:101310000088F189E02D099489B18F70EBE1F6E046
:10132000878B868997898927858B8789868B068411
:10133000F785E02D099489B18F70EBE1F6E0878B9A
:10134000868997898927858B8789868B0484F5858B
:10135000E02D0994843088F49DB3882341F08130D6
:1013600041F0823041F081E0892B8DBB089584E00B
:10137000FBCF88E0F9CF82E0F7CF28EF280F2430A9
:1013800040F092EF980F943020F096EE980F933043
:10139000D0F590916800243050F032EF380F34309F
:1013A00030F036EE380FF0E0E0E0333010F4E8E6ED
:1013B000F0E091609083243050F092EF980F9430D9
:1013C00030F096EE980FF0E0E0E0933010F4EBE6AA
:1013D000F0E030812430C0F491E0682F6450770B46
:1013E00001C0990F6A95EAF7932B243048F022EF59
:1013F000280F243028F08A51F0E0E0E0833010F428
:10140000EBE6F0E09083089598E08E3069F392E087
:101410008F3051F394E0803139F391E0813121F341
:10142000682F6651770BDCCFCF93DF93982F28EF8F
:10143000280F81E0243008F480E0282F30E0943039
:10144000A0F59230D1F49CE0929FF001939FF00DB3
:101450001124E55EF94F738362832CE839E0309301
:1014600007012093060190916900937F9460909307
:101470006900E99ADF91CF9108959CE0929FF00175
:10148000939FF00D1124E55EF94F718360832BE982
:1014900039E03093050120930401909169009C7F0D
:1014A000916090936900E89AE5CF50E040E096E0C3
:1014B000929FE001939FD00D1124DE01A40FB51F70
:1014C000AA0FBB1FA55EB94FED91FC91E617F70778
:1014D00089F24F5F5F4F4430510579F79CE0929F4E
:1014E000D001939FB00D1124A55EB94F18969C9121
:1014F0001897943010F08FEFBDCF1896EC91189795
:10150000EC0FFD2FF11DEE0FFF1FE55EF94F71830C
:10151000608318969C9118979F5F18969C93AACF0A
:101520001F93CF93DF93EC01162F98EF960F8D81C9
:101530008C7F943088F181608D8365E478E0812F21
:101540000E94140A982F93708D818C7F892B8D8334
:101550001C8388E592E09F838E8380E699E09987DB
:10156000888780910007909101079B838A83D0939D
:101570000107C093000760E0812F0E94250361E00E
:101580008C810E94F7028C810E94AA098D81837050
:10159000DF91CF911F9108958D8360EC78E0CFCFDC
:1015A000813021F0823021F080E0089588E00895B4
:1015B00080E108950F931F93CF93DF9304E017E02A
:1015C000D0E0C0E0CE010E942F25F80181938F0169
:1015D0002196CF30D105B1F784E097E0DF91CF912C
:1015E0001F910F910895FF920F931F93CF93DF9355
:1015F00004E017E0D0E0C0E0F801F1908F01CE01E7
:101600000E942F25F81621F06F2DCE010E94432550
:101610002196CF30D10581F784E097E0DF91CF911B
:101620001F910F91FF900895CF92DF92EF92FF925A
:101630000F931F93CF93DF938C016B01FB01E48029
:10164000F5806E2D0E944325D0E0C0E0FF240F5F9F
:101650001F4FCE15DF05BCF4F60184819581C817B4
:10166000D90778F480819181009759F08C0F9D1FE4
:10167000FC016081C8018C0F9D1F0E9443252196AB
:10168000E8CF60E0F7CFDF91CF911F910F91FF90EE
:10169000EF90DF90CF9008950F931F93CF93DF9338
:1016A0008C01EB01FC01808191810097E1F0688160
:1016B000798161157105A9F0428153812C813D81A9
:1016C0004217530770F00E9406288C819D81F80113
:1016D000958384831D821C82DF91CF911F910F918E
:1016E00008950E94B72688819981F80191838083AB
:1016F0008A819B81938382838C819D81958384835E
:10170000198218821B821A82E5CFFC0180819181A7
:10171000009711F00C94B7260895EF92FF920F9363
:101720001F93CF93DF93EC017B018A01888199811C
:10173000009729F02A813B812417350788F4B801E6
:101740006F5F7F4F0E944027009791F099838883B5
:101750001B830A832C813D81232B11F4FC01108211
:101760001D830C83B701888199810E9406280CC0D3
:1017700088819981009711F00E94B72619821882FA
:101780001D821C821B821A82CE01DF91CF911F9194
:101790000F91FF90EF900895CF93DF93EC01FB0141
:1017A0008617970749F0608171816115710541F0D5
:1017B000448155810E948D0BCE01DF91CF91089518
:1017C00088819981009711F00E94B72619821882AA
:1017D0001D821C821B821A82EFCFFC0111821082B3
:1017E0001382128215821482FB0101900020E9F716
:1017F0003197AF01461B570B0C948D0BFB010190E9
:101800000020E9F73197AF01461B570BDC01ED9142
:10181000FC910280F381E02D09948F929F92AF9208
:10182000BF92EF92FF920F931F93CF93DF93CDB7A9
:10183000DEB7A1970FB6F894DEBF0FBECDBF7C0117
:10184000FA01CB0119A2223008F42AE08E010F5DC3
:101850001F4F822E912CB12CA12CBF01A501940108
:101860000E948325F901CA016A300CF5605DD80138
:101870006E938D01232B242B252B79F790E080E0AC
:10188000109721F0BD01C7010E94FE0BA1960FB673
:10189000F894DEBF0FBECDBFDF91CF911F910F91A6
:1018A000FF90EF90BF90AF909F908F900895695CEC
:1018B000DECFAB0170E060E02AE00C940D0CCF921B
:1018C000DF92EF92FF920F931F93CF93DF93EC0180
:1018D0006A017B01E881F9810190F081E02D6DE2E0
:1018E00009958C0144275527BA014C195D096E09E9
:1018F0007F092AE0CE010E940D0C800F911FDF911D
:10190000CF911F910F91FF90EF90DF90CF900895AE
:10191000009729F0BC0180EB97E00C94FE0B90E05F
:1019200080E0089568E973E00C94FE0BCF93DF9399
:10193000FC01448155816081718180EB97E00E94B8
:101940001806EC0180EB97E00E94920C8C0F9D1F13
:10195000DF91CF910895CF93DF93BC0180EB97E0A7
:101960000E94FE0BEC0180EB97E00E94920C8C0F22
:101970009D1FDF91CF9108954F925F926F927F925A
:101980008F929F92AF92BF92CF92DF92EF92FF928F
:101990000F931F93CF93DF937C01D82F0E94C7032F
:1019A0002B013C018091030690910406009799F069
:1019B00064EA71E00E94E9040091030610910406B4
:1019C000A701FF0C660B770B20E1C8010E940D0CEC
:1019D000C8010E94920CC0E00E94C70364197509F7
:1019E00086099709683E73408105910568F1109258
:1019F000F9051092FA05C0910306D09104062097CC
:101A000041F069E771E0CE010E94E904CE010E9435
:101A1000920C2091F9058091FA0590E03FEF239F09
:101A2000800D911D1124DF91CF911F910F91FF9097
:101A3000EF90DF90CF90BF90AF909F908F907F906E
:101A40006F905F904F90089585E090E00E94260788
:101A50008FEEA82E85E0B82EF501119235E0E93F12
:101A6000F307D9F78091020790910307DC01ED910C
:101A7000FC910084F185E02D09950A970CF476C05D
:101A8000C12CD12C76018091020790910307DC01D3
:101A9000ED91FC910284F385E02D09958C0101966E
:101AA00009F464C08091030690910406009721F127
:101AB00065E771E00E94E9042AE0B701A601809180
:101AC0000306909104060E940D0C6FE671E0809170
:101AD0000306909104060E94E9048090030690900A
:101AE000040620E1A801110F660B770BC4010E94C8
:101AF0000D0CC4010E94920CF50101935F01FFEFF0
:101B0000CF1ADF0AEF0AFF0A2AE0C216D104E10465
:101B1000F10409F0B8CFC091F205C034E1F480912E
:101B2000030690910406009709F456CF6AE871E025
:101B30000E94E90400910306109104064091F50506
:101B400050E070E060E02AE0C8010E940D0CC8017E
:101B50000E94920C41CFDC133FCF8091F40580931B
:101B6000F9058091F5058093FA0545CF82E390E071
:101B70000E942607DC1330CF3ECF89E9809304070B
:101B800085E080930A0786E08093080787E08093CA
:101B9000090748E050E06EE771E08AE098E00E94B3
:101BA0008D0B6AE078E08AEA90E00E94140B8AE0EC
:101BB000809305078CED95E090930E0780930D07B9
:101BC00088EE93E0909312078093110780ED97E0E1
:101BD0009093100780930F0781E08093060710927F
:101BE000070746E050E067E871E080E098E00E9477
:101BF0008D0B60E078E084E690E00E94140B0E9478
:101C0000B8038823B9F088E591E09F938F931F92E2
:101C100084E68F9380E796E09F938F930E947E22C5
:101C200080E796E00E94880C0F900F900F900F9025
:101C30000F900F900C94F30A0F931F93CF93DF93A1
:101C4000FC012481358128303105D8F02F5F3F4FCA
:101C500011F421E030E0EC01C9010E941B268C0147
:101C6000688179810E94062842E050E070E060E0DF
:101C7000C8010E945D21862FDF91CF911F910F91A6
:101C80000895FACF6F927F928F929F92AF92BF92F8
:101C9000CF92DF92EF92FF920F931F93CF93DF9338
:101CA000CDB7DEB74C015B016DB67EB6CB010E94AD
:101CB0002F25082F10E0C80101962DB73EB7281B2D
:101CC000390B0FB6F8943EBF0FBE2DBF8DB79EB730
:101CD00001966C0175015C019FEFE91AF90AC501D3
:101CE0008C199D09801791073CF4C7010E942F258C
:101CF000F50181935F01F0CFF601E00FF11F108233
:101D0000B601C4010E94ED0BC4010FB6F8947EBE6B
:101D10000FBE6DBEDF91CF911F910F91FF90EF909D
:101D2000DF90CF90BF90AF909F908F907F906F90FB
:101D30000895CF92DF92EF92FF920F931F93CF936C
:101D4000DF9300D000D000D0CDB7DEB70E94DA0A12
:101D5000809104078939C9F00E94BD0D64EF71E0DC
:101D600080E090E00E9486030E94990E26960FB6AE
:101D7000F894DEBF0FBECDBFDF91CF911F910F91C1
:101D8000FF90EF90DF90CF9008950E94B8038823D2
:101D900021F088E993E00E94880C0E94B803882310
:101DA00021F08DED94E00E94880C0E94B8038823F6
:101DB00021F08EE891E00E94880C0E94B8038823ED
:101DC00021F08DED94E00E94880C8091060781300F
:101DD00009F0ADC00E94B803882361F0E0910607C6
:101DE000E150FF0BEE0FFF1FEE5BFE4F80819181F4
:101DF0000E94880C80EB97E00E94920C0E94B8032E
:101E0000882309F1E0910707F0E0EE0FFF1FE05D86
:101E1000FE4F81818F9380818F9385E291E09F9324
:101E20008F931F9284E68F9380E796E09F938F9322
:101E30000E947E2280E796E00E94880C0FB6F894FC
:101E4000DEBF0FBECDBF0E94B8038823D1F08091C2
:101E500005071F928F9385E191E09F938F931F92C7
:101E600084E68F9380E796E09F938F930E947E2273
:101E700080E796E00E94880C0FB6F894DEBF0FBE94
:101E8000CDBF0E94B8038823D1F080910A071F922A
:101E90008F9385E091E09F938F931F9284E68F93B9
:101EA00080E796E09F938F930E947E2280E796E0E2
:101EB0000E94880C0FB6F894DEBF0FBECDBF62EB58
:101EC00070E080911008909111080E94E904F12CB3
:101ED000E12C0091100810911108809116088F7064
:101EE000E81608F057C067019FEFE91AF90A970151
:101EF000220F331F8091140890911508820F931FB1
:101F00000E943725BC01C8010E94590C8091160817
:101F10008F708150990BC816D906DCF660EB70E023
:101F200080911008909111080E94E904D2CF82306C
:101F300009F064CF0E94B803882361F0E09106079E
:101F4000E150FF0BEE0FFF1FEE5BFE4F8081918192
:101F50000E94880C0E94B803882309F44FCF809117
:101F600008071F928F9385E391E09F938F931F92B1
:101F700084E68F9380E796E09F938F930E947E2262
:101F800080E796E00E94880C0FB6F894DEBF0FBE83
:101F9000CDBF34CFE09117080E2E000CFF0BEE27BB
:101FA000FF0FEE1FFF27EE0FFF1FE45BFC4F659155
:101FB0007491C8010E94E9046AEA70E0CE010196BA
:101FC0000E94420EBE016F5F7F4F8AE098E00E9440
:101FD0004C0BCE0101960E94850B8AEA91E00E948B
:101FE000880C40910E0850910F0860910A0870917A
:101FF0000B0880EB97E00E9418060E94B803882324
:1020000061F11A8219821C821B821E821D826AE083
:1020100078E0CE0101960E94CC0BCE0101960E9481
:102020001C0E1F928F938EEF90E09F938F931F92C1
:1020300084E68F9380E796E09F938F930E947E22A1
:10204000CE0101960E94850B80E796E00E94880CE5
:102050000FB6F894DEBF0FBECDBF0E94B803882331
:10206000D1F0809109071F928F938EEE90E09F939D
:102070008F931F9284E68F9380E796E09F938F93D0
:102080000E947E2280E796E00E94880C0FB6F894AA
:10209000DEBF0FBECDBF0E94B8038823E1F0809160
:1020A00010078F9380910F078F938EED90E09F9391
:1020B0008F931F9284E68F9380E796E09F938F9390
:1020C0000E947E2280E796E00E94880C0FB6F8946A
:1020D000DEBF0FBECDBF0E94B8038823E1F0809120
:1020E0000E078F9380910D078F938EEC90E09F9356
:1020F0008F931F9284E68F9380E796E09F938F9350
:102100000E947E2280E796E00E94880C0FB6F89429
:10211000DEBF0FBECDBF0E94B8038823E1F08091DF
:1021200012078F93809111078F938EEB90E09F930E
:102130008F931F9284E68F9380E796E09F938F930F
:102140000E947E2280E796E00E94880C0FB6F894E9
:10215000DEBF0FBECDBF64E670E0CE0101960E94E7
:10216000420EBE016F5F7F4F80E098E00E944C0BF3
:10217000CE0101960E94850B87EB91E00E94880CAE
:1021800080E098E00E94960C80EB97E00E94920C11
:10219000EDCD1F920F920FB60F9211242F933F9304
:1021A0008F939F93AF93BF938091EA069091EB0634
:1021B000A091EC06B091ED063091E90623E0230FE3
:1021C0002D3758F50196A11DB11D2093E906809386
:1021D000EA069093EB06A093EC06B093ED0680918F
:1021E000EE069091EF06A091F006B091F1060196EF
:1021F000A11DB11D8093EE069093EF06A093F0060B
:10220000B093F106BF91AF919F918F913F912F9124
:102210000F900FBE0F901F90189526E8230F02967F
:10222000A11DB11DD2CF1F920F920FB60F92112494
:102230002F933F934F935F936F937F938F939F93CE
:10224000AF93BF93EF93FF93E0910C01F0910D01D9
:102250000995FF91EF91BF91AF919F918F917F91E0
:102260006F915F914F913F912F910F900FBE0F9003
:102270001F9018951F920F920FB60F9211242F9353
:102280003F934F935F936F937F938F939F93AF93FE
:10229000BF93EF93FF93E0910A01F0910B01099531
:1022A000FF91EF91BF91AF919F918F917F916F912E
:1022B0005F914F913F912F910F900FBE0F901F9004
:1022C00018951F920F920FB60F9211242F933F93E0
:1022D0004F935F936F937F938F939F93AF93BF932E
:1022E000EF93FF93E0910801F09109010995FF91A7
:1022F000EF91BF91AF919F918F917F916F915F917E
:102300004F913F912F910F900FBE0F901F901895F6
:102310001F920F920FB60F9211242F933F934F935A
:102320005F936F937F938F939F93AF93BF93EF933D
:10233000FF93E0910601F09107010995FF91EF915C
:10234000BF91AF919F918F917F916F915F914F91CD
:102350003F912F910F900FBE0F901F9018951F92D5
:102360000F920FB60F9211242F933F934F935F93C9
:102370006F937F938F939F93AF93BF93EF93FF934D
:10238000E0910401F09105010995FF91EF91BF9152
:10239000AF919F918F917F916F915F914F913F91FD
:1023A0002F910F900FBE0F901F9018951F920F92B4
:1023B0000FB60F9211248F939F938091E10090911B
:1023C000E100937F9093E10083FF0FC01092E9003A
:1023D00091E09093EB001092EC0092E39093ED006B
:1023E0001092FF0698E09093F00082FF22C093E0E5
:1023F0009093E9009091F200992319F09AE3909359
:10240000E80090910006992341F0909100069150C8
:1024100090930006911101C05D9A9091FE06992358
:1024200041F09091FE0691509093FE06911101C0EB
:10243000289A84FF18C08091E2008E7E816080938C
:10244000E2008091E1008F7E8093E100809101069F
:102450008E7E8061809301069F918F910F900FBEB9
:102460000F901F90189580FFF7CF8091E2008E7E2D
:1024700080618093E2008091E1008E7E8093E10094
:10248000809101068E7E8160E5CF1F920F920FB67C
:102490000F921124CF92DF92EF92FF920F931F932E
:1024A0002F933F934F935F936F937F938F939F935C
:1024B000AF93BF93EF93FF93CF93DF93CDB7DEB787
:1024C0006C97DEBFCDBF1092E9008091E80083FFDA
:1024D00025C068E0CE0145960E94DC0482EF80931F
:1024E000E8008D8987FF39C09091E80090FFFCCF0C
:1024F000982F907609F034C19E894F89588D2F8985
:10250000F88C911131C0803861F58091020680937A
:10251000F1001092F1008EEF8093E8006C960FB6F8
:10252000F894DEBF0FBECDBFDF91CF91FF91EF9149
:10253000BF91AF919F918F917F916F915F914F91DB
:102540003F912F911F910F91FF90EF90DF90CF90CF
:102550000F900FBE0F901F9018959EEF9093E8007C
:10256000C7CF1092F100D5CF913059F48111D3CF5C
:102570004130510581F6809102068D7F80930206DD
:10258000CACF933049F48111C6CF4130510519F6B5
:10259000809102068260F2CF953041F48091E8008C
:1025A00080FFFCCF20682093E300B5CF963009F080
:1025B000A9C00B8D1C8D22E01092E9001092FE053F
:1025C0001092FD05F2122EC01092FC051092FB0530
:1025D0000E94AB041F8299E09983FA8291E09E8366
:1025E00090EA98879AEF99872091FD053091FE0532
:1025F000275F3F4F3C832B838D831092E90010921D
:10260000FE051092FD051093FC050093FB0549E0C3
:1026100050E0BE016F5F7F4F80E00E9485040E9402
:10262000AB0479CF1093FC050093FB050E946E026A
:10263000DC0112960D911C910115110509F451C18F
:10264000D801ED91FC910480F581E02DBE016B5E17
:102650007F4FC8010995009709F03EC1F801008538
:102660001185EACFF3E0FF120EC08F89882309F4A9
:1026700040C0823061F440E862E18AE292E00E9468
:102680005204811148CF81E28093EB0047CF813023
:1026900029F440E868E081E292E0F1CF833099F7D5
:1026A0000E946E02DC011296ED90FC908E010F5F8D
:1026B0001F4F6801E114F10479F0D701ED91FC910D
:1026C0000680F781E02DB801C7010995080F111D9B
:1026D000F701E084F184EECFD8011C92F60101905D
:1026E0000020E9F73197BF016C197D0940E0C60170
:1026F000C6CF6BE072E0FB01449150E080E80E949D
:10270000850409CF973009F4BECF983021F481E0D9
:102710008093F10000CF993009F0FDCE837009F06D
:10272000B2CFEAE2F1E081E031E096E321912223A9
:1027300071F08093E9003093EB00DF0111972C9149
:102740002093EC009093ED008F5F873079F78EE750
:102750008093EA001092EA008F898093FF06DBCE17
:102760008B8D9C8D1092E9001092FE051092FD0554
:102770009093FC058093FB05898D811192C08E8911
:102780009D89913A49F4813209F07DCF47E050E0CC
:102790006BE171E080E0B3CF913209F074CF833206
:1027A00069F48F89988DB0E0A0E080930001909348
:1027B0000101A0930201B0930301ADCE803269F410
:1027C0008091E80082FFFCCF67E08BE191E00E94FE
:1027D000DC048BEF8093E8009ECE823209F09BCE22
:1027E0008F8980932201EEEFFFE7859194918B3FD3
:1027F0009C4D51F1E0E0F8E080911B0190911C01AB
:10280000A0911D01B0911E01803B9440A105B1052E
:10281000F1F48091220180FD1AC0EE3F8AE0F807B2
:1028200089F587E797E791838083809160008093A3
:10283000FF0588E19BE00FB6F894A89580936000AF
:102840000FBE9093600067CEEEEFFAE0D5CF8081A7
:1028500091818737974709F05ECEA89580916000F7
:102860008861809360008091FF0580936000EE3F57
:102870002AE0F20789F08091FE0A9091FF0A918385
:10288000808349CE808191818737980751F2909358
:10289000FF0A8093FE0AC5CF1092FF0A1092FE0A2B
:1028A0003ACE0E946E02DC0112960D911C91011528
:1028B000110509F4E8CED801ED91FC910190F08169
:1028C000E02DBE016B5E7F4FC8010995811123CEBB
:1028D000F80100851185EBCF181619060CF41BCEF4
:1028E000D2CEF1E0FF12BECE6FE072E004CF1F92B5
:1028F0000F920FB60F9211242F933F934F935F9334
:102900006F937F938F939F93AF93BF93EF93FF93B7
:1029100083E197E00E948B05FF91EF91BF91AF910A
:102920009F918F917F916F915F914F913F912F91E7
:102930000F900FBE0F901F9018951F920F920FB619
:102940000F9211242F938F939F93EF93FF93E09116
:102950002307F09124078081E0912907F0912A074D
:1029600082FD1BC0908180912C078F5F8F73209117
:102970002D07821741F0E0912C07F0E0ED5EF84F53
:10298000958F80932C07FF91EF919F918F912F91BD
:102990000F900FBE0F901F9018958081F4CF1F925B
:1029A0000F920FB60F9211242F933F934F935F9383
:1029B0006F937F938F939F93AF93BF93CF93EF9337
:1029C000FF9383B190916B008923809326068091B9
:1029D0002506909126068927809324068091260655
:1029E00080932506C0E080912306C81760F4EC2F81
:1029F000F0E0EE0FFF1FE55EF94F0190F081E02D52
:102A00000995CF5FF0CFFF91EF91CF91BF91AF913B
:102A10009F918F917F916F915F914F913F912F91F6
:102A20000F900FBE0F901F901895E3E1F7E013820F
:102A3000128288EE93E0A0E0B0E084839583A683C1
:102A4000B7832AE431E0318320832DEC30E03587F1
:102A500024872CEC30E03787268728EC30E0318B58
:102A6000208B29EC30E0338B228B2AEC30E0358B45
:102A7000248B2EEC30E0378B268B118E128E138E2A
:102A8000148EE0EBF7E01382128284839583A68391
:102A9000B7838CE591E0918380838FEF9FEF9587DB
:102AA000848788E791E09093430880934208E7E4A5
:102AB000F8E020812B7F20832EE631E0309341081F
:102AC0002093400890932F0880932E08E3E3F8E0CA
:102AD00020812B7F208390931D0880931C08E1E2C6
:102AE000F8E080818B7F80836CEB75E08AE098E072
:102AF0000E94ED0B0E94C7036093060870930708BD
:102B000080930808909309086CEB75E080E098E0EA
:102B10000E94ED0B0C94C703CF93DF9300D000D03D
:102B200000D01F92CDB7DEB7789484B5826084BDA3
:102B300084B5816084BD85B5826085BD85B58160C1
:102B400085BD80916E00816080936E00109281003F
:102B500080918100826080938100809181008160FA
:102B600080938100809180008160809380008091BB
:102B700091008260809391008091910081608093A8
:102B80009100809190008160809390008091C100BD
:102B900084608093C1008091C10082608093C100F5
:102BA0008091C10081608093C1008091C3008160E9
:102BB0008093C3008091C00082608093C0008091A8
:102BC000C20081608093C20080917A00846080930B
:102BD0007A0080917A00826080937A0080917A00F6
:102BE000816080937A0080917A00806880937A0077
:102BF0001092FF0610920206109201068091D700F3
:102C000081608093D70080EA8093D80089B5806185
:102C100089BD89B5826089BD09B400FEFDCF61E040
:102C200070E080E090E00E9486038091D8008F7C65
:102C300080618093D8008091E000807F8093E000E5
:102C40008091E1008E7E8093E1008DE08093E20030
:102C5000559A209A60E084E00E94250361E085E0B7
:102C60000E94250361E085E00E94F7020E94DA0AD3
:102C700052E4E52E51E0F52E0CE311E062E0D801BC
:102C80008D918D010E942503E016F106B9F7E091C0
:102C90002307F091240782E08083E0911F07F091E1
:102CA00020071082E0912107F09122078FEC8083AA
:102CB00010922B07E0912707F091280786E0808388
:102CC000E0912507F0912607808180618083E09163
:102CD0002507F0912607808188608083E091250791
:102CE000F0912607808180688083E0912507F0912C
:102CF000260780818F7D80838FEF9FEF9093BD07A4
:102D00008093BC0768EE73E080E090E00E94860349
:102D100080915706882331F080EB97E0909304066A
:102D2000809303060E94B803882321F083EC91E08E
:102D30000E94880C83E197E0909303078093020739
:102D4000109206061092050662E070E089E00E948B
:102D5000D30370E060E087E00E94D3038091050711
:102D600090E00E941E0764EF71E080E090E00E9416
:102D700086038091050790E00E941E0764EF71E0D2
:102D800080E090E00E94860383E40E94220783E4AF
:102D900090E00E94BC0C8093550688E40E942207B4
:102DA00088E490E00E94BC0C8093350668EB7BE0E1
:102DB00080E090E00E94860381E08093360660E028
:102DC00085E00E94F70280EB97E00E94920C81EE72
:102DD00091E00E94AB0C82EF91E00E94AB0C6DE39E
:102DE00072E080EB97E00E94E9042AE041E050E0C5
:102DF00060E070E080EB97E00E940D0C83E092E0D1
:102E00000E94880C2AE044E050E060E070E080EB33
:102E100097E00E940D0C85E092E00E94AB0C80EBE5
:102E200097E00E94920C80915506882309F4E5C032
:102E30000E94B803882321F08CE092E00E94880C65
:102E40000E94B803882321F083E492E00E94880C5A
:102E50000E94B803882321F083E692E00E94880C48
:102E600080910607813079F462E082E498E00E9464
:102E7000900A63E08EE298E00E94900A69E08CE19B
:102E800098E00E94900A809106078230D1F583B1C4
:102E900090916B008923809326068091260680936B
:102EA000250689B18F708093320680913206809317
:102EB000310661E577E082E00E94140A80933306D0
:102EC0008091330687FD1DC090E080E02CED35E059
:102ED000FC01EE0FFF1FE75FF94F3183208301965E
:102EE00089309105A9F78AE080930806109242067E
:102EF0001092430682E080930706809107060E94A5
:102F0000AA0980EB97E090931108809310088091B4
:102F1000170880682EE238E03093130820931208D7
:102F200090911608907F98609093160890EA90937D
:102F3000180826E930E030931508209314088F7C98
:102F40008F7B809317081092190810921B0810921B
:102F50001A086AEA70E0CE0101960E94420EBE0194
:102F60006F5F7F4F8AE098E00E944C0BCE01019684
:102F70000E94850B1A8219821C821B821E821D826E
:102F80006AE078E0CE0101960E94CC0BCE0101965A
:102F90000E941C0E682F70E0809114089091150813
:102FA0000E943D25CE0101960E94850B0E94990E3C
:102FB0000091040810910508C801019611F481E000
:102FC00090E00E941B267C0160910008709101082E
:102FD0000E94062820E031E0822F90E080179107C0
:102FE000A0F4F701E80FF91F4081403521F4825B1E
:102FF000994FFC0130832F5FEFCF0E94B8038823E5
:1030000009F41ECF87E292E019CF80EB97E00E948F
:10301000920C00E716E0212C312C2101239424E7A7
:10302000622E24E0722E8091170886FD26C080EB68
:1030300097E00E94040718161906FCF480EB97E04D
:103040000E94C2068D3071F0833409F448C3909118
:103050003406883009F08DC3992379F0915090930C
:1030600034060BC080913406E82FF0E0E95CF94F9C
:1030700010821092340687FF88C3F090060791E013
:10308000F9124DC067E082E498E00E94430988236A
:1030900009F46BC7F092E8062091E6063091E70646
:1030A000C901880F991F820F931F209150083091FA
:1030B0005108409150085091510824173507A9F73D
:1030C000820F931F96958795969587959093E7061F
:1030D0008093E60667E08CE198E00E94430988232C
:1030E000F1F02091E4063091E506C901880F991F9F
:1030F000820F931F20912A0830912B0840912A08B3
:1031000050912B0824173507A9F7820F931F969526
:103110008795969587959093E5068093E406809130
:103120000607823039F580914206882309F420C7CA
:103130008091430690E0880F892F881F990B892B77
:1031400009F416C7809143068F778093430681E088
:103150008093E80680910A070E942A089093E70668
:103160008093E606809109070E942A089093E5065D
:103170008093E406C0901107D0901207F12CE12C47
:103180006091E4067091E50690E080E06C197D099D
:103190008E099F09660F771F881F991F20910F07BF
:1031A0003091100750E040E02C193D094E095F09AD
:1031B0000E94A5252093E30680914606811109C04F
:1031C0000E94C703709345066093440681E0809394
:1031D0004606809112089091130860911808629534
:1031E00066956770DC01ED91FC910190F081E02D16
:1031F0000995882309F4C3C70E94C7037093450645
:10320000609344068091170886FFBBC68091100822
:1032100090911108DC01ED91FC910084F185E02D85
:103220000995892B09F47FC08091100890911108AD
:10323000DC01ED91FC910284F385E02D09958D3040
:1032400009F071C0809112089091130860911808DC
:103250006F71DC01ED91FC910280F381E02D099505
:103260007C018091160882958F7090E00196880FFE
:10327000991F2091140830911508B701820F931FF0
:103280000E943D25B70180911008909111080E947D
:10329000590CE09117080E2E000CFF0BEE27FF0FC4
:1032A000EE1FFF27EE0FFF1FE45BFC4F659174914B
:1032B00080911008909111080E94E90480911608ED
:1032C000982F92959F708F70E82FE150FF0B9E17FB
:1032D0001F060CF050C69F5F9295907F892B8093BC
:1032E000160863E573E080911008909111080E9420
:1032F000E9044091160842954F7050E04F5F5F4FD0
:10330000052E000C660B770B2AE080911008909137
:1033100011080E940D0C60E573E0809110089091F7
:1033200011080E94E9048091170886FD38C0809139
:103330001A0890911B08E0900F01F0901001E81618
:10334000F90669F1E094F094E822F92290931001D3
:1033500080930F01CC24C394D12CC6010197D701CF
:1033600002C0B695A7958A95E2F7A0FF11C080919B
:10337000E3060E94D00AB601680F711D83E00E9427
:10338000D3038091E3060E94D00A8C0D8093E2065D
:10339000BFEFCB1ADB0AE9E0CE16D104F1F680913B
:1033A000E806811103C70E94C703C0900608D090A9
:1033B0000708E0900808F09009086C197D098E094B
:1033C0009F096A3F710581059105A0F0F0900E01FB
:1033D0006F2D85E00E94F70281E0F826F0920E0141
:1033E0000E94C7036093060870930708809308083B
:1033F000909309088091E106882309F483C08091A5
:10340000D90681110DC00E94C7036093D506709341
:10341000D6068093D7069093D80681E08093D9068C
:103420000E94C703C090D506D090D606E090D7067C
:10343000F090D8066C197D098E099F096A3F7105C5
:103440008105910508F45EC00E94C7036093D5060C
:103450007093D6068093D7069093D8066091E606BF
:103460007091E7066115710509F4B7C66C3DF5E08A
:103470007F0708F0A0C68091110790911207681786
:10348000790720F4709312076093110780910F075A
:10349000909110072091110730911207820F931F0E
:1034A0009695879590930E0780930D0780EB97E094
:1034B0000E94590C8BEB95E00E94880C60911107DB
:1034C0007091120780EB97E00E94590C8BEB95E00E
:1034D0000E94880C60910D0770910E0780EB97E0B9
:1034E0000E94590C8BEB95E00E94880C60910F07AD
:1034F0007091100780EB97E00E94590C80EB97E0E9
:103500000E94920C8091680681110DC00E94C70331
:1035100060936406709365068093660690936706D1
:1035200081E08093680680915C0681110DC00E9445
:10353000C703609358067093590680935A06909378
:103540005B0681E080935C060E94C703C09064061E
:10355000D0906506E0906606F09067066C197D09CC
:103560008E099F09653F71408105910508F48DC65C
:103570000E94C70360936406709365068093660695
:103580009093670680915706882309F44DC00E94E6
:10359000B803882341F06091E6067091E70680EB5E
:1035A00097E00E94590C0E94B803882321F08BEB0E
:1035B00095E00E94880C0E94B803882341F0609136
:1035C000E4067091E50680EB97E00E94590C0E949A
:1035D000B803882321F08BEB95E00E94880C0E94B1
:1035E000B803882309F18091E3060E94D00A9091E4
:1035F000E206A92FA80FBB27BB1FCD019F93AF9356
:1036000086E593E09F938F931F9284E68F931F9399
:103610000F930E947E2280E796E00E94880C0FB6EE
:10362000F894DEBF0FBECDBF2091E6063091E706CD
:10363000B09055062115310509F4FFC5C09011075A
:10364000D0901207F12CE12C50E040E02C193D09FC
:103650004E095F09ADE1B0E00E94C42520910F073B
:103660003091100750E040E02C193D094E095F09E8
:103670000E94A5252F5F3F4F4F4F5F4F2093560667
:10368000809156068B1519F090E00E941E078091DC
:1036900056068093550684E00E94CE02982E8093B1
:1036A00054068CE3A82E81E0B82EF12CE12CD50134
:1036B0008D915D010E94CE02F70131966F01892B39
:1036C00041F49110BDC5F701E25BF94F8081811192
:1036D000BAC5760136E0C316D10449F7D6C5809144
:1036E00016088F7080931608809117088064809365
:1036F000170865E472E080911008909111080E940B
:10370000E9046AE070E080E090E00E948603809126
:10371000100890911108DC01ED91FC910084F18575
:10372000E02D0995892B59F080911008909111088E
:10373000DC01ED91FC910284F385E02D09958091E7
:10374000100890911108DC01ED91FC910084F18545
:10375000E02D0995892B09F490CC80911008909167
:103760001108DC01ED91FC910284F385E02D0995AF
:1037700084CC9A3038F4E92FF0E0E95CF94F80838B
:103780009F5F6DCC1092340678CC809137068D34D3
:1037900009F4B1C10CF0BEC0843409F4BBC30CF011
:1037A00093C08B3209F429C38D3209F442C38111CD
:1037B000D5C30E94B803882321F085E892E00E94D7
:1037C000880C0E94B803882321F080E992E00E94CF
:1037D000880C0E94B803882321F086EA92E00E94B8
:1037E000880C0E94B803882321F083EC92E00E94A9
:1037F000880C0E94B803882321F086ED92E00E9495
:10380000880C0E94B803882321F08EEE92E00E947B
:10381000880C0E94B803882321F08CE093E00E947A
:10382000880C0E94B803882321F08FE193E00E9466
:10383000880C0E94B803882321F080E493E00E9462
:10384000880C0E94B803882321F08BE993E00E9442
:10385000880C0E94B803882321F08AEB93E00E9431
:10386000880C0E94B803882321F08DED93E00E941C
:10387000880C0E94B803882321F087EF93E00E9410
:10388000880C0E94B803882321F080E194E00E9414
:10389000880C0E94B803882321F08FE194E00E94F5
:1038A000880C0E94B803882321F085E394E00E94ED
:1038B000880C0E94B803882321F088E993E00E94D5
:1038C000880C1092380653C0883409F472CF8934BA
:1038D00009F4EDC2853409F041C389E396E00E9402
:1038E0004822863008F03AC3809307070E94B80345
:1038F000882309F418C1E0910707F0E0EE0FFF1FDD
:10390000E05DFE4F81818F9380818F9384EF92E001
:103910009F9395C1833509F409C174F5803509F485
:10392000B9C1823509F4FDC28F3409F017C3809103
:1039300038068D3309F0A6C1809139068053823054
:1039400008F09BC169E376E0CE0101960E94ED0B81
:103950008D819E81089709F47AC180EB94E00E94E2
:10396000AB0C10923806CE0101960E94850B87E3BE
:1039700096E00E94AB0C81CB8735B1F1883509F414
:1039800077C2863509F0EAC2809138068D3309F096
:10399000E5C289E396E00E9448227C018FEF8E0DFC
:1039A0008E3128F70E94B8036701DD248823B1F027
:1039B000DF92CF9223E433E03F932F931F9284E66C
:1039C0008F931F930F930E947E2280E796E00E94C0
:1039D000880C0FB6F894DEBF0FBECDBFE09205078E
:1039E000C6010E941E079FC00E94B803882321F0D1
:1039F00081E594E00E94880C80910607813001F5F2
:103A00000E94B8038823E1F01F921F92E9E6F4E0D8
:103A1000FF93EF937F926F9245E952E05F934F934C
:103A20001F9284E68F931F930F930E947E2280E75C
:103A300096E00E94880C0FB6F894DEBF0FBECDBF93
:103A400080910607823041F50E94B803882321F156
:103A5000E0910607E150FF0BEE0FFF1FEE5BFE4FFC
:103A600081818F9380818F931F921F927F926F929B
:103A7000E1E7F2E0FF93EF931F9284E68F931F93A9
:103A80000F930E947E2280E796E00E94880C0FB67A
:103A9000F894DEBF0FBECDBF80910607833008F4D7
:103AA00010CF0E94B803882309F40BCFE0910607DA
:103AB000E150FF0BEE0FFF1FEE5BFE4F81818F93F6
:103AC00080818F931F921F927F926F928BE492E07E
:103AD0009F938F931F9284E68F931F930F930E945F
:103AE0007E2280E796E00E94880C0FB6F894DEBF35
:103AF0000FBECDBFE6CE8091E10691E0892780938D
:103B0000E106882341F00E94B803882309F4D9CE46
:103B10008DE794E0D4CE0E94B803882321F087E992
:103B200094E00E94880C0E94F30ACBCE8091380664
:103B30008D3309F086C080913906873519F40E94CB
:103B4000BD0DF1CF893459F58BE396E00E944822F0
:103B5000809306070E94B803882329F3E0910607A3
:103B6000E150FF0BEE0FFF1FEE5BFE4F81818F9345
:103B700080818F93A0E3B3E0BF93AF931F9284E65D
:103B80008F931F930F930E947E2280E796E00E94FE
:103B9000880C0FB6F894DEBF0FBECDBFC4CF813303
:103BA000C9F480913A06803209F0BDCF8BE396E0EC
:103BB0000E94482280930A070E94B803882309F4D0
:103BC000B2CF80910A071F928F9344E253E05F9334
:103BD0004F93D4CF8233C9F480913A06803209F0F2
:103BE000A2CF8BE396E00E944822809308070E94B0
:103BF000B803882309F497CF809108071F928F9309
:103C0000E3E1F3E0FF93EF93B9CF833309F08BCF78
:103C100080913A06803209F086CF8BE396E00E94CD
:103C20004822809309070E94B803882309F47BCFB8
:103C3000809109071F928F9382E093E09F938F9367
:103C40009DCF8F3309F08AC10E94990E3ACEBE01F2
:103C50006F5F7F4F8AE098E00E94CC0B6AE078E0CB
:103C60008AEA90E00E94140B8FEB94E00E94880C8B
:103C70008AE098E00E94960C74CE8BEC94E00E944F
:103C8000AB0C1FCE8F3309F069C18AE098E00E9427
:103C9000960C17CE809138068F3309F05FC1809162
:103CA0003606882309F4A6C00E94B803882321F0B1
:103CB00088E993E00E94880C0E94B803882321F0D1
:103CC0008BED94E00E94880C0E94B803882321F0B9
:103CD00089EF94E00E94880C0E94B803882321F0A9
:103CE0008BED94E00E94880C83E40E9422070E94DE
:103CF000B8038823D1F083E490E00E94BC0C9F932A
:103D00008F938DED92E09F938F931F9284E68F9314
:103D10001F930F930E947E2280E796E00E94880CFA
:103D20000FB6F894DEBF0FBECDBF84E40E94220719
:103D300084E490E00E94BC0C0E94B8038823F9F050
:103D4000E0910707F0E0EE0FFF1FE05DFE4F81817D
:103D50008F9380818F938CEC92E09F938F931F922F
:103D600084E68F931F930F930E947E2280E796E054
:103D70000E94880C0FB6F894DEBF0FBECDBF88E45A
:103D80000E9422070E94B8038823D1F088E490E0C3
:103D90000E94BC0C9F938F938AEB92E09F938F932A
:103DA0001F9284E68F931F930F930E947E2280E7D9
:103DB00096E00E94880C0FB6F894DEBF0FBECDBF10
:103DC0008CE40E9422070E94B803882309F479CD6D
:103DD0008CE490E00E94BC0C9F938F93E6EAF2E0A3
:103DE000FF93EF931F9284E68F931F930F930E948C
:103DF0007E2277CE87E195E062CD0E94B8038823CA
:103E000021F08AE295E00E94880C8091E2068F5FA3
:103E10008093E206909135069817C8F49093E206D5
:103E20000E94B803882399F081E395E00E94880CF2
:103E30000EC00E94B803882321F087E495E00E9419
:103E4000880C8091E206815049F08093E2066091EF
:103E5000E20670E083E00E94D30333CD81E08093DB
:103E6000E2060E94B803882391F38EE495E0DECF4A
:103E70008091540681110BC08EE00E9422070E949F
:103E8000B803882321F084E695E00E94880C809195
:103E90005406813009F015CD8DE00E9422070E9462
:103EA000B803882309F40DCD8CE695E008CD809108
:103EB00038068D3351F580913906803511F08E34F6
:103EC00009F569E376E0CE0101960E94ED0B8D8144
:103ED0009E81069719F083E795E041CDBE016F5FA3
:103EE0007F4F80E098E00E94CC0B60E078E084E6B1
:103EF00090E00E94140B82E895E00E94880C80E01C
:103F000098E0B8CE89E895E0BACE8F3339F580E0F5
:103F100098E0BDCE8091570691E08927809357069F
:103F2000D0CC0E94B803882321F089E995E00E9453
:103F3000880CF12CE12C60E0C7010E9443255FEF63
:103F4000E51AF50AE11484E0F806A9F70E94B8031F
:103F5000882309F4B6CC85EA95E0B1CC60EF72E035
:103F600087E396E00E946F2202CD1092E806B2C865
:103F70001092E806FFC8809117088F7B809317087E
:103F8000D2C980911908982F969596959695943157
:103F900040F49F5F990F990F990F8770892B809339
:103FA00019088091120890911308609118086F7198
:103FB000DC01ED91FC910280F381E02D09954C012B
:103FC000E0901608BE2DBF70BF83A0901408B0907B
:103FD00015086501E2E0CE0ED11CF12CFF81FF1522
:103FE00091F0C6010E9437259C01245131098216A7
:103FF000930620F044968815990538F4F39422E04E
:10400000C20ED11CEBCF5FE0F52EC0901A08D09005
:104010001B0880911708982F92959370923009F49D
:104020006AC008F072C0913079F03FE0F31609F4ED
:104030007AC94F2D4F70807C90911908987F90938A
:104040001908842B80619ACF8F70E82E8F1193C04E
:104050008091190891E0980F9770887F892B809341
:104060001908933008F45FC9809116088F709F2D4E
:104070009295907F892B80931608992493949F0C96
:104080005F81591568F0C5010E943725A92DA150FF
:10409000BB0B02C096958795AA95E2F780FF1BC0DF
:1040A00020911908822F887F803A81F481E090E086
:1040B00002C0880F991FEA94E2F7C826D926D09249
:1040C0001B08C0921A0827702093190880911708BE
:1040D0008F7C806253CFD201C10104C0880F991F29
:1040E000AA1FBB1FFA94D2F78C299D2990931B0815
:1040F00080931A08EBCFBFE0FB1215C99091190805
:10410000987F90931908806339CFEFE0FE12DECFDD
:104110008091190891E0980F9770887F892B809380
:104120001908933008F4FFC8E2944FE0E422FF241A
:10413000F394FE0CFF81FF15F0F0C5010E943725B6
:104140004F2D4150550B02C0969587954A95E2F741
:1041500080FD11C0D201C10104C0880F991FAA1FA0
:10416000BB1FEA94D2F7809590958C219D21909366
:104170001B0880931A08809117088F7CFFCE0E943D
:10418000C7032091440630914506621B730B603DC6
:10419000774008F4C8C80E94C7037093450660932F
:1041A000440610921B0810921A08BDC861E085E011
:1041B0000E94F7021FC96C3D25E0720709F466C929
:1041C00080910F07909110078617970708F05EC936
:1041D0007093100760930F0759C90E94C70360933B
:1041E000D5067093D6068093D7069093D8060E9482
:1041F000B803882309F486C9E0910607E150FF0B54
:10420000EE0FFF1FEE5BFE4F81818F9380818F93B6
:1042100088E693E09F938F931F9284E68F931F937A
:104220000F930E947E2280E796E00E94880C0FB6D2
:10423000F894DEBF0FBECDBF65C9B092560620CA46
:10424000F1E09F1246CA0E94C703209158063091A0
:10425000590640915A0650915B06621B730B840B02
:10426000950B693873418105910508F432CA0E94A3
:10427000C703609358067093590680935A0690932B
:104280005B06B60182E10E94D30380E090E0892BB7
:1042900011F40C9413180E947705882311F40C94E0
:1042A00013180E9400000C940F1880E098E00E9400
:1042B000850B8AE098E00C94850BB0E0A0E0E3E683
:1042C000F1E20C94D0255C016B017A016115710556
:1042D00019F0FB0191838083E114F10449F0C701D7
:1042E0000297839728F060E070E0CB019CC05E01EC
:1042F000E5012196F5011081812F90E00E94662250
:10430000892BA9F71D3209F056C02196F5011181BC
:1043100001E0E114F10409F4AEC0F0E1EF16F1049C
:1043200009F08EC0103341F488818F7D883509F003
:1043300083C0198122960260E0E1EE2EF12C8824E0
:104340008A94982CA82CFFE0BF2E20E060E070E05B
:10435000CB0127010F2C000C66087708FE0150EDF9
:10436000352E310E39E0331538F43FEB310F3A3149
:10437000A0F549EC342E310E3E141F04BCF52F3F3E
:10438000B9F086169706A806B90670F1A301920146
:104390000E947325232D30E050E040E0620F731F30
:1043A000841F951F6217730784079507E8F021E0C3
:1043B00021961081D3CF1B3221F4E5012296F5011D
:1043C000118100E0A6CF78E0E72EF12C88248A94B2
:1043D000982CA82C6FE1B62EB8CF3FE9310F3A31B7
:1043E00028F439EA332EC7CF2FEFE2CFC114D1041E
:1043F00031F02223E9F02197F601D183C08300FF39
:1044000007C090958095709561957F4F8F4F9F4F16
:104410002F3F49F482E290E090935508809354082E
:104420006FEF7FEFCB01CDB7DEB7E1E10C94EC2568
:1044300001FFE5CF2297E0CF10E3E114F10419F278
:104440003AE0E316F104E9F080E1E816F10409F43A
:1044500073CFE8E0EE16F10409F4B8CF6FEF7FEF09
:10446000CB0197010F2C000C440B550B0E948325A8
:1044700049015A016ACF103309F456CF9AE0E92E68
:10448000F12C89E9882E982CA82C89E1B82E5DCFD3
:10449000FC0188279927E89421912032E9F32930FB
:1044A00010F02E30C8F32B3241F02D3239F46894DD
:1044B00004C00E947622820F911D219120532A3040
:1044C000C0F31EF4909581959F4F089591110C941F
:1044D0008824803219F089508550C8F70895FB016F
:1044E000DC0105900D920020E1F708957AE0979F96
:1044F000902D879F802D910D11240895AEE0B0E09E
:10450000E4E8F2E20C94DD250D891E898F89988DEF
:104510002EE02C831A83098397FF02C080E090E885
:1045200001979E838D83AE01455E5F4F698D7A8DC5
:10453000CE0101960E94AE224D815E8157FD0AC0D8
:104540002F813885421753070CF49A01020F131F6D
:10455000F80110822E96E4E00C94F925ABE0B0E06F
:10456000E4EBF2E20C94CF257C013B018A01FC01D3
:1045700017821682838181FFC8C1CE0101965C013A
:10458000F7019381F30193FD859193FF81913F01A1
:10459000882309F453C1853239F493FD859193FF43
:1045A00081913F01853229F4B70190E00E94A12456
:1045B000E7CF912C212C312CFFE1F31538F08B3211
:1045C00011F190F4803209F1833229F137FC3CC0BB
:1045D00020ED280F2A3050F536FE20C08AE0989E44
:1045E000200D1124922E06C08D3291F0803371F788
:1045F000689430F8F30193FD859193FF81913F0119
:104600008111DACF21C0689431F8689432F8F2CF82
:10461000689433F8EFCF689434F8ECCFEAE02E9E3C
:10462000200D1124222E689435F8E4CF8E3229F41F
:1046300036FC04C1689436F8DDCF8C3619F46894E2
:1046400037F8D8CF8836B1F2982F9F7D95549330A4
:10465000E0F08336A1F18337C1F1833509F063C0FF
:104660002801F2E04F0E511CF801C080D180692D65
:1046700070E036FC02C06FEF7FEFC6010E948B2412
:104680004C01689437F882010AC00C5F1F4FFFE3AA
:10469000F98388248394912C6501E89437F833FEDC
:1046A0002DC0522C8114910471F5552009F468CF66
:1046B000B70180E290E00E94A1245A94F6CFF8015D
:1046C000808189830E5F1F4FE4CF2801F2E04F0EF7
:1046D000511CF801C080D180692D70E036FC02C009
:1046E0006FEF7FEFC6010E9496244C018201D5CF67
:1046F000B70180E290E00E94A1242A9428141904B2
:1047000009F0B0F7CECFF60137FC859137FE8191E5
:104710006F01B70190E00E94A12451105A94F1E07A
:104720008F1A9108BFCF843619F0893609F077C007
:10473000F80137FE6BC060817181828193810C5FCB
:104740001F4FF32DFF763F2E97FF09C09095809560
:10475000709561957F4F8F4F9F4F689437F82AE08F
:1047600030E0A5010E94D124C82ECA188C2C432CFD
:1047700036FE0CC0E89440F8C91440F434FE05C07D
:1047800032FC03C0F32DFE7E4F2E892C44FE95C0D3
:10479000FE01EC0DF11D8081803309F087C0242DCE
:1047A000297E422E842D8870582E43FC95C040FEF1
:1047B0008FC09C2C821418F42C0C922C981844FE58
:1047C00091C0B70180E390E00E94A12442FE09C09D
:1047D00088E790E041FE02C088E590E0B7010E94C2
:1047E000A124C91408F48AC0CA94D12C9FEFC91A15
:1047F000D90ACA0CDB1CF60182916F01B70190E067
:104800000E94A124AC14BD04B1F74FCF6081718127
:10481000072E000C880B990B0E5F1F4F92CFD32CE5
:10482000E894D4F82AE030E0853739F1232D297F48
:10483000D22E8F3601F148F48835A9F0F701868130
:1048400097812B96E2E10C94EB25803749F088376D
:10485000A9F7D4FE02C06894D2F820E130E00DC080
:104860006894D4F8F6CF34FE03C0822F8660D82E29
:1048700020E132E002C028E030E0F801D7FE0FC0AE
:1048800060817181828193810C5F1F4FA5010E941D
:10489000D124C82ECA183D2CE89437F867CF608120
:1048A000718190E080E00E5F1F4FF0CF42FC02C0AC
:1048B000839478CF8394839475CF842D867809F47C
:1048C00071CFF6CFB70180E290E00E94A1248394DB
:1048D0008214C0F3512C73CF522C5818821408F450
:1048E0006ECFF8CF842D867809F47BCF8BE241FE22
:1048F00080E247FC8DE2B70190E071CFB70180E321
:1049000090E00E94A1249A946CCF8FEF9FEF99CFF3
:10491000992788270895FC01059061507040011087
:10492000D8F7809590958E0F9F1F0895FC016150D8
:10493000704001900110D8F7809590958E0F9F1FC1
:1049400008950F931F93CF93DF93182F092FEB0137
:104950008B8181FD09C01FEF0FEF812F902FDF9119
:10496000CF911F910F91089582FF14C02E813F8136
:104970008C819D81281739073CF4E881F981CF01AA
:1049800001969983888310838E819F8101969F83EE
:104990008E83E3CFE885F985812F0995892BA1F3D3
:1049A000DACFFA01AA27283051F1203181F1E894B9
:1049B0006F936E7F6E5F7F4F8F4F9F4FAF4FB1E012
:1049C0003ED0B4E03CD0670F781F891F9A1FA11D0D
:1049D000680F791F8A1F911DA11D6A0F711D811D0E
:1049E000911DA11D20D009F468943F912AE0269FD3
:1049F00011243019305D3193DEF6CF010895462F32
:104A00004770405D4193B3E00FD0C9F7F6CF462F12
:104A10004F70405D4A3318F0495D31FD405241937B
:104A200002D0A9F7EACFB4E0A69597958795779538
:104A30006795BA95C9F700976105710508959B01BF
:104A4000AC010A2E06945795479537952795BA9548
:104A5000C9F7620F731F841F951FA01D0895F99950
:104A6000FECF92BD81BDF89A992780B50895A8E13F
:104A7000B0E042E050E00C9453250196272F0E94AD
:104A800062250C946125262FF999FECF1FBA92BD9D
:104A900081BD20BD0FB6F894FA9AF99A0FBE01961F
:104AA0000895DC01CB01FC01F999FECF06C0F2BDEF
:104AB000E1BDF89A319600B40D9241505040B8F7DC
:104AC0000895262FF999FECF92BD81BDF89A0197DE
:104AD00000B4021639F01FBA20BD0FB6F894FA9A46
:104AE000F99A0FBE0895DB018F939F930E94C4250E
:104AF000BF91AF91A29F800D911DA39F900DB29F7A
:104B0000900D11240895A1E21A2EAA1BBB1BFD01D2
:104B10000DC0AA1FBB1FEE1FFF1FA217B307E4079C
:104B2000F50720F0A21BB30BE40BF50B661F771FF4
:104B3000881F991F1A9469F76095709580959095D4
:104B40009B01AC01BD01CF010895052E97FB1EF41A
:104B500000940E94BC2557FD07D00E94832507FCC6
:104B600003D04EF40C94BC2550954095309521957A
:104B70003F4F4F4F5F4F0895909580957095619589
:104B80007F4F8F4F9F4F08950E940626A59F900D3F
:104B9000B49F900DA49F800D911D112408952F9214
:104BA0003F924F925F926F927F928F929F92AF92BD
:104BB000BF92CF92DF92EF92FF920F931F93CF930A
:104BC000DF93CDB7DEB7CA1BDB0B0FB6F894DEBFA1
:104BD0000FBECDBF09942A88398848885F846E84C7
:104BE0007D848C849B84AA84B984C884DF80EE8011
:104BF000FD800C811B81AA81B981CE0FD11D0FB61A
:104C0000F894DEBF0FBECDBFED010895A29FB001A5
:104C1000B39FC001A39F700D811D1124911DB29FF0
:104C2000700D811D1124911D0895EE0FFF1F059039
:104C3000F491E02D09940F931F93CF93DF9382306B
:104C4000910510F482E090E0E0915808F091590845
:104C500030E020E0B0E0A0E0309799F42115310574
:104C600009F44AC0281B390B24303105D8F58A8154
:104C70009B816115710589F1FB0193838283FE019C
:104C800011C0408151810281138148175907E0F01A
:104C90004817590799F4109761F012960C931297E0
:104CA00013961C933296CF01DF91CF911F910F91F4
:104CB00008950093580810935908F4CF2115310531
:104CC00051F04217530738F0A901DB019A01BD01E9
:104CD000DF01F801C1CFEF01F9CF9093590880931C
:104CE0005808CDCFFE01E20FF31F8193919322501C
:104CF000310939832883D7CF20915608309157083E
:104D0000232B41F42091250130912601309357083F
:104D1000209356082091230130912401211531055B
:104D200041F42DB73EB74091270150912801241B33
:104D3000350BE0915608F0915708E217F307A0F4FD
:104D40002E1B3F0B2817390778F0AC014E5F5F4FE1
:104D50002417350748F04E0F5F1F509357084093B4
:104D60005608819391939FCFF0E0E0E09CCFCF93E2
:104D7000DF930097E9F0FC01329713821282A09131
:104D80005808B0915908ED0130E020E01097A1F4E7
:104D900020813181820F931F20915608309157084E
:104DA0002817390709F061C0F0935708E0935608B7
:104DB000DF91CF910895EA01CE17DF07E8F54A8128
:104DC0005B819E0141155105B1F7E901FB83EA833F
:104DD00049915991C40FD51FEC17FD0761F48081EB
:104DE00091810296840F951FE901998388838281BE
:104DF00093819B838A83F0E0E0E012968D919C91F1
:104E000013970097B9F52D913C911197CD0102961A
:104E1000820F931F209156083091570828173907A1
:104E200039F6309751F51092590810925808B093FE
:104E30005708A0935608BCCFD383C28340815181C9
:104E4000840F951FC817D90761F44E5F5F4F8881A3
:104E50009981480F591F518340838A819B81938395
:104E600082832115310509F0B0CFF0935908E09302
:104E700058089ECFFD01DC01C0CF13821282D7CF2C
:104E8000B0E0A0E0E6E4F7E20C94D1258C010097B5
:104E900051F4CB010E941B268C01C801CDB7DEB7AF
:104EA000E0E10C94ED25FC01E60FF71F9C01225078
:104EB0003109E217F30708F49DC0D901CD91DC91C7
:104EC0001197C617D70798F0C530D10530F3CE013A
:104ED00004978617970708F3C61BD70B2297C19331
:104EE000D1936D937C93CF010E94B726D6CF5B01FF
:104EF000AC1ABD0A4C018C0E9D1EA0915808B091B1
:104F00005908512C412CF12CE12C109731F580914E
:104F10005608909157088815990509F05CC0461607
:104F2000570608F058C08091230190912401009702
:104F300041F48DB79EB74091270150912801841B01
:104F4000950BE817F90708F055C0F0935708E09360
:104F50005608F90171836083A0CF8D919C911197C0
:104F600012966C90129713967C901397A815B9051A
:104F700059F56C0142E0C40ED11CCA14DB0420F1C7
:104F8000AC014A195B09DA011296159780F062822A
:104F9000738251834083D9016D937C93E114F104B2
:104FA00071F0D7011396FC93EE93129776CF229669
:104FB0008C0F9D1FF90191838083F301EFCFF09354
:104FC0005908E093580869CF4816590608F42C018F
:104FD0007D01D3019ACFCB010E941B267C01009753
:104FE00049F0AE01B8010E94FD27C8010E94B72612
:104FF000870153CF10E000E050CFFB01DC0102C07D
:1050000001900D9241505040D8F70895FB01DC010A
:1050100001900D920020E1F7089512E0C8E0D2E07F
:1050200004C0FE010E9415262196C930D107C9F798
:04503000F894FFCF22
:10503400FFFFFFFF2304230423042304230401FFAD
:10504400FF7EFF06000000000000EF00E10000000A
:1050540000000000005A08800000C18081000000A8
:10506400BD05C405C805CD05D205DA05121314150E
:105074000F0EDF05E30500000000AC050D053A0541
:10508400F8056B0549055D05000000009D0618063E
:10509400BE06B3060407C206E006000000000F08BF
:1050A40042080E08000000006C093A090E0830306E
:1050B400303030303030004E4E4E4E4E4E002A20AE
:1050C4006F4F20454550524F4D2053657474696E9F
:1050D4006773204F6F202A0D0A0050756C73657337
:1050E4003A2020202028005072696F723A20202034
:1050F4002020000D0A496E697469616C697A696ED1
:1051040067204446506C61796572202E2E2E0D0A5C
:10511400002A2A2A2A2A2A2A2A2A2A2A2A2A2A2A15
:105124002A002A20536F756E64204D6F64756C6578
:10513400202A002E00202A2A2A2A2A004446506CBB
:1051440061796572204D696E69206973206F6E6C98
:10515400696E652E0D0A004446506C6179657220B3
:105164004D696E69206973206F66666C696E652E81
:105174000D0A006F4F20555345204352204F4E20B7
:10518400594F5552205445524D494E414C204F6F72
:105194000D0A0048697420456E746572206F722090
:1051A40048202B20456E74657220666F7220486516
:1051B4006C700D0A000D0A482048656C700D0A00D9
:1051C4005720426F61726420436F6E6E6563746929
:1051D4006F6E730D0A00533D572057726974652032
:1051E40044656661756C742053657474696E677385
:1051F4000D0A00533F20526561642053657474693D
:105204006E67730D0A00533D49205820583D313DC7
:1052140050574D2C20323D4350504D0D0A00432031
:10522400537461727420427574746F6E7320436199
:105234006C6962726174696F6E0D0A004220536575
:10524400742050756C7365206D6F64650D0A004998
:105254003D58585858585820583D4E206F72205089
:1052640020285072696F726974696573290D0A0088
:10527400533D59205A20593D3120746F2033203139
:105284003D566F6C2C20323D427574746F6E7320E2
:105294006368616E6E656C20333D337838204275E7
:1052A40074746F6E732073656C656374696F6E20BC
:1052B4002F205A3D3120746F2031322028436861F9
:1052C4006E6E656C204E62290D0A00563D582058BA
:1052D4003D3120746F2033302044656661756C74F1
:1052E40020566F6C756D650D0A004D204D6178690F
:1052F4002F43656E7472652F4D696E692043686132
:105304006E6E656C20696E2075530D0A00503F2047
:1053140052656164204446506C6179657220636F04
:105324006E6669670D0A002B204F52202D204E65B2
:1053340078742F5072657620536F756E640D0A0071
:105344005820506C61792F50617573650D0A0044C3
:10535400204465627567206D6F6465204F4E2F4F42
:1053640046460D0A005220457261736520616C6CDB
:1053740020636F6E66696775726174696F6E0D0A7A
:10538400000D0A4320426F61726420436F6E6E65A4
:105394006374696F6E730D0A00423A38425554546F
:1053A4004F4E5300413A564F4C554D45005374618E
:1053B4007274204D696E69204D617869207365614E
:1053C4007263683A0D0A0053746F70204D696E69F8
:1053D400204D617869207365617263683A0D0A0033
:1053E40055736520382030206F7220312021005001
:1053F400756C7365204D6F64653A006F6E6C79202F
:10540400382030206F7220312021002A2A2A2A2AAB
:105414002A2A2A2A2A2A2A2A2A2A2A2A2A2A2A2AE8
:105424002A2A2A2A2A2A0D0A002A206F4F204446B3
:10543400506C617965722053657474696E6773206A
:105444004F6F202A0D0A004446506C617965722022
:105454006E6F7420666F756E64004E4558540D0A65
:1054640000536F6E206D6178696D756D2061747481
:1054740065696E74202100505245560D0A00536F21
:105484006E206D696E696D756D2061747465696EE9
:105494007420210050415553450D0A00504C415988
:1054A4000D0A005573652036204E206F722050205F
:1054B40021005072696F723A006F6E6C7920362049
:1054C4004E206F7220502021000D0A576169742EFE
:1054D4002E2E0D0A000D0A52657365742045455041
:1054E400524F4D20446F6E650D0A0009004E4F5215
:1054F4004D414C00504F5000524F434B004A415ACB
:105504005A00434C415353494300424153530050C2
:08551400574D004350504D00BB
:00000001FF
