:100000000C94CC020C94D9170C94B2170C948B1747
:100010000C9464170C94F4020C94F4020C943D17A5
:100020000C94F4020C944C1B0C9400180C946F1854
:100030000C94F4020C94F4020C94F4020C94F40268
:100040000C94F4020C94F4020C94F4020C94F40258
:100050000C94F4020C94F4020C94F4020C94F31635
:100060000C94F4020C941A1B0C94F41A0C94F402E1
:100070000C94F4020C94F4020C94F4020C94F40228
:100080000C94A11A0C94F4020C94F4020C94F40253
:100090000C94F4020C94F4020C94F4020C94F40208
:1000A0000C94F4020C94F4020C94F4024D696E6901
:1000B00043683A2020202025640D0A0043656E74B1
:1000C000657243683A202025640D0A004D61786905
:1000D00043683A2020202025640D0A00506C617985
:1000E0002053616D653A2025640D0A00506C6179DA
:1000F0002053746F703A2025640D0A004E657874A1
:100100003A20202020202025640D0A0050726576B8
:100110003A20202020202025640D0A00566F6C43D1
:10012000683A202020202025640D0A00566F6C3A82
:100130002020202020202025640D0A004551204D3C
:100140006F64653A202025730D0A0058616E79208E
:10015000757365204368616E6E656C202564207C34
:1001600020257300E4031C041C04540454048C0470
:100170008C04C404C404FC04FC04340534056C057C
:100180006C05A405A405DC05DC05140614064C0664
:100190004C0684068406BC06BC06F406F4062C074E
:1001A0002C07640764079C079C07D4072058616EDE
:1001B00079207175616C697479203D202564002077
:1001C0002852784E6962626C654C656E203D2564EC
:1001D00000204578704E6962626C654C656E3D2505
:1001E000640009566F6C756D653A25642020427570
:1001F00073793A25642020536F756E643A25640D37
:100200000A005377697463685B25642E2E315D3D67
:100210000050726F703D2025642000080B00020220
:100220000200000904000001020200000524001081
:10023000010524010101042402060524060001072A
:1002400005810310004009040100020A00000007B4
:100250000502024000000705830240000004030974
:100260000412010002EF0201404F1B06920001013F
:10027000020301537061726B46756E0053706172B8
:100280006B46756E2050726F204D6963726F00006F
:10029000C2010000000E000E000C0000E10000058D
:1002A00000220022002000009600000F00360036D9
:1002B000003400127A000017004300430041008020
:1002C0007000001A004A004A004800004B00002C51
:1002D00000710071007000403800004A009C0099D5
:1002E000009900802500007200EA00EA00E900C0E1
:1002F000120000E900DA01DA01D70160090000D735
:1003000001AC03AC03B103B0040000B3036E076E8D
:100310000767072C010000DC0EC11DC11DBE1D5565
:1003200073652025732020257358414E59202028BD
:1003300053425553204E65656420696E766572742C
:100340006572290D0A0055736520257320202573D9
:10035000534255532028505245562D4E4558542D42
:10036000504C41592F50415553452920285342554F
:1003700053204E65656420696E76657274657229D6
:100380000D0A005573652025732020257358414EB2
:10039000590D0A005573652025732020257343509D
:1003A000504D2028505245562D4E4558542D504CF6
:1003B00041592F5041555345290D0A005573652069
:1003C00025732020257358414E590D0A0055736539
:1003D00020257320202573202025730D0A004375E6
:1003E0007272656E7420736F756E643A2025640DA9
:1003F0000A0046696C657320666F756E643A202545
:10040000640D0A00457175616C697A65723A202045
:1004100025730D0A00566F6C756D65202020202015
:10042000203A2025640D0A00537461746520202051
:10043000202020203A2025730D0A004552520058F2
:10044000414E5920757365204368616E6E656C205E
:1004500025640D0A004551204D6F64653A202573CF
:100460000D0A00506C617953616D6543683A20252F
:10047000640D0A00506C6179506175736543683A88
:100480002025640D0A005072657643683A20256481
:100490000D0A004E65787443683A2025640D0A0001
:1004A000566F6C43683A2025640D0A00496E7075DA
:1004B00074204D6F64652069732025730D0A005602
:1004C0006F6C3A25640D0A00416C61726D3A20250B
:1004D0006420666972656420210D0A00536F756E91
:1004E000644E756D6265723A2025640D0A00536989
:1004F000676E616C20257320566F6C756D65206E7C
:100500006F7420666F756E6420210D0A0000000074
:1005100000240027002A002D003000000000020007
:10052000090F0000030401000C000000000000009F
:10053000000000000000000000000000002500286E
:10054000002B002E003100000000002300260029AF
:10055000002C002F0004040404040304050202021A
:10056000020403020202020606060606060404024C
:100570000202040404080201104080401020408060
:1005800040800802040180402010020110801020E9
:1005900040402000921B1B2D11241FBECFEFDAE03C
:1005A000DEBFCDBF16E0A0E0B1E0EEEAF6E602C0A5
:1005B00005900D92A03AB107D9F729E0A0EAB6E07C
:1005C00001C01D92AD3FB207E1F712E0CBECD2E0E3
:1005D00004C02197FE010E943033CA3CD107C9F7FD
:1005E0000E94DD1C0C944A330C9400008F929F9261
:1005F000AF92BF92FF920F931F93CF93DF934B0164
:100600005C01F42ECCE3D8E0E889F98982E08083AC
:10061000EC85FD8510820E851F8560E079E08DE315
:1006200090E0A50194010E94AF30215031094109A9
:1006300051095695479537952795F8012083188ECF
:10064000EC89FD89F082EA89FB8980818061808361
:10065000EA89FB89808188608083EA89FB898081BF
:1006600080688083EA89FB8980818F7D8083DF9128
:10067000CF911F910F91FF90BF90AF909F908F905F
:100680000895FC0180912108882311F13FB7F89467
:1006900082E08093E9002091F200822F90E018160A
:1006A000190614F481E090E0882339F0289844E694
:1006B000409320084091F1004083222339F020919B
:1006C000F200211103C02BE62093E8003FBF0895FC
:1006D0008FEF9FEF08952FB7F89483E08093E900A0
:1006E0009091E800892F807295FF04C09091F200EC
:1006F00080E4891B2FBF08958091180881110DC0D7
:1007000082E08093140884E0809315081092170803
:100710001092160881E08093180884E198E008950B
:1007200081508F3008F047C0E82FF0E0E656FC4FCC
:100730000C943033B703BB03A903AF03B303DB034C
:10074000DB03DB03BE03C403C803CC03D203DB0318
:10075000D603809180008F778093800008958091E8
:1007600080008F7DF9CF80918000877FF5CF84B5A1
:100770008F7784BD089584B58F7DFBCF80919000E5
:100780008F77809390000895809190008F7DF9CFAE
:1007900080919000877FF5CF8091C0008F77809304
:1007A000C00008958091C0008F7DF9CF8091C20074
:1007B000877F8093C2000895CF93DF93282F30E086
:1007C000F901E55EFA4F8491F901EC58FA4FD491A2
:1007D000F901EB5AFA4FC491CC23A1F081110E9488
:1007E0009003EC2FF0E0EE0FFF1FE95BFA4FA591AD
:1007F000B491EC91ED2381E090E009F480E0DF9189
:10080000CF91089580E090E0FACF1F93CF93DF93CC
:10081000282F30E0F901E55EFA4F8491F901EC5898
:10082000FA4FD491F901EB5AFA4FC491CC23A9F0B5
:10083000162F81110E949003EC2FF0E0EE0FFF1FA6
:10084000E75CFA4FA591B4918FB7F894EC91111130
:1008500008C0D095DE23DC938FBFDF91CF911F912D
:100860000895DE2BF8CFCF93DF9390E0FC01EC5896
:10087000FA4F24918B5A9A4FFC0184918823C9F036
:1008800090E0880F991FFC01E35FFA4FA591B491A6
:10089000FC01E75CFA4FC591D49161110DC09FB77F
:1008A000F8948C91209582238C9388812823288327
:1008B0009FBFDF91CF910895623051F49FB7F894B4
:1008C0003C91822F809583238C93E8812E2BEFCF50
:1008D0008FB7F894EC912E2B2C938FBFEACF3FB7B4
:1008E000F8948091100890911108A0911208B0918D
:1008F000130826B5A89B05C02F3F19F00196A11D2E
:10090000B11D3FBFBA2FA92F982F8827BC01CD0159
:10091000620F711D811D911D42E0660F771F881FB8
:10092000991F4A95D1F708958F929F92AF92BF92E7
:10093000CF92DF92EF92FF924B015C010E946F0415
:100940006B017C010E946F046C197D098E099F095F
:10095000683E734081059105A8F321E0821A910851
:10096000A108B10888EEC80E83E0D81EE11CF11C76
:1009700081149104A104B10429F7FF90EF90DF9056
:10098000CF90BF90AF909F908F900895CF93C091DC
:1009900023016AE070E080E090E00E94940481E02E
:1009A000C11101C080E0CF9108952FB7F8946091F4
:1009B0000C0870910D0880910E0890910F082FBFC0
:1009C0000895CF93DF9380931501109217016093E0
:1009D00018012091130190911401290F3327331F1F
:1009E000820F932F911D20911601820F911D680F88
:1009F000791F7195619571097093190160931A01BE
:100A00008091280890912908DC01ED91FC910084E7
:100A1000F185E02D0995892B61F08091280890914E
:100A20002908DC01ED91FC910284F385E02D099504
:100A3000E7CFC2E1D1E0809128089091290869911F
:100A4000DC01ED91FC910190F081E02D0995B1E080
:100A5000CC31DB0781F7DF91CF910C94D504CF9295
:100A6000DF92EF92FF921F93CF93DF93D82FC0E0D6
:100A700011E0C0902408D0902508E0902608F0905E
:100A8000270880911101882311F10E94D5046C1967
:100A90007D098E099F09683E73408105910560F0CC
:100AA000109211010E94D5046093240870932508C8
:100AB0008093260890932708CF5FDC13DACFDF916D
:100AC000CF911F91FF90EF90DF90CF9008950E94FB
:100AD000D5046C197D098E099F09643F7140810519
:100AE000910550F310931101DDCF862720E1829FFD
:100AF000B00111248627482F50E0292F382FCA0132
:100B000064E0959587956A95E1F728273927CA010A
:100B100073E0880F991F7A95E1F78227932708954C
:100B2000089540912E0750912F0720912C07309166
:100B30002D0742175307B4F49091E8009570E1F344
:100B40009091E80092FD19C08093F10080912E07EA
:100B500090912F0701968F739927892B19F48EEFA7
:100B60008093E80080912E0790912F070196909333
:100B70002F0780932E0781E0089580E00895EF927B
:100B8000FF920F931F93CF93DF93F82E192FE62E2A
:100B9000042F81E0860F880F0E94910583E00E9458
:100BA0009105CF2DD12FEC0EFD2EF11CCE15DF05BA
:100BB000B9F007FF13C0FE0184910E949105182F20
:100BC00080E00E949105812321968111EFCFDF9172
:100BD000CF911F910F91FF90EF9008958881EDCFF5
:100BE00081E0F5CFDF92EF92FF920F931F93CF93A7
:100BF000DF93D82E8A01EB017B01E40EF51ECE15A2
:100C0000DF0559F0D7FE12C0FE0184910E949105C4
:100C100021968111F4CF0FEF1FEFC801DF91CF9123
:100C20001F910F91FF90EF90DF9008958881EECF94
:100C30000F931F93CF93DF931F92CDB7DEB782E060
:100C4000898342E450E06BE172E080E80E94F205A3
:100C50000E947C03DC0112960D911C910115110577
:100C600089F0D801ED91FC910280F381E02DBE0165
:100C70006F5F7F4FC801099597FD04C0F80100859B
:100C80001185ECCF89810F90DF91CF911F910F914A
:100C90000895615030F02091F100FC01208301960D
:100CA000F8CF289884E6809320080895EF92FF9269
:100CB0000F931F93CF93DF938C017B01D0E0C0E0B3
:100CC000F701EC0FFD1F6491662361F0D801ED91EF
:100CD000FC910190F081E02DC8010995892B11F05C
:100CE0002196EECFCE01DF91CF911F910F91FF9012
:100CF000EF900895AF92BF92CF92DF92EF92FF9262
:100D00000F931F93CF93DF936C017B018B01040F33
:100D1000151FEB015E01AE18BF08C017D10759F0CF
:100D20006991D601ED91FC910190F081E02DC60111
:100D30000995892B79F7C501DF91CF911F910F910B
:100D4000FF90EF90DF90CF90BF90AF900895FC019F
:100D5000538D448D252F30E0842F90E0821B930B20
:100D6000541710F0CF96089501970895FC01918DC6
:100D7000828D981761F0A28DAE0FBF2FB11D5D96C9
:100D80008C91928D9F5F9F73928F90E008958FEF6B
:100D90009FEF0895FC01918D828D981731F0828D1F
:100DA000E80FF11D858D90E008958FEF9FEF089576
:100DB000FC01918D228D892F90E0805C9F4F821BDA
:100DC00091098F73992708958CE398E00E94D806C3
:100DD00021E0892B09F420E0822F089580E090E043
:100DE000892B29F00E94E40681110C9400000895DB
:100DF000FC01A48DA80FB92FB11DA35ABF4F2C9190
:100E0000848D90E001968F739927848FA689B78986
:100E10002C93A089B1898C9182748C93938D848D4D
:100E2000981306C00288F389E02D80818F7D80832E
:100E30000895EF92FF920F931F93CF93DF93EC01EE
:100E400081E0888F9B8D8C8D981319C0E889F98972
:100E5000808185FF14C09FB7F894EE89FF89608375
:100E6000E889F9898081827480839FBF81E090E066
:100E7000DF91CF911F910F91FF90EF900895F62E83
:100E80000B8D10E00F5F1F4F0F731127E02E8C8D1D
:100E90008E110CC00FB607FCFACFE889F989808162
:100EA00085FFF5CFCE010E94F806F1CFEB8DEC0F58
:100EB000FD2FF11DE35AFF4FF0829FB7F8940B8F7F
:100EC000EA89FB8980818062CFCFCF93DF93EC01E9
:100ED000888D8823B9F0AA89BB89E889F9898C9122
:100EE00085FD03C0808186FD0DC00FB607FCF7CFDE
:100EF0008C9185FFF2CF808185FFEDCFCE010E94DE
:100F0000F806E9CFDF91CF9108958F929F92AF922B
:100F1000BF92CF92DF92EF92FF920F931F93CF93E6
:100F2000DF936C017B018A0180912301882309F4FE
:100F30005CC080912108882309F457C08091320752
:100F400080FF05C08091E00082608093E000E801AE
:100F5000B12C8AEFA82E93E0892E2AE3922E2097B7
:100F600011F4BB20D9F10E946B0381110AC0AA942D
:100F7000AA20D9F161E070E080E090E00E94940442
:100F8000EECF8C171D0611F00CF08C2F9FB7F89444
:100F90008092E9002091E80025FD02C09FBFDFCFCD
:100FA000282F30E0C21BD30BF701815020F0419174
:100FB0004093F100FACFE20EF31EBB2021F0909295
:100FC000E800B12CEBCF8091E80085FDE7CF90924F
:100FD000E800BB24B394209709F3F3CF5D9884E62F
:100FE00080933107101611063CF081E090E0F60185
:100FF0009383828310E000E0C801DF91CF911F91BD
:101000000F91FF90EF90DF90CF90BF90AF909F90A7
:101010008F900895CF93DF931F92CDB7DEB769838A
:10102000DC01ED91FC910280F381E02D41E050E084
:10103000BE016F5F7F4F09950F90DF91CF910895AB
:1010400083E08093E9008091F200882319F08AE31D
:101050008093E80008950E946B0390E00895CF9379
:10106000DF931F92CDB7DEB7FC018485958597FD90
:1010700008C02FEF3FEF358724870F90DF91CF9186
:101080000895CE0101960E944103019719F48981C8
:1010900090E0F3CF8FEF9FEFF0CF0F931F93CF939D
:1010A000DF931F92CDB7DEB78C01FC018485958557
:1010B00097FF0BC0CE0101960E944103019771F486
:1010C000898190E0F80195878487F801848595856A
:1010D0000F90DF91CF911F910F9108958FEF9FEFA8
:1010E000F1CFFC018485958597FD0BC09FB7F894DF
:1010F00082E08093E9008091F2009FBF90E001962A
:1011000008959FB7F89482E08093E9008091F200FF
:101110009FBF90E00895DC015196ED91FC915297AC
:10112000908150968C918095892380830895209199
:101130003607309137072817390781F49091340723
:1011400080913507981751F0E0913407F0E0E951AC
:10115000F94F8081082E000C990B08958FEF9FEFB7
:10116000089520913607309137072817390739F449
:101170008FB7F89410923507109234078FBF0895F7
:1011800020913607309137072817390771F480917D
:1011900035072091340790E0805C9F4F821B9109B6
:1011A00060E470E00E941C33089590E080E00895B0
:1011B000209136073091370728173907B9F49091F5
:1011C000340780913507981789F0E0913407F0E0F3
:1011D000E951F94F80812091340730E02F5F3F4F74
:1011E0002F7333272093340790E008958FEF9FEFFC
:1011F000089520E001972FEF8F3F9207D9F70895C8
:10120000EF92FF920F931F93CF93DF93C091360716
:10121000D0913707209749F0EE85FF859D858B8D0E
:1012200081FF0AC08081892351F4DF91CF911F9102
:101230000F91FF90EF90089580818923B1F78B89FA
:101240009C890E94F90888E0E82EF12C10E001E06A
:101250008D899E890E94F908EE85FF8580819D8594
:10126000892339F1102B000F81E0E81AF10881F78A
:101270008F89988D0E94F9088B8D81FD1095809142
:1012800035072091340790E001968F73992728172E
:10129000190699F0E0913507F0E0E951F94F108314
:1012A0008091350790E001968F73992780933507D9
:1012B000BCCF802F80951823D6CF8B8D81608B8FEC
:1012C000B4CF90E080E00895BC0186E00C94E10486
:1012D000BC0183E00C94E10470E060E00C94E10454
:1012E0008F929F92AF92BF92CF92DF92EF92FF9236
:1012F0006C010E94D5044B015C01F12CE12C0E9491
:10130000D504681979098A099B096C157D058E0534
:101310009F0540F4E0913807F0913907309779F351
:101320000995EDCFFF90EF90DF90CF90BF90AF90F9
:101330009F908F900895962728E0AC01880F991F01
:1013400057FF04C031E2832730E193272150A9F7EA
:1013500008950895FC01E55BFF4F9081492F50E00F
:10136000062E02C0559547950A94E2F7DA01A1705E
:10137000BB2740FF09C021E030E001C0220F6A9581
:10138000EAF72095292320838A2F08956150603140
:1013900040F5FC0124812F7059F0253010F570E0E4
:1013A000660F771F680F791FFB0181A592A508952D
:1013B00070E0660F771F680F791FFB0121A532A52A
:1013C000A0E0B5E00E94D1302FEF37E040E050E0E0
:1013D0000E944E30DA01C90180599C4FAF4FBF4F78
:1013E00008958CED95E008950C94C609BF92CF92B4
:1013F000DF92EF92FF920F931F93CF93DF930E94A0
:101400006F046B017C01C0912208D091230801E098
:1014100010E0BB24BA94209709F459C08D818370E1
:101420008130D1F520916607422F50E08C818430C5
:1014300048F48823C1F1813099F18230B9F522E076
:1014400030E01AC098EF980F682F6450770B9430F3
:1014500058F08E3029F18F3091F3803121F18131B4
:1014600029F1682F6651770B9B01B80102C0660F06
:10147000771F2A95E2F79B0124233523232B61F064
:101480000E94DC039D8192FB992790F9981789F0BF
:10149000CA86DB86EC86FD860A80DB81C02DBBCF49
:1014A00028E030E0E9CF24E030E0E6CF21E030E092
:1014B000E3CF8A859B85AC85BD859601281B390BBA
:1014C0003F872E87B88A0E94D504698BE5CFDF91CC
:1014D000CF911F910F91FF90EF90DF90CF90BF9031
:1014E0000895BF92CF92DF92EF92FF920F931F93D6
:1014F000CF93DF930E946F046B017C01C09122089F
:10150000D0912308BB24BA9401E010E0209709F49D
:1015100058C08D818370D1F520915A07422F50E039
:101520008C81843048F48823C1F1813099F1823074
:10153000B9F522E030E01AC098EF980F682F645098
:10154000770B943058F08E3029F18F3091F3803141
:1015500021F1813129F1682F6651770B9B01B80188
:1015600002C0660F771F2A95E2F79B0124233523DB
:10157000232B61F00E94DC039D8192FB992790F957
:10158000981789F0CA86DB86EC86FD860A80DB81A7
:10159000C02DBCCF28E030E0E9CF24E030E0E6CF3A
:1015A00021E030E0E3CF8A859B85AC85BD8596013F
:1015B000281B390B3F872E87B88A0E94D504698B78
:1015C000E5CFDF91CF911F910F91FF90EF90DF90CA
:1015D000CF90BF900895FC01868597852685378535
:1015E00082179307C9F70895FC01808990E0062EC1
:1015F00002C0959587950A94E2F780FF1CC0208968
:1016000081E090E001C0880F6A95EAF78095822317
:10161000808B268537858685978528173907C9F7F2
:10162000868197812817390730F081E04085518500
:101630004217530708F480E008950C94F40AE091EF
:1016400069073CE0E39FF0011124EF5AF84F218530
:1016500080913D07843008F059C080913D07882370
:1016600009F486C080913D07813009F47BC08091E8
:101670003D07823009F479C080913D07833009F439
:101680007AC080913D07873009F469C090E080E01E
:10169000E09169074CE0E49FF0011124EF5AF84F04
:1016A0003385232330E082239323892B09F483C0DD
:1016B0000E946F042091D9063091DA06AB01421BDB
:1016C000530B9A017093DA066093D906283B5BE0CE
:1016D000350708F45EC020913E07209377071092EB
:1016E0003E072FEF209378073091D8062091D80637
:1016F0002E7F30FF21602093D8062091D80620FF4E
:101700003DC07093D7066093D606089580913D073B
:10171000883080F080913D078C3060F440913D0727
:101720004450550B81E090E002C0880F991F4A9504
:10173000E2F7AECF80913D078E30A1F080913D075A
:101740008F3099F080913D07803191F080913D0775
:10175000813189F040913D074651550BE3CF80E13F
:1017600090E096CF88E090E093CF82E090E090CF39
:1017700084E090E08DCF81E090E08ACF2091D60682
:101780003091D706621B730B7093D5066093D40615
:10179000089580913E07893070F4E0913E07F0E0B3
:1017A000EE0FFF1FE15CF84F3183208380913E07ED
:1017B0008F5F80933E0708952091780730E0062ED2
:1017C00002C0359527950A94E2F7C90181709927DF
:1017D00020FF0CC04091780721E030E001C0220FCB
:1017E0006A95EAF7209524232093780708958823A3
:1017F00099F090917707981778F08150E82FF0E0F2
:10180000EE0FFF1FE15CF84F8081918120813181D3
:1018100082179307C9F708958CED95E00895862FF8
:101820000C94F70B89B18F70E1E5F7E0878B86891F
:1018300097898927858B8789868B0288F389E02D94
:10184000099489B18F70E1E5F7E0878B86899789E4
:101850008927858B8789868B0088F189E02D0994FB
:1018600089B18F70E1E5F7E0878B868997898927B1
:10187000858B8789868B0684F785E02D099489B14D
:101880008F70E1E5F7E0878B868997898927858BBB
:101890008789868B0484F585E02D0994843088F44B
:1018A0009DB3882341F0813041F0823041F08EEFCA
:1018B00089238DBB08958BEFFBCF87EFF9CF8DEF99
:1018C000F7CF48EF480F443040F092EF980F943034
:1018D00020F096EE980F933068F590916B00282FCA
:1018E0002450330B443078F027EF8E30A1F02DEFE9
:1018F0008F3089F02BEF803171F02EEF813159F06C
:10190000282F2651330BB90121E030E001C0220F0E
:101910006A95EAF720952923443048F092EF980F12
:10192000943028F08A51F0E0E0E0833010F4EBE6E8
:10193000F0E020830895843088F49DB3882341F03B
:10194000813041F0823041F081E0892B8DBB0895D8
:1019500084E0FBCF88E0F9CF82E0F7CF28EF280FB3
:10196000243040F092EF980F943020F096EE980FCC
:101970009330D0F590916800243050F032EF380F5A
:10198000343030F036EE380FF0E0E0E0333010F471
:10199000E8E6F0E091609083243050F092EF980FE9
:1019A000943030F096EE980FF0E0E0E0933010F4D1
:1019B000EBE6F0E030812430C0F491E0682F645011
:1019C000770B01C0990F6A95EAF7932B243048F002
:1019D00022EF280F243028F08A51F0E0E0E0833035
:1019E00010F4EBE6F0E09083089598E08E3069F310
:1019F00092E08F3051F394E0803139F391E08131FE
:101A000021F3682F6651770BDCCFCF93DF93982FAC
:101A100088EF890F843028F081E022EF290F2430ED
:101A200008F480E0282F30E09430A0F59230D1F413
:101A30009CE0929FF001939FF00D1124EF5AF84F14
:101A40007383628320E33CE0309307012093060117
:101A500090916900937F946090936900E99ADF9177
:101A6000CF9108959CE0929FF001939FF00D112477
:101A7000EF5AF84F718360832FE33CE03093050108
:101A800020930401909169009C7F9160909369007C
:101A9000E89AE5CF50E040E096E0929FE001939F06
:101AA000D00D1124DE01A40FB51FAA0FBB1FAF5A22
:101AB000B84FED91FC91E617F70789F24F5F5F4F42
:101AC0004430510579F79CE0929FD001939FB00D6F
:101AD0001124AF5AB84F18969C911897943010F073
:101AE0008FEFBDCF1896EC911897EC0FFD2FF11DDD
:101AF000EE0FFF1FEF5AF84F7183608318969C9189
:101B000018979F5F18969C93AACF1F93CF93DF934C
:101B1000EC01162F98EF960F8D818C7F943088F111
:101B200081608D8366EF79E0812F0E94050D982FEB
:101B300093708D818C7F892B8D831C8388E592E047
:101B40009F838E8380E699E0998788878091220819
:101B5000909123089B838A83D0932308C093220803
:101B600060E0812F0E94330461E08C810E940504B3
:101B70008C810E949B0C8D818370DF91CF911F918E
:101B800008958D8361E77AE0CFCFDF92EF92FF92E5
:101B90000F931F93CF93DF93EC01898D9A8D892B3F
:101BA00071F481E090E09B838A8390E080E0DF9194
:101BB000CF911F910F91FF90EF90DF900895162F16
:101BC000DFB6F8948B8D81FD28C0CE010E948B0872
:101BD000898D9A8D0E94F9088B8D98E0E92EF12C61
:101BE00001E081FF28C0812F8023F1F0CE010E9407
:101BF0008B08898D9A8D0E94F908000F81E0E81A00
:101C0000F10889F7CE010E948B08DFBE898D9A8D7D
:101C10000E94F90881E090E0CACFE989FA898081C1
:101C20009889892B8083D4CFE989FA898081988922
:101C3000892B8083DECF812F8023B1F0E989FA8957
:101C400080819889892B8083898D9A8D0E94F908DB
:101C5000000F81E0E81AF10871F7E989FA898081BB
:101C60009889892B8083D1CFCE010E948B08ECCF3D
:101C70000F931F93CF93DF930AE218E0D0E0C0E008
:101C8000CE010E943830F80181938F012196C23134
:101C9000D105B1F78AE298E0DF91CF911F910F91C2
:101CA0000895FF920F931F93CF93DF930AE218E0FA
:101CB000D0E0C0E0F801F1908F01CE010E943830F1
:101CC000F81621F06F2DCE010E9440302196C231CE
:101CD000D10581F78AE298E0DF91CF911F910F91B2
:101CE000FF900895FB0101900020E9F73197AF01C3
:101CF000461B570BDC01ED91FC910280F381E02D36
:101D000009948F929F92AF92BF92EF92FF920F939E
:101D10001F93CF93DF93CDB7DEB7A1970FB6F8949B
:101D2000DEBF0FBECDBF7C01FA01CB0119A222306C
:101D300008F42AE08E010F5D1F4F822E912CB12CEA
:101D4000A12CBF01A50194010E94AF30F901CA0185
:101D50006A300CF5605DD8016E938D01232B242B26
:101D6000252B79F790E080E0109721F0BD01C701A5
:101D70000E94720EA1960FB6F894DEBF0FBECDBFC3
:101D8000DF91CF911F910F91FF90EF90BF90AF9097
:101D90009F908F900895695CDECFAC0170E060E0A9
:101DA0002AE089ED98E00C94810ECF92DF92EF92B9
:101DB000FF920F931F93CF93DF93EC016A017B0196
:101DC000E881F9810190F081E02D6DE209958C01A7
:101DD00044275527BA014C195D096E097F092AE08D
:101DE000CE010E94810E800F911FDF91CF911F9134
:101DF0000F91FF90EF90DF90CF900895CF92DF92F8
:101E0000EF92FF920F931F93CF93DF93C82FD62F9C
:101E100010E000E0E82EF12C87E0C82ED12C809154
:101E20006B078823A1F0C601801B910BA70102C09C
:101E3000559547958A95E2F741705527052E000C78
:101E4000660B770B2AE089ED98E00E94810E033043
:101E500011F4D11105C00F5F1F4F08301105F9F6BD
:101E6000C83081F148F4C23039F1C43041F1C13099
:101E700051F481E090E016C0C03239F168F485E099
:101E800090E0C03179F0DF91CF911F910F91FF90D9
:101E9000EF90DF90CF900895C034D1F088E090E0CB
:101EA000C03889F7DF91CF911F910F91FF90EF908C
:101EB000DF90CF900C94680982E090E0F3CF83E04C
:101EC00090E0F0CF84E090E0EDCF86E090E0EACFC4
:101ED00087E090E0E7CF009729F0BC0189ED98E01A
:101EE0000C94720E90E080E00895DF92EF92FF92E2
:101EF0000F931F93CF93DF938C01D62ED42F7C01A9
:101F0000C0E0CD1571F0CC2321F08DEA91E00E9464
:101F10006B0F60E0F70181917F010E94FE0ECF5FA1
:101F2000F0CFDD23A1F0CC2321F08DEA91E00E94D7
:101F30006B0FC00FD12FD11D61E08881DF91CF9150
:101F40001F910F91FF90EF90DF900C94FE0EDF91A8
:101F5000CF911F910F91FF90EF90DF900895EAE2EB
:101F6000F8E089E9808385E0818386E0838387E0E8
:101F7000828388E0848389E085838AE086838CED90
:101F800095E09087878388EE93E09487838780ED40
:101F900097E09287818781E0858716868787108AF8
:101FA000118A83E00E942F058FEA91E00E946B0F57
:101FB0000C94510E6DEE71E00C94720ECF93DF9382
:101FC000D0E0C0E0009731F0BC0189ED98E00E94BC
:101FD000720EEC0189ED98E00E94DA0F8C0F9D1FC4
:101FE000DF91CF9108958F929F92AF92BF92EF921F
:101FF000FF920F931F93CF93DF93D82F0E94D504A6
:102000004B015C01C0E00E94D504681979098A0976
:102010009B09683E734081059105C8F01092E50662
:102020001092E6062091E5068091E60690E0FFEF2B
:102030002F9F800D911D1124DF91CF911F910F9142
:10204000FF90EF90BF90AF909F908F90089585E0A4
:1020500090E00E9470098BEDE82E86E0F82E870153
:10206000D8011D928D01B6E0053E1B07C9F780918E
:10207000280890912908DC01ED91FC910084F185FC
:10208000E02D09950A9724F180912808909129085C
:10209000DC01ED91FC910284F385E02D09958F3FE1
:1020A0009807B1F0F70181937F010E171F0761F7C1
:1020B000C091DE06C03409F4A6CFDC13A4CF809112
:1020C000E0068093E5068091E1068093E606AACFBC
:1020D00082E390E00E947009DC1395CFA3CF0E94A9
:1020E000380E80912A08893949F00E94AF0F64EFB9
:1020F00071E080E090E00E949404F1CF86EC91E0E2
:102100000E946B0FE0913708E150FF0BEE0FFF1FAD
:10211000E55BFE4F808191810E94DE0F809138083F
:10212000882309F47DC10E94C604882349F1E09107
:102130003908E150FF0BEE0FFF1FEF5CFE4F81816E
:102140008F9380818F93809138081F928F938BE4B7
:1021500091E09F938F931F9284E68F938CE897E092
:102160009F938F930E948A2D8CE897E00E946B0FBB
:102170008DB79EB70A960FB6F8949EBF0FBE8DBF5F
:102180000E94C604882321F1E0913A08F0E0EE0FA6
:10219000FF1FE75CFE4F81818F9380818F938CE3DB
:1021A00091E09F938F931F9284E68F938CE897E042
:1021B0009F938F930E948A2D8CE897E00E946B0F6B
:1021C0008DB79EB708960FB6F8949EBF0FBE8DBF11
:1021D0000E94C6048823E9F0809130081F928F93F3
:1021E0008CE291E09F938F931F9284E68F938CE80B
:1021F00097E09F938F930E948A2D8CE897E00E942E
:102200006B0F8DB79EB708960FB6F8949EBF0FBEA2
:102210008DBF80913808882309F407C1809139085F
:10222000833009F002C180EF91E00E946B0F0E94A1
:10223000C6048823E9F080912D081F928F938CE0CB
:1022400091E09F938F931F9284E68F938CE897E0A1
:102250009F938F930E948A2D8CE897E00E946B0FCA
:102260008DB79EB708960FB6F8949EBF0FBE8DBF70
:102270000E94C6048823E9F080912C081F928F9356
:102280008CEF90E09F938F931F9284E68F938CE85E
:1022900097E09F938F930E948A2D8CE897E00E948D
:1022A0006B0F8DB79EB708960FB6F8949EBF0FBE02
:1022B0008DBF0E94C6048823E9F080912E081F92EA
:1022C0008F938CEE90E09F938F931F9284E68F9371
:1022D0008CE897E09F938F930E948A2D8CE897E07B
:1022E0000E946B0F8DB79EB708960FB6F8949EBFED
:1022F0000FBE8DBF0E94C6048823E9F080912F088D
:102300001F928F938CED90E09F938F931F9284E6A2
:102310008F938CE897E09F938F930E948A2D8CE88F
:1023200097E00E946B0F8DB79EB708960FB6F89492
:102330009EBF0FBE8DBF80913B08811199C082E086
:1023400092E00E94DE0F0E94C6048823F9F080917B
:1023500034088F93809133088F938CEC90E09F9397
:102360008F931F9284E68F938CE897E09F938F93CF
:102370000E948A2D8CE897E00E946B0F8DB79EB764
:1023800008960FB6F8949EBF0FBE8DBF0E94C6047C
:102390008823F9F0809132088F93809131088F93D0
:1023A0008CEB90E09F938F931F9284E68F938CE841
:1023B00097E09F938F930E948A2D8CE897E00E946C
:1023C0006B0F8DB79EB708960FB6F8949EBF0FBEE1
:1023D0008DBF0E94C6048823F9F0809136088F9340
:1023E000809135088F938CEA90E09F938F931F9292
:1023F00084E68F938CE897E09F938F930E948A2DB9
:102400008CE897E00E946B0F8DB79EB708960FB6C9
:10241000F8949EBF0FBE8DBF89ED98E00C94DA0F43
:1024200080EE91E00E946B0FABCE0E94C604882321
:1024300009F4FDCE80912B081F928F938CE191E0DF
:102440009F938F931F9284E68F938CE897E09F93DE
:102450008F930E948A2D8CE897E00E946B0F8DB7B6
:102460009EB708960FB6F8949EBF0FBE8DBFDFCE05
:1024700081E192E066CF8F929F92AF92BF92CF920E
:10248000DF92EF92FF920F931F93CF93DF9300D0D1
:10249000CDB7DEB78091CC0681110DC00E94D50466
:1024A0006093C8067093C9068093CA069093CB06C2
:1024B00081E08093CC068091C00681110DC00E94FE
:1024C000D5046093BC067093BD068093BE069093BE
:1024D000BF0681E08093C0068091760990917709CC
:1024E000009709F4EDC06091750962956695677073
:1024F000DC01ED91FC910190F081E02D099588239C
:1025000009F4DEC080917609909177096091750990
:102510006F71DC01ED91FC910280F381E02D099552
:10252000AC0190937C0980937B0980917E09806146
:1025300080937E0924E631E090E0F9016591749181
:102540004617570708F4B6C0F901329665917491A1
:102550006417750708F4AEC030917F09432F441FFC
:102560004427441F80918009282F2F70220F242B8D
:102570002913E0C080918009282F22952F702F5FAA
:102580002770322F3295307F8F78832B809380098C
:1025900030917E09432F437050E04F5F5F4F241707
:1025A000150609F08DC080917F09903109F0CEC0E9
:1025B000329536953770982F9370990F990F990F20
:1025C000932B990F990F8378892B80937F09909192
:1025D0007F09292F269526952F71322F3295330F9B
:1025E000307E80917E098F71832B322F3695369500
:1025F00036959C7F932B90937F099C77943409F0B8
:10260000ADC0877F80937E0980917A0990917E0981
:1026100092FFDCC0863008F0D7C0E82FF0E0EA5423
:10262000F94F909179099083806810927A0990917E
:102630007E099B7F90937E09882309F441C091E035
:102640009093FE079091B4069F5F9093B406982FE5
:102650009F77192F110F87FD1F5F892F90E0FC01D5
:10266000EB54F94F2081E12FE170DE2E10FF12C0F4
:10267000FC01EA54F94F4081042E000C550BB4E0E4
:1026800055954795BA95E1F74F70F0E12F0290010B
:102690001124242B30E060E00197462F50E04817CA
:1026A00059070CF09CC04A54594FDA014C91342719
:1026B0006F5FF3CF9F5F2C5F3F4F923109F03DCFAB
:1026C0000E94D5040091C8061091C9062091CA063F
:1026D0003091CB06601B710B820B930B693B7B40E7
:1026E00081059105C0F00E94D5046093C8067093DF
:1026F000C9068093CA069093CB061092FE0780917C
:102700006B07882321F08AEA92E00E94DE0F109284
:10271000B7061092B6060F900F90DF91CF911F91E0
:102720000F91FF90EF90DF90CF90BF90AF909F9070
:102730008F90089590FB37F930937F09292F2695C4
:102740002F708078822B8093800914CF9F71990F0E
:10275000990F8378982B90937F0939CF83FD27C0F9
:10276000B0E12B9F9001112420937909846080931C
:102770007E0980E020917E09922F977F23FF986049
:1027800090937E09813009F43FCF823009F098CFD1
:10279000E0917A09E63000F581E08E0F80937A09A6
:1027A000F0E0EA54F94F80917909808389CF9091C4
:1027B0007909292B209379098B7F80937E0981E009
:1027C00080937D0982E0D6CF80E02FCF882309F463
:1027D00077CF10927A0933CF10927A0971CFDD202A
:1027E00031F04A54594FFA018081807F3827809117
:1027F0006B0795E539273213EBC2882321F089ED69
:1028000098E00E94DA0FE12EF12C40916B072091A5
:102810003A0703E080913B0790E0880F991FBC01C5
:10282000209F600D711D112480913C07869586952F
:10283000860F972F911D0296E816F90609F06BC2D4
:10284000442309F440C00E94D5046093C8067093E5
:10285000C9068093CA069093CB068FE192E00E944E
:102860006B0F412F50E070E060E02AE089ED98E0C6
:102870000E94810E81E392E00E946B0F612F6695AA
:1028800061504D2D86EB96E00E94750F84E392E037
:102890000E946B0F0E94D5040091BC061091BD06EA
:1028A0002091BE063091BF06AB01BC01401B510B0D
:1028B000620B730B2AE089ED98E00E94810E89ED8E
:1028C00098E00E94DA0F80913A07813009F077C0D2
:1028D00080916B07882309F472C06091B60680E18D
:1028E000689FB00111248091B70690E0E4E09595CF
:1028F0008795EA95E1F7680F791F90E080E00E94E4
:10290000F33120E030E044EB53E40E94AA3220E0AF
:1029100030EF4FE755E40E9452316B017C0188E3B0
:1029200092E00E946B0F2091B60690E1299F9001E2
:1029300011249091B706892F90E0F4E09595879542
:10294000FA95E1F7820F931F0E94CD0E8FE392E07C
:102950000E946B0FA7019601C701B6010E941733B1
:1029600062E472E0811123C02FEF3FEF4FE75FE792
:10297000C701B6010E94173381110CC02FEF3FEF42
:102980004FE75FE7C701B6010E944D3166E472E090
:1029900018166CF02FEF3FEF4FE75FE4C701B60169
:1029A0000E94A53218160CF0FEC06AE472E089EDB0
:1029B00098E00E94720E8EE492E00E946B0F80916C
:1029C0003B07813061F50E94C604882341F1809164
:1029D0003A07813009F023C18091B706A0E18A9FB0
:1029E000900111248091B80682958F70822B1F92DE
:1029F0008F9381E192E09F938F931F9284E68F9350
:102A00008CE897E09F938F930E948A2D8CE897E043
:102A10000E946B0F0FB6F894DEBF0FBECDBF1091B2
:102A20003C07112309F452C080913A0720913B07DB
:102A3000103108F024C1813009F012C1143009F0BE
:102A4000F1C082E090E0211102C081E090E08A5460
:102A5000994FDC018C918F7090E09A8389838091EB
:102A60006B078823E1F00E94C6048823C1F01F92FF
:102A70001F9382E092E09F938F931F9284E68F933F
:102A80008CE897E09F938F930E948A2D8CE897E0C3
:102A90000E946B0F0FB6F894DEBF0FBECDBF6091E2
:102AA0003C07603109F02CC189819A8198278927D8
:102AB00098279A83898341E0643009F040E0669565
:102AC00066956695CE0101960E94750F80916B0701
:102AD000882381F10E94C604882311F180917E072A
:102AE0001F928F9380917B071F928F9380917D0718
:102AF0001F928F9382EE91E09F938F931F9284E6B3
:102B00008F938CE897E09F938F930E948A2D8CE897
:102B100097E00E946B0F0FB6F894DEBF0FBECDBFDB
:102B20000E94D5046093BC067093BD068093BE06D8
:102B30009093BF068091B406843608F4C1CD80918D
:102B40006B07882309F4BCCD89ED98E00E94DA0F69
:102B50000E94C6048823F1F08091B4069091B506D6
:102B6000891B990B9F938F938CEA91E09F938F938E
:102B70001F9284E68F938CE897E09F938F930E9437
:102B80008A2D8CE897E00E946B0F0FB6F894DEBF99
:102B90000FBECDBF85EA92E00E946B0F1092B40683
:102BA0001092B5068DCD2FEF3FEF4FE75FECC701D9
:102BB000B6010E944D3187FDF8CE2DEC3CEC4CE483
:102BC0005DE3C701B6010E94E1306B017C010E9408
:102BD000C4314B015C010E94F3319B01AC01C70180
:102BE000B6010E94E0306B017C012AE0B501A4012E
:102BF00089ED98E00E94810E6EE289ED98E00E94D6
:102C00000A0820E030E040E251E4C701B6010E942A
:102C1000AA320E94C431CB010E94CD0ECCCE80914D
:102C2000B606E5CE82E090E0211102C081E090E09E
:102C30008A54994FFC018081F0E18F9FC0011124DB
:102C40009927222319F023E030E002C022E030E08F
:102C50002A54394FD9012C9122952F70822BFDCE09
:102C600081E090E0211102C090E080E08A54994F09
:102C7000FC018081143009F0EFCE8295ECCE8130DA
:102C800031F582E090E0211102C081E090E08A54A9
:102C9000994FDC018C91482F50E0542F44275295D6
:102CA000507F83E090E0211102C082E090E08A54DE
:102CB000994FFC019081F0E19F9FC0011124842B6A
:102CC000952B222309F4BFCF24E030E0C1CF81E06F
:102CD00090E0211102C090E080E08A54994FFC01FD
:102CE000808190E0982F8827222339F022E030E07D
:102CF0002A54394FD9012C91B1CF21E030E0F8CFDF
:102D0000643009F0D8CE89819A8144E0880F991FF8
:102D10004A95E1F7CECE442309F40CCF8091B50655
:102D20008F5F8093B50683E592E00E946B0F0E944F
:102D3000C604882361F120913A0780913B0790E017
:102D4000880F991FAC01209F400D511D11248091C7
:102D50003C0786958695840F952F911D02969F932B
:102D60008F9381ED91E09F938F931F9284E68F93D1
:102D70008CE897E09F938F930E948A2D8CE897E0D0
:102D80000E946B0F0FB6F894DEBF0FBECDBF0E943E
:102D9000C6048823C1F0FF92EF928FEB91E09F93DE
:102DA0008F931F9284E68F938CE897E09F938F9385
:102DB0000E948A2D8CE897E00E946B0F0FB6F89462
:102DC000DEBF0FBECDBF87E692E00E94DE0FB2CE1F
:102DD000882309F4AFCE8091B5068F5F8093B50646
:102DE00085E892E0F2CF1F920F920FB60F92112456
:102DF0002F933F938F939F93AF93BF9380910C0832
:102E000090910D08A0910E08B0910F0830910B0819
:102E100023E0230F2D3758F50196A11DB11D2093F6
:102E20000B0880930C0890930D08A0930E08B093A4
:102E30000F088091100890911108A0911208B0918C
:102E400013080196A11DB11D8093100890931108DD
:102E5000A0931208B0931308BF91AF919F918F91E7
:102E60003F912F910F900FBE0F901F90189526E85D
:102E7000230F0296A11DB11DD2CF1F920F920FB644
:102E80000F9211242F933F934F935F936F937F93F0
:102E90008F939F93AF93BF93EF93FF93E0910C01B8
:102EA000F0910D010995FF91EF91BF91AF919F9125
:102EB0008F917F916F915F914F913F912F910F90E3
:102EC0000FBE0F901F9018951F920F920FB60F9282
:102ED00011242F933F934F935F936F937F938F931F
:102EE0009F93AF93BF93EF93FF93E0910A01F0910B
:102EF0000B010995FF91EF91BF91AF919F918F9138
:102F00007F916F915F914F913F912F910F900FBEE5
:102F10000F901F9018951F920F920FB60F921124C9
:102F20002F933F934F935F936F937F938F939F93D1
:102F3000AF93BF93EF93FF93E0910801F0910901E4
:102F40000995FF91EF91BF91AF919F918F917F91E3
:102F50006F915F914F913F912F910F900FBE0F9006
:102F60001F9018951F920F920FB60F9211242F9356
:102F70003F934F935F936F937F938F939F93AF9301
:102F8000BF93EF93FF93E0910601F091070109953C
:102F9000FF91EF91BF91AF919F918F917F916F9131
:102FA0005F914F913F912F910F900FBE0F901F9007
:102FB00018951F920F920FB60F9211242F933F93E3
:102FC0004F935F936F937F938F939F93AF93BF9331
:102FD000EF93FF93E0910401F09105010995FF91B2
:102FE000EF91BF91AF919F918F917F916F915F9181
:102FF0004F913F912F910F900FBE0F901F901895FA
:103000001F920F920FB60F9211248F939F9380916E
:10301000E1009091E100937F9093E10083FF0FC066
:103020001092E90091E09093EB001092EC0092E393
:103030009093ED001092210898E09093F00082FFA9
:1030400022C093E09093E9009091F200992319F047
:103050009AE39093E80090913107992341F0909181
:103060003107915090933107911101C05D9A909171
:103070002008992341F090912008915090932008C6
:10308000911101C0289A84FF18C08091E2008E7EC1
:1030900081608093E2008091E1008F7E8093E10067
:1030A000809132078E7E8061809332079F918F914D
:1030B0000F900FBE0F901F90189580FFF7CF809153
:1030C000E2008E7E80618093E2008091E1008E7E3E
:1030D0008093E100809132078E7E8160E5CF1F9260
:1030E0000F920FB60F921124CF92DF92EF92FF92C0
:1030F0000F931F932F933F934F935F936F937F9300
:103100008F939F93AF93BF93EF93FF93CF93DF93EF
:10311000CDB7DEB76C97DEBFCDBF1092E9008091CE
:10312000E80083FF25C068E0CE0145960E9449066D
:1031300082EF8093E8008D8987FF39C09091E80085
:1031400090FFFCCF982F907609F034C19E894F896B
:10315000588D2F89F88C911131C0803861F580919C
:1031600033078093F1001092F1008EEF8093E80016
:103170006C960FB6F894DEBF0FBECDBFDF91CF9136
:10318000FF91EF91BF91AF919F918F917F916F913F
:103190005F914F913F912F911F910F91FF90EF9071
:1031A000DF90CF900F900FBE0F901F9018959EEF5D
:1031B0009093E800C7CF1092F100D5CF913059F429
:1031C0008111D3CF4130510581F6809133078D7F36
:1031D00080933307CACF933049F48111C6CF413071
:1031E000510519F6809133078260F2CF953041F492
:1031F0008091E80080FFFCCF20682093E300B5CFEA
:10320000963009F0A9C00B8D1C8D22E01092E900C8
:1032100010922F0710922E07F2122EC010922D0737
:1032200010922C070E9418061F8299E09983FA8257
:1032300091E09E8390EA98879AEF998720912E07D4
:1032400030912F07275F3F4F3C832B838D83109254
:10325000E90010922F0710922E0710932D0700936C
:103260002C0749E050E0BE016F5F7F4F80E00E9475
:10327000F2050E94180679CF10932D0700932C07B2
:103280000E947C03DC0112960D911C910115110521
:1032900009F451C1D801ED91FC910480F581E02D34
:1032A000BE016B5E7F4FC8010995009709F03EC1D2
:1032B000F80100851185EACFF3E0FF120EC08F8977
:1032C000882309F440C0823061F440E862E18CE771
:1032D00092E00E94BF05811148CF81E28093EB000C
:1032E00047CF813029F440E868E083E792E0F1CFEE
:1032F000833099F70E947C03DC011296ED90FC90DC
:103300008E010F5F1F4F6801E114F10479F0D701BE
:10331000ED91FC910680F781E02DB801C701099578
:10332000080F111DF701E084F184EECFD8011C9243
:10333000F60101900020E9F73197BF016C197D0972
:1033400040E0C601C6CF6DE572E0FB01449150E05C
:1033500080E80E94F20509CF973009F4BECF98307B
:1033600021F481E08093F10000CF993009F0FDCE87
:10337000837009F0B2CFE5E2F1E081E031E096E35D
:103380002191222371F08093E9003093EB00DF015B
:1033900011972C912093EC009093ED008F5F873074
:1033A00079F78EE78093EA001092EA008F89809384
:1033B0002108DBCE8B8D9C8D1092E90010922F0797
:1033C00010922E0790932D0780932C07898D8111E1
:1033D00092C08E899D89913A49F4813209F07DCF5E
:1033E00047E050E06CE171E080E0B3CF913209F04A
:1033F00074CF833269F48F89988DB0E0A0E0809318
:10340000000190930101A0930201B0930301ADCE9E
:10341000803269F48091E80082FFFCCF67E08CE1A4
:1034200091E00E9449068BEF8093E8009ECE8232A5
:1034300009F09BCE8F8980932301EEEFFFE7859102
:1034400094918B3F9C4D51F1E0E0F8E080911C019C
:1034500090911D01A0911E01B0911F01803B9440ED
:10346000A105B105F1F48091230180FD1AC0EE3F62
:103470008AE0F80789F587E797E791838083809151
:1034800060008093300788E19BE00FB6F894A89520
:10349000809360000FBE9093600067CEEEEFFAE07D
:1034A000D5CF808191818737974709F05ECEA89567
:1034B00080916000886180936000809130078093E4
:1034C0006000EE3F2AE0F20789F08091FE0A9091B9
:1034D000FF0A9183808349CE808191818737980745
:1034E00051F29093FF0A8093FE0AC5CF1092FF0A13
:1034F0001092FE0A3ACE0E947C03DC0112960D91D6
:103500001C910115110509F4E8CED801ED91FC914B
:103510000190F081E02DBE016B5E7F4FC8010995DF
:10352000811123CEF80100851185EBCF18161906FD
:103530000CF41BCED2CEF1E0FF12BECE61E672E0FB
:1035400004CF1F920F920FB60F9211248F939F9367
:10355000AF93BF938091280790912907A0912A07E4
:10356000B0912B07892B8A2B8B2B81F19091270708
:103570008091000089278093000080912807909116
:103580002907A0912A07B0912B07181619061A06C9
:103590001B069CF48091280790912907A0912A0787
:1035A000B0912B070197A109B10980932807909347
:1035B0002907A0932A07B0932B07BF91AF919F9142
:1035C0008F910F900FBE0F901F90189580917100F2
:1035D0008D7F8093710080912707909100008095E6
:1035E000892380930000E9CF1F920F920FB60F92AC
:1035F00011242F933F934F935F936F937F938F93F8
:103600009F93AF93BF93EF93FF938CE398E00E9457
:10361000F806FF91EF91BF91AF919F918F917F91AC
:103620006F915F914F913F912F910F900FBE0F902F
:103630001F9018951F920F920FB60F9211242F937F
:103640008F939F93EF93FF93E0914C08F0914D0877
:103650008081E0915208F091530882FD1BC0908157
:10366000809155088F5F8F7320915608821741F023
:10367000E0915508F0E0E45CF74F958F8093550892
:10368000FF91EF919F918F912F910F900FBE0F900F
:103690001F9018958081F4CF1F920F920FB60F9252
:1036A00011242F933F934F935F936F937F938F9347
:1036B0009F93AF93BF93CF93EF93FF9383B1909179
:1036C0006B00892380935C0780915B0790915C0776
:1036D000892780935A0780915C0780935B07C0E03D
:1036E00080915907C81760F4EC2FF0E0EE0FFF1F30
:1036F000EF5AF84F0190F081E02D0995CF5FF0CFA0
:10370000FF91EF91CF91BF91AF919F918F917F9159
:103710006F915F914F913F912F910F900FBE0F903E
:103720001F901895CF92DF92EF92FF9210923F0870
:1037300010923E0828EEC22E23E0D22EE12CF12C6E
:10374000C0924008D0924108E0924208F0924308AB
:103750008DE591E090933D0880933C088DEC90E0DE
:1037600090934908809348088CEC90E090934B0824
:1037700080934A0888EC90E090934D0880934C0821
:1037800089EC90E090934F0880934E088AEC90E08B
:1037900090935108809350088EEC90E090935308DA
:1037A00080935208109255081092560810925708AC
:1037B000109258081092DC081092DB08C092DD08C5
:1037C000D092DE08E092DF08F092E0088FE691E008
:1037D0009093DA088093D9088FEF9FEF9093E608D3
:1037E0008093E50881E891E090932A098093290964
:1037F00010922C0910922B0910922F091092310966
:1038000010927409E2E5F9E080E2DF011D928A95E9
:10381000E9F787EA91E09093EC098093EB09209116
:10382000F0092B7F2093F0099093DA098093D9094E
:103830002091DE092B7F2093DE099093C8098093A5
:10384000C7092091CC092B7F2093CC099093B6090E
:103850008093B5092091BA092B7F2093BA099093E0
:10386000A4098093A3098091A8098B7F8093A8095C
:103870008DE991E09093A2098093A1090E94D5045B
:1038800060939D0970939E0980939F099093A0096E
:103890001092840910928309C0928509D0928609FA
:1038A000E0928709F09288098BE891E09093820971
:1038B00080938109109295091092940910929709AA
:1038C00010929609109299091092980910929B09EA
:1038D00010929A0980919C098E7F8D7F80939C091C
:1038E00060E080E10E94330480919C0981FD04C066
:1038F00061E080E10E94050480E180938D09E4E8A5
:10390000F5E0849180938E09E5E6F5E0E491F0E03E
:10391000EE0FFF1FE95BFA4F259134913093900928
:1039200020938F09EEE7F5E0E491E0939109E81721
:1039300041F061E08AE00E94330461E08AE00E9485
:103940000504EFE5F5E0E491F0E0EE0FFF1FE75C22
:10395000FA4F85919491909393098093920960E036
:1039600079E080E10E94050D0E94D50480917E09D6
:1039700029E239E0309377092093760990E2909319
:10398000750910927D0990917F0920918009207F0F
:1039900029602093800980719C77926090937F09C1
:1039A00080628F7E80937E091092790910927A0945
:1039B000FF90EF90DF90CF900895CF93DF93CDB736
:1039C000DEB728970FB6F894DEBF0FBECDBF789450
:1039D00084B5826084BD84B5816084BD85B5826014
:1039E00085BD85B5816085BD80916E0081608093C5
:1039F0006E0010928100809181008260809381002E
:103A0000809181008160809381008091800081603D
:103A100080938000809191008260809391008091DA
:103A200091008160809391008091900081608093EB
:103A300090008091C10084608093C1008091C1009A
:103A400082608093C1008091C10081608093C10039
:103A50008091C30081608093C3008091C000826028
:103A60008093C0008091C20081608093C2008091E9
:103A70007A00846080937A0080917A0082608093DB
:103A80007A0080917A00816080937A0080917A0038
:103A9000806880937A001092210810923307109268
:103AA00032078091D70081608093D70080EA8093AD
:103AB000D80089B5806189BD89B5826089BD09B4A6
:103AC00000FEFDCF61E070E080E090E00E94940491
:103AD0008091D8008F7C80618093D8008091E00035
:103AE000807F8093E0008091E1008E7E8093E100F2
:103AF0008DE08093E200559A209A60E084E00E9475
:103B0000330461E085E00E94330461E085E00E94B7
:103B100005040E94380E05E411E01C830B8362E06B
:103B2000AB81BC818D91BC83AB830E9433040B813C
:103B30001C810B54114099F710929B0910929A091D
:103B4000109299091092980910929709109296096B
:103B5000109295091092940990E080E0FC01E157E1
:103B6000FD4F4591559165917491403855426105DD
:103B7000710509F021C3FC01ED56FD4F25913491EB
:103B80003093950920939409FC01EB56FD4F259144
:103B900034913093970920939609FC01E956FD4F23
:103BA000259134913093990920939809FC01E756A7
:103BB000FD4F8591949190939B0980939A098091F0
:103BC000980990919909892B09F454C080918D0925
:103BD00028EF280F243048F092EF980F943028F007
:103BE00096EE980F933008F03FC090916800243013
:103BF00048F022EF280F243028F08A51F0E0E0E06E
:103C0000833010F4E8E6F0E09160908390918D09A4
:103C100038EF390F343050F082EF890F843030F0B4
:103C200086EE890FF0E0E0E0833010F4EBE6F0E0A0
:103C30002081343008F0C6C281E0692F6450770BD0
:103C4000AB0101C0880F4A95EAF7822B343048F067
:103C500022EF290F243028F09A51F0E0E0E0933071
:103C600010F4EBE6F0E0808380919A0990919B0933
:103C70000E94F90880913607909137078158994042
:103C800091F080919C098E7F80939C098FB7F89466
:103C9000109235071092340721E839E03093370746
:103CA000209336078FBF8FEF9FEF9093E6088093A6
:103CB000E50868EE73E080E090E00E94940489ECEF
:103CC00092E00E946B0F81E899E09093290880931D
:103CD0002808109239071092380762E070E089E0F6
:103CE0000E94E10470E060E087E00E94E1048091BE
:103CF000300890E00E94640964EF71E080E090E099
:103D00000E9494048091300890E00E94640964EF5E
:103D100071E080E090E00E94940483E40E946C09CA
:103D200083E490E00E94F30F80937C0788E40E9474
:103D30006C0988E490E00E94F30F80936C0768EBB5
:103D40007BE080E090E00E94940481E080936D0726
:103D500060E085E00E94050489ED98E00E94DA0F9A
:103D600087EE92E00E946B0F2AE041E050E060E0B5
:103D700070E089ED98E00E94810E8DEA91E00E944A
:103D80006B0F2AE044E050E060E070E089ED98E0DD
:103D90000E94810E89ED98E00E94DA0F80917C07E5
:103DA000882309F424C286EF92E00E946B0F8DE114
:103DB00093E00E946B0F8DE393E00E946B0F0E94D3
:103DC0006F10809138088823A9F0909139089230BB
:103DD00009F425C208F00EC2913009F418C290917E
:103DE0003708913009F424C2923009F470C293303C
:103DF00009F4F4C2809137088130E9F462E08BEE77
:103E000099E00E94850D63E089ED99E00E94850D9F
:103E10008091380881110FC069E087EC99E00E9419
:103E2000850D67E085EB99E00E94850D68E083EAE7
:103E300099E00E94850D809137088230D1F583B1D9
:103E400090916B00892380935C0780915C0780933D
:103E50005B0789B18F7080936807809168078093B2
:103E600067076FE17BE082E00E94050D80936907A0
:103E70008091690787FD1DC090E080E02CED35E062
:103E8000FC01EE0FFF1FE15CF84F318320830196A8
:103E900089309105A9F78AE080933E071092770751
:103EA0001092780782E080933D0780913D070E9441
:103EB0009B0C80913708833091F44EE260EA76E8FB
:103EC00081E090E00E94F6028CE398E090932C0948
:103ED00080932B0980912D09807F80932D098091FB
:103EE0003708843099F446E060E072EC81E090E0BD
:103EF0000E94F6028CE398E090932C0980932B09A2
:103F000080912D09807F836080932D0980913708EF
:103F1000853099F446E060E072EC81E090E00E9428
:103F2000F6028CE398E090932C0980932B09809102
:103F30002D09807F826080932D098091370886301B
:103F400099F446E068E478EE81E090E00E94F602A1
:103F50008CE398E090932C0980932B0980912D0994
:103F6000807F846080932D0980913708873099F491
:103F700046E060E072EC81E090E00E94F6028CE3A3
:103F800098E090932C0980932B0980912D09807FD4
:103F9000816080932D0981E080937E0744244A94B8
:103FA0001FE0512E612C712C812C912C5401839493
:103FB00089ED98E00E94710818161906ACF489ED95
:103FC00098E00E942F0890916A07883009F409C28E
:103FD0008D3009F00DC2E92FF0E0E259F84F108260
:103FE00010926A0797FF10C210913708113081F5BF
:103FF00080913808882309F453C60E943B1267E079
:104000008BEE99E00E94F40A882311F1809139081F
:104010008330F0F48091090890910A089C01220FE6
:10402000331F820F931F2091F9093091FA094091B3
:10403000F9095091FA0924173507A9F7820F931F40
:10404000969587959695879590930A088093090889
:1040500080913708823009F03FC08091770788232C
:1040600009F4DFC68091780790E0880F892F881FB8
:10407000990B892B09F4D5C6809178078F778093A7
:10408000780781E08093080880912B080E94F70B45
:1040900090930A088093090880912C080E94F70BDE
:1040A000909307088093060880912D080E94F70BD3
:1040B000909305088093040880912E080E94F70BC6
:1040C000909303088093020880912F080E94F70BB9
:1040D00090930108809300088091370883508530C1
:1040E00008F032C780912B0990912C09892B09F493
:1040F00016C70E94D50480912E09681B770B643087
:10410000710594F00E94D50460932E0980912D09C9
:104110008F70823009F498C608F086C6882309F4A7
:104120008AC6813009F48EC606E1BEE0CB2E1DE0C2
:10413000E12E8BE0D82E80912B0990912C09DC0187
:10414000ED91FC910084F185E02D09951816190672
:104150000CF0E5C60E94D50460932E0980912B09CE
:1041600090912C09DC01ED91FC910284F385E02D06
:104170000995F82E182FE0912F09E150E731D8F674
:10418000F0E0EB53FF4D0C9430332B2736274527B7
:10419000DE27F62716285828662881289728BA2867
:1041A00002291029232946297F298A299D29AD29F9
:1041B000BD29D029EA290E2A0C968039910509F0EB
:1041C000CDCCFDCC88E09E3009F43FCD82E09F301D
:1041D00009F43BCD84E0903109F437CD81E0913191
:1041E00009F433CDA92FA651BB0BAD012ACD89E02F
:1041F00093E0DBCD9330A9F0943009F0F0CD10922C
:104200003C0791E090933B0790933A07E8CD98E004
:1042100090933C0710923B0710923A07E0CD90E153
:10422000F7CF98E090933C0791E090933B07F4CF51
:104230000FB70B838091DD090E944E0CF894E0913A
:104240002208F091230819E0E93DF10789F58091F2
:10425000DB099091DC0990932308809322080B815D
:104260000FBF8091380829ED39E03093770920930A
:1042700076098F7180628093750910927D09809113
:104280007E0990917F0920918009207F29602093E9
:10429000800983719C77926090937F0980628F7E02
:1042A00080937E091092790910927A09A3CDFC01BE
:1042B0003097A9F28281938129E0893D9207B9F76D
:1042C0008091DB099091DC0993838283C8CF809130
:1042D0003D070E944E0C8AE080933E0790913D0777
:1042E00088EF890F843068F081E022EF290F2430B5
:1042F00008F480E0943030F48091380821EA39E005
:10430000B4CF80E020E090E03CE0389FD001399FBE
:10431000B00D1124A75AB84F36E0389FA001399F3D
:10432000500D1124622F022E000C770B3C91361792
:10433000170611F30CF3FA01E60FF71FEE0FFF1F3C
:10434000EF5AF84F008111810F511B4011F02F5F80
:10435000E9CF27FDD1CF118210824C914150550BEE
:104360006417750779F1622F2CE0289FA001299F1F
:10437000500D1124475A584F5C834B8346E0489FA9
:104380009001499F300D1124E62FF0E0AB81BC81F4
:104390004C914150550BE417F507A4F4DF01119639
:1043A000A20FB31FAA0FBB1FAF5AB84F4D915C911C
:1043B000E20FF31FEE0FFF1FEF5AF84F51834083B8
:1043C0006F5FE2CF2CE0289FF001299FF00D1124B0
:1043D000EF5AF84F8085815080878ECF29E239E0EF
:1043E00044CF992309F400CE915090936A07FCCDF5
:1043F000983038F4E92FF0E0E259F84F80839F5F5E
:10440000F4CF10926A07F0CD80916E07883479F06E
:104410000CF06CC1813409F4E4C30CF051C08B3250
:1044200009F4D4C38D3209F4E2C3811179C18FE557
:1044300093E00E946B0F8FE595E00E946B0F8AE678
:1044400093E00E946B0F87E893E00E946B0F8AE96C
:1044500093E00E946B0F80913708823020F08AED44
:1044600093E00E946B0F82E394E00E946B0F81E562
:1044700094E00E946B0F84E794E00E946B0F8EE83B
:1044800094E00E946B0F87EA94E00E946B0F8BEB25
:1044900094E00E946B0F8AEC94E00E946B0F8FED0A
:1044A00094E00E946B0F85EF94E00E946B0F81E413
:1044B00095E00E946B0F8DEE91E00E946B0F0FC193
:1044C000843409F4ADC3853409F490C2833409F00F
:1044D00027C18DE595E00E946B0F809137088130F0
:1044E00009F054C08091380881112AC00E94C60486
:1044F000882311F185E795E09F938F938CE795E0F2
:104500009F938F9383E895E09F938F938DEC93E037
:104510009F938F931F9284E68F93ECE8F7E0FF93CD
:10452000EF930E948A2D8CE897E00E946B0F0FB6E4
:10453000F894DEBF0FBECDBF80913708813031F5D2
:1045400080913808882311F10E94C6048823F1F075
:104550008CE895E09F938F9383E895E09F938F93EA
:104560008CEB93E09F938F931F9284E68F934CE89C
:1045700057E05F934F930E948A2D8CE897E00E944A
:104580006B0F0FB6F894DEBF0FBECDBF809137081A
:10459000823009F050C080913808811126C00E94F5
:1045A000C6048823F1F08CE895E09F938F9383E80D
:1045B00095E09F938F9384E993E09F938F931F924D
:1045C00084E68F93ACE8B7E0BF93AF930E948A2D47
:1045D0008CE897E00E946B0F0FB6F894DEBF0FBE19
:1045E000CDBF80913708823031F58091380888231B
:1045F00011F10E94C6048823F1F08CE895E09F93A6
:104600008F9383E895E09F938F9383E893E09F9344
:104610008F931F9284E68F932CE837E03F932F937C
:104620000E948A2D8CE897E00E946B0F0FB6F894D9
:10463000DEBF0FBECDBF80913708833008F44FC076
:1046400080913808811126C00E94C6048823F1F0A9
:104650008FE895E09F938F9383E895E09F938F93E6
:1046600086E493E09F938F931F9284E68F938CE868
:1046700097E09F938F930E948A2D8CE897E00E9489
:104680006B0F0FB6F894DEBF0FBECDBF8091370819
:10469000833028F180913808882309F10E94C604EC
:1046A0008823E9F08FE895E09F938F9383E895E066
:1046B0009F938F938FE193E09F938F931F9284E654
:1046C0008F930CE817E01F930F930E948A2DC80167
:1046D0000E946B0F0FB6F894DEBF0FBECDBF1092D5
:1046E0006F078EE697E00E94DE0F7ECC823509F4DC
:1046F000C1C27CF48D3409F445C0803509F49BC1F6
:104700008C3471F480913B0891E0892780933B08B9
:104710007BC0863509F446C054F4833509F477C06C
:104720006BE374E08EE697E00E947B2DDACF88354C
:1047300009F466C28935A1F780916F078D3381F73F
:1047400080E797E00E945D2D8C0190917107903277
:1047500009F478C200933808811104C086EE95E010
:104760000E946B0F80913808882309F44DC00E9485
:10477000C604882309F448C011271F930F938FE3C1
:1047800094E021C18091FD0791E089278093FD0786
:10479000882319F082E995E090CE85EA95E00E94A1
:1047A0006B0F32C080916F078D3309F0B9CF80E76E
:1047B00097E00E945D2D7C018FEF8E0D8E3108F009
:1047C00090CF0E94C604870111278823C1F01F9350
:1047D0000F938FEB94E09F938F931F9284E68F93B8
:1047E0006CE877E07F936F930E948A2D8CE897E0C6
:1047F0000E946B0F0FB6F894DEBF0FBECDBFE092E4
:104800003008C8010E9464090E94510E68CF80914F
:104810006F078D3309F0E4C080917007873519F474
:104820000E94AF0FF1CF893469F582E797E00E94CB
:104830005D2D809337080E94C604882329F3E091F8
:104840003708E150FF0BEE0FFF1FE55BFE4F818144
:104850008F9380818F938CEA94E09F938F931F9224
:1048600084E68F93ECE8F7E0FF93EF930E948A2DA4
:104870008CE897E00E946B0F0FB6F894DEBF0FBE76
:10488000CDBFC2CF813301F580917107803209F02D
:10489000BBCF82E797E00E945D2D80932B080E949A
:1048A000C604882309F4B0CF80912B081F928F9300
:1048B00080EA94E09F938F931F9284E68F934CE855
:1048C00057E05F934F93D2CF823301F58091710708
:1048D000803209F099CF82E797E00E945D2D8093A6
:1048E0002D080E94C604882309F48ECF80912D08DC
:1048F0001F928F9383E994E09F938F931F9284E696
:104900008F93ACE8B7E0BF93AF93B0CF833301F59B
:1049100080917107803209F077CF82E797E00E949B
:104920005D2D80932C080E94C604882309F46CCF67
:1049300080912C081F928F9386E894E09F938F9329
:104940001F9284E68F932CE837E03F932F938ECF0E
:10495000843301F580917107803209F055CF82E7E9
:1049600097E00E945D2D80932E080E94C604882344
:1049700009F44ACF80912E081F928F9384E794E028
:104980009F938F931F9284E68F938CE897E09F9379
:104990008F936CCF853309F037CF809171078032C8
:1049A00009F032CF82E797E00E945D2D80932F08B7
:1049B0000E94C604882309F427CF80912F081F92F4
:1049C0008F9383E694E09F938F931F9284E68F9357
:1049D0000CE817E01F930F930E948A2DC8014ACF5D
:1049E0008F3309F09DCE0E946F1079CE80E797E05B
:1049F0000E945D2D863008F093CE80933A080E9485
:104A0000C604882309F400CFE0913A08F0E0EE0FE5
:104A1000FF1FE75CFE4F81818F9380818F9385E537
:104A200094E09F938F931F9284E68F936CE877E0D6
:104A30007F936F931BCF80916F078F3309F070CEF8
:104A400080916D07882309F4BEC087EB95E00E9432
:104A50006B0F82E40E946C090E94C604882319F13E
:104A600082E490E00E94F30F880F991FFC01E55D3E
:104A7000FE4F81818F9380818F9388E294E09F9392
:104A80008F931F9284E68F93ECE8F7E0FF93EF9308
:104A90000E948A2D8CE897E00E946B0F0FB6F89465
:104AA000DEBF0FBECDBF83E40E946C090E94C60426
:104AB0008823E1F083E490E00E94F30F9F938F93AB
:104AC00085E194E09F938F931F9284E68F934CE847
:104AD00057E05F934F930E948A2D8CE897E00E94E5
:104AE0006B0F0FB6F894DEBF0FBECDBF84E40E94FB
:104AF0006C0984E490E00E94F30F0E94C6048823AE
:104B000009F1E0913A08F0E0EE0FFF1FE75CFE4F7D
:104B100081818F9380818F9384E094E09F938F9322
:104B20001F9284E68F93ACE8B7E0BF93AF930E94E7
:104B30008A2D8CE897E00E946B0F0FB6F894DEBFC9
:104B40000FBECDBF88E40E946C090E94C604882372
:104B5000E1F088E490E00E94F30F9F938F9382EF3F
:104B600093E09F938F931F9284E68F932CE837E016
:104B70003F932F930E948A2D8CE897E00E946B0F41
:104B80000FB6F894DEBF0FBECDBF8CE40E946C0957
:104B90000E94C604882309F4A2CD8CE490E00E9410
:104BA000F30F9F938F938EED93E09F938F931F92BC
:104BB00084E68F938CE897E09F938F930E948A2DD1
:104BC0008CE897E085CD83ED95E077CC80917E07EA
:104BD0008F5F80937E0790916C07981710F49093E5
:104BE0007E0780917E0790E00E94680978CD8091D1
:104BF0007E07815019F080937E07F3CF81E0FBCFD1
:104C000080917B07811103C08EE00E946C09809126
:104C10007B07813009F063CD8DE00E946C095FCD88
:104C200080913808882339F080916B0791E08927BB
:104C300080936B0754CD80917F0791E08927809303
:104C40007F074DCD882399F00093380882E797E0DD
:104C50000E945D2D80933908682F6150770BFB010E
:104C6000EE0FFF1FEF5CFE4F8081918198CD109277
:104C70003908CACD84EF95E00E946B0F10E000E088
:104C800060E0C8010E9440300F5F1F4F011574E0C3
:104C90001707B1F782E00E942F0580E096E00DCC67
:104CA00067E08BEE99E00E94F40A882309F4B6C00D
:104CB000109308088091090890910A089C01220F1E
:104CC000331F820F931F2091F9093091FA09409107
:104CD000F9095091FA0924173507A9F7820F931F94
:104CE000969587959695879590930A0880930908DD
:104CF00067E089ED99E00E94F40A8823F1F0809141
:104D00000608909107089C01220F331F820F931F02
:104D10002091E7093091E8094091E7095091E809AD
:104D200024173507A9F7820F931F969587959695B7
:104D30008795909307088093060867E087EC99E0D1
:104D40000E94F40A8823F1F08091040890910508EC
:104D50009C01220F331F820F931F2091D5093091A0
:104D6000D6094091D5095091D60924173507A9F7DE
:104D7000820F931F96958795969587959093050832
:104D80008093040867E085EB99E00E94F40A882389
:104D9000F1F080910208909103089C01220F331FCB
:104DA000820F931F2091C3093091C4094091C30918
:104DB0005091C40924173507A9F7820F931F9695C0
:104DC000879596958795909303088093020867E0EE
:104DD00083EA99E00E94F40A882309F439C9809192
:104DE0000008909101089C01220F331F820F931F2E
:104DF0002091B1093091B2094091B1095091B209A5
:104E000024173507A9F7820F931F969587959695D6
:104E1000879590930108809300081AC9109208089A
:104E200067CF1092080858C9833081F0843009F0A8
:104E30007BC980E104C080E18093310981E08093E7
:104E40002F0972C984E0FBCF87E0F9CF8EE0809311
:104E500031098CE0F4CF8F3031F40093300982E0D7
:104E600080932F0968C910922F0965C98091300974
:104E7000E82FF0E0E75DF64FF1868150809330092E
:104E80008F3F09F058C983E0EBCF811195C0809125
:104E900030098F3F09F090C020E0F12C30E060EB4A
:104EA00076E1EF2DF0E0D501C401022E04C0880F99
:104EB000991FAA1FBB1F0A94D2F78D839E83AF83CD
:104EC000B887EE0FFF1FE75DF64F01A512A5472F2C
:104ED00050E0475D564FDA0119964C9150E0032E91
:104EE00002C0559547950A94E2F78D819E8140FF57
:104EF0005CC0802B912B92A781A73F5F2F5F38303A
:104F000011F4715030E02B3011F4F39420E0615033
:104F100041F68FEF8093740981E080932F0980918F
:104F20003808882309F4B4C20E943B1280913908E2
:104F3000833050F460912B0889E299E00E94C60901
:104F400090930A0880930908809138088111E7C47A
:104F5000809108088111EAC20E94D50400919D0940
:104F600010919E0920919F093091A009601B710B3F
:104F7000820B930B6A3F71058105910508F4DAC233
:104F800010911101612F85E00E94050481E018272E
:104F9000109311010E94D50460939D0970939E099E
:104FA00080939F099093A009C5C28095909508238E
:104FB000192312A701A7A1CF81E052CF8FE58F0D52
:104FC000823008F050CF8CE0113A09F080E18093F4
:104FD0003109109230096F2D90E080E00E949B090A
:104FE000909373098093720985E03ACFE09130097C
:104FF00011E01E0F10933009F0E0E75DF64F818756
:10500000682F80917209909173090E949B09909377
:105010007309809372098091310990E0880F991F7C
:10502000181719060CF487C886E01ACF10913009BA
:105030001F5F10933009682F809172099091730956
:105040000E949B099093730980937209F090310933
:105050002F2D30E02F5F3F4F220F331F1217130603
:105060000CF469C8892B09F0FECE02E319E0E12CAB
:10507000FE14D1F0F801219131918F0132272327BD
:105080003227A8E7B5E00E94D130A30192010E9427
:105090004E30205E3C4F4F4F5F4FD8015F963C93A0
:1050A0002E935E97E394E4CF8FEF8093740937CF0C
:1050B000883A09F0D8CE68EA90E080E00E949B0927
:1050C000909373098093720988E0CACE8F778130FC
:1050D00009F0C9CE6F2D80917209909173090E94D9
:1050E0009B09909373098093720991E0113809F03C
:1050F00090E080912D0990FB84F980932D0989E03F
:10510000AFCE8EEF8F0D8F3008F0ADCE6F2D80912A
:105110007209909173090E949B099093730980937F
:105120007209F0923109109230098AE099CEE0912B
:10513000300911E01E0F10933009F0E0E75DF64FE3
:105140008187682F80917209909173090E949B0951
:1051500090937309809372098091310990E0880FD0
:10516000991F1817190614F40C949B20D0922F093C
:105170000C949B20109130091F5F10933009682F09
:1051800080917209909173090E949B099093730911
:1051900080937209F09031092F2D30E02F5F3F4F3F
:1051A000220F331F1217130614F40C949B20892B23
:1051B00009F059CE02E319E0E12CFE1409F474CF92
:1051C000F801219131918F0132272327322750E0B6
:1051D00040E020523C4141095109A0EBB4E00E945B
:1051E0006D3020E835E240E050E00E944E302C5710
:1051F0003C4F4F4F5F4FD8015F963C932E935E9785
:10520000E394DBCF803211F00C949B20EFEDFFEFA5
:10521000F0937309E0937209E0922F090C949B209C
:10522000803409F020CE80917209909173098054E6
:105230009109909373098093720910923009C0927A
:105240002F090C949B20E091300921E02E0F209330
:105250003009F0E0E75DF64F818780917209909107
:1052600073098F1991099093730980937209809142
:10527000310990E0880F991FFFE02817190614F4F0
:105280000C949B20F0932F090C949B2020913009C3
:10529000E22FF0E0E75DF64F81872F5F2093300922
:1052A00040913109842F90E00196880F991F2817AB
:1052B000190614F40C949B20875D964FDC01179619
:1052C0008C913F2C212C820D932D911D20917209E0
:1052D000309173092817390709F0C5CDE2E3F9E0E9
:1052E00020E0421731F081919191978F868F2F5F47
:1052F000F8CF8FEF8093740910922F0910CE8E3360
:1053000009F0B1CDEDEFF8EDF0937309E093720978
:10531000F1E1B8CF833009F0A6CD63E08091720946
:10532000909173090E947505909373098093720997
:1053300012E110932F090C949B20682F8091720921
:10534000909173090E947505909373098093720977
:1053500023E120932F090C949B20682F80917209E0
:10536000909173090E947505909373098093720957
:1053700034E130932F090C949B20813309F073CDD5
:1053800061E380917209909173090E947505909371
:1053900073098093720945E140932F090C949B2077
:1053A00088EF8F0D893108F05ECD8F2D8695809323
:1053B0003109109230096F2D809172099091730913
:1053C0000E947505909373098093720900932F09C9
:1053D0000C949B20E091300911E01E0F10933009CE
:1053E000F0E0E75DF64F8187682F80917209909118
:1053F00073090E94750590937309809372098091D7
:10540000310990E0880F991F1817190614F40C94AD
:105410009B2057E150932F090C949B202091300939
:10542000E22FF0E0E75DF64F81872F5F2093300990
:1054300040913109842F90E00196880F991F281719
:10544000190614F40C949B20875D964FDC01179687
:105450008C91FA821982E981FA81E80FF11D20917D
:105460007209309173092E173F0709F0FCCCE2E373
:10547000F9E020E0421709F43CCF8191919163E07B
:10548000969587956A95E1F7978F868F2F5FF2CF74
:1054900020917409822F90E0880F892F881F990B23
:1054A000892B09F4C5C22F772093740981E080937A
:1054B00008088091FF078F5F8436A8F58093FF0767
:1054C00060912B0889E299E00E94C60990930A082E
:1054D0008093090860912D0889E299E00E94C6092D
:1054E000909305088093040860912C0889E299E064
:1054F0000E94C609909307088093060860912E08C1
:1055000089E299E00E94C6099093030880930208FB
:1055100060912F0889E299E00E94C60990930108E2
:105520008093000811CD1092FF07CACF61E085E09B
:105530000E9405048091FD07882309F47AC08091B8
:10554000F50781110DC00E94D5046093F107709397
:10555000F2078093F3079093F40781E08093F507B7
:105560000E94D5040091F1071091F2072091F307F2
:105570003091F407601B710B820B930B6A3F71052E
:105580008105910508F455C00E94D5046093F10788
:105590007093F2078093F3079093F40780910908C2
:1055A00090910A08009709F4CFC18C3DF5E09F0760
:1055B00008F0B8C12091350830913608821793075A
:1055C00020F4909336088093350820913308309169
:1055D00034084091350850913608240F351F369510
:1055E000279530933208209331080E94CD0E86E132
:1055F00096E00E946B0F80913508909136080E94CA
:10560000CD0E86E196E00E946B0F8091310890915B
:1056100032080E94CD0E86E196E00E946B0F8091C9
:105620003308909134080E94CD0E89ED98E00E94D5
:10563000DA0F8091840781110DC00E94D504609318
:10564000800770938107809382079093830781E09E
:10565000809384070E94D5040091800710918107F0
:105660002091820730918307601B710B820B930B93
:10567000653F71408105910508F441C10E94D50440
:1056800060938007709381078093820790938307CC
:1056900080917F07882309F450C080910908909178
:1056A0000A080E94CD0E86E196E00E946B0F809161
:1056B0000608909107080E94CD0E86E196E00E94B0
:1056C0006B0F80910408909105080E94CD0E86E131
:1056D00096E00E946B0F80910208909103080E944F
:1056E000CD0E86E196E00E946B0F809100089091AC
:1056F00001080E94CD0E86E196E00E946B0F0E9489
:10570000C6048823D1F080917E071F928F938CED81
:1057100094E09F938F931F9284E68F93ECE8F7E0D9
:10572000FF93EF930E948A2D8CE897E00E946B0F05
:105730000FB6F894DEBF0FBECDBF2091090830919F
:105740000A0810917C072115310509F42FC1C0907A
:105750003508D0903608F12CE12C50E040E02C19AF
:105760003D094E095F09ADE1B0E00E946D30209126
:1057700033083091340850E040E02C193D094E09BF
:105780005F090E944E302F5F3F4F4F4F5F4F209376
:105790007D0780917D07811719F090E00E946409D0
:1057A00080917D0780937C0784E00E94DC038093D6
:1057B0007B0720910408309105082115310599F0E7
:1057C0008091310890913208885C91092817390737
:1057D00008F0EFC01092100180911001813009F0A3
:1057E000ECC080937A0720910608309107082115B4
:1057F000310599F0809131089091320888539F4F7C
:105800008217930708F0EBC010920F0180910F01EF
:10581000813009F0E8C08093790720910008309129
:1058200001082115310599F08091310890913208D5
:1058300088539F4F8217930708F0E7C010920E011C
:1058400080910E01813009F0E4C0809379072091A6
:1058500002083091030821153105F1F080913108DB
:1058600090913208885C91092817390718F48EE066
:105870000E946C09809131089091320888539F4FA3
:1058800020910208309103088217930728F4809131
:105890007E0790E00E94680985E4E82E81E0F82EFA
:1058A00001E010E094E6D92ED7018D917D010E9490
:1058B000DC03892BF9F4B80182E10E94E1040E9423
:1058C000C6048823B9F01F930F93E8ECF4E0FF932C
:1058D000EF931F92DF924CE857E05F934F930E9443
:1058E0008A2D8CE897E00E946B0F0FB6F894DEBF0C
:1058F0000FBECDBF0F5F1F4F07301105A9F680E027
:1059000090E0892B11F40C94D81F0E94E4068823A0
:1059100011F40C94D81F0E9400000C94D81F8091A1
:10592000FE0718CB8C3D05E0900709F44ECE209180
:105930003308309134082817390708F046CE909381
:1059400034088093330841CE0E94D5046093F10758
:105950007093F2078093F3079093F4070E94C604B4
:10596000882309F466CEE0913708E150FF0BEE0F73
:10597000FF1FE55BFE4F81818F9380818F938EEEB9
:1059800094E09F938F931F9284E68F932CE837E0E7
:105990003F932F930E948A2D8CE897E00E946B0F13
:1059A0000FB6F894DEBF0FBECDBF43CE10937D0778
:1059B000F0CE81E0809310010FCF811114CF809140
:1059C0007A07882309F40FCF80917E078150809356
:1059D0007E0790E00E94680910927A0704CF81E068
:1059E00080930F0113CF811118CF809179078823FD
:1059F00009F413CF80917E078F5F80937E0790E03C
:105A00000E9468091092790708CF81E080930E0107
:105A100017CF81111CCF80917907882309F417CF04
:105A200080917E0790E00E946809109279070FCF5D
:105A30001092080889CA8BE891E0909382098093BC
:105A4000810920918D0948EF420F443040F082EFE8
:105A5000820F843020F086EE820F833068F530911B
:105A60006B00822F8450990B443078F087EF2E30F2
:105A7000A1F08DEF2F3089F08BEF203171F08EEF98
:105A8000213159F0822F8651990BBC0181E090E0C1
:105A900001C0880F6A95EAF780958323443048F067
:105AA00092EF920F943028F02A51F0E0E0E023309A
:105AB00010F4EBE6F0E080830895FC018827992735
:105AC000E89421912032E9F3293010F02E30C8F308
:105AD0002B3241F02D3239F4689404C00E94822D9B
