:100000000C94F9010C94890E0C94620E0C943B0E26
:100010000C94140E0C9421020C9421020C94ED0DFE
:100020000C9421020C94A9110C94B00E0C941F0F87
:100030000C9421020C9421020C9421020C942102B4
:100040000C9421020C9421020C9421020C942102A4
:100050000C9421020C9421020C9421020C94A30D07
:100060000C9421020C9477110C9451110C942102E0
:100070000C9421020C9421020C9421020C94210274
:100080000C9421020C9421020C9421020C94210264
:100090000C9421020C9421020C9421020C94210254
:1000A0000C9421020C9421020C9421024D696E697A
:1000B00043683A2020202025640D0A0043656E74B1
:1000C000657243683A202025640D0A004D61786905
:1000D00043683A2020202025640D0A004E6578747C
:1000E0003A20202020202025640D0A0050726576D9
:1000F0003A20202020202025640D0A00566F6C43F2
:10010000683A202020202025640D0A00566F6C3AA2
:100110002020202020202025640D0A004551204D5C
:100120006F64653A202025730D0A00446566617589
:100130006C74732056616C75652053617665640D2F
:100140000A005D3A2030780052785B006D70335FB2
:10015000726563765F636D64206F757400457272BB
:100160006F7220726573706F6E7365207769746843
:1001700020636F646520006D70335F726563765F26
:10018000636D6420696E2077697468206578706596
:100190006374656420636D6420307800080B00028E
:1001A0000202000009040000010202000005240010
:1001B00010010524010101042402060524060001A2
:1001C0000705810310004009040100020A00000035
:1001D00007050202400000070583024000000403F7
:1001E000090412010002EF0201404F1B06920001B8
:1001F00001020301537061726B46756E00537061AA
:10020000726B46756E2050726F204D6963726F007D
:100210002A2A2A2A2A205600557365202573202071
:10022000257325732028505245562D4E4558542D80
:10023000504C41592F5041555345290D0A005573D3
:1002400065202573202025732028505245562D4EB9
:100250004558542D504C41592F5041555345290D67
:100260000A005573652025732020257320202573EF
:100270000D0A0043757272656E7420736F756E643B
:100280003A2025640D0A0046696C657320666F7517
:100290006E643A2025640D0A00457175616C697AB7
:1002A00065723A202025730D0A00566F6C756D65D6
:1002B0002020202020203A2025640D0A005374615C
:1002C0007465202020202020203A2025730D0A006C
:1002D000455252004551204D6F64653A2025730DFB
:1002E0000A005072657643683A2025640D0A004E74
:1002F00065787443683A2025640D0A00566F6C4394
:10030000683A2025640D0A00496E707574204D6F9F
:1003100064652069732025730D0A00566F6C3A25B9
:10032000640D0A00416C61726D3A20256420666993
:1003300072656420210D0A00536F756E644E756DF1
:100340006265723A2025640D0A005369676E616C1C
:1003500020257320566F6C756D65206E6F74206656
:100360006F756E6420210D0A000000000024002734
:10037000002A002D00300000000000250028002B7E
:10038000002E003100000000002300260029002C70
:10039000002F000404040404030405020202020402
:1003A0000302020202060606060606040402020210
:1003B0000404040802011040804010204080408066
:1003C00008020401804020100201108010204040EB
:1003D000200000000200090F0000030401000C00CF
:1003E000000000000000000000000000000000000D
:1003F000EF1111241FBECFEFDAE0DEBFCDBF14E056
:10040000A0E0B1E0E2E3FDE302C005900D92A83D5B
:10041000B107D9F727E0A8EDB4E001C01D92A430E0
:10042000B207E1F711E0C9EFD1E004C02197FE0166
:100430000E94911EC83FD107C9F70E945D120C941B
:10044000971E0C940000FC018091B505882311F1E2
:100450003FB7F89482E08093E9002091F200822F68
:1004600090E01816190614F481E090E0882339F022
:10047000289844E64093B4054091F100408322233C
:1004800039F02091F200211103C02BE62093E800FF
:100490003FBF08958FEF9FEF08952FB7F89483E043
:1004A0008093E9009091E800892F807295FF04C045
:1004B0009091F20080E4891B2FBF08958091AC05D4
:1004C00081110DC082E08093A80584E08093A90586
:1004D0001092AB051092AA0581E08093AC0588EAE2
:1004E00095E0089581508F3008F047C0E82FF0E084
:1004F000E458FD4F0C94911E99029D028B029102CB
:100500009502BD02BD02BD02A002A602AA02AE0271
:10051000B402BD02B802809180008F778093800082
:100520000895809180008F7DF9CF80918000877F32
:10053000F5CF84B58F7784BD089584B58F7DFBCFCB
:10054000809190008F778093900008958091900023
:100550008F7DF9CF80919000877FF5CF8091C0008B
:100560008F778093C00008958091C0008F7DF9CF70
:100570008091C200877F8093C2000895CF93DF935C
:10058000282F30E0F901EF52FC4F8491F901EE542D
:10059000FC4FD491F901ED56FC4FC491CC23A1F04E
:1005A00081110E947202EC2FF0E0EE0FFF1FEB575B
:1005B000FC4FA591B491EC91ED2381E090E009F41A
:1005C00080E0DF91CF91089580E090E0FACF1F9313
:1005D000CF93DF93282F30E0F901EF52FC4F849145
:1005E000F901EE54FC4FD491F901ED56FC4FC49142
:1005F000CC23A9F0162F81110E947202EC2FF0E09B
:10060000EE0FFF1FE958FC4FA591B4918FB7F894F6
:10061000EC91111108C0D095DE23DC938FBFDF91E0
:10062000CF911F910895DE2BF8CFCF93DF9390E009
:10063000FC01EE54FC4F24918D569C4FFC0184919B
:100640008823C9F090E0880F991FFC01E759FC4FFF
:10065000A591B491FC01E958FC4FC591D491611169
:100660000DC09FB7F8948C91209582238C9388813C
:10067000282328839FBFDF91CF910895623051F4E2
:100680009FB7F8943C91822F809583238C93E881C7
:100690002E2BEFCF8FB7F894EC912E2B2C938FBF8E
:1006A000EACF3FB7F8948091A4059091A505A09159
:1006B000A605B091A70526B5A89B05C02F3F19F048
:1006C0000196A11DB11D3FBFBA2FA92F982F8827D2
:1006D000BC01CD01620F711D811D911D42E0660FAD
:1006E000771F881F991F4A95D1F708958F929F927F
:1006F000AF92BF92CF92DF92EF92FF924B015C01DB
:100700000E9451036B017C010E9451036C197D0909
:100710008E099F09683E734081059105A8F321E089
:10072000821A9108A108B10888EEC80E83E0D81E8D
:10073000E11CF11C81149104A104B10429F7FF907C
:10074000EF90DF90CF90BF90AF909F908F900895E3
:10075000CF93C09122016AE070E080E090E00E94B7
:10076000760381E0C11101C080E0CF9108952FB7D9
:10077000F8946091A0057091A1058091A2059091D7
:10078000A3052FBF0895CF93DF9380931401109298
:100790001601609317012091120190911301290F06
:1007A0003327331F820F932F911D20911501820F44
:1007B000911D680F791F71956195710970931801EA
:1007C000609319018091BC059091BD05DC01ED910C
:1007D000FC910084F185E02D0995892B61F08091D1
:1007E000BC059091BD05DC01ED91FC910284F3857F
:1007F000E02D0995E7CFC1E1D1E08091BC05909152
:10080000BD056991DC01ED91FC910190F081E02D35
:100810000995B1E0CB31DB0781F7DF91CF910C94E3
:10082000B703CF92DF92EF92FF921F93CF93DF93A4
:10083000D82FC0E011E0C090B805D090B905E09085
:10084000BA05F090BB0580911001882311F10E9438
:10085000B7036C197D098E099F09683E73408105B5
:10086000910560F0109210010E94B7036093B805E3
:100870007093B9058093BA059093BB05CF5FDC13E5
:10088000DACFDF91CF911F91FF90EF90DF90CF9063
:1008900008950E94B7036C197D098E099F09643F72
:1008A00071408105910550F310931001DDCF08953B
:1008B0004091FE045091FF042091FC043091FD040E
:1008C00042175307B4F49091E8009570E1F39091CA
:1008D000E80092FD19C08093F1008091FE04909190
:1008E000FF0401968F739927892B19F48EEF80935B
:1008F000E8008091FE049091FF0401969093FF041C
:100900008093FE0481E0089580E00895EF92FF92C5
:100910000F931F93CF93DF93F82E192FE62E042FFA
:1009200081E0860F880F0E94580483E00E945804DB
:10093000CF2DD12FEC0EFD2EF11CCE15DF05B9F019
:1009400007FF13C0FE0184910E945804182F80E015
:100950000E945804812321968111EFCFDF91CF911E
:100960001F910F91FF90EF9008958881EDCF81E066
:10097000F5CFDF92EF92FF920F931F93CF93DF9308
:10098000D82E8A01EB017B01E40EF51ECE15DF05A2
:1009900059F0D7FE12C0FE0184910E94580421969E
:1009A0008111F4CF0FEF1FEFC801DF91CF911F919D
:1009B0000F91FF90EF90DF9008958881EECF0F9315
:1009C0001F93CF93DF931F92CDB7DEB782E0898369
:1009D00042E450E06CE971E080E80E94B9040E94B2
:1009E0005E02DC0112960D911C910115110589F032
:1009F000D801ED91FC910280F381E02DBE016F5F83
:100A00007F4FC801099597FD04C0F8010085118545
:100A1000ECCF89810F90DF91CF911F910F910895B5
:100A2000615030F02091F100FC0120830196F8CF55
:100A3000289884E68093B4050895EF92FF920F936F
:100A40001F93CF93DF938C017B01D0E0C0E0F701CF
:100A5000EC0FFD1F6491662361F0D801ED91FC91CC
:100A60000190F081E02DC8010995892B11F02196A4
:100A7000EECFCE01DF91CF911F910F91FF90EF90BC
:100A80000895AF92BF92CF92DF92EF92FF920F93B1
:100A90001F93CF93DF936C017B018B01040F151F14
:100AA000EB015E01AE18BF08C017D10759F069917C
:100AB000D601ED91FC910190F081E02DC6010995E0
:100AC000892B79F7C501DF91CF911F910F91FF908D
:100AD000EF90DF90CF90BF90AF900895FC01538DC1
:100AE000448D252F30E0842F90E0821B930B541708
:100AF00010F0CF96089501970895FC01918D828D95
:100B0000981761F0A28DAE0FBF2FB11D5D968C912D
:100B1000928D9F5F9F73928F90E008958FEF9FEF6C
:100B20000895FC01918D828D981731F0828DE80F28
:100B3000F11D858D90E008958FEF9FEF0895FC01E2
:100B4000918D228D892F90E0805C9F4F821B9109AF
:100B50008F73992708958BEC95E00E949F0521E003
:100B6000892B09F420E0822F089580E090E0892B02
:100B700029F00E94AB0581110C9400000895FC013E
:100B8000A48DA80FB92FB11DA35ABF4F2C91848DEE
:100B900090E001968F739927848FA689B7892C934B
:100BA000A089B1898C9182748C93938D848D9813D4
:100BB00006C00288F389E02D80818F7D80830895AF
:100BC000EF92FF920F931F93CF93DF93EC0181E09D
:100BD000888F9B8D8C8D981319C0E889F989808145
:100BE00085FF14C09FB7F894EE89FF896083E88978
:100BF000F9898081827480839FBF81E090E0DF91DA
:100C0000CF911F910F91FF90EF900895F62E0B8DCD
:100C100010E00F5F1F4F0F731127E02E8C8D8E1188
:100C20000CC00FB607FCFACFE889F989808185FFEF
:100C3000F5CFCE010E94BF05F1CFEB8DEC0FFD2F5C
:100C4000F11DE35AFF4FF0829FB7F8940B8FEA89AA
:100C5000FB8980818062CFCFCF93DF93EC01888DB9
:100C60008823B9F0AA89BB89E889F9898C9185FD27
:100C700003C0808186FD0DC00FB607FCF7CF8C91B5
:100C800085FFF2CF808185FFEDCFCE010E94BF05A9
:100C9000E9CFDF91CF9108958F929F92AF92BF924B
:100CA000CF92DF92EF92FF920F931F93CF93DF9338
:100CB0006C017B018A0180912201882309F45CC0C8
:100CC0008091B505882309F457C08091020580FF03
:100CD00005C08091E00082608093E000E801B12CC3
:100CE0008AEFA82E93E0892E2AE3922E209711F402
:100CF000BB20D9F10E944D0281110AC0AA94AA20FA
:100D0000D9F161E070E080E090E00E947603EECFE0
:100D10008C171D0611F00CF08C2F9FB7F894809261
:100D2000E9002091E80025FD02C09FBFDFCF282FFA
:100D300030E0C21BD30BF701815020F0419140936A
:100D4000F100FACFE20EF31EBB2021F09092E800F2
:100D5000B12CEBCF8091E80085FDE7CF9092E800C1
:100D6000BB24B394209709F3F3CF5D9884E6809376
:100D70000105101611063CF081E090E0F601938326
:100D8000828310E000E0C801DF91CF911F910F91A5
:100D9000FF90EF90DF90CF90BF90AF909F908F909B
:100DA0000895CF93DF931F92CDB7DEB76983DC013F
:100DB000ED91FC910280F381E02D41E050E0BE0115
:100DC0006F5F7F4F09950F90DF91CF91089583E07A
:100DD0008093E9008091F200882319F08AE38093E0
:100DE000E80008950E944D0290E00895CF93DF93AC
:100DF0001F92CDB7DEB7FC018485958597FD08C0AD
:100E00002FEF3FEF358724870F90DF91CF91089523
:100E1000CE0101960E942302019719F4898190E086
:100E2000F3CF8FEF9FEFF0CF0F931F93CF93DF930D
:100E30001F92CDB7DEB78C01FC018485958597FFA5
:100E40000BC0CE0101960E942302019771F48981A3
:100E500090E0F80195878487F801848595850F9047
:100E6000DF91CF911F910F9108958FEF9FEFF1CFF9
:100E7000FC018485958597FD0BC09FB7F89482E0AF
:100E80008093E9008091F2009FBF90E00196089561
:100E90009FB7F89482E08093E9008091F2009FBFB1
:100EA00090E00895BC0186E00C94C303BC0183E08C
:100EB0000C94C30370E060E00C94C3038F929F9284
:100EC000AF92BF92CF92DF92EF92FF926C010E949D
:100ED000B7034B015C01F12CE12C0E94B7036819A8
:100EE00079098A099B096C157D058E059F0540F4DB
:100EF000E0910605F0910705309779F30995EDCF5C
:100F0000FF90EF90DF90CF90BF90AF909F908F9029
:100F10000895BF92CF92DF92EF92FF920F931F93AB
:100F2000CF93DF930E9451036B017C01C091B60502
:100F3000D091B70501E010E0BB24BA94209709F4E2
:100F400059C08D8183708130D1F52091ED04422FFD
:100F500050E08C81843048F48823C1F1813099F1CC
:100F60008230B9F522E030E01AC098EF980F682F70
:100F70006450770B943058F08E3029F18F3091F314
:100F8000803121F1813129F1682F6651770B9B0166
:100F9000B80102C0660F771F2A95E2F79B01242350
:100FA0003523232B61F00E94BE029D8192FB99277D
:100FB00090F9981789F0CA86DB86EC86FD860A8050
:100FC000DB81C02DBBCF28E030E0E9CF24E030E06A
:100FD000E6CF21E030E0E3CF8A859B85AC85BD85F7
:100FE0009601281B390B3F872E87B88A0E94B703CA
:100FF000698BE5CFDF91CF911F910F91FF90EF901B
:10100000DF90CF90BF900895BF92CF92DF92EF9282
:10101000FF920F931F93CF93DF930E9451036B01B5
:101020007C01C091B605D091B705BB24BA9401E00C
:1010300010E0209709F458C08D818370D1F520917C
:10104000E104422F50E08C81843048F48823C1F1C0
:10105000813099F18230B9F522E030E01AC098EF82
:10106000980F682F6450770B943058F08E3029F128
:101070008F3091F3803121F1813129F1682F665150
:10108000770B9B01B80102C0660F771F2A95E2F724
:101090009B0124233523232B61F00E94BE029D81F6
:1010A00092FB992790F9981789F0CA86DB86EC861F
:1010B000FD860A80DB81C02DBCCF28E030E0E9CF7F
:1010C00024E030E0E6CF21E030E0E3CF8A859B8565
:1010D000AC85BD859601281B390B3F872E87B88AC2
:1010E0000E94B703698BE5CFDF91CF911F910F91DC
:1010F000FF90EF90DF90CF90BF9008950895FC018E
:10110000868597852685378582179307C9F70895C1
:10111000FC01808990E0062E02C0959587950A947F
:10112000E2F780FF1CC0208981E090E001C0880FB9
:101130006A95EAF780958223808B26853785868598
:10114000978528173907C9F78681978128173907A6
:1011500030F081E0408551854217530708F480E064
:1011600008950C94880889B18F70E8EDF4E0878BBE
:10117000868997898927858B8789868B0288F38959
:10118000E02D099489B18F70E8EDF4E0878B8689B2
:1011900097898927858B8789868B0088F189E02D3F
:1011A000099489B18F70E8EDF4E0878B868997897F
:1011B0008927858B8789868B0684F785E02D09949E
:1011C00089B18F70E8EDF4E0878B8689978989274C
:1011D000858B8789868B0484F585E02D0994CF93D0
:1011E000DF93982F28EF280F81E0243008F480E067
:1011F000282F30E09430A0F59230D1F49CE0929FFB
:10120000F001939FF00D1124E852FB4F738362832A
:1012100021ED38E030930701209306019091690099
:10122000937F946090936900E99ADF91CF9108953C
:101230009CE0929FF001939FF00D1124E852FB4F28
:101240007183608320EE38E0309305012093040120
:10125000909169009C7F916090936900E89AE5CF36
:1012600050E040E096E0929FE001939FD00D112462
:10127000DE01A40FB51FAA0FBB1FA852BB4FED91F3
:10128000FC91E617F70789F24F5F5F4F4430510535
:1012900079F79CE0929FD001939FB00D1124A85242
:1012A000BB4F18969C911897943010F08FEFBDCFDC
:1012B0001896EC911897EC0FFD2FF11DEE0FFF1F04
:1012C000E852FB4F7183608318969C9118979F5F3B
:1012D00018969C93AACF1F93CF93DF93EC01162F00
:1012E00098EF960F8D818C7F9430D8F181608D833B
:1012F00069E877E0812F0E94EF08982F93708D8125
:101300008C7F892B8D831C8388E592E09F838E835D
:1013100080E699E0998788878091B6059091B70516
:101320009B838A83D093B705C093B60560E0812F75
:101330000E94150361E08C810E94E7028C81843059
:10134000D0F49DB3882389F0813089F0823089F010
:1013500081E0892B8DBB8D818370DF91CF911F91AF
:1013600008958D8364E078E0C5CF84E0F2CF88E013
:10137000F0CF82E0EECF28EF280F243040F092EF3C
:10138000980F943020F096EE980F933020F79091BC
:101390006800243050F032EF380F343030F036EE41
:1013A000380FF0E0E0E0333010F4E8E6F0E0916070
:1013B0009083243050F092EF980F943030F096EEF6
:1013C000980FF0E0E0E0933010F4EBE6F0E03081CD
:1013D0002430C0F491E0682F6450770B01C0990F5E
:1013E0006A95EAF7932B243048F022EF280F243037
:1013F00028F08A51F0E0E0E0833010F4EBE6F0E012
:101400009083A9CF98E08E3069F392E08F3051F34A
:1014100094E0803139F391E0813121F3682F6651F6
:10142000770BDCCF0F931F93CF93DF930EEB15E079
:10143000D0E0C0E0CE010E94E91DF80181938F0148
:101440002196CD30D105B1F78EEB95E0DF91CF91AC
:101450001F910F910895FF920F931F93CF93DF93E6
:101460000EEB15E0D0E0C0E0F801F1908F01CE0165
:101470000E94E91DF81621F06F2DCE010E94F11D8A
:101480002196CD30D10581F78EEB95E0DF91CF919C
:101490001F910F91FF900895FB0101900020E9F743
:1014A0003197AF01461B570BDC01ED91FC91028097
:1014B000F381E02D09948F929F92AF92BF92EF92A9
:1014C000FF920F931F93CF93DF93CDB7DEB7A19712
:1014D0000FB6F894DEBF0FBECDBF7C01FA01CB0181
:1014E00019A2223008F42AE08E010F5D1F4F822ED0
:1014F000912CB12CA12CBF01A50194010E94601E6A
:10150000F901CA016A300CF5605DD8016E938D0156
:10151000232B242B252B79F790E080E0109721F0E6
:10152000BD01C7010E944C0AA1960FB6F894DEBF18
:101530000FBECDBFDF91CF911F910F91FF90EF9024
:10154000BF90AF909F908F900895695CDECFAC0103
:1015500070E060E02AE088E696E00C945B0ACF92A7
:10156000DF92EF92FF920F931F93CF93DF93EC01E3
:101570006A017B01E881F9810190F081E02D6DE243
:1015800009958C0144275527BA014C195D096E094C
:101590007F092AE0CE010E945B0A800F911FDF9134
:1015A000CF911F910F91FF90EF90DF90CF90089512
:1015B000009729F0BC0188E696E00C944C0A90E074
:1015C00080E0089589E98093BE0589E08093BF0596
:1015D00087E08093C10588E08093C0058AE080930E
:1015E000C2058CED95E09093C4058093C30588EE09
:1015F00093E09093C8058093C70580ED97E09093A2
:10160000C6058093C50581E08093C9051092CA057F
:1016100083E00E9411040E94A8038823B9F08BE2A2
:1016200091E09F938F931F9284E68F9386E295E0DB
:101630009F938F930E943B1B86E295E00E94D80AFD
:101640000F900F900F900F900F900F900C942B0A0B
:101650000E94120A8091BE05893949F00E94E20A6F
:1016600064EF71E080E090E00E947603F1CF0E9489
:10167000A803882321F087E991E00E94D80A0E94FC
:10168000A803882321F08CEA93E00E94D80A0E94E4
:10169000A803882321F08EE791E00E94D80A0E94D7
:1016A000A803882321F08CEA93E00E94D80A0E94C4
:1016B000A803882361F0E091C905E150FF0BEE0F0C
:1016C000FF1FEE5BFE4F808191810E94D80A0E942D
:1016D000A803882321F087E991E00E94D80A0E949C
:1016E000A803882321F1E091CA05F0E0EE0FFF1F67
:1016F000E05DFE4F81818F9380818F938CE191E03B
:101700009F938F931F9284E68F9386E295E09F9339
:101710008F930E943B1B86E295E00E94D80A8DB70A
:101720009EB708960FB6F8949EBF0FBE8DBF0E945D
:10173000A8038823E9F08091C2051F928F938CE063
:1017400091E09F938F931F9284E68F9386E295E0BA
:101750009F938F930E943B1B86E295E00E94D80ADC
:101760008DB79EB708960FB6F8949EBF0FBE8DBF7B
:101770000E94A8038823E9F08091BF051F928F93F0
:101780008CEF90E09F938F931F9284E68F9386E275
:1017900095E09F938F930E943B1B86E295E00E9409
:1017A000D80A8DB79EB708960FB6F8949EBF0FBEA5
:1017B0008DBF0E94A8038823E9F08091C1051F9284
:1017C0008F938CEE90E09F938F931F9284E68F937C
:1017D00086E295E09F938F930E943B1B86E295E003
:1017E0000E94D80A8DB79EB708960FB6F8949EBF90
:1017F0000FBE8DBF0E94A8038823E9F08091C00529
:101800001F928F938CED90E09F938F931F9284E6AD
:101810008F9386E295E09F938F930E943B1B86E215
:1018200095E00E94D80A8DB79EB708960FB6F89437
:101830009EBF0FBE8DBF0E94A8038823F9F0809140
:10184000C6058F938091C5058F938CEC90E09F9394
:101850008F931F9284E68F9386E295E09F938F93F8
:101860000E943B1B86E295E00E94D80A8DB79EB786
:1018700008960FB6F8949EBF0FBE8DBF0E94A803B6
:101880008823F9F08091C4058F938091C3058F93CD
:101890008CEB90E09F938F931F9284E68F9386E268
:1018A00095E09F938F930E943B1B86E295E00E94F8
:1018B000D80A8DB79EB708960FB6F8949EBF0FBE94
:1018C0008DBF0E94A8038823F9F08091C8058F93EB
:1018D0008091C7058F938CEA90E09F938F931F921E
:1018E00084E68F9386E295E09F938F930E943B1B43
:1018F00086E295E00E94D80A8DB79EB708960FB68B
:10190000F8949EBF0FBE8DBF0E94A803882321F0CC
:1019100087E991E00C94D80A089567E971E00C9486
:101920004C0ACF93DF93BC0188E696E00E944C0AF4
:10193000EC0188E696E00E948D0C8C0F9D1FDF91D4
:10194000CF9108954F925F926F927F928F929F9264
:10195000AF92BF92CF92DF92EF92FF920F931F93BD
:10196000CF93DF937C01D82F0E94B7032B013C015A
:101970008091040590910505009799F067E771E063
:101980000E941D050091040510910505A701FF0C9B
:10199000660B770B20E1C8010E945B0AC8010E9418
:1019A0008D0CC0E00E94B703641975098609970978
:1019B000683E73408105910568F11092FA04109217
:1019C000FB04C0910405D0910505209741F06CE41B
:1019D00071E0CE010E941D05CE010E948D0C209168
:1019E000FA048091FB0490E03FEF239F800D911D4E
:1019F0001124DF91CF911F910F91FF90EF90DF9015
:101A0000CF90BF90AF909F908F907F906F905F909E
:101A10004F90089585E090E00E945E0780EFA82E29
:101A200084E0B82EF501119234E0EA3FF307D9F7CC
:101A30008091BC059091BD05DC01ED91FC91008485
:101A4000F185E02D09950A970CF476C0C12CD12CB4
:101A500076018091BC059091BD05DC01ED91FC9172
:101A60000284F385E02D09958C01019609F464C088
:101A70008091040590910505009721F168E471E0DB
:101A80000E941D052AE0B701A601809104059091EE
:101A900005050E945B0A62E471E080910405909163
:101AA00005050E941D05809004059090050520E124
:101AB000A801110F660B770BC4010E945B0AC401D9
:101AC0000E948D0CF50101935F01FFEFCF1ADF0A31
:101AD000EF0AFF0A2AE0C216D104E104F10409F07A
:101AE000B8CFC091F304C034E1F480910405909123
:101AF0000505009709F456CF6DE571E00E941D05BC
:101B000000910405109105054091F60450E070E045
:101B100060E02AE0C8010E945B0AC8010E948D0CA7
:101B200041CFDC133FCF8091F5048093FA0480917C
:101B3000F6048093FB0445CF82E390E00E945E07A9
:101B4000DC1330CF3ECF1F920F920FB60F921124AD
:101B50002F933F938F939F93AF93BF938091A00553
:101B60009091A105A091A205B091A30530919F0588
:101B700023E0230F2D3758F50196A11DB11D2093A9
:101B80009F058093A0059093A105A093A205B09313
:101B9000A3058091A4059091A505A091A605B091FB
:101BA000A7050196A11DB11D8093A4059093A505DD
:101BB000A093A605B093A705BF91AF919F918F9178
:101BC0003F912F910F900FBE0F901F90189526E810
:101BD000230F0296A11DB11DD2CF1F920F920FB6F7
:101BE0000F9211242F933F934F935F936F937F93A3
:101BF0008F939F93AF93BF93EF93FF93E0910C016B
:101C0000F0910D010995FF91EF91BF91AF919F91D7
:101C10008F917F916F915F914F913F912F910F9095
:101C20000FBE0F901F9018951F920F920FB60F9234
:101C300011242F933F934F935F936F937F938F93D1
:101C40009F93AF93BF93EF93FF93E0910A01F091BD
:101C50000B010995FF91EF91BF91AF919F918F91EA
:101C60007F916F915F914F913F912F910F900FBE98
:101C70000F901F9018951F920F920FB60F9211247C
:101C80002F933F934F935F936F937F938F939F9384
:101C9000AF93BF93EF93FF93E0910801F091090197
:101CA0000995FF91EF91BF91AF919F918F917F9196
:101CB0006F915F914F913F912F910F900FBE0F90B9
:101CC0001F9018951F920F920FB60F9211242F9309
:101CD0003F934F935F936F937F938F939F93AF93B4
:101CE000BF93EF93FF93E0910601F09107010995EF
:101CF000FF91EF91BF91AF919F918F917F916F91E4
:101D00005F914F913F912F910F900FBE0F901F90B9
:101D100018951F920F920FB60F9211242F933F9395
:101D20004F935F936F937F938F939F93AF93BF93E3
:101D3000EF93FF93E0910401F09105010995FF9164
:101D4000EF91BF91AF919F918F917F916F915F9133
:101D50004F913F912F910F900FBE0F901F901895AC
:101D60001F920F920FB60F9211248F939F93809121
:101D7000E1009091E100937F9093E10083FF0FC019
:101D80001092E90091E09093EB001092EC0092E346
:101D90009093ED001092B50598E09093F00082FFCB
:101DA00022C093E09093E9009091F200992319F0FA
:101DB0009AE39093E80090910105992341F0909166
:101DC0000105915090930105911101C05D9A909188
:101DD000B405992341F09091B40591509093B405C6
:101DE000911101C0289A84FF18C08091E2008E7E74
:101DF00081608093E2008091E1008F7E8093E1001A
:101E0000809102058E7E8061809302059F918F9163
:101E10000F900FBE0F901F90189580FFF7CF809105
:101E2000E2008E7E80618093E2008091E1008E7EF0
:101E30008093E100809102058E7E8160E5CF1F9244
:101E40000F920FB60F921124CF92DF92EF92FF9272
:101E50000F931F932F933F934F935F936F937F93B2
:101E60008F939F93AF93BF93EF93FF93CF93DF93A2
:101E7000CDB7DEB76C97DEBFCDBF1092E900809181
:101E8000E80083FF25C068E0CE0145960E9410055A
:101E900082EF8093E8008D8987FF39C09091E80038
:101EA00090FFFCCF982F907609F034C19E894F891E
:101EB000588D2F89F88C911131C0803861F580914F
:101EC00003058093F1001092F1008EEF8093E800FB
:101ED0006C960FB6F894DEBF0FBECDBFDF91CF91E9
:101EE000FF91EF91BF91AF919F918F917F916F91F2
:101EF0005F914F913F912F911F910F91FF90EF9024
:101F0000DF90CF900F900FBE0F901F9018959EEF0F
:101F10009093E800C7CF1092F100D5CF913059F4DB
:101F20008111D3CF4130510581F6809103058D7F1A
:101F300080930305CACF933049F48111C6CF413055
:101F4000510519F6809103058260F2CF953041F476
:101F50008091E80080FFFCCF20682093E300B5CF9C
:101F6000963009F0A9C00B8D1C8D22E01092E9007B
:101F70001092FF041092FE04F2122EC01092FD0483
:101F80001092FC040E94DF041F8299E09983FA8278
:101F900091E09E8390EA98879AEF99872091FE04BA
:101FA0003091FF04275F3F4F3C832B838D8310923A
:101FB000E9001092FF041092FE041093FD040093B8
:101FC000FC0449E050E0BE016F5F7F4F80E00E945B
:101FD000B9040E94DF0479CF1093FD040093FC0440
:101FE0000E945E02DC0112960D911C9101151105F3
:101FF00009F451C1D801ED91FC910480F581E02DE7
:10200000BE016B5E7F4FC8010995009709F03EC184
:10201000F80100851185EACFF3E0FF120EC08F8929
:10202000882309F440C0823061F440E862E18DEF1A
:1020300091E00E948604811148CF81E28093EB00F9
:1020400047CF813029F440E868E084EF91E0F1CF98
:10205000833099F70E945E02DC011296ED90FC90AD
:102060008E010F5F1F4F6801E114F10479F0D70171
:10207000ED91FC910680F781E02DB801C70109952B
:10208000080F111DF701E084F184EECFD8011C92F6
:10209000F60101900020E9F73197BF016C197D0925
:1020A00040E0C601C6CF6EED71E0FB01449150E007
:1020B00080E80E94B90409CF973009F4BECF983068
:1020C00021F481E08093F10000CF993009F0FDCE3A
:1020D000837009F0B2CFE4E2F1E081E031E096E311
:1020E0002191222371F08093E9003093EB00DF010E
:1020F00011972C912093EC009093ED008F5F873027
:1021000079F78EE78093EA001092EA008F89809336
:10211000B505DBCE8B8D9C8D1092E9001092FF04EB
:102120001092FE049093FD048093FC04898D81112C
:1021300092C08E899D89913A49F4813209F07DCF10
:1021400047E050E06BE171E080E0B3CF913209F0FD
:1021500074CF833269F48F89988DB0E0A0E08093CA
:10216000000190930101A0930201B0930301ADCE51
:10217000803269F48091E80082FFFCCF67E08BE158
:1021800091E00E9410058BEF8093E8009ECE823292
:1021900009F09BCE8F8980932201EEEFFFE78591B6
:1021A00094918B3F9C4D51F1E0E0F8E080911B0150
:1021B00090911C01A0911D01B0911E01803B9440A3
:1021C000A105B105F1F48091220180FD1AC0EE3F16
:1021D0008AE0F80789F587E797E791838083809104
:1021E00060008093000588E19BE00FB6F894A89505
:1021F000809360000FBE9093600067CEEEEFFAE030
:10220000D5CF808191818737974709F05ECEA89519
:1022100080916000886180936000809100058093C8
:102220006000EE3F2AE0F20789F08091FE0A90916B
:10223000FF0A9183808349CE8081918187379807F7
:1022400051F29093FF0A8093FE0AC5CF1092FF0AC5
:102250001092FE0A3ACE0E945E02DC0112960D91A7
:102260001C910115110509F4E8CED801ED91FC91FE
:102270000190F081E02DBE016B5E7F4FC801099592
:10228000811123CEF80100851185EBCF18161906B0
:102290000CF41BCED2CEF1E0FF12BECE62EE71E0A6
:1022A00004CF1F920F920FB60F9211242F933F93DA
:1022B0004F935F936F937F938F939F93AF93BF934E
:1022C000EF93FF938BEC95E00E94BF05FF91EF9198
:1022D000BF91AF919F918F917F916F915F914F913E
:1022E0003F912F910F900FBE0F901F9018951F9246
:1022F0000F920FB60F9211242F938F939F93EF930A
:10230000FF93E091DB05F091DC058081E091E10530
:10231000F091E20582FD1BC090818091E4058F5F02
:102320008F732091E505821741F0E091E405F0E01C
:10233000E553FA4F958F8093E405FF91EF919F91BC
:102340008F912F910F900FBE0F901F901895808145
:10235000F4CF1F920F920FB60F9211242F933F9339
:102360004F935F936F937F938F939F93AF93BF939D
:10237000CF93EF93FF9383B190916B008923809368
:10238000E3048091E2049091E30489278093E104BF
:102390008091E3048093E204C0E08091E004C817D8
:1023A00060F4EC2FF0E0EE0FFF1FE852FB4F0190BE
:1023B000F081E02D0995CF5FF0CFFF91EF91CF91A4
:1023C000BF91AF919F918F917F916F915F914F914D
:1023D0003F912F910F900FBE0F901F901895EBEC2F
:1023E000F5E01382128288EE93E0A0E0B0E08483EF
:1023F0009583A683B78324E531E0318320832DECD8
:1024000030E0358724872CEC30E03787268728ECAE
:1024100030E0318B208B29EC30E0338B228B2AEC9F
:1024200030E0358B248B2EEC30E0378B268B118EF1
:10243000128E138E148EE8E6F6E0138212828483E5
:102440009583A683B78386E691E0918380838FEF9F
:102450009FEF9587848788E791E09093F3068093B8
:10246000F206E7EFF6E020812B7F20839093E106D0
:102470008093E006E5EEF6E020812B7F20839093A9
:10248000CF068093CE06E3EDF6E020812B7F2083FC
:102490009093BD068093BC06E1ECF6E080818B7FD3
:1024A00080830E94B7036093B8067093B906809347
:1024B000BA069093BB060C94B703789484B58260F7
:1024C00084BD84B5816084BD85B5826085BD85B5D8
:1024D000816085BD80916E00816080936E00109256
:1024E00081008091810082608093810080918100D1
:1024F0008160809381008091800081608093800062
:102500008091910082608093910080919100816020
:1025100080939100809190008160809390008091E1
:10252000C10084608093C1008091C100826080936B
:10253000C1008091C10081608093C1008091C3007F
:1025400081608093C3008091C00082608093C0004E
:102550008091C20081608093C20080917A00846083
:1025600080937A0080917A00826080937A008091D3
:102570007A00816080937A0080917A0080688093ED
:102580007A001092B5051092030510920205809111
:10259000D70081608093D70080EA8093D80089B506
:1025A000806189BD89B5826089BD09B400FEFDCF17
:1025B00061E070E080E090E00E9476038091D800B6
:1025C0008F7C80618093D8008091E000807F809331
:1025D000E0008091E1008E7E8093E1008DE08093A9
:1025E000E200559A209A60E084E00E94150361E0C1
:1025F00085E00E94150361E085E00E94E7020E94E9
:10260000120A02E411E0CCE3D1E062E089910E9479
:1026100015030C171D07C9F7E091DB05F091DC05E8
:1026200082E08083E091D705F091D8051082E09197
:10263000D905F091DA058FEC80831092E305E091E3
:10264000DF05F091E00586E08083E091DD05F09103
:10265000DE05808180618083E091DD05F091DE05FB
:10266000808188608083E091DD05F091DE058081C6
:1026700080688083E091DD05F091DE0580818F7DAB
:1026800080838FEF9FEF909375068093740668EEBA
:1026900073E080E090E00E94760380911905882322
:1026A00031F088E696E090930505809304050E943A
:1026B000A803882321F08AE991E00E94D80A8BECD4
:1026C00095E09093BD058093BC051092070510928C
:1026D000060562E070E089E00E94C30370E060E0FC
:1026E00087E00E94C3038091C20590E00E945207D8
:1026F00064EF71E080E090E00E9476038091C20573
:1027000090E00E94520764EF71E080E090E00E9448
:10271000760383E40E945A0783E490E00E94A20CAF
:102720008093160588E40E945A0788E490E00E948E
:10273000A20C8093140568EB7BE080E090E00E949F
:10274000760381E08093090560E085E00E94E7025E
:1027500088E696E00E948D0C88EB91E00E94910C37
:1027600089EC91E00E94910C60E172E088E696E0CD
:102770000E941D052AE041E050E060E070E088E63C
:1027800096E00E945B0A8AED91E00E94D80A2AE056
:1027900040E050E0BA0188E696E00E945B0A8CEDCA
:1027A00091E00E94910C88E696E00E948D0C809149
:1027B0001605882309F4BBC20E94A803882321F0D0
:1027C00083EE91E00E94D80A0E94A803882321F09A
:1027D0008AE192E00E94D80A0E94A803882321F08F
:1027E0008AE392E00E94D80A0E94280B8091C905D2
:1027F000813079F462E082EF96E00E946B0963E039
:1028000080EE96E00E946B0969E08EEC96E00E94F3
:102810006B0981E08093180574ED272E72E0372E46
:10282000C6E2D5E03AEA432E32E0532E4DEB642E59
:1028300042E0742E52EEE52E52E0F52E6FEEC62EDB
:1028400062E0D62E88E696E00E9438071816190630
:10285000ACF488E696E00E94F60690910805883070
:1028600009F46DC28D3009F071C2E92FF0E0E65F26
:10287000FA4F10821092080597FF74C21091C90593
:10288000113009F072C067E082EF96E00E9488087C
:10289000882309F426C610939E0580919C0590918B
:1028A0009D059C01220F331F820F931F209100076B
:1028B0003091010740910007509101072417350717
:1028C000A9F7820F931F9695879596958795909374
:1028D0009D0580939C0567E080EE96E00E94880845
:1028E0008823F1F080919A0590919B059C01220F1D
:1028F000331F820F931F2091EE063091EF06409117
:10290000EE065091EF0624173507A9F7820F931FA3
:10291000969587959695879590939B0580939A05B4
:1029200067E08EEC96E00E9488088823F1F08091A1
:102930009805909199059C01220F331F820F931FD8
:102940002091DC063091DD064091DC065091DD06D9
:1029500024173507A9F7820F931F969587959695AB
:102960008795909399058093980580919E05811194
:10297000BBC50E94B7030091B8061091B90620911B
:10298000BA063091BB06601B710B820B930B6A3F3A
:10299000710581059105A0F010911001612F85E06E
:1029A0000E94E70281E01827109310010E94B703EC
:1029B0006093B8067093B9068093BA069093BB06ED
:1029C00080919705882309F47AC080918F05811141
:1029D0000DC00E94B70360938B0570938C058093A4
:1029E0008D0590938E0581E080938F050E94B7033B
:1029F00000918B0510918C0520918D0530918E05ED
:102A0000601B710B820B930B6A3F71058105910569
:102A100008F455C00E94B70360938B0570938C0532
:102A200080938D0590938E0580919C0590919D05D6
:102A3000009709F470C58C3D25E0920708F059C550
:102A40002091C7053091C8058217930720F4909311
:102A5000C8058093C7052091C5053091C6054091F2
:102A6000C7055091C805240F351F3695279530931B
:102A7000C4052093C3050E94A70A85E594E00E943F
:102A8000D80A8091C7059091C8050E94A70A85E5DC
:102A900094E00E94D80A8091C3059091C4050E94D9
:102AA000A70A85E594E00E94D80A8091C505909117
:102AB000C6050E94A70A88E696E00E948D0C8091C8
:102AC0001E0581110DC00E94B70360931A05709313
:102AD0001B0580931C0590931D0581E080931E05C6
:102AE0000E94B70300911A0510911B0520911C0547
:102AF00030911D05601B710B820B930B653F71407C
:102B00008105910508F406C10E94B70360931A0578
:102B100070931B0580931C0590931D0580911905EA
:102B2000882309F455C00E94A803882331F08091BE
:102B30009C0590919D050E94A70A0E94A8038823E6
:102B400021F085E594E00E94D80A0E94A80388231A
:102B500031F080919A0590919B050E94A70A0E94EE
:102B6000A803882321F085E594E00E94D80A0E94FA
:102B7000A803882331F080919805909199050E94CF
:102B8000A70A0E94A803882321F085E594E00E940B
:102B9000D80A0E94A8038823D9F0809118051F92B3
:102BA0008F9388E393E09F938F931F9284E68F9394
:102BB000DF93CF930E943B1B86E295E00E94D80AE8
:102BC0008DB79EB708960FB6F8949EBF0FBE8DBF07
:102BD00020919C0530919D05109116052115310518
:102BE00009F4CCC48090C7059090C805B12CA12CE5
:102BF00050E040E0281939094A095B09ADE1B0E02D
:102C00000E941E1E2091C5053091C60550E040E08F
:102C1000281939094A095B090E94FF1D2F5F3F4FA0
:102C20004F4F5F4F2093170580911705811719F0BB
:102C300090E00E945207809117058093160584E06A
:102C40000E94BE0220919805309199052115310509
:102C500099F08091C3059091C405885C910928176B
:102C6000390708F08EC410920F0180910F01813056
:102C700009F08BC48093150520919A0530919B052E
:102C80002115310599F08091C3059091C4058853B1
:102C90009F4F8217930708F09AC410920E018091FB
:102CA0000E01813009F097C4809313058CE3A82EA0
:102CB00081E0B82E01E010E094E6992EF5018191B3
:102CC0005F010E94BE02892B01F5B80182E10E94DA
:102CD000C3030E94A8038823C1F01F930F9384E2CB
:102CE00093E09F938F931F929F92DF93CF930E94C5
:102CF0003B1B86E295E00E94D80A8DB79EB70896E6
:102D00000FB6F8949EBF0FBE8DBF0F5F1F4F0730E9
:102D10001105A1F680E090E0892B09F493CD0E9483
:102D2000AB05882309F47ECD0E9400007BCD0E9474
:102D3000A803882309F448CD8EEF91E043CD992371
:102D400009F49CCD91509093080598CD983038F4B3
:102D5000E92FF0E0E65FFA4F80839F5FF4CF109297
:102D600008058CCD80910A05853409F462C2ECF423
:102D70008D3209F498C36CF4882309F456C08B3261
:102D800009F475C360ED72E08AE095E00E942C1BA7
:102D9000A6C0833409F4A8C08434A1F78091190532
:102DA00091E089278093190598C0803509F470C295
:102DB000ACF48834D1F18D3429F78091970591E0F6
:102DC000892780939705882309F42AC10E94A803C4
:102DD000882309F482C087E793E07DC0833509F436
:102DE0005EC1863509F427C1823561F60E94A803C9
:102DF000882321F083E394E00E94D80A10E000E0E9
:102E000060E0C8010E94F11D0F5F1F4F0115F4E043
:102E10001F07B1F782E00E9411040E94A8038823D3
:102E200009F45BC08FE394E056C00E94A803882396
:102E300021F08CE592E00E94D80A0E94A803882322
:102E400021F080E493E00E94D80A0E94A80388231E
:102E500021F087E692E00E94D80A0E94A803882306
:102E600021F084E892E00E94D80A0E94A8038823F7
:102E700021F087E992E00E94D80A0E94A8038823E3
:102E800021F086EB92E00E94D80A0E94A8038823D2
:102E900021F089ED92E00E94D80A0E94A8038823BD
:102EA00021F083EF92E00E94D80A0E94A8038823B1
:102EB00021F08CE093E00E94D80A0E94A8038823A6
:102EC00021F082E293E00E94D80A0E94A80388239E
:102ED00021F087E991E00E94D80A10920B058AE060
:102EE00095E00E94910CCACC0E94A803882321F08F
:102EF0008EE393E00E94D80A8091C905813039F5AC
:102F00000E94A803882319F186E593E09F938F938D
:102F10008DE593E09F938F9384E693E09F938F9347
:102F200082E692E09F938F931F9284E68F93DF93C4
:102F3000CF930E943B1B86E295E00E94D80AEDB732
:102F4000FEB73C960FB6F894FEBF0FBEEDBF809162
:102F5000C905823079F50E94A803882359F1E091D0
:102F6000C905E150FF0BEE0FFF1FEE5BFE4F8181A5
:102F70008F9380818F938DE693E09F938F9384E668
:102F800093E09F938F938EE392E09F938F931F9292
:102F900084E68F93DF93CF930E943B1B86E295E0FC
:102FA0000E94D80A8DB79EB70C960FB6F8949EBFB4
:102FB0000FBE8DBF8091C905833008F48ECF0E946B
:102FC000A803882309F489CFE091C905E150FF0BDC
:102FD000EE0FFF1FEE5BFE4F81818F9380818F93F9
:102FE00084E793E09F938F9384E693E09F938F937E
:102FF00088E192E09F938F931F9284E68F93DF93F3
:10300000CF930E943B1B86E295E00E94D80A8DB7C1
:103010009EB70C960FB6F8949EBF0FBE8DBF5DCFC6
:103020000E94A803882321F081E993E00E94D80A36
:103030000E942B0A52CF80910B058D3309F0A2CE4E
:103040008CE095E00E940E1B8C018FEF800F8E317B
:1030500008F045CF0E94A8035801BB248823C9F07B
:10306000BF92AF928BE193E09F938F931F9284E680
:103070008F93DF93CF930E943B1B86E295E00E94E3
:10308000D80A8DB79EB708960FB6F8949EBF0FBEAC
:103090008DBF0093C205C5010E945207C9CF809120
:1030A0000B058D3309F0BFC080910C05873519F4ED
:1030B0000E94E20ABDCF893479F58EE095E00E9446
:1030C0000E1B8093C9050E94A803882309F4B0CF82
:1030D000E091C905E150FF0BEE0FFF1FEE5BFE4FC5
:1030E00081818F9380818F9388E093E09F938F936A
:1030F0001F9284E68F93DF93CF930E943B1B86E25F
:1031000095E00E94D80A8DB79EB708960FB6F8943E
:103110009EBF0FBE8DBF8CCF813361F580910D05B1
:10312000803209F085CF8EE095E00E940E1B8093DF
:10313000BF050E94A803882309F47ACF8091BF05B8
:103140001F928F93ECEFF2E0FF93EF931F9284E6D0
:103150008F93DF93CF930E943B1B86E295E00E9402
:10316000D80AEDB7FEB738960FB6F894FEBF0FBE7B
:10317000EDBF5ECF823351F580910D05803209F0AD
:1031800057CF8EE095E00E940E1B8093C1050E94F0
:10319000A803882309F44CCF8091C1051F928F9317
:1031A000DF92CF921F9284E68F93DF93CF930E949A
:1031B0003B1B86E295E00E94D80A8DB79EB7089621
:1031C0000FB6F8949EBF0FBE8DBF32CF833309F088
:1031D0002FCF80910D05803209F02ACF8EE095E047
:1031E0000E940E1B8093C0050E94A803882309F447
:1031F0001FCF8091C0051F928F93FF92EF921F9275
:1032000084E68F93DF93CF930E943B1B86E295E089
:103210000E94D80A8DB79EB708960FB6F8949EBF45
:103220000FBE8DBF05CF8F3309F0ACCD0E94280BA8
:1032300054CE8CE095E00E940E1B863008F0A2CDA3
:103240008093CA050E94A803882309F4F1CEE09177
:10325000CA05F0E0EE0FFF1FE05DFE4F81818F9306
:1032600080818F933F922F921F9284E68F93DF93FA
:10327000CF930E943B1B86E295E00E94D80A8DB74F
:103280009EB708960FB6F8949EBF0FBE8DBFD0CEE6
:1032900080910B058F3309F075CD80910905882346
:1032A00009F4E2C00E94A803882321F087E991E095
:1032B0000E94D80A0E94A803882321F08AEA93E09A
:1032C0000E94D80A0E94A803882321F088EC93E08A
:1032D0000E94D80A0E94A803882321F08AEA93E07A
:1032E0000E94D80A82E40E945A070E94A8038823F9
:1032F00011F182E490E00E94A20C880F991FFC015A
:10330000E65DFE4F81818F9380818F937F926F92D4
:103310001F9284E68F93DF93CF930E943B1B86E23C
:1033200095E00E94D80A8DB79EB708960FB6F8941C
:103330009EBF0FBE8DBF83E40E945A070E94A80360
:103340008823D9F083E490E00E94A20C9F938F938E
:103350005F924F921F9284E68F93DF93CF930E94E8
:103360003B1B86E295E00E94D80A8DB79EB708966F
:103370000FB6F8949EBF0FBE8DBF84E40E945A071B
:1033800084E490E00E94A20C0E94A803882311F11B
:10339000E091CA05F0E0EE0FFF1FE05DFE4F818176
:1033A0008F9380818F93E9E9F2E0FF93EF931F926F
:1033B00084E68F93DF93CF930E943B1B86E295E0D8
:1033C0000E94D80AEDB7FEB738960FB6F894FEBF44
:1033D0000FBEEDBF88E40E945A070E94A80388230D
:1033E000E9F088E490E00E94A20C9F938F9387E815
:1033F00092E09F938F931F9284E68F93DF93CF93F6
:103400000E943B1B86E295E00E94D80A8DB79EB7CA
:1034100008960FB6F8949EBF0FBE8DBF8CE40E9435
:103420005A070E94A803882309F457CD8CE490E042
:103430000E94A20C9F938F93E3E7F2E0FF93EF9338
:103440001F9284E68F93DF93CF930E943B1B86E20B
:1034500095E00E94D80AEDB7FEB738960FB6F894FB
:10346000FEBF0FBEEDBF39CD86EE93E034CD0E9496
:10347000A803882321F089EF93E00E94D80A809165
:1034800018058F5F80931805909114059817C8F45C
:10349000909318050E94A803882399F080E094E097
:1034A0000E94D80A0EC00E94A803882321F086E15A
:1034B00094E00E94D80A80911805815041F08093D1
:1034C00018058091180590E00E94560706CD81E00E
:1034D000809318050E94A803882399F38DE194E056
:1034E000DFCF10929E05F7C961E085E00E94E702F8
:1034F00067CA8C3DE5E09E0709F4ADCA2091C50579
:103500003091C6052817390708F0A5CA9093C6055B
:103510008093C505A0CA0E94B70360938B05709382
:103520008C0580938D0590938E050E94A8038823B7
:1035300009F4C5CAE091C905E150FF0BEE0FFF1F6A
:10354000EE5BFE4F81818F9380818F938AE493E0BD
:103550009F938F931F9284E68F93DF93CF930E9464
:103560003B1B86E295E00E94D80A8DB79EB708966D
:103570000FB6F8949EBF0FBE8DBFA1CA109317055A
:1035800053CB81E080930F0170CB811175CB80917B
:103590001505882309F470CB80911805815080931C
:1035A000180581110CC080911405809318050E94A4
:1035B000A803882321F087E594E00E94D80A80912F
:1035C000180590E00E9456071092150555CB81E032
:1035D00080930E0164CB811169CB80911305882300
:1035E00009F464CB809118058F5F80931805909142
:1035F0001405981758F481E0809318050E94A803D9
:10360000882321F08FE694E00E94D80A8091180563
:1036100090E00E9456071092130548CBFC018827C2
:103620009927E89421912032E9F3293010F02E30C7
:10363000C8F32B3241F02D3239F4689404C00E9453
:10364000331B820F911D219120532A30C0F31EF4A9
:10365000909581959F4F0895FB01DC0105900D9297
:103660000020E1F708957AE0979F902D879F802DA5
:10367000910D11240895AEE0B0E0E1E4FBE10C947B
:10368000371E0D891E898F89988D2EE02C831A8311
:10369000098397FF02C080E090E801979E838D83A5
:1036A000AE01455E5F4F698D7A8DCE0101960E9415
:1036B0006B1B4D815E8157FD0AC02F8138854217F3
:1036C00053070CF49A01020F131FF80110822E9673
:1036D000E4E00C94531EABE0B0E0E1E7FBE10C94B6
:1036E000291E7C013B018A01FC011782168283811D
:1036F00081FFC8C1CE0101965C01F7019381F301FE
:1037000093FD859193FF81913F01882309F453C173
:10371000853239F493FD859193FF81913F01853284
:1037200029F4B70190E00E945B1DE7CF912C212C7A
:10373000312CFFE1F31538F08B3211F190F4803227
:1037400009F1833229F137FC3CC020ED280F2A30E3
:1037500050F536FE20C08AE0989E200D1124922E4E
:1037600006C08D3291F0803371F7689430F8F30120
:1037700093FD859193FF81913F018111DACF21C0A3
:10378000689431F8689432F8F2CF689433F8EFCF48
:10379000689434F8ECCFEAE02E9E200D1124222EFE
:1037A000689435F8E4CF8E3229F436FC04C168946D
:1037B00036F8DDCF8C3619F4689437F8D8CF8836D0
:1037C000B1F2982F9F7D95549330E0F08336A1F1AC
:1037D0008337C1F1833509F063C02801F2E04F0E51
:1037E000511CF801C080D180692D70E036FC02C008
:1037F0006FEF7FEFC6010E94451D4C01689437F8BA
:1038000082010AC00C5F1F4FFFE3F9838824839471
:10381000912C6501E89437F833FE2DC0522C8114A9
:10382000910471F5552009F468CFB70180E290E06A
:103830000E945B1D5A94F6CFF801808189830E5F48
:103840001F4FE4CF2801F2E04F0E511CF801C08059
:10385000D180692D70E036FC02C06FEF7FEFC601AA
:103860000E94501D4C018201D5CFB70180E290E04B
:103870000E945B1D2A942814190409F0B0F7CECFDA
:10388000F60137FC859137FE81916F01B70190E019
:103890000E945B1D51105A94F1E08F1A9108BFCF1E
:1038A000843619F0893609F077C0F80137FE6BC00D
:1038B00060817181828193810C5F1F4FF32DFF76B0
:1038C0003F2E97FF09C090958095709561957F4F29
:1038D0008F4F9F4F689437F82AE030E0A5010E948F
:1038E0008B1DC82ECA188C2C432C36FE0CC0E894B5
:1038F00040F8C91440F434FE05C032FC03C0F32D77
:10390000FE7E4F2E892C44FE95C0FE01EC0DF11D6C
:103910008081803309F087C0242D297E422E842D9A
:103920008870582E43FC95C040FE8FC09C2C82149A
:1039300018F42C0C922C981844FE91C0B70180E327
:1039400090E00E945B1D42FE09C088E790E041FEC6
:1039500002C088E590E0B7010E945B1DC91408F41D
:103960008AC0CA94D12C9FEFC91AD90ACA0CDB1C91
:10397000F60182916F01B70190E00E945B1DAC14CB
:10398000BD04B1F74FCF60817181072E000C880B09
:10399000990B0E5F1F4F92CFD32CE894D4F82AE0F6
:1039A00030E0853739F1232D297FD22E8F3601F172
:1039B00048F48835A9F0F701868197812B96E2E1DA
:1039C0000C94451E803749F08837A9F7D4FE02C011
:1039D0006894D2F820E130E00DC06894D4F8F6CFB6
:1039E00034FE03C0822F8660D82E20E132E002C070
:1039F00028E030E0F801D7FE0FC06081718182813C
:103A000093810C5F1F4FA5010E948B1DC82ECA1801
:103A10003D2CE89437F867CF6081718190E080E0B9
:103A20000E5F1F4FF0CF42FC02C0839478CF839487
:103A3000839475CF842D867809F471CFF6CFB701C2
:103A400080E290E00E945B1D83948214C0F3512CAD
:103A500073CF522C5818821408F46ECFF8CF842DEF
:103A6000867809F47BCF8BE241FE80E247FC8DE251
:103A7000B70190E071CFB70180E390E00E945B1D39
:103A80009A946CCF8FEF9FEF99CFFC010590615016
:103A900070400110D8F7809590958E0F9F1F089564
:103AA000FC016150704001900110D8F7809590950D
:103AB0008E0F9F1F08950F931F93CF93DF93182F9F
:103AC000092FEB018B8181FD09C01FEF0FEF812FC3
:103AD000902FDF91CF911F910F91089582FF14C015
:103AE0002E813F818C819D81281739073CF4E88124
:103AF000F981CF0101969983888310838E819F81FC
:103B000001969F838E83E3CFE885F985812F099500
:103B1000892BA1F3DACFFA01AA27283051F12031FD
:103B200081F1E8946F936E7F6E5F7F4F8F4F9F4F51
:103B3000AF4FB1E03ED0B4E03CD0670F781F891F93
:103B40009A1FA11D680F791F8A1F911DA11D6A0F61
:103B5000711D811D911DA11D20D009F468943F9114
:103B60002AE0269F11243019305D3193DEF6CF0113
:103B70000895462F4770405D4193B3E00FD0C9F7D9
:103B8000F6CF462F4F70405D4A3318F0495D31FD46
:103B90004052419302D0A9F7EACFB4E0A695979599
:103BA000879577956795BA95C9F70097610571056F
:103BB00008959B01AC010A2E0694579547953795B9
:103BC0002795BA95C9F7620F731F841F951FA01D13
:103BD0000895F999FECF92BD81BDF89A992780B5D5
:103BE0000895262FF999FECF1FBA92BD81BD20BD41
:103BF0000FB6F894FA9AF99A0FBE01960895052E19
:103C000097FB1EF400940E94161E57FD07D00E94D9
:103C1000601E07FC03D04EF40C94161E5095409580
:103C2000309521953F4F4F4F5F4F08959095809568
:103C3000709561957F4F8F4F9F4F08950E94821E10
:103C4000A59F900DB49F900DA49F800D911D1124F0
:103C500008952F923F924F925F926F927F928F9230
:103C60009F92AF92BF92CF92DF92EF92FF920F930B
:103C70001F93CF93DF93CDB7DEB7CA1BDB0B0FB615
:103C8000F894DEBF0FBECDBF09942A8839884888D2
:103C90005F846E847D848C849B84AA84B984C88468
:103CA000DF80EE80FD800C811B81AA81B981CE0F5F
:103CB000D11D0FB6F894DEBF0FBECDBFED01089544
:103CC000A1E21A2EAA1BBB1BFD010DC0AA1FBB1F20
:103CD000EE1FFF1FA217B307E407F50720F0A21B92
:103CE000B30BE40BF50B661F771F881F991F1A94FF
:103CF00069F760957095809590959B01AC01BD0129
:103D0000CF010895A29FB001B39FC001A39F700D82
:103D1000811D1124911DB29F700D811D1124911DD3
:103D20000895EE0FFF1F0590F491E02D0994F8948B
:023D3000FFCFC3
:103D3200FFFFFFFF570457045704570457040101BC
:103D4200017EFF06000000000000EF00E10000001D
:103D520000000000C18081000000810489049104F8
:103D620098049F04A304A804AD04B5041213141507
:103D72000F0EBA046F03BE04C304C804CD04D204F8
:103D820000000000E00541056E052C069F057D053B
:103D9200910500000000D1064C06F206E70638073E
:103DA200F606140700000000B1087F087E082A20EA
:103DB2006F4F20454550524F4D2053657474696EC4
:103DC2006773204F6F202A0D0A000D0A496E69742D
:103DD20069616C697A696E67204446506C617965E5
:103DE20072202E2E2E0D0A002A2A2A2A2A2A2A2A4E
:103DF2002A2A2A2A2A2A2A2A002A20536F756E641E
:103E0200204D6F64756C65202A002E00202A2A2A14
:103E12002A2A004446506C61796572204D696E69A8
:103E2200206973206F6E6C696E652E0D0A00444620
:103E3200506C61796572204D696E69206973206FDB
:103E420066666C696E652E0D0A006F4F20555345EC
:103E5200204352204F4E20594F5552205445524D27
:103E6200494E414C204F6F0D0A0048697420456E3F
:103E7200746572206F722048202B20456E74657223
:103E820020666F722048656C700D0A000D0A48208A
:103E920048656C700D0A00533D572057726974656E
:103EA2002044656661756C742053657474696E672D
:103EB200730D0A00533F2052656164205365747488
:103EC200696E67730D0A00563D5820583D312074C3
:103ED2006F2033302044656661756C7420566F6CB8
:103EE200756D650D0A004D204D6178692F43656E31
:103EF2007472652F4D696E69204368616E6E656CE0
:103F020020696E2075530D0A00503F20526561648E
:103F1200204446506C6179657220636F6E666967F2
:103F22000D0A002B204F52202D204E6578742F5001
:103F320072657620536F756E640D0A0044204465E5
:103F4200627567206D6F6465204F4E2F4F46460D98
:103F52000A005220457261736520616C6C20636FA8
:103F62006E66696775726174696F6E0D0A000D0A7B
:103F72004320426F61726420436F6E6E65637469A1
:103F82006F6E730D0A00433A4E45585400423A5040
:103F920052455600413A564F4C554D4500423A4320
:103FA20050504D00443A005374617274204D696E52
:103FB20069204D617869207365617263683A0D0A00
:103FC2000053746F70204D696E69204D61786920CD
:103FD2007365617263683A0D0A002A2A2A2A2A2A1C
:103FE2002A2A2A2A2A2A2A2A2A2A2A2A2A2A2A2A2F
:103FF2002A2A2A2A2A0D0A002A206F4F20444650D4
:104002006C617965722053657474696E6773204FB1
:104012006F202A0D0A004446506C61796572206E49
:104022006F7420666F756E64004E4558540D0A0019
:10403200536F6E206D6178696D756D206174746562
:10404200696E74202100505245560D0A00536F6E5E
:10405200206D696E696D756D2061747465696E7429
:104062002021000D0A576169742E2E2E0D0A000DB3
:104072000A526573657420454550524F4D20446F76
:104082006E650D0A0009005265746F7572206175C4
:10409200206465726E69657220736F6E2021005212
:1040A20065746F757220617520736F6E20312021E7
:1040B2000053746F7070656400506C6179696E674B
:1040C20000506175736564004E4F524D414C005073
:1040D2004F5000524F434B004A415A5A00434C4101
:1040E2005353494300424153530050574D005342EA
:1040F200555300494255530053554D44004A4554C7
:0841020049005352584C000023
:00000001FF
