:100000000C94B3020C9479130C9452130C942B138C
:100010000C9404130C94DB020C94DB020C94DD12A0
:100020000C94DB020C9499160C94A0130C940F14EE
:100030000C94DB020C94DB020C94DB020C94DB02CC
:100040000C94DB020C94DB020C94DB020C94DB02BC
:100050000C94DB020C94DB020C94DB020C949312E4
:100060000C94DB020C9467160C9441160C94DB0282
:100070000C94DB020C94DB020C94DB020C94DB028C
:100080000C94DB020C94DB020C94DB020C94DB027C
:100090000C94DB020C94DB020C94DB020C94DB026C
:1000A0000C94DB020C94DB020C94DB024D696E694C
:1000B00043683A2020202025640D0A0043656E74B1
:1000C000657243683A202025640D0A004D61786905
:1000D00043683A2020202025640D0A00506C617985
:1000E0002053616D653A2025640D0A00506C6179DA
:1000F0002053746F703A2025640D0A004E657874A1
:100100003A20202020202025640D0A0050726576B8
:100110003A20202020202025640D0A00566F6C43D1
:10012000683A202020202025640D0A00566F6C3A82
:100130002020202020202025640D0A004551204D3C
:100140006F64653A202025730D0A0058616E79208E
:100150006973204F464620210D0A0058616E7920B0
:10016000757365204368616E6E656C202564207C24
:100170002025730044656661756C74732056616C4C
:1001800075652053617665640D0A002E002E005DB2
:100190003A2030780052785B006D70335F7265638F
:1001A000765F636D64206F7574004572726F7220A4
:1001B000726573706F6E7365207769746820636F02
:1001C000646520006D70335F726563765F636D6494
:1001D00020696E207769746820657870656374653E
:1001E0006420636D6420307800080B000202020076
:1001F00000090400000102020000052400100105AE
:1002000024010101042402060524060001070581DA
:100210000310004009040100020A00000007050263
:100220000240000007058302400000040309041295
:10023000010002EF0201404F1B0692000101020380
:1002400001537061726B46756E00537061726B463C
:10025000756E2050726F204D6963726F0000C2018D
:100260000000000E000E000C0000E100000500225E
:100270000022002000009600000F003600360034F7
:1002800000127A0000170043004300410080700014
:10029000001A004A004A004800004B00002C007180
:1002A0000071007000403800004A009C00990099DD
:1002B00000802500007200EA00EA00E900C0120098
:1002C00000E900DA01DA01D70160090000D701ACCA
:1002D00003AC03B103B0040000B3036E076E0767FD
:1002E000072C010000DC0EC11DC11DBE1D202A2AE5
:1002F0002A2A2A002E002A2A2A2A2A2056002A20C0
:10030000536F756E64204D6F64756C65202A002AEA
:100310002A2A2A2A2A2A2A2A2A2A2A2A2A2A2A0067
:1003200043757272656E7420736F756E643A202522
:10033000640D0A0046696C657320666F756E643AD9
:100340002025640D0A00457175616C697A65723A01
:10035000202025730D0A00566F6C756D65202020D6
:100360002020203A2025640D0A0053746174652012
:100370002020202020203A2025640D0A00455252DA
:100380000058414E5920757365204368616E6E6553
:100390006C2025640D0A004446506C61796572201A
:1003A0006E6F7420666F756E64004551204D6F64EA
:1003B000653A2025730D0A00506C617950617573A0
:1003C0006543683A2025640D0A00507265764368DB
:1003D0003A2025640D0A004E65787443683A20255A
:1003E000640D0A00566F6C43683A2025640D0A00BC
:1003F000496E707574204D6F646520697320257394
:100400000D0A00566F6C3A25640D0A00E4031C04C3
:100410001C04540454048C048C04C404C404FC045C
:10042000FC04340534056C056C05A405A405DC0545
:10043000DC05140614064C064C0684068406BC062D
:10044000BC06F406F4062C072C07640764079C0717
:100450009C07D407582D416E79204661696C736101
:10046000666521202D3E204F757470757473203D94
:100470002030002058616E79207175616C69747943
:10048000203D20256400202852784E6962626C6508
:100490004C656E203D256400204578704E6962628F
:1004A0006C654C656E3D25640050726F703D202573
:1004B000642000416C61726D3A2025642073746180
:1004C0007274656420210D0A00536F756E644E7559
:1004D0006D6265723A2025640D0A00000000002458
:1004E0000027002A002D0030000000000200090F44
:1004F0000000030401000C000000000000000000E8
:100500000000000000000000000000250028002B73
:10051000002E003100000000002300260029002CDE
:10052000002F000404040404030405020202020470
:10053000030202020206060606060604040202027E
:1005400004040408020110408040102040804080D4
:100550000802040180402010020110801020404059
:100560002000DF16782A11241FBECFEFDAE0DEBFAD
:10057000CDBF16E0A0E0B1E0E0EFFCE502C00590E1
:100580000D92AE31B107D9F729E0AEE1B6E001C076
:100590001D92AE35B207E1F712E0C2EBD2E004C023
:1005A0002197FE010E94512EC13BD107C9F70E943D
:1005B0002D180C946B2E0C9400008F929F92AF928A
:1005C000BF92FF920F931F93CF93DF934B015C0178
:1005D000F42ECCE8D7E0E889F98982E08083EC85C5
:1005E000FD8510820E851F8560E079E08DE390E047
:1005F000A50194010E940C2E215031094109510995
:100600005695479537952795F8012083188EEC89E4
:10061000FD89F082EA89FB89808180618083EA8993
:10062000FB89808188608083EA89FB89808180687A
:100630008083EA89FB8980818F7D8083DF91CF91E0
:100640001F910F91FF90BF90AF909F908F90089552
:10065000FC0180918207882311F13FB7F89482E072
:100660008093E9002091F200822F90E0181619067D
:1006700014F481E090E0882339F0289844E6409310
:1006800081074091F1004083222339F02091F2004C
:10069000211103C02BE62093E8003FBF08958FEFA0
:1006A0009FEF08952FB7F89483E08093E90090912D
:1006B000E800892F807295FF04C09091F20080E4D9
:1006C000891B2FBF08958091790781110DC082E0A9
:1006D0008093750784E080937607109278071092D4
:1006E000770781E08093790785E797E00895815047
:1006F0008F3008F047C0E82FF0E0EF57FC4F0C9424
:10070000512E9E03A203900396039A03C203C203D1
:10071000C203A503AB03AF03B303B903C203BD0315
:10072000809180008F778093800008958091800071
:100730008F7DF9CF80918000877FF5CF84B58F774B
:1007400084BD089584B58F7DFBCF809190008F7715
:10075000809390000895809190008F7DF9CF8091D3
:100760009000877FF5CF8091C0008F778093C00085
:1007700008958091C0008F7DF9CF8091C200877F5E
:100780008093C2000895CF93DF93282F30E0F901C2
:10079000E751FB4F8491F901EE5BFA4FD491F901D7
:1007A000ED5DFA4FC491CC23A1F081110E94770333
:1007B000EC2FF0E0EE0FFF1FEB5EFA4FA591B49126
:1007C000EC91ED2381E090E009F480E0DF91CF919E
:1007D000089580E090E0FACF1F93CF93DF93282F06
:1007E00030E0F901E751FB4F8491F901EE5BFA4FDC
:1007F000D491F901ED5DFA4FC491CC23A9F0162FE5
:1008000081110E947703EC2FF0E0EE0FFF1FE95FEC
:10081000FA4FA591B4918FB7F894EC91111108C0DB
:10082000D095DE23DC938FBFDF91CF911F91089588
:10083000DE2BF8CFCF93DF9390E0FC01EE5BFA4F15
:1008400024918D5D9A4FFC0184918823C9F090E03A
:10085000880F991FFC01E552FB4FA591B491FC0153
:10086000E95FFA4FC591D49161110DC09FB7F8941B
:100870008C91209582238C938881282328839FBF85
:10088000DF91CF910895623051F49FB7F8943C9175
:10089000822F809583238C93E8812E2BEFCF8FB707
:1008A000F894EC912E2B2C938FBFEACF3FB7F8949E
:1008B0008091710790917207A0917307B0917407AE
:1008C00026B5A89B05C02F3F19F00196A11DB11DAB
:1008D0003FBFBA2FA92F982F8827BC01CD01620FE7
:1008E000711D811D911D42E0660F771F881F991FA2
:1008F0004A95D1F708958F929F92AF92BF92CF926F
:10090000DF92EF92FF924B015C010E9456046B0153
:100910007C010E9456046C197D098E099F09683E6E
:10092000734081059105A8F321E0821A9108A1087E
:10093000B10888EEC80E83E0D81EE11CF11C8114BA
:100940009104A104B10429F7FF90EF90DF90CF90BC
:10095000BF90AF909F908F900895CF93C091230147
:100960006AE070E080E090E00E947B0481E0C111C9
:1009700001C080E0CF9108952FB7F89460916D0782
:1009800070916E0780916F07909170072FBF089547
:10099000CF93DF9380931501109217016093180194
:1009A0002091130190911401290F3327331F820FD7
:1009B000932F911D20911601820F911D680F791FB1
:1009C0007195619571097093190160931A01809175
:1009D0008A0790918B07DC01ED91FC910084F185F1
:1009E000E02D0995892B61F080918A0790918B0702
:1009F000DC01ED91FC910284F385E02D0995E7CFB0
:100A0000C2E1D1E080918A0790918B076991DC0166
:100A1000ED91FC910190F081E02D0995B1E0CC3190
:100A2000DB0781F7DF91CF910C94BC04CF92DF926A
:100A3000EF92FF921F93CF93DF93D82FC0E011E086
:100A4000C0908607D0908707E0908807F0908907CC
:100A500080911101882311F10E94BC046C197D0959
:100A60008E099F09683E73408105910560F01092E0
:100A700011010E94BC0460938607709387078093DE
:100A8000880790938907CF5FDC13DACFDF91CF918E
:100A90001F91FF90EF90DF90CF9008950E94BC04CB
:100AA0006C197D098E099F09643F7140810591058C
:100AB00050F310931101DDCF862720E1829FB00112
:100AC00011248627482F50E0292F382FCA0164E0CF
:100AD000959587956A95E1F728273927CA0173E02C
:100AE000880F991F7A95E1F7822793270895089533
:100AF00040917306509174062091710630917206F0
:100B000042175307B4F49091E8009570E1F3909187
:100B1000E80092FD19C08093F100809173069091D6
:100B2000740601968F739927892B19F48EEF8093A1
:100B3000E800809173069091740601969093740674
:100B40008093730681E0089580E00895EF92FF920C
:100B50000F931F93CF93DF93F82E192FE62E042FB8
:100B600081E0860F880F0E94780583E00E94780557
:100B7000CF2DD12FEC0EFD2EF11CCE15DF05B9F0D7
:100B800007FF13C0FE0184910E947805182F80E0B2
:100B90000E947805812321968111EFCFDF91CF91BB
:100BA0001F910F91FF90EF9008958881EDCF81E024
:100BB000F5CFDF92EF92FF920F931F93CF93DF93C6
:100BC000D82E8A01EB017B01E40EF51ECE15DF0560
:100BD00059F0D7FE12C0FE0184910E94780521963B
:100BE0008111F4CF0FEF1FEFC801DF91CF911F915B
:100BF0000F91FF90EF90DF9008958881EECF0F93D3
:100C00001F93CF93DF931F92CDB7DEB782E0898326
:100C100042E450E069EE71E080E80E94D9050E944C
:100C20006303DC0112960D911C910115110589F0E9
:100C3000D801ED91FC910280F381E02DBE016F5F40
:100C40007F4FC801099597FD04C0F8010085118503
:100C5000ECCF89810F90DF91CF911F910F91089573
:100C6000615030F02091F100FC0120830196F8CF13
:100C7000289884E6809381070895EF92FF920F935E
:100C80001F93CF93DF938C017B01D0E0C0E0F7018D
:100C9000EC0FFD1F6491662361F0D801ED91FC918A
:100CA0000190F081E02DC8010995892B11F0219662
:100CB000EECFCE01DF91CF911F910F91FF90EF907A
:100CC0000895AF92BF92CF92DF92EF92FF920F936F
:100CD0001F93CF93DF936C017B018B01040F151FD2
:100CE000EB015E01AE18BF08C017D10759F069913A
:100CF000D601ED91FC910190F081E02DC60109959E
:100D0000892B79F7C501DF91CF911F910F91FF904A
:100D1000EF90DF90CF90BF90AF900895FC01538D7E
:100D2000448D252F30E0842F90E0821B930B5417C5
:100D300010F0CF96089501970895FC01918D828D52
:100D4000981761F0A28DAE0FBF2FB11D5D968C91EB
:100D5000928D9F5F9F73928F90E008958FEF9FEF2A
:100D60000895FC01918D828D981731F0828DE80FE6
:100D7000F11D858D90E008958FEF9FEF0895FC01A0
:100D8000918D228D892F90E0805C9F4F821B91096D
:100D90008F73992708958CE897E00E94BF0621E0A1
:100DA000892B09F420E0822F089580E090E0892BC0
:100DB00029F00E94CB0681110C9400000895FC01DB
:100DC000A48DA80FB92FB11DA35ABF4F2C91848DAC
:100DD00090E001968F739927848FA689B7892C9309
:100DE000A089B1898C9182748C93938D848D981392
:100DF00006C00288F389E02D80818F7D808308956D
:100E0000EF92FF920F931F93CF93DF93EC0181E05A
:100E1000888F9B8D8C8D981319C0E889F989808102
:100E200085FF14C09FB7F894EE89FF896083E88935
:100E3000F9898081827480839FBF81E090E0DF9197
:100E4000CF911F910F91FF90EF900895F62E0B8D8B
:100E500010E00F5F1F4F0F731127E02E8C8D8E1146
:100E60000CC00FB607FCFACFE889F989808185FFAD
:100E7000F5CFCE010E94DF06F1CFEB8DEC0FFD2FF9
:100E8000F11DE35AFF4FF0829FB7F8940B8FEA8968
:100E9000FB8980818062CFCFCF93DF93EC01888D77
:100EA0008823B9F0AA89BB89E889F9898C9185FDE5
:100EB00003C0808186FD0DC00FB607FCF7CF8C9173
:100EC00085FFF2CF808185FFEDCFCE010E94DF0646
:100ED000E9CFDF91CF9108958F929F92AF92BF9209
:100EE000CF92DF92EF92FF920F931F93CF93DF93F6
:100EF0006C017B018A0180912301882309F45CC085
:100F000080918207882309F457C08091770680FF7B
:100F100005C08091E00082608093E000E801B12C80
:100F20008AEFA82E93E0892E2AE3922E209711F4BF
:100F3000BB20D9F10E94520381110AC0AA94AA20B1
:100F4000D9F161E070E080E090E00E947B04EECF98
:100F50008C171D0611F00CF08C2F9FB7F89480921F
:100F6000E9002091E80025FD02C09FBFDFCF282FB8
:100F700030E0C21BD30BF701815020F04191409328
:100F8000F100FACFE20EF31EBB2021F09092E800B0
:100F9000B12CEBCF8091E80085FDE7CF9092E8007F
:100FA000BB24B394209709F3F3CF5D9884E6809334
:100FB0007606101611063CF081E090E0F60193836E
:100FC000828310E000E0C801DF91CF911F910F9163
:100FD000FF90EF90DF90CF90BF90AF909F908F9059
:100FE0000895CF93DF931F92CDB7DEB76983DC01FD
:100FF000ED91FC910280F381E02D41E050E0BE01D3
:101000006F5F7F4F09950F90DF91CF91089583E037
:101010008093E9008091F200882319F08AE380939D
:10102000E80008950E94520390E00895CF93DF9363
:101030001F92CDB7DEB7FC018485958597FD08C06A
:101040002FEF3FEF358724870F90DF91CF910895E1
:10105000CE0101960E942803019719F4898190E03E
:10106000F3CF8FEF9FEFF0CF0F931F93CF93DF93CB
:101070001F92CDB7DEB78C01FC018485958597FF63
:101080000BC0CE0101960E942803019771F489815B
:1010900090E0F80195878487F801848595850F9005
:1010A000DF91CF911F910F9108958FEF9FEFF1CFB7
:1010B000FC018485958597FD0BC09FB7F89482E06D
:1010C0008093E9008091F2009FBF90E0019608951F
:1010D0009FB7F89482E08093E9008091F2009FBF6F
:1010E00090E00895DC015196ED91FC91529790812A
:1010F00050968C91809589238083089520917B065A
:1011000030917C062817390781F4909179068091F7
:101110007A06981751F0E0917906F0E0EF5CF94F0C
:101120008081082E000C990B08958FEF9FEF089592
:1011300020917B0630917C062817390739F48FB748
:10114000F89410927A06109279068FBF0895209134
:101150007B0630917C062817390771F480917A0656
:101160002091790690E0805C9F4F821B910960E49A
:1011700070E00E943D2E089590E080E00895209157
:101180007B0630917C0628173907B9F490917906CF
:1011900080917A06981789F0E0917906F0E0EF5C8B
:1011A000F94F80812091790630E02F5F3F4F2F73F8
:1011B00033272093790690E008958FEF9FEF0895ED
:1011C00020E001972FEF8F3F9207D9F70895EF9214
:1011D000FF920F931F93CF93DF93C0917B06D09123
:1011E0007C06209749F0EE85FF859D858B8D81FFDC
:1011F0000AC08081892351F4DF91CF911F910F9113
:10120000FF90EF90089580818923B1F78B899C89A5
:101210000E94E00888E0E82EF12C10E001E08D89C2
:101220009E890E94E008EE85FF8580819D85892347
:1012300039F1102B000F81E0E81AF10881F78F894E
:10124000988D0E94E0088B8D81FD109580917A0623
:101250002091790690E001968F7399272817190637
:1012600099F0E0917A06F0E0EF5CF94F10838091FD
:101270007A0690E001968F73992780937A06BCCF07
:10128000802F80951823D6CF8B8D81608B8FB4CF24
:1012900090E080E00895BC0186E00C94C804BC0195
:1012A00083E00C94C80470E060E00C94C8048F9252
:1012B0009F92AF92BF92CF92DF92EF92FF926C011A
:1012C0000E94BC044B015C01F12CE12C0E94BC0487
:1012D000681979098A099B096C157D058E059F059A
:1012E00040F4E0917F06F0918006309779F30995FC
:1012F000EDCFFF90EF90DF90CF90BF90AF909F9099
:101300008F900895962728E0AC01880F991F57FF0A
:1013100004C031E2832730E193272150A9F70895D3
:101320000895FC01E55BFF4F9081492F50E0062EA8
:1013300002C0559547950A94E2F7DA01A170BB27E0
:1013400040FF09C021E030E001C0220F6A95EAF7B2
:101350002095292320838A2F08956150603140F51C
:10136000FC0124812F7059F0253010F570E0660FD4
:10137000771F680F791FFB0181A592A5089570E082
:10138000660F771F680F791FFB0121A532A5A0E02A
:10139000B5E00E942E2E2FEF37E040E050E00E9493
:1013A000AB2DDA01C90180599C4FAF4FBF4F089553
:1013B0008CED95E008950C94AD09BF92CF92DF9229
:1013C000EF92FF920F931F93CF93DF930E945604E7
:1013D0006B017C01C0918407D0918507BB24BA942E
:1013E00001E010E0209709F458C08D818370D1F599
:1013F00020919E06422F50E08C81843048F488234F
:10140000C1F1813099F18230B9F522E030E01AC0A3
:1014100098EF980F682F6450770B943058F08E3007
:1014200029F18F3091F3803121F1813129F1682F39
:101430006651770B9B01B80102C0660F771F2A9592
:10144000E2F79B0124233523232B61F00E94C30381
:101450009D8192FB992790F9981789F0CA86DB86BF
:10146000EC86FD860A80DB81C02DBCCF28E030E011
:10147000E9CF24E030E0E6CF21E030E0E3CF8A8519
:101480009B85AC85BD859601281B390B3F872E8730
:10149000B88A0E94BC04698BE5CFDF91CF911F9180
:1014A0000F91FF90EF90DF90CF90BF900895BF9283
:1014B000CF92DF92EF92FF920F931F93CF93DF9320
:1014C0000E9456046B017C01C0918407D09185076E
:1014D00001E010E0BB24BA94209709F459C08D8133
:1014E00083708130D1F52091AA06422F50E08C8183
:1014F000843048F48823C1F1813099F18230B9F504
:1015000022E030E01AC098EF980F682F6450770BF4
:10151000943058F08E3029F18F3091F3803121F1E1
:10152000813129F1682F6651770B9B01B80102C008
:10153000660F771F2A95E2F79B0124233523232B7F
:1015400061F00E94C3039D8192FB992790F998173F
:1015500089F0CA86DB86EC86FD860A80DB81C02D99
:10156000BBCF28E030E0E9CF24E030E0E6CF21E057
:1015700030E0E3CF8A859B85AC85BD859601281B2D
:10158000390B3F872E87B88A0E94BC04698BE5CF50
:10159000DF91CF911F910F91FF90EF90DF90CF904F
:1015A000BF900895FC01868597852685378582172B
:1015B0009307C9F70895FC01808990E0062E02C0C8
:1015C000959587950A94E2F780FF1CC0208981E0F9
:1015D00090E001C0880F6A95EAF780958223808B9E
:1015E000268537858685978528173907C9F7868127
:1015F00097812817390730F081E0408551854217DF
:10160000530708F480E008950C94DB0AE091AD06DE
:101610003CE0E39FF0011124EB56F94F21858091C6
:101620008106843008F059C080918106882309F42E
:1016300086C080918106813009F47BC0809181064B
:10164000823009F479C080918106833009F47AC030
:1016500080918106873009F469C090E080E0E091D4
:10166000AD064CE0E49FF0011124EB56F94F3385B1
:10167000232330E082239323892B09F483C00E9423
:1016800056042091230630912406AB01421B530BD4
:101690009A017093240660932306283B5BE035078C
:1016A00008F45EC0209182062093C706109282063D
:1016B0002FEF2093C80630912206209122062E7F1C
:1016C00030FF2160209322062091220620FF3DC09A
:1016D00070932106609320060895809181068830DA
:1016E00080F0809181068C3060F4409181064450F6
:1016F000550B81E090E002C0880F991F4A95E2F7F0
:10170000AECF809181068E30A1F0809181068F301E
:1017100099F080918106803191F08091810681312C
:1017200089F0409181064651550BE3CF80E190E06E
:1017300096CF88E090E093CF82E090E090CF84E075
:1017400090E08DCF81E090E08ACF2091200630910B
:101750002106621B730B70931F0660931E0608958B
:1017600080918206893070F4E0918206F0E0EE0FFD
:10177000FF1FED57F94F31832083809182068F5FE1
:101780008093820608952091C80630E0062E02C09C
:10179000359527950A94E2F7C9018170992720FFB2
:1017A0000CC04091C80621E030E001C0220F6A95CC
:1017B000EAF7209524232093C8060895882399F0FA
:1017C0009091C706981778F08150E82FF0E0EE0F5F
:1017D000FF1FED57F94F8081918120813181821760
:1017E0009307C9F708958CED95E00895862F0C9422
:1017F000DE0B89B18F70E5E9F6E0878B86899789E2
:101800008927858B8789868B0288F389E02D099447
:1018100089B18F70E5E9F6E0878B868997898927FA
:10182000858B8789868B0088F189E02D099489B1A1
:101830008F70E5E9F6E0878B868997898927858B04
:101840008789868B0684F785E02D099489B18F708E
:10185000E5E9F6E0878B868997898927858B8789D3
:10186000868B0484F585E02D0994843088F49DB33B
:10187000882341F0813041F0823041F081E0892BB2
:101880008DBB089584E0FBCF88E0F9CF82E0F7CFED
:1018900028EF280F243040F092EF980F943020F07A
:1018A00096EE980F9330D0F590916800243050F068
:1018B00032EF380F343030F036EE380FF0E0E0E041
:1018C000333010F4E8E6F0E091609083243050F07B
:1018D00092EF980F943030F096EE980FF0E0E0E041
:1018E000933010F4EBE6F0E030812430C0F491E066
:1018F000682F6450770B01C0990F6A95EAF7932B14
:10190000243048F022EF280F243028F08A51F0E0EC
:10191000E0E0833010F4EBE6F0E09083089598E087
:101920008E3069F392E08F3051F394E0803139F3D7
:1019300091E0813121F3682F6651770BDCCFCF9393
:10194000DF93982F28EF280F81E0243008F480E0FF
:10195000282F30E09430A0F59230D1F49CE0929F93
:10196000F001939FF00D1124EB56F94F73836283BE
:1019700027E13CE030930701209306019091690034
:10198000937F946090936900E99ADF91CF910895D5
:101990009CE0929FF001939FF00D1124EB56F94FBC
:1019A0007183608326E23CE03093050120930401BB
:1019B000909169009C7F916090936900E89AE5CFCF
:1019C00050E040E096E0929FE001939FD00D1124FB
:1019D000DE01A40FB51FAA0FBB1FAB56B94FED9187
:1019E000FC91E617F70789F24F5F5F4F44305105CE
:1019F00079F79CE0929FD001939FB00D1124AB56D4
:101A0000B94F18969C911897943010F08FEFBDCF76
:101A10001896EC911897EC0FFD2FF11DEE0FFF1F9C
:101A2000EB56F94F7183608318969C9118979F5FCE
:101A300018969C93AACF1F93CF93DF93EC01162F98
:101A400098EF960F8D818C7F943088F181608D8323
:101A500067E57AE0812F0E949F0C982F93708D810B
:101A60008C7F892B8D831C8388E592E09F838E83F6
:101A700080E699E09987888780918407909185070F
:101A80009B838A83D0938507C093840760E0812F6E
:101A90000E941A0461E08C810E94EC038C810E94F8
:101AA000350C8D818370DF91CF911F9108958D83C7
:101AB0006DED79E0CFCFDF92EF92FF920F931F93FE
:101AC000CF93DF93EC01898D9A8D892B71F481E09E
:101AD00090E09B838A8390E080E0DF91CF911F911B
:101AE0000F91FF90EF90DF900895162FDFB6F894D6
:101AF0008B8D81FD28C0CE010E947208898D9A8D40
:101B00000E94E0088B8D98E0E92EF12C01E081FF26
:101B100028C0812F8023F1F0CE010E947208898DA8
:101B20009A8D0E94E008000F81E0E81AF10889F719
:101B3000CE010E947208DFBE898D9A8D0E94E00856
:101B400081E090E0CACFE989FA8980819889892B60
:101B50008083D4CFE989FA8980819889892B808311
:101B6000DECF812F8023B1F0E989FA8980819889BD
:101B7000892B8083898D9A8D0E94E008000F81E077
:101B8000E81AF10871F7E989FA8980819889892B27
:101B90008083D1CFCE010E947208ECCF0F931F93A8
:101BA000CF93DF9301ED18E0D0E0C0E0CE010E94BA
:101BB000952DF80181938F012196C131D105B1F79F
:101BC00081ED98E0DF91CF911F910F910895FF92E1
:101BD0000F931F93CF93DF9301ED18E0D0E0C0E0A7
:101BE000F801F1908F01CE010E94952DF81621F099
:101BF0006F2DCE010E949D2D2196C131D10581F717
:101C000081ED98E0DF91CF911F910F91FF900895A2
:101C1000FB0101900020E9F73197AF01461B570BFC
:101C2000DC01ED91FC910280F381E02D09948F920B
:101C30009F92AF92BF92EF92FF920F931F93CF9319
:101C4000DF93CDB7DEB7A1970FB6F894DEBF0FBE16
:101C5000CDBF7C01FA01CB0119A2223008F42AE0A1
:101C60008E010F5D1F4F822E912CB12CA12CBF0134
:101C7000A50194010E940C2EF901CA016A300CF5ED
:101C8000605DD8016E938D01232B242B252B79F7D2
:101C900090E080E0109721F0BD01C7010E94080E7E
:101CA000A1960FB6F894DEBF0FBECDBFDF91CF91E6
:101CB0001F910F91FF90EF90BF90AF909F908F90EA
:101CC0000895695CDECFAC0170E060E02AE089E253
:101CD00098E00C94170ECF92DF92EF92FF920F9341
:101CE0001F93CF93DF936B01770FEE08FF084A3005
:101CF000510511F52AE0F7FE20C0EC01E881F981D9
:101D00000190F081E02D6DE209958C014427552763
:101D1000BA014C195D096E097F092AE0CE010E94C3
:101D2000170E800F911FDF91CF911F910F91FF90A0
:101D3000EF90DF90CF900895242FB701A601DF9197
:101D4000CF911F910F91FF90EF90DF90CF900C9467
:101D5000170E009729F0BC0189E298E00C94080E58
:101D600090E080E008959FEF980F923078F08430F3
:101D7000B1F08830B9F08031C1F08032C9F08034E0
:101D8000D1F08038D9F488E090E004C0823021F0AE
:101D900081E090E00C944F0982E090E0FBCF83E07B
:101DA00090E0F8CF84E090E0F5CF85E090E0F2CFCE
:101DB00086E090E0EFCF87E090E0ECCF811103C0A8
:101DC0008EE00C94530980918307882341F00E9490
:101DD000AD04882321F085EA91E00C94A90E0895C2
:101DE000DF92EF92FF920F931F93CF93DF938C01BB
:101DF000D62ED42F7C01C0E0CD1579F0CC2331F064
:101E00006DE871E089E298E00E943D06F70181915A
:101E10007F010E94B30ECF5FEFCFDD23A9F0CC236B
:101E200031F06BE871E089E298E00E943D06C00F56
:101E3000D12FD11D8881DF91CF911F910F91FF90FC
:101E4000EF90DF900C94B30EDF91CF911F910F9123
:101E5000FF90EF90DF90089589E98093D10885E0A5
:101E60008093D20886E08093D40887E08093D308DB
:101E700088E08093D50889E08093D6088AE0809333
:101E8000D7088CED95E09093D9088093D80888EE18
:101E900093E09093DD088093DC0880ED97E09093C9
:101EA000DB088093DA0881E08093DE081092DF0877
:101EB0008093E0081092E10883E00E9416050E94DA
:101EC000AD048823B9F084E791E09F938F931F922C
:101ED00084E68F938CEE96E09F938F930E94E72A7F
:101EE0008CEE96E00E94A90E0F900F900F900F902D
:101EF0000F900F900C94E70D0E94CE0D8091D108A9
:101F0000893949F00E942C0F64EF71E080E090E085
:101F10000E947B04F1CF0E94AD04882321F083EC62
:101F200091E00E94A90E0E94AD04882321F081EB6C
:101F300094E00E94A90E0E94AD04882321F086EC53
:101F400091E00E94A90E0E94AD04882321F081EB4C
:101F500094E00E94A90E0E94AD04882361F0E091F4
:101F6000DE08E150FF0BEE0FFF1FE35CFE4F8081A8
:101F700091810E94A90E0E94AD04882321F083EC78
:101F800091E00E94A90E8091DF08882309F47EC1A8
:101F90000E94AD04882349F1E091E008E150FF0B75
:101FA000EE0FFF1FE55DFE4F81818F9380818F9340
:101FB0008091DF081F928F938BE591E09F938F9321
:101FC0001F9284E68F938CEE96E09F938F930E94EE
:101FD000E72A8CEE96E00E94A90E8DB79EB70A966E
:101FE0000FB6F8949EBF0FBE8DBF0E94AD0488232C
:101FF00021F1E091E108F0E0EE0FFF1FEF5CFE4FF2
:1020000081818F9380818F938CE391E09F938F9355
:102010001F9284E68F938CEE96E09F938F930E949D
:10202000E72A8CEE96E00E94A90E8DB79EB708961F
:102030000FB6F8949EBF0FBE8DBF0E94AD048823DB
:10204000E9F08091D7081F928F938CE291E09F93E3
:102050008F931F9284E68F938CEE96E09F938F93DD
:102060000E94E72A8CEE96E00E94A90E8DB79EB7DB
:1020700008960FB6F8949EBF0FBE8DBF8091DF0803
:10208000882309F420C18091E008833009F01BC146
:102090000E94AD04882321F082EE91E00E94A90EF7
:1020A0000E94AD048823E9F08091D4081F928F9399
:1020B0008CE091E09F938F931F9284E68F938CEE38
:1020C00096E09F938F930E94E72A8CEE96E00E9401
:1020D000A90E8DB79EB708960FB6F8949EBF0FBE97
:1020E0008DBF0E94AD048823E9F08091D3081F9230
:1020F0008F938CEF90E09F938F931F9284E68F9342
:102100008CEE96E09F938F930E94E72A8CEE96E0E8
:102110000E94A90E8DB79EB708960FB6F8949EBF81
:102120000FBE8DBF0E94AD048823E9F08091D508D1
:102130001F928F938CEE90E09F938F931F9284E673
:102140008F938CEE96E09F938F930E94E72A8CEEFC
:1021500096E00E94A90E8DB79EB708960FB6F89428
:102160009EBF0FBE8DBF0E94AD048823E9F0809111
:10217000D6081F928F938CED90E09F938F931F92C0
:1021800084E68F938CEE96E09F938F930E94E72ACC
:102190008CEE96E00E94A90E8DB79EB708960FB6FA
:1021A000F8949EBF0FBE8DBF0E94AD048823F9F046
:1021B0008091DB088F938091DA088F938CEC90E00C
:1021C0009F938F931F9284E68F938CEE96E09F935C
:1021D0008F930E94E72A8CEE96E00E94A90E8DB79D
:1021E0009EB708960FB6F8949EBF0FBE8DBF0E9493
:1021F000AD048823F9F08091D9088F938091D80895
:102200008F938CEB90E09F938F931F9284E68F9334
:102210008CEE96E09F938F930E94E72A8CEE96E0D7
:102220000E94A90E8DB79EB708960FB6F8949EBF70
:102230000FBE8DBF0E94AD048823F9F08091DD08A8
:102240008F938091DC088F938CEA90E09F938F931B
:102250001F9284E68F938CEE96E09F938F930E945B
:10226000E72A8CEE96E00E94A90E8DB79EB70896DD
:102270000FB6F8949EBF0FBE8DBF0E94AD04882399
:1022800009F444C083EC91E00C94A90E0E94AD04C3
:10229000882309F4AACE8BE491E09F938F931F9239
:1022A00084E68F938CEE96E09F938F930E94E72AAB
:1022B0008CEE96E00E94A90E0F900F900F900F9059
:1022C0000F900F9092CE0E94AD04882309F4E8CEBF
:1022D0008091D2081F928F938CE191E09F938F930E
:1022E0001F9284E68F938CEE96E09F938F930E94CB
:1022F000E72A8CEE96E00E94A90E8DB79EB708964D
:102300000FB6F8949EBF0FBE8DBFCACE089563EC82
:1023100071E00C94080E0F931F93CF93DF93EC01A1
:102320000E943D068C01CE010E948711800F911FF3
:10233000DF91CF911F910F9108954F925F926F920D
:102340007F928F929F92AF92BF92CF92DF92EF9245
:10235000FF920F931F93CF93DF937C01D82F0E949E
:10236000BC042B013C0180917D0690917E06009774
:1023700099F064EC71E00E943D0600917D06109199
:102380007E06A701FF0C660B770B20E1C8010E94B7
:10239000170EC8010E948711C0E09FE2892E96E0C7
:1023A000992E0E94BC046419750986099709683E34
:1023B00073408105910548F110922F061092300666
:1023C00080917D0690917E06009721F069E971E089
:1023D0000E948B1120912F068091300690E0FFEF34
:1023E0002F9F800D911D1124DF91CF911F910F918F
:1023F000FF90EF90DF90CF90BF90AF909F908F9025
:102400007F906F905F904F90089585E090E00E94DC
:10241000570985E2C82E86E0D82EF60111928E1655
:102420009F06E1F780918A0790918B07DC01ED917F
:10243000FC910084F185E02D09950A970CF46CC09D
:1024400010E000E080918A0790918B07DC01ED910C
:10245000FC910284F385E02D09957C01019609F435
:102460005BC080917D0690917E06009711F165E931
:1024700071E00E943D064AE050E0B80180917D067F
:1024800090917E060E946B0E6FE871E080917D0650
:1024900090917E060E943D06A0907D06B0907E063B
:1024A00040E150E0B701C5010E946B0EC5010E94DA
:1024B0008711F601E1926F010F5F1F4F0A3011057E
:1024C00009F6C0912806C034E1F480917D06909110
:1024D0007E06009709F465CF6AEA71E00E943D0626
:1024E00000917D0610917E0640912B0650E070E031
:1024F00060E02AE0C8010E94170EC8010E948711FF
:1025000050CFDC134ECF80912A0680932F06809106
:102510002B068093300654CF82E390E00E94570947
:10252000DC133FCF4DCF1F920F920FB60F921124A5
:102530002F933F938F939F93AF93BF9380916D079A
:1025400090916E07A0916F07B091700730916C0762
:1025500023E0230F2D3758F50196A11DB11D2093BF
:102560006C0780936D0790936E07A0936F07B093ED
:1025700070078091710790917207A0917307B091D5
:1025800074070196A11DB11D809371079093720786
:10259000A0937307B0937407BF91AF919F918F91F0
:1025A0003F912F910F900FBE0F901F90189526E826
:1025B000230F0296A11DB11DD2CF1F920F920FB60D
:1025C0000F9211242F933F934F935F936F937F93B9
:1025D0008F939F93AF93BF93EF93FF93E0910C0181
:1025E000F0910D010995FF91EF91BF91AF919F91EE
:1025F0008F917F916F915F914F913F912F910F90AC
:102600000FBE0F901F9018951F920F920FB60F924A
:1026100011242F933F934F935F936F937F938F93E7
:102620009F93AF93BF93EF93FF93E0910A01F091D3
:102630000B010995FF91EF91BF91AF919F918F9100
:102640007F916F915F914F913F912F910F900FBEAE
:102650000F901F9018951F920F920FB60F92112492
:102660002F933F934F935F936F937F938F939F939A
:10267000AF93BF93EF93FF93E0910801F0910901AD
:102680000995FF91EF91BF91AF919F918F917F91AC
:102690006F915F914F913F912F910F900FBE0F90CF
:1026A0001F9018951F920F920FB60F9211242F931F
:1026B0003F934F935F936F937F938F939F93AF93CA
:1026C000BF93EF93FF93E0910601F0910701099505
:1026D000FF91EF91BF91AF919F918F917F916F91FA
:1026E0005F914F913F912F910F900FBE0F901F90D0
:1026F00018951F920F920FB60F9211242F933F93AC
:102700004F935F936F937F938F939F93AF93BF93F9
:10271000EF93FF93E0910401F09105010995FF917A
:10272000EF91BF91AF919F918F917F916F915F9149
:102730004F913F912F910F900FBE0F901F901895C2
:102740001F920F920FB60F9211248F939F93809137
:10275000E1009091E100937F9093E10083FF0FC02F
:102760001092E90091E09093EB001092EC0092E35C
:102770009093ED001092820798E09093F00082FF12
:1027800022C093E09093E9009091F200992319F010
:102790009AE39093E80090917606992341F0909106
:1027A0007606915090937606911101C05D9A9091B2
:1027B0008107992341F0909181079150909381076F
:1027C000911101C0289A84FF18C08091E2008E7E8A
:1027D00081608093E2008091E1008F7E8093E10030
:1027E000809177068E7E8061809377069F918F918E
:1027F0000F900FBE0F901F90189580FFF7CF80911C
:10280000E2008E7E80618093E2008091E1008E7E06
:102810008093E100809177068E7E8160E5CF1F92E4
:102820000F920FB60F921124CF92DF92EF92FF9288
:102830000F931F932F933F934F935F936F937F93C8
:102840008F939F93AF93BF93EF93FF93CF93DF93B8
:10285000CDB7DEB76C97DEBFCDBF1092E900809197
:10286000E80083FF25C068E0CE0145960E9430064F
:1028700082EF8093E8008D8987FF39C09091E8004E
:1028800090FFFCCF982F907609F034C19E894F8934
:10289000588D2F89F88C911131C0803861F5809165
:1028A00078068093F1001092F1008EEF8093E8009B
:1028B0006C960FB6F894DEBF0FBECDBFDF91CF91FF
:1028C000FF91EF91BF91AF919F918F917F916F9108
:1028D0005F914F913F912F911F910F91FF90EF903A
:1028E000DF90CF900F900FBE0F901F9018959EEF26
:1028F0009093E800C7CF1092F100D5CF913059F4F2
:102900008111D3CF4130510581F6809178068D7FBA
:1029100080937806CACF933049F48111C6CF4130F5
:10292000510519F6809178068260F2CF953041F416
:102930008091E80080FFFCCF20682093E300B5CFB2
:10294000963009F0A9C00B8D1C8D22E01092E90091
:102950001092740610927306F2122EC01092720634
:10296000109271060E94FF051F8299E09983FA82F6
:1029700091E09E8390EA98879AEF99872091730659
:1029800030917406275F3F4F3C832B838D831092D9
:10299000E900109274061092730610937206009369
:1029A000710649E050E0BE016F5F7F4F80E00E94FA
:1029B000D9050E94FF0579CF109372060093710626
:1029C0000E946303DC0112960D911C910115110503
:1029D00009F451C1D801ED91FC910480F581E02DFD
:1029E000BE016B5E7F4FC8010995009709F03EC19B
:1029F000F80100851185EACFF3E0FF120EC08F8940
:102A0000882309F440C0823061F440E862E18AE43E
:102A100092E00E94A605811148CF81E28093EB00ED
:102A200047CF813029F440E868E081E492E0F1CFBB
:102A3000833099F70E946303DC011296ED90FC90BD
:102A40008E010F5F1F4F6801E114F10479F0D70187
:102A5000ED91FC910680F781E02DB801C701099541
:102A6000080F111DF701E084F184EECFD8011C920C
:102A7000F60101900020E9F73197BF016C197D093B
:102A800040E0C601C6CF6BE272E0FB01449150E02A
:102A900080E80E94D90509CF973009F4BECF98305D
:102AA00021F481E08093F10000CF993009F0FDCE50
:102AB000837009F0B2CFE5E2F1E081E031E096E326
:102AC0002191222371F08093E9003093EB00DF0124
:102AD00011972C912093EC009093ED008F5F87303D
:102AE00079F78EE78093EA001092EA008F8980934D
:102AF0008207DBCE8B8D9C8D1092E90010927406BC
:102B0000109273069093720680937106898D8111DD
:102B100092C08E899D89913A49F4813209F07DCF26
:102B200047E050E06CE171E080E0B3CF913209F012
:102B300074CF833269F48F89988DB0E0A0E08093E0
:102B4000000190930101A0930201B0930301ADCE67
:102B5000803269F48091E80082FFFCCF67E08CE16D
:102B600091E00E9430068BEF8093E8009ECE823287
:102B700009F09BCE8F8980932301EEEFFFE78591CB
:102B800094918B3F9C4D51F1E0E0F8E080911C0165
:102B900090911D01A0911E01B0911F01803B9440B6
:102BA000A105B105F1F48091230180FD1AC0EE3F2B
:102BB0008AE0F80789F587E797E79183808380911A
:102BC00060008093750688E19BE00FB6F894A895A5
:102BD000809360000FBE9093600067CEEEEFFAE046
:102BE000D5CF808191818737974709F05ECEA89530
:102BF0008091600088618093600080917506809369
:102C00006000EE3F2AE0F20789F08091FE0A909181
:102C1000FF0A9183808349CE80819181873798070D
:102C200051F29093FF0A8093FE0AC5CF1092FF0ADB
:102C30001092FE0A3ACE0E946303DC0112960D91B7
:102C40001C910115110509F4E8CED801ED91FC9114
:102C50000190F081E02DBE016B5E7F4FC8010995A8
:102C6000811123CEF80100851185EBCF18161906C6
:102C70000CF41BCED2CEF1E0FF12BECE6FE272E0BA
:102C800004CF1F920F920FB60F9211242F933F93F0
:102C90004F935F936F937F938F939F93AF93BF9364
:102CA000EF93FF938CE897E00E94DF06FF91EF918E
:102CB000BF91AF919F918F917F916F915F914F9154
:102CC0003F912F910F900FBE0F901F9018951F925C
:102CD0000F920FB60F9211242F938F939F93EF9320
:102CE000FF93E0919C07F0919D078081E091A207FE
:102CF000F091A30782FD1BC090818091A5078F5F93
:102D00008F732091A607821741F0E091A507F0E0AC
:102D1000E457F84F958F8093A507FF91EF919F910E
:102D20008F912F910F900FBE0F901F90189580815B
:102D3000F4CF1F920F920FB60F9211242F933F934F
:102D40004F935F936F937F938F939F93AF93BF93B3
:102D5000CF93EF93FF9383B190916B00892380937E
:102D6000A00680919F069091A006892780939E06D9
:102D70008091A00680939F06C0E080919D06C817B1
:102D800060F4EC2FF0E0EE0FFF1FEB56F94F0190CF
:102D9000F081E02D0995CF5FF0CFFF91EF91CF91BA
:102DA000BF91AF919F918F917F916F915F914F9163
:102DB0003F912F910F900FBE0F901F901895CF92BB
:102DC000DF92EF92FF9210928F0710928E0728EEFB
:102DD000C22E23E0D22EE12CF12CC0929007D0928B
:102DE0009107E0929207F092930785E591E0909326
:102DF0008D0780938C078DEC90E0909399078093DA
:102E000098078CEC90E090939B0780939A0788EC4E
:102E100090E090939D0780939C0789EC90E09093BD
:102E20009F0780939E078AEC90E09093A107809380
:102E3000A0078EEC90E09093A3078093A2071092D6
:102E4000A5071092A6071092A7071092A807109244
:102E50002C0810922B08C0922D08D0922E08E092D8
:102E60002F08F092300887E691E090932A0880932B
:102E700029088FEF9FEF909336088093350889E7F4
:102E800091E090937A088093790810927C081092D0
:102E90007B0810927F08109281081092C408E2EA21
:102EA000F8E080E2DF011D928A95E9F78FE991E071
:102EB00090934D0980934C09209151092B7F2093C9
:102EC000510990933B0980933A0920913F092B7F48
:102ED00020933F09909329098093280920912D0977
:102EE0002B7F20932D099093170980931609209129
:102EF0001B092B7F20931B099093050980930409DC
:102F0000809109098B7F8093090985E991E090936D
:102F10000309809302090E94BC046093FE08709329
:102F2000FF0880930009909301091092E508109220
:102F3000E408C092E608D092E708E092E808F09230
:102F4000E90883E891E09093E3088093E208109207
:102F5000F6081092F5081092F8081092F7081092EF
:102F6000FA081092F9081092FC081092FB08809160
:102F7000FD088E7F8D7F8093FD0860E08AE00E94CF
:102F80001A048091FD0881FD04C061E08AE00E947E
:102F9000EC038AE08093EE08ECE4F5E08491809302
:102FA000EF08EDE2F5E0E491F0E0EE0FFF1FEB5EDD
:102FB000FA4F259134913093F1082093F008E2E51F
:102FC000F5E0E491E093F208E81741F061E080E178
:102FD0000E941A0461E080E10E94EC03E3E3F5E063
:102FE000E491F0E0EE0FFF1FE95FFA4F85919491B5
:102FF0009093F4088093F30867EE78E08AE00E94EB
:103000009F0C0E94BC049091DF088091CE0829E7B4
:1030100038E03093C7082093C6089F719062909360
:10302000C5081092CD089091CF082091D008207F3C
:1030300029602093D00880719C7792609093CF088C
:1030400080628F7E8093CE081092C9081092CA08C1
:10305000FF90EF90DF90CF900895CF93DF9300D053
:1030600000D000D0CDB7DEB7789484B5826084BD3F
:1030700084B5816084BD85B5826085BD85B581607C
:1030800085BD80916E00816080936E0010928100FA
:1030900080918100826080938100809181008160B5
:1030A0008093810080918000816080938000809176
:1030B0009100826080939100809191008160809363
:1030C0009100809190008160809390008091C10078
:1030D00084608093C1008091C10082608093C100B0
:1030E0008091C10081608093C1008091C3008160A4
:1030F0008093C3008091C00082608093C000809163
:10310000C20081608093C20080917A0084608093C5
:103110007A0080917A00826080937A0080917A00B0
:10312000816080937A0080917A00806880937A0031
:103130001092820710927806109277068091D7003D
:1031400081608093D70080EA8093D80089B5806140
:1031500089BD89B5826089BD09B400FEFDCF61E0FB
:1031600070E080E090E00E947B048091D8008F7C2A
:1031700080618093D8008091E000807F8093E000A0
:103180008091E1008E7E8093E1008DE08093E200EB
:10319000559A209A6DB67EB660E084E00E941A04CB
:1031A00061E085E00E941A0461E085E00E94EC0382
:1031B0000E94CE0D63E5E62E61E0F62E0BE411E0F1
:1031C00062E0D8018D918D010E941A04E016F1068B
:1031D000B9F71092FC081092FB081092FA081092AE
:1031E000F9081092F8081092F7081092F608109259
:1031F000F50890E080E0FC01E35AFD4F45915591C0
:1032000065917491403855426105710509F05EC1C0
:10321000FC01EF59FD4F259134913093F60820932E
:10322000F508FC01ED59FD4F259134913093F808D4
:103230002093F708FC01EB59FD4F25913491309311
:10324000FA082093F908FC01E959FD4F8591949102
:103250009093FC088093FB088091F9089091FA08FC
:10326000892B09F454C08091EE0828EF280F2430F0
:1032700048F092EF980F943028F096EE980F933024
:1032800008F03FC090916800243048F022EF280FEA
:10329000243028F08A51F0E0E0E0833010F4E8E6D2
:1032A000F0E0916090839091EE0838EF390F343060
:1032B00050F082EF890F843030F086EE890FF0E015
:1032C000E0E0833010F4EBE6F0E02081343008F0E9
:1032D00003C181E0E92FE450FF0BAF0101C0880F6B
:1032E0004A95EAF7822B343048F022EF290F243038
:1032F00028F09A51F0E0E0E0933010F4EBE6F0E0D3
:1033000080838091FB089091FC080E94E0088091E6
:103310007B0690917C06825E984091F08091FD083A
:103320008E7F8093FD088FB7F89410927A061092E2
:10333000790622EE38E030937C0620937B068FBF1F
:103340008FEF9FEF909336088093350868EE73E017
:1033500080E090E00E947B0480915207882331F046
:1033600089E298E090937E0680937D060E94AD04EA
:10337000882321F084EF91E00E94A90E82EE98E06C
:1033800090938B0780938A071092800610927F0695
:1033900062E070E089E00E94C80470E060E087E0CD
:1033A0000E94C8048091D70890E00E944B0964EF06
:1033B00071E080E090E00E947B048091D70890E06B
:1033C0000E944B0964EF71E080E090E00E947B0472
:1033D00083E40E94530983E490E00E949D1180934E
:1033E000EA0688E40E94530988E490E00E949D1157
:1033F0008FE40E9453098FE490E00E949D118C019C
:1034000082E192E00E94A90E402F50E070E060E05F
:103410002AE089E298E00E94170E89E298E00E9473
:1034200087111127C801880F991FADB7BEB7A81B18
:10343000B90B0FB6F894BEBF0FBEADBF1196EDB776
:10344000FEB71282118213961C921E921297359625
:10345000C801039797FF55C07D01D12CC12C0C15D5
:103460001D0509F452C05601FFEFAF1ABF0AB5019E
:103470008EE40E94C8048EE490E00E949D114C01ED
:10348000D7018D939D937D018CE192E00E94A90E5E
:103490004AE050E0B40189E298E00E946B0E82E2BB
:1034A00092E00E94A90E4AE050E0B60189E298E05D
:1034B0000E946B0E66E372E089E298E00E94080EBB
:1034C00089E298E00E9487116501C9CF0C96803986
:1034D000910509F090CEC0CE88E09E3009F402CF6D
:1034E00082E09F3009F4FECE84E0903109F4FACEF8
:1034F00081E0913109F4F6CE692F6651770BAB016B
:10350000EDCE119211920197A5CF81E08093AF0685
:1035100060E085E00E94EC0389E298E00E94871158
:103520006FE073E089E298E00E948B116EEF72E029
:1035300089E298E00E948B1166EF72E089E298E0E0
:103540000E943D064AE050E061E070E089E298E0C8
:103550000E946B0E64EF72E089E298E00E943D06E3
:103560004AE050E061E070E089E298E00E946B0E72
:103570006DEE72E089E298E00E948B1189E298E09A
:103580000E9487118091EA06882309F49CC20E9458
:10359000AD04882321F088E392E00E94A90E0E94E6
:1035A000AD04882321F08FE692E00E94A90E0E94CC
:1035B000AD04882321F08FE892E00E94A90E0E94BA
:1035C0007C0F8091DF08882379F08091E0088230B9
:1035D00009F481C2833009F480C2813029F488E083
:1035E0008093C9061092CA068091DE088130C9F422
:1035F00062E08CE499E00E941B0D63E08AE399E0AD
:103600000E941B0D69E088E299E00E941B0D67E0B3
:1036100086E199E00E941B0D68E084E099E00E9439
:103620001B0D8091DE088230D1F583B190916B0043
:1036300089238093A0068091A00680939F0689B17C
:103640008F708093AC068091AC068093AB0666E0E9
:103650007BE082E00E949F0C8093AD068091AD06D6
:1036600087FD1DC090E080E02CED35E0FC01EE0F01
:10367000FF1FED57F94F3183208301968930910563
:10368000A9F78AE0809382061092C7061092C806B6
:1036900082E080938106809181060E94350C8091A2
:1036A000DE08833091F44EE260EA76E881E090E053
:1036B0000E94DD028CE897E090937C0880937B0861
:1036C00080917D08807F80937D088091DE08843022
:1036D00099F446E060E072EC81E090E00E94DD0247
:1036E0008CE897E090937C0880937B0880917D081C
:1036F000807F836080937D088091DE08853099F417
:1037000046E060E072EC81E090E00E94DD028CE82F
:1037100097E090937C0880937B0880917D08807F60
:10372000826080937D088091DE08863099F446E0BF
:1037300068E478EE81E090E00E94DD028CE897E09A
:1037400090937C0880937B0880917D08807F8460C3
:1037500080937D088091DE08873099F446E060E030
:1037600072EC81E090E00E94DD028CE897E090939B
:103770007C0880937B0880917D08807F81608093A6
:103780007D0881E0809351070FB6F8947EBE0FBE8E
:103790006DBE90E8692E95E2792E812C912C0CEE6D
:1037A00016E089E298E00E94580818161906ACF451
:1037B00089E298E00E9416089091AE06883009F4DC
:1037C00093C18D3009F097C1E92FF0E0E055F94F32
:1037D00010821092AE0697FF9AC1F090DE0891E039
:1037E000F912BCC067E08CE499E00E94DB0A8823F0
:1037F00009F45FC5F0926B072091690730916A0761
:10380000C901880F991F820F931F20915A09309187
:103810005B0940915A0950915B0924173507A9F7B4
:10382000820F931F969587959695879590936A0733
:103830008093690767E08AE399E00E94DB0A8823A6
:10384000F1F02091670730916807C901880F991F2F
:10385000820F931F209148093091490940914809EE
:103860005091490924173507A9F7820F931F9695A0
:10387000879596958795909368078093670767E08B
:1038800088E299E00E94DB0A8823F1F02091650725
:1038900030916607C901880F991F820F931F2091ED
:1038A000360930913709409136095091370924176C
:1038B0003507A9F7820F931F96958795969587955B
:1038C000909366078093650767E086E199E00E9420
:1038D000DB0A8823F1F02091630730916407C90166
:1038E000880F991F820F931F209124093091250979
:1038F000409124095091250924173507A9F7820F13
:10390000931F9695879596958795909364078093D6
:10391000630767E084E099E00E94DB0A8823F1F006
:103920002091610730916207C901880F991F820FAA
:10393000931F20911209309113094091120950915F
:10394000130924173507A9F7820F931F96958795BA
:103950009695879590936207809361078091DE0822
:10396000823009F03FC08091C706882309F4A4C4BF
:103970008091C80690E0880F892F881F990B892BAA
:1039800009F49AC48091C8068F778093C80681E0B5
:1039900080936B078091D2080E94DE0B90936A0798
:1039A000809369078091D3080E94DE0B909368078B
:1039B000809367078091D4080E94DE0B909366077E
:1039C000809365078091D5080E94DE0B9093640771
:1039D000809363078091D6080E94DE0B9093620764
:1039E000809361078091DE088350853010F00C943D
:1039F000902580917B0890917C08892B09F4E4C480
:103A00000E94BC0480917E08681B770B64307105AE
:103A100094F00E94BC0460937E0880917D088F70B2
:103A2000823009F45CC408F04AC4882309F44EC407
:103A3000813009F452C497E1C92E26E1D22E35E136
:103A4000B32E44E1A42E80917B0890917C08DC0188
:103A5000ED91FC910084F185E02D09951816190669
:103A60000CF0B2C40E94BC0460937E0880917B0875
:103A700090917C08DC01ED91FC910284F385E02DAE
:103A80000995F82EE0917F08E150E731E0F6F0E08B
:103A9000E45BF24E0C94512E762182219121F42286
:103AA0000C232D23732381239C23B223D5231A2493
:103AB00027243A245B2493249E24AE24BD24CB24C3
:103AC000DB24F42418250E94AD04882309F467CD73
:103AD00083E592E062CD80E183CD88E08093C906E2
:103AE00081E08093CA0680CD992309F476CE915067
:103AF0009093AE0672CE963138F4E92FF0E0E0559F
:103B0000F94F80839F5FF4CF1092AE0666CE80910E
:103B1000B0068D3409F4DBC13CF58D3209F422C3C3
:103B20006CF4882309F456C18B3209F40AC36DE79B
:103B300073E080EB96E00E94D82ABEC1853409F478
:103B4000DDC2883409F446C1813489F70E94AD048E
:103B5000882321F089EF94E00E94A90E80915107FB
:103B600090E00E944F09A6C1853509F429C30CF0E5
:103B7000F2C0823509F47DC3833509F4C1C18035B3
:103B8000B1F68091B1068F3391F68091AF0688230C
:103B900009F4D0C20E94AD04882321F083EC91E0A7
:103BA0000E94A90E0E94AD04882321F08FEA94E0C0
:103BB0000E94A90E0E94AD04882321F08DEC94E0B0
:103BC0000E94A90E0E94AD04882321F08FEA94E0A0
:103BD0000E94A90E82E40E9453090E94AD0488232A
:103BE000F1F082E490E00E949D119F938F938AE60A
:103BF00093E09F938F931F9284E68F931F930F936D
:103C00000E94E72A8CEE96E00E94A90E6DB77EB75F
:103C1000685F7F4F0FB6F8947EBF0FBE6DBF83E421
:103C20000E9453090E94AD048823E9F083E490E0E8
:103C30000E949D119F938F9387E593E09F938F93AD
:103C40001F9284E68F931F930F930E94E72A8CEEB6
:103C500096E00E94A90E8DB79EB708960FB6F8940D
:103C60009EBF0FBE8DBF84E40E94530984E490E0A0
:103C70000E949D110E94AD04882311F1E091E1089A
:103C8000F0E0EE0FFF1FEF5CFE4F81818F9380818C
:103C90008F9386E493E09F938F931F9284E68F9394
:103CA0001F930F930E94E72A8CEE96E00E94A90EC4
:103CB000ADB7BEB718960FB6F894BEBF0FBEADBF76
:103CC00088E40E9453090E94AD048823E9F088E447
:103CD00090E00E949D119F938F9384E393E09F93C4
:103CE0008F931F9284E68F931F930F930E94E72A6E
:103CF0008CEE96E00E94A90EEDB7FEB738960FB68F
:103D0000F894FEBF0FBEEDBF8CE40E9453090E94E1
:103D1000AD04882309F4CEC08CE490E00E949D118C
:103D20009F938F9380E293E09F938F931F9284E6FB
:103D30008F931F930F930E94E72A8CEE96E00E94C8
:103D4000A90E2DB73EB7285F3F4F0FB6F8943EBF80
:103D50000FBE2DBFAFC0883509F413C2893509F4F1
:103D600041C2863509F0E3CE8091B1068D3309F06A
:103D7000DECE82EB96E00E94BA2A7C018FEF8E0D98
:103D80008E3108F099C00E94AD046701DD248823BC
:103D9000C9F0DF92CF9283E094E09F938F931F92BC
:103DA00084E68F931F930F930E94E72A8CEE96E090
:103DB0000E94A90EEDB7FEB738960FB6F894FEBF75
:103DC0000FBEEDBFE092D708C6010E944B090E94CA
:103DD000E70D70C00E94AD04882321F081EB92E0D2
:103DE0000E94A90E0E94AD04882321F08CEB92E082
:103DF0000E94A90E0E94AD04882321F08FEC92E06E
:103E00000E94A90E0E94AD04882321F082EE92E068
:103E10000E94A90E0E94AD04882321F082E293E063
:103E20000E94A90E0E94AD04882321F08AE793E046
:103E30000E94A90E0E94AD04882321F089E993E035
:103E40000E94A90E0E94AD04882321F08CEB93E020
:103E50000E94A90E0E94AD04882321F086ED93E014
:103E60000E94A90E0E94AD04882321F08FEE93E0FA
:103E70000E94A90E0E94AD04882321F08FEF93E0E9
:103E80000E94A90E0E94AD04882321F085E194E0F0
:103E90000E94A90E0E94AD04882321F081E694E0DF
:103EA0000E94A90E0E94AD04882321F083EC91E0CA
:103EB0000E94A90E1092B10660EB76E089E298E0CC
:103EC0000E94080E89E298E00E94871186CC8091BA
:103ED0005F0791E0892780935F07882339F00E946C
:103EE000AD04882339F38CE794E0E2CF0E94AD045F
:103EF000882309F46CCF86E994E00E94A90E67CF6D
:103F00008091B1068D3309F0F3C08091B2068735F8
:103F100019F40E942C0F5BCF893481F584EB96E075
:103F20000E94BA2A8093DE080E94AD04882309F417
:103F30004ECFE091DE08E150FF0BEE0FFF1FE35C78
:103F4000FE4F81818F9380818F9380EF93E09F93C9
:103F50008F931F9284E68F931F930F930E94E72AFB
:103F60008CEE96E00E94A90E2DB73EB7285F3F4F1A
:103F70000FB6F8943EBF0FBE2DBF29CF813369F530
:103F80008091B306803209F022CF84EB96E00E9444
:103F9000BA2A8093D2080E94AD04882309F417CF6F
:103FA0008091D2081F928F9384EE93E09F938F931A
:103FB0001F9284E68F931F930F930E94E72A8CEE43
:103FC00096E00E94A90E6DB77EB7685F7F4F0FB66F
:103FD000F8947EBF0FBE6DBFFACE823361F580913B
:103FE000B306803209F0F3CE84EB96E00E94BA2A41
:103FF0008093D4080E94AD04882309F4E8CE809110
:10400000D4081F928F9387ED93E09F938F931F9215
:1040100084E68F931F930F930E94E72A8CEE96E01D
:104020000E94A90E8DB79EB708960FB6F8949EBF52
:104030000FBE8DBFCCCE833361F58091B306803245
:1040400009F0C5CE84EB96E00E94BA2A8093D3088B
:104050000E94AD04882309F4BACE8091D3081F9240
:104060008F938AEC93E09F938F931F9284E68F93B4
:104070001F930F930E94E72A8CEE96E00E94A90EF0
:10408000ADB7BEB718960FB6F894BEBF0FBEADBFA2
:104090009ECE843309F09BCE8091B306803209F026
:1040A00096CE84EB96E00E94BA2A8093D5080E94AF
:1040B000AD04882309F48BCE8091D5081F928F938D
:1040C00088EB93E09F938F931F9284E68F931F93C7
:1040D0000F930E94E72A8CEE96E00E94A90EEDB79E
:1040E000FEB738960FB6F894FEBF0FBEEDBF6FCE89
:1040F0008F3309F01CCD0E947C0FDCCE82EB96E062
:104100000E94BA2A863008F012CD8093E1080E94FE
:10411000AD04882309F45BCEE091E108F0E0EE0FF6
:10412000FF1FEF5CFE4F81818F9380818F938AEA1E
:1041300093E00DCF67E973E089E298E00E943D06C5
:10414000B9CE0E94AD04882321F08BEE94E00E944A
:10415000A90E809151078F5F8093510781E00E94E3
:104160005309A8CE0E94AD04882321F082EF94E089
:104170000E94A90E8091510781508093510782E0DF
:10418000EECF8091E90681110BC08EE00E945309A9
:104190000E94AD04882321F080E095E00E94A90EE2
:1041A0008091E906813009F085CE8DE00E945309A7
:1041B0000E94AD04882309F47DCE88E095E078CE96
:1041C0008091DF08882339F08091830791E0892767
:1041D000809383076FCE8091520791E08927809367
:1041E000520768CE8091B1068D3309F0A0CC82EBE6
:1041F00096E00E94BA2A7C019091B3069032E1F0D9
:10420000E092DF0881110DC00E94AD04882321F0E7
:104210008FE095E00E94A90E8091DF08882309F4C1
:10422000D6CD0E94AD04882309F4D1CDFF24FF929E
:10423000EF9281E893E0BACE8823C1F0E092DF08E4
:1042400084EB96E00E94BA2A8093E0080E94AD04B5
:10425000882309F4BCCDE091E008E150FF0BEE0F9C
:10426000FF1FE55DFE4F8081918147CE1092E008EF
:10427000AECD0E94AD04882321F08DE195E00E942F
:10428000A90EF12CE12C60E0C7010E949D2D7FEF6B
:10429000E71AF70AE11484E0F806A9F782E00E9421
:1042A00016050E94AD04882309F404CE89E295E046
:1042B000FFCD10926B07BECA10926B0793CB833071
:1042C00081F0843009F0B7CB80E104C080E18093B5
:1042D000810881E080937F08AECB84E0FBCF87E04C
:1042E000F9CF8EE0809381088CE0F4CFBFE08B1390
:1042F00006C0D092800882E080937F08A4CB109201
:104300007F08A1CB80918008E82FF0E0E758F74FB5
:10431000F1868150809380088F3F09F094CB83E031
:10432000EBCF81115FC1809180088F3F09F05AC1A6
:1043300020E0D12C30E040EB56E1ED2DF0E061E0E3
:1043400070E080E090E0022E04C0660F771F881FA7
:10435000991F0A94D2F76B837C838D839E83EE0F23
:10436000FF1FE758F74FA1A4B2A4E52EF12CC70117
:104370008758974FDC011996EC90F12C032E02C060
:10438000F594E7940A94E2F7CB018A299B29E0FC93
:1043900006C08B819C81809590958A219B2192A754
:1043A00081A73F5F2F5F383011F4515030E02B3040
:1043B00011F4D39420E0415009F0BFCF8FEF8093E8
:1043C000C40881E080937F088091DF08882309F486
:1043D000E0C78091DF0681110DC00E94BC0460938C
:1043E000DB067093DC068093DD069093DE0681E0A9
:1043F0008093DF068091D306811105C00E94BC0422
:1044000081E08093D3068091C6089091C7080097F9
:1044100009F44DC36091C508629566956770DC012B
:10442000ED91FC910190F081E02D0995882309F42C
:104430003EC38091C6089091C7086091C5086F710E
:10444000DC01ED91FC910280F381E02D0995AC0136
:104450009093CC088093CB088091CE0880618093A4
:10446000CE082CE034E090E0F90165917491461794
:10447000570708F416C3F9013296659174916417D1
:10448000750708F40EC33091CF08432F441F44270B
:10449000441F8091D008282F2F70220F242B29131E
:1044A00091C58091D008282F22952F702F5F2770FB
:1044B000322F3295307F8F78832B8093D0083091C4
:1044C000CE08432F437050E04F5F5F4F241715060F
:1044D00009F0EDC28091CF08903109F07FC5329587
:1044E00036953770982F9370990F990F990F932BDA
:1044F000990F990F8378892B8093CF089091CF08DB
:10450000292F269526952F71322F3295330F307E25
:104510008091CE088F71832B322F36953695369544
:104520009C7F932B9093CF089C77943409F05EC5C1
:10453000877F8093CE088091CA089091CE0892FF21
:104540008DC5863008F088C5E82FF0E0E353F94FB9
:104550009091C908908380681092CA089091CE0803
:104560009B7F9093CE08882309F4A1C260918307B2
:10457000662329F09091CB069F5F9093CB06982FEE
:104580009F77D92EDD0C87FDD394892F90E0FC0115
:10459000E453F94F2081ED2DE170CE2ED0FE12C0F4
:1045A000FC01E353F94F4081042E000C550BF4E05D
:1045B00055954795FA95E1F74F70F0E12F0290017C
:1045C0001124242B30E070E00197472F50E048176A
:1045D00059070CF04CC54353594FDA014C9134271D
:1045E0007F5FF3CF81E088CE8FE58F0D823008F0BA
:1045F00086CEB1EA8CE0FB1280E1809381081092B4
:1046000080086F2D90E080E00E9482099093C3089B
:104610008093C20885E070CEE0918008EE24E39498
:10462000EE0EE0928008F0E0E758F74F8187682FA0
:104630008091C2089091C3080E9482099093C30898
:104640008093C2088091810890E0880F991FE81636
:1046500019060CF4F8C986E04FCEE0908008E39488
:10466000E0928008682F8091C2089091C3080E9450
:1046700082099093C3088093C208F09081082F2D7F
:1046800030E02F5F3F4F220F331FE21613060CF46A
:10469000DAC9892B09F033CEF2E8CF2EF8E0DF2E0D
:1046A000E12CFE14E1F0F601219131916F013227E6
:1046B00023273227A8E7B5E00E942E2E2FEF3FE0F8
:1046C00040E050E00E94AB2D205E3C4F4F4F5F4FCB
:1046D000D6015F963C932E935E97E394E2CF8FEFE3
:1046E0008093C40871CEB8EA8B1309CE68EA90E0D3
:1046F00080E00E9482099093C3088093C20888E0FA
:10470000FBCD8F77813009F0FACD6F2D8091C208F3
:104710009091C3080E9482099093C3088093C208B5
:1047200091E0E1E8FE1290E080917D0890FB84F931
:1047300080937D0889E0E0CD8EEF8F0D8F3008F0FB
:10474000DECD6F2D8091C2089091C3080E9482092E
:104750009093C3088093C208F09281081092800859
:104760008AE0CACDE0918008EE24E394EE0EE09258
:104770008008F0E0E758F74F8187682F8091C208E2
:104780009091C3080E9482099093C3088093C20845
:104790008091810890E0880F991FFBE0E8161906C8
:1047A0000CF451C9F0937F084EC9E0908008E3945F
:1047B000E0928008682F8091C2089091C3080E94FF
:1047C00082099093C3088093C208F09081082F2D2E
:1047D00030E02F5F3F4F220F331FE21613060CF419
:1047E00032C9892B09F08BCD62E8C62E68E0D62E3F
:1047F000E12CFE1409F473CFD6012D913D916D018A
:1048000032272327322750E040E020523C41410923
:104810005109A0EBB4E00E94CA2DA40193010E94AB
:10482000AB2D2C573C4F4F4F5F4FF601378F268FE4
:10483000E394DFCFF0E28F1306C92FED3FEF309303
:10484000C3082093C2083DE030937F08FCC850E4C1
:10485000851355CD8091C2089091C3088054910969
:104860009093C3088093C208109280086EE0609312
:104870007F08E9C8E091800821E02E0F209380088E
:10488000F0E0E758F74F81878091C2089091C30804
:104890008F1991099093C3088093C2088091810871
:1048A00090E0880F991F281719060CF4CCC87FE0F8
:1048B00070937F08C8C820918008E22FF0E0E75885
:1048C000F74F81872F5F2093800830918108832FD5
:1048D00090E00196880F991F281719060CF4B3C8A9
:1048E0008758974FDC0117968C913F2C212C820D15
:1048F000932D911D4091C2085091C3084817590744
:1049000009F0FDCCE2E8F8E080E0381731F04191A1
:104910005191578F468F8F5FF8CF8FEF8093C408E8
:1049200010927F0851CDBEE38B13E9CCEDEFF8ED8B
:10493000F093C308E093C208F1E134CF23E082137F
:10494000DECC63E08091C2089091C3080E945C05B0
:104950009093C3088093C20832E176CF682F80918C
:10496000C2089091C3080E945C059093C30880938D
:10497000C20853E150937F0866C8682F8091C2082F
:104980009091C3080E945C059093C3088093C2086D
:10499000A0927F0858C861E38613B1CC8091C20809
:1049A0009091C3080E945C059093C3088093C2084D
:1049B000B0927F0848C888EF8F0D893108F09FCCEE
:1049C0008F2D869580938108109280086F2D80919D
:1049D000C2089091C3080E945C059093C30880931D
:1049E000C208D0927F082FC8E0918008EE24E3949B
:1049F000EE0EE0928008F0E0E758F74F8187682FCD
:104A00008091C2089091C3080E945C059093C308EE
:104A10008093C2088091810890E0880F991FE81662
:104A2000190614F40C94231DC0927F080C94231DC6
:104A300020918008E22FF0E0E758F74F81872F5F41
:104A40002093800830918108832F90E00196880F91
:104A5000991F2817190614F40C94231D8758974F93
:104A6000DC0117968C915F2C412C840D952D911DA6
:104A70004091C2085091C3084817590709F03FCC2C
:104A8000E2E8F8E080E0381709F447CF419151910E
:104A9000A3E056954795AA95E1F7578F468F8F5F0C
:104AA000F2CF9F5F2C5F3F4F923109F0DDCC8091B8
:104AB0008307882339F10E94BC04C090DB06D090A4
:104AC000DC06E090DD06F090DE066C197D098E09AB
:104AD0009F09613D774081059105A0F00E94BC04CB
:104AE0006093DB067093DC068093DD069093DE0610
:104AF00064E574E089E298E00E948B111092CE0682
:104B00001092CD068091E008833050F46091D20875
:104B100089E798E00E94AD0990936A07809369073E
:104B20008091DF0881112FC080916B0781117FC4B4
:104B30000E94BC04C090FE08D090FF08E0900009DD
:104B4000F09001096C197D098E099F096A3F710572
:104B500081059105A0F0F09011016F2D85E00E9474
:104B6000EC0381E0F826F09211010E94BC046093EE
:104B7000FE087093FF0880930009909301098091CB
:104B8000DF08882339F10E94BC04C090FE08D09051
:104B9000FF08E0900009F09001096C197D098E0969
:104BA0009F096A3F710581059105A0F0F090110100
:104BB0006F2D85E00E94EC0381E0F826F092110150
:104BC0000E94BC046093FE087093FF088093000964
:104BD0009093010980915F07882309F44BC080916D
:104BE000690790916A07009709F438C48C3DB5E0D5
:104BF0009B0708F021C42091DC083091DD08821762
:104C0000930720F49093DD088093DC082091DA0864
:104C10003091DB084091DC085091DD08240F351FEE
:104C2000369527953093D9082093D8080E94630EB3
:104C300088EB95E00E94A90E8091DC089091DD0838
:104C40000E94630E88EB95E00E94A90E8091D8081F
:104C50009091D9080E94630E88EB95E00E94A90EFE
:104C60008091DA089091DB080E94630E89E298E057
:104C70000E9487118091570781110DC00E94BC04CA
:104C8000609353077093540780935507909356078A
:104C900081E0809357070E94BC04C0905307D090D6
:104CA0005407E0905507F09056076C197D098E095E
:104CB0009F09653F71408105910508F473C10E9409
:104CC000BC046093530770935407809355079093E7
:104CD000560780915207882309F47AC00E94AD04D8
:104CE000882331F08091690790916A070E94630ED2
:104CF0000E94AD04882321F088EB95E00E94A90E64
:104D00000E94AD04882331F0809167079091680775
:104D10000E94630E0E94AD04882321F088EB95E089
:104D20000E94A90E0E94AD04882331F0809165078E
:104D3000909166070E94630E0E94AD04882321F0C3
:104D400088EB95E00E94A90E0E94AD04882331F003
:104D500080916307909164070E94630E0E94AD04E6
:104D6000882321F088EB95E00E94A90E0E94AD04F3
:104D7000882331F080916107909162070E94630E51
:104D80000E94AD04882321F088EB95E00E94A90ED3
:104D90000E94AD048823E1F0809151071F928F9308
:104DA00089EC94E09F938F931F9284E68F931F93D7
:104DB0000F930E94E72A8CEE96E00E94A90E2DB771
:104DC0003EB7285F3F4F0FB6F8943EBF0FBE2DBFD2
:104DD0002091690730916A07B090EA0621153105E4
:104DE00009F441C3C090DC08D090DD08F12CE12C1F
:104DF00050E040E02C193D094E095F09ADE1B0E0FB
:104E00000E94CA2D2091DA083091DB0850E040E082
:104E10002C193D094E095F090E94AB2D2F5F3F4FB2
:104E20004F4F5F4F2093EB068091EB06B81619F0B9
:104E300090E00E944B098091EB068093EA0684E0A3
:104E40000E94C3038093E9062091650730916607AD
:104E50002115310581F18091D8089091D908885C9D
:104E600091092817390708F001C3109210018091A9
:104E70001001813009F0FEC28093E8068091650739
:104E800090916607892BB9F08091D8089091D90844
:104E900088539F4F209167073091680782179307C7
:104EA00008F0FAC210920F0180910F01813009F0D1
:104EB000F7C28093E70620916107309162072115C0
:104EC000310599F08091D8089091D90888539F4F67
:104ED0008217930708F0F6C210920E0180910E011E
:104EE000813009F0F3C28093E70620916307309187
:104EF000640721153105F1F08091D8089091D90807
:104F0000885C91092817390718F48EE00E9453092C
:104F10008091D8089091D90888539F4F20916307BA
:104F2000309164078217930728F48091510790E02D
:104F30000E944F098BE4C82E81E0D82EEE24E39422
:104F4000F12C24E6B22ED6018D916D010E94C3038F
:104F5000892B09F5B70182E10E94C8040E94AD04C3
:104F60008823C9F0FF92EF92E3EBF4E0FF93EF9315
:104F70001F92BF921F930F930E94E72A8CEE96E038
:104F80000E94A90E6DB77EB7685F7F4F0FB6F89489
:104F90007EBF0FBE6DBF7FEFE71AF70A87E0E81606
:104FA000F10489F680E090E0892B11F40C94D11B78
:104FB0000E94CB06882311F40C94CF1B0E940000A2
:104FC0000C94CF1B90FB37F93093CF08292F2695EF
:104FD0002F708078822B8093D00863CA9F71990FBD
:104FE000990F8378982B9093CF0888CA83FD27C0A8
:104FF000B0E12B9F900111242093C9088460809315
:10500000CE0880E02091CE08922F977F23FF9860F2
:105010009093CE08813009F48ECA823009F047CDD2
:10502000E091CA08E63000F581E08E0F8093CA084F
:10503000F0E0E353F94F8091C908808338CD909117
:10504000C908292B2093C9088B7F8093CE0881E063
:105050008093CD0882E0D6CF80E07ECA882309F411
:1050600026CD1092CA0882CA1092CA0820CDCC2040
:1050700031F04353594FFA018081807F382785E50D
:105080003827321377C1662341F00E94AD0488238C
:1050900021F083EC91E00E94A90EED2CF12C4091BF
:1050A00083078091CA06282F30E0220F331F80919A
:1050B000C90686958695820F932F911D0296E81654
:1050C000F90609F0EBC0442351F00E94BC04609340
:1050D000DB067093DC068093DD069093DE066D2D73
:1050E000669561504C2D8DEC96E00E94F00E8091FB
:1050F000CA06813021F50E94AD048823E1F0809139
:10510000CD061F928F9389EA94E09F938F931F920D
:1051100084E68F931F930F930E94E72A8CEE96E00C
:105120000E94A90E2DB73EB7285F3F4F0FB6F894E7
:105130003EBF0FBE2DBF8091CD068093D7086091F2
:10514000C906662329F12091CA0681E090E0211169
:1051500002C090E080E08353994FDC018C91603174
:1051600008F086C090E0643031F482958F70B0E131
:105170008B9FC00111249A83898341E0643009F038
:1051800040E0669566956695CE0101960E94F00E08
:1051900080918307882351F00E94AD04882321F079
:1051A00083EC91E00E94A90E0E94BC048091CB0682
:1051B000843608F47CCC80918307882309F4A2CC40
:1051C0000E94AD04882321F083EC91E00E94A90E97
:1051D0000E94AD04882321F08CE995E00E94A90E7D
:1051E0000E94AD04882321F083EC91E00E94A90E77
:1051F0000E94AD048823F9F08091CB069091CC06F3
:10520000891B990B9F938F9383E794E09F938F93D0
:105210001F9284E68F931F930F930E94E72A8CEED0
:1052200096E00E94A90E8DB79EB708960FB6F89427
:105230009EBF0FBE8DBF0E94AD04882321F083EB7B
:1052400095E00E94A90E0E94AD04882321F08CE90C
:1052500095E00E94A90E0E94AD04882321F083EC02
:1052600091E00E94A90E1092CB061092CC061FCCA2
:1052700090E0982F8827222371F022E030E023531A
:10528000394FF9012081822B603109F074CF9827C2
:105290008927982770CF21E030E0F1CF442309F42B
:1052A00085CF8091CC068F5F8093CC060E94AD04A1
:1052B000882321F08FE395E00E94A90E0E94AD049F
:1052C000882341F18091CA06282F30E0220F331F36
:1052D0008091C90686958695820F932F911D02961F
:1052E0009F938F9388E994E09F938F931F9284E616
:1052F0008F931F930F930E94E72A8CEE96E00E94F3
:10530000A90E2DB73EB7285F3F4F0FB6F8943EBFAA
:105310000FBE2DBF0E94AD048823D1F0FF92EF9203
:1053200086E894E09F938F931F9284E68F931F9358
:105330000F930E94E72A8CEE96E00E94A90E6DB7AB
:105340007EB7685F7F4F0FB6F8947EBF0FBE6DBF0C
:105350000E94AD04882321F083E595E00E94A90E08
:105360000E94AD04882309F421CF83EC91E00E94D0
:10537000A90E1CCF662309F419CF8091CC068F5F4C
:105380008093CC060E94AD04882351F38CE795E00E
:10539000E5CF8091C408282F30E0220F232F221F51
:1053A000330B232B09F4A1C08F778093C40881E0CD
:1053B00080936B07809160078F5F8436A8F5809398
:1053C00060076091D20889E798E00E94AD09909348
:1053D0006A07809369076091D40889E798E00E9482
:1053E000AD0990936607809365076091D30889E7BC
:1053F00098E00E94AD0990936807809367076091D9
:10540000D50889E798E00E94AD09909364078093DE
:1054100063076091D60889E798E00E94AD099093F0
:105420006207809361077CCB10926007CACF61E06E
:1054300085E00E94EC03A3CB8C3DE5E09E0709F4D8
:10544000E5CB2091DA083091DB082817390708F0FE
:10545000DDCB9093DB088093DA08D8CB8AEB95E01C
:105460000E94A90E07CCB092EB06DECC81E08093BF
:105470001001FDCC811108CD8091E806882309F444
:1054800003CD8091510781508093510790E00E9495
:105490004F091092E806F2CC81E080930F0104CD11
:1054A000811109CD8091E706882309F404CD80910C
:1054B00051078F5F8093510790E00E944F0910922F
:1054C000E706F9CC81E080930E0108CD81110DCD66
:1054D0008091E706882309F408CD8091510790E078
:1054E0000E944F091092E70600CD10926B0718CB6F
:1054F00083E891E09093E3088093E2082091EE081E
:1055000048EF420F443040F082EF820F843020F0A9
:1055100086EE820F833068F530916B00822F8450C5
:10552000990B443078F087EF2E30A1F08DEF2F30BB
:1055300089F08BEF203171F08EEF213159F0822FFD
:105540008651990BBC0181E090E001C0880F6A95FB
:10555000EAF780958323443048F092EF920F94301D
:1055600028F02A51F0E0E0E0233010F4EBE6F0E020
:1055700080830895FC0188279927E894219120329F
:10558000E9F3293010F02E30C8F32B3241F02D32E0
:1055900039F4689404C00E94DF2A820F911D219182
:1055A00020532A30C0F31EF4909581959F4F0895A3
:1055B000FB01DC0105900D920020E1F708957AE0EF
:1055C000979F902D879F802D910D11240895AEE017
:1055D000B0E0EDEEFAE20C94E32D0D891E898F897F
:1055E000988D2EE02C831A83098397FF02C080E0F8
:1055F00090E801979E838D83AE01455E5F4F698D74
:105600007A8DCE0101960E94172B4D815E8157FD48
:105610000AC02F813885421753070CF49A01020FF4
:10562000131FF80110822E96E4E00C94FF2DABE0DE
:10563000B0E0EDE1FBE20C94D52D7C013B018A0149
:10564000FC0117821682838181FFC8C1CE010196B9
:105650005C01F7019381F30193FD859193FF8191A3
:105660003F01882309F453C1853239F493FD8591B4
:1056700093FF81913F01853229F4B70190E00E94A8
:10568000072DE7CF912C212C312CFFE1F31538F0B9
:105690008B3211F190F4803209F1833229F137FC19
:1056A0003CC020ED280F2A3050F536FE20C08AE09D
:1056B000989E200D1124922E06C08D3291F08033D9
:1056C00071F7689430F8F30193FD859193FF819110
:1056D0003F018111DACF21C0689431F8689432F823
:1056E000F2CF689433F8EFCF689434F8ECCFEAE067
:1056F0002E9E200D1124222E689435F8E4CF8E3290
:1057000029F436FC04C1689436F8DDCF8C3619F4E0
:10571000689437F8D8CF8836B1F2982F9F7D95548A
:105720009330E0F08336A1F18337C1F1833509F07E
:1057300063C02801F2E04F0E511CF801C080D180F7
:10574000692D70E036FC02C06FEF7FEFC6010E944A
:10575000F12C4C01689437F882010AC00C5F1F4F8E
:10576000FFE3F98388248394912C6501E89437F84A
:1057700033FE2DC0522C8114910471F5552009F48B
:1057800068CFB70180E290E00E94072D5A94F6CFCF
:10579000F801808189830E5F1F4FE4CF2801F2E07A
:1057A0004F0E511CF801C080D180692D70E036FC8D
:1057B00002C06FEF7FEFC6010E94FC2C4C018201FA
:1057C000D5CFB70180E290E00E94072D2A942814DB
:1057D000190409F0B0F7CECFF60137FC859137FEFA
:1057E00081916F01B70190E00E94072D51105A94EA
:1057F000F1E08F1A9108BFCF843619F0893609F08D
:1058000077C0F80137FE6BC060817181828193811E
:105810000C5F1F4FF32DFF763F2E97FF09C0909529
:105820008095709561957F4F8F4F9F4F689437F8A3
:105830002AE030E0A5010E94372DC82ECA188C2C12
:10584000432C36FE0CC0E89440F8C91440F434FEF2
:1058500005C032FC03C0F32DFE7E4F2E892C44FE82
:1058600095C0FE01EC0DF11D8081803309F087C0E9
:10587000242D297E422E842D8870582E43FC95C0FD
:1058800040FE8FC09C2C821418F42C0C922C98187B
:1058900044FE91C0B70180E390E00E94072D42FED4
:1058A00009C088E790E041FE02C088E590E0B701BA
:1058B0000E94072DC91408F48AC0CA94D12C9FEF06
:1058C000C91AD90ACA0CDB1CF60182916F01B70113
:1058D00090E00E94072DAC14BD04B1F74FCF60815A
:1058E0007181072E000C880B990B0E5F1F4F92CF12
:1058F000D32CE894D4F82AE030E0853739F1232D11
:10590000297FD22E8F3601F148F48835A9F0F701AE
:10591000868197812B96E2E10C94F12D803749F036
:105920008837A9F7D4FE02C06894D2F820E130E0AD
:105930000DC06894D4F8F6CF34FE03C0822F866081
:10594000D82E20E132E002C028E030E0F801D7FE96
:105950000FC060817181828193810C5F1F4FA5010F
:105960000E94372DC82ECA183D2CE89437F867CF0F
:105970006081718190E080E00E5F1F4FF0CF42FCAC
:1059800002C0839478CF8394839475CF842D8678D6
:1059900009F471CFF6CFB70180E290E00E94072DA5
:1059A00083948214C0F3512C73CF522C5818821454
:1059B00008F46ECFF8CF842D867809F47BCF8BE284
:1059C00041FE80E247FC8DE2B70190E071CFB70164
:1059D00080E390E00E94072D9A946CCF8FEF9FEFA9
:1059E00099CFFC010590615070400110D8F7809567
:1059F00090958E0F9F1F0895FC016150704001909B
:105A00000110D8F7809590958E0F9F1F08950F93E2
:105A10001F93CF93DF93182F092FEB018B8181FD0B
:105A200009C01FEF0FEF812F902FDF91CF911F91B2
:105A30000F91089582FF14C02E813F818C819D813A
:105A4000281739073CF4E881F981CF010196998341
:105A5000888310838E819F8101969F838E83E3CFFD
:105A6000E885F985812F0995892BA1F3DACFFA0111
:105A7000AA27283051F1203181F1E8946F936E7F8D
:105A80006E5F7F4F8F4F9F4FAF4FB1E03ED0B4E07E
:105A90003CD0670F781F891F9A1FA11D680F791FBF
:105AA0008A1F911DA11D6A0F711D811D911DA11DD0
:105AB00020D009F468943F912AE0269F11243019E0
:105AC000305D3193DEF6CF010895462F4770405D7B
:105AD0004193B3E00FD0C9F7F6CF462F4F70405D2A
