:100000000C94F5010C94E60F0C94BF0F0C94980F10
:100010000C94710F0C941D020C941D020C944A0F49
:100020000C941D020C9406130C940D100C947C106F
:100030000C941D020C941D020C941D020C941D02C4
:100040000C941D020C941D020C941D020C941D02B4
:100050000C941D020C941D020C941D020C94000FB4
:100060000C941D020C94D4120C94AE120C941D022C
:100070000C941D020C941D020C941D020C941D0284
:100080000C941D020C941D020C941D020C941D0274
:100090000C941D020C941D020C941D020C941D0264
:1000A0000C941D020C941D020C941D024D696E6986
:1000B00043683A2020202025640D0A0043656E74B1
:1000C000657243683A202025640D0A004D61786905
:1000D00043683A2020202025640D0A00506C617985
:1000E0002053616D653A2025640D0A00506C6179DA
:1000F0002053746F703A2025640D0A004E657874A1
:100100003A20202020202025640D0A0050726576B8
:100110003A20202020202025640D0A00566F6C43D1
:10012000683A202020202025640D0A00566F6C3A82
:100130002020202020202025640D0A004551204D3C
:100140006F64653A202025730D0A00446566617569
:100150006C74732056616C75652053617665640D0F
:100160000A005D3A2030780052785B006D70335F92
:10017000726563765F636D64206F7574004572729B
:100180006F7220726573706F6E7365207769746823
:1001900020636F646520006D70335F726563765F06
:1001A000636D6420696E2077697468206578706576
:1001B0006374656420636D6420307800080B00026E
:1001C00002020000090400000102020000052400F0
:1001D0001001052401010104240206052406000182
:1001E0000705810310004009040100020A00000015
:1001F00007050202400000070583024000000403D7
:10020000090412010002EF0201404F1B0692000197
:1002100001020301537061726B46756E0053706189
:10022000726B46756E2050726F204D6963726F005D
:10023000202A2A2A2A2A002E002A2A2A2A2A205656
:10024000002A20536F756E64204D6F64756C6520B5
:100250002A002A2A2A2A2A2A2A2A2A2A2A2A2A2A28
:100260002A2A0043757272656E7420736F756E640E
:100270003A2025640D0A0046696C657320666F7527
:100280006E643A2025640D0A00457175616C697AC7
:1002900065723A202025730D0A00566F6C756D65E6
:1002A0002020202020203A2025640D0A005374616C
:1002B0007465202020202020203A2025640D0A008B
:1002C000455252004446506C61796572206E6F74DD
:1002D00020666F756E64004551204D6F64653A204D
:1002E00025730D0A00506C61795061757365436820
:1002F0003A2025640D0A005072657643683A20253D
:10030000640D0A004E65787443683A2025640D0A2E
:1003100000566F6C43683A2025640D0A00496E70E0
:100320007574204D6F64652069732025730D0A0074
:10033000566F6C3A25640D0A00416C61726D3A206B
:100340002564207374617274656420210D0A005362
:100350006F756E644E756D6265723A2025640D0A84
:100360000000000000240027002A002D00300000BB
:10037000000000250028002B002E003100000000A6
:10038000002300260029002C002F0004040404048C
:100390000304050202020204030202020206060628
:1003A00006060604040202020404040802011040C6
:1003B00080401020408040800802040180402010CE
:1003C0000201108010204040200000000200090FB0
:1003D0000000030401000C00000000000000000009
:1003E00000000000000000004C1311241FBECFEFDE
:1003F000DAE0DEBFCDBF14E0A0E0B1E0EAE2F2E473
:1004000002C005900D92AC3EB107D9F727E0ACEEE3
:10041000B4E001C01D92A535B207E1F711E0C5EFC8
:10042000D1E004C02197FE010E940D21C43FD107F5
:10043000C9F70E94C9130C9413210C940000FC010D
:100440008091EE05882311F13FB7F89482E0809304
:10045000E9002091F200822F90E01816190614F49A
:1004600081E090E0882339F0289844E64093ED0538
:100470004091F1004083222339F02091F2002111B4
:1004800003C02BE62093E8003FBF08958FEF9FEF56
:1004900008952FB7F89483E08093E9009091E800E5
:1004A000892F807295FF04C09091F20080E4891B2F
:1004B0002FBF08958091E50581110DC082E08093E2
:1004C000E10584E08093E2051092E4051092E305D3
:1004D00081E08093E50581EE95E0089581508F30AD
:1004E00008F047C0E82FF0E0E858FD4F0C940D21CC
:1004F0009502990287028D029102B902B902B902EE
:100500009C02A202A602AA02B002B902B402809121
:1005100080008F77809380000895809180008F7D88
:10052000F9CF80918000877FF5CF84B58F7784BD28
:10053000089584B58F7DFBCF809190008F77809355
:1005400090000895809190008F7DF9CF8091900068
:10055000877FF5CF8091C0008F778093C00008958A
:100560008091C0008F7DF9CF8091C200877F8093FA
:10057000C2000895CF93DF93282F30E0F901E753AD
:10058000FC4F8491F901E655FC4FD491F901E557F0
:10059000FC4FC491CC23A1F081110E946E02EC2F7C
:1005A000F0E0EE0FFF1FE358FC4FA591B491EC91E2
:1005B000ED2381E090E009F480E0DF91CF91089590
:1005C00080E090E0FACF1F93CF93DF93282F30E0A5
:1005D000F901E753FC4F8491F901E655FC4FD491A2
:1005E000F901E557FC4FC491CC23A9F0162F8111D6
:1005F0000E946E02EC2FF0E0EE0FFF1FE159FC4F5E
:10060000A591B4918FB7F894EC91111108C0D095D1
:10061000DE23DC938FBFDF91CF911F910895DE2BF6
:10062000F8CFCF93DF9390E0FC01E655FC4F249187
:1006300085579C4FFC0184918823C9F090E0880F76
:10064000991FFC01EF59FC4FA591B491FC01E159B0
:10065000FC4FC591D49161110DC09FB7F8948C9156
:10066000209582238C938881282328839FBFDF9144
:10067000CF910895623051F49FB7F8943C91822F46
:10068000809583238C93E8812E2BEFCF8FB7F8943E
:10069000EC912E2B2C938FBFEACF3FB7F89480912B
:1006A000DD059091DE05A091DF05B091E00526B54E
:1006B000A89B05C02F3F19F00196A11DB11D3FBF9A
:1006C000BA2FA92F982F8827BC01CD01620F711D69
:1006D000811D911D42E0660F771F881F991F4A9563
:1006E000D1F708958F929F92AF92BF92CF92DF92EF
:1006F000EF92FF924B015C010E944D036B017C0164
:100700000E944D036C197D098E099F09683E734054
:1007100081059105A8F321E0821A9108A108B1088A
:1007200088EEC80E83E0D81EE11CF11C81149104F0
:10073000A104B10429F7FF90EF90DF90CF90BF9014
:10074000AF909F908F900895CF93C09123016AE05E
:1007500070E080E090E00E94720381E0C11101C06E
:1007600080E0CF9108952FB7F8946091D9057091EA
:10077000DA058091DB059091DC052FBF0895CF93BA
:10078000DF93809315011092170160931801209157
:10079000130190911401290F3327331F820F932FD8
:1007A000911D20911601820F911D680F791F71957F
:1007B000619571097093190160931A018091F50593
:1007C0009091F605DC01ED91FC910084F185E02D1E
:1007D0000995892B61F08091F5059091F605DC0172
:1007E000ED91FC910284F385E02D0995E7CFC2E1FC
:1007F000D1E08091F5059091F6056991DC01ED91CC
:10080000FC910190F081E02D0995B1E0CC31DB073E
:1008100081F7DF91CF910C94B303CF92DF92EF92E7
:10082000FF921F93CF93DF93D82FC0E011E0C090C9
:10083000F105D090F205E090F305F090F405809179
:100840001101882311F10E94B3036C197D098E09EF
:100850009F09683E73408105910560F01092110177
:100860000E94B3036093F1057093F2058093F30542
:100870009093F405CF5FDC13DACFDF91CF911F9116
:10088000FF90EF90DF90CF9008950E94B3036C1912
:100890007D098E099F09643F71408105910550F3E0
:1008A00010931101DDCF089540910105509102058B
:1008B0002091FF043091000542175307B4F4909142
:1008C000E8009570E1F39091E80092FD19C08093E3
:1008D000F100809101059091020501968F7399278F
:1008E000892B19F48EEF8093E80080910105909197
:1008F00002050196909302058093010581E0089519
:1009000080E00895EF92FF920F931F93CF93DF93B0
:10091000F82E192FE62E042F81E0860F880F0E94F3
:10092000540483E00E945404CF2DD12FEC0EFD2EF1
:10093000F11CCE15DF05B9F007FF13C0FE0184914D
:100940000E945404182F80E00E94540481232196B1
:100950008111EFCFDF91CF911F910F91FF90EF9019
:1009600008958881EDCF81E0F5CFDF92EF92FF927D
:100970000F931F93CF93DF93D82E8A01EB017B0156
:10098000E40EF51ECE15DF0559F0D7FE12C0FE01AC
:1009900084910E94540421968111F4CF0FEF1FEF30
:1009A000C801DF91CF911F910F91FF90EF90DF90E1
:1009B00008958881EECF0F931F93CF93DF931F92FB
:1009C000CDB7DEB782E0898342E450E06CEB71E0A2
:1009D00080E80E94B5040E945A02DC0112960D9133
:1009E0001C910115110589F0D801ED91FC9102804F
:1009F000F381E02DBE016F5F7F4FC801099597FD20
:100A000004C0F80100851185ECCF89810F90DF913A
:100A1000CF911F910F910895615030F02091F10016
:100A2000FC0120830196F8CF289884E68093ED0599
:100A30000895EF92FF920F931F93CF93DF938C0152
:100A40007B01D0E0C0E0F701EC0FFD1F649166234D
:100A500061F0D801ED91FC910190F081E02DC80189
:100A60000995892B11F02196EECFCE01DF91CF9120
:100A70001F910F91FF90EF900895AF92BF92CF9288
:100A8000DF92EF92FF920F931F93CF93DF936C014E
:100A90007B018B01040F151FEB015E01AE18BF082F
:100AA000C017D10759F06991D601ED91FC910190E1
:100AB000F081E02DC6010995892B79F7C501DF91F9
:100AC000CF911F910F91FF90EF90DF90CF90BF904B
:100AD000AF900895FC01538D448D252F30E0842F75
:100AE00090E0821B930B541710F0CF960895019756
:100AF0000895FC01918D828D981761F0A28DAE0F43
:100B0000BF2FB11D5D968C91928D9F5F9F73928FC9
:100B100090E008958FEF9FEF0895FC01918D828DF5
:100B2000981731F0828DE80FF11D858D90E00895C2
:100B30008FEF9FEF0895FC01918D228D892F90E01A
:100B4000805C9F4F821B91098F739927089588E0DD
:100B500096E00E949B0521E0892B09F420E0822F7A
:100B6000089580E090E0892B29F00E94A70581116B
:100B70000C9400000895FC01A48DA80FB92FB11D9D
:100B8000A35ABF4F2C91848D90E001968F739927C3
:100B9000848FA689B7892C93A089B1898C9182749E
:100BA0008C93938D848D981306C00288F389E02D71
:100BB00080818F7D80830895EF92FF920F931F9322
:100BC000CF93DF93EC0181E0888F9B8D8C8D981300
:100BD00019C0E889F989808185FF14C09FB7F8940E
:100BE000EE89FF896083E889F98980818274808336
:100BF0009FBF81E090E0DF91CF911F910F91FF9017
:100C0000EF900895F62E0B8D10E00F5F1F4F0F73BE
:100C10001127E02E8C8D8E110CC00FB607FCFACF79
:100C2000E889F989808185FFF5CFCE010E94BB0557
:100C3000F1CFEB8DEC0FFD2FF11DE35AFF4FF0824A
:100C40009FB7F8940B8FEA89FB8980818062CFCFB0
:100C5000CF93DF93EC01888D8823B9F0AA89BB89F3
:100C6000E889F9898C9185FD03C0808186FD0DC0DE
:100C70000FB607FCF7CF8C9185FFF2CF808185FFFF
:100C8000EDCFCE010E94BB05E9CFDF91CF91089552
:100C90008F929F92AF92BF92CF92DF92EF92FF928C
:100CA0000F931F93CF93DF936C017B018A01809197
:100CB0002301882309F45CC08091EE05882309F4A0
:100CC00057C08091050580FF05C08091E0008260DB
:100CD0008093E000E801B12C8AEFA82E93E0892EE2
:100CE0002AE3922E209711F4BB20D9F10E944902E9
:100CF00081110AC0AA94AA20D9F161E070E080E0D5
:100D000090E00E947203EECF8C171D0611F00CF0DC
:100D10008C2F9FB7F8948092E9002091E80025FD80
:100D200002C09FBFDFCF282F30E0C21BD30BF701DB
:100D3000815020F041914093F100FACFE20EF31E72
:100D4000BB2021F09092E800B12CEBCF8091E8001D
:100D500085FDE7CF9092E800BB24B394209709F378
:100D6000F3CF5D9884E680930405101611063CF0DD
:100D700081E090E0F6019383828310E000E0C801F7
:100D8000DF91CF911F910F91FF90EF90DF90CF9067
:100D9000BF90AF909F908F900895CF93DF931F9255
:100DA000CDB7DEB76983DC01ED91FC910280F38160
:100DB000E02D41E050E0BE016F5F7F4F09950F903D
:100DC000DF91CF91089583E08093E9008091F20054
:100DD000882319F08AE38093E80008950E9449026D
:100DE00090E00895CF93DF931F92CDB7DEB7FC015B
:100DF0008485958597FD08C02FEF3FEF35872487C1
:100E00000F90DF91CF910895CE0101960E941F02AD
:100E1000019719F4898190E0F3CF8FEF9FEFF0CF26
:100E20000F931F93CF93DF931F92CDB7DEB78C0143
:100E3000FC018485958597FF0BC0CE0101960E9429
:100E40001F02019771F4898190E0F80195878487EA
:100E5000F801848595850F90DF91CF911F910F91B7
:100E600008958FEF9FEFF1CFFC018485958597FD65
:100E70000BC09FB7F89482E08093E9008091F20064
:100E80009FBF90E0019608959FB7F89482E0809309
:100E9000E9008091F2009FBF90E00895BC0186E0D8
:100EA0000C94BF03BC0183E00C94BF0370E060E0CE
:100EB0000C94BF038F929F92AF92BF92CF92DF921A
:100EC000EF92FF926C010E94B3034B015C01F12C85
:100ED000E12C0E94B303681979098A099B096C15F2
:100EE0007D058E059F0540F4E0910905F0910A0506
:100EF000309779F30995EDCFFF90EF90DF90CF9089
:100F0000BF90AF909F908F900895BF92CF92DF9245
:100F1000EF92FF920F931F93CF93DF930E944D03A5
:100F20006B017C01C091EF05D091F005BB24BA9410
:100F300001E010E0209709F458C08D818370D1F54D
:100F400020912805422F50E08C81843048F488237A
:100F5000C1F1813099F18230B9F522E030E01AC058
:100F600098EF980F682F6450770B943058F08E30BC
:100F700029F18F3091F3803121F1813129F1682FEE
:100F80006651770B9B01B80102C0660F771F2A9547
:100F9000E2F79B0124233523232B61F00E94BA0240
:100FA0009D8192FB992790F9981789F0CA86DB8674
:100FB000EC86FD860A80DB81C02DBCCF28E030E0C6
:100FC000E9CF24E030E0E6CF21E030E0E3CF8A85CE
:100FD0009B85AC85BD859601281B390B3F872E87E5
:100FE000B88A0E94B303698BE5CFDF91CF911F913F
:100FF0000F91FF90EF90DF90CF90BF900895BF9238
:10100000CF92DF92EF92FF920F931F93CF93DF93D4
:101010000E944D036B017C01C091EF05D091F0055A
:1010200001E010E0BB24BA94209709F459C08D81E7
:1010300083708130D1F520913405422F50E08C81AE
:10104000843048F48823C1F1813099F18230B9F5B8
:1010500022E030E01AC098EF980F682F6450770BA9
:10106000943058F08E3029F18F3091F3803121F196
:10107000813129F1682F6651770B9B01B80102C0BD
:10108000660F771F2A95E2F79B0124233523232B34
:1010900061F00E94BA029D8192FB992790F99817FE
:1010A00089F0CA86DB86EC86FD860A80DB81C02D4E
:1010B000BBCF28E030E0E9CF24E030E0E6CF21E00C
:1010C00030E0E3CF8A859B85AC85BD859601281BE2
:1010D000390B3F872E87B88A0E94B303698BE5CF0F
:1010E000DF91CF911F910F91FF90EF90DF90CF9004
:1010F000BF9008950895FC018685978526853785DC
:1011000082179307C9F70895FC01808990E0062EA5
:1011100002C0959587950A94E2F780FF1CC020894C
:1011200081E090E001C0880F6A95EAF780958223FC
:10113000808B268537858685978528173907C9F7D7
:10114000868197812817390730F081E040855185E5
:101150004217530708F480E008950C948408E09146
:1011600037053CE0E39FF0011124E15EFA4F218551
:1011700080910B05843008F059C080910B058823BD
:1011800009F486C080910B05813009F47BC0809101
:101190000B05823009F479C080910B05833009F486
:1011A0007AC080910B05873009F469C090E080E037
:1011B000E09137054CE0E49FF0011124E15EFA4F25
:1011C0003385232330E082239323892B09F483C0C2
:1011D0000E944D032091F1043091F204AB01421BB7
:1011E000530B9A017093F2046093F104283B5BE087
:1011F000350708F45EC020910C052093520510922B
:101200000C052FEF209353053091F0042091F0044A
:101210002E7F30FF21602093F0042091F00420FF06
:101220003DC07093EF046093EE04089580910B0528
:10123000883080F080910B058C3060F440910B0574
:101240004450550B81E090E002C0880F991F4A95E9
:10125000E2F7AECF80910B058E30A1F080910B05A7
:101260008F3099F080910B05803191F080910B05C2
:10127000813189F040910B054651550BE3CF80E158
:1012800090E096CF88E090E093CF82E090E090CF1E
:1012900084E090E08DCF81E090E08ACF2091EE0451
:1012A0003091EF04621B730B7093ED046093EC04B8
:1012B000089580910C05893070F4E0910C05F0E000
:1012C000EE0FFF1FE35FFA4F3183208380910C05FF
:1012D0008F5F80930C0508952091530530E0062E12
:1012E00002C0359527950A94E2F7C90181709927C4
:1012F00020FF0CC04091530521E030E001C0220FD7
:101300006A95EAF7209524232093530508958823AE
:1013100099F090915205981778F08150E82FF0E0FD
:10132000EE0FFF1FE35FFA4F8081918120813181B1
:1013300082179307C9F708958CED95E00895862FDD
:101340000C94870989B18F70EFE1F5E0878B86896E
:1013500097898927858B8789868B0288F389E02D79
:10136000099489B18F70EFE1F5E0878B86899789C1
:101370008927858B8789868B0088F189E02D0994E0
:1013800089B18F70EFE1F5E0878B8689978989278E
:10139000858B8789868B0684F785E02D099489B132
:1013A0008F70EFE1F5E0878B868997898927858B98
:1013B0008789868B0484F585E02D0994843088F430
:1013C0009DB3882341F0813041F0823041F081E0CB
:1013D000892B8DBB089584E0FBCF88E0F9CF82E0B4
:1013E000F7CF28EF280F243040F092EF980F943079
:1013F00020F096EE980F9330D0F59091680024304D
:1014000050F032EF380F343030F036EE380FF0E075
:10141000E0E0333010F4E8E6F0E0916090832430AF
:1014200050F092EF980F943030F096EE980FF0E075
:10143000E0E0933010F4EBE6F0E030812430C0F4CB
:1014400091E0682F6450770B01C0990F6A95EAF715
:10145000932B243048F022EF280F243028F08A51B3
:10146000F0E0E0E0833010F4EBE6F0E090830895E4
:1014700098E08E3069F392E08F3051F394E0803140
:1014800039F391E0813121F3682F6651770BDCCF7E
:10149000CF93DF93982F28EF280F81E0243008F4B2
:1014A00080E0282F30E09430A0F59230D1F49CE019
:1014B000929FF001939FF00D1124E15EFA4F738328
:1014C000628320EC39E0309307012093060190916C
:1014D0006900937F946090936900E99ADF91CF91BE
:1014E00008959CE0929FF001939FF00D1124E15E1E
:1014F000FA4F718360832FEC39E03093050120931C
:101500000401909169009C7F916090936900E89A32
:10151000E5CF50E040E096E0929FE001939FD00D30
:101520001124DE01A40FB51FAA0FBB1FA15EBA4F85
:10153000ED91FC91E617F70789F24F5F5F4F44305A
:10154000510579F79CE0929FD001939FB00D112433
:10155000A15EBA4F18969C911897943010F08FEFB7
:10156000BDCF1896EC911897EC0FFD2FF11DEE0FE3
:10157000FF1FE15EFA4F7183608318969C91189764
:101580009F5F18969C93AACF1F93CF93DF93EC0194
:10159000162F98EF960F8D818C7F943088F18160A3
:1015A0008D836FEF77E0812F0E94480A982F937008
:1015B0008D818C7F892B8D831C8388E592E09F83AE
:1015C0008E8380E699E0998788878091EF059091D6
:1015D000F0059B838A83D093F005C093EF0560E00C
:1015E000812F0E94110361E08C810E94E3028C81B3
:1015F0000E94DE098D818370DF91CF911F91089544
:101600008D8365E877E0CFCF0F931F93CF93DF9360
:1016100007EF15E0D0E0C0E0CE010E946520F801A0
:1016200081938F012196C131D105B1F787EF95E004
:10163000DF91CF911F910F910895FF920F931F9308
:10164000CF93DF9307EF15E0D0E0C0E0F801F19011
:101650008F01CE010E946520F81621F06F2DCE017A
:101660000E946D202196C131D10581F787EF95E069
:10167000DF91CF911F910F91FF900895FB01019091
:101680000020E9F73197AF01461B570BDC01ED91C4
:10169000FC910280F381E02D09948F929F92AF928A
:1016A000BF92EF92FF920F931F93CF93DF93CDB72B
:1016B000DEB7A1970FB6F894DEBF0FBECDBF7C0199
:1016C000FA01CB0119A2223008F42AE08E010F5D45
:1016D0001F4F822E912CB12CA12CBF01A50194018A
:1016E0000E94DC20F901CA016A300CF5605DD80166
:1016F0006E938D01232B242B252B79F790E080E02E
:10170000109721F0BD01C7010E943E0BA1960FB6B4
:10171000F894DEBF0FBECDBFDF91CF911F910F9127
:10172000FF90EF90BF90AF909F908F900895695C6D
:10173000DECFAC0170E060E02AE085EA96E00C9430
:101740004D0BCF92DF92EF92FF920F931F93CF93A7
:10175000DF936B01770FEE08FF084A30510511F552
:101760002AE0F7FE20C0EC01E881F9810190F081C8
:10177000E02D6DE209958C0144275527BA014C19DB
:101780005D096E097F092AE0CE010E944D0B800F92
:10179000911FDF91CF911F910F91FF90EF90DF90FC
:1017A000CF900895242FB701A601DF91CF911F910B
:1017B0000F91FF90EF90DF90CF900C944D0B00971E
:1017C00029F0BC0185EA96E00C943E0B90E080E0A5
:1017D000089589E98093F70585E08093F80586E010
:1017E0008093FA0587E08093F90588E08093FB05F4
:1017F00089E08093FC058AE08093FD058CED95E0FF
:101800009093FF058093FE0588EE93E09093030686
:101810008093020680ED97E0909301068093000686
:1018200081E08093040610920506809306061092CC
:10183000070683E00E940D040E94A4038823B9F0E8
:101840008BE491E09F938F931F9284E68F9389E5B9
:1018500095E09F938F930E94B71D89E595E00E94C4
:10186000DF0B0F900F900F900F900F900F900C9434
:101870001D0B0E94040B8091F705893949F00E94E5
:10188000E90B64EF71E080E090E00E947203F1CF19
:101890000E94A403882321F084E393E00E94DF0BDD
:1018A0000E94A403882321F082E294E00E94DF0BCF
:1018B0000E94A403882321F083E891E00E94DF0BBB
:1018C0000E94A403882321F082E294E00E94DF0BAF
:1018D0000E94A403882361F0E0910406E150FF0B0D
:1018E000EE0FFF1FE95CFE4F808191810E94DF0BAC
:1018F0000E94A403882321F084E393E00E94DF0B7D
:101900000E94A403882321F1E0910706F0E0EE0F86
:10191000FF1FE55DFE4F81818F9380818F938CE364
:1019200091E09F938F931F9284E68F9389E595E0D2
:101930009F938F930E94B71D89E595E00E94DF0B6E
:101940008DB79EB708960FB6F8949EBF0FBE8DBF99
:101950000E94A4038823E9F08091FD051F928F93D4
:101960008CE291E09F938F931F9284E68F9389E599
:1019700095E09F938F930E94B71D89E595E00E94A3
:10198000DF0B8DB79EB708960FB6F8949EBF0FBEBB
:101990008DBF80910506882309F402C18091060657
:1019A000833009F0FDC00E94A403882321F08FE951
:1019B00091E00E94DF0B0E94A4038823E9F080914C
:1019C000FA051F928F938CE091E09F938F931F9263
:1019D00084E68F9389E595E09F938F930E94B71DCE
:1019E00089E595E00E94DF0B8DB79EB708960FB68C
:1019F000F8949EBF0FBE8DBF0E94A4038823E9F018
:101A00008091F9051F928F938CEF90E09F938F93B5
:101A10001F9284E68F9389E595E09F938F930E94B0
:101A2000B71D89E595E00E94DF0B8DB79EB708963C
:101A30000FB6F8949EBF0FBE8DBF0E94A4038823EB
:101A4000E9F08091FB051F928F938CEE90E09F93BD
:101A50008F931F9284E68F9389E595E09F938F93F0
:101A60000E94B71D89E595E00E94DF0B8DB79EB7F8
:101A700008960FB6F8949EBF0FBE8DBF0E94A403B8
:101A80008823E9F08091FC051F928F938CED90E004
:101A90009F938F931F9284E68F9389E595E09F93A0
:101AA0008F930E94B71D89E595E00E94DF0B8DB7EB
:101AB0009EB708960FB6F8949EBF0FBE8DBF0E94CA
:101AC000A4038823F9F0809101068F93809100068A
:101AD0008F938CEC90E09F938F931F9284E68F936B
:101AE00089E595E09F938F930E94B71D89E595E066
:101AF0000E94DF0B8DB79EB708960FB6F8949EBF75
:101B00000FBE8DBF0E94A4038823F9F08091FF05CA
:101B10008F938091FE058F938CEB90E09F938F9332
:101B20001F9284E68F9389E595E09F938F930E949F
:101B3000B71D89E595E00E94DF0B8DB79EB708962B
:101B40000FB6F8949EBF0FBE8DBF0E94A4038823DA
:101B5000F9F0809103068F93809102068F938CEAAF
:101B600090E09F938F931F9284E68F9389E595E091
:101B70009F938F930E94B71D89E595E00E94DF0B2C
:101B80008DB79EB708960FB6F8949EBF0FBE8DBF57
:101B90000E94A403882339F184E393E00C94DF0BC3
:101BA0000E94A403882309F406CF8091F8051F92B0
:101BB0008F938CE191E09F938F931F9284E68F9394
:101BC00089E595E09F938F930E94B71D89E595E085
:101BD0000E94DF0B8DB79EB708960FB6F8949EBF94
:101BE0000FBE8DBFE8CE089564E373E00C943E0B06
:101BF0000F931F93CF93DF93EC010E9419058C0183
:101C0000CE010E94F40D800F911FDF91CF911F91A3
:101C10000F9108954F925F926F927F928F929F9251
:101C2000AF92BF92CF92DF92EF92FF920F931F93EA
:101C3000CF93DF937C01D82F0E94B3032B013C018B
:101C40008091070590910805009799F067E971E088
:101C50000E9419050091070510910805A701FF0CC6
:101C6000660B770B20E1C8010E944D0BC8010E9452
:101C7000F40DC0E09DEF892E94E0992E0E94B303ED
:101C80006419750986099709683E734081059105B5
:101C900048F11092FD041092FE0480910705909186
:101CA0000805009721F06CE671E00E94F80D209184
:101CB000FD048091FE0490E0FFEF2F9F800D911DA9
:101CC0001124DF91CF911F910F91FF90EF90DF9042
:101CD000CF90BF90AF909F908F907F906F905F90CC
:101CE0004F90089585E090E00E945A0783EFC82E38
:101CF00084E0D82EF60111928E169F06E1F78091AE
:101D0000F5059091F605DC01ED91FC910084F185DB
:101D1000E02D09950A970CF46CC010E000E080916A
:101D2000F5059091F605DC01ED91FC910284F385B7
:101D3000E02D09957C01019609F45BC080910705AF
:101D400090910805009711F168E671E00E9419056D
:101D50004AE050E0B80180910705909108050E9483
:101D6000A10B62E671E080910705909108050E9441
:101D70001905A0900705B090080540E150E0B701B3
:101D8000C5010E94A10BC5010E94F40DF601E1926C
:101D90006F010F5F1F4F0A30110509F6C091F6045D
:101DA000C034E1F48091070590910805009709F48B
:101DB00065CF6DE771E00E9419050091070510914C
:101DC00008054091F90450E070E060E02AE0C801A5
:101DD0000E944D0BC8010E94F40D50CFDC134ECF72
:101DE0008091F8048093FD048091F9048093FE04AF
:101DF00054CF82E390E00E945A07DC133FCF4DCFCF
:101E00001F920F920FB60F9211242F933F938F932F
:101E10009F93AF93BF938091D9059091DA05A091DC
:101E2000DB05B091DC053091D80523E0230F2D3779
:101E300058F50196A11DB11D2093D8058093D905B1
:101E40009093DA05A093DB05B093DC058091DD0566
:101E50009091DE05A091DF05B091E0050196A11DEE
:101E6000B11D8093DD059093DE05A093DF05B0934F
:101E7000E005BF91AF919F918F913F912F910F906E
:101E80000FBE0F901F90189526E8230F0296A11DF4
:101E9000B11DD2CF1F920F920FB60F9211242F9324
:101EA0003F934F935F936F937F938F939F93AF93E2
:101EB000BF93EF93FF93E0910C01F0910D01099511
:101EC000FF91EF91BF91AF919F918F917F916F9112
:101ED0005F914F913F912F910F900FBE0F901F90E8
:101EE00018951F920F920FB60F9211242F933F93C4
:101EF0004F935F936F937F938F939F93AF93BF9312
:101F0000EF93FF93E0910A01F0910B010995FF9186
:101F1000EF91BF91AF919F918F917F916F915F9161
:101F20004F913F912F910F900FBE0F901F901895DA
:101F30001F920F920FB60F9211242F933F934F933E
:101F40005F936F937F938F939F93AF93BF93EF9321
:101F5000FF93E0910801F09109010995FF91EF913C
:101F6000BF91AF919F918F917F916F915F914F91B1
:101F70003F912F910F900FBE0F901F9018951F92B9
:101F80000F920FB60F9211242F933F934F935F93AD
:101F90006F937F938F939F93AF93BF93EF93FF9331
:101FA000E0910601F09107010995FF91EF91BF9132
:101FB000AF919F918F917F916F915F914F913F91E1
:101FC0002F910F900FBE0F901F9018951F920F9298
:101FD0000FB60F9211242F933F934F935F936F93FC
:101FE0007F938F939F93AF93BF93EF93FF93E09172
:101FF0000401F09105010995FF91EF91BF91AF9117
:102000009F918F917F916F915F914F913F912F9110
:102010000F900FBE0F901F9018951F920F920FB642
:102020000F9211248F939F938091E1009091E10092
:10203000937F9093E10083FF0FC01092E90091E03D
:102040009093EB001092EC0092E39093ED001092CD
:10205000EE0598E09093F00082FF22C093E0909309
:10206000E9009091F200992319F09AE39093E80027
:1020700090910405992341F090910405915090931B
:102080000405911101C05D9A9091ED05992341F0ED
:102090009091ED0591509093ED05911101C0289A12
:1020A00084FF18C08091E2008E7E81608093E20000
:1020B0008091E1008F7E8093E100809105058E7E06
:1020C0008061809305059F918F910F900FBE0F90B7
:1020D0001F90189580FFF7CF8091E2008E7E80617F
:1020E0008093E2008091E1008E7E8093E1008091F8
:1020F00005058E7E8160E5CF1F920F920FB60F927D
:102100001124CF92DF92EF92FF920F931F932F93A0
:102110003F934F935F936F937F938F939F93AF936F
:10212000BF93EF93FF93CF93DF93CDB7DEB76C9759
:10213000DEBFCDBF1092E9008091E80083FF25C08B
:1021400068E0CE0145960E940C0582EF8093E8007E
:102150008D8987FF39C09091E80090FFFCCF982FC0
:10216000907609F034C19E894F89588D2F89F88C5B
:10217000911131C0803861F5809106058093F1009E
:102180001092F1008EEF8093E8006C960FB6F894F1
:10219000DEBF0FBECDBFDF91CF91FF91EF91BF9119
:1021A000AF919F918F917F916F915F914F913F91EF
:1021B0002F911F910F91FF90EF90DF90CF900F9094
:1021C0000FBE0F901F9018959EEF9093E800C7CF19
:1021D0001092F100D5CF913059F48111D3CF413015
:1021E000510581F6809106058D7F80930605CACF43
:1021F000933049F48111C6CF4130510519F68091D1
:1022000006058260F2CF953041F48091E80080FFAE
:10221000FCCF20682093E300B5CF963009F0A9C029
:102220000B8D1C8D22E01092E90010920205109295
:102230000105F2122EC0109200051092FF040E94B8
:10224000DB041F8299E09983FA8291E09E8390EAF1
:1022500098879AEF99872091010530910205275FB1
:102260003F4F3C832B838D831092E900109202052F
:1022700010920105109300050093FF0449E050E01F
:10228000BE016F5F7F4F80E00E94B5040E94DB04B7
:1022900079CF109300050093FF040E945A02DC01DD
:1022A00012960D911C910115110509F451C1D80127
:1022B000ED91FC910480F581E02DBE016B5E7F4FB6
:1022C000C8010995009709F03EC1F8010085118504
:1022D000EACFF3E0FF120EC08F89882309F440C0D3
:1022E000823061F440E862E18DE192E00E94820474
:1022F000811148CF81E28093EB0047CF813029F4F0
:1023000040E868E084E192E0F1CF833099F70E94E1
:102310005A02DC011296ED90FC908E010F5F1F4F68
:102320006801E114F10479F0D701ED91FC91068088
:10233000F781E02DB801C7010995080F111DF701BC
:10234000E084F184EECFD8011C92F60101900020C8
:10235000E9F73197BF016C197D0940E0C601C6CF8E
:102360006EEF71E0FB01449150E080E80E94B504FB
:1023700009CF973009F4BECF983021F481E08093E3
:10238000F10000CF993009F0FDCE837009F0B2CF93
:10239000E5E2F1E081E031E096E32191222371F062
:1023A0008093E9003093EB00DF0111972C9120938B
:1023B000EC009093ED008F5F873079F78EE7809384
:1023C000EA001092EA008F898093EE05DBCE8B8DB8
:1023D0009C8D1092E90010920205109201059093D5
:1023E00000058093FF04898D811192C08E899D899B
:1023F000913A49F4813209F07DCF47E050E06CE139
:1024000071E080E0B3CF913209F074CF833269F488
:102410008F89988DB0E0A0E0809300019093010136
:10242000A0930201B0930301ADCE803269F4809194
:10243000E80082FFFCCF67E08CE191E00E940C0590
:102440008BEF8093E8009ECE823209F09BCE8F897D
:1024500080932301EEEFFFE7859194918B3F9C4D94
:1024600051F1E0E0F8E080911C0190911D01A091F4
:102470001E01B0911F01803B9440A105B105F1F40C
:102480008091230180FD1AC0EE3F8AE0F80789F5AC
:1024900087E797E7918380838091600080930305AD
:1024A00088E19BE00FB6F894A895809360000FBE7A
:1024B0009093600067CEEEEFFAE0D5CF80819181F6
:1024C0008737974709F05ECEA895809160008861B4
:1024D000809360008091030580936000EE3F2AE0C6
:1024E000F20789F08091FE0A9091FF0A9183808320
:1024F00049CE808191818737980751F29093FF0AE6
:102500008093FE0AC5CF1092FF0A1092FE0A3ACEBF
:102510000E945A02DC0112960D911C9101151105C1
:1025200009F4E8CED801ED91FC910190F081E02D05
:10253000BE016B5E7F4FC8010995811123CEF80162
:1025400000851185EBCF181619060CF41BCED2CEE0
:10255000F1E0FF12BECE62E072E004CF1F920F9254
:102560000FB60F9211242F933F934F935F936F9366
:102570007F938F939F93AF93BF93EF93FF9388E0E5
:1025800096E00E94BB05FF91EF91BF91AF919F91A3
:102590008F917F916F915F914F913F912F910F900C
:1025A0000FBE0F901F9018951F920F920FB60F92AB
:1025B00011242F938F939F93EF93FF93E09118062D
:1025C000F09119068081E0911E06F0911F0682FDB0
:1025D0001BC09081809121068F5F8F73209122060E
:1025E000821741F0E0912106F0E0E85FF94F958F06
:1025F00080932106FF91EF919F918F912F910F90E2
:102600000FBE0F901F9018958081F4CF1F920F92EC
:102610000FB60F9211242F933F934F935F936F93B5
:102620007F938F939F93AF93BF93CF93EF93FF933A
:1026300083B190916B00892380932A0580912905AD
:1026400090912A0589278093280580912A058093F7
:102650002905C0E080912705C81760F4EC2FF0E051
:10266000EE0FFF1FE15EFA4F0190F081E02D09951A
:10267000CF5FF0CFFF91EF91CF91BF91AF919F913D
:102680008F917F916F915F914F913F912F910F901B
:102690000FBE0F901F901895E8E0F6E013821282AB
:1026A00088EE93E0A0E0B0E084839583A683B783AF
:1026B0002FE431E0318320832DEC30E0358724870F
:1026C0002CEC30E03787268728EC30E0318B208BEC
:1026D00029EC30E0338B228B2AEC30E0358B248BD5
:1026E0002EEC30E0378B268B118E128E138E148ECB
:1026F000E5EAF6E01382128284839583A683B7838A
:1027000081E691E0918380838FEF9FEF95878487A7
:102710008DE791E09093440780934307E8E4F7E066
:1027200020812B7F20839093320780933107E6E34B
:10273000F7E020812B7F20839093200780931F0751
:10274000E4E2F7E020812B7F208390930E078093B3
:102750000D07E2E1F7E020812B7F20839093FC06B8
:102760008093FB06E0E0F7E080818B7F808383E746
:1027700091E09093FA068093F9060E94B303609368
:10278000F5067093F6068093F7069093F8060C947E
:10279000B303CF93DF93CDB7DEB7789484B582606F
:1027A00084BD84B5816084BD85B5826085BD85B5F5
:1027B000816085BD80916E00816080936E00109273
:1027C00081008091810082608093810080918100EE
:1027D000816080938100809180008160809380007F
:1027E000809191008260809391008091910081603E
:1027F00080939100809190008160809390008091FF
:10280000C10084608093C1008091C1008260809388
:10281000C1008091C10081608093C1008091C3009C
:1028200081608093C3008091C00082608093C0006B
:102830008091C20081608093C20080917A008460A0
:1028400080937A0080917A00826080937A008091F0
:102850007A00816080937A0080917A00806880930A
:102860007A001092EE0510920605109205058091EF
:10287000D70081608093D70080EA8093D80089B523
:10288000806189BD89B5826089BD09B400FEFDCF34
:1028900061E070E080E090E00E9472038091D800D7
:1028A0008F7C80618093D8008091E000807F80934E
:1028B000E0008091E1008E7E8093E1008DE08093C6
:1028C000E200559A209A6DB67EB660E084E00E94E0
:1028D000110361E085E00E94110361E085E00E9440
:1028E000E3020E94040B05E411E062E0F80181912B
:1028F0008F010E941103F1E00D341F07B1F7E09141
:102900001806F091190682E08083E0911406F09198
:1029100015061082E0911606F09117068FEC808361
:1029200010922006E0911C06F0911D0686E080833F
:10293000E0911A06F0911B06808180618083E0910E
:102940001A06F0911B06808188608083E0911A0648
:10295000F0911B06808180688083E0911A06F091D7
:102960001B0680818F7D80838FEF9FEF9093B2064F
:102970008093B10668EE73E080E090E00E947203FD
:102980008091BF05882331F085EA96E09093080591
:10299000809307050E94A403882321F081EB91E036
:1029A0000E94DF0B88E096E09093F6058093F50592
:1029B00010920A051092090562E070E089E00E9419
:1029C000BF0370E060E087E00E94BF038091FD05D7
:1029D00090E00E944E0764EF71E080E090E00E947A
:1029E00072038091FD0590E00E944E0764EF71E054
:1029F00080E090E00E94720383E40E94560783E423
:102A000090E00E940A0E8093570588E40E945607C2
:102A100088E490E00E940A0E8FE40E9456078FE43B
:102A200090E00E940A0E8C018FEC91E00E94DF0B77
:102A3000402F50E070E060E02AE085EA96E00E94D6
:102A40004D0B85EA96E00E94F40D1127C801880F0E
:102A5000991F2DB73EB7281B390B0FB6F8943EBF10
:102A60000FBE2DBFADB7BEB71196EDB7FEB7128240
:102A7000118213961C921E9212973596C8010397E5
:102A800097FF39C07D01D12CC12C0C151D05B9F162
:102A90005601FFEFAF1ABF0AB5018EE40E94BF03D3
:102AA0008EE490E00E940A0E4C01F701819391930D
:102AB0007F0189ED91E00E94DF0B4AE050E0B40114
:102AC00085EA96E00E94A10B8FED91E00E94DF0B5A
:102AD0004AE050E0B60185EA96E00E94A10B63EF60
:102AE00071E085EA96E00E943E0B85EA96E00E943E
:102AF000F40D6501CACF119211920197C1CF81E007
:102B000080933A0560E085E00E94E30285EA96E062
:102B10000E94F40D62E572E085EA96E00E94F80DED
:102B200061E472E085EA96E00E94F80D69E372E0E4
:102B300085EA96E00E9419054AE050E061E070E005
:102B400085EA96E00E94A10B67E372E085EA96E0D1
:102B50000E9419054AE050E061E070E085EA96E0E5
:102B60000E94A10B60E372E085EA96E00E94F80DF6
:102B700085EA96E00E94F40D80915705882309F4B8
:102B8000FDC30E94A403882321F085EF91E00E94F9
:102B9000DF0B0E94A403882321F08CE292E00E94C4
:102BA000DF0B0E94A403882321F08CE492E00E94B2
:102BB000DF0B0E94390C809104068130C9F462E079
:102BC00083E497E00E94C40A63E081E397E00E94F7
:102BD000C40A69E08FE197E00E94C40A67E08DE0D3
:102BE00097E00E94C40A68E08BEF96E00E94C40A56
:102BF000809104068230D1F583B190916B008923D6
:102C000080932A0580912A058093290589B18F70C8
:102C10008093360580913605809335056FEA78E01C
:102C200082E00E94480A809337058091370587FD2E
:102C30001DC090E080E02CED35E0FC01EE0FFF1FA1
:102C4000E35FFA4F31832083019689309105A9F71C
:102C50008AE080930C05109252051092530582E091
:102C600080930B0580910B050E94DE0981E0809323
:102C7000BE050FB6F8947EBE0FBE6DBE35EE232E98
:102C800032E0332E09E515E080E3482E83E0582E2C
:102C900093E6692E92E0792E27E7C22E22E0D22E0B
:102CA00085EA96E00E94340718161906ACF485EA06
:102CB00096E00E94F20690913805883009F466C3C8
:102CC0008D3009F06AC3E92FF0E0E55CFA4F10821D
:102CD0001092380597FF6DC3F090040691E0F91249
:102CE000BCC067E083E497E00E948408882309F46D
:102CF000ADC6F092D7052091D5053091D605C90112
:102D0000880F991F820F931F20915107309152070E
:102D1000409151075091520724173507A9F7820FA8
:102D2000931F96958795969587959093D605809352
:102D3000D50567E081E397E00E9484088823F1F0DD
:102D40002091D3053091D405C901880F991F820FB6
:102D5000931F20913F073091400740913F075091CA
:102D6000400724173507A9F7820F931F969587957B
:102D7000969587959093D4058093D30567E08FE16E
:102D800097E00E9484088823F1F02091D1053091CA
:102D9000D205C901880F991F820F931F20912D071B
:102DA00030912E0740912D0750912E07241735079B
:102DB000A9F7820F931F969587959695879590937F
:102DC000D2058093D10567E08DE097E00E948408EA
:102DD0008823F1F02091CF053091D005C901880FEB
:102DE000991F820F931F20911B0730911C07409160
:102DF0001B0750911C0724173507A9F7820F931F53
:102E000096958795969587959093D0058093CF0555
:102E100067E08BEF96E00E9484088823F1F0209110
:102E2000CD053091CE05C901880F991F820F931FE0
:102E30002091090730910A074091090750910A072C
:102E400024173507A9F7820F931F969587959695B6
:102E500087959093CE058093CD05809104068230AE
:102E600009F03FC080915205882309F4F2C5809192
:102E7000530590E0880F892F881F990B892B09F43F
:102E8000E8C5809153058F778093530581E0809347
:102E9000D7058091F8050E9487099093D605809305
:102EA000D5058091F9050E9487099093D4058093F8
:102EB000D3058091FA050E9487099093D2058093EB
:102EC000D1058091FB050E9487099093D0058093DE
:102ED000CF058091FC050E9487099093CE058093D1
:102EE000CD058091050681112FC08091D7058111F4
:102EF000B3C50E94B3038090F5069090F606A090AB
:102F0000F706B090F806681979098A099B096A3FA3
:102F1000710581059105A0F0F09011016F2D85E0FC
:102F20000E94E30281E0F826F09211010E94B303AF
:102F30006093F5067093F6068093F7069093F80673
:102F400080910506882339F10E94B3038090F5062D
:102F50009090F606A090F706B090F80668197909E7
:102F60008A099B096A3F710581059105A0F0F090DF
:102F700011016F2D85E00E94E30281E0F826F092B6
:102F800011010E94B3036093F5067093F6068093D7
:102F9000F7069093F8068091CC05882309F44BC07E
:102FA0008091D5059091D605009709F46CC58C3DAC
:102FB000E5E09E0708F055C5209102063091030612
:102FC0008217930720F490930306809302062091C2
:102FD0000006309101064091020650910306240F2D
:102FE000351F369527953093FF052093FE050E94E7
:102FF000990B82EA94E00E94DF0B80910206909187
:1030000003060E94990B82EA94E00E94DF0B8091F4
:10301000FE059091FF050E94990B82EA94E00E94C0
:10302000DF0B80910006909101060E94990B85EAC2
:1030300096E00E94F40D8091C40581110DC00E949C
:10304000B3036093C0057093C1058093C20590934C
:10305000C30581E08093C4050E94B3038090C0053E
:103060009090C105A090C205B090C3056819790978
:103070008A099B09653F71408105910508F471C17A
:103080000E94B3036093C0057093C1058093C2058D
:103090009093C3058091BF05882309F479C00E94ED
:1030A000A403882331F08091D5059091D6050E9424
:1030B000990B0E94A403882321F082EA94E00E94E5
:1030C000DF0B0E94A403882331F08091D3059091F7
:1030D000D4050E94990B0E94A403882321F082EA60
:1030E00094E00E94DF0B0E94A403882331F08091BA
:1030F000D1059091D2050E94990B0E94A4038823C8
:1031000021F082EA94E00E94DF0B0E94A40388234E
:1031100031F08091CF059091D0050E94990B0E94CB
:10312000A403882321F082EA94E00E94DF0B0E942E
:10313000A403882331F08091CD059091CE050E94A3
:10314000990B0E94A403882321F082EA94E00E9454
:10315000DF0B0E94A4038823D9F08091BE051F9243
:103160008F938FE493E09F938F931F9284E68F93C6
:103170001F930F930E94B71D89E595E00E94DF0B16
:103180008DB79EB708960FB6F8949EBF0FBE8DBF41
:103190002091D5053091D605F090570521153105C0
:1031A00009F476C48090020690900306B12CA12CFD
:1031B00050E040E0281939094A095B09ADE1B0E067
:1031C0000E949A20209100063091010650E040E0D4
:1031D000281939094A095B090E947B202F5F3F4F5C
:1031E0004F4F5F4F20935805809158058F1519F068
:1031F00090E00E944E07809158058093570584E027
:103200000E94BA02809356052091D1053091D205D3
:103210002115310581F18091FE059091FF05885CB3
:1032200091092817390708F036C4109210018091CF
:103230001001813009F033C4809355058091D10588
:103240009091D205892BB9F08091FE059091FF05F0
:1032500088539F4F2091D3053091D405821793074F
:1032600008F02FC410920F0180910F01813009F0F6
:103270002CC4809354052091CD053091CE052115A5
:10328000310599F08091FE059091FF0588539F4F7D
:103290008217930708F02BC410920E0180910E0143
:1032A000813009F028C4809354052091CF053091D6
:1032B000D00521153105F1F08091FE059091FF05B3
:1032C000885C91092817390718F48EE00E94560788
:1032D0008091FE059091FF0588539F4F2091CF0567
:1032E0003091D0058217930728F48091BE0590E0B5
:1032F0000E94520785E4882E81E0982EEE24E39404
:10330000F12C24E6B22EF40181914F010E94BA0201
:10331000892B01F5B70182E10E94BF030E94A4033B
:103320008823C1F0FF92EF9229E333E03F932F937C
:103330001F92BF921F930F930E94B71D89E595E0DE
:103340000E94DF0BEDB7FEB738960FB6F894FEBFBC
:103350000FBEEDBFFFEFEF1AFF0A27E0E216F10400
:1033600091F680E090E0892B09F49ACC0E94A705A1
:10337000882309F489CC0E94000086CC0E94A40313
:10338000882309F406CC80E192E001CC992309F46A
:10339000A3CC9150909338059FCC963138F4E92F07
:1033A000F0E0E55CFA4F80839F5FF4CF1092380520
:1033B00093CC80913B058D3409F4DBC03CF58D3214
:1033C00009F40FC36CF4882309F45EC08B3209F44E
:1033D000F7C260EC72E08BE395E00E94A81DBEC0CE
:1033E000853409F4CEC1883409F44EC0813489F79C
:1033F0000E94A403882321F08AE694E00E94DF0B58
:103400008091BE0590E00E945207A6C0833509F462
:10341000FCC02CF5803509F4E5C18235D1F60E9457
:10342000A403882321F080E894E00E94DF0BF12CB4
:10343000E12C60E0C7010E946D203FEFE31AF30A20
:10344000E11484E0F806A9F782E00E940D040E94CE
:10345000A403882309F480C08CE894E07BC08635FF
:1034600009F4A1C0883509F4CBC2853509F0B1CF84
:1034700080910506882309F4E2C28091390591E024
:1034800089278093390568C00E94A403882321F00E
:103490008EE692E00E94DF0B0E94A403882321F0B5
:1034A00089E792E00E94DF0B0E94A403882321F0A9
:1034B0008CE892E00E94DF0B0E94A403882321F095
:1034C0008FE992E00E94DF0B0E94A403882321F081
:1034D0008FED92E00E94DF0B0E94A403882321F06D
:1034E00087E393E00E94DF0B0E94A403882321F06E
:1034F00086E593E00E94DF0B0E94A403882321F05D
:1035000089E793E00E94DF0B0E94A403882321F047
:1035100083E993E00E94DF0B0E94A403882321F03B
:103520008CEA93E00E94DF0B0E94A403882321F021
:103530008CEB93E00E94DF0B0E94A403882321F010
:1035400082ED93E00E94DF0B0E94A403882321F008
:1035500084E393E00E94DF0B10923C056BE375E07F
:1035600085EA96E00E943E0B85EA96E00E94F40D03
:10357000B3CB8091CC0591E089278093CC0588233B
:1035800039F00E94A403882339F38DEE93E0E2CF53
:103590000E94A403882321F087E094E00E94DF0BBF
:1035A0000E941D0BD9CF80913C058D3309F011CFBE
:1035B0008DE395E00E948A1D4C018FEF880D8E31BE
:1035C00068F60E94A4037401FF248823C1F0FF92CF
:1035D000EF925F924F921F9284E68F931F930F9307
:1035E0000E94B71D89E595E00E94DF0B2DB73EB71D
:1035F000285F3F4F0FB6F8943EBF0FBE2DBF80929D
:10360000FD05C7010E944E07CBCF80913C058D334D
:1036100009F0B1C080913D05873519F40E94E90B8E
:10362000BFCF893481F58FE395E00E948A1D809396
:1036300004060E94A403882309F4B2CFE091040693
:10364000E150FF0BEE0FFF1FE95CFE4F81818F936E
:1036500080818F938DE193E09F938F931F9284E6F7
:103660008F931F930F930E94B71D89E595E00E94E9
:10367000DF0B2DB73EB7285F3F4F0FB6F8943EBF24
:103680000FBE2DBF8DCF8133B9F480913E058032BE
:1036900009F086CF8FE395E00E948A1D8093F8059C
:1036A0000E94A403882309F47BCF8091F8051F9220
:1036B0008F9381E193E0D0CF8233B9F480913E05BE
:1036C000803209F06DCF8FE395E00E948A1D8093D0
:1036D000FA050E94A403882309F462CF8091FA05B9
:1036E0001F928F9384E093E0B7CF8333B9F4809136
:1036F0003E05803209F054CF8FE395E00E948A1D89
:103700008093F9050E94A403882309F449CF80918E
:10371000F9051F928F9387EF92E09ECF843309F0D3
:103720003FCF80913E05803209F03ACF8FE395E09C
:103730000E948A1D8093FB050E94A403882309F43C
:103740002FCF8091FB051F928F933F922F921F9254
:1037500084E68F931F930F930E94B71D89E595E030
:103760000E94DF0B8DB79EB708960FB6F8949EBFE8
:103770000FBE8DBF15CF8F3309F02BCE0E94390CB1
:10378000EBCE8DE395E00E948A1D863008F021CEB5
:10379000809307060E94A403882309F401CFE091D7
:1037A0000706F0E0EE0FFF1FE55DFE4F81818F936E
:1037B00080818F9387ED92E09F938F931F9284E691
:1037C0008F931F930F930E94B71D89E595E00E9488
:1037D000DF0BEDB7FEB738960FB6F894FEBF0FBEFD
:1037E000EDBFDECE80913C058F3309F0F2CD8091A4
:1037F0003A05882309F4DDC00E94A403882321F040
:1038000084E393E00E94DF0B0E94A403882321F04D
:1038100080E294E00E94DF0B0E94A403882321F041
:103820008EE394E00E94DF0B0E94A403882321F022
:1038300080E294E00E94DF0B82E40E9456070E941F
:10384000A4038823F1F082E490E00E940A0E9F9383
:103850008F938DEA92E09F938F931F9284E68F93CC
:103860001F930F930E94B71D89E595E00E94DF0B1F
:103870002DB73EB7285F3F4F0FB6F8943EBF0FBE3F
:103880002DBF83E40E9456070E94A4038823E9F019
:1038900083E490E00E940A0E9F938F938AE992E05E
:1038A0009F938F931F9284E68F931F930F930E9491
:1038B000B71D89E595E00E94DF0B8DB79EB708968E
:1038C0000FB6F8949EBF0FBE8DBF84E40E945607CA
:1038D00084E490E00E940A0E0E94A403882311F160
:1038E000E0910706F0E0EE0FFF1FE55DFE4F8181DE
:1038F0008F9380818F93E9E8F2E0FF93EF931F921B
:1039000084E68F931F930F930E94B71D89E595E07E
:103910000E94DF0B8DB79EB708960FB6F8949EBF36
:103920000FBE8DBF88E40E9456070E94A40388231F
:10393000D9F088E490E00E940A0E9F938F93DF9263
:10394000CF921F9284E68F931F930F930E94B71D0F
:1039500089E595E00E94DF0BEDB7FEB738960FB60C
:10396000F894FEBF0FBEEDBF8CE40E9456070E9484
:10397000A403882309F4F0CD8CE490E00E940A0EA1
:103980009F938F937F926F921F9284E68F931F93E2
:103990000F930E94B71D89E595E00E94DF0B2DB7BC
:1039A0003EB7285F3F4F0FB6F8943EBF0FBE2DBF06
:1039B000D3CD64EC72E085EA96E00E941905CCCD87
:1039C0000E94A403882321F08CE594E00E94DF0B81
:1039D0008091BE058F5F8093BE0581E00E945607EF
:1039E000BBCD0E94A403882321F083E694E00E94CB
:1039F000DF0B8091BE0581508093BE0582E0EECF43
:103A00008091560581110BC08EE00E9456070E94DE
:103A1000A403882321F081E794E00E94DF0B8091CA
:103A20005605813009F098CD8DE00E9456070E941E
:103A3000A403882309F490CD89E794E08BCD80918D
:103A4000BF0591E089278093BF0586CD1092D705E9
:103A500070C91092D70545CA61E085E00E94E30273
:103A60006FCA8C3DF5E09F0709F4B1CA20910006AA
:103A7000309101062817390708F0A9CA909301066A
:103A800080930006A4CA84EA94E00E94DF0BD3CAA4
:103A9000F0925805A9CB81E080931001C8CB811129
:103AA000D3CB80915505882309F4CECB8091BE05F8
:103AB00081508093BE0590E00E94520710925505F8
:103AC000BDCB81E080930F01CFCB8111D4CB80910E
:103AD0005405882309F4CFCB8091BE058F5F809376
:103AE000BE0590E00E94520710925405C4CB81E0BD
:103AF00080930E01D3CB8111D8CB809154058823BC
:103B000009F4D3CB8091BE0590E00E945207109239
:103B10005405CBCBFC0188279927E89421912032CA
:103B2000E9F3293010F02E30C8F32B3241F02D325A
:103B300039F4689404C00E94AF1D820F911D219139
:103B400020532A30C0F31EF4909581959F4F08951D
:103B5000FB01DC0105900D920020E1F708957AE069
:103B6000979F902D879F802D910D11240895AEE091
:103B7000B0E0EDEBFDE10C94B3200D891E898F8937
:103B8000988D2EE02C831A83098397FF02C080E072
:103B900090E801979E838D83AE01455E5F4F698DEE
:103BA0007A8DCE0101960E94E71D4D815E8157FD01
:103BB0000AC02F813885421753070CF49A01020F6F
:103BC000131FF80110822E96E4E00C94CF20ABE096
:103BD000B0E0EDEEFDE10C94A5207C013B018A01F3
:103BE000FC0117821682838181FFC8C1CE01019634
:103BF0005C01F7019381F30193FD859193FF81911E
:103C00003F01882309F453C1853239F493FD85912E
:103C100093FF81913F01853229F4B70190E00E9422
:103C2000D71FE7CF912C212C312CFFE1F31538F071
:103C30008B3211F190F4803209F1833229F137FC93
:103C40003CC020ED280F2A3050F536FE20C08AE017
:103C5000989E200D1124922E06C08D3291F0803353
:103C600071F7689430F8F30193FD859193FF81918A
:103C70003F018111DACF21C0689431F8689432F89D
:103C8000F2CF689433F8EFCF689434F8ECCFEAE0E1
:103C90002E9E200D1124222E689435F8E4CF8E320A
:103CA00029F436FC04C1689436F8DDCF8C3619F45B
:103CB000689437F8D8CF8836B1F2982F9F7D955405
:103CC0009330E0F08336A1F18337C1F1833509F0F9
:103CD00063C02801F2E04F0E511CF801C080D18072
:103CE000692D70E036FC02C06FEF7FEFC6010E94C5
:103CF000C11F4C01689437F882010AC00C5F1F4F46
:103D0000FFE3F98388248394912C6501E89437F8C4
:103D100033FE2DC0522C8114910471F5552009F405
:103D200068CFB70180E290E00E94D71F5A94F6CF87
:103D3000F801808189830E5F1F4FE4CF2801F2E0F4
:103D40004F0E511CF801C080D180692D70E036FC07
:103D500002C06FEF7FEFC6010E94CC1F4C018201B1
:103D6000D5CFB70180E290E00E94D71F2A94281493
:103D7000190409F0B0F7CECFF60137FC859137FE74
:103D800081916F01B70190E00E94D71F51105A94A2
:103D9000F1E08F1A9108BFCF843619F0893609F007
:103DA00077C0F80137FE6BC0608171818281938199
:103DB0000C5F1F4FF32DFF763F2E97FF09C09095A4
:103DC0008095709561957F4F8F4F9F4F689437F81E
:103DD0002AE030E0A5010E940720C82ECA188C2CCA
:103DE000432C36FE0CC0E89440F8C91440F434FE6D
:103DF00005C032FC03C0F32DFE7E4F2E892C44FEFD
:103E000095C0FE01EC0DF11D8081803309F087C063
:103E1000242D297E422E842D8870582E43FC95C077
:103E200040FE8FC09C2C821418F42C0C922C9818F5
:103E300044FE91C0B70180E390E00E94D71F42FE8C
:103E400009C088E790E041FE02C088E590E0B70134
:103E50000E94D71FC91408F48AC0CA94D12C9FEFBE
:103E6000C91AD90ACA0CDB1CF60182916F01B7018D
:103E700090E00E94D71FAC14BD04B1F74FCF608112
:103E80007181072E000C880B990B0E5F1F4F92CF8C
:103E9000D32CE894D4F82AE030E0853739F1232D8B
:103EA000297FD22E8F3601F148F48835A9F0F70129
:103EB000868197812B96E2E10C94C120803749F0EE
:103EC0008837A9F7D4FE02C06894D2F820E130E028
:103ED0000DC06894D4F8F6CF34FE03C0822F8660FC
:103EE000D82E20E132E002C028E030E0F801D7FE11
:103EF0000FC060817181828193810C5F1F4FA5018A
:103F00000E940720C82ECA183D2CE89437F867CFC6
:103F10006081718190E080E00E5F1F4FF0CF42FC26
:103F200002C0839478CF8394839475CF842D867850
:103F300009F471CFF6CFB70180E290E00E94D71F5D
:103F400083948214C0F3512C73CF522C58188214CE
:103F500008F46ECFF8CF842D867809F47BCF8BE2FE
:103F600041FE80E247FC8DE2B70190E071CFB701DE
:103F700080E390E00E94D71F9A946CCF8FEF9FEF61
:103F800099CFFC010590615070400110D8F78095E1
:103F900090958E0F9F1F0895FC0161507040019015
:103FA0000110D8F7809590958E0F9F1F08950F935D
:103FB0001F93CF93DF93182F092FEB018B8181FD86
:103FC00009C01FEF0FEF812F902FDF91CF911F912D
:103FD0000F91089582FF14C02E813F818C819D81B5
:103FE000281739073CF4E881F981CF0101969983BC
:103FF000888310838E819F8101969F838E83E3CF78
:10400000E885F985812F0995892BA1F3DACFFA018B
:10401000AA27283051F1203181F1E8946F936E7F07
:104020006E5F7F4F8F4F9F4FAF4FB1E03ED0B4E0F8
:104030003CD0670F781F891F9A1FA11D680F791F39
:104040008A1F911DA11D6A0F711D811D911DA11D4A
:1040500020D009F468943F912AE0269F112430195A
:10406000305D3193DEF6CF010895462F4770405DF5
:104070004193B3E00FD0C9F7F6CF462F4F70405DA4
:104080004A3318F0495D31FD4052419302D0A9F7FF
:10409000EACFB4E0A6959795879577956795BA95F9
:1040A000C9F700976105710508959B01AC010A2EBF
:1040B00006945795479537952795BA95C9F7620F96
:1040C000731F841F951FA01D0895F999FECF92BDFF
:1040D00081BDF89A992780B50895262FF999FECFCA
:1040E0001FBA92BD81BD20BD0FB6F894FA9AF99A15
:1040F0000FBE01960895052E97FB1EF400940E94B2
:10410000922057FD07D00E94DC2007FC03D04EF41C
:104110000C94922050954095309521953F4F4F4FEC
:104120005F4F089590958095709561957F4F8F4F63
:104130009F4F08950E94FE20A59F900DB49F900D63
:10414000A49F800D911D112408952F923F924F92AC
:104150005F926F927F928F929F92AF92BF92CF9217
:10416000DF92EF92FF920F931F93CF93DF93CDB720
:10417000DEB7CA1BDB0B0FB6F894DEBF0FBECDBF98
:1041800009942A88398848885F846E847D848C8469
:104190009B84AA84B984C884DF80EE80FD800C8172
:1041A0001B81AA81B981CE0FD11D0FB6F894DEBF55
:1041B0000FBECDBFED010895A1E21A2EAA1BBB1BB5
:1041C000FD010DC0AA1FBB1FEE1FFF1FA217B307E3
:1041D000E407F50720F0A21BB30BE40BF50B661FF9
:1041E000771F881F991F1A9469F7609570958095BD
:1041F00090959B01AC01BD01CF010895A29FB00134
:10420000B39FC001A39F700D811D1124911DB29F0A
:10421000700D811D1124911D0895EE0FFF1F059053
:0A422000F491E02D0994F894FFCF0B
:10422A00FFFFFFFF530453045304530453040101D3
:10423A0001017EFF06000000000000EF00E100001F
:10424A000000000000C18081000000A704AE04B293
:10425A0004B704BC04C404C904CD04D204D704DCE2
:10426A0004E104E604121314150F0E00000000DC2A
:10427A00053D056A0528069B0579058D05000000A0
:10428A0000CD064806EE06E3063407F206100700DC
:10429A000000006C099F097A0800000000AD087B45
:1042AA00087A082A206F4F20454550524F4D205317
:1042BA00657474696E6773204F6F202A0D0A005661
:1042CA006F6C43683A202020202058414E590D0A2D
:1042DA00000D0A496E697469616C697A696E6720B2
:1042EA004446506C61796572202E2E2E0D0A004EBE
:1042FA0062466F6C6465723A0046696E64200020FB
:10430A00747261636B7320696E20666F6C64657288
:10431A002030002E004446506C61796572204D6948
:10432A006E69206973206F6E6C696E652E0D0A00C6
:10433A004446506C61796572204D696E69206973D3
:10434A00206F66666C696E652E0D0A006F4F2055E8
:10435A005345204352204F4E20594F555220544521
:10436A00524D494E414C204F6F0D0A004869742046
:10437A00456E746572206F722048202B20456E743A
:10438A00657220666F722048656C700D0A000D0A0E
:10439A00482048656C700D0A00533D5720577269D2
:1043AA00746520636F6E6669670D0A00533F205279
:1043BA006561642053657474696E67730D0A0053EE
:1043CA003D49205820583D313D50574D2C20323D13
:1043DA004350504D2C20333D534255532C20343DED
:1043EA00494255532C20353D53554D442C20363DDA
:1043FA004A4554492C20373D5352584C0D0A005314
:10440A003D59205A20593D3120746F203420313DC6
:10441A00566F6C2C20323D507265762C20333D4EFF
:10442A006578742C20343D506C61795061757365E0
:10443A002C353D506C617953616D65202F205A3DB2
:10444A003120746F20313220284368616E6E656CAA
:10445A00204E62290D0A00563D5820583D312074DD
:10446A006F2033302044656661756C7420566F6C1A
:10447A00756D650D0A004D204D6178692F43656E93
:10448A007472652F4D696E69204368616E6E656C42
:10449A0020696E2075530D0A00503F2052656164F1
:1044AA00204446506C6179657220636F6E66696755
:1044BA000D0A002B204F52202D204E6578742F5064
:1044CA0072657620536F756E640D0A0058202F505E
:1044DA006C61792F50617573650D0A00552044652A
:1044EA00627567206D6F6465204F4E2F4F46460DEB
:1044FA000A00522057726974652044656661756CBA
:10450A00742053657474696E67730D0A005374617D
:10451A007274204D696E69204D61786920736561F6
:10452A007263683A0D0A0053746F70204D696E69A0
:10453A00204D617869207365617263683A0D0A00DB
:10454A002A2A2A2A2A2A2A2A2A2A2A2A2A2A2A2AC1
:10455A002A2A2A2A2A2A2A2A2A2A2A0D0A002A2022
:10456A006F4F204446506C617965722053657474AC
:10457A00696E6773204F6F202A0D0A004E45585402
:10458A000D0A00505245560D0A0053414D450D0A79
:10459A000050415553450D0A00504C41590D0A002F
:1045AA000D0A576169742E2E2E0D0A000D0A5265E6
:1045BA0073657420454550524F4D20446F6E650D0A
:1045CA000A0009002120004E4F524D414C00504F25
:1045DA005000524F434B004A415A5A00434C4153F0
:1045EA0053494300424153530050574D00435050E2
:1045FA004D005342555300494255530053554D44BB
:0C460A00004A455449005352584C00002F
:00000001FF
